:100000000C94C1020C94F2020C94F2020C94F202D1
:100010000C94F2020C94F2020C94F2020C94F20290
:100020000C94F2020C94F2020C94F2020C94F20280
:100030000C94F2020C9439150C94F2020C946A059B
:100040000C94F2020C94F2020C94F2020C94F20260
:100050000C94F2020C94F2020C94F2020C94FE1234
:100060000C94F2020C9434050C940A050C94F202E0
:100070000C94F2020C94F2020C94F2020C94F20230
:100080000C94F2020C94F2020C94F2020C94F20220
:100090000C94F2020C94F2020C94F2020C945C1098
:1000A0000C94F2020C94F2020C94F2020C94F20200
:1000B0000C94F2020C94F2020C94F2020C94F202F0
:1000C0000C94F2020C94F2020C94F2020C94F202E0
:1000D0000C94F2020C94F2020C94F2020C94F202D0
:1000E0000C94F2025F176F18DE1BCB1D5B1EBC1E4B
:1000F0007F1FF521F5216B1CAB0FAE0F9D0FA10FDC
:10010000A70FE50FB20FB60FBC0FC00FC40FCA0F79
:10011000CE0FD20FE50FD80FDC0FE00F0C94741345
:100120000C945C030C94AB0F0C941A0F0C946B1C86
:100130000C945B1E0C94C4240C94D20F0C94B20F3C
:100140000C94FF030C94BC0F0C94C8240C94F40280
:100150000C9417030C94290F0C945F170C94A303B1
:100160000C94610F0C94BC1E0C940B0F0C947F1F0D
:100170000C9403030C9425030C94DE1B0C94CE0FFB
:100180000C94D80F0C949D0F0C94A10F0C94E00FBD
:100190000C94310F0C94FE030C94720B0C94C40F4E
:1001A0000C94CA0F0C94DC0F0C94AE0F0C946F18C7
:1001B0000C94A70F0C940C0F0C94F5210C94CB1DF0
:1001C0000C94C00F0C9495060C94E50F0C94B60F8C
:1001D00000407A10F35A00A0724E18090010A5D4FE
:1001E000E80000E87648170000E40B54020000CA5B
:1001F0009A3B000000E1F5050000809698000000A1
:1002000040420F000000A0860100000010270000FF
:100210000000E803000000006400000000000A0085
:10022000000000000100000000002C76D888DC6788
:100230004F0823DFC1DFAE59E1B1B796E5E3E453E0
:10024000C63AE651997696E8E6C28426EB898C9BFD
:1002500062ED407C6FFCEFBC9C9F40F2BAA56FA59D
:10026000F490055A2AF75C936B6CF9676DC11BFC1F
:10027000E0E40D47FEF520E6B500D0ED902E03003A
:10028000943577050080841E080000204E0A000087
:1002900000C80C333333330F986E12831141EF8D46
:1002A0002114893BE65516CFFEE6DB18D1844B3886
:1002B0001BF77C1D901DA4BBE424203284725E22B7
:1002C0008100C9F124ECA1E53D27526564732077D4
:1002D000696E212020202020202000477265656E55
:1002E000732077696E2120202020200044726177DE
:1002F0002067616D6521416761696E210057686FF4
:10030000277320636F77626F792120202000466178
:1003100073742064726177212020202020200063E4
:100320006174636842616C6C2C2C2C2C00526564E7
:10033000732077696E212020202020202000477222
:1003400065656E73206661696C212020202000475E
:100350007265656E732077696E2120202020200051
:1003600052656473206661696C2120202020202062
:100370000043726F7373206661696C212020202016
:100380002000436174636820616674657220626551
:1003900065700057686F20697320666173746572B9
:1003A0003F2120006B6579636F77626F79732C2C26
:1003B0002C2C00507265737320616E79206B657907
:1003C0002E2E2E0044726177696E67206265676920
:1003D0006E732120004F66667369646521202020BA
:1003E000202020202000326E642074696D65206218
:1003F0006567696E732100707265737320616E7931
:10040000206B65792E2E2E00526F74617465206208
:100410006F61726420616E640046696E616C207366
:10042000636F72653A202020200044726177206754
:10043000616D6521202020202020005265647320FA
:1004400077696E21202020202020200047726565DA
:100450006E732077696E212020202000000021008B
:10046000240027002A002D00300033000101000085
:10047000040107010A0100002200250028002B00CA
:100480002E003100340002010000050108010B01BB
:10049000000020002300260029002C002F0032003D
:1004A0000001000003010601090105050505070516
:1004B00008080808020202020A0A080804040404E0
:1004C000010101010101010103030303030303030C
:1004D000040707070C0C0C0C0C0C0C0C020202029B
:1004E00006060606060606060B0B0B0B0B0B0B0B84
:1004F0000102102020080810204010204080020136
:10050000020108040201010204081020408080401A
:100510002010080402018004020180402010080419
:1005200002010804020101020408102040800102B7
:1005300004081020408000000A0B02090C0D0E0870
:10054000070304010000000000000000000000009C
:10055000000000000000000000000000000000009B
:100560000000121110000000000000000000000058
:100570000000000000000000000000000200C8248D
:10058000C42411241FBECFEFD1E2DEBFCDBF00E0F7
:100590000CBF14E0A0E0B2E0EAE0FAE500E00BBF37
:1005A00002C007900D92A237B107D9F726E0A2E763
:1005B000B4E001C01D92A83FB207E1F712E0C0EC21
:1005C000D2E000E006C021970109802FFE010E94C1
:1005D000C02ACF3BD10780E00807A9F70E94E615A3
:1005E0000C94F32C0C940000FC01538D448D252FAA
:1005F00030E0842F90E0821B930B541710F0CF96BD
:10060000089501970895FC01918D828D981761F0EE
:10061000828DDF01A80FB11D5D968C91928D9F5F39
:100620009F73928F90E008958FEF9FEF0895FC01E4
:10063000918D828D981731F0828DE80FF11D858D97
:1006400090E008958FEF9FEF0895FC01918D228D2A
:10065000892F90E0805C9F4F821B91098F739927AF
:1006600008958AE195E00E94250321E0892B09F491
:1006700020E0822F0895FC01848DDF01A80FB11DB9
:10068000A35ABF4F2C91848D90E001968F739927C8
:10069000848FA689B7892C93A089B1898C918064B5
:1006A0008C93938D848D981306C00288F389E02D76
:1006B00080818F7D80830895EF92FF920F931F9327
:1006C000CF93DF93EC0181E0888F9B8D8C8D981305
:1006D00005C0E889F989808185FD24C0F62E0B8D3F
:1006E00010E00F5F1F4F0F731127E02E8C8DE81263
:1006F0000CC00FB607FCFACFE889F989808185FF25
:10070000F5CFCE010E943B03F1CF8B8DFE01E80FA8
:10071000F11DE35AFF4FF0820B8FEA89FB8980813C
:10072000806207C0EE89FF896083E889F98980814A
:100730008064808381E090E0DF91CF911F910F91E1
:10074000FF90EF900895CF93DF93EC01888D88237D
:10075000C9F0EA89FB89808185FD05C0A889B9892E
:100760008C9186FD0FC00FB607FCF5CF808185FF09
:10077000F2CFA889B9898C9185FFEDCFCE010E9477
:100780003B03E7CFDF91CF91089580E090E0892B84
:1007900021F00E943103811125C080E090E0892B77
:1007A00041F080E090E0892B21F00E94000081114F
:1007B0001CC080E090E0892B41F080E090E0892B24
:1007C00021F00E940000811113C080E090E0892B8D
:1007D000A1F080E090E0892B81F00E94000081115F
:1007E0000AC008950E940000D8CF0E940000E1CF07
:1007F0000E940000EACF0C9400000895089580E064
:1008000090E00895823081F01CF4813031F020C0F6
:10081000833089F08430B1F01BC061307105C9F0BC
:100820006F3F7F4FA9F417C061307105B1F06F3F82
:100830007F4F71F414C06130710599F06F3F7F4FA5
:1008400039F411C06130710581F06F3F7F4F79F04D
:10085000089583E0089582E0089586E0089585E094
:10086000089589E0089588E008958CE008958BE06C
:1008700008952F923F924F925F926F927F928F9244
:100880009F92AF92BF92CF92DF92EF92FF920F931F
:100890001F93CF93DF9300D0CDB7DEB79B838A83BE
:1008A000FC01008110E080890E948E110817190751
:1008B00021F0EA81FB81168696C00E94F2126B013C
:1008C0007C01EA81FB8186858F5F86879785891702
:1008D00008F489C0908181E09827998390831686D7
:1008E00088EE482E83E0582E612C712CC701B6018A
:1008F000A30192010E9497290CE310E0C901B801FD
:100900000E94AC2A1C01EA81FB8181889288A3881D
:10091000B488C501B401A30192010E949729C901BD
:10092000B8010E94AC2A2816390658F0D701C60132
:1009300088199909AA09BB0981369A4EA105B10502
:1009400020F0EA81FB8115821482EA81FB81C18A51
:10095000D28AE38AF48A628173816F5F7F4F7383E7
:100960006283048115810F5F1F4F1583048380E02C
:1009700090E00E94B3284B015C01C701B6010E94C0
:10098000B32820E030E04AE754E40E94352A9B0176
:10099000AC01C501B4010E94352AEA81FB8166835E
:1009A000778380879187B80180E090E00E94B32828
:1009B0006B017C01B10180E090E00E94B3289B01B3
:1009C000AC01C701B6010E94352AEA81FB8162872A
:1009D000738784879587F98181E0FF2329F0EA8175
:1009E000FB81818301C080E00F900F900F90DF9119
:1009F000CF911F910F91FF90EF90DF90CF90BF901C
:100A0000AF909F908F907F906F905F904F903F90AE
:100A10002F9008951F920F920FB60F9211240BB6CC
:100A20000F922F933F934F935F936F937F938F9387
:100A30009F93AF93BF93EF93FF938AE195E00E945A
:100A40003B03FF91EF91BF91AF919F918F917F9168
:100A50006F915F914F913F912F910F900BBE0F902F
:100A60000FBE0F901F9018951F920F920FB60F9206
:100A700011240BB60F922F938F939F93EF93FF93B5
:100A8000E0912A05F0912B058081E0913005F091ED
:100A9000310582FD12C09081809133058F5F8F7385
:100AA00020913405821751F0E0913305F0E0E65EC5
:100AB000FA4F958F8093330501C08081FF91EF91AC
:100AC0009F918F912F910F900BBE0F900FBE0F90A3
:100AD0001F9018951F920F920FB60F9211240BB60C
:100AE0000F922F933F934F935F936F937F938F93C7
:100AF0009F93AF93BF93EF93FF9380917204909174
:100B000073048093B2008091C0049091C104A091BD
:100B1000C204B091C3040196A11DB11D8093C0040D
:100B20009093C104A093C204B093C3048091C00405
:100B30009091C104A091C204B091C3044091760485
:100B40005091770460917804709179048417950727
:100B5000A607B70710F18091BF0481111EC081E084
:100B60008093BF048091C0049091C104A091C204FD
:100B7000B091C304841B950BA60BB70B8093C004E4
:100B80009093C104A093C204B093C304E091740491
:100B9000F091750419951092BF04FF91EF91BF91E8
:100BA000AF919F918F917F916F915F914F913F9105
:100BB0002F910F900BBE0F900FBE0F901F901895A6
:100BC0001092C0041092C1041092C2041092C30487
:100BD0001092BF0480917204909173048093B200CC
:100BE000E0E7F0E08081816080830895CF93FC018D
:100BF000C48121E02093E404C093BE0410920D054B
:100C000010920C058385682B8EE095E00E94610FA1
:100C100080910C05813208F046C090910B0591112E
:100C2000FCCF92E090930B0591E090930A059FEF23
:100C30009093E5041092070580930605A4ECB4E0B8
:100C400026EE34E0F9019E2F921B981718F49D911F
:100C50009193F9CF1092080580910805CC0FC82B0D
:100C6000C093080580910905813061F4109209054F
:100C7000809108058093BB008091BC0083FDF8CF74
:100C800085EC01C085EE8093BC0080910B0582301D
:100C9000E1F38091E5048F3F31F08091E5048032EB
:100CA00011F08091E50410920D0510920C05109240
:100CB000E404CF9108950F931F93CF938C01C62F17
:100CC0000E94F6056C2F6460C8010E94F6056C2F27
:100CD0006B7FC8010E94F60583EC90E00197F1F765
:100CE000CF911F910F910895FF920F931F93CF9370
:100CF000DF931F92CDB7DEB78C01F62E962F907F33
:100D0000692F642BC80149830E945B0680E1F89E2D
:100D1000B00111244981642BC8010F90DF91CF915C
:100D20001F910F91FF900C945B0641E00E947406A6
:100D300081E090E00895109287061092720610925A
:100D40005D06109248061092330610921E0610920D
:100D500009061092F4051092DF051092CA05109250
:100D60007C0408958F929F92AF92BF92EF92FF9270
:100D70001F93CF93DF937B0180E30E948E11892B19
:100D800009F4FCC1809105028E3221F08F3F09F0F9
:100D9000F5C104C0ECE7F5E01491E8C08EE2809361
:100DA0000502ECE7F5E0E491EF3F09F4E7C1E2303A
:100DB00009F472C04CF5EE2309F451C0E13009F09A
:100DC000D4C01092800010928100809181008860D0
:100DD0008093810080918100816080938100E8EDA3
:100DE000F4E0E491F0E0EE0FFF1FEA58FB4F85912D
:100DF00094919093A6048093A504EEE1F5E0E4912C
:100E0000E093A40411E0B4C0E43009F48BC00CF406
:100E100066C0E53009F0A9C01092200110922101AE
:100E2000809121018860809321018091210181605E
:100E300080932101E8EDF4E0E491F0E0EE0FFF1F74
:100E4000EA58FB4F8591949190939D0480939C0464
:100E5000EEE1F5E0E491E0939B0415E089C014BC59
:100E600015BC84B5826084BD85B5816085BDE8ED23
:100E7000F4E0E491F0E0EE0FFF1FEA58FB4F85919C
:100E800094919093A9048093A804EEE1F5E0E49195
:100E9000E093A70410E06CC01092B0001092B10073
:100EA0008091B00082608093B0008091B100816039
:100EB0008093B100E8EDF4E0E491F0E0EE0FFF1F65
:100EC000EA58FB4F859194919093EE068093ED063E
:100ED000EEE1F5E0E491E093EF0612E049C01092F4
:100EE0009000109291008091910088608093910011
:100EF00080919100816080939100E8EDF4E0E491AD
:100F0000F0E0EE0FFF1FEA58FB4F8591949190930C
:100F1000A3048093A204EEE1F5E0E491E093A10440
:100F200013E026C01092A0001092A1008091A100B1
:100F300088608093A1008091A10081608093A100CE
:100F4000E8EDF4E0E491F0E0EE0FFF1FEA58FB4F0C
:100F5000859194919093A00480939F04EEE1F5E035
:100F6000E491E0939E0414E003C01E2F17FD06C118
:100F70004701A12CB12C61E08EE20E94E711112300
:100F800009F4F1C0123009F44DC0113071F48091B0
:100F90008100887F81608093810089288A288B283E
:100FA00009F480C0C9E6DAE04AC0133081F48091C8
:100FB0009100887F81608093910089288A288B28FE
:100FC00089F72FEF3FEFA901C9E6DAE096C01430A8
:100FD00081F48091A100887F81608093A10089289D
:100FE0008A288B28F9F62FEF3FEFA901C9E6DAE04E
:100FF00096C0153081F480912101887F81608093B3
:10100000210189288A288B2869F62FEF3FEFA90153
:10101000C9E6DAE096C0C9E6DAE089288A288B2892
:10102000D1F00DC08091B100887F83608093B100C2
:1010300089288A288B2809F44CC0C2E5D0E09701A2
:10104000A0E7B7E10E94B92928EE33E040E050E084
:101050000E94972903C02FEF3FEFA9011230E9F159
:101060002CF4112381F0113011F188C0143009F4EF
:1010700056C00CF442C0153009F463C07FC02FEF96
:101080003FEFA901C8E2C7BD2093BA043093BB0467
:101090004093BC045093BD0480916E0082608093A5
:1010A0006E006CC02FEF3FEFA901C9E6DAE0D093E4
:1010B0008900C09388002093B6043093B70440930E
:1010C000B8045093B90480916F00826080936F00E0
:1010D00055C02FEF3FEFA901C2E5C093B3002093A5
:1010E000F0063093F1064093F2065093F306809198
:1010F000700082608093700041C0D0939900C093CB
:1011000098002093B2043093B3044093B4045093F6
:10111000B504809171008260809371002FC0D093DC
:10112000A900C093A8002093AE043093AF0440936D
:10113000B0045093B1048091720082608093720079
:101140001DC0D0932901C09328012093AA04309395
:10115000AB044093AC045093AD0480917300826063
:10116000809373000BC085B5887F836085BD892817
:101170008A288B2809F483CFC8E260CFDF91CF9112
:101180001F91FF90EF90BF90AF909F908F90089528
:101190000F931F93CF93DF93CDB7DEB7C254D1091E
:1011A0000FB6F894DEBF0FBECDBF8C0180917000EA
:1011B0008E7F8093700080910002882309F403C120
:1011C00060917A04062E000C770B4AE0CE01CD9692
:1011D0000E94B71460910102062E000C770B4AE0C2
:1011E000CE01C7960E94B71460910202062E000C31
:1011F000770B4AE0CE01C1960E94B71460917B0440
:10120000062E000C770B4AE0CE018B960E94B71495
:1012100090910302692F990F770B4AE0CE018596D2
:101220000E94B71490910402692F990F770B4AE03E
:10123000CE014F960E94B71490918D04692F990F9B
:10124000770B4AE0CE0149960E94B71440917D0485
:1012500050917E0460917F04709180042AE0CE0159
:1012600043960E948A144091890450918A046091A7
:101270008B0470918C042AE0CE010D960E948A1492
:101280000E94F212AB01BC012AE0CE0101960E943D
:101290008A14BE016F5F7F4FCE0107960E941B1517
:1012A0006CE973E0CE0107960E944813BE01635FAC
:1012B0007F4F0E9461136CE973E00E944813BE01E6
:1012C0006D5E7F4F0E9461136CE973E00E944813CA
:1012D000BE01675E7F4F0E9461136CE973E00E945C
:1012E0004813BE01615E7F4F0E9461136CE973E099
:1012F0000E944813BE016B5D7F4F0E9461136CE931
:1013000073E00E944813BE01655D7F4F0E94611328
:101310006CE973E00E944813BE016F5C7F4F0E942E
:1013200061136CE973E00E944813BE01695C7F4F52
:101330000E9461136CE973E00E944813BE01635C74
:101340007F4F0E9461136CE973E00E944813B8015B
:101350000E946113BC018AE195E00E94D81542E029
:1013600050E061E474E08AE195E00E947413CE01DC
:1013700007960E945514CE0101960E945514CE0185
:101380000D960E945514CE0143960E945514CE012D
:1013900049960E945514CE014F960E945514CE01D5
:1013A00085960E945514CE018B960E945514CE014D
:1013B000C1960E945514CE01C7960E945514CE01C5
:1013C000CD960E9455140E94E005CE5BDF4F0FB60C
:1013D000F894DEBF0FBECDBFDF91CF911F910F916B
:1013E0000895CF92DF92EF92FF921F93CF93DF93F6
:1013F000CDB7DEB7A4970FB6F894DEBF0FBECDBF52
:101400009091040290930202909103029093010242
:1014100090917B0490937A0480930402609303027A
:1014200040937B040E94F2126093890470938A04B3
:1014300080938B0490938C0464E274E0CE01019657
:101440000E942415CE0101960E94C808CE01019683
:101450000E9455148091890490918A04A0918B0474
:10146000B0918C0480937D0490937E04A0937F04BC
:10147000B09380040E949B060E94BE252AE030E0C3
:1014800040E050E00E94652920918E04C22E220F78
:10149000DD08EE08FF086C0D7D1D8E1D9F1D0E944E
:1014A000B5286B017C0180917A04813049F4209148
:1014B00085043091860440918704509188040AC0C5
:1014C0008F3F71F420918104309182044091830414
:1014D00050918404C701B6010E94C9296B017C01A7
:1014E00080910302823009F088C080910402882331
:1014F00019F08B3009F081C011E020E030E040ECC1
:1015000050E4C701B6010E94A72A18160CF010E09B
:10151000409181045091820460918304709184040D
:1015200022E0CE0149960E945A14409185045091C0
:101530008604609187047091880422E0CE0143966E
:101540000E945A1460918E04062E000C770B4AE01C
:10155000CE010D960E94B71422E0B701A601CE017C
:1015600007960E945A146EE274E0CE0101960E9422
:101570002415BE01695F7F4FCE0101960E94611361
:101580006CE973E00E944813BE01635F7F4F0E94C5
:1015900061136CE973E00E944813BE016D5E7F4FDA
:1015A0000E9461136CE973E00E944813BE01675EFC
:1015B0007F4F0E946113BC01CE014F960E941B1504
:1015C000CE014F960E94C808CE014F960E94551436
:1015D000CE0101960E945514CE0107960E94551423
:1015E000CE010D960E945514CE0143960E945514CB
:1015F000CE0149960E94551401C010E0909104025A
:101600002091030285E09802F0011124E20FF11D00
:1016100027FDFA95EE0FFF1FE05FFD4F80818F3FA2
:10162000F9F03FEF380F343070F4909102029923B3
:1016300011F09B30A9F460917B04062E000C770B0F
:101640000E9402040AC086315CF0223031F49923F2
:1016500011F09B3011F4112319F061E00E94B711D1
:1016600080910102E091020295E0E902F00111246B
:10167000E80FF11D87FDFA95EE0FFF1FE05FFD4FAC
:1016800080818F3F71F09FEF980F943038F4609114
:101690007A04062E000C770B0E94020460E00E9480
:1016A000B711809103028B7F11F482E00BC01123EC
:1016B00011F089E007C080910402882311F08B307B
:1016C00019F483E080938D04A4960FB6F894DEBFDE
:1016D0000FBECDBFDF91CF911F91FF90EF90DF90B4
:1016E000CF900895CF93DF93CDB7DEB768970FB64D
:1016F000F894DEBF0FBECDBF63E474E0CE01019667
:101700000E94241586E896E00E943904882309F493
:1017100049C0409190065091910660919206709157
:10172000930622E0CE0143960E945A1460918606E9
:1017300070E04AE0CE010D960E94B714BE016F5FC3
:101740007F4FCE0107960E941B156BE374E0CE011C
:1017500007960E944813BE01635F7F4F0E9461138A
:101760006CE973E00E944813BE016D5E7F4F0E94DA
:1017700061136CE973E00E94481360E474E00E9416
:101780004813BC01CE0101960E943E14CE0107967B
:101790000E945514CE010D960E945514CE01439619
:1017A0000E94551481E796E00E943904882309F4C9
:1017B00049C040917B0650917C0660917D067091F6
:1017C0007E0622E0CE0143960E945A146091710673
:1017D00070E04AE0CE010D960E94B714BE016F5F23
:1017E0007F4FCE0107960E941B1564E474E0CE0182
:1017F00007960E944813BE01635F7F4F0E946113EA
:101800006CE973E00E944813BE016D5E7F4F0E9439
:1018100061136CE973E00E94481360E474E00E9475
:101820004813BC01CE0101960E943E14CE010796DA
:101830000E945514CE010D960E945514CE01439678
:101840000E9455148CE596E00E943904882309F41F
:1018500049C0409166065091670660916806709194
:10186000690622E0CE0143960E945A1460915C06FC
:1018700070E04AE0CE010D960E94B714BE016F5F82
:101880007F4FCE0107960E941B1569E474E0CE01DC
:1018900007960E944813BE01635F7F4F0E94611349
:1018A0006CE973E00E944813BE016D5E7F4F0E9499
:1018B00061136CE973E00E94481360E474E00E94D5
:1018C0004813BC01CE0101960E943E14CE0107963A
:1018D0000E945514CE010D960E945514CE014396D8
:1018E0000E94551487E496E00E943904882309F485
:1018F00049C0409151065091520660915306709133
:10190000540622E0CE0143960E945A146091470685
:1019100070E04AE0CE010D960E94B714BE016F5FE1
:101920007F4FCE0107960E941B156EE474E0CE0136
:1019300007960E944813BE01635F7F4F0E946113A8
:101940006CE973E00E944813BE016D5E7F4F0E94F8
:1019500061136CE973E00E94481360E474E00E9434
:101960004813BC01CE0101960E943E14CE01079699
:101970000E945514CE010D960E945514CE01439637
:101980000E94551482E396E00E943904882309F4EA
:1019900049C040913C0650913D0660913E067091D1
:1019A0003F0622E0CE0143960E945A14609132060F
:1019B00070E04AE0CE010D960E94B714BE016F5F41
:1019C0007F4FCE0107960E941B1563E574E0CE01A0
:1019D00007960E944813BE01635F7F4F0E94611308
:1019E0006CE973E00E944813BE016D5E7F4F0E9458
:1019F00061136CE973E00E94481360E474E00E9494
:101A00004813BC01CE0101960E943E14CE010796F8
:101A10000E945514CE010D960E945514CE01439696
:101A20000E9455148DE196E00E943904882309F440
:101A300049C040912706509128066091290670916F
:101A40002A0622E0CE0143960E945A1460911D0698
:101A500070E04AE0CE010D960E94B714BE016F5FA0
:101A60007F4FCE0107960E941B1568E574E0CE01FA
:101A700007960E944813BE01635F7F4F0E94611367
:101A80006CE973E00E944813BE016D5E7F4F0E94B7
:101A900061136CE973E00E94481360E474E00E94F3
:101AA0004813BC01CE0101960E943E14CE01079658
:101AB0000E945514CE010D960E945514CE014396F6
:101AC0000E94551488E096E00E943904882309F4A6
:101AD00049C040911206509113066091140670910E
:101AE000150622E0CE0143960E945A146091080622
:101AF00070E04AE0CE010D960E94B714BE016F5F00
:101B00007F4FCE0107960E941B156DE574E0CE0154
:101B100007960E944813BE01635F7F4F0E946113C6
:101B20006CE973E00E944813BE016D5E7F4F0E9416
:101B300061136CE973E00E94481360E474E00E9452
:101B40004813BC01CE0101960E943E14CE010796B7
:101B50000E945514CE010D960E945514CE01439655
:101B60000E94551483EF95E00E943904882309F4FC
:101B700049C04091FD055091FE056091FF057091AF
:101B8000000622E0CE0143960E945A146091F305AC
:101B900070E04AE0CE010D960E94B714BE016F5F5F
:101BA0007F4FCE0107960E941B1562E674E0CE01BE
:101BB00007960E944813BE01635F7F4F0E94611326
:101BC0006CE973E00E944813BE016D5E7F4F0E9476
:101BD00061136CE973E00E94481360E474E00E94B2
:101BE0004813BC01CE0101960E943E14CE01079617
:101BF0000E945514CE010D960E945514CE014396B5
:101C00000E9455148EED95E00E943904882309F452
:101C100049C04091E8055091E9056091EA0570914D
:101C2000EB0522E0CE0143960E945A146091DE0536
:101C300070E04AE0CE010D960E94B714BE016F5FBE
:101C40007F4FCE0107960E941B1567E674E0CE0118
:101C500007960E944813BE01635F7F4F0E94611385
:101C60006CE973E00E944813BE016D5E7F4F0E94D5
:101C700061136CE973E00E94481360E474E00E9411
:101C80004813BC01CE0101960E943E14CE01079676
:101C90000E945514CE010D960E945514CE01439614
:101CA0000E94551489EC95E00E943904882309F4B8
:101CB00049C04091D3055091D4056091D5057091EC
:101CC000D60522E0CE0143960E945A146091C905C0
:101CD00070E04AE0CE010D960E94B714BE016F5F1E
:101CE0007F4FCE0107960E941B156CE674E0CE0173
:101CF00007960E944813BE01635F7F4F0E946113E5
:101D00006CE973E00E944813BE016D5E7F4F0E9434
:101D100061136CE973E00E94481360E474E00E9470
:101D20004813BC01CE0101960E943E14CE010796D5
:101D30000E945514CE010D960E945514CE01439673
:101D40000E9455148D819E81029778F0BE016F5FCD
:101D50007F4FCE0107960E941B15CE0107960E9469
:101D6000C808CE0107960E945514CE0101960E9424
:101D7000551468960FB6F894DEBF0FBECDBFDF9145
:101D8000CF910895FC01862F13821282158214824E
:101D9000168217821086118612861386148615867F
:101DA000118A128A138A148A608B478762E00C9426
:101DB000E71185ED8093BC008091BC0084FDFCCFD1
:101DC00010920B0508954091C606262F30E0240F8F
:101DD000311D21323105DCF420910B052430C9F48A
:101DE000FC0180E090E0861758F43091C6062191FE
:101DF000DC01AC55B94FA30FB11D2C930196F3CF65
:101E00008091C606680F6093C60680E0089581E061
:101E1000089582E00895089581E090E03091EC0605
:101E20002091EB06321710F480E090E091958195B7
:101E3000910908958091EC069091EB06891730F492
:101E40008F5F8093EC0680E090E008958FEF9FEF26
:101E500008958091EB0690E02091EC06821B910999
:101E60000895CF92DF92EF92FF920F931F93CF933B
:101E7000DF937C01262F972F8A018091E404882329
:101E800091F0C62FD72F6E01C40ED51ECC15DD05DF
:101E900071F06991D701ED91FC910190F081E02DF5
:101EA000C7011995F3CF642F822F0E94E30EC8015A
:101EB000DF91CF911F910F91FF90EF90DF90CF9026
:101EC0000895CF93DF931F92CDB7DEB7698320913A
:101ED000E4042223D1F020910C05203240F021E0CF
:101EE00030E0FC013383228380E090E015C08091D4
:101EF0000D05E82FF0E0EC53FB4F998190838F5F45
:101F000080930D0580930C0505C061E0CE0101961C
:101F10000E94E30E81E090E00F90DF91CF91089551
:101F200090E0FC013197E231F10508F04EC08827BE
:101F3000E458FF4F8F4F0C94C02A809180008F7718
:101F400003C0809180008F7D8093800008958091F0
:101F50008000877FF9CF84B58F7702C084B58F7DED
:101F600084BD08958091B0008F7703C08091B00048
:101F70008F7D8093B0000895809190008F7707C087
:101F8000809190008F7D03C080919000877F809327
:101F9000900008958091A0008F7707C08091A000E5
:101FA0008F7D03C08091A000877F8093A00008955B
:101FB000809120018F7707C0809120018F7D03C021
:101FC00080912001877F8093200108953FB7F89486
:101FD0008091A0069091A106A091A206B091A306BF
:101FE00026B5A89B05C02F3F19F00196A11DB11D74
:101FF0003FBFBA2FA92F982F8827820F911DA11DAF
:10200000B11DBC01CD0142E0660F771F881F991FEB
:102010004A95D1F708950E94DE2C0F931F93CF931A
:10202000DF938C01C0E0D0E0F801EC0FFD1F64915C
:10203000662371F0E091BD05F091BE050190F0813D
:10204000E02D8DEB95E01995892B11F02196ECCFC1
:10205000CE01DF91CF911F910F910895CF93DF9320
:10206000CDB7DEB728970FB6F894DEBF0FBECDBF51
:1020700098E0E8E8F2E0DE01119601900D929A9561
:10208000E1F79091C505981710F48FEF890FFE01C5
:102090003196E80FF11DE80FF11D6081606840E0A6
:1020A0008DEB95E028960FB6F894DEBF0FBECDBF3E
:1020B000DF91CF910C9474061F920F920FB60F927E
:1020C00011240BB60F922F933F934F935F936F930F
:1020D0007F938F939F93AF93BF93EF93FF938091E1
:1020E000B900887F803609F49CC068F5883209F40D
:1020F0005BC090F4803109F454C038F4882309F4AB
:10210000F6C0883009F44DC0F6C0883109F44CC0DF
:10211000803209F45DC0EFC0803409F468C048F42F
:10212000803309F455C0883309F0E5C08093E50495
:10213000D8C0803509F44FC0883509F45DC08834B3
:1021400009F0D9C0D6C0883909F4C7C0A8F48837C7
:1021500009F467C038F4883609F463C0803709F49D
:1021600060C0C9C0883809F4B8C0803909F45FC0BC
:10217000803809F0C0C05BC0803B09F486C038F4E9
:10218000803A09F466C0883A09F47FC0B4C0803C44
:1021900009F4A7C0883C09F4A4C0883B09F48AC0AC
:1021A000AAC08091080510C090910705809106058E
:1021B000981770F5E091070581E08E0F8093070571
:1021C000F0E0EA51FB4F80818093BB0085EC86C034
:1021D0008093E5048EC0E091070581E08E0F809327
:1021E00007058091BB00F0E0EA51FB4F808390919E
:1021F0000705809106056EC0E091070581E08E0F0E
:10220000809307058091BB00F0E0EA51FB4F80838B
:1022100080910A0581116DC081E08093090584EAEF
:1022200061C083E080930B051092EA06CFCF8091C6
:10223000EA06803208F051C0E091EA0681E08E0F94
:102240008093EA068091BB00F0E0E653F94F80836B
:10225000BDCF85EC8093BC0010920B058091EA06FF
:10226000803230F4E091EA06F0E0E653F94F108254
:102270006091EA0670E0E091C806F091C9068AEC28
:1022800096E019951092EA0636C084E080930B051B
:102290001092C7061092C606E091C406F091C506DA
:1022A00019958091C606811105C081E08093C6060C
:1022B0001092A406E091C70681E08E0F8093C706B6
:1022C000F0E0EC55F94F80818093BB009091C706F8
:1022D0008091C606981708F479CF85E88093BC00F2
:1022E0000AC085EC8093BC0010920B0504C01092CC
:1022F000E5040E94D90EFF91EF91BF91AF919F919C
:102300008F917F916F915F914F913F912F910F909E
:102310000BBE0F900FBE0F901F901895CF93DF93B9
:10232000282F30E0F901EA5CFA4F8491F901E0517D
:10233000FB4FD491F901E655FB4FC491CC2391F0AA
:1023400081110E94900FEC2FF0E0EE0FFF1FE0577D
:10235000FB4FA591B491EC91ED2381E090E021F445
:1023600080E002C080E090E0DF91CF9108951F935C
:10237000CF93DF93282F30E0F901EA5CFA4F849184
:10238000F901E051FB4FD491F901E655FB4FC4919F
:10239000CC23C9F0162F81110E94900FEC2FF0E092
:1023A000EE0FFF1FEA58FB4FA591B4918FB7F89439
:1023B000111105C09C91ED2FE095E92302C0EC912D
:1023C000ED2BEC938FBFDF91CF911F910895CF93A9
:1023D000DF9390E0FC01E051FB4F2491FC01E655B6
:1023E000FB4F8491882361F190E0880F991FFC01D5
:1023F000E45AFB4FC591D491FC01EA58FB4FA591DB
:10240000B491611109C09FB7F89488812095822307
:102410008883EC912E230BC0623061F49FB7F8944F
:102420003881822F809583238883EC912E2B2C93E7
:102430009FBF06C08FB7F894E8812E2B28838FBFEB
:10244000DF91CF9108958F929F92AF92BF92CF92DA
:10245000DF92EF92FF926B017C010E94E60F4B012D
:102460005C01C114D104E104F104F1F00E94E60F13
:10247000DC01CB0188199909AA09BB09883E934060
:10248000A105B10570F321E0C21AD108E108F108F5
:1024900088EE880E83E0981EA11CB11CC114D104E3
:1024A000E104F10419F7DDCFFF90EF90DF90CF90BA
:1024B000BF90AF909F908F900895CF93DF9310922D
:1024C000EC061092EB0610920D0510920C0510927E
:1024D0000B0581E080930A051092090561E084E113
:1024E0000E94B71161E085E10E94B7118091B900A7
:1024F0008E7F8093B9008091B9008D7F8093B90061
:1025000088E48093B80085E48093BC001092C205F3
:102510008091C705823018F098E09093C2058093AF
:10252000C50562E370E080E090E00E9423126091B4
:10253000C8058DEB95E00E94F60568EE73E080E03B
:1025400090E00E94231260E38DEB95E00E945B0611
:10255000CBE4D6E4CE010197F1F760E38DEB95E093
:102560000E945B062197F1F760E38DEB95E00E94F6
:102570005B0683E592E00197F1F760E28DEB95E071
:102580000E945B066091C205606240E08DEB95E0C1
:102590000E94740684E08093C30540E06CE08DEBFC
:1025A00095E00E94740640E061E08DEB95E00E94AA
:1025B0007406CBE3DFE1CE010197F1F782E080936F
:1025C000C40540E066E08DEB95E00E94740640E0B3
:1025D00062E08DEB95E00E9474062197F1F7DF91A0
:1025E000CF9108952FB7F89460919C0670919D0645
:1025F00080919E0690919F062FBF08951F920F9283
:102600000FB60F9211242F933F938F939F93AF9305
:10261000BF9380919C0690919D06A0919E06B091DB
:102620009F0630919B0623E0230F2D3720F401965F
:10263000A11DB11D05C026E8230F0296A11DB11DE5
:1026400020939B0680939C0690939D06A0939E06E4
:10265000B0939F068091A0069091A106A091A2063A
:10266000B091A3060196A11DB11D8093A006909381
:10267000A106A093A206B093A306BF91AF919F912C
:102680008F913F912F910F900FBE0F901F90189533
:10269000CF93DF93EC016115710561F0FB010190AF
:1026A0000020E9F73197AF01461B570B0E94C61374
:1026B000811103C0CE010E94F413CE01DF91CF91AE
:1026C0000895CF93DF93EC01FB0144815581608134
:1026D00071810E94C613811103C0CE010E94F413C0
:1026E000CE01DF91CF910895CF92DF92EF92FF92CA
:1026F0000F931F93CF93DF936C017A018B01C0E09E
:10270000D0E0CE15DF0589F0D8016D918D01D6019D
:10271000ED91FC910190F081E02DC6011995892B76
:1027200011F47E0102C02196ECCFC701DF91CF9159
:102730001F910F91FF90EF90DF90CF9008950F932E
:102740001F93CF93DF93EC0188819981009729F043
:102750002A813B812617370788F48B016F5F7F4FF3
:102760000E94F52B009761F0998388831B830A836D
:102770002C813D81232B11F4FC01108281E001C0EA
:1027800080E0DF91CF911F910F910895EF92FF921A
:102790000F931F93CF93DF93FC0124813581611543
:1027A000710511F480E019C041155105A9F07B01B4
:1027B000EC018A01020F131FB8010E949F138823A6
:1027C00089F3288139818C819D81B701820F931F04
:1027D0000E94EC2C1D830C8381E0DF91CF911F912F
:1027E0000F91FF90EF900895CF93DF93EC018881D4
:1027F0009981009711F00E945D2B198218821D8229
:102800001C821B821A82DF91CF910895EF92FF9272
:102810000F931F93CF93DF93EC017B018A01BA01E1
:102820000E949F13811104C0CE010E94F41307C0BF
:102830001D830C83B701888199810E94EC2CCE0105
:10284000DF91CF911F910F91FF90EF900895CF935B
:10285000DF93EC016115710559F0FB010190002037
:10286000E9F73197AF01461B570B0E94061402C0CF
:102870000E94F413CE01DF91CF910895CF93DF939F
:10288000EC01FB018617970761F06081718161158A
:10289000710529F0448155810E94061402C00E94EE
:1028A000F413CE01DF91CF910895FC0180819181D5
:1028B0000C945D2BEF92FF920F931F93CF93DF93B6
:1028C000CDB7DEB7A1970FB6F894DEBF0FBECDBF70
:1028D0007C01CB01BA01F7011182108213821282AE
:1028E0001582148242E0420F8E010F5F1F4F0E943B
:1028F0005125BC01C7010E942714A1960FB6F89478
:10290000DEBF0FBECDBFDF91CF911F910F91FF9022
:10291000EF9008950F931F93CF93DF93CDB7DEB75A
:10292000A1970FB6F894DEBF0FBECDBF8C01CB01CF
:10293000BA01F80111821082138212821582148268
:1029400030E0AE014F5F5F4F0E94F125BE016F5F27
:102950007F4FC8010E942714A1960FB6F894DEBFDE
:102960000FBECDBFDF91CF911F910F9108950F93AF
:102970001F93CF93DF93CDB7DEB762970FB6F8946E
:10298000DEBF0FBECDBF8C01CB01F80111821082DA
:10299000138212821582148250E0BE016F5F7F4F56
:1029A0000E94DB25BE016F5F7F4FC8010E94271484
:1029B00062960FB6F894DEBF0FBECDBFDF91CF9108
:1029C0001F910F910895EF92FF920F931F93CF9352
:1029D000DF93EC01198218821B821A821D821C82ED
:1029E0006115710509F18B01CB010E94D2257C0193
:1029F000BC01CE010E949F13811109C0CE01DF915D
:102A0000CF911F910F91FF90EF900C94F413FD82E2
:102A1000EC82B80188819981DF91CF911F910F914C
:102A2000FF90EF900C94CB25DF91CF911F910F91E8
:102A3000FF90EF900895FC011182108213821282A0
:102A4000158214820C943E14FC01118210821382B0
:102A50001282158214826115710551F0FB010190FB
:102A60000020E9F73197AF01461B570B0C94061471
:102A700008951F920F920FB60F9211240BB60F926A
:102A80002F933F934F935F936F937F938F939F9376
:102A9000AF93BF93EF93FF938091F0069091F1066F
:102AA000A091F206B091F306892B8A2B8B2B59F15A
:102AB0008091EF06E091ED06F091EE069081892776
:102AC00080838091F0069091F106A091F206B0917A
:102AD000F306181619061A061B060CF056C080914C
:102AE000F0069091F106A091F206B091F3060197DD
:102AF000A109B1098093F0069093F106A093F20624
:102B0000B093F30642C080910502ECE7F5E0E49152
:102B10009FEF90930502E230C9F050F4EE2399F054
:102B2000E13081F590916F009D7F90936F002AC0F6
:102B3000E43019F1E0F0E53029F5909173009D7FC4
:102B4000909373001FC010926E001CC09091700093
:102B50009D7F9093700091E09093B0009091B100B0
:102B6000987F94609093B1001092B3000BC0909145
:102B700071009D7F9093710005C0909172009D7FC0
:102B80009093720060E00E94B711FF91EF91BF91A6
:102B9000AF919F918F917F916F915F914F913F91F5
:102BA0002F910F900BBE0F900FBE0F901F90189596
:102BB000DC01ED91FC91DB0114964D915C91159730
:102BC0006D917C910280F381E02D1994CF93DF9376
:102BD000CDB7DEB7A1970FB6F894DEBF0FBECDBF5D
:102BE000789484B5826084BD84B5816084BD85B5E8
:102BF000826085BD85B5816085BD80916E008160F4
:102C000080936E0010928100809181008260809399
:102C1000810080918100816080938100809180009B
:102C20008160809380008091B10084608093B100C6
:102C30008091B00081608093B000809191008260AB
:102C400080939100809191008160809391008091A8
:102C500090008160809390008091A10082608093B9
:102C6000A1008091A10081608093A1008091A000CB
:102C700081608093A0008091210182608093210176
:102C800080912101816080932101809120018160E8
:102C90008093200180917A00846080937A008091F3
:102CA0007A00826080937A0080917A0081608093BC
:102CB0007A0080917A00806880937A001092C10037
:102CC0008AE090E0A0E0B0E08093760490937704EF
:102CD000A0937804B093790482E79BE09093750405
:102CE00080937404809170008E7F80937000809137
:102CF000B0008C7F8093B0008091B100877F80937B
:102D0000B1008091B6008F7D8093B60080917000F5
:102D10008D7F809370008091B10084608093B100BA
:102D20008091B1008C7F8093B10086E090E0909319
:102D30007304809372040E94E0050E94F212609373
:102D4000890470938A0480938B0490938C0460931D
:102D50007D0470937E0480937F049093800480911F
:102D60007B00886080937B0086E480937C00809168
:102D70007A00806480937A0080917A0086FDFCCF8F
:102D8000609178008091790070E0782B072E000C1C
:102D9000880B990B611571058105910511F00E9451
:102DA000C22562E08FE20E94E71162E080E30E94A8
:102DB000E71162E081E30E94E7118FE20E948E1129
:102DC00021E0892B09F020E0209300020E945D128F
:102DD00088E08093C80560E08DEB95E00E94F605E1
:102DE00016E161E0812F0E94E7111F5F1E32C9F7D3
:102DF00012E061E0812F0E94E7111F5F1E30C9F7CA
:102E0000E0912A05F0912B0582E08083E091260570
:102E1000F09127051082E0912805F09129058FECAB
:102E2000808310923205E0912E05F0912F0586E007
:102E30008083E0912C05F0912D0580818061808355
:102E4000E0912C05F0912D05808188608083E091D0
:102E50002C05F0912D05808180688083E0912C0500
:102E6000F0912D0580818F7D80830E94BE2527E013
:102E700030E040E050E00E946529DC01CB0103977F
:102E8000A109B10980938E0480E30E948E11892BE1
:102E900019F487EE80938D0480918D04082E000C28
:102EA000990BAA0BBB0B8A30910510F00C94F521FD
:102EB000FC018827EE58FF4F8F4F0C94C02A8FEFEC
:102EC00080938D040E945D1268EB7BE080EC92E0C1
:102ED0000E94B20668EC72E0CE0101960E942415B1
:102EE000CE0101960E94C808CE0101960E94551499
:102EF00080E00E942E1084EC93E00E940D1081E08F
:102F00000E942E1083EB93E00E940D100E949B06FE
:102F10008091890490918A04A0918B04B0918C04D3
:102F200040917D0450917E0460917F0470918004F3
:102F3000841B950BA60BB70B20918706211124C08B
:102F400020917206211120C020915D0621111CC024
:102F500020914806211118C020913306211114C078
:102F600020911E06211110C02091090621110CC0CC
:102F70002091F405211108C02091DF05211104C022
:102F80002091CA052223C1F2803325E79207A105CB
:102F9000B10590F60E949B0664EA73E0CE010196AB
:102FA0000E94E314CE0101960E94C808CE0101964A
:102FB0000E94551480E00E942E1083E993E00E9445
:102FC0000D1081E00E942E1082E893E00E940D1007
:102FD0000E94BE2524E833E040E050E00E946529CD
:102FE0004B015C0154E6850E911CA11CB11CC12C47
:102FF000D12C7601C601880D991D18161906C4F545
:103000000E94F2126093890470938A0480938B0467
:1030100090938C0412E061E0812F0E94B7111F5F32
:103020001E30C9F726013701480C591C6A1C7B1C4D
:10303000C301B2010E94231212E060E0812F0E94BE
:10304000B7111F5F1E30C9F7C301B2010E942312DE
:103050008091870681110C94292280911E0634E606
:10306000C31AD108E108F108882321F20C9429221F
:103070006FE173E0CE0101960E94E314CE01019648
:103080000E94C808CE0101960E94551480E00E945B
:103090002E108EE093E00E940D1081E00E942E1011
:1030A0008DEF92E00E940D1068EE73E08CEF92E0DD
:1030B0000E94B2060E94F2126093890470938A04FF
:1030C00080938B0490938C048091870681110C94DB
:1030D000C22280911E06882369F30C94C22281E0EB
:1030E0000E942E1060919804062E000C770B4AE087
:1030F000CE0101960E94B71460919904062E000C2F
:10310000770B4AE0CE010A960E94B71462E273E0A0
:10311000CE0140960E942415BE01665F7F4FCE010E
:1031200040960E94611367E273E00E944813BE015B
:103130006F5F7F4F0E94611362EF73E00E9448133C
:10314000BC018DEB95E00E94D815CE0140960E94FF
:103150005514CE010A960E945514CE0101960E9484
:1031600055140E94F2126093890470938A0480932C
:103170008B0490938C04C0909404D0909504E090BC
:103180009604F0909704009190041091910420917E
:10319000920430919304C114D104E104F104A9F024
:1031A0004B015C018C189D08AE08BF0840E28416F4
:1031B0004FEB940642E0A406B10438F00115110566
:1031C0002105310511F485E014C001151105210513
:1031D000310599F04B015C01801A910AA20AB30AE9
:1031E00040E284164FEB940642E0A406B10428F0B6
:1031F00086E080938D040C94652240919A0400919E
:103200007D0410917E0420917F0430918004DC01C4
:10321000CB01801B910BA20BB30B411108C0803175
:103220009742A105B10508F45CC084E0E2CF30917B
:10323000030220910402843F41E09407A105B105F7
:1032400010F13230A9F540910202042E000C550B0A
:10325000E22FEE0FFF0BCF01841B950BE417F50750
:1032600019F08B30910521F540917B04042E000C60
:10327000550B2091010264E070E0621B710927FD8B
:1032800073950C947A238C329140A105B10580F49A
:1032900085E02802F0011124E30FF11D37FDFA95B6
:1032A000EE0FFF1FE05FFD4F80818F3F09F04CC0A4
:1032B00040917B04042E000C550B632F660F770B97
:1032C00080910102681B710987FD7395822F880F19
:1032D000990B20910202821B910927FD93950C9472
:1032E0007A2310917B041130B1F48091480681114A
:1032F0000C94162380915D0681110C94F922809123
:10330000720681110C9407238091330681110C946D
:10331000F1220C9465221F3F09F028C18091DF053E
:1033200081110C9430238091F40581110C943E237B
:103330008091090681110C944C238091CA0581115A
:103340000C9428230C9465228181813009F00EC1F0
:1033500080917C0481110AC180918706882309F439
:1033600005C180917A048130C9F580917B04813058
:10337000A9F580910102C0908504D0908604E09068
:103380008704F0908804381779F020E030E040E4BA
:1033900050E4C701B6010E94AE2887FF05C020E0B7
:1033A00030E040E85FE30EC020E030E040E450E46D
:1033B000C701B6010E94AE2887FF10C020E030E0B0
:1033C00040E05FE3C701B6010E94C929609385040C
:1033D0007093860480938704909388040E94BE258E
:1033E000C0908504D0908604E0908704F090880413
:1033F0008090900690909106A0909206B0909306CF
:103400002AE030E040E050E00E94652920918E04DF
:10341000022F220F110B220B330B600F711F821F23
:10342000931F0E94B528A70196010E94C9292B016C
:103430003C018091890490918A04A0918B04B09101
:103440008C0400917D0410917E0420917F043091C2
:103450008004BC01CD01601B710B820B930B0E9499
:10346000B32820E030E048EC52E40E94352A20E006
:1034700030E040E050E40E94C8299B01AC01C30148
:10348000B2010E94C829A50194010E94C8294B01DC
:103490005C0122E0B701A601CE010A960E945A14EF
:1034A00080918E04682F880F770B4AE0CE014096FA
:1034B0000E94B71422E0B501A401CE0146960E94F5
:1034C0005A146FE273E0CE014C960E942415BE019F
:1034D0006A5E7F4FCE014C960E9461136CE973E0E7
:1034E0000E944813BE01605F7F4F0E9461136CE928
:1034F00073E00E944813BE01665F7F4F0E94611314
:103500006CE973E00E944813BC01CE0101960E9451
:103510001B15CE0101960E94C808CE0101960E949B
:103520005514CE014C960E945514CE0146960E9429
:103530005514CE0140960E945514CE010A960E9461
:10354000551420E030E040E850E4C501B4010E9489
:10355000A72A181644F40E949B0610929A0481E050
:1035600080937C0424C181E080937C0480919A0440
:10357000882309F4AAC780910302E091040295E030
:10358000E902F0011124E80FF11D87FDFA95EE0F15
:10359000FF1FE05FFD4F91819F3F09F096C790911B
:1035A0007C04911192C790911E06992309F48DC74E
:1035B00090917A049F3FC9F590917B049F3FA9F5B4
:1035C00090910102C0908104D0908204E090830425
:1035D000F0908404891779F020E030E040E450E472
:1035E000C701B6010E94AE2887FF05C020E030E089
:1035F00040E85FE30EC020E030E040E450E4C70163
:10360000B6010E94AE2887FF10C020E030E040E005
:103610005FE3C701B6010E94C929609381047093DA
:10362000820480938304909384040E94BE25C090FA
:103630008104D0908204E0908304F0908404809010
:10364000270690902806A0902906B0902A062AE026
:1036500030E040E050E00E94652920918E04022F66
:10366000220F110B220B330B600F711F821F931F50
:103670000E94B528A70196010E94C9292B013C018F
:103680008091890490918A04A0918B04B0918C045C
:1036900000917D0410917E0420917F04309180047C
:1036A000BC01CD01601B710B820B930B0E94B328F0
:1036B00020E030E048EC52E40E94352A20E030E07F
:1036C00040E050E40E94C8299B01AC01C301B20153
:1036D0000E94C829A50194010E94C8294B015C01E0
:1036E00022E0B701A601CE010A960E945A148091E9
:1036F0008E04682F880F770B4AE0CE0140960E9417
:10370000B71422E0B501A401CE0146960E945A14D6
:103710006EE373E0CE014C960E942415BE016A5EF2
:103720007F4FCE014C960E9461136CE973E00E94BA
:103730004813BE01605F7F4F0E9461136CE973E024
:103740000E944813BE01665F7F4F0E9461136CE9BF
:1037500073E00E944813BC01CE0101960E941B1524
:10376000CE0101960E94C808CE0101960E94551410
:10377000CE014C960E945514CE0146960E945514D7
:10378000CE0140960E945514CE010A960E9455140F
:1037900020E030E040E850E4C501B4010E94A72ACF
:1037A000181644F40E949B0610929A048FEF80939F
:1037B0007B048BC681E080937C0487C60E94F21252
:1037C0006093890470938A0480938B0490938C0493
:1037D0006BE473E0CE0101960E942415CE010196A0
:1037E0000E94C808CE0101960E9455146AEF70E04D
:1037F0008CEF92E00E94B2068091890490918A0435
:10380000A0918B04B0918C0480937D0490937E04EE
:10381000A0937F04B09380040E949B0610929A04A8
:1038200081E080938D0420917B049091030280912C
:103830000402213039F591110FC09FEF980F93309A
:1038400028F44FEF5FEF61E070E00EC084504FEF5F
:103850005FEF61E070E010C09FEF980F933038F495
:103860004FEF5FEF63E070E082E090E043C7845089
:103870004FEF5FEF63E070E0833008F439C788E012
:1038800090E038C791110FC098EF980F933028F44B
:1038900041E050E061E070E00EC0855041E050E052
:1038A00061E070E010C098EF980F933038F441E079
:1038B00050E063E070E089E090E01CC7855041E093
:1038C00050E063E070E0833018F487E090E012C7C6
:1038D00083E090E00FC70E94F21260938904709316
:1038E0008A0480938B0490938C046EEE72E08CEFCC
:1038F00092E00E94B2060E949B0610929A041092D7
:103900008504109286041092870410928804109205
:10391000810410928204109283041092840481E046
:1039200080938D0480E00E942E10809104026091AB
:10393000980481118EC06F5F60939804062E000C6E
:10394000770B4AE0CE010A960E94B7146091990461
:10395000062E000C770B4AE0CE0140960E94B71469
:1039600067E573E0CE0146960E942415BE01605FB4
:103970007F4FCE0146960E9461136CE973E00E946E
:103980004813BE01665F7F4F0E9461136BE973E0CD
:103990000E944813BC01CE0101960E941B15CE0166
:1039A00001960E94C808CE0101960E945514CE01CE
:1039B00046960E945514CE0140960E945514CE01A1
:1039C0000A960E94551460919804062E000C770BFD
:1039D0004AE0CE0101960E94B71460919904062E28
:1039E000000C770B4AE0CE010A960E94B71462E6FB
:1039F00073E0CE0140960E942415BE01665F7F4FA2
:103A0000CE0140960E94611364EF73E00E94481358
:103A1000BE016F5F7F4F0E94611363EF73E00E94EE
:103A20004813BC018DEB95E00E94D815CE0140965D
:103A30000E945514CE010A960E945514CE0101969B
:103A40000E94551441E050E062E070E085E090E0B3
:103A50008FC0809199048F5F80939904062E000C8B
:103A6000770B4AE0CE010A960E94B7146091990440
:103A7000062E000C770B4AE0CE0140960E94B71448
:103A80006DE673E0CE0146960E942415BE01605F8C
:103A90007F4FCE0146960E9461136CE973E00E944D
:103AA0004813BE01665F7F4F0E9461136BE973E0AC
:103AB0000E944813BC01CE0101960E941B15CE0145
:103AC00001960E94C808CE0101960E945514CE01AD
:103AD00046960E945514CE0140960E945514CE0180
:103AE0000A960E94551460919804062E000C770BDC
:103AF0004AE0CE0101960E94B71460919904062E07
:103B0000000C770B4AE0CE010A960E94B7146AE7D0
:103B100073E0CE0140960E942415BE01665F7F4F80
:103B2000CE0140960E94611364EF73E00E94481337
:103B3000BE016F5F7F4F0E94611363EF73E00E94CD
:103B40004813BC018DEB95E00E94D815CE0140963C
:103B50000E945514CE010A960E945514CE0101967A
:103B60000E9455144FEF5FEF62E070E086E090E056
:103B70000E94F1098091890490918A04A0918B049C
:103B8000B0918C0480937D0490937E04A0937F0475
:103B9000B09380049AC40E94F212609389047093D7
:103BA0008A0480938B0490938C0465E873E0CE01C3
:103BB00001960E942415CE0101960E94C808CE01EC
:103BC00001960E9455146AEF70E08CEF92E00E941B
:103BD000B2068091890490918A04A0918B04B091DF
:103BE0008C0480937D0490937E04A0937F04B09313
:103BF00080040E949B0610929A04109285041092F1
:103C00008604109287041092880410928104109206
:103C10008204109283041092840481E080938D04C6
:103C200090917B0480910402913011F58B3029F43E
:103C30004FEF5FEF62E070E058C5811146C480919C
:103C400003029DEF980F923008F43AC5823009F0D4
:103C50003CC50E94BE2522E030E040E050E00E94DA
:103C60006529613071058105910509F429C52DC5C6
:103C7000811105C041E050E062E070E02AC58B3060
:103C800009F023C4809103029DEF980F923008F44D
:103C900023C5823009F025C50E94BE2522E030E010
:103CA00040E050E00E946529613071058105910571
:103CB00009F412C516C50E94F2126093890470932C
:103CC0008A0480938B0490938C0462E973E0CE01A4
:103CD00001960E942415CE0101960E94C808CE01CB
:103CE00001960E94551480E00E942E1085ED93E00D
:103CF0000E940D106AEF70E08CEF92E00E94B20615
:103D00008091890490918A04A0918B04B0918C04D5
:103D100080937D0490937E04A0937F04B0938004ED
:103D20000E949B0610929A041092850410928604B9
:103D300010928704109288041092810410928204D9
:103D4000109283041092840481E080938D0480910A
:103D50007B04813039F44FEF5FEF62E070E086E082
:103D600090E0C8C48F3F09F0B0C341E050E062E08A
:103D700070E085E090E0BEC468EE73E08CEF92E006
:103D80000E94B2060E94F2126093890470938A0422
:103D900080938B0490938C046EE973E0CE010196BE
:103DA0000E942415CE0101960E94C808CE010196FA
:103DB0000E94551480E00E942E1086EE93E00E942F
:103DC0000D1081E00E942E1040E150E06AEA73E09D
:103DD0008DEB95E00E9474130E949B0610929A044A
:103DE0001092850410928604109287041092880421
:103DF0001092810410928204109283041092840421
:103E000081E080938D0480918F04813039F041E00E
:103E100050E062E070E085E090E006C04FEF5FEFB9
:103E200062E070E086E090E00E94F10980918706F0
:103E300081112FC08091720681112BC080915D0687
:103E4000811127C080914806811123C080913306DB
:103E500081111FC080911E0681111BC0809109062F
:103E6000811117C08091F405811113C08091DF0585
:103E700081110FC08091CA0581110BC00E94F212FE
:103E80006093890470938A0480938B0490938C04CC
:103E9000CDCFC0908904D0908A04E0908B04F0903C
:103EA0008C0480917D0490917E04A0917F04B09158
:103EB000800446015701881A990AAA0ABB0A20E31E
:103EC000821625E79206A104B104C0F66AEF70E0FD
:103ED0008CEF92E00E94B2060E94F212609390046E
:103EE000709391048093920490939304C0927D0404
:103EF000D0927E04E0927F04F0928004E6C20E9499
:103F0000F2126093890470938A0480938B049093D7
:103F10008C0468EE73E08CEF92E00E94B2060E947F
:103F20009B0610929A0410928504109286041092B7
:103F300087041092880410928104109282041092D7
:103F40008304109284046BEB73E0CE0101960E940F
:103F50002415CE0101960E94C808CE0101960E9448
:103F60005514909199048091980489170CF060C0C1
:103F700080E00E942E108CE494E00E940D1081E0FD
:103F80000E942E1060919804062E000C770B4AE0D8
:103F9000CE0101960E94B71460919904062E000C80
:103FA000770B4AE0CE010A960E94B71462E273E0F2
:103FB000CE0140960E942415BE01665F7F4FCE0160
:103FC00040960E94611367E273E00E944813BE01AD
:103FD0006F5F7F4F0E94611364EF73E00E9448138C
:103FE000BC018DEB95E00E94D815CE0140960E9451
:103FF0005514CE010A960E945514CE0101960E94D6
:10400000551460919804062E000C770B4AE0CE01FF
:104010000A960E94B71460919904062E000C770B43
:104020004AE0CE0140960E94B71468EC73E0C2C02B
:1040300098170CF060C080E00E942E108BE394E093
:104040000E940D1081E00E942E1060919804062EAF
:10405000000C770B4AE0CE0101960E94B7146091E4
:104060009904062E000C770B4AE0CE010A960E94B6
:10407000B71462E273E0CE0140960E942415BE019F
:10408000665F7F4FCE0140960E94611367E273E046
:104090000E944813BE016F5F7F4F0E94611364EF5F
:1040A00073E00E944813BC018DEB95E00E94D81587
:1040B000CE0140960E945514CE010A960E945514D6
:1040C000CE0101960E94551460919804062E000CB2
:1040D000770B4AE0CE010A960E94B71460919904CA
:1040E000062E000C770B4AE0CE0140960E94B714D2
:1040F00063ED73E05FC080E00E942E108AE294E0DE
:104100000E940D1081E00E942E1060919804062EEE
:10411000000C770B4AE0CE0101960E94B714609123
:104120009904062E000C770B4AE0CE010A960E94F5
:10413000B71462E273E0CE0140960E942415BE01DE
:10414000665F7F4FCE0140960E94611367E273E085
:104150000E944813BE016F5F7F4F0E94611364EF9E
:1041600073E00E944813BC018DEB95E00E94D815C6
:10417000CE0140960E945514CE010A960E94551415
:10418000CE0101960E94551460919804062E000CF1
:10419000770B4AE0CE010A960E94B7146091990409
:1041A000062E000C770B4AE0CE0140960E94B71411
:1041B0006CED73E0CE0146960E942415BE01605F4F
:1041C0007F4FCE0146960E9461136CE973E00E9416
:1041D0004813BE01665F7F4F0E9461136BE973E075
:1041E0000E944813BC01CE0101960E941B15CE010E
:1041F00001960E94C808CE0101960E945514CE0176
:1042000046960E945514CE0140960E945514CE0148
:104210000A960E94551468E57BE180E090E00E94D8
:10422000231280E00E942E1089E194E00E940D107C
:1042300081E00E942E1060919804062E000C770BEE
:104240004AE0CE0101960E94B71460919904062EAF
:10425000000C770B4AE0CE010A960E94B71462E286
:1042600073E0CE0140960E942415BE01665F7F4F29
:10427000CE0140960E94611367E273E00E944813EA
:10428000BE016F5F7F4F0E94611364EF73E00E9475
:104290004813BC018DEB95E00E94D815CE014096E5
:1042A0000E945514CE010A960E945514CE01019623
:1042B0000E9455148091890490918A04A0918B04E6
:1042C000B0918C0480937D0490937E04A0937F042E
:1042D000B093800468EB7BE080E090E00E942312C2
:1042E00080E00E942E1088E094E00E940D1081E092
:1042F0000E942E1087EF93E00E940D108091870698
:1043000081112FC08091720681112BC080915D06B2
:10431000811127C080914806811123C08091330606
:1043200081111FC080911E0681111BC0809109065A
:10433000811117C08091F405811113C08091DF05B0
:1043400081110FC08091CA0581110BC00E94F21229
:104350006093890470938A0480938B0490938C04F7
:10436000CDCF8091890490918A04A0918B04B09163
:104370008C0440917D0450917E0460917F04709183
:104380008004841B950BA60BB70B80339547A105C2
:10439000B105E0F610928D041092890410928A04FF
:1043A00010928B0410928C0410927D0410927E0463
:1043B00010927F041092800410929404109295043D
:1043C0001092960410929704109290041092910407
:1043D000109292041092930410929A0410927C040A
:1043E00040E050E061E070E083C10E949B0630E154
:1043F000A32E32E0B32EE12CF12C00E010E08091EE
:1044000087068111BEC2809172068111BAC2809165
:104410005D068111B6C2809148068111B2C28091B9
:1044200033068111AEC280911E068111AAC280910D
:1044300009068111A6C28091F4058111A2C2809162
:10444000DF0581119EC28091CA05882309F455C1F8
:1044500098C28091870681113CC080911E068823F6
:1044600009F452C080E00E942E1080E693E00E9482
:104470000D1081E00E942E108FE493E00E940D1039
:1044800064ED72E0CE0101960E942415CE010196E2
:104490000E94C808CE0101960E94551411E01093A5
:1044A0008D0441E050E062E070E085E090E00E9421
:1044B000F10910938F040E94F21260939404709398
:1044C000950480939604909397040E94C5030C94DE
:1044D000351780911E06882309F4BFCF80E00E9423
:1044E0002E1081E793E00E940D106CEF73E0CE0177
:1044F00001960E942415CE0101960E94C808CE01A3
:1045000001960E945514D7CF80918706882399F28F
:1045100080E00E942E108EE393E00E940D1081E057
:104520000E942E108DE293E00E940D1067EE72E063
:104530000EC080911E06882309F4BDCF80E00E9442
:104540002E108AEC92E00E940D1066E173E0CE011D
:1045500001960E942415CE0101960E94C808CE0142
:1045600001960E94551481E080938D044FEF5FEF18
:1045700062E070E086E090E00E94F1098FEF8093A6
:104580008F0499CF809187068823E1F080911E06E1
:104590008823C1F080E00E942E108CEE92E00E94F1
:1045A0000D1060E174E0CE0101960E942415CE0149
:1045B00001960E94C808CE0101960E9455141092DF
:1045C0008D0479CF80918706882309F4B2CF80E0EB
:1045D0000E942E108BED92E00E940D1068E073E0B7
:1045E00051CF60910302062E000C770B6F5F7F4F57
:1045F00015C060910302062E000C770B8091040217
:10460000082E000C990B41E050E001971CC060910E
:104610000302062E000C770B615071098091040291
:1046200041E050E0082E000C990B0DC06091030290
:10463000062E000C770B80910402082E000C990BBB
:1046400041E050E001960E94F10910939A043DCF99
:1046500060910302062E000C770B6150710923C094
:1046600060910302062E000C770B80910402082E45
:10467000000C990B4FEF5FEF01971CC06091030294
:10468000062E000C770B80910402082E000C990B6B
:104690004FEF5FEF01960EC060910302062E000CF3
:1046A000770B6F5F7F4F809104024FEF5FEF082E13
:1046B000000C990B0E94F10981E080939A0405CFC8
:1046C0004FEF5FEF63E070E004C04FEF5FEF61E03A
:1046D00070E081E090E00EC041E050E063E070E007
:1046E00004C041E050E061E070E08AE090E002C088
:1046F00084E090E00E94F109E8CEF801EE0FFF1F80
:10470000EA0DFB1DD0808FEF8D0D843008F08FC037
:104710008D2D42E0D49E800D11249DEF792E780ED0
:1047200022E0C22ED12C872C912C80E00E942E10EA
:104730004AE0B801CE0101960E94B7144AE0B701E1
:10474000CE010A960E94B71466EE73E0CE01409641
:104750000E942415BE01665F7F4FCE0140960E94E5
:1047600061136BEE73E00E944813BE016F5F7F4FD1
:104770000E9461136EEE73E00E944813BC018DEB42
:1047800095E00E94D815CE0140960E945514CE01A6
:104790000A960E945514CE0101960E94551481E09C
:1047A0000E942E10B601680D791D4AE0CE010196D7
:1047B0000E94B71466EF73E0CE010A960E9424159A
:1047C000BE016F5F7F4FCE010A960E9461136EEEAD
:1047D00073E00E944813BC018DEB95E00E94D81550
:1047E000CE010A960E945514CE0101960E945514DE
:1047F000672C6C0C61E0862D0E94B71168EE73E0A7
:1048000080E090E00E94231260E0862D0E94B711A4
:1048100068EE73E080E090E00E9423125FEFC51A1B
:10482000D50A85E0C816D10409F07FCF98C09FEF64
:10483000D91609F494C080E00E942E101B861A86B7
:104840001D861C861F861E864AE0BE016F5F7F4F55
:10485000C8010E941E26BE016F5F7F4FCE010A96DF
:104860000E942714198A188A1B8A1A8A1D8A1C8A90
:104870004AE0BE016F5F7F4FC7010E941E26BE0146
:104880006F5F7F4FCE0140960E94271466EE73E063
:10489000CE0101960E942415BE01605F7F4FCE01BC
:1048A00001960E9461136BEE73E00E944813BE01F3
:1048B000665F7F4F0E9461136EEE73E00E944813A3
:1048C000BC018DEB95E00E94D815CE0101960E94A7
:1048D0005514CE0140960E945514CE010A960E94AE
:1048E000551481E00E942E106D2D0D2C000C770BBD
:1048F0004AE0CE0101960E94B71466EF73E0CE0144
:104900000A960E942415BE016F5F7F4FCE010A9662
:104910000E9461136EEE73E00E944813BC018DEBA0
:1049200095E00E94D815CE010A960E945514CE013A
:1049300001960E94551461E08D2D0E94B71168EE1A
:1049400073E080E090E00E94231260E08D2D0E94D1
:10495000B71168EE73E080E090E00E9423120F5FD1
:104960001F4F0530110509F04ACD2FEFE21AF20A68
:104970003AE0A30EB11C4AE0E416F10409F03DCD83
:10498000A4CD10928D04A1CD87EB95E00C94551425
:10499000EEE0F5E01382128288EE93E0A0E0B0E052
:1049A00084839583A683B78324E932E0318320830F
:1049B000EAE1F5E01382128284839583A683B783AC
:1049C00086EA92E09183808385EC90E095878487E6
:1049D00084EC90E09787868780EC90E0918B808BC9
:1049E00081EC90E0938B828B82EC90E0958B848BB2
:1049F00086EC90E0978B868B118E128E138E148E20
:104A000043E066E386E896E00E94C20E43E067E377
:104A100081E796E00E94C20E43E068E38CE596E0F1
:104A20000E94C20E43E069E387E496E00E94C20E52
:104A300043E06AE382E396E00E94C20E43E06BE348
:104A40008DE196E00E94C20E43E06CE388E096E0C0
:104A50000E94C20E43E06DE383EF95E00E94C20E18
:104A600043E06EE38EED95E00E94C20E43E06FE3FB
:104A700089EC95E00E94C20EEDEBF5E01382128204
:104A800088EB92E0918380838FE3848380E1818748
:104A900082E08287138663E474E087EB95E00C94F0
:104AA0002415EF920F931F93CF93DF93E80147FDF7
:104AB00002C034E001C034E1E42F440FFF0BF7FFE4
:104AC00003C0F195E195F109E32E022F2E2FAE01DF
:104AD0000E943826CE01DF91CF911F910F91EF9068
:104AE00008958F929F92AF92BF92CF92DF92EF92F2
:104AF000FF92CF93DF93EC01688179818A819B815A
:104B0000611571058105910521F464E279ED8BE56C
:104B100097E02DE133EF41E050E00E946529490123
:104B20005A019B01AC01A7EAB1E40E9484296B0100
:104B30007C01ACEEB4EFA50194010E949229DC0146
:104B4000CB018C0D9D1DAE1DBF1DB7FF03C001978E
:104B5000A109B04888839983AA83BB83BC01CD0196
:104B60009F77DF91CF91FF90EF90DF90CF90BF9034
:104B7000AF909F908F9008950C94712586E092E0FD
:104B80000C947125609306027093070280930802CB
:104B9000909309020895FB01DC0105900D9200201D
:104BA000E1F70895FC0105900020E9F780959095C4
:104BB0008E0F9F1F08954532510520F4423010F0AA
:104BC0000C94E625FB011082CB010895BB274A30E7
:104BD00031F4992322F4BDE2909581959F4F0C9476
:104BE0001F262532310520F4223010F00C94FC25CC
:104BF000FA011082CA010895BB27FA01A62F621795
:104C0000710581059105330B30FB66F0AA27660F0D
:104C1000771F881F991FAA1FA21710F0A21B639568
:104C20003850A9F7A05DAA3308F0A95DA19336F723
:104C3000B111B1931082CA010C949E28BB27FB01CD
:104C40005527AA27880F991FAA1FA41710F0A41B85
:104C500083955051B9F7A05DAA3308F0A95DA193DF
:104C6000009779F7B111B1931192CB010C949E2862
:104C70004F925F926F927F929F92AF92BF92CF922C
:104C8000DF92EF92FF920F931F93CF93DF93CDB7F5
:104C9000DEB729970FB6F894DEBF0FBECDBF6A010D
:104CA000122FB02E2BE3201720F0FF24F394F00EE8
:104CB00002C0BCE3FB2E0F2D27E0AE014F5F5F4F1C
:104CC0000E94C627AC018981982F9970913031F0EC
:104CD000E1FC06C0E0FE06C090E205C09DE203C014
:104CE0009BE201C090E0EE2DE07183FF3CC091118A
:104CF00002C083E001C084E0811718F4212F281B33
:104D000001C020E0E1110BC0F601822F30E28823C0
:104D100019F031938150FBCFC20ED11C20E09923B2
:104D200029F0D6019C93F60131966F01C6010396D6
:104D3000E2FE0AC03EE4D6013C9341E411964C9356
:104D4000119712963C9306C03EE6F601308341E689
:104D500041833283FC01322F40E2332309F442C005
:104D600041933150FACF82FF44C0911102C083E0D9
:104D700001C084E0811718F4212F281B01C020E016
:104D8000E1110BC0F601822F30E2882319F0319334
:104D90008150FBCFC20ED11C20E0992329F0D6010F
:104DA0009C93F60131966F01C6010396E2FE0BC09B
:104DB00039E4D6013C933EE411963C93119736E4D6
:104DC00012963C9307C039E6F60130833EE6318304
:104DD00036E63283FC01322F40E2332319F041934F
:104DE0003150FBCFFC01E20FF11D10828EEF9FEFDF
:104DF000B7C0F1E0911101C0F0E06F2F70E0141620
:104E0000150624F49A012F5F3F4F02C021E030E0E5
:104E1000260F371FBB2029F06B2D70E06F5F7F4F8F
:104E200002C060E070E0260F371F612F70E0261788
:104E300037071CF4121B212F01C020E03E2D3871D2
:104E400059F4D601322F60E2332319F06D933150BB
:104E5000FBCFC20ED11C20E0FF2331F0D6019C9382
:104E6000B6016F5F7F4F6B01E1110BC0F601922F0E
:104E700030E3992319F031939150FBCFC20ED11C2E
:104E800020E09F2D940F3A81782F7071A72E84FF18
:104E900003C0313309F49150191624F4993018F0F5
:104EA00098E001C091E0E42F852F57FF02C0E0E0B9
:104EB00080E06E2F782FE0E0F0E0AEE29A2E3A012B
:104EC000691A71082A01461A570A0B2D10E011952C
:104ED000019511096F3F8FEF780729F4D6019C9255
:104EE000C60101966C014617570784F066167706CF
:104EF0006CF47F01E40CF51CA1E0B0E0AC0FBD1F29
:104F0000EA0EFB1ED7011196BC9002C090E3B92EA9
:104F1000615071093196C60101967C0160177107D5
:104F200024F0D601BC926C01D5CF6417750741F40B
:104F3000363320F4353321F4A11002C081E3B82EBA
:104F4000F601B082F701822F90E2882319F0919345
:104F50008150FBCFF701E20FF11D108280E090E05D
:104F600029960FB6F894DEBF0FBECDBFDF91CF916B
:104F70001F910F91FF90EF90DF90CF90BF90AF9077
:104F80009F907F906F905F904F900895283008F029
:104F900027E03327DA01990F311D87FD91600096D4
:104FA0006105710539F432602E5F3D9330E32A9537
:104FB000E1F708959F3F30F080387105610509F0F1
:104FC0003C5F3C5F3D93913008F08068911DDF931A
:104FD000CF931F930F93FF92EF92192F987F96957F
:104FE000E92F96959695E90FFF27E65DFD4F9927E6
:104FF0003327EE24FF24A701E701059008940794C6
:1050000028F4360FE71EF81E491F511D660F771F43
:10501000881F991F0694A1F70590079428F4E70EBE
:10502000F81E491F561FC11D770F881F991F661F45
:105030000694A1F70590079428F4F80E491F561F0F
:10504000C71FD11D880F991F661F771F0694A1F7F0
:105050000590079420F4490F561FC71FD81F990FBA
:10506000661F771F881F0694A9F784911095177003
:1050700041F0D695C79557954795F794E7941A95BB
:10508000C1F7E0EDF1E068941590159135916591C7
:10509000959105907FE27395E118F10A430B560B49
:1050A000C90BD009C0F7E10CF11E431F561FC91FE1
:1050B000D01D7EF4703311F48A95E6CFE894015048
:1050C00030F0080F0AF40027021708F4202F239568
:1050D000022F7A3328F079E37D932A95E9F710C0FF
:1050E0007D932A9589F60694979567953795179538
:1050F0001794E118F10A430B560BC90BD00998F02D
:1051000023957E9173957A3308F070E37C93201396
:10511000B8F77E9170617D9330F0839571E37D9354
:1051200070E32A95E1F71124EF90FF900F911F9102
:10513000CF91DF91992787FD90950895DC01FC01BF
:10514000672F71917723E1F7329704C07C916D93BB
:1051500070836291AE17BF07C8F308950E94F028CC
:1051600008F481E00895E89409C097FB3EF4909517
:105170008095709561957F4F8F4F9F4F9923A9F030
:10518000F92F96E9BB279395F695879577956795BF
:10519000B795F111F8CFFAF4BB0F11F460FF1BC003
:1051A0006F5F7F4F8F4F9F4F16C0882311F096E996
:1051B00011C0772321F09EE8872F762F05C0662344
:1051C00071F096E8862F70E060E02AF09A95660FFD
:1051D000771F881FDAF7880F9695879597F90895B6
:1051E000990F0008550FAA0BE0E8FEEF16161706F8
:1051F000E807F907C0F012161306E407F50798F060
:10520000621B730B840B950B39F40A2661F0232B78
:10521000242B252B21F408950A2609F4A140A695F4
:105220008FEF811D811D089597F99F6780E870E0D9
:1052300060E008959FEF80EC089500240A9416160C
:10524000170618060906089500240A941216130674
:10525000140605060895092E0394000C11F4882302
:1052600052F0BB0F40F4BF2B11F460FF04C06F5F1E
:105270007F4F8F4F9F4F089557FD9058440F551FF4
:1052800059F05F3F71F04795880F97FB991F61F0C8
:105290009F3F79F087950895121613061406551F3F
:1052A000F2CF4695F1DF08C0161617061806991FAB
:1052B000F1CF86957105610508940895E894BB27A0
:1052C00066277727CB0197F90895052E97FB1EF4E3
:1052D00000940E947C2957FD07D00E94972907FC63
:1052E00003D04EF40C947C2950954095309521952F
:1052F0003F4F4F4F5F4F0895909580957095619502
:105300007F4F8F4F9F4F08950E94B929A59F900D01
:10531000B49F900DA49F800D911D11240895B7FF97
:105320000C9484290E948429821B930B0895A1E286
:105330001A2EAA1BBB1BFD010DC0AA1FBB1FEE1F0F
:10534000FF1FA217B307E407F50720F0A21BB30B5A
:10535000E40BF50B661F771F881F991F1A9469F7D6
:1053600060957095809590959B01AC01BD01CF0132
:105370000895A29FB001B39FC001A39F700D811D2E
:105380001124911DB29F700D811D1124911D08954E
:105390005058BB27AA270E94E0290C942B290E9471
:1053A0001D2938F00E94242920F039F49F3F19F478
:1053B00026F40C941A290EF4E095E7FB0C941429BA
:1053C000E92F0E943C2958F3BA1762077307840734
:1053D000950720F079F4A6F50C945E290EF4E0957B
:1053E0000B2EBA2FA02D0B01B90190010C01CA019F
:1053F000A0011124FF27591B99F0593F50F4503E4A
:1054000068F11A16F040A22F232F342F4427585F3B
:10541000F3CF469537952795A795F0405395C9F753
:105420007EF41F16BA0B620B730B840BBAF091500B
:10543000A1F0FF0FBB1F661F771F881FC2F70EC0AA
:10544000BA0F621F731F841F48F48795779567957D
:10545000B795F7959E3F08F0B0CF9395880F08F069
:105460009927EE0F9795879508950E94492A0C94E5
:105470002B290E94242958F00E941D2940F029F46C
:105480005F3F29F00C94142951110C945F290C945E
:105490001A290E943C2968F39923B1F3552391F30B
:1054A000951B550BBB27AA2762177307840738F093
:1054B0009F5F5F4F220F331F441FAA1FA9F335D0F0
:1054C0000E2E3AF0E0E832D091505040E695001CA4
:1054D000CAF72BD0FE2F29D0660F771F881FBB1F5E
:1054E000261737074807AB07B0E809F0BB0B802D3C
:1054F000BF01FF2793585F4F3AF09E3F510578F068
:105500000C9414290C945F295F3FE4F3983ED4F384
:10551000869577956795B795F7959F5FC9F7880F3B
:10552000911D9695879597F90895E1E0660F771F8D
:10553000881FBB1F621773078407BA0720F0621B1E
:10554000730B840BBA0BEE1F88F7E09508950E9449
:10555000F02808F48FEF0895AA1BBB1B51E107C088
:10556000AA1FBB1FA617B70710F0A61BB70B881FF3
:10557000991F5A95A9F780959095BC01CD01089582
:10558000EE0FFF1F881F8BBF0790F691E02D199437
:10559000CF93DF938230910510F482E090E0E091A8
:1055A000F606F091F70620E030E0C0E0D0E030975A
:1055B00011F14081518148175907C0F04817590728
:1055C00061F482819381209719F09B838A832BC099
:1055D0009093F7068093F60626C02115310519F041
:1055E0004217530718F49A01BE01DF01EF01028050
:1055F000F381E02DDCCF2115310509F1281B390B92
:105600002430310590F412968D919C911397611579
:10561000710521F0FB019383828304C09093F70608
:105620008093F606FD01329644C0FD01E20FF31FA0
:1056300081939193225031092D933C933AC020914C
:10564000F4063091F506232B41F420910C023091A1
:105650000D023093F5062093F40620910A02309152
:105660000B022115310541F42DB73EB740910E02D2
:1056700050910F02241B350BE091F406F091F506D2
:10568000E217F307A0F42E1B3F0B2817390778F019
:10569000AC014E5F5F4F2417350748F04E0F5F1F78
:1056A0005093F5064093F4068193919302C0E0E095
:1056B000F0E0CF01DF91CF9108950F931F93CF9327
:1056C000DF93009709F48CC0FC0132971382128299
:1056D0000091F6061091F7060115110581F420815D
:1056E0003181820F931F2091F4063091F50628171F
:1056F000390779F5F093F506E093F40671C0D80107
:1057000040E050E0AE17BF0750F412962D913C9147
:105710001397AD012115310509F1D901F3CF9D0191
:10572000DA013383228360817181860F971F82178C
:10573000930769F4EC0128813981260F371F2E5F0A
:105740003F4F318320838A819B8193838283452BC2
:1057500029F4F093F706E093F60642C01396FC9303
:10576000EE931297ED01499159919E01240F351F37
:10577000E217F30771F480819181840F951F0296DF
:1057800011969C938E938281938113969C938E9312
:105790001297E0E0F0E0D80112968D919C9113975A
:1057A000009719F0F8018C01F6CF8D919C9198012A
:1057B0002E5F3F4F820F931F2091F4063091F50624
:1057C0002817390769F4309729F41092F7061092D8
:1057D000F60602C0138212821093F5060093F406B7
:1057E000DF91CF911F910F9108956F927F928F92C9
:1057F0009F92AF92BF92CF92DF92EF92FF920F9360
:105800001F93CF93DF93EC01009789F4CB01DF91D5
:10581000CF911F910F91FF90EF90DF90CF90BF90AD
:10582000AF909F908F907F906F900C94C82AFC014E
:10583000E60FF71F9C0122503109E217F30708F425
:10584000ACC0D9010D911C91119706171707B0F044
:105850000530110508F49FC0C80104978617970703
:1058600008F499C002501109061B170B01931193FC
:105870006D937C93CF010E945D2B8DC05B01A01ABC
:10588000B10A4C01800E911EA091F606B091F70668
:1058900040E050E0E12CF12C109709F44AC0A81523
:1058A000B905D1F56D907C901197630182E0C80E27
:1058B000D11CCA14DB0480F1A3014A195B096A01F7
:1058C00082E0C80ED11C1296BC9012971396AC9130
:1058D000B5E0CB16D10440F0B282A383518340835C
:1058E000D9016D937C930AC00E5F1F4FC301800FD7
:1058F000911FF90191838083EB2DFA2FE114F104BC
:1059000031F0D7011396FC93EE93129744C0F093B5
:10591000F706E093F6063FC08D919C9111974817CA
:10592000590708F4AC017D0112960D90BC91A02D91
:10593000B3CF8091F4069091F50688159905E1F4AE
:1059400046175707C8F480910A0290910B020097FE
:1059500041F48DB79EB740910E0250910F02841B07
:10596000950BE817F907C8F4F093F506E093F406F1
:10597000F901718360830FC0CB010E94C82A7C01AA
:10598000009759F0A801BE010E94E32CCE010E94AD
:105990005D2BC70104C0CE0102C080E090E0DF9122
:1059A000CF911F910F91FF90EF90DF90CF90BF901C
:1059B000AF909F908F907F906F90089581E090E0DE
:1059C000F8940C94F32CFB01DC0102C001900D92C1
:1059D00041505040D8F70895FB01DC0101900D9231
:1059E0000020E1F7089512E0C0ECD2E000E006C02C
:1059F000802FFE010E94C02A2196011DC13CD107C3
:0A5A000080E00807A9F7F894FFCF33
:105A0A0001FFFFFFFFFF010000000000F806800011
:105A1A00FF00FF002701FF00FF00FF000300230132
:105A2A000100FF00FF001DFF25FF19FFFF00FF0017
:105A3A001C0124011A01FF00FF001EFF22FF1BFFA9
:105A4A00FF00FF00FF002A01FF00FF00FF00FF0028
:105A5A002CFFFF00FF00FF001F012B011701FF00B1
:105A6A00FF0021FF26FF16FFFF00FF0020012D0186
:105A7A001801FF00FF00040029FF0200FF00FF00D9
:105A8A00FF0028FFFF00FF00000040001400540040
:105A9A0000000000610F310FFF030B0F290F1A0FCF
:105AAA000C0F000000005C037413F402A303250327
:105ABA00030317030000000095067413FF03FE0397
:105ACA006F6C652E7761760064726177696E672CF8
