:100000000C945C010C948D010C948D010C948D0169
:100010000C948D010C948D010C948D010C948D0128
:100020000C948D010C948D010C948D010C948D0118
:100030000C948D010C94C50E0C948D010C945A03F4
:100040000C948D010C948D010C948D010C948D01F8
:100050000C948D010C948D010C948D010C94AB0DBE
:100060000C948D010C9424030C94FA020C948D01D1
:100070000C948D010C948D010C948D010C948D01C8
:100080000C948D010C948D010C948D010C948D01B8
:100090000C948D010C948D010C948D010C949E0B8D
:1000A0000C948D010C948D010C948D010C948D0198
:1000B0000C948D010C948D010C948D010C948D0188
:1000C0000C948D010C948D010C948D010C948D0178
:1000D0000C948D010C948D010C948D010C948D0168
:1000E0000C948D018B0A8E0A7D0A810A870AC50A43
:1000F000920A960A9C0AA00AA40AAA0AAE0AB20A9E
:10010000C50AB80ABC0AC00A0C94C0010C94C50AFE
:100110000C94C00A0C94F0050C943E020C94920AC4
:100120000C949E010C94090A0C94B2010C942F1BA0
:100130000C94FA090C948E0A0C94810A0C94410ACE
:100140000C948F010C94B80A0C948B0A0C949902AD
:100150000C949C0A0C94960A0C94A40A0C94EB0937
:100160000C949A020C94AE0A0C94F7010C94EB0ACE
:100170000C947D0A0C94110A0C946F040C94BC0A24
:100180000C94B20A0C94870A0C94A00A0C94EC0903
:100190000C94AA0A00002100240027002A002D0048
:1001A0003000330001010000040107010A010000D2
:1001B00020002300260029002C002F00320000011F
:1001C000000003010601090100000A0B02090C0DE1
:1001D0000E080703040100000000000000000000FA
:1001E000000000000000000000000000000000000F
:1001F00000000000121110000000000000000000CC
:1002000000000000000000000000000000000102EB
:100210001020200808102040102040800201020118
:1002200008040201010204081020408080402010D0
:100230000804020180040201804020100804020129
:100240000804020101020408102040800102040891
:100250001020408000002200250028002B002E00E6
:100260003100340002010000050108010B01050501
:100270000505070508080808020202020A0A08081C
:10028000040404040101010101010101030303034A
:1002900003030303040707070C0C0C0C0C0C0C0CD9
:1002A0000202020206060606060606060B0B0B0BEA
:1002B0000B0B0B0B02002F1B11241FBECFEFD1E243
:1002C000DEBFCDBF00E00CBF15E0A0E0B2E0E2E58C
:1002D000FEE300E00BBF02C007900D92AC38B107FF
:1002E000D9F727E0ACE8B5E001C01D92AE35B20702
:1002F000E1F711E0CCE5D1E000E006C0219701096B
:10030000802FFE010E94F41CCB35D10780E0080746
:10031000A9F70E945C120C94271F0C940000FC01AA
:10032000538D448D252F30E0842F90E0821B930B5A
:10033000541710F0CF96089501970895FC01918D00
:10034000828D981761F0828DDF01A80FB11D5D9637
:100350008C91928D9F5F9F73928F90E008958FEFA5
:100360009FEF0895FC01918D828D981731F0828D59
:10037000E80FF11D858D90E008958FEF9FEF0895B0
:10038000FC01918D228D892F90E0805C9F4F821B14
:1003900091098F73992708958CE596E00E94C0011A
:1003A00021E0892B09F420E0822F0895FC01848D3F
:1003B000DF01A80FB11DA35ABF4F2C91848D90E08F
:1003C00001968F739927848FA689B7892C93A0896A
:1003D000B1898C9180648C93938D848D981306C021
:1003E0000288F389E02D80818F7D80830895EF92CC
:1003F000FF920F931F93CF93DF93EC0181E0888FDF
:100400009B8D8C8D981305C0E889F989808185FDC5
:1004100024C0F62E0B8D10E00F5F1F4F0F731127B6
:10042000E02E8C8DE8120CC00FB607FCFACFE889DD
:10043000F989808185FFF5CFCE010E94D601F1CFE9
:100440008B8DFE01E80FF11DE35AFF4FF0820B8FF9
:10045000EA89FB898081806207C0EE89FF89608319
:10046000E889F98980818064808381E090E0DF9170
:10047000CF911F910F91FF90EF900895CF93DF934D
:10048000EC01888D8823C9F0EA89FB89808185FD8C
:1004900005C0A889B9898C9186FD0FC00FB607FCED
:1004A000F5CF808185FFF2CFA889B9898C9185FF2E
:1004B000EDCFCE010E94D601E7CFDF91CF91089515
:1004C00080E090E0892B21F00E94CC01811125C0B1
:1004D00080E090E0892B41F080E090E0892B21F0D2
:1004E0000E94000081111CC080E090E0892B41F047
:1004F00080E090E0892B21F00E940000811113C060
:1005000080E090E0892BA1F080E090E0892B81F0E1
:100510000E94000081110AC008950E940000D8CFF7
:100520000E940000E1CF0E940000EACF0C9400007E
:100530000895089580E090E00895823081F01CF4E1
:10054000813031F020C0833089F08430B1F01BC09D
:1005500061307105C9F06F3F7F4FA9F417C061305A
:100560007105B1F06F3F7F4F71F414C061307105B8
:1005700099F06F3F7F4F39F411C06130710581F000
:100580006F3F7F4F79F0089583E0089582E00895EA
:1005900086E0089585E0089589E0089588E008954B
:1005A0008CE008958BE008950F931F93CF93DF9312
:1005B000EC01088110E08C810E94D00C081719070B
:1005C00011F01A820FC08A818F5F8A839B818917FD
:1005D00048F0888191E0892788831A82882321F056
:1005E000998302C080E001C081E0DF91CF911F912B
:1005F0000F9108951F920F920FB60F9211240BB610
:100600000F922F933F934F935F936F937F938F93AB
:100610009F93AF93BF93EF93FF938CE596E00E9477
:10062000D601FF91EF91BF91AF919F918F917F91F3
:100630006F915F914F913F912F910F900BBE0F9053
:100640000FBE0F901F9018951F920F920FB60F922A
:1006500011240BB60F922F938F939F93EF93FF93D9
:10066000E0916C06F0916D068081E0917206F09148
:10067000730682FD12C09081809175068F5F8F7323
:1006800020917606821751F0E0917506F0E0E45A69
:10069000F94F958F8093750601C08081FF91EF918E
:1006A0009F918F912F910F900BBE0F900FBE0F90C7
:1006B0001F9018951F920F920FB60F9211240BB630
:1006C0000F922F933F934F935F936F937F938F93EB
:1006D0009F93AF93BF93EF93FF9380919205909177
:1006E00093058093B2008091950590919605A09115
:1006F0009705B09198050196A11DB11D80939505B0
:1007000090939605A0939705B093980580919505D1
:1007100090919605A0919705B091980540918E050E
:1007200050918F0560919005709191058417950700
:10073000A607B70710F18091940581111EC081E0D2
:10074000809394058091950590919605A0919705C9
:10075000B0919805841B950BA60BB70B809395055C
:1007600090939605A0939705B0939805E0918C051A
:10077000F0918D05199510929405FF91EF91BF911D
:10078000AF919F918F917F916F915F914F913F9129
:100790002F910F900BBE0F900FBE0F901F901895CA
:1007A000CF93FC01C48121E02093CD05C093AC051B
:1007B00010924606109245068385682B80E596E0E8
:1007C0000E94410A80914506813208F046C090910E
:1007D00044069111FCCF92E09093440691E09093EF
:1007E00043069FEF9093CE051092F0058093EF059E
:1007F000ADEAB5E02FEC35E0F9019E2F921B98177A
:1008000018F49D919193F9CF1092F1058091F10523
:10081000CC0FC82BC093F10580914206813061F462
:10082000109242068091F1058093BB008091BC003C
:1008300083FDF8CF85EC01C085EE8093BC008091EC
:1008400044068230E1F38091CE058F3F31F08091F4
:10085000CE05803211F08091CE051092460610929E
:1008600045061092CD05CF9108950F931F93CF9316
:100870008C01C62F0E94D0036C2F6460C8010E94B7
:10088000D0036C2F6B7FC8010E94D00383EC90E0F3
:100890000197F1F7CF911F910F910895FF920F9358
:1008A0001F93CF93DF931F92CDB7DEB78C01F62E47
:1008B000962F907F692F642BC80149830E943504CD
:1008C00080E1F89EB00111244981642BC8010F908A
:1008D000DF91CF911F910F91FF900C94350441E06F
:1008E0000E944E0481E090E0089510923307109228
:1008F0002E07109229071092240710921F071092BA
:100900001A07109215071092100710920B071092F9
:100910000607089520910002222359F0BC018CE5BE
:1009200096E00E94640F61EA74E08CE596E00C9416
:1009300047120895CF93DF93CDB7DEB7AA970FB6CE
:10094000F894DEBF0FBECDBF2091070230910802A0
:100950003093040220930302209105023091060295
:1009600030930202209301022091990530919A055B
:100970003093AB052093AA05909308028093070259
:10098000709306026093050250939A05409399056F
:100990000E949F0D60939F057093A0058093A10511
:1009A0009093A20540919B0550919C0560919D05F7
:1009B00070919E052AE0CE014F960E94260E40912E
:1009C0009F055091A0056091A1057091A2052AE0B4
:1009D000CE0149960E94260E6091990570919A0564
:1009E0004AE0CE0143960E945E0E6091050270912E
:1009F00006024AE0CE010D960E945E0E609107024B
:100A0000709108024AE0CE0107960E945E0E64EAE9
:100A100074E0CE0101960E94B00EBE01695F7F4F67
:100A2000CE0101960E940E0E6EEA74E00E94F50D52
:100A3000BE01635F7F4F0E940E0E6EEA74E00E945B
:100A4000F50DBE016D5E7F4F0E940E0E6AE674E0EA
:100A50000E94F50DBE01675E7F4F0E940E0E65E697
:100A600073E00E94F50DBE01615E7F4F0E940E0E85
:100A7000BC01CE0185960E94960ECE0185960E94FD
:100A80008A04CE0185960E94210ECE0101960E9415
:100A9000210ECE0107960E94210ECE010D960E94D6
:100AA000210ECE0143960E94210ECE0149960E944E
:100AB000210ECE014F960E94210E80919F059091AC
:100AC000A005A091A105B091A20580939B059093EC
:100AD0009C05A0939D05B0939E050E94750480918E
:100AE00007029091080225E0289FF001299FF00D50
:100AF00011248091050290910602E80FF91FEE0F74
:100B0000FF1FEC5EFD4F80818F3FD1F09FEF980F6C
:100B1000943088F4209103023091040221153105AC
:100B200019F02B30310561F46091990570919A05A7
:100B30000E949D0202C086311CF061E00E94F90C07
:100B4000809103029091040225E0289FF001299FE3
:100B5000F00D11248091010290910202E80FF91F1B
:100B6000EE0FFF1FEC5EFD4F80818F3F69F09FEF1E
:100B7000980F943030F46091AA057091AB050E94F3
:100B80009D0260E00E94F90C20910502309106025E
:100B9000C9018B7F892B19F482E090E014C0809109
:100BA0000702909108022230310539F4009711F0C4
:100BB0000B9769F489E090E006C0009711F00B975D
:100BC00031F483E090E09093A4058093A305AA9666
:100BD0000FB6F894DEBF0FBECDBFDF91CF91089561
:100BE000CF93DF93CDB7DEB76E970FB6F894DEBF25
:100BF0000FBECDBF82E397E00E94D402882309F4A0
:100C000058C040919B0550919C0560919D05709145
:100C10009E052AE0CE0143960E94260E40919F0534
:100C20005091A0056091A1057091A2052AE0CE0126
:100C30000D960E94260E6AE674E0CE0107960E9489
:100C4000B00E60EB74E0CE0101960E94B00EBE01C2
:100C5000695F7F4FCE0101960E940E0EBE01635F59
:100C60007F4F0E940E0E65E673E00E94F50DBE01F7
:100C70006D5E7F4F0E940E0EBC01CE0149960E9410
:100C8000960ECE0149960E948A04CE0149960E9492
:100C9000210ECE0101960E94210ECE0107960E94E0
:100CA000210ECE010D960E94210ECE0143960E9488
:100CB000210E8DE297E00E94D402882309F458C0E7
:100CC00040919B0550919C0560919D0570919E05FA
:100CD0002AE0CE0143960E94260E40919F05509136
:100CE000A0056091A1057091A2052AE0CE010D96A4
:100CF0000E94260E6AE674E0CE0107960E94B00EAE
:100D000066EC74E0CE0101960E94B00EBE01695FF0
:100D10007F4FCE0101960E940E0EBE01635F7F4F92
:100D20000E940E0E65E673E00E94F50DBE016D5E39
:100D30007F4F0E940E0EBC01CE0149960E94960E76
:100D4000CE0149960E948A04CE0149960E94210E46
:100D5000CE0101960E94210ECE0107960E94210E1F
:100D6000CE010D960E94210ECE0143960E94210EC7
:100D700088E297E00E94D402882309F458C0409189
:100D80009B0550919C0560919D0570919E052AE000
:100D9000CE0143960E94260E40919F055091A005DA
:100DA0006091A1057091A2052AE0CE010D960E94E6
:100DB000260E6AE674E0CE0107960E94B00E6CED36
:100DC00074E0CE0101960E94B00EBE01695F7F4FB4
:100DD000CE0101960E940E0EBE01635F7F4F0E94FE
:100DE0000E0E65E673E00E94F50DBE016D5E7F4F4D
:100DF0000E940E0EBC01CE0149960E94960ECE01B5
:100E000049960E948A04CE0149960E94210ECE0185
:100E100001960E94210ECE0107960E94210ECE015E
:100E20000D960E94210ECE0143960E94210E83E270
:100E300097E00E94D402882309F458C040919B0592
:100E400050919C0560919D0570919E052AE0CE0110
:100E500043960E94260E40919F055091A0056091F7
:100E6000A1057091A2052AE0CE010D960E94260EE2
:100E70006AE674E0CE0107960E94B00E62EF74E05D
:100E8000CE0101960E94B00EBE01695F7F4FCE0178
:100E900001960E940E0EBE01635F7F4F0E940E0EF0
:100EA00065E673E00E94F50DBE016D5E7F4F0E9406
:100EB0000E0EBC01CE0149960E94960ECE014996B7
:100EC0000E948A04CE0149960E94210ECE0101960D
:100ED0000E94210ECE0107960E94210ECE010D9692
:100EE0000E94210ECE0143960E94210E8EE197E0D2
:100EF0000E94D402882309F458C040919B05509168
:100F00009C0560919D0570919E052AE0CE01439657
:100F10000E94260E40919F055091A0056091A10569
:100F20007091A2052AE0CE010D960E94260E6AE677
:100F300074E0CE0107960E94B00E68E075E0CE0125
:100F400001960E94B00EBE01695F7F4FCE010196EF
:100F50000E940E0EBE01635F7F4F0E940E0E65E67B
:100F600073E00E94F50DBE016D5E7F4F0E940E0E74
:100F7000BC01CE0149960E94960ECE0149960E9470
:100F80008A04CE0149960E94210ECE0101960E944C
:100F9000210ECE0107960E94210ECE010D960E94D1
:100FA000210ECE0143960E94210E89E197E00E9416
:100FB000D402882309F458C040919B0550919C05A8
:100FC00060919D0570919E052AE0CE0143960E9496
:100FD000260E40919F055091A0056091A10570914A
:100FE000A2052AE0CE010D960E94260E6AE674E064
:100FF000CE0107960E94B00E6EE175E0CE0101961B
:101000000E94B00EBE01695F7F4FCE0101960E9423
:101010000E0EBE01635F7F4F0E940E0E65E673E009
:101020000E94F50DBE016D5E7F4F0E940E0EBC0149
:10103000CE0149960E94960ECE0149960E948A04DE
:10104000CE0149960E94210ECE0101960E94210EEA
:10105000CE0107960E94210ECE010D960E94210E10
:10106000CE0143960E94210E84E197E00E94D402B3
:10107000882309F458C040919B0550919C056091CC
:101080009D0570919E052AE0CE0143960E94260E92
:1010900040919F055091A0056091A1057091A20516
:1010A0002AE0CE010D960E94260E6AE674E0CE017B
:1010B00007960E94B00E64E375E0CE0101960E948F
:1010C000B00EBE01695F7F4FCE0101960E940E0EE9
:1010D000BE01635F7F4F0E940E0E65E673E00E94C3
:1010E000F50DBE016D5E7F4F0E940E0EBC01CE015C
:1010F00049960E94960ECE0149960E948A04CE011E
:1011000049960E94210ECE0101960E94210ECE0129
:1011100007960E94210ECE010D960E94210ECE014F
:1011200043960E94210E8FE097E00E94D40288230C
:1011300009F458C040919B0550919C0560919D0514
:1011400070919E052AE0CE0143960E94260E4091A2
:101150009F055091A0056091A1057091A2052AE01C
:10116000CE010D960E94260E6AE674E0CE01079627
:101170000E94B00E6AE475E0CE0101960E94B00EA6
:10118000BE01695F7F4FCE0101960E940E0EBE0127
:10119000635F7F4F0E940E0E65E673E00E94F50DBF
:1011A000BE016D5E7F4F0E940E0EBC01CE014996BE
:1011B0000E94960ECE0149960E948A04CE0149965D
:1011C0000E94210ECE0101960E94210ECE010796AB
:1011D0000E94210ECE010D960E94210ECE01439653
:1011E0000E94210E8AE097E00E94D402882309F42D
:1011F00058C040919B0550919C0560919D05709150
:101200009E052AE0CE0143960E94260E40919F053E
:101210005091A0056091A1057091A2052AE0CE0130
:101220000D960E94260E6AE674E0CE0107960E9493
:10123000B00E60E675E0CE0101960E94B00EBE01D0
:10124000695F7F4FCE0101960E940E0EBE01635F63
:101250007F4F0E940E0E65E673E00E94F50DBE0101
:101260006D5E7F4F0E940E0EBC01CE0149960E941A
:10127000960ECE0149960E948A04CE0149960E949C
:10128000210ECE0101960E94210ECE0107960E94EA
:10129000210ECE010D960E94210ECE0143960E9492
:1012A000210E85E097E00E94D402882309F458C0FB
:1012B00040919B0550919C0560919D0570919E0504
:1012C0002AE0CE0143960E94260E40919F05509140
:1012D000A0056091A1057091A2052AE0CE010D96AE
:1012E0000E94260E6AE674E0CE0107960E94B00EB8
:1012F00066E775E0CE0101960E94B00EBE01695FFF
:101300007F4FCE0101960E940E0EBE01635F7F4F9C
:101310000E940E0E65E673E00E94F50DBE016D5E43
:101320007F4F0E940E0EBC01CE0149960E94960E80
:10133000CE0149960E948A04CE0149960E94210E50
:10134000CE0101960E94210ECE0107960E94210E29
:10135000CE010D960E94210ECE0143960E94210ED1
:101360006E960FB6F894DEBF0FBECDBFDF91CF9162
:10137000089585ED8093BC008091BC0084FDFCCF76
:1013800010924406089540911D06262F30E0240F48
:10139000311D21323105DCF4209144062430C9F49A
:1013A000FC0180E090E0861758F430911D062191F1
:1013B000DC01A550BA4FA30FB11D2C930196F3CFBA
:1013C00080911D06680F60931D0680E0089581E0FE
:1013D000089582E00895089581E090E030914806F4
:1013E00020914706321710F480E090E091958195A6
:1013F000910908958091480690914706891730F425
:101400008F5F8093480680E090E008958FEF9FEF14
:1014100008958091470690E020914806821B91092B
:101420000895CF92DF92EF92FF920F931F93CF9385
:10143000DF937C01262F972F8A018091CD05882389
:1014400091F0C62FD72F6E01C40ED51ECC15DD0529
:1014500071F06991D701ED91FC910190F081E02D3F
:10146000C7011995F3CF642F822F0E94C309C801C9
:10147000DF91CF911F910F91FF90EF90DF90CF9070
:101480000895CF93DF931F92CDB7DEB76983209184
:10149000CD052223D1F020914506203240F021E0F5
:1014A00030E0FC013383228380E090E015C080911E
:1014B0004606E82FF0E0E355FA4F998190838F5F5D
:1014C000809346068093450605C061E0CE010196F3
:1014D0000E94C30981E090E00F90DF91CF910895C1
:1014E00090E0FC013197E231F10508F04EC0882709
:1014F000EE58FF4F8F4F0C94F41C809180008F7733
:1015000003C0809180008F7D80938000089580913A
:101510008000877FF9CF84B58F7702C084B58F7D37
:1015200084BD08958091B0008F7703C08091B00092
:101530008F7D8093B0000895809190008F7707C0D1
:10154000809190008F7D03C080919000877F809371
:10155000900008958091A0008F7707C08091A0002F
:101560008F7D03C08091A000877F8093A0000895A5
:10157000809120018F7707C0809120018F7D03C06B
:1015800080912001877F8093200108953FB7F894D0
:101590008091F7059091F805A091F905B091FA05B1
:1015A00026B5A89B05C02F3F19F00196A11DB11DBE
:1015B0003FBFBA2FA92F982F8827820F911DA11DF9
:1015C000B11DBC01CD0142E0660F771F881F991F36
:1015D0004A95D1F70895CF92DF92EF92FF920F9341
:1015E0001F93CF93DF936C017A018B01C0E0D0E0B1
:1015F000CE15DF0589F0D8016D918D01D601ED91F1
:10160000FC910190F081E02DC6011995892B11F410
:101610007E0102C02196ECCFC701DF91CF911F91CF
:101620000F91FF90EF90DF90CF9008950F931F934D
:10163000CF93DF93EC0188819981009729F02A816B
:101640003B812617370788F48B016F5F7F4F0E941D
:10165000291E009761F0998388831B830A832C815C
:101660003D81232B11F4FC01108281E001C080E058
:10167000DF91CF911F910F910895EF92FF920F93F9
:101680001F93CF93DF93FC01248135816115710590
:1016900011F480E019C041155105A9F07B01EC015E
:1016A0008A01020F131FB8010E94160B882389F3C9
:1016B000288139818C819D81B701820F931F0E94FF
:1016C000201F1D830C8381E0DF91CF911F910F912B
:1016D000FF90EF900895CF93DF93EC01888199817B
:1016E000009711F00E94911D198218821D821C82A0
:1016F0001B821A82DF91CF910895EF92FF920F9390
:101700001F93CF93DF93EC017B018A01BA010E9402
:10171000160B811104C0CE010E946B0B07C01D8304
:101720000C83B701888199810E94201FCE01DF912F
:10173000CF911F910F91FF90EF9008951F920F92FC
:101740000FB60F9211240BB60F922F933F934F9326
:101750005F936F937F938F939F93AF93BF93EF9319
:10176000FF938091B900887F803609F49CC068F5AA
:10177000883209F45BC090F4803109F454C038F425
:10178000882309F4F6C0883009F44DC0F6C08831CA
:1017900009F44CC0803209F45DC0EFC0803409F414
:1017A00068C048F4803309F455C0883309F0E5C0B7
:1017B0008093CE05D8C0803509F44FC0883509F430
:1017C0005DC0883409F0D9C0D6C0883909F4C7C0D3
:1017D000A8F4883709F467C038F4883609F463C080
:1017E000803709F460C0C9C0883809F4B8C08039AE
:1017F00009F45FC0803809F0C0C05BC0803B09F4C9
:1018000086C038F4803A09F466C0883A09F47FC08B
:10181000B4C0803C09F4A7C0883C09F4A4C0883B4C
:1018200009F48AC0AAC08091F10510C09091F0051A
:101830008091EF05981770F5E091F00581E08E0F2B
:101840008093F005F0E0E153FA4F80818093BB0074
:1018500085EC86C08093CE058EC0E091F00581E0D6
:101860008E0F8093F0058091BB00F0E0E153FA4FBA
:1018700080839091F0058091EF056EC0E091F005B6
:1018800081E08E0F8093F0058091BB00F0E0E15382
:10189000FA4F80838091430681116DC081E080936F
:1018A000420684EA61C083E08093440610924106B8
:1018B000CFCF80914106803208F051C0E0914106BF
:1018C00081E08E0F809341068091BB00F0E0EF5DD8
:1018D000F94F8083BDCF85EC8093BC001092440605
:1018E00080914106803230F4E0914106F0E0EF5DF6
:1018F000F94F10826091410670E0E0911F06F0916F
:10190000200681E296E019951092410636C084E0E7
:101910008093440610921E0610921D06E0911B064D
:10192000F0911C06199580911D06811105C081E07A
:1019300080931D061092FB05E0911E0681E08E0F3C
:1019400080931E06F0E0E550FA4F80818093BB0043
:1019500090911E0680911D06981708F479CF85E8AE
:101960008093BC000AC085EC8093BC0010924406B2
:1019700004C01092CE050E94B909FF91EF91BF916A
:10198000AF919F918F917F916F915F914F913F9117
:101990002F910F900BBE0F900FBE0F901F901895B8
:1019A000CF93DF93282F30E0F901E853FE4F849165
:1019B000F901E25FFD4FD491F901E259FD4FC49165
:1019C000CC2391F081110E94700AEC2FF0E0EE0F11
:1019D000FF1FE255FE4FA591B491EC91ED2381E0FC
:1019E00090E021F480E002C080E090E0DF91CF91B0
:1019F00008951F93CF93DF93282F30E0F901E85328
:101A0000FE4F8491F901E25FFD4FD491F901E25953
:101A1000FD4FC491CC23C9F0162F81110E94700A8A
:101A2000EC2FF0E0EE0FFF1FEC5AFD4FA591B491A3
:101A30008FB7F894111105C09C91ED2FE095E92323
:101A400002C0EC91ED2BEC938FBFDF91CF911F91F2
:101A50000895CF93DF9390E0FC01E25FFD4F249166
:101A6000FC01E259FD4F8491882361F190E0880FD9
:101A7000991FFC01EC56FE4FC591D491FC01EC5A24
:101A8000FD4FA591B491611109C09FB7F894888169
:101A9000209582238883EC912E230BC0623061F461
:101AA0009FB7F8943881822F809583238883EC91A7
:101AB0002E2B2C939FBF06C08FB7F894E8812E2B56
:101AC00028838FBFDF91CF9108958F929F92AF921D
:101AD000BF92CF92DF92EF92FF926B017C010E9446
:101AE000C60A4B015C01C114D104E104F104F1F018
:101AF0000E94C60ADC01CB0188199909AA09BB0911
:101B0000883E9340A105B10570F321E0C21AD108C7
:101B1000E108F10888EE880E83E0981EA11CB11C34
:101B2000C114D104E104F10419F7DDCFFF90EF9067
:101B3000DF90CF90BF90AF909F908F9008952FB778
:101B4000F8946091F3057091F4058091F5059091FA
:101B5000F6052FBF08951F920F920FB60F92112412
:101B60002F933F938F939F93AF93BF938091F305F0
:101B70009091F405A091F505B091F6053091F2052C
:101B800023E0230F2D3720F40196A11DB11D05C0C0
:101B900026E8230F0296A11DB11D2093F205809324
:101BA000F3059093F405A093F505B093F6058091A5
:101BB000F7059091F805A091F905B091FA05019605
:101BC000A11DB11D8093F7059093F805A093F90529
:101BD000B093FA05BF91AF919F918F913F912F9153
:101BE0000F900FBE0F901F901895CF93DF93EC01CD
:101BF0006115710561F0FB0101900020E9F7319753
:101C0000AF01461B570B0E943D0B811103C0CE0153
:101C10000E946B0BCE01DF91CF910895CF93DF939C
:101C2000EC01FB0144815581608171810E943D0B73
:101C3000811103C0CE010E946B0BCE01DF91CF91C9
:101C40000895FC01808191810C94911DEF92FF9287
:101C50000F931F93CF93DF93CDB7DEB7A1970FB646
:101C6000F894DEBF0FBECDBF8C01CB01BA01F801E5
:101C700011821082138212821582148230E0AE012A
:101C80004F5F5F4F7A010E943A1CF70101900020DC
:101C9000E9F73197AF014E195F09B701C8010E94FA
:101CA0007D0BA1960FB6F894DEBF0FBECDBFDF91BE
:101CB000CF911F910F91FF90EF900895EF92FF92B7
:101CC0000F931F93CF93DF93CDB7DEB762970FB615
:101CD000F894DEBF0FBECDBF8C01CB01F80111829D
:101CE0001082138212821582148250E09E012F5FAF
:101CF0003F4F7901B9010E94241CF7010190002097
:101D0000E9F73197AF014E195F09B701C8010E9489
:101D10007D0B62960FB6F894DEBF0FBECDBFDF918C
:101D2000CF911F910F91FF90EF900895FB01DC017F
:101D300011961C921E9213961C921E921297159643
:101D40001C921E9214978617970749F06081718143
:101D50006115710521F0448155810C947D0B089526
:101D6000FC01118210821382128215821482611585
:101D7000710551F0FB0101900020E9F73197AF01A7
:101D8000461B570B0C947D0B08951F920F920FB6B4
:101D90000F9211240BB60F922F933F934F935F93A3
:101DA0006F937F938F939F93AF93BF93EF93FF9323
:101DB00080914C0690914D06A0914E06B0914F0631
:101DC000892B8A2B8B2B59F180914906E0914A0689
:101DD000F0914B0690818927808380914C069091E9
:101DE0004D06A0914E06B0914F06181619061A0618
:101DF0001B060CF056C080914C0690914D06A091A8
:101E00004E06B0914F060197A109B10980934C0687
:101E100090934D06A0934E06B0934F0642C080911A
:101E20000902E4EBF2E0E4919FEF90930902E230C3
:101E3000C9F050F4EE2399F0E13081F590916F00F4
:101E40009D7F90936F002AC0E43019F1E0F0E530F7
:101E500029F5909173009D7F909373001FC010929D
:101E60006E001CC0909170009D7F9093700091E077
:101E70009093B0009091B100987F94609093B100DE
:101E80001092B3000BC0909171009D7F90937100F0
:101E900005C0909172009D7F9093720060E00E9457
:101EA000F90CFF91EF91BF91AF919F918F917F912D
:101EB0006F915F914F913F912F910F900BBE0F90BB
:101EC0000FBE0F901F901895DC01ED91FC91DB0186
:101ED00014964D915C9115976D917C910280F381E0
:101EE000E02D19940E94121FCF93DF93CDB7DEB778
:101EF00028970FB6F894DEBF0FBECDBF28E0ECE800
:101F0000F2E0DE01119601900D922A95E1F7209101
:101F10000107261710F46FEF620FFE013196E60FEE
:101F2000F11DE60FF11D9081682F690F606840E098
:101F300089EF96E028960FB6F894DEBF0FBECDBFAE
:101F4000DF91CF910C944E048F929F92AF92BF92EB
:101F50000F931F93CF93DF93CDB7DEB7A1970FB643
:101F6000F894DEBF0FBECDBF19A2423008F44AE09C
:101F70008E010F5D1F4F842E912CA12CB12CA50139
:101F800094010E94C31CE62FB901CA010150110936
:101F9000EA3014F4E05D01C0E95CD801EC93232B36
:101FA000242B252B61F7B80189EF96E00E94471298
:101FB000A1960FB6F894DEBF0FBECDBFDF91CF91D3
:101FC0001F910F91BF90AF909F908F900895CF93E6
:101FD000809109028E3221F08F3F09F0BCC104C00C
:101FE000E4EBF2E0C491E8C08EE280930902E4EBF6
:101FF000F2E0E491EF3F09F4AEC1E23009F472C0BF
:102000004CF5EE2309F451C0E13009F0D4C0109230
:10201000800010928100809181008860809381000F
:1020200080918100816080938100ECE9F2E0E4918D
:10203000F0E0EE0FFF1FEC5AFD4F859194919093C5
:10204000420780934107ECE3F2E0E491E09340071C
:10205000C1E0B4C0E43009F48BC00CF466C0E530D4
:1020600009F0A9C010922001109221018091210154
:1020700088608093210180912101816080932101FA
:10208000ECE9F2E0E491F0E0EE0FFF1FEC5AFD4FB7
:10209000859194919093390780933807ECE3F2E0AF
:1020A000E491E0933707C5E089C014BC15BC84B542
:1020B000826084BD85B5816085BDECE9F2E0E49184
:1020C000F0E0EE0FFF1FEC5AFD4F85919491909335
:1020D000450780934407ECE3F2E0E491E093430783
:1020E000C0E06CC01092B0001092B1008091B000BE
:1020F00082608093B0008091B10081608093B100D4
:10210000ECE9F2E0E491F0E0EE0FFF1FEC5AFD4F36
:102110008591949190934B0680934A06ECE3F2E00C
:10212000E491E0934906C2E049C0109290001092F9
:10213000910080919100886080939100809191003E
:10214000816080939100ECE9F2E0E491F0E0EE0F21
:10215000FF1FEC5AFD4F8591949190933F07809318
:102160003E07ECE3F2E0E491E0933D07C3E026C0D4
:102170001092A0001092A1008091A100886080932D
:10218000A1008091A10081608093A100ECE9F2E0C0
:10219000E491F0E0EE0FFF1FEC5AFD4F8591949112
:1021A00090933C0780933B07ECE3F2E0E491E093EB
:1021B0003A07C4E003C0CE2FC7FDCDC061E08EE278
:1021C0000E94290DCC2309F4AFC0C23009F449C0E4
:1021D000C130F1F480918100887F8160809381001B
:1021E00089E69AE090938900809388008CED95E0D1
:1021F000A0E0B0E08093520790935307A093540758
:10220000B093550780916F00826080936F00A3C0E8
:10221000C33039F480919100887F81608093910070
:102220003BC0C43039F48091A100887F81608093E5
:10223000A1004AC0C53039F480912101887F8160B6
:102240008093210159C0C33039F12CF4C23009F018
:1022500082C089E60DC0C430B9F1C53009F44CC064
:102260007AC08091B100887F83608093B10082E55D
:102270008093B3008CED95E0A0E0B0E080934C0635
:1022800090934D06A0934E06B0934F068091700038
:102290008260809370005FC089E69AE09093990015
:1022A000809398008CED95E0A0E0B0E080934E071D
:1022B00090934F07A0935007B093510780917100FE
:1022C00082608093710047C089E69AE09093A900EC
:1022D0008093A8008CED95E0A0E0B0E080934A07E1
:1022E00090934B07A0934C07B0934D0780917200D9
:1022F0008260809372002FC089E69AE09093290152
:10230000809328018CED95E0A0E0B0E08093460733
:1023100090934707A0934807B093490780917300B3
:1023200082608093730017C085B5887F836085BD08
:1023300088E287BD8CED95E0A0E0B0E08093560781
:1023400090935707A0935807B093590780916E0058
:10235000826080936E00CF910895BC0189EF96E072
:102360000C944712CF93DF931092480610924706C1
:1023700010924606109245061092440681E0809322
:1023800043061092420661E084E10E94F90C61E08C
:1023900085E10E94F90C8091B9008E7F8093B9008D
:1023A0008091B9008D7F8093B90088E48093B80054
:1023B00085E48093BC001092FE0680910307823072
:1023C00018F098E09093FE068093010762E370E0B6
:1023D00080E090E00E94650D6091040789EF96E02F
:1023E0000E94D00368EE73E080E090E00E94650DEB
:1023F00060E389EF96E00E943504CBE4D6E4CE0199
:102400000197F1F760E389EF96E00E943504219788
:10241000F1F760E389EF96E00E94350483E592E0EE
:102420000197F1F760E289EF96E00E943504609130
:10243000FE06606240E089EF96E00E944E0484E070
:102440008093FF0640E06CE089EF96E00E944E0426
:1024500040E061E089EF96E00E944E04CBE3DFE1CB
:10246000CE010197F1F782E08093000740E066E03B
:1024700089EF96E00E944E0440E062E089EF96E02A
:102480000E944E042197F1F7DF91CF9108956115D5
:10249000710579F0FB0101900020E9F73197AF0158
:1024A000461B570BDC01ED91FC910280F381E02D7E
:1024B000199480E090E00895CF93DF93CDB7DEB715
:1024C0006D970FB6F894DEBF0FBECDBF789484B57C
:1024D000826084BD84B5816084BD85B5826085BD20
:1024E00085B5816085BD80916E00816080936E00AE
:1024F00010928100809181008260809381008091A0
:102500008100816080938100809180008160809350
:1025100080008091B10084608093B1008091B00010
:1025200081608093B00080919100826080939100DF
:1025300080919100816080939100809190008160F2
:10254000809390008091A10082608093A10080918F
:10255000A10081608093A1008091A00081608093A0
:10256000A00080912101826080932101809121014E
:1025700081608093210180912001816080932001FE
:1025800080917A00846080937A0080917A008260E2
:1025900080937A0080917A00816080937A008091A4
:1025A0007A00806880937A001092C10063EA74E038
:1025B000CE0101960E94B00E82E090E0A0E0B0E073
:1025C00080938E0590938F05A0939005B09391050D
:1025D00080EF95E090938D0580938C05809170003D
:1025E0008E7F809370008091B0008C7F8093B000CC
:1025F0008091B100877F8093B1008091B6008F7D7C
:102600008093B600809170008D7F809370008091E0
:10261000B10084608093B1008091B1008C7F809381
:10262000B10086E090E0909393058093920510921C
:1026300095051092960510929705109298051092A4
:10264000940580919205909193058093B2008091BA
:1026500070008160809370000E949F0D60939F05C1
:102660007093A0058093A1059093A20560939B05AC
:1026700070939C0580939D0590939E0580917B00AF
:10268000886080937B0086E480937C0080917A0050
:10269000806480937A0080917A0086FDFCCF6091FF
:1026A00078008091790070E0782B072E000C880B61
:1026B000990B611571058105910511F00E941B1C94
:1026C00062E08FE20E94290D62E080E30E94290D02
:1026D0008FE20E94D00C21E0892B09F420E02093A6
:1026E00000020E94B21188E08093040760E089EF45
:1026F00096E00E94D00316E161E0812F0E94290D2F
:102700001F5F1E32C9F712E061E0812F0E94290D80
:102710001F5F1E30C9F7E0916C06F0916D0682E0F4
:102720008083E0916806F09169061082E0916A0664
:10273000F0916B068FEC808310927406E091700626
:10274000F091710686E08083E0916E06F0916F064D
:10275000808180618083E0916E06F0916F068081B8
:1027600088608083E0916E06F0916F0680818068BA
:102770008083E0916E06F0916F0680818F7D80836B
:10278000CE0101960E94210E01E010E098EE892E04
:1027900093E0992EA12CB12C25E0322EE090A305D8
:1027A000F090A40522E0E216F10409F4DBC254F42F
:1027B000E114F10409F465C041E0E416F10409F400
:1027C000BEC10CC054E0E516F10409F4B1C50CF427
:1027D000F2C489E0E816F10409F498C382E0F82E07
:1027E00061E082E00E94740F0E949F0DA501940198
:1027F0000E94C31CCA01B9014AE00E94A40F61E013
:102800008F2D0E94F90C68EE73E080E090E00E944A
:10281000650D60E08F2D0E94F90C68EE73E080E09A
:1028200090E00E94650DF3949EE0F912D9CFB6E1D5
:10283000FB2E61E082E00E94740F0E949F0DA501B3
:1028400094010E94C31CCA01B9014AE00E94A40F6E
:1028500061E08F2D0E94F90C68EE73E080E090E05B
:102860000E94650D60E08F2D0E94F90C68EE73E008
:1028700080E090E00E94650DF3942EE2F212D9CF31
:10288000DAC58FEF9FEF9093A4058093A3050E9474
:10289000B21164EC72E0CE0101960E94B00ECE013E
:1028A00001960E948A04CE0101960E94210E60E0EA
:1028B00080E00E94740F8EEF92E00E94AD1161E003
:1028C00080E00E94740F8FE093E00E94AD1180E3DE
:1028D0000E94D00C0E94171C24E833E040E050E036
:1028E0000E94911C9B01AC012C593F4F4F4F5F4FF1
:1028F000298F3A8F4B8F5C8FC12CD12C7601898D1B
:102900009A8D8C0D9D1D18161906CCF50E949F0DF1
:1029100060939F057093A0058093A1059093A205F5
:1029200092E061E0892F9D8F0E94F90C9D8D9F5F41
:102930009E30B9F7498C5A8C6B8C7C8C4C0C5D1C8E
:102940006E1C7F1CC301B2010E94650D92E060E025
:10295000892F9D8F0E94F90C9D8D9F5F9E30B9F746
:10296000C301B2010E94650D80913307882309F4E9
:1029700065C580911A07882309F460C5C7C562EB55
:1029800073E0CE0101960E94B00ECE0101960E9426
:102990008A04CE0101960E94210E60E080E00E9430
:1029A000740F8EEB93E00E94AD1161E080E00E9415
:1029B000740F8FEC93E00E94AD110E94E70F0E940C
:1029C0009F0D60939F057093A0058093A105909340
:1029D000A20580913307882309F456C060E080E0A7
:1029E0000E94740F81E393E00E94AD1140919B051A
:1029F00050919C0560919D0570919E052AE0CE0145
:102A000007960E94260E40919F055091A005609167
:102A1000A1057091A2052AE0CE010D960E94260E16
:102A200060EE73E0CE0143960E94B00EBE01635F7C
:102A30007F4FCE0143960E940E0E65E673E00E9422
:102A4000F50DBE01695F7F4F0E940E0EBC01CE01E5
:102A500001960E94960ECE0101960E948A04CE0134
:102A600001960E94210ECE0143960E94210ECE01B6
:102A70000D960E94210ECE0107960E94210E109302
:102A8000A4050093A305CFC480911A07882309F4F5
:102A900096CF60E080E00E94740F8FEE93E00E947A
:102AA000AD1140919B0550919C0560919D057091E1
:102AB0009E052AE0CE0107960E94260E40919F05B2
:102AC0005091A0056091A1057091A2052AE0CE0168
:102AD0000D960E94260E6CEF73E0CE0143960E9485
:102AE000B00EBE01635F7F4FCE0143960E940E0E73
:102AF00065E673E00E94F50DBE01695F7F4F0E949D
:102B00000E0EBC01CE0101960E94960ECE010196DA
:102B10000E948A04CE0101960E94210ECE014396A6
:102B20000E94210ECE010D960E94210ECE01079625
:102B30000E94210E1093A4050093A3056BC461E0CD
:102B400080E00E94740F6091A7057091A8054AE08B
:102B5000CE0101960E945E0E6091A5057091A605BA
:102B60004AE0CE0107960E945E0E69E074E0CE0155
:102B70000D960E94B00EBE01695F7F4FCE010D968B
:102B80000E940E0E6EE074E00E94F50DBE016F5FB4
:102B90007F4F0E940E0E6DE873E00E94F50DBC01A0
:102BA00089EF96E00E94640FCE010D960E94210EDF
:102BB000CE0107960E94210ECE0101960E94210EA1
:102BC0000E949F0D60939F057093A0058093A105BF
:102BD0009093A2052091A90540909B0550909C05DB
:102BE00060909D0570909E05DC01CB0184199509CC
:102BF000A609B70921110DC0883B9B40A105B1056D
:102C000008F454C084E090E09093A4058093A30559
:102C100012C42091050230910602409107025091A2
:102C20000802843F61E09607A105B10500F122305A
:102C3000310519F5E0910302F0910402BA01660F23
:102C4000771FCB018E1B9F0B6E177F0719F08B3000
:102C5000910599F44091990550919A0520910102AE
:102C60003091020264E070E0621B730BE2C38C32AD
:102C70009140A105B10508F445C060919905709196
:102C80009A05220F331F8091010290910202F901EF
:102C9000E81BF90BCA01880F991F2091030230919C
:102CA0000402AB01BF01821B930BC3C38091990542
:102CB00090919A058130910589F4809124078111C2
:102CC00092C480912907811173C480912E078111CC
:102CD0007AC480911F0781117DC4ADC3019609F0AC
:102CE000AAC380910B078111A9C48091100781119B
:102CF00085C48091150781118DC4809106078111CB
:102D000090C499C3349EB001359E700D1124FB010F
:102D1000E20FF31FEE0FFF1FEC5EFD4F818181304C
:102D200071F480913307882309F485C30E947504E8
:102D30001092A905F0929A05E09299057CC38F3F05
:102D400009F079C380911A07882309F474C30E949B
:102D500075041092A9058FEF9FEF90939A058093C9
:102D6000990569C30E949F0D60939F057093A0050C
:102D70008093A1059093A20540919B0550919C05DD
:102D800060919D0570919E052AE0CE0107960E94F4
:102D9000260E40919F055091A0056091A10570916C
:102DA000A2052AE0CE010D960E94260E66E174E08F
:102DB000CE0143960E94B00EBE01635F7F4FCE01ED
:102DC00043960E940E0E65E673E00E94F50DBE016B
:102DD000695F7F4F0E940E0EBC01CE0101960E94DA
:102DE000960ECE0101960E948A04CE0101960E94A1
:102DF000210ECE0143960E94210ECE010D960E9417
:102E0000210ECE0107960E94210E80919F05909180
:102E1000A005A091A105B091A20580939B05909378
:102E20009C05A0939D05B0939E050E947504109289
:102E3000A9051093A4050093A3054091990550910D
:102E40009A05209105023091060280910702909127
:102E500008024130510569F5232B89F49C0121506A
:102E600031092330310528F44FEF5FEF61E070E066
:102E700010C004974FEF5FEF61E070E012C09C015B
:102E8000215031092330310538F44FEF5FEF63E013
:102E900070E082E090E0CDC204974FEF5FEF63E017
:102EA00070E0039718F484E090E0C3C288E090E0FB
:102EB000C0C2232B89F49C012850310923303105ED
:102EC00028F441E050E061E070E010C0059741E077
:102ED00050E061E070E012C09C01285031092330BD
:102EE000310538F441E050E063E070E089E090E0C3
:102EF000A0C2059741E050E063E070E0039718F44A
:102F000087E090E096C283E090E093C20E949F0D1C
:102F100060939F057093A0058093A1059093A205EF
:102F20000E94E70F0E9475041092A9051093A40552
:102F30000093A30560E080E00E94740F8091070277
:102F40009091080240919B0550919C0560919D05D0
:102F500070919E05892B09F08EC08091A7059091F4
:102F6000A80501969093A8058093A7052AE0CE01B5
:102F700007960E94260E40919F055091A0056091F2
:102F8000A1057091A2052AE0CE010D960E94260EA1
:102F900063E274E0CE0143960E94B00EBE01635F0F
:102FA0007F4FCE0143960E940E0E65E673E00E94AD
:102FB000F50DBE01695F7F4F0E940E0EBC01CE0170
:102FC00001960E94960ECE0101960E948A04CE01BF
:102FD00001960E94210ECE0143960E94210ECE0141
:102FE0000D960E94210ECE0107960E94210E60913F
:102FF000A7057091A8054AE0CE0101960E945E0ED9
:103000006091A5057091A6054AE0CE0107960E9441
:103010005E0E62E374E0CE010D960E94B00EBE011A
:10302000695F7F4FCE010D960E940E0E6DE873E032
:103030000E94F50DBE016F5F7F4F0E940E0E6CE87F
:1030400073E00E94F50DBC0189EF96E00E94640FC9
:10305000CE010D960E94210ECE0107960E94210EF0
:10306000CE0101960E94210E41E050E062E070E046
:1030700085E090E08DC08091A5059091A605019610
:103080009093A6058093A5052AE0CE0107960E949D
:10309000260E40919F055091A0056091A105709169
:1030A000A2052AE0CE010D960E94260E6DE374E083
:1030B000CE0143960E94B00EBE01635F7F4FCE01EA
:1030C00043960E940E0E65E673E00E94F50DBE0168
:1030D000695F7F4F0E940E0EBC01CE0101960E94D7
:1030E000960ECE0101960E948A04CE0101960E949E
:1030F000210ECE0143960E94210ECE010D960E9414
:10310000210ECE0107960E94210E6091A7057091B5
:10311000A8054AE0CE0101960E945E0E6091A505C9
:103120007091A6054AE0CE0107960E945E0E6EE4FD
:1031300074E0CE010D960E94B00EBE01695F7F4F14
:10314000CE010D960E940E0E6DE873E00E94F50D03
:10315000BE016F5F7F4F0E940E0E6CE873E00E940D
:10316000F50DBC0189EF96E00E94640FCE010D962B
:103170000E94210ECE0107960E94210ECE010196DB
:103180000E94210E4FEF5FEF62E070E086E090E07A
:103190000E949A0480919F059091A005A091A1059D
:1031A000B091A20580939B0590939C05A0939D05EB
:1031B000B0939E0540C10E949F0D60939F05709340
:1031C000A0058093A1059093A20540919B05509185
:1031D0009C0560919D0570919E052AE0CE010796A1
:1031E0000E94260E40919F055091A0056091A10577
:1031F0007091A2052AE0CE010D960E94260E69E587
:1032000074E0CE0143960E94B00EBE01635F7F4F13
:10321000CE0143960E940E0E65E673E00E94F50D06
:10322000BE01695F7F4F0E940E0EBC01CE01019668
:103230000E94960ECE0101960E948A04CE0101964C
:103240000E94210ECE0143960E94210ECE010D96C2
:103250000E94210ECE0107960E94210E80919F05AB
:103260009091A005A091A105B091A20580939B0526
:1032700090939C05A0939D05B0939E050E947504B4
:103280001092A9051093A4050093A3052091990518
:1032900030919A0580910702909108022130310502
:1032A00011F58B30910529F44FEF5FEF62E070E08C
:1032B0003CC0892B09F0BFC08091050290910602A5
:1032C0009C01235031092230310528F44FEF5FEF84
:1032D00063E070E00EC0029708F0ADC04FEF5FEF03
:1032E00061E070E006C0009739F441E050E062E030
:1032F00070E081E090E09DC00B9709F09CC0809148
:103300000502909106029C012350310922303105BB
:1033100028F441E050E063E070E007C0029708F055
:103320008AC041E050E061E070E08AE090E081C056
:103330000E949F0D60939F057093A0058093A10547
:103340009093A20540919B0550919C0560919D052D
:1033500070919E052AE0CE0107960E94260E4091AC
:103360009F055091A0056091A1057091A2052AE0EA
:10337000CE010D960E94260E6FE674E0CE014396B4
:103380000E94B00EBE01635F7F4FCE0143960E9444
:103390000E0E65E673E00E94F50DBE01695F7F4F7A
:1033A0000E940E0EBC01CE0101960E94960ECE0127
:1033B00001960E948A04CE0101960E94210ECE0140
:1033C00043960E94210ECE010D960E94210ECE0141
:1033D00007960E94210E80919F059091A005A091D3
:1033E000A105B091A20580939B0590939C05A093A5
:1033F0009D05B0939E050E9475041092A905109337
:10340000A4050093A3058091990590919A058130B8
:10341000910539F44FEF5FEF62E070E086E090E0F5
:1034200008C0019641F441E050E062E070E085E0C0
:1034300090E00E949A040E946002B0C980911A072D
:10344000882369F160E080E00E94740F80E293E0DD
:103450000E94AD1161E080E00E94740F81E393E06F
:103460000E94AD1140919B0550919C0560919D0576
:1034700070919E052AE0CE0107960E94260E40918B
:103480009F055091A0056091A1057091A2052AE0C9
:10349000CE010D960E94260E62E473E0C3CA8091AD
:1034A000330734E6C31AD108E108F108882309F488
:1034B00026CA60E080E00E94740F8DE693E00E94CF
:1034C000AD1161E080E00E94740F8EE793E00E94EE
:1034D000AD1140919B0550919C0560919D057091A7
:1034E0009E052AE0CE0107960E94260E40919F0578
:1034F0005091A0056091A1057091A2052AE0CE012E
:103500000D960E94260E6FE873E0E7CA60E080E047
:103510000E94740F8BE794E00E94AD1140919B05CF
:1035200050919C0560919D0570919E052AE0CE0109
:1035300007960E94260E40919F055091A00560912C
:10354000A1057091A2052AE0CE010D960E94260EDB
:103550006CE874E0CE0143960E94B00EBE01635F3A
:103560007F4FCE0143960E940E0E65E673E00E94E7
:10357000F50DBE01695F7F4F0E940E0EBC01CE01AA
:1035800001960E94960ECE0101960E948A04CE01F9
:1035900001960E94210ECE0143960E94210ECE017B
:1035A0000D960E94210ECE0107960E94210E43CF58
:1035B00060910502709106028091070290910802C5
:1035C00041E050E045C060910502709106026150F3
:1035D000710906C060910502709106026F5F7F4F0E
:1035E00041E050E026C06091050270910602809192
:1035F00007029091080241E050E00AC06091050284
:103600007091060280910702909108024FEF5FEFE0
:1036100001961FC060910502709106026F5F7F4F97
:1036200006C06091050270910602615071094FEF6A
:103630005FEF80910702909108020BC06091050234
:103640007091060280910702909108024FEF5FEFA0
:1036500001970E949A0481E08093A905ECCECF9354
:10366000E0E5F6E01382128288EE93E0A0E0B0E09D
:1036700084839583A683B78328E932E0318320834E
:10368000ECE5F6E01382128284839583A683B783E8
:103690008AEA92E09183808385EC90E09587848725
:1036A00084EC90E09787868780EC90E0918B808B0C
:1036B00081EC90E0938B828B82EC90E0958B848BF5
:1036C00086EC90E0978B868B118E128E138E148E63
:1036D000E2E3F7E086E38483CFE0C38362E00E9405
:1036E000290DEDE2F7E087E38483C38362E00E9463
:1036F000290DE8E2F7E088E38483C38362E00E9457
:10370000290DE3E2F7E089E38483C38362E00E944A
:10371000290DEEE1F7E08AE38483C38362E00E942F
:10372000290DE9E1F7E08BE38483C38362E00E9423
:10373000290DE4E1F7E08CE38483C38362E00E9417
:10374000290DEFE0F7E08DE38483C38362E00E94FC
:10375000290DEAE0F7E08EE38483C38362E00E94F0
:10376000290DE5E0F7E08FE38483C38362E00E94E4
:10377000290DE9EFF6E0138212828CEB92E091833F
:10378000808387E2848380E1818782E08287138659
:10379000CF9108958F929F92AF92BF92CF92DF9276
:1037A000EF92FF92CF93DF93EC01688179818A8158
:1037B0009B81611571058105910521F464E279ED24
:1037C0008BE597E02DE133EF41E050E00E94911C42
:1037D00049015A019B01AC01A7EAB1E40E94B01C67
:1037E0006B017C01ACEEB4EFA50194010E94BE1CFC
:1037F000DC01CB018C0D9D1DAE1DBF1DB7FF03C0AD
:103800000197A109B04888839983AA83BB83BC012F
:10381000CD019F77DF91CF91FF90EF90DF90CF9018
:10382000BF90AF909F908F9008950C94CA1B8AE030
:1038300092E00C94CA1B60930A0270930B0280936F
:103840000C0290930D0208954532510520F4423048
:1038500010F00C942F1CFB011082CB010895BB27A4
:103860004A3031F4992322F4BDE2909581959F4F1F
:103870000C94681C2532310520F4223010F00C9491
:10388000451CFA011082CA010895BB27FA01A62F30
:103890006217710581059105330B30FB66F0AA278D
:1038A000660F771F881F991FAA1FA21710F0A21B6F
:1038B00063953850A9F7A05DAA3308F0A95DA193DC
:1038C00036F7B111B1931082CA010C94811CBB2749
:1038D000FB015527AA27880F991FAA1FA41710F0CC
:1038E000A41B83955051B9F7A05DAA3308F0A95DD8
:1038F000A193009779F7B111B1931192CB010C9478
:10390000811CDC01FC01672F71917723E1F732976D
:1039100004C07C916D9370836291AE17BF07C8F3AA
:103920000895052E97FB1EF400940E94A81C57FDD5
:1039300007D00E94C31C07FC03D04EF40C94A81CB3
:1039400050954095309521953F4F4F4F5F4F0895CB
:1039500090958095709561957F4F8F4F9F4F0895FB
:103960000E94E51CA59F900DB49F900DA49F800D13
:10397000911D11240895B7FF0C94B01C0E94B01C37
:10398000821B930B0895A1E21A2EAA1BBB1BFD01FB
:103990000DC0AA1FBB1FEE1FFF1FA217B307E4072E
:1039A000F50720F0A21BB30BE40BF50B661F771F86
:1039B000881F991F1A9469F7609570958095909566
:1039C0009B01AC01BD01CF010895A29FB001B39F3F
:1039D000C001A39F700D811D1124911DB29F700D18
:1039E000811D1124911D0895EE0FFF1F881F8BBFAD
:1039F0000790F691E02D1994CF93DF9382309105D3
:103A000010F482E090E0E0915C07F0915D0720E027
:103A100030E0C0E0D0E0309711F14081518148178B
:103A20005907C0F04817590761F4828193812097A4
:103A300019F09B838A832BC090935D0780935C076A
:103A400026C02115310519F04217530718F49A01C1
:103A5000BE01DF01EF010280F381E02DDCCF2115F3
:103A6000310509F1281B390B2430310590F41296E9
:103A70008D919C9113976115710521F0FB01938342
:103A8000828304C090935D0780935C07FD013296AA
:103A900044C0FD01E20FF31F81939193225031093D
:103AA0002D933C933AC020915A0730915B07232B0A
:103AB00041F4209110023091110230935B07209362
:103AC0005A0720910E0230910F022115310541F461
:103AD0002DB73EB74091120250911302241B350BB3
:103AE000E0915A07F0915B07E217F307A0F42E1B51
:103AF0003F0B2817390778F0AC014E5F5F4F241752
:103B0000350748F04E0F5F1F50935B0740935A07ED
:103B10008193919302C0E0E0F0E0CF01DF91CF917B
:103B200008950F931F93CF93DF93009709F48CC0F0
:103B3000FC0132971382128200915C0710915D079D
:103B40000115110581F420813181820F931F20918D
:103B50005A0730915B072817390779F5F0935B070F
:103B6000E0935A0771C0D80140E050E0AE17BF079C
:103B700050F412962D913C911397AD01211531050A
:103B800009F1D901F3CF9D01DA01338322836081EA
:103B90007181860F971F8217930769F4EC012881C2
:103BA0003981260F371F2E5F3F4F318320838A8153
:103BB0009B8193838283452B29F4F0935D07E093E7
:103BC0005C0742C01396FC93EE931297ED01499166
:103BD00059919E01240F351FE217F30771F480817C
:103BE0009181840F951F029611969C938E938281EA
:103BF000938113969C938E931297E0E0F0E0D801A6
:103C000012968D919C911397009719F0F8018C01F1
:103C1000F6CF8D919C9198012E5F3F4F820F931F9D
:103C200020915A0730915B072817390769F43097BC
:103C300029F410925D0710925C0702C01382128271
:103C400010935B0700935A07DF91CF911F910F915B
:103C500008956F927F928F929F92AF92BF92CF9270
:103C6000DF92EF92FF920F931F93CF93DF93EC01BC
:103C7000009789F4CB01DF91CF911F910F91FF90B5
:103C8000EF90DF90CF90BF90AF909F908F907F90FC
:103C90006F900C94FC1CFC01E60FF71F9C01225056
:103CA0003109E217F30708F4ACC0D9010D911C915A
:103CB000119706171707B0F00530110508F49FC0DB
:103CC000C80104978617970708F499C00250110994
:103CD000061B170B019311936D937C93CF010E94E8
:103CE000911D8DC05B01A01AB10A4C01800E911E7E
:103CF000A0915C07B0915D0740E050E0E12CF12C11
:103D0000109709F44AC0A815B905D1F56D907C90BB
:103D10001197630182E0C80ED11CCA14DB0480F144
:103D2000A3014A195B096A0182E0C80ED11C1296F0
:103D3000BC9012971396AC91B5E0CB16D10440F02D
:103D4000B282A38351834083D9016D937C930AC0CF
:103D50000E5F1F4FC301800F911FF9019183808374
:103D6000EB2DFA2FE114F10431F0D7011396FC93F7
:103D7000EE93129744C0F0935D07E0935C073FC059
:103D80008D919C9111974817590708F4AC017D015A
:103D900012960D90BC91A02DB3CF80915A079091AF
:103DA0005B0788159905E1F446175707C8F4809119
:103DB0000E0290910F02009741F48DB79EB740918B
:103DC000120250911302841B950BE817F907C8F4EF
:103DD000F0935B07E0935A07F901718360830FC08A
:103DE000CB010E94FC1C7C01009759F0A801BE0188
:103DF0000E94171FCE010E94911DC70104C0CE0171
:103E000002C080E090E0DF91CF911F910F91FF9071
:103E1000EF90DF90CF90BF90AF909F908F907F906A
:103E20006F90089581E090E0F8940C94271FFB01B7
:103E3000DC0102C001900D9241505040D8F7089526
:103E4000FB01DC0101900D920020E1F70895F89448
:023E5000FFCFA2
:103E520001FFFFFFFFFFFFFFFFFF01000000000067
:103E62005E078000FF00FF002701FF00FF00FF0048
:103E7200030023010100FF00FF001DFF25FF19FFC2
:103E8200FF00FF001C0124011A01FF00FF001EFFBA
:103E920022FF1BFFFF00FF00FF002A01FF00FF00BF
:103EA200FF00FF002CFFFF00FF00FF001F012B019E
:103EB2001701FF00FF0021FF26FF16FFFF00FF0092
:103EC20020012D011801FF00FF00040029FF02005C
:103ED200FF00FF00FF0028FFFF00FF00000040007E
:103EE2001400540000000000410A110A9A02EB0972
:103EF200090AFA09EC0900000000F701EB0A8F0138
:103F02003E02C0019E01B201000000006F04EB0AF4
:103F12009A02990257686F2069732066617374650B
:103F22007220636F77626F793F21205072657373DD
:103F320020636174636820627574746F6E206166B9
:103F42007465722074686520626565702100576827
:103F52006F206973206661737465723F212000438C
:103F620061746368206166746572206265657000C1
:103F720052656473206661696C2120202020202014
:103F820000477265656E732077696E2120202020BC
:103F92002000526564732066616C7365737461728C
:103FA2007420616E6420677265656E732077696E36
:103FB200206174200020616674657220004772657A
:103FC200656E73206661696C212020202000526595
:103FD20064732077696E2120202020202020004752
:103FE2007265656E732066616C7365737461727459
:103FF20020616E6420726564732077696E2061743B
:10400200200043617463682062616C6C2100466128
:1040120073742064726177212020202020200057B1
:10402200686F277320636F77626F792120202000E9
:10403200477265656E732077696E20617420005245
:104042006564732077696E212020200052656473B5
:104052002077696E206174200047733A2000202087
:104062002052733A200053696465206F7574206191
:10407200742000526564732073636F7265206174EB
:1040820020005264732073636F726521004772656A
:10409200656E732073636F726520617420004772CE
:1040A200732073636F72652100476F616C206C69C6
:1040B2006E652063726F7373656420617420004FB4
:1040C200666673696465206174200043726F73735E
:1040D200206661696C2120202020200043726F73CA
:1040E200732066616C7365737461727420617420ED
:1040F200000D0A004E65777879206F6E20002C0043
:10410200627574746F6E31312073746174654368C3
:10411200616E67656400627574746F6E313220730C
:10412200746174654368616E676564006275747476
:104132006F6E31332073746174654368616E6765B5
:104142006400627574746F6E3134207374617465C7
:104152004368616E67656400627574746F6E3135B1
:104162002073746174654368616E6765640062758B
:1041720074746F6E32312073746174654368616E5A
:1041820067656400627574746F6E32322073746195
:1041920074654368616E67656400627574746F6EFE
:1041A20032332073746174654368616E67656400BD
:1041B200627574746F6E323420737461746543680F
:1041C200616E67656400627574746F6E3235207358
:0C41D200746174654368616E6765640089
:00000001FF
