:100000000C94C1020C94F2020C94F2020C94F202D1
:100010000C94F2020C94F2020C94F2020C94F20290
:100020000C94F2020C94F2020C94F2020C94F20280
:100030000C94F2020C948F170C94F2020C94D912C7
:100040000C94F2020C94F2020C94F2020C94F20260
:100050000C94F2020C94F2020C94F2020C94D11063
:100060000C94F2020C94A3120C9479120C94F202E8
:100070000C94F2020C94F2020C94F2020C94F20230
:100080000C94F2020C94F2020C94F2020C94F20220
:100090000C94F2020C94F2020C94F2020C942F0EC7
:1000A0000C94F2020C94F2020C94F2020C94F20200
:1000B0000C94F2020C94F2020C94F2020C94F202F0
:1000C0000C94F2020C94F2020C94F2020C94F202E0
:1000D0000C94F2020C94F2020C94F2020C94F202D0
:1000E0000C94F202B519C51A381E84206D21CE2158
:1000F000B32225252525241F7E0D810D700D740D3D
:100100007A0DB80D850D890D8F0D930D970D9D0DF1
:10011000A10DA50DB80DAB0DAF0DB30D0C94AF0D2A
:100120000C944C280C9434110C94B80D0C9465115B
:100130000C947E0D0C94850D0C943E120C9484202E
:100140000C94ED0C0C94810D0C94B3220C94B51905
:100150000C948F0D0C94DE0C0C94970D0C949C1148
:100160000C94DF0C0C9443110C94B30D0C94930D70
:100170000C94040D0C94FC0C0C948B150C943F12F5
:100180000C9404140C94A10D0C94340D0C94890D52
:100190000C94AB0D0C94381E0C9425250C94F10690
:1001A0000C946D210C947A0D0C94C51A0C94CE21EC
:1001B0000C94740D0C949D0D0C94241F0C94A50D9F
:1001C0000C94700D0C94D5280C9457110C94E311D9
:1001D00000407A10F35A00A0724E18090010A5D4FE
:1001E000E80000E87648170000E40B54020000CA5B
:1001F0009A3B000000E1F5050000809698000000A1
:1002000040420F000000A0860100000010270000FF
:100210000000E803000000006400000000000A0085
:10022000000000000100000000002C76D888DC6788
:100230004F0823DFC1DFAE59E1B1B796E5E3E453E0
:10024000C63AE651997696E8E6C28426EB898C9BFD
:1002500062ED407C6FFCEFBC9C9F40F2BAA56FA59D
:10026000F490055A2AF75C936B6CF9676DC11BFC1F
:10027000E0E40D47FEF520E6B500D0ED902E03003A
:10028000943577050080841E080000204E0A000087
:1002900000C80C333333330F986E12831141EF8D46
:1002A0002114893BE65516CFFEE6DB18D1844B3886
:1002B0001BF77C1D901DA4BBE424203284725E22B7
:1002C0008100C9F124ECA1E53D27526564732077D4
:1002D000696E212020202020202000477265656E55
:1002E000732077696E2120202020200044726177DE
:1002F0002067616D6521416761696E210057686FF4
:10030000277320636F77626F792120202000466178
:1003100073742064726177212020202020200063E4
:100320006174636842616C6C2C2C2C2C00526564E7
:10033000732077696E212020202020202000477222
:1003400065656E73206661696C212020202000475E
:100350007265656E732077696E2120202020200051
:1003600052656473206661696C2120202020202062
:100370000043726F7373206661696C212020202016
:100380002000436174636820616674657220626551
:1003900065700057686F20697320666173746572B9
:1003A0003F2120006B6579636F77626F79732C2C26
:1003B0002C2C00507265737320616E79206B657907
:1003C0002E2E2E0044726177696E67206265676920
:1003D0006E732120004F66667369646521202020BA
:1003E000202020202000326E642074696D65206218
:1003F0006567696E732100707265737320616E7931
:10040000206B65792E2E2E00526F74617465206208
:100410006F61726420616E640046696E616C207366
:10042000636F72653A202020200044726177206754
:10043000616D6521202020202020005265647320FA
:1004400077696E21202020202020200047726565DA
:100450006E732077696E212020202000000021008B
:10046000240027002A002D00300033000101000085
:10047000040107010A0100002200250028002B00CA
:100480002E003100340002010000050108010B01BB
:10049000000020002300260029002C002F0032003D
:1004A0000001000003010601090105050505070516
:1004B00008080808020202020A0A080804040404E0
:1004C000010101010101010103030303030303030C
:1004D000040707070C0C0C0C0C0C0C0C020202029B
:1004E00006060606060606060B0B0B0B0B0B0B0B84
:1004F0000102102020080810204010204080020136
:10050000020108040201010204081020408080401A
:100510002010080402018004020180402010080419
:1005200002010804020101020408102040800102B7
:1005300004081020408000000A0B02090C0D0E0870
:10054000070304010000000000000000000000009C
:10055000000000000000000000000000000000009B
:100560000000121110000000000000000000000058
:1005700000000000000000000000000002004C2805
:10058000D52811241FBECFEFD1E2DEBFCDBF00E0E2
:100590000CBF14E0A0E0B2E0E4E7F2E600E00BBF3D
:1005A00002C007900D92AA35B107D9F726E0AAE557
:1005B000B4E001C01D92A43FB207E1F712E0C0EC25
:1005C000D2E000E006C021970109802FFE010E94C1
:1005D000E12ECF3BD10780E00807A9F70E943C1825
:1005E0000C9428310C9400004F925F926F927F928E
:1005F0008F929F92AF92BF92DF92EF92FF920F93F2
:100600001F93CF93DF93EC01088110E08A890E9449
:10061000610F0817190711F0188A7CC00E94C510D5
:100620002B013C0188898F5F888B9989891708F491
:1006300071C0D88081E0D826D882188AC301B2015F
:100640000E94462C20E030E04AE754E40E94DF2D6F
:100650004B015C010E94C82D0E94512ECB016CE31E
:1006600070E00E94CD2E8C01892B11F40CE310E078
:100670008E859F850817190788F08B899C89AD891D
:10068000BE89A3019201281B390B4A0B5B0BDA01CF
:10069000C90181369A4EA105B10510F01D821C8258
:1006A0004B8A5C8A6D8A7E8A1F870E878A819B812E
:1006B00001969B838A83EC80FD804FEFE41AF40A55
:1006C000FD82EC82BC0180E090E00E94462CA501F6
:1006D00094010E94DF2D6E837F8388879987B701FD
:1006E00080E090E00E94462C4B015C01B80180E064
:1006F00090E00E94462C9B01AC01C501B4010E9410
:10070000DF2D6A877B878C879D8781E0DD2019F04C
:10071000898301C080E0DF91CF911F910F91FF90FD
:10072000EF90DF90BF90AF909F908F907F906F90F1
:100730005F904F90089510927B061092640610927D
:100740004D061092360610921F061092080610925F
:10075000F1051092DA051092C3051092AC051092C3
:10076000630408958F929F92AF92BF92EF92FF928F
:100770001F93CF93DF937B0180E30E94610F892B4E
:1007800009F4FCC1809105028E3221F08F3F09F0FF
:10079000F5C104C0ECE7F5E01491E8C08EE2809367
:1007A0000502ECE7F5E0E491EF3F09F4E7C1E23040
:1007B00009F472C04CF5EE2309F451C0E13009F0A0
:1007C000D4C01092800010928100809181008860D6
:1007D0008093810080918100816080938100E8EDA9
:1007E000F4E0E491F0E0EE0FFF1FEA58FB4F859133
:1007F000949190938E0480938D04EEE1F5E0E49162
:10080000E0938C0411E0B4C0E43009F48BC00CF424
:1008100066C0E53009F0A9C01092200110922101B4
:100820008091210188608093210180912101816064
:1008300080932101E8EDF4E0E491F0E0EE0FFF1F7A
:10084000EA58FB4F8591949190938504809384049A
:10085000EEE1F5E0E491E093830415E089C014BC77
:1008600015BC84B5826084BD85B5816085BDE8ED29
:10087000F4E0E491F0E0EE0FFF1FEA58FB4F8591A2
:1008800094919093910480939004EEE1F5E0E491CB
:10089000E0938F0410E06CC01092B0001092B10091
:1008A0008091B00082608093B0008091B10081603F
:1008B0008093B100E8EDF4E0E491F0E0EE0FFF1F6B
:1008C000EA58FB4F859194919093EA068093E9064C
:1008D000EEE1F5E0E491E093EB0612E049C01092FE
:1008E0009000109291008091910088608093910017
:1008F00080919100816080939100E8EDF4E0E491B3
:10090000F0E0EE0FFF1FEA58FB4F85919491909312
:100910008B0480938A04EEE1F5E0E491E09389048E
:1009200013E026C01092A0001092A1008091A100B7
:1009300088608093A1008091A10081608093A100D4
:10094000E8EDF4E0E491F0E0EE0FFF1FEA58FB4F12
:10095000859194919093880480938704EEE1F5E06B
:10096000E491E093860414E003C01E2F17FD06C136
:100970004701A12CB12C61E08EE20E94BA0F112335
:1009800009F4F1C0123009F44DC0113071F48091B6
:100990008100887F81608093810089288A288B2844
:1009A00009F480C0C9E6DAE04AC0133081F48091CE
:1009B0009100887F81608093910089288A288B2804
:1009C00089F72FEF3FEFA901C9E6DAE096C01430AE
:1009D00081F48091A100887F81608093A1008928A3
:1009E0008A288B28F9F62FEF3FEFA901C9E6DAE054
:1009F00096C0153081F480912101887F81608093B9
:100A0000210189288A288B2869F62FEF3FEFA90159
:100A1000C9E6DAE096C0C9E6DAE089288A288B2898
:100A2000D1F00DC08091B100887F83608093B100C8
:100A300089288A288B2809F44CC0C2E5D0E09701A8
:100A4000A0E7B7E10E944C2D28EE33E040E050E0F3
:100A50000E942A2D03C02FEF3FEFA9011230E9F1C8
:100A60002CF4112381F0113011F188C0143009F4F5
:100A700056C00CF442C0153009F463C07FC02FEF9C
:100A80003FEFA901C8E2C7BD2093A2043093A3049D
:100A90004093A4045093A50480916E0082608093DB
:100AA0006E006CC02FEF3FEFA901C9E6DAE0D093EA
:100AB0008900C093880020939E0430939F04409344
:100AC000A0045093A10480916F00826080936F0016
:100AD00055C02FEF3FEFA901C2E5C093B3002093AB
:100AE000EC063093ED064093EE065093EF068091AE
:100AF000700082608093700041C0D0939900C093D1
:100B0000980020939A0430939B0440939C04509344
:100B10009D04809171008260809371002FC0D093FA
:100B2000A900C093A80020939604309397044093A3
:100B300098045093990480917200826080937200AF
:100B40001DC0D0932901C0932801209392043093B3
:100B500093044093940450939504809173008260B1
:100B6000809373000BC085B5887F836085BD89281D
:100B70008A288B2809F483CFC8E260CFDF91CF9118
:100B80001F91FF90EF90BF90AF909F908F9008952E
:100B90000F931F93CF93DF93CDB7DEB7C254D10924
:100BA0000FB6F894DEBF0FBECDBF8C0180917000F0
:100BB0008E7F8093700080910002882309F403C126
:100BC00060916204062E000C770B4AE0CE01CD96B0
:100BD0000E940D1760910102062E000C770B4AE06F
:100BE000CE01C7960E940D1760910202062E000CDE
:100BF000770B4AE0CE01C1960E940D176091640404
:100C0000062E000C770B4AE0CE018B960E940D1742
:100C100090910302692F990F770B4AE0CE018596D8
:100C20000E940D1790910402692F990F770B4AE0EB
:100C3000CE014F960E940D1790917504692F990F60
:100C4000770B4AE0CE0149960E940D17409165044A
:100C50005091660460916704709168042AE0CE01A7
:100C600043960E94B41640917104509172046091B1
:100C70007304709174042AE0CE010D960E94B4169C
:100C80000E94C510AB01BC012AE0CE0101960E9472
:100C9000B416BE016F5F7F4FCE0107960E94711799
:100CA00064E174E0CE0107960E941B11BE01635FF0
:100CB0007F4F0E941D1664E174E00E941B11BE016B
:100CC0006D5E7F4F0E941D1664E174E00E941B114F
:100CD000BE01675E7F4F0E941D1664E174E00E94B2
:100CE0001B11BE01615E7F4F0E941D1664E174E01E
:100CF0000E941B11BE016B5D7F4F0E941D1664E1B7
:100D000074E00E941B11BE01655D7F4F0E941D169D
:100D100064E174E00E941B11BE016F5C7F4F0E9472
:100D20001D1664E174E00E941B11BE01695C7F4FD7
:100D30000E941D1664E174E00E941B11BE01635CF9
:100D40007F4F0E941D1664E174E00E941B11B801E0
:100D50000E941D16BC018CEF94E00E942E1842E008
:100D600050E061E074E08CEF94E00E948B15CE01BE
:100D700007960E947F16CE0101960E947F16CE0133
:100D80000D960E947F16CE0143960E947F16CE01DB
:100D900049960E947F16CE014F960E947F16CE0183
:100DA00085960E947F16CE018B960E947F16CE01FB
:100DB000C1960E947F16CE01C7960E947F16CE0173
:100DC000CD960E947F160E944F13CE5BDF4F0FB669
:100DD000F894DEBF0FBECDBFDF91CF911F910F9171
:100DE0000895CF93DF93CDB7DEB7A4970FB6F894ED
:100DF000DEBF0FBECDBF63E074E0CE0101960E945E
:100E00007A178AE796E00E94F402882309F46DC0FD
:100E100060917E0670917F064AE0CE014F960E9457
:100E2000E11660918806709189064AE0CE014996E4
:100E30000E94E116409184065091850660918606D5
:100E40007091870622E0CE0143960E94841660913D
:100E50007A0670E04AE0CE010D960E940D17BE01A1
:100E60006F5F7F4FCE0107960E94711764E074E0B8
:100E7000CE0107960E941B11BE01635F7F4F0E9447
:100E80001D1664E174E00E941B11BE016D5E7F4F70
:100E90000E941D1664E174E00E941B11BE01675E92
:100EA0007F4F0E941D1664E174E00E941B11BE0179
:100EB000615E7F4F0E941D16BC01CE0101960E940B
:100EC0006816CE0107960E947F16CE010D960E94ED
:100ED0007F16CE0143960E947F16CE0149960E944E
:100EE0007F16CE014F960E947F1683E696E00E9401
:100EF000F402882309F487C08D819E810297B0F0A7
:100F0000BE016F5F7F4FCE0107960E94711769E0A7
:100F100074E0CE0107960E941B11BC01CE01019620
:100F20000E946816CE0107960E947F1660916706A0
:100F3000709168064AE0CE014F960E94E1166091DA
:100F40007106709172064AE0CE0149960E94E11640
:100F500040916D0650916E0660916F06709170061B
:100F600022E0CE0143960E9484166091630670E0F1
:100F70004AE0CE010D960E940D17BE016F5F7F4FB4
:100F8000CE0107960E94711766E174E0CE010796C4
:100F90000E941B11BE01635F7F4F0E941D1664E11A
:100FA00074E00E941B11BE016D5E7F4F0E941D16F2
:100FB00064E174E00E941B11BE01675E7F4F0E94D6
:100FC0001D1664E174E00E941B11BE01615E7F4F3B
:100FD0000E941D16BC01CE0101960E946816CE012A
:100FE00007960E947F16CE010D960E947F16CE01B5
:100FF00043960E947F16CE0149960E947F16CE012D
:101000004F960E947F168CE496E00E94F40288239B
:1010100009F487C08D819E810297B0F0BE016F5F99
:101020007F4FCE0107960E94711769E074E0CE01F0
:1010300007960E941B11BC01CE0101960E94681602
:10104000CE0107960E947F1660915006709151065E
:101050004AE0CE014F960E94E11660915A067091C7
:101060005B064AE0CE0149960E94E1164091560681
:1010700050915706609158067091590622E0CE01B2
:1010800043960E94841660914C0670E04AE0CE01BF
:101090000D960E940D17BE016F5F7F4FCE01079620
:1010A0000E9471176BE174E0CE0107960E941B113C
:1010B000BE01635F7F4F0E941D1664E174E00E94D1
:1010C0001B11BE016D5E7F4F0E941D1664E174E02E
:1010D0000E941B11BE01675E7F4F0E941D1664E1D6
:1010E00074E00E941B11BE01615E7F4F0E941D16BD
:1010F000BC01CE0101960E946816CE0107960E949F
:101100007F16CE010D960E947F16CE0143960E9457
:101110007F16CE0149960E947F16CE014F960E94FF
:101120007F1685E396E00E94F402882309F487C0C5
:101130008D819E810297B0F0BE016F5F7F4FCE011F
:1011400007960E94711769E074E0CE0107960E942D
:101150001B11BC01CE0101960E946816CE010796B4
:101160000E947F166091390670913A064AE0CE01DE
:101170004F960E94E11660914306709144064AE042
:10118000CE0149960E94E11640913F0650914006DB
:10119000609141067091420622E0CE0143960E9482
:1011A00084166091350670E04AE0CE010D960E94EB
:1011B0000D17BE016F5F7F4FCE0107960E9471171A
:1011C00060E274E0CE0107960E941B11BE01635FCE
:1011D0007F4F0E941D1664E174E00E941B11BE0146
:1011E0006D5E7F4F0E941D1664E174E00E941B112A
:1011F000BE01675E7F4F0E941D1664E174E00E948D
:101200001B11BE01615E7F4F0E941D16BC01CE0105
:1012100001960E946816CE0107960E947F16CE01A5
:101220000D960E947F16CE0143960E947F16CE0136
:1012300049960E947F16CE014F960E947F168EE13E
:1012400096E00E94F402882309F487C08D819E8174
:101250000297B0F0BE016F5F7F4FCE0107960E94EC
:10126000711769E074E0CE0107960E941B11BC0162
:10127000CE0101960E946816CE0107960E947F1645
:1012800060912206709123064AE0CE014F960E949B
:10129000E11660912C0670912D064AE0CE01499628
:1012A0000E94E116409128065091290660912A0675
:1012B00070912B0622E0CE0143960E948416609125
:1012C0001E0670E04AE0CE010D960E940D17BE0189
:1012D0006F5F7F4FCE0107960E94711765E274E041
:1012E000CE0107960E941B11BE01635F7F4F0E94D3
:1012F0001D1664E174E00E941B11BE016D5E7F4FFC
:101300000E941D1664E174E00E941B11BE01675E1D
:101310007F4F0E941D1664E174E00E941B11BE0104
:10132000615E7F4F0E941D16BC01CE0101960E9496
:101330006816CE0107960E947F16CE010D960E9478
:101340007F16CE0143960E947F16CE0149960E94D9
:101350007F16CE014F960E947F1687E096E00E948E
:10136000F402882309F487C08D819E810297B0F032
:10137000BE016F5F7F4FCE0107960E94711769E033
:1013800074E0CE0107960E941B11BC01CE010196AC
:101390000E946816CE0107960E947F1660910B0688
:1013A00070910C064AE0CE014F960E94E1166091C2
:1013B0001506709116064AE0CE0149960E94E11684
:1013C0004091110650911206609113067091140617
:1013D00022E0CE0143960E9484166091070670E0D9
:1013E0004AE0CE010D960E940D17BE016F5F7F4F40
:1013F000CE0107960E9471176AE274E0CE0107964B
:101400000E941B11BE01635F7F4F0E941D1664E1A5
:1014100074E00E941B11BE016D5E7F4F0E941D167D
:1014200064E174E00E941B11BE01675E7F4F0E9461
:101430001D1664E174E00E941B11BE01615E7F4FC6
:101440000E941D16BC01CE0101960E946816CE01B5
:1014500007960E947F16CE010D960E947F16CE0140
:1014600043960E947F16CE0149960E947F16CE01B8
:101470004F960E947F1680EF95E00E94F402882329
:1014800009F487C08D819E810297B0F0BE016F5F25
:101490007F4FCE0107960E94711769E074E0CE017C
:1014A00007960E941B11BC01CE0101960E9468168E
:1014B000CE0107960E947F166091F4057091F505A4
:1014C0004AE0CE014F960E94E1166091FE057091B0
:1014D000FF054AE0CE0149960E94E1164091FA05C7
:1014E0005091FB056091FC057091FD0522E0CE0155
:1014F00043960E9484166091F00570E04AE0CE01A8
:101500000D960E940D17BE016F5F7F4FCE010796AB
:101510000E9471176FE274E0CE0107960E941B11C2
:10152000BE01635F7F4F0E941D1664E174E00E945C
:101530001B11BE016D5E7F4F0E941D1664E174E0B9
:101540000E941B11BE01675E7F4F0E941D1664E161
:1015500074E00E941B11BE01615E7F4F0E941D1648
:10156000BC01CE0101960E946816CE0107960E942A
:101570007F16CE010D960E947F16CE0143960E94E3
:101580007F16CE0149960E947F16CE014F960E948B
:101590007F1689ED95E00E94F402882309F487C044
:1015A0008D819E810297B0F0BE016F5F7F4FCE01AB
:1015B00007960E94711769E074E0CE0107960E94B9
:1015C0001B11BC01CE0101960E946816CE01079640
:1015D0000E947F166091DD057091DE054AE0CE0124
:1015E0004F960E94E1166091E7057091E8054AE088
:1015F000CE0149960E94E1164091E3055091E40521
:101600006091E5057091E60522E0CE0143960E94C7
:1016100084166091D90570E04AE0CE010D960E94D3
:101620000D17BE016F5F7F4FCE0107960E947117A5
:1016300064E374E0CE0107960E941B11BE01635F54
:101640007F4F0E941D1664E174E00E941B11BE01D1
:101650006D5E7F4F0E941D1664E174E00E941B11B5
:10166000BE01675E7F4F0E941D1664E174E00E9418
:101670001B11BE01615E7F4F0E941D16BC01CE0191
:1016800001960E946816CE0107960E947F16CE0131
:101690000D960E947F16CE0143960E947F16CE01C2
:1016A00049960E947F16CE014F960E947F1682ECCB
:1016B00095E00E94F402882309F487C08D819E8101
:1016C0000297B0F0BE016F5F7F4FCE0107960E9478
:1016D000711769E074E0CE0107960E941B11BC01EE
:1016E000CE0101960E946816CE0107960E947F16D1
:1016F0006091C6057091C7054AE0CE014F960E94E1
:10170000E1166091D0057091D1054AE0CE0149966D
:101710000E94E1164091CC055091CD056091CE0517
:101720007091CF0522E0CE0143960E94841660910D
:10173000C20570E04AE0CE010D960E940D17BE0171
:101740006F5F7F4FCE0107960E94711769E374E0C7
:10175000CE0107960E941B11BE01635F7F4F0E945E
:101760001D1664E174E00E941B11BE016D5E7F4F87
:101770000E941D1664E174E00E941B11BE01675EA9
:101780007F4F0E941D1664E174E00E941B11BE0190
:10179000615E7F4F0E941D16BC01CE0101960E9422
:1017A0006816CE0107960E947F16CE010D960E9404
:1017B0007F16CE0143960E947F16CE0149960E9465
:1017C0007F16CE014F960E947F168BEA95E00E940D
:1017D000F402882309F487C08D819E810297B0F0BE
:1017E000BE016F5F7F4FCE0107960E94711769E0BF
:1017F00074E0CE0107960E941B11BC01CE01019638
:101800000E946816CE0107960E947F166091AF0570
:101810007091B0054AE0CE014F960E94E1166091AA
:10182000B9057091BA054AE0CE0149960E94E116C9
:101830004091B5055091B6056091B7057091B80516
:1018400022E0CE0143960E9484166091AB0570E0C1
:101850004AE0CE010D960E940D17BE016F5F7F4FCB
:10186000CE0107960E9471176EE374E0CE010796D1
:101870000E941B11BE01635F7F4F0E941D1664E131
:1018800074E00E941B11BE016D5E7F4F0E941D1609
:1018900064E174E00E941B11BE01675E7F4F0E94ED
:1018A0001D1664E174E00E941B11BE01615E7F4F52
:1018B0000E941D16BC01CE0101960E946816CE0141
:1018C00007960E947F16CE010D960E947F16CE01CC
:1018D00043960E947F16CE0149960E947F16CE0144
:1018E0004F960E947F168D819E81029778F0BE01EF
:1018F0006F5F7F4FCE0107960E947117CE0107964A
:101900000E94C805CE0107960E947F16CE0101965F
:101910000E947F16A4960FB6F894DEBF0FBECDBF0F
:10192000DF91CF910895FC01862F138212821582D8
:1019300014821682178210861186128613861486E8
:10194000158617861686138A148A158A168A628B5C
:10195000418B62E00C94BA0F85ED8093BC008091BE
:10196000BC0084FDFCCF1092ED0408954091BC06AC
:10197000262F30E0240F311D21323105DCF4209177
:10198000ED042430C9F4FC0180E090E0861758F49F
:101990003091BC062191DC01A656B94FA30FB11DB1
:1019A0002C930196F3CF8091BC06680F6093BC0620
:1019B00080E0089581E0089582E00895089581E02F
:1019C00090E03091E2062091E106321710F480E0B9
:1019D00090E091958195910908958091E20690910A
:1019E000E106891730F48F5F8093E20680E090E093
:1019F00008958FEF9FEF08958091E10690E0209188
:101A0000E206821B91090895CF92DF92EF92FF9236
:101A10000F931F93CF93DF937C01262F972F8A017B
:101A20008091C604882391F0C62FD72F6E01C40E73
:101A3000D51ECC15DD0571F06991D701ED91FC91B2
:101A40000190F081E02DC7011995F3CF642F822F0B
:101A50000E94B60CC801DF91CF911F910F91FF90AA
:101A6000EF90DF90CF900895CF93DF931F92CDB783
:101A7000DEB769832091C6042223D1F02091EE04C1
:101A8000203240F021E030E0FC013383228380E00B
:101A900090E015C08091EF04E82FF0E0EA55FB4F8D
:101AA000998190838F5F8093EF048093EE0405C04B
:101AB00061E0CE0101960E94B60C81E090E00F90AB
:101AC000DF91CF91089590E0FC013197E231F1056B
:101AD00008F04EC08827E458FF4F8F4F0C94E12E3A
:101AE000809180008F7703C0809180008F7D8093EC
:101AF0008000089580918000877FF9CF84B58F772B
:101B000002C084B58F7D84BD08958091B0008F7729
:101B100003C08091B0008F7D8093B00008958091C4
:101B200090008F7707C0809190008F7D03C08091D7
:101B30009000877F8093900008958091A0008F7718
:101B400007C08091A0008F7D03C08091A000877F97
:101B50008093A0000895809120018F7707C0809125
:101B600020018F7D03C080912001877F8093200119
:101B700008953FB7F8948091960690919706A091AA
:101B80009806B091990626B5A89B05C02F3F19F07D
:101B90000196A11DB11D3FBFBA2FA92F982F8827ED
:101BA000820F911DA11DB11DBC01CD0142E0660F48
:101BB000771F881F991F4A95D1F708950E94133106
:101BC0000F931F93CF93DF938C01C0E0D0E0F80117
:101BD000EC0FFD1F6491662371F0E0919F05F09179
:101BE000A0050190F081E02D8FE995E01995892BF2
:101BF00011F02196ECCFCE01DF91CF911F910F9183
:101C00000895CF93DF93CDB7DEB728970FB6F8943A
:101C1000DEBF0FBECDBF98E0E8E8F2E0DE0111962E
:101C200001900D929A95E1F79091A705981710F4FD
:101C30008FEF890FFE013196E80FF11DE80FF11DBE
:101C40006081606840E08FE995E028960FB6F894CF
:101C5000DEBF0FBECDBFDF91CF910C94E3131F9277
:101C60000F920FB60F9211240BB60F922F933F9342
:101C70004F935F936F937F938F939F93AF93BF9394
:101C8000EF93FF938091B900887F803609F49CC060
:101C900068F5883209F45BC090F4803109F454C0CF
:101CA00038F4882309F4F6C0883009F44DC0F6C032
:101CB000883109F44CC0803209F45DC0EFC0803433
:101CC00009F468C048F4803309F455C0883309F03A
:101CD000E5C08093C704D8C0803509F44FC088356B
:101CE00009F45DC0883409F0D9C0D6C0883909F438
:101CF000C7C0A8F4883709F467C038F4883609F4F7
:101D000063C0803709F460C0C9C0883809F4B8C01E
:101D1000803909F45FC0803809F0C0C05BC0803BE7
:101D200009F486C038F4803A09F466C0883A09F4A8
:101D30007FC0B4C0803C09F4A7C0883C09F4A4C0AB
:101D4000883B09F48AC0AAC08091EA0410C090912F
:101D5000E9048091E804981770F5E091E90481E0C6
:101D60008E0F8093E904F0E0E853FB4F808180936D
:101D7000BB0085EC86C08093C7048EC0E091E90467
:101D800081E08E0F8093E9048091BB00F0E0E8537E
:101D9000FB4F80839091E9048091E8046EC0E0914C
:101DA000E90481E08E0F8093E9048091BB00F0E0AC
:101DB000E853FB4F80838091EC0481116DC081E07A
:101DC0008093EB0484EA61C083E08093ED04109279
:101DD000E006CFCF8091E006803208F051C0E0915C
:101DE000E00681E08E0F8093E0068091BB00F0E07A
:101DF000E054F94F8083BDCF85EC8093BC001092F6
:101E0000ED048091E006803230F4E091E006F0E0ED
:101E1000E054F94F10826091E00670E0E091BE0658
:101E2000F091BF0680EC96E019951092E00636C05E
:101E300084E08093ED041092BD061092BC06E09100
:101E4000BA06F091BB0619958091BC06811105C0B8
:101E500081E08093BC0610929A06E091BD0681E075
:101E60008E0F8093BD06F0E0E656F94F8081809397
:101E7000BB009091BD068091BC06981708F479CFFD
:101E800085E88093BC000AC085EC8093BC0010926A
:101E9000ED0404C01092C7040E94AC0CFF91EF91B6
:101EA000BF91AF919F918F917F916F915F914F9172
:101EB0003F912F910F900BBE0F900FBE0F901F9070
:101EC0001895CF93DF93282F30E0F901EA5CFA4FA1
:101ED0008491F901E051FB4FD491F901E655FB4F94
:101EE000C491CC2391F081110E94630DEC2FF0E09E
:101EF000EE0FFF1FE057FB4FA591B491EC91ED233E
:101F000081E090E021F480E002C080E090E0DF9189
:101F1000CF9108951F93CF93DF93282F30E0F901DD
:101F2000EA5CFA4F8491F901E051FB4FD491F90139
:101F3000E655FB4FC491CC23C9F0162F81110E94A6
:101F4000630DEC2FF0E0EE0FFF1FEA58FB4FA59159
:101F5000B4918FB7F894111105C09C91ED2FE095C5
:101F6000E92302C0EC91ED2BEC938FBFDF91CF9171
:101F70001F910895CF93DF9390E0FC01E051FB4F58
:101F80002491FC01E655FB4F8491882361F190E098
:101F9000880F991FFC01E45AFB4FC591D491FC01B5
:101FA000EA58FB4FA591B491611109C09FB7F8940D
:101FB0008881209582238883EC912E230BC0623088
:101FC00061F49FB7F8943881822F809583238883AA
:101FD000EC912E2B2C939FBF06C08FB7F894E8810D
:101FE0002E2B28838FBFDF91CF9108958F929F92E0
:101FF000AF92BF92CF92DF92EF92FF926B017C0182
:102000000E94B90D4B015C01C114D104E104F1043B
:10201000F1F00E94B90DDC01CB0188199909AA09D8
:10202000BB09883E9340A105B10570F321E0C21AB7
:10203000D108E108F10888EE880E83E0981EA11C03
:10204000B11CC114D104E104F10419F7DDCFFF90F4
:10205000EF90DF90CF90BF90AF909F908F900895BA
:10206000CF93DF931092E2061092E1061092EF04F4
:102070001092EE041092ED0481E08093EC04109233
:10208000EB0461E084E10E948A0F61E085E10E9437
:102090008A0F8091B9008E7F8093B9008091B9003A
:1020A0008D7F8093B90088E48093B80085E48093A5
:1020B000BC001092A4058091A905823018F098E028
:1020C0009093A4058093A70562E370E080E090E020
:1020D0000E94F60F6091AA058FE995E00E946513B2
:1020E00068EE73E080E090E00E94F60F60E38FE915
:1020F00095E00E94CA13CBE4D6E4CE010197F1F734
:1021000060E38FE995E00E94CA132197F1F760E33D
:102110008FE995E00E94CA1383E592E00197F1F7F9
:1021200060E28FE995E00E94CA136091A4056062A5
:1021300040E08FE995E00E94E31384E08093A505D9
:1021400040E06CE08FE995E00E94E31340E061E03D
:102150008FE995E00E94E313CBE3DFE1CE01019725
:10216000F1F782E08093A60540E066E08FE995E014
:102170000E94E31340E062E08FE995E00E94E313E0
:102180002197F1F7DF91CF9108952FB7F8946091DF
:1021900092067091930680919406909195062FBFB8
:1021A00008951F920F920FB60F9211242F933F9311
:1021B0008F939F93AF93BF938091920690919306D4
:1021C000A0919406B09195063091910623E0230FDB
:1021D0002D3720F40196A11DB11D05C026E8230F5F
:1021E0000296A11DB11D20939106809392069093B3
:1021F0009306A0939406B0939506809196069091CD
:102200009706A0919806B09199060196A11DB11D5F
:102210008093960690939706A0939806B09399069C
:10222000BF91AF919F918F913F912F910F900FBED2
:102230000F901F901895CF93DF93EC0161157105F6
:1022400061F0FB0101900020E9F73197AF01461BD7
:10225000570B0E94DD15811103C0CE010E940B16A1
:10226000CE01DF91CF910895FC01538D448D252F30
:1022700030E0842F90E0821B930B541710F0CF9620
:10228000089501970895FC01918D828D981761F052
:10229000828DDF01A80FB11D5D968C91928D9F5F9D
:1022A0009F73928F90E008958FEF9FEF0895FC0148
:1022B000918D828D981731F0828DE80FF11D858DFB
:1022C00090E008958FEF9FEF0895FC01918D228D8E
:1022D000892F90E0805C9F4F821B91098F73992713
:1022E00008958CEF94E00E94651121E0892B09F498
:1022F00020E0822F0895FC01848DDF01A80FB11D1D
:10230000A35ABF4F2C91848D90E001968F7399272B
:10231000848FA689B7892C93A089B1898C91806418
:102320008C93938D848D981306C00288F389E02DD9
:1023300080818F7D80830895EF92FF920F931F938A
:10234000CF93DF93EC0181E0888F9B8D8C8D981368
:1023500005C0E889F989808185FD24C0F62E0B8DA2
:1023600010E00F5F1F4F0F731127E02E8C8DE812C6
:102370000CC00FB607FCFACFE889F989808185FF88
:10238000F5CFCE010E947B11F1CF8B8DFE01E80FBE
:10239000F11DE35AFF4FF0820B8FEA89FB898081A0
:1023A000806207C0EE89FF896083E889F9898081AE
:1023B0008064808381E090E0DF91CF911F910F9145
:1023C000FF90EF900895CF93DF93EC01888D8823E1
:1023D000C9F0EA89FB89808185FD05C0A889B98992
:1023E0008C9186FD0FC00FB607FCF5CF808185FF6D
:1023F000F2CFA889B9898C9185FFEDCFCE010E94DB
:102400007B11E7CFDF91CF91089580E090E0892B99
:1024100021F00E947111811125C080E090E0892B8C
:1024200041F080E090E0892B21F00E9400008111B2
:102430001CC080E090E0892B41F080E090E0892B87
:1024400021F00E940000811113C080E090E0892BF0
:10245000A1F080E090E0892B81F00E9400008111C2
:102460000AC008950E940000D8CF0E940000E1CF6A
:102470000E940000EACF0C9400000895089580E0C7
:1024800090E00895823081F01CF4813031F020C05A
:10249000833089F08430B1F01BC061307105C9F020
:1024A0006F3F7F4FA9F417C061307105B1F06F3FE6
:1024B0007F4F71F414C06130710599F06F3F7F4F09
:1024C00039F411C06130710581F06F3F7F4F79F0B1
:1024D000089583E0089582E0089586E0089585E0F8
:1024E000089589E0089588E008958CE008958BE0D0
:1024F00008951F920F920FB60F9211240BB60F92F0
:102500002F933F934F935F936F937F938F939F93FB
:10251000AF93BF93EF93FF938CEF94E00E947B11F6
:10252000FF91EF91BF91AF919F918F917F916F91AB
:102530005F914F913F912F910F900BBE0F900FBE67
:102540000F901F9018951F920F920FB60F921124A3
:102550000BB60F922F938F939F93EF93FF93E0917E
:102560000C05F0910D058081E0911205F0911305A5
:1025700082FD12C09081809115058F5F8F7320912D
:102580001605821751F0E0911505F0E0E450FB4F7D
:10259000958F8093150501C08081FF91EF919F91E8
:1025A0008F912F910F900BBE0F900FBE0F901F9029
:1025B00018951F920F920FB60F9211240BB60F921F
:1025C0002F933F934F935F936F937F938F939F933B
:1025D000AF93BF93EF93FF9380915A0490915B0464
:1025E0008093B2008091E5069091E606A091E706FF
:1025F000B091E8060196A11DB11D8093E506909368
:10260000E606A093E706B093E8068091E506909170
:10261000E606A091E706B091E80640915E0450916D
:102620005F04609160047091610484179507A607A8
:10263000B70710F18091E40681111EC081E08093FC
:10264000E4068091E5069091E606A091E706B09138
:10265000E806841B950BA60BB70B8093E5069093B9
:10266000E606A093E706B093E806E0915C04F091DB
:102670005D0419951092E406FF91EF91BF91AF911F
:102680009F918F917F916F915F914F913F912F918A
:102690000F900BBE0F900FBE0F901F9018951092C9
:1026A000E5061092E6061092E7061092E8061092F0
:1026B000E40680915A0490915B048093B200E0E7B5
:1026C000F0E08081816080830895CF93FC01C48114
:1026D00021E02093C604C093E3061092EF04109209
:1026E000EE048385682B80EF94E00E94340D809186
:1026F000EE04813208F046C09091ED049111FCCFB8
:1027000092E09093ED0491E09093EC049FEF90930E
:10271000C7041092E9048093E804A6EAB4E028EC28
:1027200034E0F9019E2F921B981718F49D91919314
:10273000F9CF1092EA048091EA04CC0FC82BC09321
:10274000EA048091EB04813061F41092EB048091F3
:10275000EA048093BB008091BC0083FDF8CF85EC38
:1027600001C085EE8093BC008091ED048230E1F3DE
:102770008091C7048F3F31F08091C704803211F0FF
:102780008091C7041092EF041092EE041092C604D8
:10279000CF9108950F931F93CF938C01C62F0E9462
:1027A00065136C2F6460C8010E9465136C2F6B7FEA
:1027B000C8010E94651383EC90E00197F1F7CF9177
:1027C0001F910F910895FF920F931F93CF93DF9363
:1027D0001F92CDB7DEB78C01F62E962F907F692F12
:1027E000642BC80149830E94CA1380E1F89EB0019E
:1027F00011244981642BC8010F90DF91CF911F9163
:102800000F91FF900C94CA1341E00E94E31381E002
:1028100090E00895CF92DF92EF92FF921F93CF93B3
:10282000DF93CDB7DEB7A4970FB6F894DEBF0FBE27
:10283000CDBF909104029093020290910302909375
:102840000102909164049093620480930402609367
:102850000302409364040E94C51060937104709356
:102860007204809373049093740463E474E0CE0163
:1028700001960E947A17CE0101960E94C805CE01EA
:1028800001960E947F168091710490917204A0912C
:102890007304B09174048093650490936604A093CC
:1028A0006704B09368040E949B030E9446292AE0B3
:1028B00030E040E050E00E94F82C20917604C22ED7
:1028C000220FDD08EE08FF086C0D7D1D8E1D9F1D7B
:1028D0000E94482C6B017C0180916204813049F494
:1028E00020916D0430916E0440916F0450917004FA
:1028F0000AC08F3F71F42091690430916A044091BD
:102900006B0450916C04C701B6010E945C2D6B01F1
:102910007C0180910302823009F088C0809104021A
:10292000882319F08B3009F081C011E020E030E0FD
:1029300040EC50E4C701B6010E94C82E18160CF0F6
:1029400010E04091690450916A0460916B047091A9
:102950006C0422E0CE0149960E94841640916D04D9
:1029600050916E0460916F047091700422E0CE016A
:1029700043960E94841660917604062E000C770B15
:102980004AE0CE010D960E940D1722E0B701A60184
:10299000CE0107960E9484166DE474E0CE01019684
:1029A0000E947A17BE01695F7F4FCE0101960E9497
:1029B0001D1664E174E00E941B11BE01635F7F4F2E
:1029C0000E941D1664E174E00E941B11BE016D5E41
:1029D0007F4F0E941D1664E174E00E941B11BE012E
:1029E000675E7F4F0E941D16BC01CE014F960E946C
:1029F0007117CE014F960E94C805CE014F960E94D6
:102A00007F16CE0101960E947F16CE0107960E9486
:102A10007F16CE010D960E947F16CE0143960E942E
:102A20007F16CE0149960E947F1601C010E090915A
:102A300004022091030285E09802F0011124E20FC4
:102A4000F11D27FDFA95EE0FFF1FE05FFD4F80811E
:102A50008F3FF9F03FEF380F343070F4909102025D
:102A6000992311F09B30A9F460916404062E000CA8
:102A7000770B0E9442120AC086315CF0223031F49A
:102A8000992311F09B3011F4112319F061E00E9499
:102A90008A0F80910102E091020295E0E902F001C3
:102AA0001124E80FF11D87FDFA95EE0FFF1FE05F7F
:102AB000FD4F80818F3F71F09FEF980F943038F475
:102AC00060916204062E000C770B0E94421260E0B7
:102AD0000E948A0F809103028B7F11F482E00BC069
:102AE000112311F089E007C080910402882311F0BE
:102AF0008B3019F483E080937504A4960FB6F89494
:102B0000DEBF0FBECDBFDF91CF911F91FF90EF9041
:102B1000DF90CF900895CF92DF92EF92FF920F93C4
:102B20001F93CF93DF936C017A018B01C0E0D0E05B
:102B3000CE15DF0589F0D8016D918D01D601ED919B
:102B4000FC910190F081E02DC6011995892B11F4BB
:102B50007E0102C02196ECCFC701DF91CF911F917A
:102B60000F91FF90EF90DF90CF9008950F931F93F8
:102B7000CF93DF93EC0188819981009729F02A8116
:102B80003B812617370788F48B016F5F7F4F0E94C8
:102B90002A30009761F0998388831B830A832C81F4
:102BA0003D81232B11F4FC01108281E001C080E003
:102BB000DF91CF911F910F910895EF92FF920F93A4
:102BC0001F93CF93DF93FC0124813581611571053B
:102BD00011F480E019C041155105A9F07B01EC0109
:102BE0008A01020F131FB8010E94B615882389F3CA
:102BF000288139818C819D81B701820F931F0E94AA
:102C000021311D830C8381E0DF91CF911F910F91C2
:102C1000FF90EF900895CF93DF93EC018881998125
:102C2000009711F00E94922F198218821D821C8237
:102C30001B821A82DF91CF910895CF93DF93EC012D
:102C4000FB0144815581608171810E94DD158111F4
:102C500003C0CE010E940B16CE01DF91CF910895E3
:102C6000EF92FF920F931F93CF93DF93EC017B01C1
:102C70008A01BA010E94B615811104C0CE010E94DA
:102C80000B1607C01D830C83B701888199810E94B0
:102C90002131CE01DF91CF911F910F91FF90EF90E5
:102CA0000895CF93DF93EC016115710559F0FB0195
:102CB00001900020E9F73197AF01461B570B0E94A6
:102CC000301602C00E940B16CE01DF91CF910895FD
:102CD000CF93DF93EC01FB018617970761F06081CA
:102CE00071816115710529F0448155810E9430166A
:102CF00002C00E940B16CE01DF91CF910895FC0116
:102D0000808191810C94922FEF92FF920F931F93E9
:102D1000CF93DF93CDB7DEB7A1970FB6F894DEBFA0
:102D20000FBECDBF7C01CB01BA01F7011182108229
:102D3000138212821582148242E0420F8E010F5FCD
:102D40001F4F0E94D928BC01C7010E945116A196AD
:102D50000FB6F894DEBF0FBECDBFDF91CF911F91AC
:102D60000F91FF90EF9008950F931F93CF93DF93F0
:102D7000CDB7DEB7A1970FB6F894DEBF0FBECDBFBB
:102D80008C01CB01BA01F8011182108213821282E8
:102D90001582148230E0AE014F5F5F4F0E947929A7
:102DA000BE016F5F7F4FC8010E945116A1960FB6FA
:102DB000F894DEBF0FBECDBFDF91CF911F910F9171
:102DC00008950F931F93CF93DF93CDB7DEB761972D
:102DD0000FB6F894DEBF0FBECDBF8C01CB01F8015A
:102DE00011821082138212821582148250E0BE0179
:102DF0006F5F7F4F0E94A629BE016F5F7F4FC801A2
:102E00000E94511661960FB6F894DEBF0FBECDBF7B
:102E1000DF91CF911F910F9108950F931F93CF933F
:102E2000DF93CDB7DEB762970FB6F894DEBF0FBE63
:102E3000CDBF8C01CB01F801118210821382128266
:102E40001582148250E0BE016F5F7F4F0E9463299C
:102E5000BE016F5F7F4FC8010E94511662960FB688
:102E6000F894DEBF0FBECDBFDF91CF911F910F91C0
:102E70000895EF92FF920F931F93CF93DF93EC018E
:102E8000198218821B821A821D821C8261157105AB
:102E900009F18B01CB010E945A297C01BC01CE01B2
:102EA0000E94B615811109C0CE01DF91CF911F910B
:102EB0000F91FF90EF900C940B16FD82EC82B801FD
:102EC00088819981DF91CF911F910F91FF90EF90B1
:102ED0000C945329DF91CF911F910F91FF90EF90A8
:102EE0000895FC01118210821382128215821482CD
:102EF0000C946816FC0111821082138212821582D2
:102F000014826115710551F0FB0101900020E9F771
:102F10003197AF01461B570B0C94301608951F9242
:102F20000F920FB60F9211240BB60F922F933F936F
:102F30004F935F936F937F938F939F93AF93BF93C1
:102F4000EF93FF938091EC069091ED06A091EE0631
:102F5000B091EF06892B8A2B8B2B59F18091EB06D0
:102F6000E091E906F091EA069081892780838091BB
:102F7000EC069091ED06A091EE06B091EF061816C2
:102F800019061A061B060CF056C08091EC069091AB
:102F9000ED06A091EE06B091EF060197A109B109E7
:102FA0008093EC069093ED06A093EE06B093EF06A7
:102FB00042C080910502ECE7F5E0E4919FEF909329
:102FC0000502E230C9F050F4EE2399F0E13081F5CA
:102FD00090916F009D7F90936F002AC0E43019F1AB
:102FE000E0F0E53029F5909173009D7F9093730098
:102FF0001FC010926E001CC0909170009D7F909336
:10300000700091E09093B0009091B100987F94602F
:103010009093B1001092B3000BC0909171009D7F0E
:103020009093710005C0909172009D7F9093720003
:1030300060E00E948A0FFF91EF91BF91AF919F9145
:103040008F917F916F915F914F913F912F910F9051
:103050000BBE0F900FBE0F901F901895DC01ED91E5
:10306000FC91DB0114964D915C9115976D917C91CB
:103070000280F381E02D1994CF93DF93CDB7DEB7B3
:10308000A1970FB6F894DEBF0FBECDBF789484B57C
:10309000826084BD84B5816084BD85B5826085BD54
:1030A00085B5816085BD80916E00816080936E00E2
:1030B00010928100809181008260809381008091D4
:1030C0008100816080938100809180008160809385
:1030D00080008091B10084608093B1008091B00045
:1030E00081608093B0008091910082608093910014
:1030F0008091910081608093910080919000816027
:10310000809390008091A10082608093A1008091C3
:10311000A10081608093A1008091A00081608093D4
:10312000A000809121018260809321018091210182
:103130008160809321018091200181608093200132
:1031400080917A00846080937A0080917A00826016
:1031500080937A0080917A00816080937A008091D8
:103160007A00806880937A001092C1008AE090E033
:10317000A0E0B0E080935E0490935F04A0936004AD
:10318000B093610481EF96E090935D0480935C04BA
:10319000809170008E7F809370008091B0008C7F52
:1031A0008093B0008091B100877F8093B1008091BF
:1031B000B6008F7D8093B600809170008D7F8093E4
:1031C00070008091B10084608093B1008091B10063
:1031D0008C7F8093B10086E090E090935B048093B5
:1031E0005A040E944F130E94C5106093710470939B
:1031F00072048093730490937404609365047093D5
:103200006604809367049093680480917B008860D3
:1032100080937B0086E480937C0080917A008064B8
:1032200080937A0080917A0086FDFCCF60917800CF
:103230008091790070E0782B072E000C880B990B99
:10324000611571058105910511F00E944A2962E01E
:103250008FE20E94BA0F62E080E30E94BA0F62E040
:1032600081E30E94BA0F8FE20E94610F21E0892B57
:1032700009F020E0209300020E94301088E0809343
:10328000AA0560E08FE995E00E94651316E161E010
:10329000812F0E94BA0F1F5F1E32C9F712E061E052
:1032A000812F0E94BA0F1F5F1E30C9F7E0910C05F5
:1032B000F0910D0582E08083E0910805F091090509
:1032C0001082E0910A05F0910B058FEC808310923B
:1032D0001405E0911005F091110586E08083E091DE
:1032E0000E05F0910F05808180618083E0910E05CD
:1032F000F0910F05808188608083E0910E05F09148
:103300000F05808180688083E0910E05F0910F05A4
:1033100080818F7D80830E94462927E030E040E055
:1033200050E00E94F82CDC01CB010397A109B10900
:103330008093760480E30E94610F892B19F487EE55
:103340008093750480917504082E000C990BAA0BCC
:10335000BB0B8A30910510F00C942525FC018827C1
:10336000EE58FF4F8F4F0C94E12E8FEF8093750432
:103370000E94301068EB7BE080EC92E00E94B20388
:1033800068EC72E0CE0101960E947A17CE01019698
:103390000E94C805CE0101960E947F1680E00E941F
:1033A000010E84EC93E00E94E00D81E00E94010E8A
:1033B00083EB93E00E94E00D0E949B0380917104D7
:1033C00090917204A0917304B091740440916504CB
:1033D000509166046091670470916804841B950B9A
:1033E000A60BB70B20917B06211124C02091640607
:1033F000211120C020914D0621111CC020913606BC
:10340000211118C020911F06211114C02091080617
:10341000211110C02091F10521110CC02091DA0575
:10342000211108C02091C305211104C02091AC05D1
:103430002223C1F2803325E79207A105B10590F65A
:103440000E949B0364EA73E0CE0101960E94391743
:10345000CE0101960E94C805CE0101960E947F16FA
:1034600080E00E94010E83E993E00E94E00D81E07C
:103470000E94010E82E893E00E94E00D0E9446291E
:1034800024E833E040E050E00E94F82C4B015C015E
:1034900054E6850E911CA11CB11CC12CD12C7601C7
:1034A000C601880D991D18161906C4F50E94C5108D
:1034B0006093710470937204809373049093740406
:1034C00012E061E0812F0E948A0F1F5F1E30C9F752
:1034D00026013701480C591C6A1C7B1CC301B20130
:1034E0000E94F60F12E060E0812F0E948A0F1F5F9A
:1034F0001E30C9F7C301B2010E94F60F80917B060E
:1035000081110C9459258091080634E6C31AD1081C
:10351000E108F108882321F20C9459256FE173E04A
:10352000CE0101960E943917CE0101960E94C8056E
:10353000CE0101960E947F1680E00E94010E8EE06F
:1035400093E00E94E00D81E00E94010E8DEF92E079
:103550000E94E00D68EE73E086EF92E00E94B203F5
:103560000E94C51060937104709372048093730479
:103570009093740480917B0681110C944026809175
:103580000806882369F30C94402681E00E94010E0E
:1035900060918004062E000C770B4AE0CE01019664
:1035A0000E940D1760918104062E000C770B4AE0F3
:1035B000CE010A960E940D1766E173E0CE01409697
:1035C0000E947A17BE01665F7F4FCE0140960E942F
:1035D0001D166BE173E00E941B11BE016F5F7F4FF0
:1035E0000E941D166FEC73E00E941B11BC018FE955
:1035F00095E00E942E18CE0140960E947F16CE01C3
:103600000A960E947F16CE0101960E947F160E94A4
:10361000C510609371047093720480937304909347
:103620007404C0907C04D0907D04E0907E04F090FF
:103630007F04009178041091790420917A043091EC
:103640007B04C114D104E104F104A9F04B015C0135
:103650008C189D08AE08BF0840E284164FEB940614
:1036600042E0A406B10438F0011511052105310529
:1036700011F485E014C0011511052105310599F0FB
:103680004B015C01801A910AA20AB30A40E2841637
:103690004FEB940642E0A406B10428F086E0809344
:1036A00075040C94B7254091820400916504109133
:1036B00066042091670430916804DC01CB01801B13
:1036C000910BA20BB30B411108C080319742A105A9
:1036D000B10508F45CC084E0E2CF30910302209190
:1036E0000402843F41E09407A105B10510F1323096
:1036F000A9F540910202042E000C550BE22FEE0FAB
:10370000FF0BCF01841B950BE417F50719F08B30E5
:10371000910521F540916404042E000C550B209175
:10372000010264E070E0621B710927FD73950C943F
:1037300002278C329140A105B10580F485E0280272
:10374000F0011124E30FF11D37FDFA95EE0FFF1F75
:10375000E05FFD4F80818F3F09F04CC040916404D1
:10376000042E000C550B632F660F770B809101021E
:10377000681B710987FD7395822F880F990B209123
:103780000202821B910927FD93950C940227109148
:1037900064041130B1F48091360681110C949E2698
:1037A00080914D0681110C948126809164068111CF
:1037B0000C948F2680911F0681110C9479260C940D
:1037C000B7251F3F09F028C18091C30581110C94D2
:1037D000B8268091DA0581110C94C6268091F105F6
:1037E00081110C94D4268091AC0581110C94B026E3
:1037F0000C94B7258181813009F00EC1809163045A
:1038000081110AC180917B06882309F405C180914A
:1038100062048130C9F5809164048130A9F58091FA
:103820000102C0906D04D0906E04E0906F04F0909F
:103830007004381779F020E030E040E450E4C7012C
:10384000B6010E94412C87FF05C020E030E040E82F
:103850005FE30EC020E030E040E450E4C701B60171
:103860000E94412C87FF10C020E030E040E05FE381
:10387000C701B6010E945C2D60936D0470936E04C5
:1038800080936F04909370040E944629C0906D0449
:10389000D0906E04E0906F04F090700480908406E5
:1038A00090908506A0908606B09087062AE030E0CA
:1038B00040E050E00E94F82C20917604022F220F65
:1038C000110B220B330B600F711F821F931F0E947D
:1038D000482CA70196010E945C2D2B013C01809190
:1038E000710490917204A0917304B09174040091DA
:1038F0006504109166042091670430916804BC014E
:10390000CD01601B710B820B930B0E94462C20E0B3
:1039100030E048EC52E40E94DF2D20E030E040E04F
:1039200050E40E945B2D9B01AC01C301B2010E94D7
:103930005B2DA50194010E945B2D4B015C0122E0EF
:10394000B701A601CE010A960E94841680917604E2
:10395000682F880F770B4AE0CE0140960E940D1722
:1039600022E0B501A401CE0146960E94841663E2CE
:1039700073E0CE014C960E947A17BE016A5E7F4FBB
:10398000CE014C960E941D1664E174E00E941B114A
:10399000BE01605F7F4F0E941D1664E174E00E94CB
:1039A0001B11BE01665F7F4F0E941D1664E174E02B
:1039B0000E941B11BC01CE0101960E947117CE011D
:1039C00001960E94C805CE0101960E947F16CE0185
:1039D0004C960E947F16CE0146960E947F16CE011D
:1039E00040960E947F16CE010A960E947F1620E024
:1039F00030E040E850E4C501B4010E94C82E18161A
:103A000044F40E949B031092820481E0809363043B
:103A100028C181E08093630480918204882311F49B
:103A20000C94B72580910302E091040295E0E9022D
:103A3000F0011124E80FF11D87FDFA95EE0FFF1F2D
:103A4000E05FFD4F91819F3F11F00C94B72590915D
:103A5000630491110C94B72590910806992311F4F1
:103A60000C94B725909162049F3FC9F5909164042E
:103A70009F3FA9F590910102C0906904D0906A041B
:103A8000E0906B04F0906C04891779F020E030E04E
:103A900040E450E4C701B6010E94412C87FF05C0F5
:103AA00020E030E040E85FE30EC020E030E040E49A
:103AB00050E4C701B6010E94412C87FF10C020E0EE
:103AC00030E040E05FE3C701B6010E945C2D6093E7
:103AD000690470936A0480936B0490936C040E9451
:103AE0004629C0906904D0906A04E0906B04F0907D
:103AF0006C048090110690901206A0901306B0906E
:103B000014062AE030E040E050E00E94F82C2091BA
:103B10007604022F220F110B220B330B600F711F43
:103B2000821F931F0E94482CA70196010E945C2DC2
:103B30002B013C018091710490917204A091730457
:103B4000B09174040091650410916604209167049B
:103B500030916804BC01CD01601B710B820B930B8B
:103B60000E94462C20E030E048EC52E40E94DF2D19
:103B700020E030E040E050E40E945B2D9B01AC016E
:103B8000C301B2010E945B2DA50194010E945B2D2F
:103B90004B015C0122E0B701A601CE010A960E940A
:103BA000841680917604682F880F770B4AE0CE0147
:103BB00040960E940D1722E0B501A401CE01469661
:103BC0000E94841662E373E0CE014C960E947A173D
:103BD000BE016A5E7F4FCE014C960E941D1664E1C5
:103BE00074E00E941B11BE01605F7F4F0E941D1692
:103BF00064E174E00E941B11BE01665F7F4F0E946A
:103C00001D1664E174E00E941B11BC01CE010196F7
:103C10000E947117CE0101960E94C805CE0101963F
:103C20000E947F16CE014C960E947F16CE014696CA
:103C30000E947F16CE0140960E947F16CE010A9602
:103C40000E947F1620E030E040E850E4C501B40156
:103C50000E94C82E181644F40E949B0310928204FE
:103C60008FEF8093640483C781E0809363047FC7F0
:103C70000E94C51060937104709372048093730462
:103C8000909374046FE373E0CE0101960E947A175B
:103C9000CE0101960E94C805CE0101960E947F16B2
:103CA0006AEF70E086EF92E00E94B20380917104A7
:103CB00090917204A0917304B09174048093650490
:103CC00090936604A0936704B09368040E949B03DA
:103CD0001092820481E08093750490916404809135
:103CE000030261E0913009F058C0811126C089E0DB
:103CF0000E948A0F61E08CE00E948A0F64EF71E0FD
:103D000080E090E00E94F60F60E089E00E948A0F58
:103D100060E08CE00E948A0F809104029FEF980F70
:103D2000933028F44FEF5FEF61E070E025C08450DE
:103D30004FEF5FEF61E070E028C083E00E948A0FE0
:103D400061E086E00E948A0F64EF71E080E090E01D
:103D50000E94F60F60E083E00E948A0F60E086E038
:103D60000E948A0F809104029FEF980F933040F4D5
:103D70004FEF5FEF63E070E082E090E00C94022789
:103D800084504FEF5FEF63E070E0833010F40C94E9
:103D9000002788E090E00C940227811126C088E07B
:103DA0000E948A0F61E08BE00E948A0F64EF71E04D
:103DB00080E090E00E94F60F60E088E00E948A0FA9
:103DC00060E08BE00E948A0F8091040298EF980FC8
:103DD000933028F441E050E061E070E025C0855068
:103DE00041E050E061E070E027C082E00E948A0F6D
:103DF00061E085E00E948A0F64EF71E080E090E06E
:103E00000E94F60F60E082E00E948A0F60E085E089
:103E10000E948A0F8091040298EF980F933038F433
:103E200041E050E063E070E089E090E0EBC785504E
:103E300041E050E063E070E0833018F487E090E008
:103E4000E1C783E090E0DEC70E94C5106093710473
:103E50007093720480937304909374046EEE72E016
:103E600086EF92E00E94B2030E949B0310928204AC
:103E700010926D0410926E0410926F0410927004F0
:103E80001092690410926A0410926B0410926C04F0
:103E900081E08093750480E00E94010E809104020D
:103EA0006091800481118EC06F5F60938004062E44
:103EB000000C770B4AE0CE010A960E940D17609124
:103EC0008104062E000C770B4AE0CE0140960E943A
:103ED0000D176BE473E0CE0146960E947A17BE017F
:103EE000605F7F4FCE0146960E941D1664E174E02C
:103EF0000E941B11BE01665F7F4F0E941D1663E189
:103F000074E00E941B11BC01CE0101960E94711742
:103F1000CE0101960E94C805CE0101960E947F162F
:103F2000CE0146960E947F16CE0140960E947F16D3
:103F3000CE010A960E947F1660918004062E000C26
:103F4000770B4AE0CE0101960E940D176091810423
:103F5000062E000C770B4AE0CE010A960E940D1740
:103F600066E573E0CE0140960E947A17BE01665F57
:103F70007F4FCE0140960E941D1661ED73E00E94B6
:103F80001B11BE016F5F7F4F0E941D1660ED73E035
:103F90000E941B11BC018FE995E00E942E18CE01F2
:103FA00040960E947F16CE010A960E947F16CE018F
:103FB00001960E947F1641E050E062E070E085E0EB
:103FC00090E08FC0809181048F5F80938104062EE2
:103FD000000C770B4AE0CE010A960E940D17609103
:103FE0008104062E000C770B4AE0CE0140960E9419
:103FF0000D1761E673E0CE0146960E947A17BE0166
:10400000605F7F4FCE0146960E941D1664E174E00A
:104010000E941B11BE01665F7F4F0E941D1663E167
:1040200074E00E941B11BC01CE0101960E94711721
:10403000CE0101960E94C805CE0101960E947F160E
:10404000CE0146960E947F16CE0140960E947F16B2
:10405000CE010A960E947F1660918004062E000C05
:10406000770B4AE0CE0101960E940D176091810402
:10407000062E000C770B4AE0CE010A960E940D171F
:104080006EE673E0CE0140960E947A17BE01665F2D
:104090007F4FCE0140960E941D1661ED73E00E9495
:1040A0001B11BE016F5F7F4F0E941D1660ED73E014
:1040B0000E941B11BC018FE995E00E942E18CE01D1
:1040C00040960E947F16CE010A960E947F16CE016E
:1040D00001960E947F164FEF5FEF62E070E086E08E
:1040E00090E00E940A148091710490917204A09152
:1040F0007304B09174048093650490936604A09354
:104100006704B093680433C50E94C51060937104BE
:1041100070937204809373049093740469E773E05E
:10412000CE0101960E947A17CE0101960E94C80521
:10413000CE0101960E947F166AEF70E086EF92E052
:104140000E94B2038091710490917204A091730453
:10415000B09174048093650490936604A0936704FF
:10416000B09368040E949B031092820410926D0425
:1041700010926E0410926F041092700410926904F1
:1041800010926A0410926B0410926C0481E0809388
:1041900075049091640480910402913009F04EC03E
:1041A0008B30D9F461E086E00E948A0F61E08CE0F8
:1041B0000E948A0F64EF71E080E090E00E94F60FA9
:1041C00060E086E00E948A0F60E08CE00E948A0F27
:1041D0004FEF5FEF62E070E010C68111C8C461E08C
:1041E00083E00E948A0F61E089E00E948A0F64EFF9
:1041F00071E080E090E00E94F60F60E083E00E94B2
:104200008A0F60E089E00E948A0F809103029DEF8F
:10421000980F923008F4DCC5823009F0DEC50E94A8
:10422000462922E030E040E050E00E94F82C613066
:1042300071058105910509F4CBC5CFC581111BC05E
:1042400061E082E00E948A0F61E088E00E948A0FAC
:1042500064EF71E080E090E00E94F60F60E082E0A1
:104260000E948A0F60E088E00E948A0F41E050E0DF
:1042700062E070E0B6C58B3009F079C461E085E09A
:104280000E948A0F61E08BE00E948A0F64EF71E068
:1042900080E090E00E94F60F60E085E00E948A0FC7
:1042A00060E08BE00E948A0F809103029DEF980FDF
:1042B000923008F499C5823009F09BC50E944629C6
:1042C00022E030E040E050E00E94F82C61307105BF
:1042D0008105910509F488C58CC50E94C5106093BD
:1042E000710470937204809373049093740466E86D
:1042F00073E0CE0101960E947A17CE0101960E94CA
:10430000C805CE0101960E947F1680E00E94010E32
:1043100085ED93E00E94E00D6AEF70E086EF92E099
:104320000E94B2038091710490917204A091730471
:10433000B09174048093650490936604A09367041D
:10434000B09368040E949B031092820410926D0443
:1043500010926E0410926F0410927004109269040F
:1043600010926A0410926B0410926C0481E08093A6
:10437000750480916404813039F44FEF5FEF62E09F
:1043800070E086E090E03EC58F3F09F0F0C341E069
:1043900050E062E070E085E090E034C568EE73E0E4
:1043A00086EF92E00E94B2030E94C51060937104F0
:1043B00070937204809373049093740460917704F3
:1043C000062E000C770B4AE0CE010A960E940D17CC
:1043D00062E973E0CE0140960E947A17BE01665FE3
:1043E0007F4FCE0140960E941D1662E174E00E944C
:1043F0001B11BC01CE0101960E947117CE010196DE
:104400000E94C805CE0101960E947F16CE014096FB
:104410000E947F16CE010A960E947F1680E00E94BD
:10442000010E86EE93E00E94E00D81E00E94010EF5
:1044300040E150E06BE973E08FE995E00E948B1555
:104440000E949B031092820410926D0410926E04DD
:1044500010926F04109270041092690410926A0412
:1044600010926B0410926C0481E08093750480912B
:104470007704813039F041E050E062E070E085E09F
:1044800090E006C04FEF5FEF62E070E086E090E002
:104490000E940A1480917B0681112FC080916406CE
:1044A00081112BC080914D06811127C08091360665
:1044B000811123C080911F0681111FC080910806C1
:1044C00081111BC08091F105811117C08091DA051F
:1044D000811113C08091C30581110FC08091AC057B
:1044E00081110BC00E94C510609371047093720417
:1044F0008093730490937404CDCFC0907104D090D6
:104500007204E0907304F0907404809165049091BB
:104510006604A0916704B091680446015701881AA7
:10452000990AAA0ABB0A20E3821625E79206A1048B
:10453000B104C0F66AEF70E086EF92E00E94B20329
:104540000E94C510609378047093790480937A0474
:1045500090937B04C0926504D0926604E092670455
:10456000F092680404C30E94C510609371047093B4
:104570007204809373049093740468EE73E086EF82
:1045800092E00E94B2030E949B0310928204109258
:104590006D0410926E0410926F04109270041092C9
:1045A000690410926A0410926B0410926C046CEA15
:1045B00073E0CE0101960E947A17CE0101960E9407
:1045C000C805CE0101960E947F16909181048091CA
:1045D000800489170CF060C080E00E94010E8CE41A
:1045E00094E00E94E00D81E00E94010E6091800441
:1045F000062E000C770B4AE0CE0101960E940D17A3
:1046000060918104062E000C770B4AE0CE010A96D9
:104610000E940D1766E173E0CE0140960E947A1762
:10462000BE01665F7F4FCE0140960E941D166BE172
:1046300073E00E941B11BE016F5F7F4F0E941D1629
:1046400061ED73E00E941B11BC018FE995E00E94AF
:104650002E18CE0140960E947F16CE010A960E9427
:104660007F16CE0101960E947F1660918004062E6F
:10467000000C770B4AE0CE010A960E940D1760915C
:104680008104062E000C770B4AE0CE0140960E9472
:104690000D1762E073E0C2C098170CF060C080E0B4
:1046A0000E94010E8BE394E00E94E00D81E00E94E5
:1046B000010E60918004062E000C770B4AE0CE01BB
:1046C00001960E940D1760918104062E000C770B55
:1046D0004AE0CE010A960E940D1766E173E0CE0112
:1046E00040960E947A17BE01665F7F4FCE014096CA
:1046F0000E941D166BE173E00E941B11BE016F5FEB
:104700007F4F0E941D1661ED73E00E941B11BC01DA
:104710008FE995E00E942E18CE0140960E947F16E8
:10472000CE010A960E947F16CE0101960E947F1646
:1047300060918004062E000C770B4AE0CE010A96A9
:104740000E940D1760918104062E000C770B4AE041
:10475000CE0140960E940D176DE073E05FC080E0CF
:104760000E94010E8AE294E00E94E00D81E00E9426
:10477000010E60918004062E000C770B4AE0CE01FA
:1047800001960E940D1760918104062E000C770B94
:104790004AE0CE010A960E940D1766E173E0CE0151
:1047A00040960E947A17BE01665F7F4FCE01409609
:1047B0000E941D166BE173E00E941B11BE016F5F2A
:1047C0007F4F0E941D1661ED73E00E941B11BC011A
:1047D0008FE995E00E942E18CE0140960E947F1628
:1047E000CE010A960E947F16CE0101960E947F1686
:1047F00060918004062E000C770B4AE0CE010A96E9
:104800000E940D1760918104062E000C770B4AE080
:10481000CE0140960E940D1769EB73E0CE014696DB
:104820000E947A17BE01605F7F4FCE0146960E94BC
:104830001D1664E174E00E941B11BE01665F7F4F8C
:104840000E941D1663E174E00E941B11BC01CE01A1
:1048500001960E947117CE0101960E94C805CE01F3
:1048600001960E947F16CE0146960E947F16CE01C9
:1048700040960E947F16CE010A960E947F1668E538
:104880007BE180E090E00E94F60F80E00E94010E44
:1048900089E194E00E94E00D81E00E94010E6091A8
:1048A0008004062E000C770B4AE0CE0101960E9490
:1048B0000D1760918104062E000C770B4AE0CE01A3
:1048C0000A960E940D1766E173E0CE0140960E94A1
:1048D0007A17BE01665F7F4FCE0140960E941D167B
:1048E0006BE173E00E941B11BE016F5F7F4F0E945E
:1048F0001D1661ED73E00E941B11BC018FE995E06C
:104900000E942E18CE0140960E947F16CE010A9674
:104910000E947F16CE0101960E947F16809171043D
:1049200090917204A0917304B09174048093650413
:1049300090936604A0936704B093680468EB7BE0EF
:1049400080E090E00E94F60F80E00E94010E88E077
:1049500094E00E94E00D81E00E94010E87EF93E059
:104960000E94E00D80917B0681112FC0809164062A
:1049700081112BC080914D06811127C08091360690
:10498000811123C080911F0681111FC080910806EC
:1049900081111BC08091F105811117C08091DA054A
:1049A000811113C08091C30581110FC08091AC05A6
:1049B00081110BC00E94C510609371047093720442
:1049C0008093730490937404CDCF8091710490917F
:1049D0007204A0917304B0917404409165045091E5
:1049E00066046091670470916804841B950BA60BA4
:1049F000B70B80339547A105B105E0F61092750419
:104A00001092710410927204109273041092740444
:104A10001092650410926604109267041092680464
:104A200010927C0410927D0410927E0410927F04F8
:104A3000109278041092790410927A0410927B04F8
:104A400040E050E061E070E0DBC10E949B0330E198
:104A5000A32E32E0B32EE12CF12C00E010E0809187
:104A60007B06811116C380916406811112C3809167
:104A70004D0681110EC38091360681110AC38091C3
:104A80001F06811106C380910806811102C380911F
:104A9000F1058111FEC28091DA058111FAC280917F
:104AA000C3058111F6C28091AC05882309F4ADC11C
:104AB000F0C280917B0681115EC080910806882338
:104AC00009F474C080E00E94010E80E693E00E9429
:104AD000E00D81E00E94010E8FE493E00E94E00D62
:104AE00060917704062E000C770B4AE0CE010A96FF
:104AF0000E940D1764ED72E0CE0140960E947A1775
:104B0000BE01665F7F4FCE0140960E941D1662E196
:104B100074E00E941B11BC01CE0101960E94711726
:104B2000CE0101960E94C805CE0101960E947F1613
:104B3000CE0140960E947F16CE010A960E947F16F3
:104B400011E01093750441E050E062E070E085E010
:104B500090E00E940A14109377040E94C51060939D
:104B60007C0470937D0480937E0490937F040E9464
:104B700005120C948B1980910806882309F49DCFA7
:104B800080E00E94010E81E793E00E94E00D69ED54
:104B900073E0CE0101960E947A17CE0101960E9421
:104BA000C805CE0101960E947F16D7CF80917B0663
:104BB000882399F280E00E94010E8EE393E00E9428
:104BC000E00D81E00E94010E8DE293E00E94E00D75
:104BD00060917704062E000C770B4AE0CE010A960E
:104BE0000E940D1764EE72E018C0809108068823B9
:104BF00009F4B3CF80E00E94010E8AEC92E00E949B
:104C0000E00D60917704062E000C770B4AE0CE0190
:104C10000A960E940D176DE073E0CE0140960E9447
:104C20007A17BE01665F7F4FCE0140960E941D1627
:104C300062E174E00E941B11BC01CE0101960E944A
:104C40007117CE0101960E94C805CE0101960E94FF
:104C50007F16CE0140960E947F16CE010A960E94D2
:104C60007F1681E0809375044FEF5FEF62E070E0A4
:104C700086E090E00E940A148FEF809377046DCF56
:104C800080917B068823E1F0809108068823C1F09B
:104C900080E00E94010E8CEE92E00E94E00D6DEE2D
:104CA00073E0CE0101960E947A17CE0101960E9410
:104CB000C805CE0101960E947F16109275044DCF53
:104CC00080917B06882309F490CF80E00E94010E3A
:104CD0008BED92E00E94E00D60917704062E000CAF
:104CE000770B4AE0CE010A960E940D1762E073E04E
:104CF00003CF60910302062E000C770B6F5F7F4F8E
:104D000015C060910302062E000C770B80910402FF
:104D1000082E000C990B41E050E001971CC06091F7
:104D20000302062E000C770B61507109809104027A
:104D300041E050E0082E000C990B0DC06091030279
:104D4000062E000C770B80910402082E000C990BA4
:104D500041E050E001960E940A141093820407CFAC
:104D600060910302062E000C770B6150710923C07D
:104D700060910302062E000C770B80910402082E2E
:104D8000000C990B4FEF5FEF01971CC0609103027D
:104D9000062E000C770B80910402082E000C990B54
:104DA0004FEF5FEF01960EC060910302062E000CDC
:104DB000770B6F5F7F4F809104024FEF5FEF082EFC
:104DC000000C990B0E940A1481E080938204CFCEDC
:104DD0004FEF5FEF63E070E004C04FEF5FEF61E023
:104DE00070E081E090E00EC041E050E063E070E0F0
:104DF00004C041E050E061E070E08AE090E002C071
:104E000084E090E00E940A14B2CEF801EE0FFF1F7A
:104E1000EA0DFB1DD0808FEF8D0D843008F08FC020
:104E20008D2D42E0D49E800D11249DEF792E780EB9
:104E300022E0C22ED12C872C912C80E00E94010E02
:104E40004AE0B801CE0101960E940D174AE0B70171
:104E5000CE010A960E940D1763EC73E0CE014096D6
:104E60000E947A17BE01665F7F4FCE0140960E9476
:104E70001D1668EC73E00E941B11BE016F5F7F4F2F
:104E80000E941D166BEC73E00E941B11BC018FE9A0
:104E900095E00E942E18CE0140960E947F16CE010A
:104EA0000A960E947F16CE0101960E947F1681E02D
:104EB0000E94010EB601680D791D4AE0CE010196EF
:104EC0000E940D1763ED73E0CE010A960E947A17D7
:104ED000BE016F5F7F4FCE010A960E941D166BECDC
:104EE00073E00E941B11BC018FE995E00E942E180F
:104EF000CE010A960E947F16CE0101960E947F166F
:104F0000672C6C0C61E0862D0E948A0F68EE73E0BE
:104F100080E090E00E94F60F60E0862D0E948A0FEC
:104F200068EE73E080E090E00E94F60F5FEFC51A34
:104F3000D50A85E0C816D10409F07FCF98C09FEF4D
:104F4000D91609F494C080E00E94010E1B861A86CF
:104F50001D861C861F861E864AE0BE016F5F7F4F3E
:104F6000C8010E94B129BE016F5F7F4FCE010A9632
:104F70000E945116198A188A1B8A1A8A1D8A1C8A4D
:104F80004AE0BE016F5F7F4FC7010E94B129BE0199
:104F90006F5F7F4FCE0140960E94511663EC73E025
:104FA000CE0101960E947A17BE01605F7F4FCE014D
:104FB00001960E941D1668EC73E00E941B11BE0151
:104FC000665F7F4F0E941D166BEC73E00E941B1101
:104FD000BC018FE995E00E942E18CE0101960E9437
:104FE0007F16CE0140960E947F16CE010A960E943F
:104FF0007F1681E00E94010E6D2D0D2C000C770BA9
:105000004AE0CE0101960E940D1763ED73E0CE01D8
:105010000A960E947A17BE016F5F7F4FCE010A96F3
:105020000E941D166BEC73E00E941B11BC018FE9FE
:1050300095E00E942E18CE010A960E947F16CE019E
:1050400001960E947F1661E08D2D0E948A0F68EE06
:1050500073E080E090E00E94F60F60E08D2D0E94EA
:105060008A0F68EE73E080E090E00E94F60F0F5F19
:105070001F4F0530110509F0F2CC2FEFE21AF20AAA
:105080003AE0A30EB11C4AE0E416F10409F0E5CCC5
:105090006ECD109275046BCDE0EFF4E013821282B6
:1050A00088EE93E0A0E0B0E084839583A683B78385
:1050B00024E932E031832083ECEFF4E013821282A2
:1050C00084839583A683B78386EA92E09183808365
:1050D00085EC90E09587848784EC90E097878687BD
:1050E00080EC90E0918B808B81EC90E0938B828BB5
:1050F00082EC90E0958B848B86EC90E0978B868B8E
:10510000118E128E138E148E43E066E38AE796E0CA
:105110000E94930C43E067E383E696E00E94930CC1
:1051200043E068E38CE496E00E94930C43E069E37B
:1051300085E396E00E94930C43E06AE38EE196E0FB
:105140000E94930C43E06BE387E096E00E94930C8F
:1051500043E06CE380EF95E00E94930C43E06DE345
:1051600089ED95E00E94930C43E06EE382EC95E0BC
:105170000E94930C43E06FE38BEA95E00E94930C4E
:10518000EFE9F5E01382128288EB92E0918380834D
:105190008FE3848380E1818782E08287138663E0E6
:1051A00074E089E995E00C947A1789E995E00C940C
:1051B0007F16EF920F931F93CF93DF93E80147FD84
:1051C00002C034E001C034E1E42F440FFF0BF7FFCD
:1051D00003C0F195E195F109E32E022F2E2FAE01C8
:1051E0000E94CB29CE01DF91CF911F910F91EF90BB
:1051F00008958F929F92AF92BF92CF92DF92EF92DB
:10520000FF92CF93DF93EC01688179818A819B8142
:10521000611571058105910521F464E279ED8BE555
:1052200097E02DE133EF41E050E00E94F82C490176
:105230005A019B01AC01A7EAB1E40E94172D6B0152
:105240007C01ACEEB4EFA50194010E94252DDC0198
:10525000CB018C0D9D1DAE1DBF1DB7FF03C0019777
:10526000A109B04888839983AA83BB83BC01CD017F
:105270009F77DF91CF91FF90EF90DF90CF90BF901D
:10528000AF909F908F9008950C94F92886E092E05B
:105290000C94F92860930602709307028093080229
:1052A000909309020895FB01DC0105900D92002006
:1052B000E1F70895FC0105900020E9F780959095AD
:1052C0008E0F9F1F08954532510520F4423010F093
:1052D0000C946E29FB011082CB010895BB274A3044
:1052E00031F4992322F4BDE2909581959F4F0C945F
:1052F000B2292532310520F4223010F00C94842993
:10530000FA011082CA010895BB27FA01A62F62177D
:10531000710581059105330B30FB66F0AA27660FF6
:10532000771F881F991FAA1FA21710F0A21B639551
:105330003850A9F7A05DAA3308F0A95DA19336F70C
:10534000B111B1931082CA010C94312C4532510530
:1053500020F4423010F00C94B129FB011082CB01F3
:105360000895BB27FB015527AA27880F991FAA1F5D
:10537000A41710F0A41B83955051B9F7A05DAA3370
:1053800008F0A95DA193009779F7B111B19311923B
:10539000CB010C94312C4F925F926F927F929F922F
:1053A000AF92BF92CF92DF92EF92FF920F931F9333
:1053B000CF93DF93CDB7DEB729970FB6F894DEBF52
:1053C0000FBECDBF6A01122FB02E2BE3201720F0A5
:1053D000FF24F394F00E02C0BCE3FB2E0F2D27E058
:1053E000AE014F5F5F4F0E94592BAC018981982F0E
:1053F0009970913031F0E1FC06C0E0FE06C090E209
:1054000005C09DE203C09BE201C090E0EE2DE0717B
:1054100083FF3CC0911102C083E001C084E081178A
:1054200018F4212F281B01C020E0E1110BC0F60168
:10543000822F30E2882319F031938150FBCFC20EC6
:10544000D11C20E0992329F0D6019C93F6013196D6
:105450006F01C6010396E2FE0AC03EE4D6013C930A
:1054600041E411964C93119712963C9306C03EE688
:10547000F601308341E641833283FC01322F40E262
:10548000332309F442C041933150FACF82FF44C024
:10549000911102C083E001C084E0811718F4212F2C
:1054A000281B01C020E0E1110BC0F601822F30E281
:1054B000882319F031938150FBCFC20ED11C20E01C
:1054C000992329F0D6019C93F60131966F01C6010C
:1054D0000396E2FE0BC039E4D6013C933EE41196FC
:1054E0003C93119736E412963C9307C039E6F601D7
:1054F00030833EE6318336E63283FC01322F40E2D0
:10550000332319F041933150FBCFFC01E20FF11D21
:1055100010828EEF9FEFB7C0F1E0911101C0F0E073
:105520006F2F70E01416150624F49A012F5F3F4F79
:1055300002C021E030E0260F371FBB2029F06B2D81
:1055400070E06F5F7F4F02C060E070E0260F371F92
:10555000612F70E0261737071CF4121B212F01C0A2
:1055600020E03E2D387159F4D601322F60E233230A
:1055700019F06D933150FBCFC20ED11C20E0FF23F8
:1055800031F0D6019C93B6016F5F7F4F6B01E11143
:105590000BC0F601922F30E3992319F0319391500B
:1055A000FBCFC20ED11C20E09F2D940F3A81782FA3
:1055B0007071A72E84FF03C0313309F4915019167E
:1055C00024F4993018F098E001C091E0E42F852F81
:1055D00057FF02C0E0E080E06E2F782FE0E0F0E0BF
:1055E000AEE29A2E3A01691A71082A01461A570A40
:1055F0000B2D10E01195019511096F3F8FEF780782
:1056000029F4D6019C92C60101966C0146175707F2
:1056100084F0661677066CF47F01E40CF51CA1E0BB
:10562000B0E0AC0FBD1FEA0EFB1ED7011196BC9077
:1056300002C090E3B92E615071093196C6010196FE
:105640007C016017710724F0D601BC926C01D5CFA4
:105650006417750741F4363320F4353321F4A11073
:1056600002C081E3B82EF601B082F701822F90E2EA
:10567000882319F091938150FBCFF701E20FF11DC0
:10568000108280E090E029960FB6F894DEBF0FBE3E
:10569000CDBFDF91CF911F910F91FF90EF90DF90E1
:1056A000CF90BF90AF909F907F906F905F904F9002
:1056B0000895283008F027E03327DA01990F311DCB
:1056C00087FD916000966105710539F432602E5FA7
:1056D0003D9330E32A95E1F708959F3F30F08038FD
:1056E0007105610509F03C5F3C5F3D93913008F026
:1056F0008068911DDF93CF931F930F93FF92EF92DA
:10570000192F987F9695E92F96959695E90FFF2783
:10571000E65DFD4F99273327EE24FF24A701E7011B
:1057200005900894079428F4360FE71EF81E491FC9
:10573000511D660F771F881F991F0694A1F70590CA
:10574000079428F4E70EF81E491F561FC11D770F56
:10575000881F991F661F0694A1F70590079428F4E7
:10576000F80E491F561FC71FD11D880F991F661FAE
:10577000771F0694A1F70590079420F4490F561F50
:10578000C71FD81F990F661F771F881F0694A9F798
:1057900084911095177041F0D695C7955795479508
:1057A000F794E7941A95C1F7E0EDF1E0689415904D
:1057B000159135916591959105907FE27395E1186A
:1057C000F10A430B560BC90BD009C0F7E10CF11ECF
:1057D000431F561FC91FD01D7EF4703311F48A95E4
:1057E000E6CFE894015030F0080F0AF400270217C2
:1057F00008F4202F2395022F7A3328F079E37D9344
:105800002A95E9F710C07D932A9589F60694979515
:105810006795379517951794E118F10A430B560BC6
:10582000C90BD00998F023957E9173957A3308F0CF
:1058300070E37C932013B8F77E9170617D9330F014
:10584000839571E37D9370E32A95E1F71124EF903E
:10585000FF900F911F91CF91DF91992787FD909530
:105860000895DC01FC01672F71917723E1F73297EE
:1058700004C07C916D9370836291AE17BF07C8F32B
:1058800008950E94832C08F481E00895E89409C0EB
:1058900097FB3EF490958095709561957F4F8F4F63
:1058A0009F4F9923A9F0F92F96E9BB279395F69579
:1058B000879577956795B795F111F8CFFAF4BB0FF7
:1058C00011F460FF1BC06F5F7F4F8F4F9F4F16C05B
:1058D000882311F096E911C0772321F09EE8872FE5
:1058E000762F05C0662371F096E8862F70E060E0A1
:1058F0002AF09A95660F771F881FDAF7880F96951A
:10590000879597F90895990F0008550FAA0BE0E8BD
:10591000FEEF16161706E807F907C0F01216130671
:10592000E407F50798F0621B730B840B950B39F4B1
:105930000A2661F0232B242B252B21F408950A2617
:1059400009F4A140A6958FEF811D811D089597F957
:105950009F6780E870E060E008959FEF80EC089515
:1059600000240A941616170618060906089500243E
:105970000A9412161306140605060895092E0394B8
:10598000000C11F4882352F0BB0F40F4BF2B11F42C
:1059900060FF04C06F5F7F4F8F4F9F4F089557FD8B
:1059A0009058440F551F59F05F3F71F04795880F8D
:1059B00097FB991F61F09F3F79F087950895121624
:1059C00013061406551FF2CF4695F1DF08C01616D0
:1059D00017061806991FF1CF869571056105089481
:1059E0000895E894BB2766277727CB0197F9089598
:1059F000052E97FB1EF400940E940F2D57FD07D033
:105A00000E942A2D07FC03D04EF40C940F2D5095C4
:105A10004095309521953F4F4F4F5F4F089590959A
:105A20008095709561957F4F8F4F9F4F08950E948D
:105A30004C2DA59F900DB49F900DA49F800D911D9E
:105A400011240895B7FF0C94172D0E94172D821B67
:105A5000930B0895A1E21A2EAA1BBB1BFD010DC0DA
:105A6000AA1FBB1FEE1FFF1FA217B307E407F5070E
:105A700020F0A21BB30BE40BF50B661F771F881FEA
:105A8000991F1A9469F760957095809590959B0180
:105A9000AC01BD01CF010895A29FB001B39FC00129
:105AA000A39F700D811D1124911DB29F700D811D4A
:105AB0001124911D08955058BB27AA270E94732DC9
:105AC0000C94BE2C0E94B02C38F00E94B72C20F011
:105AD00039F49F3F19F426F40C94AD2C0EF4E095A4
