:100000000C94BB020C94EC020C94EC020C94EC02E9
:100010000C94EC020C94EC020C94EC020C94EC02A8
:100020000C94EC020C94EC020C94EC020C94EC0298
:100030000C94EC020C9476170C94EC020C94A9121C
:100040000C94EC020C94EC020C94EC020C94EC0278
:100050000C94EC020C94EC020C94EC020C94B41092
:100060000C94EC020C9473120C9449120C94EC0254
:100070000C94EC020C94EC020C94EC020C94EC0248
:100080000C94EC020C94EC020C94EC020C94EC0238
:100090000C94EC020C94EC020C94EC020C94120EF6
:1000A0000C94EC020C94EC020C94EC020C94EC0218
:1000B0000C94EC020C94EC020C94EC020C94EC0208
:1000C0000C94EC020C94EC020C94EC020C94EC02F8
:1000D0000C94EC020C94EC020C94EC020C94EC02E8
:1000E0000C94EC029C19AC1A1F1E6B205421B521F4
:1000F0009A220C250C250B1F610D640D530D570D15
:100100005D0D9B0D680D6C0D720D760D7A0D800DD9
:10011000840D880D9B0D8E0D920D960D0C9454211F
:100120000C949B0D0C948E0D0C947A0D0C94920DE6
:100130000C94960D0C9439110C94AC1A0C9470110B
:100140000C94D00C0C94640D0C949A220C946B209B
:100150000C9417110C94610D0C940B1F0C94720DE0
:100160000C94B7110C94E70C0C94D4060C94BC2896
:100170000C942B110C945D0D0C941F1E0C94170DF8
:100180000C94D4130C94C20C0C9433280C94721558
:100190000C94680D0C94530D0C94B5210C94DF0C49
:1001A0000C94880D0C94800D0C94840D0C940C25EB
:1001B0000C94C10C0C949C190C946C0D0C94570D60
:1001C0000C94760D00407A10F35A00A0724E180974
:1001D0000010A5D4E80000E87648170000E40B54AE
:1001E000020000CA9A3B000000E1F505000080967D
:1001F0009800000040420F000000A08601000000AF
:10020000102700000000E803000000006400000068
:1002100000000A00000000000100000000002C7631
:10022000D888DC674F0823DFC1DFAE59E1B1B7964C
:10023000E5E3E453C63AE651997696E8E6C28426A9
:10024000EB898C9B62ED407C6FFCEFBC9C9F40F285
:10025000BAA56FA5F490055A2AF75C936B6CF96701
:100260006DC11BFCE0E40D47FEF520E6B500D0EDC6
:10027000902E0300943577050080841E080000202E
:100280004E0A000000C80C333333330F986E1283CC
:100290001141EF8D2114893BE65516CFFEE6DB18A0
:1002A000D1844B381BF77C1D901DA4BBE424203265
:1002B00084725E228100C9F124ECA1E53D275265DC
:1002C00064732077696E21202020202020200047A1
:1002D0007265656E732077696E21202020202000D2
:1002E000447261772067616D6521416761696E21A4
:1002F0000057686F277320636F77626F7921202022
:1003000020004661737420647261772120202020D0
:10031000202000636174636842616C6C2C2C2C2C6F
:1003200000526564732077696E21202020202020F0
:100330002000477265656E73206661696C2120201C
:10034000202000477265656E732077696E2120203A
:100350002020200052656473206661696C21202092
:10036000202020200043726F7373206661696C2126
:10037000202020202000436174636820616674653A
:100380007220626565700057686F2069732066612E
:10039000737465723F2120006B6579636F77626FBC
:1003A00079732C2C2C2C00507265737320616E793C
:1003B000206B65792E2E2E0044726177696E67205E
:1003C000626567696E732120004F666673696465B4
:1003D00021202020202020202000326E64207469FB
:1003E0006D6520626567696E732100707265737355
:1003F00020616E79206B65792E2E2E00526F74610C
:10040000746520626F61726420616E640046696E7B
:10041000616C2073636F72653A2020202000447263
:1004200061772067616D6521202020202020005207
:100430006564732077696E21202020202020200011
:10044000477265656E732077696E21202020200039
:1004500000002100240027002A002D003000330076
:1004600001010000040107010A010000220025002B
:1004700028002B002E00310034000201000005018D
:1004800008010B01000020002300260029002C0099
:100490002F003200000100000301060109010505DB
:1004A0000505070508080808020202020A0A0808EA
:1004B0000404040401010101010101010303030318
:1004C00003030303040707070C0C0C0C0C0C0C0CA7
:1004D0000202020206060606060606060B0B0B0BB8
:1004E0000B0B0B0B010210202008081020401020DD
:1004F00040800201020108040201010204081020E8
:1005000040808040201008040201800402018040E5
:10051000201008040201080402010102040810204E
:100520004080010204081020408000000A0B0209EC
:100530000C0D0E080703040100000000000000007D
:1005400000000000000000000000000000000000AB
:100550000000000000001211100000000000000068
:10056000000000000000000000000000000000008B
:1005700002003328BC2811241FBECFEFD1E2DEBF1A
:10058000CDBF00E00CBF14E0A0E0B2E0E2E4F2E690
:1005900000E00BBF02C007900D92A235B107D9F75A
:1005A00026E0A2E5B4E001C01D92AC3EB207E1F73F
:1005B00012E0CAEBD2E000E006C021970109802FCB
:1005C000FE010E94C82EC93BD10780E00807A9F7A9
:1005D0000E9423180C940F310C9400004F925F92EC
:1005E0006F927F928F929F92AF92BF92DF92EF9223
:1005F000FF920F931F93CF93DF93EC01088110E0DC
:100600008A890E94440F0817190711F0188A7CC0C4
:100610000E94A8102B013C0188898F5F888B9989E3
:10062000891708F471C0D88081E0D826D882188A4A
:10063000C301B2010E942D2C20E030E04AE754E4CF
:100640000E94C62D4B015C010E94AF2D0E94382EE6
:10065000CB016CE370E00E94B42E8C01892B11F465
:100660000CE310E08E859F850817190788F08B89A9
:100670009C89AD89BE89A3019201281B390B4A0BC5
:100680005B0BDA01C90181369A4EA105B10510F064
:100690001D821C824B8A5C8A6D8A7E8A1F870E8728
:1006A0008A819B8101969B838A83EC80FD804FEF3A
:1006B000E41AF40AFD82EC82BC0180E090E00E9422
:1006C0002D2CA50194010E94C62D6E837F838887FF
:1006D0009987B70180E090E00E942D2C4B015C01CE
:1006E000B80180E090E00E942D2C9B01AC01C50177
:1006F000B4010E94C62D6A877B878C879D8781E025
:10070000DD2019F0898301C080E0DF91CF911F9136
:100710000F91FF90EF90DF90BF90AF909F908F90E0
:100720007F906F905F904F9008958F929F92AF92BD
:10073000BF92EF92FF921F93CF93DF937B0180E3F1
:100740000E94440F892B09F4FCC1809105028E326E
:1007500021F08F3F09F0F5C104C0E0E7F5E0149106
:10076000E8C08EE280930502E0E7F5E0E491EF3F18
:1007700009F4E7C1E23009F472C04CF5EE2309F444
:1007800051C0E13009F0D4C0109280001092810075
:1007900080918100886080938100809181008160D8
:1007A00080938100ECECF4E0E491F0E0EE0FFF1FA9
:1007B000E659FB4F8591949190938604809385042C
:1007C000E2E1F5E0E491E093840411E0B4C0E430A8
:1007D00009F48BC00CF466C0E53009F0A9C0109292
:1007E00020011092210180912101886080932101D4
:1007F00080912101816080932101ECECF4E0E4918F
:10080000F0E0EE0FFF1FE659FB4F85919491909316
:100810007D0480937C04E2E1F5E0E491E0937B04C5
:1008200015E089C014BC15BC84B5826084BD85B553
:10083000816085BDECECF4E0E491F0E0EE0FFF1F89
:10084000E659FB4F85919491909389048093880495
:10085000E2E1F5E0E491E093870410E06CC01092CF
:10086000B0001092B1008091B00082608093B0001F
:100870008091B10081608093B100ECECF4E0E491F0
:10088000F0E0EE0FFF1FE659FB4F85919491909396
:10089000E2068093E106E2E1F5E0E491E093E3060D
:1008A00012E049C010929000109291008091910046
:1008B0008860809391008091910081608093910085
:1008C000ECECF4E0E491F0E0EE0FFF1FE659FB4F93
:1008D000859194919093830480938204E2E1F5E002
:1008E000E491E093810413E026C01092A0001092DE
:1008F000A1008091A10088608093A1008091A10057
:1009000081608093A100ECECF4E0E491F0E0EE0F64
:10091000FF1FE659FB4F859194919093800480933B
:100920007F04E2E1F5E0E491E0937E0414E003C08B
:100930001E2F17FD06C14701A12CB12C61E08EE2EC
:100940000E949D0F112309F4F1C0123009F44DC02B
:10095000113071F480918100887F816080938100E3
:1009600089288A288B2809F480C0C9E6DAE04AC0C1
:10097000133081F480919100887F81608093910091
:1009800089288A288B2889F72FEF3FEFA901C9E62C
:10099000DAE096C0143081F48091A100887F8160F4
:1009A0008093A10089288A288B28F9F62FEF3FEF42
:1009B000A901C9E6DAE096C0153081F480912101E1
:1009C000887F81608093210189288A288B2869F695
:1009D0002FEF3FEFA901C9E6DAE096C0C9E6DAE0F9
:1009E00089288A288B28D1F00DC08091B100887F9A
:1009F00083608093B10089288A288B2809F44CC031
:100A0000C2E5D0E09701A0E7B7E10E94332D28EEC0
:100A100033E040E050E00E94112D03C02FEF3FEF84
:100A2000A9011230E9F12CF4112381F0113011F1F8
:100A300088C0143009F456C00CF442C0153009F4D3
:100A400063C07FC02FEF3FEFA901C8E2C7BD20936D
:100A50009A0430939B0440939C0450939D0480918E
:100A60006E00826080936E006CC02FEF3FEFA90193
:100A7000C9E6DAE0D0938900C093880020939604F9
:100A800030939704409398045093990480916F0099
:100A9000826080936F0055C02FEF3FEFA901C2E540
:100AA000C093B3002093E4063093E5064093E60636
:100AB0005093E7068091700082608093700041C07F
:100AC000D0939900C093980020939204309393049C
:100AD00040939404509395048091710082608093B8
:100AE00071002FC0D093A900C093A80020938E045A
:100AF00030938F044093900450939104809172003E
:100B00008260809372001DC0D0932901C093280198
:100B100020938A0430938B0440938C0450938D046B
:100B2000809173008260809373000BC085B5887FCD
:100B3000836085BD89288A288B2809F483CFC8E281
:100B400060CFDF91CF911F91FF90EF90BF90AF905A
:100B50009F908F9008950F931F93CF93DF93CDB7FE
:100B6000DEB7C254D1090FB6F894DEBF0FBECDBFB9
:100B70008C01809170008E7F8093700080910002C4
:100B8000882309F403C160915A04062E000C770BE8
:100B90004AE0CE01CD960E94F41660910102062E25
:100BA000000C770B4AE0CE01C7960E94F4166091C4
:100BB0000202062E000C770B4AE0CE01C1960E947D
:100BC000F41660915C04062E000C770B4AE0CE010F
:100BD0008B960E94F41690910302692F990F770B60
:100BE0004AE0CE0185960E94F41690910402692F86
:100BF000990F770B4AE0CE014F960E94F416909120
:100C00006D04692F990F770B4AE0CE0149960E9437
:100C1000F41640915D0450915E0460915F04709100
:100C200060042AE0CE0143960E949B16409169041D
:100C300050916A0460916B0470916C042AE0CE01BB
:100C40000D960E949B160E94A810AB01BC012AE0E1
:100C5000CE0101960E949B16BE016F5F7F4FCE01B1
:100C600007960E9458176CE074E0CE0107960E9428
:100C7000FE10BE01635F7F4F0E9404166CE074E0BB
:100C80000E94FE10BE016D5E7F4F0E9404166CE054
:100C900074E00E94FE10BE01675E7F4F0E94041642
:100CA0006CE074E00E94FE10BE01615E7F4F0E9406
:100CB00004166CE074E00E94FE10BE016B5D7F4F75
:100CC0000E9404166CE074E00E94FE10BE01655D97
:100CD0007F4F0E9404166CE074E00E94FE10BE017B
:100CE0006F5C7F4F0E9404166CE074E00E94FE105F
:100CF000BE01695C7F4F0E9404166CE074E00E94A4
:100D0000FE10BE01635C7F4F0E9404166CE074E02D
:100D10000E94FE10B8010E940416BC0184EF94E00A
:100D20000E94151842E050E069EF73E084EF94E010
:100D30000E947215CE0107960E946616CE0101969A
:100D40000E946616CE010D960E946616CE0143964D
:100D50000E946616CE0149960E946616CE014F96F5
:100D60000E946616CE0185960E946616CE018B966D
:100D70000E946616CE01C1960E946616CE01C796E5
:100D80000E946616CE01CD960E9466160E941F1321
:100D9000CE5BDF4F0FB6F894DEBF0FBECDBFDF9145
:100DA000CF911F910F910895CF93DF93CDB7DEB709
:100DB000A4970FB6F894DEBF0FBECDBF6BEF73E004
:100DC000CE0101960E94611782E796E00E94EE0232
:100DD000882309F46DC060917606709177064AE029
:100DE000CE014F960E94C8166091800670918106D0
:100DF0004AE0CE0149960E94C81640917C06509167
:100E00007D0660917E0670917F0622E0CE014396BA
:100E10000E946B166091720670E04AE0CE010D965A
:100E20000E94F416BE016F5F7F4FCE0107960E94AD
:100E300058176CEF73E0CE0107960E94FE10BE01BA
:100E4000635F7F4F0E9404166CE074E00E94FE1006
:100E5000BE016D5E7F4F0E9404166CE074E00E943C
:100E6000FE10BE01675E7F4F0E9404166CE074E0C6
:100E70000E94FE10BE01615E7F4F0E940416BC01FD
:100E8000CE0101960E944F16CE0107960E9466166B
:100E9000CE010D960E946616CE0143960E946616FC
:100EA000CE0149960E946616CE014F960E946616A4
:100EB0008BE596E00E94EE02882309F487C08D81BD
:100EC0009E810297B0F0BE016F5F7F4FCE01079603
:100ED0000E94581761E074E0CE0107960E94FE1050
:100EE000BC01CE0101960E944F16CE0107960E94CA
:100EF000661660915F06709160064AE0CE014F96DB
:100F00000E94C8166091690670916A064AE0CE0197
:100F100049960E94C81640916506509166066091F8
:100F200067067091680622E0CE0143960E946B1618
:100F300060915B0670E04AE0CE010D960E94F416C7
:100F4000BE016F5F7F4FCE0107960E9458176EE07B
:100F500074E0CE0107960E94FE10BE01635F7F4FD2
:100F60000E9404166CE074E00E94FE10BE016D5EEB
:100F70007F4F0E9404166CE074E00E94FE10BE01D8
:100F8000675E7F4F0E9404166CE074E00E94FE10C2
:100F9000BE01615E7F4F0E940416BC01CE01019626
:100FA0000E944F16CE0107960E946616CE010D963E
:100FB0000E946616CE0143960E946616CE0149969F
:100FC0000E946616CE014F960E94661684E496E053
:100FD0000E94EE02882309F487C08D819E810297CA
:100FE000B0F0BE016F5F7F4FCE0107960E94581789
:100FF00061E074E0CE0107960E94FE10BC01CE01B4
:1010000001960E944F16CE0107960E9466166091C7
:101010004806709149064AE0CE014F960E94C816D4
:1010200060915206709153064AE0CE0149960E94A3
:10103000C81640914E0650914F066091500670912F
:10104000510622E0CE0143960E946B166091440641
:1010500070E04AE0CE010D960E94F416BE016F5F6B
:101060007F4FCE0107960E94581763E174E0CE01CE
:1010700007960E94FE10BE01635F7F4F0E94041618
:101080006CE074E00E94FE10BE016D5E7F4F0E9416
:1010900004166CE074E00E94FE10BE01675E7F4F94
:1010A0000E9404166CE074E00E94FE10BE01615EB6
:1010B0007F4F0E940416BC01CE0101960E944F167C
:1010C000CE0107960E946616CE010D960E94661606
:1010D000CE0143960E946616CE0149960E9466167E
:1010E000CE014F960E9466168DE296E00E94EE02B7
:1010F000882309F487C08D819E810297B0F0BE01DC
:101100006F5F7F4FCE0107960E94581761E074E031
:10111000CE0107960E94FE10BC01CE0101960E94EE
:101120004F16CE0107960E946616609131067091A7
:1011300032064AE0CE014F960E94C81660913B06E7
:1011400070913C064AE0CE0149960E94C816409133
:101150003706509138066091390670913A0622E0C0
:10116000CE0143960E946B1660912D0670E04AE016
:10117000CE010D960E94F416BE016F5F7F4FCE0127
:1011800007960E94581768E174E0CE0107960E9406
:10119000FE10BE01635F7F4F0E9404166CE074E096
:1011A0000E94FE10BE016D5E7F4F0E9404166CE02F
:1011B00074E00E94FE10BE01675E7F4F0E9404161D
:1011C0006CE074E00E94FE10BE01615E7F4F0E94E1
:1011D0000416BC01CE0101960E944F16CE0107965F
:1011E0000E946616CE010D960E946616CE014396A9
:1011F0000E946616CE0149960E946616CE014F9651
:101200000E94661686E196E00E94EE02882309F4A9
:1012100087C08D819E810297B0F0BE016F5F7F4FC6
:10122000CE0107960E94581761E074E0CE01079640
:101230000E94FE10BC01CE0101960E944F16CE0105
:1012400007960E94661660911A0670911B064AE086
:10125000CE014F960E94C816609124067091250613
:101260004AE0CE0149960E94C8164091200650914E
:101270002106609122067091230622E0CE0143965A
:101280000E946B166091160670E04AE0CE010D9642
:101290000E94F416BE016F5F7F4FCE0107960E9439
:1012A00058176DE174E0CE0107960E94FE10BE0152
:1012B000635F7F4F0E9404166CE074E00E94FE1092
:1012C000BE016D5E7F4F0E9404166CE074E00E94C8
:1012D000FE10BE01675E7F4F0E9404166CE074E052
:1012E0000E94FE10BE01615E7F4F0E940416BC0189
:1012F000CE0101960E944F16CE0107960E946616F7
:10130000CE010D960E946616CE0143960E94661687
:10131000CE0149960E946616CE014F960E9466162F
:101320008FEF95E00E94EE02882309F487C08D813B
:101330009E810297B0F0BE016F5F7F4FCE0107968E
:101340000E94581761E074E0CE0107960E94FE10DB
:10135000BC01CE0101960E944F16CE0107960E9455
:10136000661660910306709104064AE0CE014F961E
:101370000E94C81660910D0670910E064AE0CE01DB
:1013800049960E94C8164091090650910A0660913C
:101390000B0670910C0622E0CE0143960E946B165C
:1013A0006091FF0570E04AE0CE010D960E94F416B0
:1013B000BE016F5F7F4FCE0107960E94581762E211
:1013C00074E0CE0107960E94FE10BE01635F7F4F5E
:1013D0000E9404166CE074E00E94FE10BE016D5E77
:1013E0007F4F0E9404166CE074E00E94FE10BE0164
:1013F000675E7F4F0E9404166CE074E00E94FE104E
:10140000BE01615E7F4F0E940416BC01CE010196B1
:101410000E944F16CE0107960E946616CE010D96C9
:101420000E946616CE0143960E946616CE0149962A
:101430000E946616CE014F960E94661688EE95E0D1
:101440000E94EE02882309F487C08D819E81029755
:10145000B0F0BE016F5F7F4FCE0107960E94581714
:1014600061E074E0CE0107960E94FE10BC01CE013F
:1014700001960E944F16CE0107960E946616609153
:10148000EC057091ED054AE0CE014F960E94C8161A
:101490006091F6057091F7054AE0CE0149960E94E9
:1014A000C8164091F2055091F3056091F4057091D2
:1014B000F50522E0CE0143960E946B166091E80587
:1014C00070E04AE0CE010D960E94F416BE016F5FF7
:1014D0007F4FCE0107960E94581767E274E0CE0155
:1014E00007960E94FE10BE01635F7F4F0E940416A4
:1014F0006CE074E00E94FE10BE016D5E7F4F0E94A2
:1015000004166CE074E00E94FE10BE01675E7F4F1F
:101510000E9404166CE074E00E94FE10BE01615E41
:101520007F4F0E940416BC01CE0101960E944F1607
:10153000CE0107960E946616CE010D960E94661691
:10154000CE0143960E946616CE0149960E94661609
:10155000CE014F960E94661681ED95E00E94EE0244
:10156000882309F487C08D819E810297B0F0BE0167
:101570006F5F7F4FCE0107960E94581761E074E0BD
:10158000CE0107960E94FE10BC01CE0101960E947A
:101590004F16CE0107960E9466166091D505709190
:1015A000D6054AE0CE014F960E94C8166091DF052D
:1015B0007091E0054AE0CE0149960E94C81640911C
:1015C000DB055091DC056091DD057091DE0522E0C0
:1015D000CE0143960E946B166091D10570E04AE0FF
:1015E000CE010D960E94F416BE016F5F7F4FCE01B3
:1015F00007960E9458176CE274E0CE0107960E948D
:10160000FE10BE01635F7F4F0E9404166CE074E021
:101610000E94FE10BE016D5E7F4F0E9404166CE0BA
:1016200074E00E94FE10BE01675E7F4F0E940416A8
:101630006CE074E00E94FE10BE01615E7F4F0E946C
:101640000416BC01CE0101960E944F16CE010796EA
:101650000E946616CE010D960E946616CE01439634
:101660000E946616CE0149960E946616CE014F96DC
:101670000E9466168AEB95E00E94EE02882309F428
:1016800087C08D819E810297B0F0BE016F5F7F4F52
:10169000CE0107960E94581761E074E0CE010796CC
:1016A0000E94FE10BC01CE0101960E944F16CE0191
:1016B00007960E9466166091BE057091BF054AE0CC
:1016C000CE014F960E94C8166091C8057091C90559
:1016D0004AE0CE0149960E94C8164091C405509137
:1016E000C5056091C6057091C70522E0CE014396FD
:1016F0000E946B166091BA0570E04AE0CE010D962B
:101700000E94F416BE016F5F7F4FCE0107960E94C4
:10171000581761E374E0CE0107960E94FE10BE01E7
:10172000635F7F4F0E9404166CE074E00E94FE101D
:10173000BE016D5E7F4F0E9404166CE074E00E9453
:10174000FE10BE01675E7F4F0E9404166CE074E0DD
:101750000E94FE10BE01615E7F4F0E940416BC0114
:10176000CE0101960E944F16CE0107960E94661682
:10177000CE010D960E946616CE0143960E94661613
:10178000CE0149960E946616CE014F960E946616BB
:1017900083EA95E00E94EE02882309F487C08D81D8
:1017A0009E810297B0F0BE016F5F7F4FCE0107961A
:1017B0000E94581761E074E0CE0107960E94FE1067
:1017C000BC01CE0101960E944F16CE0107960E94E1
:1017D00066166091A7057091A8054AE0CE014F9664
:1017E0000E94C8166091B1057091B2054AE0CE0121
:1017F00049960E94C8164091AD055091AE05609182
:10180000AF057091B00522E0CE0143960E946B16A1
:101810006091A30570E04AE0CE010D960E94F41697
:10182000BE016F5F7F4FCE0107960E94581766E397
:1018300074E0CE0107960E94FE10BE01635F7F4FE9
:101840000E9404166CE074E00E94FE10BE016D5E02
:101850007F4F0E9404166CE074E00E94FE10BE01EF
:10186000675E7F4F0E9404166CE074E00E94FE10D9
:10187000BE01615E7F4F0E940416BC01CE0101963D
:101880000E944F16CE0107960E946616CE010D9655
:101890000E946616CE0143960E946616CE014996B6
:1018A0000E946616CE014F960E9466168D819E811B
:1018B000029778F0BE016F5F7F4FCE0107960E94BE
:1018C0005817CE0107960E94AB05CE0107960E94DD
:1018D0006616CE0101960E946616A4960FB6F8947D
:1018E000DEBF0FBECDBFDF91CF910895FC01862FE3
:1018F0001382128215821482168217821086118634
:10190000128613861486158617861686138A148AFD
:10191000158A168A628B418B62E00C949D0F85EDCF
:101920008093BC008091BC0084FDFCCF1092E50444
:1019300008954091B406262F30E0240F311D213246
:101940003105DCF42091E5042430C9F4FC0180E089
:1019500090E0861758F43091B4062191DC01AE5620
:10196000B94FA30FB11D2C930196F3CF8091B4060C
:10197000680F6093B40680E0089581E0089582E0E6
:101980000895089581E090E03091DA062091D9061B
:10199000321710F480E090E09195819591090895B7
:1019A0008091DA069091D906891730F48F5F809381
:1019B000DA0680E090E008958FEF9FEF0895809120
:1019C000D90690E02091DA06821B91090895CF9202
:1019D000DF92EF92FF920F931F93CF93DF937C01DF
:1019E000262F972F8A018091BE04882391F0C62F5D
:1019F000D72F6E01C40ED51ECC15DD0571F069918F
:101A0000D701ED91FC910190F081E02DC70119956E
:101A1000F3CF642F822F0E94990CC801DF91CF91E0
:101A20001F910F91FF90EF90DF90CF900895CF938B
:101A3000DF931F92CDB7DEB769832091BE042223C6
:101A4000D1F02091E604203240F021E030E0FC01AA
:101A50003383228380E090E015C08091E704E82F73
:101A6000F0E0E256FB4F998190838F5F8093E7040B
:101A70008093E60405C061E0CE0101960E94990CB6
:101A800081E090E00F90DF91CF91089590E0FC010C
:101A90003197E231F10508F04EC08827E458FF4F36
:101AA0008F4F0C94C82E809180008F7703C0809157
:101AB00080008F7D80938000089580918000877FD3
:101AC000F9CF84B58F7702C084B58F7D84BD08952A
:101AD0008091B0008F7703C08091B0008F7D80939C
:101AE000B0000895809190008F7707C0809190009A
:101AF0008F7D03C080919000877F80939000089530
:101B00008091A0008F7707C08091A0008F7D03C0D7
:101B10008091A000877F8093A0000895809120018C
:101B20008F7707C0809120018F7D03C080912001B5
:101B3000877F8093200108953FB7F89480918E06A7
:101B400090918F06A0919006B091910626B5A89B22
:101B500005C02F3F19F00196A11DB11D3FBFBA2F3F
:101B6000A92F982F8827820F911DA11DB11DBC019F
:101B7000CD0142E0660F771F881F991F4A95D1F764
:101B800008950E94FA300F931F93CF93DF938C0137
:101B9000C0E0D0E0F801EC0FFD1F6491662371F006
:101BA000E0919705F09198050190F081E02D87E98B
:101BB00095E01995892B11F02196ECCFCE01DF919C
:101BC000CF911F910F910895CF93DF93CDB7DEB7DB
:101BD00028970FB6F894DEBF0FBECDBF98E0E8E8B7
:101BE000F2E0DE01119601900D929A95E1F7909145
:101BF0009F05981710F48FEF890FFE013196E80FBB
:101C0000F11DE80FF11D6081606840E087E995E013
:101C100028960FB6F894DEBF0FBECDBFDF91CF91EF
:101C20000C94B3131F920F920FB60F9211240BB6A0
:101C30000F922F933F934F935F936F937F938F9365
:101C40009F93AF93BF93EF93FF938091B900887FE9
:101C5000803609F49CC068F5883209F45BC090F4C2
:101C6000803109F454C038F4882309F4F6C0883070
:101C700009F44DC0F6C0883109F44CC0803209F433
:101C80005DC0EFC0803409F468C048F4803309F4C3
:101C900055C0883309F0E5C08093BF04D8C08035B3
:101CA00009F44FC0883509F45DC0883409F0D9C003
:101CB000D6C0883909F4C7C0A8F4883709F467C0CA
:101CC00038F4883609F463C0803709F460C0C9C0AD
:101CD000883809F4B8C0803909F45FC0803809F049
:101CE000C0C05BC0803B09F486C038F4803A09F478
:101CF00066C0883A09F47FC0B4C0803C09F4A7C02C
:101D0000883C09F4A4C0883B09F48AC0AAC0809129
:101D1000E20410C09091E1048091E004981770F5FE
:101D2000E091E10481E08E0F8093E104F0E0E05463
:101D3000FB4F80818093BB0085EC86C08093BF04FD
:101D40008EC0E091E10481E08E0F8093E1048091E8
:101D5000BB00F0E0E054FB4F80839091E104809160
:101D6000E0046EC0E091E10481E08E0F8093E10415
:101D70008091BB00F0E0E054FB4F80838091E4044D
:101D800081116DC081E08093E30484EA61C083E047
:101D90008093E5041092D806CFCF8091D806803288
:101DA00008F051C0E091D80681E08E0F8093D806EC
:101DB0008091BB00F0E0E854F94F8083BDCF85EC03
:101DC0008093BC001092E5048091D806803230F4F4
:101DD000E091D806F0E0E854F94F10826091D806FF
:101DE00070E0E091B606F091B70688EB96E01995A1
:101DF0001092D80636C084E08093E5041092B506B0
:101E00001092B406E091B206F091B3061995809154
:101E1000B406811105C081E08093B4061092920649
:101E2000E091B50681E08E0F8093B506F0E0EE56A6
:101E3000F94F80818093BB009091B5068091B406E4
:101E4000981708F479CF85E88093BC000AC085EC28
:101E50008093BC001092E50404C01092BF040E945D
:101E60008F0CFF91EF91BF91AF919F918F917F91D7
:101E70006F915F914F913F912F910F900BBE0F90FB
:101E80000FBE0F901F901895CF93DF93282F30E04F
:101E9000F901E65DFA4F8491F901EC51FB4FD491C1
:101EA000F901E256FB4FC491CC2391F081110E94BD
:101EB000460DEC2FF0E0EE0FFF1FEC57FB4FA59106
:101EC000B491EC91ED2381E090E021F480E002C038
:101ED00080E090E0DF91CF9108951F93CF93DF933F
:101EE000282F30E0F901E65DFA4F8491F901EC51B9
:101EF000FB4FD491F901E256FB4FC491CC23C9F0BA
:101F0000162F81110E94460DEC2FF0E0EE0FFF1FFF
:101F1000E659FB4FA591B4918FB7F894111105C004
:101F20009C91ED2FE095E92302C0EC91ED2BEC9311
:101F30008FBFDF91CF911F910895CF93DF9390E0F2
:101F4000FC01EC51FB4F2491FC01E256FB4F8491C4
:101F5000882361F190E0880F991FFC01E05BFB4F43
:101F6000C591D491FC01E659FB4FA591B491611143
:101F700009C09FB7F8948881209582238883EC91CB
:101F80002E230BC0623061F49FB7F8943881822F02
:101F9000809583238883EC912E2B2C939FBF06C0C2
:101FA0008FB7F894E8812E2B28838FBFDF91CF91D4
:101FB00008958F929F92AF92BF92CF92DF92EF924D
:101FC000FF926B017C010E949C0D4B015C01C114CE
:101FD000D104E104F104F1F00E949C0DDC01CB017D
:101FE00088199909AA09BB09883E9340A105B10542
:101FF00070F321E0C21AD108E108F10888EE880EDA
:1020000083E0981EA11CB11CC114D104E104F104A9
:1020100019F7DDCFFF90EF90DF90CF90BF90AF909A
:102020009F908F900895CF93DF931092DA061092CD
:10203000D9061092E7041092E6041092E50481E0BC
:102040008093E4041092E30461E084E10E946D0F48
:1020500061E085E10E946D0F8091B9008E7F8093D1
:10206000B9008091B9008D7F8093B90088E4809396
:10207000B80085E48093BC0010929C058091A10576
:10208000823018F098E090939C0580939F0562E35E
:1020900070E080E090E00E94D90F6091A20587E98E
:1020A00095E00E94351368EE73E080E090E00E94B6
:1020B000D90F60E387E995E00E949A13CBE4D6E458
:1020C000CE010197F1F760E387E995E00E949A134A
:1020D0002197F1F760E387E995E00E949A1383E581
:1020E00092E00197F1F760E287E995E00E949A1388
:1020F00060919C05606240E087E995E00E94B3131F
:1021000084E080939D0540E06CE087E995E00E94C3
:10211000B31340E061E087E995E00E94B313CBE39D
:10212000DFE1CE010197F1F782E080939E0540E068
:1021300066E087E995E00E94B31340E062E087E93A
:1021400095E00E94B3132197F1F7DF91CF910895A5
:102150002FB7F89460918A0670918B0680918C0657
:1021600090918D062FBF08951F920F920FB60F9278
:1021700011242F933F938F939F93AF93BF9380919D
:102180008A0690918B06A0918C06B0918D063091B5
:10219000890623E0230F2D3720F40196A11DB11DE0
:1021A00005C026E8230F0296A11DB11D20938906C4
:1021B00080938A0690938B06A0938C06B0938D062D
:1021C00080918E0690918F06A0919006B091910615
:1021D0000196A11DB11D80938E0690938F06A0934A
:1021E0009006B0939106BF91AF919F918F913F91CF
:1021F0002F910F900FBE0F901F901895CF93DF93E4
:10220000EC016115710561F0FB0101900020E9F717
:102210003197AF01461B570B0E94C415811103C0B3
:10222000CE010E94F215CE01DF91CF910895FC01FD
:10223000918D828D981761F0828DDF01A80FB11DFD
:102240005D968C91928D9F5F9F73928F90E0089521
:102250008FEF9FEF0895FC01918D828D981731F0DB
:10226000828DE80FF11D858D90E008958FEF9FEF2F
:102270000895FC01918D228D892F90E0805C9F4F05
:10228000821B91098F739927089584EF94E00E942F
:10229000391121E0892B09F420E0822F0895FC01F7
:1022A000848DDF01A80FB11DA35ABF4F2C91848DDF
:1022B00090E001968F739927848FA689B7892C9314
:1022C000A089B1898C9180648C93938D848D9813AF
:1022D00006C00288F389E02D80818F7D8083089578
:1022E000EF92FF920F931F93CF93DF93EC0181E066
:1022F000888F9B8D8C8D981305C0E889F989808122
:1023000085FD24C0F62E0B8D10E00F5F1F4F0F735D
:102310001127E02E8C8DE8120CC00FB607FCFACF07
:10232000E889F989808185FFF5CFCE010E944F11A0
:10233000F1CF8B8DFE01E80FF11DE35AFF4FF082C4
:102340000B8FEA89FB898081806207C0EE89FF8953
:102350006083E889F98980818064808381E090E0EE
:10236000DF91CF911F910F91FF90EF900895CF9340
:10237000DF93EC01888D8823C9F0EA89FB8980818D
:1023800085FD05C0A889B9898C9186FD0FC00FB65F
:1023900007FCF5CF808185FFF2CFA889B9898C91A0
:1023A00085FFEDCFCE010E944F11E7CFDF91CF9196
:1023B000089580E090E0892B21F00E944511811161
:1023C00025C080E090E0892B41F080E090E0892BEF
:1023D00021F00E94000081111CC080E090E0892B58
:1023E00041F080E090E0892B21F00E9400008111F3
:1023F00013C080E090E0892BA1F080E090E0892B71
:1024000081F00E94000081110AC008950E9400001E
:10241000D8CF0E940000E1CF0E940000EACF0C94C8
:1024200000000895823081F01CF4813031F020C02A
:10243000833089F08430B1F01BC061307105C9F080
:102440006F3F7F4FA9F417C061307105B1F06F3F46
:102450007F4F71F414C06130710599F06F3F7F4F69
:1024600039F411C06130710581F06F3F7F4F79F011
:10247000089583E0089582E0089586E0089585E058
:10248000089589E0089588E008958CE008958BE030
:1024900008951F920F920FB60F9211240BB60F9250
:1024A0002F933F934F935F936F937F938F939F935C
:1024B000AF93BF93EF93FF9384EF94E00E944F118B
:1024C000FF91EF91BF91AF919F918F917F916F910C
:1024D0005F914F913F912F910F900BBE0F900FBEC8
:1024E0000F901F9018951F920F920FB60F92112404
:1024F0000BB60F922F938F939F93EF93FF93E091DF
:102500000405F09105058081E0910A05F0910B0525
:1025100082FD12C0908180910D058F5F8F73209195
:102520000E05821751F0E0910D05F0E0EC50FB4FE5
:10253000958F80930D0501C08081FF91EF919F9150
:102540008F912F910F900BBE0F900FBE0F901F9089
:1025500018951F920F920FB60F9211240BB60F927F
:102560002F933F934F935F936F937F938F939F939B
:10257000AF93BF93EF93FF938091520490915304D4
:102580008093B2008091DD069091DE06A091DF0677
:10259000B091E0060196A11DB11D8093DD069093D8
:1025A000DE06A093DF06B093E0068091DD069091F1
:1025B000DE06A091DF06B091E006409156045091EE
:1025C0005704609158047091590484179507A60721
:1025D000B70710F18091DC0681111EC081E0809365
:1025E000DC068091DD069091DE06A091DF06B091B9
:1025F000E006841B950BA60BB70B8093DD0690932A
:10260000DE06A093DF06B093E006E0915404F0915B
:10261000550419951092DC06FF91EF91BF91AF918F
:102620009F918F917F916F915F914F913F912F91EA
:102630000F900BBE0F900FBE0F901F901895109229
:10264000DD061092DE061092DF061092E006109270
:10265000DC0680915204909153048093B200E0E72D
:10266000F0E08081816080830895CF93FC01C48174
:1026700021E02093BE04C093DB061092E704109281
:10268000E6048385682B88EE94E00E94170D809104
:10269000E604813208F046C09091E5049111FCCF28
:1026A00092E09093E50491E09093E4049FEF90937F
:1026B000BF041092E1048093E004AEE9B4E020ECA2
:1026C00034E0F9019E2F921B981718F49D91919375
:1026D000F9CF1092E2048091E204CC0FC82BC09392
:1026E000E2048091E304813061F41092E30480916C
:1026F000E2048093BB008091BC0083FDF8CF85ECA1
:1027000001C085EE8093BC008091E5048230E1F346
:102710008091BF048F3F31F08091BF04803211F06F
:102720008091BF041092E7041092E6041092BE0458
:10273000CF9108950F931F93CF938C01C62F0E94C2
:1027400035136C2F6460C8010E9435136C2F6B7FAA
:10275000C8010E94351383EC90E00197F1F7CF9107
:102760001F910F910895FF920F931F93CF93DF93C3
:102770001F92CDB7DEB78C01F62E962F907F692F72
:10278000642BC80149830E949A1380E1F89EB0012E
:1027900011244981642BC8010F90DF91CF911F91C3
:1027A0000F91FF900C949A1341E00E94B31381E0C3
:1027B00090E008951092730610925C061092450600
:1027C00010922E0610921706109200061092E9053C
:1027D0001092D2051092BB051092A40510925B04D2
:1027E0000895CF92DF92EF92FF921F93CF93DF93E2
:1027F000CDB7DEB7A4970FB6F894DEBF0FBECDBF3E
:10280000909104029093020290910302909301022E
:1028100090915C0490935A048093040260930302A5
:1028200040935C040E94A8106093690470936A044A
:1028300080936B0490936C046BE374E0CE0101967B
:102840000E946117CE0101960E94AB05CE01019650
:102850000E9466168091690490916A04A0916B04AD
:10286000B0916C0480935D0490935E04A0935F0428
:10287000B09360040E94DA130E942D292AE030E010
:1028800040E050E00E94DF2C20916E04C22E220F07
:10289000DD08EE08FF086C0D7D1D8E1D9F1D0E943A
:1028A0002F2C6B017C0180915A04813049F42091D6
:1028B00065043091660440916704509168040AC031
:1028C0008F3F71F420916104309162044091630460
:1028D00050916404C701B6010E94432D6B017C0135
:1028E00080910302823009F088C08091040288231D
:1028F00019F08B3009F081C011E020E030E040ECAD
:1029000050E4C701B6010E94AF2E18160CF010E07B
:102910004091610450916204609163047091640479
:1029200022E0CE0149960E946B16409165045091B9
:102930006604609167047091680422E0CE014396BA
:102940000E946B1660916E04062E000C770B4AE015
:10295000CE010D960E94F41622E0B701A601CE0129
:1029600007960E946B1665E474E0CE0101960E9402
:102970006117BE01695F7F4FCE0101960E94041668
:102980006CE074E00E94FE10BE01635F7F4F0E9406
:1029900004166CE074E00E94FE10BE016D5E7F4F75
:1029A0000E9404166CE074E00E94FE10BE01675E97
:1029B0007F4F0E940416BC01CE014F960E9458170B
:1029C000CE014F960E94AB05CE014F960E9466162F
:1029D000CE0101960E946616CE0107960E946616E9
:1029E000CE010D960E946616CE0143960E94661691
:1029F000CE0149960E94661601C010E09091040233
:102A00002091030285E09802F0011124E20FF11DEC
:102A100027FDFA95EE0FFF1FE05FFD4F80818F3F8E
:102A2000F9F03FEF380F343070F49091020299239F
:102A300011F09B30A9F460915C04062E000C770B1A
:102A40000E9412120AC086315CF0223031F49923C0
:102A500011F09B3011F4112319F061E00E946D0F09
:102A600080910102E091020295E0E902F001112457
:102A7000E80FF11D87FDFA95EE0FFF1FE05FFD4F98
:102A800080818F3F71F09FEF980F943038F4609100
:102A90005A04062E000C770B0E94121260E00E946E
:102AA0006D0F809103028B7F11F482E00BC0112324
:102AB00011F089E007C080910402882311F08B3067
:102AC00019F483E080936D04A4960FB6F894DEBFEA
:102AD0000FBECDBFDF91CF911F91FF90EF90DF90A0
:102AE000CF900895CF92DF92EF92FF920F931F93B2
:102AF000CF93DF936C017A018B01C0E0D0E0CE155B
:102B0000DF0589F0D8016D918D01D601ED91FC9121
:102B10000190F081E02DC6011995892B11F47E01F9
:102B200002C02196ECCFC701DF91CF911F910F9189
:102B3000FF90EF90DF90CF9008950F931F93CF9366
:102B4000DF93EC0188819981009729F02A813B81EC
:102B50002617370788F48B016F5F7F4F0E94113073
:102B6000009761F0998388831B830A832C813D81C0
:102B7000232B11F4FC01108281E001C080E0DF9181
:102B8000CF911F910F910895EF92FF920F931F9392
:102B9000CF93DF93FC01248135816115710511F418
:102BA00080E019C041155105A9F07B01EC018A01B3
:102BB000020F131FB8010E949D15882389F32881F5
:102BC00039818C819D81B701820F931F0E9408314A
:102BD0001D830C8381E0DF91CF911F910F91FF90B6
:102BE000EF900895CF93DF93EC018881998100974E
:102BF00011F00E94792F198218821D821C821B827B
:102C00001A82DF91CF910895CF93DF93EC01FB01FE
:102C100044815581608171810E94C415811103C076
:102C2000CE010E94F215CE01DF91CF910895EF926F
:102C3000FF920F931F93CF93DF93EC017B018A01E7
:102C4000BA010E949D15811104C0CE010E94F215A7
:102C500007C01D830C83B701888199810E940831C8
:102C6000CE01DF91CF911F910F91FF90EF900895CA
:102C7000CF93DF93EC016115710559F0FB010190D1
:102C80000020E9F73197AF01461B570B0E9417163A
:102C900002C00E94F215CE01DF91CF910895CF932B
:102CA000DF93EC01FB018617970761F0608171816A
:102CB0006115710529F0448155810E94171602C0E3
:102CC0000E94F215CE01DF91CF910895FC01808121
:102CD00091810C94792FEF92FF920F931F93CF93D2
:102CE000DF93CDB7DEB7A1970FB6F894DEBF0FBE66
:102CF000CDBF7C01CB01BA01F70111821082138292
:102D000012821582148242E0420F8E010F5F1F4F24
:102D10000E94C028BC01C7010E943816A1960FB6B8
:102D2000F894DEBF0FBECDBFDF91CF911F910F9101
:102D3000FF90EF9008950F931F93CF93DF93CDB73C
:102D4000DEB7A1970FB6F894DEBF0FBECDBF8C01E2
:102D5000CB01BA01F801118210821382128215820E
:102D6000148230E0AE014F5F5F4F0E946029BE01C8
:102D70006F5F7F4FC8010E943816A1960FB6F89476
:102D8000DEBF0FBECDBFDF91CF911F910F91089590
:102D90000F931F93CF93DF93CDB7DEB761970FB635
:102DA000F894DEBF0FBECDBF8C01CB01F8011182BC
:102DB0001082138212821582148250E0BE016F5F6E
:102DC0007F4F0E948D29BE016F5F7F4FC8010E9417
:102DD000381661960FB6F894DEBF0FBECDBFDF91F7
:102DE000CF911F910F9108950F931F93CF93DF936E
:102DF000CDB7DEB762970FB6F894DEBF0FBECDBF7A
:102E00008C01CB01F801118210821382128215828B
:102E1000148250E0BE016F5F7F4F0E944A29BE01BD
:102E20006F5F7F4FC8010E94381662960FB6F89404
:102E3000DEBF0FBECDBFDF91CF911F910F910895DF
:102E4000EF92FF920F931F93CF93DF93EC011982C0
:102E500018821B821A821D821C826115710509F17C
:102E60008B01CB010E9441297C01BC01CE010E9453
:102E70009D15811109C0CE01DF91CF911F910F9156
:102E8000FF90EF900C94F215FD82EC82B8018881DE
:102E90009981DF91CF911F910F91FF90EF900C944A
:102EA0003A29DF91CF911F910F91FF90EF900895F4
:102EB000FC011182108213821282158214820C94FA
:102EC0004F16FC0111821082138212821582148225
:102ED0006115710551F0FB0101900020E9F7319770
:102EE000AF01461B570B0C94171608951F920F92B3
:102EF0000FB60F9211240BB60F922F933F934F935F
:102F00005F936F937F938F939F93AF93BF93EF9351
:102F1000FF938091E4069091E506A091E606B091BA
:102F2000E706892B8A2B8B2B59F18091E306E091E0
:102F3000E106F091E2069081892780838091E40682
:102F40009091E506A091E606B091E70618161906DD
:102F50001A061B060CF056C08091E4069091E50617
:102F6000A091E606B091E7060197A109B109809307
:102F7000E4069093E506A093E606B093E70642C008
:102F800080910502E0E7F5E0E4919FEF9093050260
:102F9000E230C9F050F4EE2399F0E13081F59091E0
:102FA0006F009D7F90936F002AC0E43019F1E0F02C
:102FB000E53029F5909173009D7F909373001FC0B9
:102FC00010926E001CC0909170009D7F90937000D5
:102FD00091E09093B0009091B100987F94609093AD
:102FE000B1001092B3000BC0909171009D7F90933F
:102FF000710005C0909172009D7F9093720060E017
:103000000E946D0FFF91EF91BF91AF919F918F91B2
:103010007F916F915F914F913F912F910F900BBED8
:103020000F900FBE0F901F901895DC01ED91FC9151
:10303000DB0114964D915C9115976D917C91028006
:10304000F381E02D1994CF93DF93CDB7DEB7A1972D
:103050000FB6F894DEBF0FBECDBF789484B5826002
:1030600084BD84B5816084BD85B5826085BD85B52C
:10307000816085BD80916E00816080936E001092AA
:103080008100809181008260809381008091810025
:1030900081608093810080918000816080938000B6
:1030A0008091B10084608093B1008091B000816014
:1030B0008093B00080919100826080939100809114
:1030C0009100816080939100809190008160809355
:1030D00090008091A10082608093A1008091A10066
:1030E00081608093A1008091A00081608093A00006
:1030F0008091210182608093210180912101816072
:103100008093210180912001816080932001809132
:103110007A00846080937A0080917A008260809344
:103120007A0080917A00816080937A0080917A00A1
:10313000806880937A001092C1008AE090E0A0E05D
:10314000B0E08093560490935704A0935804B09332
:10315000590484ED96E09093550480935404809133
:1031600070008E7F809370008091B0008C7F809380
:10317000B0008091B100877F8093B1008091B6004C
:103180008F7D8093B600809170008D7F809370005A
:103190008091B10084608093B1008091B1008C7FF8
:1031A0008093B10086E090E09093530480935204A2
:1031B0000E941F130E94A8106093690470936A0410
:1031C00080936B0490936C0460935D0470935E0431
:1031D00080935F049093600480917B00886080936B
:1031E0007B0086E480937C0080917A0080648093E9
:1031F0007A0080917A0086FDFCCF60917800809102
:10320000790070E0782B072E000C880B990B611564
:1032100071058105910511F00E94312962E08FE26C
:103220000E949D0F62E080E30E949D0F62E081E3B7
:103230000E949D0F8FE20E94440F21E0892B09F02C
:1032400020E0209300020E94131088E08093A205E2
:1032500060E087E995E00E94351316E161E0812F77
:103260000E949D0F1F5F1E32C9F712E061E0812F9F
:103270000E949D0F1F5F1E30C9F7E0910405F09179
:10328000050582E08083E0910005F0910105108240
:10329000E0910205F09103058FEC808310920C05FC
:1032A000E0910805F091090586E08083E09106052C
:1032B000F0910705808180618083E0910605F0919F
:1032C0000705808188608083E0910605F0910705FD
:1032D000808180688083E0910605F09107058081F8
:1032E0008F7D80830E942D2927E030E040E050E070
:1032F0000E94DF2CDC01CB010397A109B109809367
:103300006E0480E30E94440F892B19F487EE8093AA
:103310006D0480916D04082E000C990BAA0BBB0B59
:103320008A30910510F00C940C25FC018827EE588A
:10333000FF4F8F4F0C94C82E8FEF80936D040E9427
:10334000131068EB7BE088EB92E00E94950360EC41
:1033500072E0CE0101960E946117CE0101960E9493
:10336000AB05CE0101960E94661680E00E94E40D36
:1033700088EB93E00E94C30D81E00E94E40D87EA90
:1033800093E00E94C30D0E94DA138091690490912A
:103390006A04A0916B04B0916C0440915D0450915B
:1033A0005E0460915F0470916004841B950BA60B12
:1033B000B70B20917306211124C020915C062111C6
:1033C00020C02091450621111CC020912E062111FC
:1033D00018C020911706211114C020910006211158
:1033E00010C02091E90521110CC02091D2052111B6
:1033F00008C02091BB05211104C02091A4052223FF
:10340000C1F2803325E79207A105B10590F60E942D
:10341000DA1368E973E0CE0101960E942017CE010D
:1034200001960E94AB05CE0101960E94661680E0CF
:103430000E94E40D87E893E00E94C30D81E00E94A2
:10344000E40D86E793E00E94C30D0E942D2924E835
:1034500033E040E050E00E94DF2C4B015C0154E679
:10346000850E911CA11CB11CC12CD12C7601C6016A
:10347000880D991D18161906C4F50E94A8106093AE
:10348000690470936A0480936B0490936C0412E057
:1034900061E0812F0E946D0F1F5F1E30C9F726016A
:1034A0003701480C591C6A1C7B1CC301B2010E94E5
:1034B000D90F12E060E0812F0E946D0F1F5F1E3058
:1034C000C9F7C301B2010E94D90F8091730681111F
:1034D0000C9440258091000634E6C31AD108E10817
:1034E000F108882321F20C94402563E173E0CE01BA
:1034F00001960E942017CE0101960E94AB05CE01D5
:1035000001960E94661680E00E94E40D82E093E03E
:103510000E94C30D81E00E94E40D81EF92E00E94C1
:10352000C30D68EE73E08EEE92E00E9495030E9458
:10353000A8106093690470936A0480936B0490935D
:103540006C048091730681110C94272680910006EB
:10355000882369F30C94272681E00E94E40D609192
:103560007804062E000C770B4AE0CE0101960E94EB
:10357000F41660917904062E000C770B4AE0CE0118
:103580000A960E94F4166EE073E0CE0140960E9407
:103590006117BE01665F7F4FCE0140960E94041600
:1035A00063E173E00E94FE10BE016F5F7F4F0E94D7
:1035B000041667EC73E00E94FE10BC0187E995E0F9
:1035C0000E941518CE0140960E946616CE010A96FA
:1035D0000E946616CE0101960E9466160E94A810EF
:1035E0006093690470936A0480936B0490936C04F5
:1035F000C0907404D0907504E0907604F090770445
:103600000091700410917104209172043091730440
:10361000C114D104E104F104A9F04B015C018C1840
:103620009D08AE08BF0840E284164FEB940642E0C6
:10363000A406B10438F0011511052105310511F476
:1036400085E014C0011511052105310599F04B01E4
:103650005C01801A910AA20AB30A40E284164FEB79
:10366000940642E0A406B10428F086E080936D043D
:103670000C949E2540917A0400915D0410915E04A3
:1036800020915F0430916004DC01CB01801B910B21
:10369000A20BB30B411108C080319742A105B105BF
:1036A00008F45CC084E0E2CF309103022091040270
:1036B000843F41E09407A105B10510F13230A9F52E
:1036C00040910202042E000C550BE22FEE0FFF0B6F
:1036D000CF01841B950BE417F50719F08B3091058A
:1036E00021F540915C04042E000C550B2091010241
:1036F00064E070E0621B710927FD73950C94E92664
:103700008C329140A105B10580F485E02802F001DA
:103710001124E30FF11D37FDFA95EE0FFF1FE05F57
:10372000FD4F80818F3F09F04CC040915C04042E16
:10373000000C550B632F660F770B80910102681BFD
:10374000710987FD7395822F880F990B20910202D2
:10375000821B910927FD93950C94E92610915C0436
:103760001130B1F480912E0681110C948526809140
:10377000450681110C94682680915C0681110C9499
:1037800076268091170681110C9460260C949E2554
:103790001F3F09F028C18091BB0581110C949F2621
:1037A0008091D20581110C94AD268091E90581119B
:1037B0000C94BB268091A40581110C9497260C943F
:1037C0009E258181813009F00EC180915B048111B9
:1037D0000AC180917306882309F405C180915A04B7
:1037E0008130C9F580915C048130A9F58091010296
:1037F000C0906504D0906604E0906704F09068047F
:10380000381779F020E030E040E450E4C701B60119
:103810000E94282C87FF05C020E030E040E85FE3ED
:103820000EC020E030E040E450E4C701B6010E9441
:10383000282C87FF10C020E030E040E05FE3C701A4
:10384000B6010E94432D60936504709366048093D3
:103850006704909368040E942D29C0906504D0905D
:103860006604E0906704F090680480907C06909075
:103870007D06A0907E06B0907F062AE030E040E012
:1038800050E00E94DF2C20916E04022F220F110BBA
:10389000220B330B600F711F821F931F0E942F2C6E
:1038A000A70196010E94432D2B013C0180916904E0
:1038B00090916A04A0916B04B0916C0400915D0436
:1038C00010915E0420915F0430916004BC01CD0131
:1038D000601B710B820B930B0E942D2C20E030E0BB
:1038E00048EC52E40E94C62D20E030E040E050E475
:1038F0000E94422D9B01AC01C301B2010E94422DE6
:10390000A50194010E94422D4B015C0122E0B70108
:10391000A601CE010A960E946B1680916E04682F54
:10392000880F770B4AE0CE0140960E94F41622E001
:10393000B501A401CE0146960E946B166BE173E0BF
:10394000CE014C960E946117BE016A5E7F4FCE0188
:103950004C960E9404166CE074E00E94FE10BE01BA
:10396000605F7F4F0E9404166CE074E00E94FE10BE
:10397000BE01665F7F4F0E9404166CE074E00E94F7
:10398000FE10BC01CE0101960E945817CE0101968F
:103990000E94AB05CE0101960E946616CE014C96A0
:1039A0000E946616CE0146960E946616CE0140968B
:1039B0000E946616CE010A960E94661620E030E04C
:1039C00040E850E4C501B4010E94AF2E181644F43B
:1039D0000E94DA1310927A0481E080935B0428C17C
:1039E00081E080935B0480917A04882311F40C9425
:1039F0009E2580910302E091040295E0E902F00126
:103A00001124E80FF11D87FDFA95EE0FFF1FE05F0F
:103A1000FD4F91819F3F11F00C949E2590915B0486
:103A200091110C949E2590910006992311F40C9409
:103A30009E2590915A049F3FC9F590915C049F3F49
:103A4000A9F590910102C0906104D0906204E090C9
:103A50006304F0906404891779F020E030E040E4DA
:103A600050E4C701B6010E94282C87FF05C020E062
:103A700030E040E85FE30EC020E030E040E450E496
:103A8000C701B6010E94282C87FF10C020E030E05B
:103A900040E05FE3C701B6010E94432D60936104DB
:103AA0007093620480936304909364040E942D29B0
:103AB000C0906104D0906204E0906304F0906404CC
:103AC0008090090690900A06A0900B06B0900C0614
:103AD0002AE030E040E050E00E94DF2C20916E04AC
:103AE000022F220F110B220B330B600F711F821F4D
:103AF000931F0E942F2CA70196010E94432D2B019A
:103B00003C018091690490916A04A0916B04B0918A
:103B10006C0400915D0410915E0420915F0430916B
:103B20006004BC01CD01601B710B820B930B0E94E2
:103B30002D2C20E030E048EC52E40E94C62D20E01D
:103B400030E040E050E40E94422D9B01AC01C301F3
:103B5000B2010E94422DA50194010E94422D4B0109
:103B60005C0122E0B701A601CE010A960E946B1605
:103B700080916E04682F880F770B4AE0CE01409643
:103B80000E94F41622E0B501A401CE0146960E94DF
:103B90006B166AE273E0CE014C960E946117BE017B
:103BA0006A5E7F4FCE014C960E9404166CE074E072
:103BB0000E94FE10BE01605F7F4F0E9404166CE001
:103BC00074E00E94FE10BE01665F7F4F0E940416E3
:103BD0006CE074E00E94FE10BC01CE0101960E94D0
:103BE0005817CE0101960E94AB05CE0101960E94A6
:103BF0006616CE014C960E946616CE0146960E942D
:103C00006616CE0140960E946616CE010A960E9464
:103C1000661620E030E040E850E4C501B4010E949F
:103C2000AF2E181644F40E94DA1310927A048FEF24
:103C300080935C0483C781E080935B047FC70E940C
:103C4000A8106093690470936A0480936B04909346
:103C50006C0467E373E0CE0101960E946117CE0108
:103C600001960E94AB05CE0101960E9466166AEF8E
:103C700070E08EEE92E00E9495038091690490912D
:103C80006A04A0916B04B0916C0480935D049093DE
:103C90005E04A0935F04B09360040E94DA13109254
:103CA0007A0481E080936D0490915C04809103021A
:103CB00061E0913009F058C0811126C089E00E946E
:103CC0006D0F61E08CE00E946D0F64EF71E080E0A9
:103CD00090E00E94D90F60E089E00E946D0F60E0E3
:103CE0008CE00E946D0F809104029FEF980F93303B
:103CF00028F44FEF5FEF61E070E025C084504FEF94
:103D00005FEF61E070E028C083E00E946D0F61E02A
:103D100086E00E946D0F64EF71E080E090E00E9409
:103D2000D90F60E083E00E946D0F60E086E00E94A2
:103D30006D0F809104029FEF980F933040F44FEF86
:103D40005FEF63E070E082E090E00C94E92684503D
:103D50004FEF5FEF63E070E0833010F40C94E726E0
:103D600088E090E00C94E926811126C088E00E944A
:103D70006D0F61E08BE00E946D0F64EF71E080E0F9
:103D800090E00E94D90F60E088E00E946D0F60E033
:103D90008BE00E946D0F8091040298EF980F933092
:103DA00028F441E050E061E070E025C0855041E03A
:103DB00050E061E070E027C082E00E946D0F61E09A
:103DC00085E00E946D0F64EF71E080E090E00E945A
:103DD000D90F60E082E00E946D0F60E085E00E94F4
:103DE0006D0F8091040298EF980F933038F441E002
:103DF00050E063E070E089E090E0EBC7855041E07F
:103E000050E063E070E0833018F487E090E0E1C7B1
:103E100083E090E0DEC70E94A8106093690470936D
:103E20006A0480936B0490936C046EEE72E08EEEE5
:103E300092E00E9495030E94DA1310927A04109285
:103E40006504109266041092670410926804109240
:103E5000610410926204109263041092640481E081
:103E600080936D0480E00E94E40D809104026091D3
:103E7000780481118EC06F5F60937804062E000C69
:103E8000770B4AE0CE010A960E94F41660917904FD
:103E9000062E000C770B4AE0CE0140960E94F416E5
:103EA00063E473E0CE0146960E946117BE01605F35
:103EB0007F4FCE0146960E9404166CE074E00E948B
:103EC000FE10BE01665F7F4F0E9404166BE074E037
:103ED0000E94FE10BC01CE0101960E945817CE012F
:103EE00001960E94AB05CE0101960E946616CE0196
:103EF00046960E946616CE0140960E946616CE0136
:103F00000A960E94661660917804062E000C770BC4
:103F10004AE0CE0101960E94F41660917904062EC3
:103F2000000C770B4AE0CE010A960E94F4166EE46C
:103F300073E0CE0140960E946117BE01665F7F4F1D
:103F4000CE0140960E94041669EC73E00E94FE10B8
:103F5000BE016F5F7F4F0E94041668EC73E00E9401
:103F6000FE10BC0187E995E00E941518CE0140962D
:103F70000E946616CE010A960E946616CE01019630
:103F80000E94661641E050E062E070E085E090E05B
:103F90008FC0809179048F5F80937904062E000C86
:103FA000770B4AE0CE010A960E94F41660917904DC
:103FB000062E000C770B4AE0CE0140960E94F416C4
:103FC00069E573E0CE0146960E946117BE01605F0D
:103FD0007F4FCE0146960E9404166CE074E00E946A
:103FE000FE10BE01665F7F4F0E9404166BE074E016
:103FF0000E94FE10BC01CE0101960E945817CE010E
:1040000001960E94AB05CE0101960E946616CE0174
:1040100046960E946616CE0140960E946616CE0114
:104020000A960E94661660917804062E000C770BA3
:104030004AE0CE0101960E94F41660917904062EA2
:10404000000C770B4AE0CE010A960E94F41666E651
:1040500073E0CE0140960E946117BE01665F7F4FFC
:10406000CE0140960E94041669EC73E00E94FE1097
:10407000BE016F5F7F4F0E94041668EC73E00E94E0
:10408000FE10BC0187E995E00E941518CE0140960C
:104090000E946616CE010A960E946616CE0101960F
:1040A0000E9466164FEF5FEF62E070E086E090E0FE
:1040B0000E94F1138091690490916A04A0916B04AD
:1040C000B0916C0480935D0490935E04A0935F04B0
:1040D000B093600433C50E94A81060936904709384
:1040E0006A0480936B0490936C0461E773E0CE01E3
:1040F00001960E946117CE0101960E94AB05CE0188
:1041000001960E9466166AEF70E08EEE92E00E94C1
:1041100095038091690490916A04A0916B04B09119
:104120006C0480935D0490935E04A0935F04B0934D
:1041300060040E94DA1310927A04109265041092BF
:104140006604109267041092680410926104109241
:104150006204109263041092640481E080936D0401
:1041600090915C0480910402913009F04EC08B3034
:10417000D9F461E086E00E946D0F61E08CE00E945E
:104180006D0F64EF71E080E090E00E94D90F60E075
:1041900086E00E946D0F60E08CE00E946D0F4FEF93
:1041A0005FEF62E070E010C68111C8C461E083E097
:1041B0000E946D0F61E089E00E946D0F64EF71E075
:1041C00080E090E00E94D90F60E083E00E946D0FD4
:1041D00060E089E00E946D0F809103029DEF980FCF
:1041E000923008F4DCC5823009F0DEC50E942D292A
:1041F00022E030E040E050E00E94DF2C61307105A9
:104200008105910509F4CBC5CFC581111BC061E0C3
:1042100082E00E946D0F61E088E00E946D0F64EF04
:1042200071E080E090E00E94D90F60E082E00E949F
:104230006D0F60E088E00E946D0F41E050E062E0A9
:1042400070E0B6C58B3009F079C461E085E00E946A
:104250006D0F61E08BE00E946D0F64EF71E080E014
:1042600090E00E94D90F60E085E00E946D0F60E051
:104270008BE00E946D0F809103029DEF980F9230AA
:1042800008F499C5823009F09BC50E942D2922E0CF
:1042900030E040E050E00E94DF2C61307105810584
:1042A000910509F488C58CC50E94A8106093690423
:1042B00070936A0480936B0490936C046EE773E0D0
:1042C000CE0101960E946117CE0101960E94AB05B6
:1042D000CE0101960E94661680E00E94E40D89ECF2
:1042E00093E00E94C30D6AEF70E08EEE92E00E94B0
:1042F00095038091690490916A04A0916B04B09138
:104300006C0480935D0490935E04A0935F04B0936B
:1043100060040E94DA1310927A04109265041092DD
:10432000660410926704109268041092610410925F
:104330006204109263041092640481E080936D041F
:1043400080915C04813039F44FEF5FEF62E070E000
:1043500086E090E03EC58F3F09F0F0C341E050E0B9
:1043600062E070E085E090E034C568EE73E08EEEC8
:1043700092E00E9495030E94A810609369047093D4
:104380006A0480936B0490936C0460916F04062E12
:10439000000C770B4AE0CE010A960E94F4166AE8F8
:1043A00073E0CE0140960E946117BE01665F7F4FA9
:1043B000CE0140960E9404166AE074E00E94FE104E
:1043C000BC01CE0101960E945817CE0101960E94B1
:1043D000AB05CE0101960E946616CE0140960E9462
:1043E0006616CE010A960E94661680E00E94E40DD1
:1043F0008AED93E00E94C30D81E00E94E40D40E14C
:1044000050E063E973E087E995E00E9472150E942D
:10441000DA1310927A0410926504109266041092D6
:104420006704109268041092610410926204109262
:1044300063041092640481E080936D0480916F04A2
:10444000813039F041E050E062E070E085E090E0DA
:1044500006C04FEF5FEF62E070E086E090E00E9400
:10446000F1138091730681112FC080915C06811138
:104470002BC080914506811127C080912E068111A5
:1044800023C08091170681111FC080910006811101
:104490001BC08091E905811117C08091D20581115F
:1044A00013C08091BB0581110FC08091A4058111BB
:1044B0000BC00E94A8106093690470936A048093F3
:1044C0006B0490936C04CDCFC0906904D0906A04C3
:1044D000E0906B04F0906C0480915D0490915E0418
:1044E000A0915F04B091600446015701881A990AAF
:1044F000AA0ABB0A20E3821625E79206A104B104AA
:10450000C0F66AEF70E08EEE92E00E9495030E9482
:10451000A810609370047093710480937204909358
:104520007304C0925D04D0925E04E0925F04F09246
:10453000600404C30E94A8106093690470936A0425
:1045400080936B0490936C0468EE73E08EEE92E0BF
:104550000E9495030E94DA1310927A041092650467
:10456000109266041092670410926804109261041D
:1045700010926204109263041092640464EA73E07F
:10458000CE0101960E946117CE0101960E94AB05F3
:10459000CE0101960E94661690917904809178046C
:1045A00089170CF060C080E00E94E40D80E494E084
:1045B0000E94C30D81E00E94E40D60917804062EF4
:1045C000000C770B4AE0CE0101960E94F416609130
:1045D0007904062E000C770B4AE0CE010A960E9461
:1045E000F4166EE073E0CE0140960E946117BE01A2
:1045F000665F7F4FCE0140960E94041663E173E030
:104600000E94FE10BE016F5F7F4F0E94041669EC8E
:1046100073E00E94FE10BC0187E995E00E94151826
:10462000CE0140960E946616CE010A960E9466163A
:10463000CE0101960E94661660917804062E000C49
:10464000770B4AE0CE010A960E94F4166091790435
:10465000062E000C770B4AE0CE0140960E94F4161D
:104660006AEF72E0C2C098170CF060C080E00E9450
:10467000E40D8FE294E00E94C30D81E00E94E40DFE
:1046800060917804062E000C770B4AE0CE0101966B
:104690000E94F41660917904062E000C770B4AE014
:1046A000CE010A960E94F4166EE073E0CE014096A9
:1046B0000E946117BE01665F7F4FCE0140960E9447
:1046C000041663E173E00E94FE10BE016F5F7F4F2E
:1046D0000E94041669EC73E00E94FE10BC0187E999
:1046E00095E00E941518CE0140960E946616CE01F4
:1046F0000A960E946616CE0101960E946616609187
:104700007804062E000C770B4AE0CE010A960E9430
:10471000F41660917904062E000C770B4AE0CE0166
:1047200040960E94F41665E073E05FC080E00E944E
:10473000E40D8EE194E00E94C30D81E00E94E40D3F
:1047400060917804062E000C770B4AE0CE010196AA
:104750000E94F41660917904062E000C770B4AE053
:10476000CE010A960E94F4166EE073E0CE014096E8
:104770000E946117BE01665F7F4FCE0140960E9486
:10478000041663E173E00E94FE10BE016F5F7F4F6D
:104790000E94041669EC73E00E94FE10BC0187E9D8
:1047A00095E00E941518CE0140960E946616CE0133
:1047B0000A960E946616CE0101960E9466166091C6
:1047C0007804062E000C770B4AE0CE010A960E9470
:1047D000F41660917904062E000C770B4AE0CE01A6
:1047E00040960E94F41661EB73E0CE0146960E945B
:1047F0006117BE01605F7F4FCE0146960E9404168E
:104800006CE074E00E94FE10BE01665F7F4F0E9464
:1048100004166BE074E00E94FE10BC01CE0101960C
:104820000E945817CE0101960E94AB05CE01019659
:104830000E946616CE0146960E946616CE014096EC
:104840000E946616CE010A960E94661668E57BE114
:1048500080E090E00E94D90F80E00E94E40D8DE09E
:1048600094E00E94C30D81E00E94E40D6091780401
:10487000062E000C770B4AE0CE0101960E94F4163A
:1048800060917904062E000C770B4AE0CE010A965F
:104890000E94F4166EE073E0CE0140960E9461170C
:1048A000BE01665F7F4FCE0140960E94041663E111
:1048B00073E00E94FE10BE016F5F7F4F0E940416DE
:1048C00069EC73E00E94FE10BC0187E995E00E944C
:1048D0001518CE0140960E946616CE010A960E94D7
:1048E0006616CE0101960E94661680916904909129
:1048F0006A04A0916B04B0916C0480935D04909362
:104900005E04A0935F04B093600468EB7BE080E0FA
:1049100090E00E94D90F80E00E94E40D8CEF93E0BC
:104920000E94C30D81E00E94E40D8BEE93E00E9493
:10493000C30D8091730681112FC080915C06811197
:104940002BC080914506811127C080912E068111D0
:1049500023C08091170681111FC08091000681112C
:104960001BC08091E905811117C08091D20581118A
:1049700013C08091BB0581110FC08091A4058111E6
:104980000BC00E94A8106093690470936A0480931E
:104990006B0490936C04CDCF8091690490916A046C
:1049A000A0916B04B0916C0440915D0450915E0441
:1049B00060915F0470916004841B950BA60BB70B8C
:1049C00080339547A105B105E0F610926D04109271
:1049D000690410926A0410926B0410926C04109295
:1049E0005D0410925E0410925F04109260041092B5
:1049F0007404109275041092760410927704109249
:104A0000700410927104109272041092730440E0CA
:104A100050E061E070E0DBC10E94DA1330E1A32EC8
:104A200032E0B32EE12CF12C00E010E0809173060F
:104A3000811116C380915C06811112C380914506D5
:104A400081110EC380912E0681110AC38091170631
:104A5000811106C380910006811102C38091E9058E
:104A60008111FEC28091D2058111FAC28091BB05ED
:104A70008111F6C28091A405882309F4ADC1F0C26A
:104A80008091730681115EC080910006882309F42D
:104A900074C080E00E94E40D84E593E00E94C30DA1
:104AA00081E00E94E40D83E493E00E94C30D6091D5
:104AB0006F04062E000C770B4AE0CE010A960E9486
:104AC000F4166CEC72E0CE0140960E946117BE01B4
:104AD000665F7F4FCE0140960E9404166AE074E044
:104AE0000E94FE10BC01CE0101960E945817CE0113
:104AF00001960E94AB05CE0101960E946616CE017A
:104B000040960E946616CE010A960E94661611E033
:104B100010936D0441E050E062E070E085E090E0C9
:104B20000E94F11310936F040E94A8106093740404
:104B30007093750480937604909377040E94D91142
:104B40000C94721980910006882309F49DCF80E0AF
:104B50000E94E40D85E693E00E94C30D61ED73E0D1
:104B6000CE0101960E946117CE0101960E94AB050D
:104B7000CE0101960E946616D7CF809173068823D6
:104B800099F280E00E94E40D82E393E00E94C30D5D
:104B900081E00E94E40D81E293E00E94C30D6091E8
:104BA0006F04062E000C770B4AE0CE010A960E9495
:104BB000F4166CED72E018C080910006882309F4A9
:104BC000B3CF80E00E94E40D8EEB92E00E94C30D13
:104BD00060916F04062E000C770B4AE0CE010A9616
:104BE0000E94F41665E073E0CE0140960E946117C2
:104BF000BE01665F7F4FCE0140960E9404166AE0B8
:104C000074E00E94FE10BC01CE0101960E9458176C
:104C1000CE0101960E94AB05CE0101960E94661658
:104C2000CE0140960E946616CE010A960E94661634
:104C300081E080936D044FEF5FEF62E070E086E00B
:104C400090E00E94F1138FEF80936F046DCF8091FD
:104C500073068823E1F0809100068823C1F080E08C
:104C60000E94E40D80EE92E00E94C30D65EE73E0B9
:104C7000CE0101960E946117CE0101960E94AB05FC
:104C8000CE0101960E94661610926D044DCF809160
:104C90007306882309F490CF80E00E94E40D8FEC26
:104CA00092E00E94C30D60916F04062E000C770BFA
:104CB0004AE0CE010A960E94F4166AEF72E003CF32
:104CC00060910302062E000C770B6F5F7F4F15C0BB
:104CD00060910302062E000C770B80910402082ECF
:104CE000000C990B41E050E001971CC06091030259
:104CF000062E000C770B615071098091040241E08F
:104D000050E0082E000C990B0DC060910302062E96
:104D1000000C770B80910402082E000C990B41E0E7
:104D200050E001960E94F11310937A0407CF60912E
:104D30000302062E000C770B6150710923C06091AD
:104D40000302062E000C770B80910402082E000C43
:104D5000990B4FEF5FEF01971CC060910302062E85
:104D6000000C770B80910402082E000C990B4FEF7A
:104D70005FEF01960EC060910302062E000C770BC8
:104D80006F5F7F4F809104024FEF5FEF082E000CA2
:104D9000990B0E94F11381E080937A04CFCE4FEFFC
:104DA0005FEF63E070E004C04FEF5FEF61E070E041
:104DB00081E090E00EC041E050E063E070E004C0AC
:104DC00041E050E061E070E08AE090E002C084E001
:104DD00090E00E94F113B2CEF801EE0FFF1FEA0D32
:104DE000FB1DD0808FEF8D0D843008F08FC08D2D8E
:104DF00042E0D49E800D11249DEF792E780E22E0A2
:104E0000C22ED12C872C912C80E00E94E40D4AE028
:104E1000B801CE0101960E94F4164AE0B701CE0116
:104E20000A960E94F4166BEB73E0CE0140960E9446
:104E30006117BE01665F7F4FCE0140960E94041647
:104E400060EC73E00E94FE10BE016F5F7F4F0E9416
:104E5000041663EC73E00E94FE10BC0187E995E044
:104E60000E941518CE0140960E946616CE010A9641
:104E70000E946616CE0101960E94661681E00E948D
:104E8000E40DB601680D791D4AE0CE0101960E943D
:104E9000F4166BEC73E0CE010A960E946117BE0116
:104EA0006F5F7F4FCE010A960E94041663EC73E099
:104EB0000E94FE10BC0187E995E00E941518CE0102
:104EC0000A960E946616CE0101960E946616672C0D
:104ED0006C0C61E0862D0E946D0F68EE73E080E03F
:104EE00090E00E94D90F60E0862D0E946D0F68EE61
:104EF00073E080E090E00E94D90F5FEFC51AD50AF9
:104F000085E0C816D10409F07FCF98C09FEFD9166D
:104F100009F494C080E00E94E40D1B861A861D8669
:104F20001C861F861E864AE0BE016F5F7F4FC80148
:104F30000E949829BE016F5F7F4FCE010A960E94A2
:104F40003816198A188A1B8A1A8A1D8A1C8A4AE00E
:104F5000BE016F5F7F4FC7010E949829BE016F5F3E
:104F60007F4FCE0140960E9438166BEB73E0CE0166
:104F700001960E946117BE01605F7F4FCE010196CE
:104F80000E94041660EC73E00E94FE10BE01665F92
:104F90007F4F0E94041663EC73E00E94FE10BC0178
:104FA00087E995E00E941518CE0101960E946616C9
:104FB000CE0140960E946616CE010A960E946616A1
:104FC00081E00E94E40D6D2D0D2C000C770B4AE062
:104FD000CE0101960E94F4166BEC73E0CE010A96A6
:104FE0000E946117BE016F5F7F4FCE010A960E943B
:104FF000041663EC73E00E94FE10BC0187E995E0A3
:105000000E941518CE010A960E946616CE010196DE
:105010000E94661661E08D2D0E946D0F68EE73E0B0
:1050200080E090E00E94D90F60E08D2D0E946D0F0E
:1050300068EE73E080E090E00E94D90F0F5F1F4F91
:105040000530110509F0F2CC2FEFE21AF20A3AE02E
:10505000A30EB11C4AE0E416F10409F0E5CC6ECDD4
:1050600010926D046BCDE8EEF4E01382128288EEAC
:1050700093E0A0E0B0E084839583A683B78324E91E
:1050800032E031832083E4EFF4E0138212828483E0
:105090009583A683B78384EA92E09183808385EC2D
:1050A00090E09587848784EC90E09787868780ECF2
:1050B00090E0918B808B81EC90E0938B828B82ECE3
:1050C00090E0958B848B86EC90E0978B868B118E8D
:1050D000128E138E148E43E066E382E796E00E9400
:1050E000760C43E067E38BE596E00E94760C43E0A4
:1050F00068E384E496E00E94760C43E069E38DE285
:1051000096E00E94760C43E06AE386E196E00E9416
:10511000760C43E06BE38FEF95E00E94760C43E062
:105120006CE388EE95E00E94760C43E06DE381ED40
:1051300095E00E94760C43E06EE38AEB95E00E94D6
:10514000760C43E06FE383EA95E00E94760CE7E992
:10515000F5E01382128284EB92E0918380838FE3E7
:10516000848380E1818782E0828713866BEF73E01E
:1051700081E995E00C94611781E995E00C9466163D
:10518000EF920F931F93CF93DF93E80147FD02C087
:1051900034E001C034E1E42F440FFF0BF7FF03C0FC
:1051A000F195E195F109E32E022F2E2FAE010E9419
:1051B000B229CE01DF91CF911F910F91EF90089509
:1051C0008F929F92AF92BF92CF92DF92EF92FF9217
:1051D000CF93DF93EC01688179818A819B8161158E
:1051E00071058105910521F464E279ED8BE597E085
:1051F0002DE133EF41E050E00E94DF2C49015A01DC
:105200009B01AC01A7EAB1E40E94FE2C6B017C017A
:10521000ACEEB4EFA50194010E940C2DDC01CB0192
:105220008C0D9D1DAE1DBF1DB7FF03C00197A109C9
:10523000B04888839983AA83BB83BC01CD019F7743
:10524000DF91CF91FF90EF90DF90CF90BF90AF9024
:105250009F908F9008950C94E02886E092E00C9443
:10526000E0286093060270930702809308029093EF
:1052700009020895FB01DC0105900D920020E1F781
:105280000895FC0105900020E9F7809590958E0F18
:105290009F1F08954532510520F4423010F00C94C0
:1052A0005529FB011082CB010895BB274A3031F408
:1052B000992322F4BDE2909581959F4F0C949929F2
:1052C0002532310520F4223010F00C946B29FA01BC
:1052D0001082CA010895BB27FA01A62F6217710533
:1052E00081059105330B30FB66F0AA27660F771F07
:1052F000881F991FAA1FA21710F0A21B6395385090
:10530000A9F7A05DAA3308F0A95DA19336F7B11102
:10531000B1931082CA010C94182C4532510520F427
:10532000423010F00C949829FB011082CB010895B3
:10533000BB27FB015527AA27880F991FAA1FA4176F
:1053400010F0A41B83955051B9F7A05DAA3308F063
:10535000A95DA193009779F7B111B1931192CB0197
:105360000C94182C4F925F926F927F929F92AF9203
:10537000BF92CF92DF92EF92FF920F931F93CF9342
:10538000DF93CDB7DEB729970FB6F894DEBF0FBE17
:10539000CDBF6A01122FB02E2BE3201720F0FF247F
:1053A000F394F00E02C0BCE3FB2E0F2D27E0AE01FC
:1053B0004F5F5F4F0E94402BAC018981982F9970FD
:1053C000913031F0E1FC06C0E0FE06C090E205C07D
:1053D0009DE203C09BE201C090E0EE2DE07183FFEF
:1053E0003CC0911102C083E001C084E0811718F431
:1053F000212F281B01C020E0E1110BC0F601822FF4
:1054000030E2882319F031938150FBCFC20ED11CBA
:1054100020E0992329F0D6019C93F60131966F0183
:10542000C6010396E2FE0AC03EE4D6013C9341E485
:1054300011964C93119712963C9306C03EE6F601E6
:10544000308341E641833283FC01322F40E2332333
:1054500009F442C041933150FACF82FF44C0911108
:1054600002C083E001C084E0811718F4212F281BBB
:1054700001C020E0E1110BC0F601822F30E2882349
:1054800019F031938150FBCFC20ED11C20E099233B
:1054900029F0D6019C93F60131966F01C60103965F
:1054A000E2FE0BC039E4D6013C933EE411963C93F6
:1054B000119736E412963C9307C039E6F601308323
:1054C0003EE6318336E63283FC01322F40E233235D
:1054D00019F041933150FBCFFC01E20FF11D108216
:1054E0008EEF9FEFB7C0F1E0911101C0F0E06F2F98
:1054F00070E01416150624F49A012F5F3F4F02C086
:1055000021E030E0260F371FBB2029F06B2D70E023
:105510006F5F7F4F02C060E070E0260F371F612F82
:1055200070E0261737071CF4121B212F01C020E062
:105530003E2D387159F4D601322F60E2332319F031
:105540006D933150FBCFC20ED11C20E0FF2331F010
:10555000D6019C93B6016F5F7F4F6B01E1110BC0C9
:10556000F601922F30E3992319F031939150FBCF3C
:10557000C20ED11C20E09F2D940F3A81782F7071BC
:10558000A72E84FF03C0313309F49150191624F477
:10559000993018F098E001C091E0E42F852F57FF73
:1055A00002C0E0E080E06E2F782FE0E0F0E0AEE2B5
:1055B0009A2E3A01691A71082A01461A570A0B2DC8
:1055C00010E01195019511096F3F8FEF780729F4CD
:1055D000D6019C92C60101966C014617570784F0CC
:1055E000661677066CF47F01E40CF51CA1E0B0E0D0
:1055F000AC0FBD1FEA0EFB1ED7011196BC9002C076
:1056000090E3B92E615071093196C60101967C0173
:105610006017710724F0D601BC926C01D5CF6417D6
:10562000750741F4363320F4353321F4A11002C05C
:1056300081E3B82EF601B082F701822F90E2882331
:1056400019F091938150FBCFF701E20FF11D108209
:1056500080E090E029960FB6F894DEBF0FBECDBF74
:10566000DF91CF911F910F91FF90EF90DF90CF903E
:10567000BF90AF909F907F906F905F904F900895F4
:10568000283008F027E03327DA01990F311D87FD14
:10569000916000966105710539F432602E5F3D938B
:1056A00030E32A95E1F708959F3F30F08038710587
:1056B000610509F03C5F3C5F3D93913008F08068E4
:1056C000911DDF93CF931F930F93FF92EF92192FAA
:1056D000987F9695E92F96959695E90FFF27E25EBC
:1056E000FD4F99273327EE24FF24A701E7010590FA
:1056F0000894079428F4360FE71EF81E491F511D21
:10570000660F771F881F991F0694A1F705900794CD
:1057100028F4E70EF81E491F561FC11D770F881F7A
:10572000991F661F0694A1F70590079428F4F80EB8
:10573000491F561FC71FD11D880F991F661F771F4E
:105740000694A1F70590079420F4490F561FC71F30
:10575000D81F990F661F771F881F0694A9F7849199
:105760001095177041F0D695C79557954795F794C2
:10577000E7941A95C1F7E4ECF1E06894159015915F
:1057800035916591959105907FE27395E118F10A45
:10579000430B560BC90BD009C0F7E10CF11E431F98
:1057A000561FC91FD01D7EF4703311F48A95E6CFC1
:1057B000E894015030F0080F0AF40027021708F4AB
:1057C000202F2395022F7A3328F079E37D932A95B1
:1057D000E9F710C07D932A9589F606949795679509
:1057E000379517951794E118F10A430B560BC90B1F
:1057F000D00998F023957E9173957A3308F070E381
:105800007C932013B8F77E9170617D9330F083957F
:1058100071E37D9370E32A95E1F71124EF90FF90F7
:105820000F911F91CF91DF91992787FD9095089552
:10583000DC01FC01672F71917723E1F7329704C0F7
:105840007C916D9370836291AE17BF07C8F3089582
:105850000E946A2C08F481E00895E89409C097FB3F
:105860003EF490958095709561957F4F8F4F9F4F37
:105870009923A9F0F92F96E9BB279395F69587957B
:1058800077956795B795F111F8CFFAF4BB0F11F43E
:1058900060FF1BC06F5F7F4F8F4F9F4F16C08823E5
:1058A00011F096E911C0772321F09EE8872F762F1B
:1058B00005C0662371F096E8862F70E060E02AF05C
:1058C0009A95660F771F881FDAF7880F9695879548
:1058D00097F90895990F0008550FAA0BE0E8FEEF1D
:1058E00016161706E807F907C0F012161306E407A4
:1058F000F50798F0621B730B840B950B39F40A269D
:1059000061F0232B242B252B21F408950A2609F47A
:10591000A140A6958FEF811D811D089597F99F677E
:1059200080E870E060E008959FEF80EC0895002427
:105930000A941616170618060906089500240A94F4
:1059400012161306140605060895092E0394000C7A
:1059500011F4882352F0BB0F40F4BF2B11F460FF09
:1059600004C06F5F7F4F8F4F9F4F089557FD905832
:10597000440F551F59F05F3F71F04795880F97FB13
:10598000991F61F09F3F79F08795089512161306CD
:105990001406551FF2CF4695F1DF08C016161706FC
:1059A0001806991FF1CF8695710561050894089531
:1059B000E894BB2766277727CB0197F90895052E32
:1059C00097FB1EF400940E94F62C57FD07D00E940E
:1059D000112D07FC03D04EF40C94F62C50954095F5
:1059E000309521953F4F4F4F5F4F0895909580958B
:1059F000709561957F4F8F4F9F4F08950E94332D73
:105A0000A59F900DB49F900DA49F800D911D112412
:105A10000895B7FF0C94FE2C0E94FE2C821B930B62
:105A20000895A1E21A2EAA1BBB1BFD010DC0AA1FDF
:105A3000BB1FEE1FFF1FA217B307E407F50720F0F7
:105A4000A21BB30BE40BF50B661F771F881F991F72
:105A50001A9469F760957095809590959B01AC01BB
:105A6000BD01CF010895A29FB001B39FC001A39FC4
:105A7000700D811D1124911DB29F700D811D112487
:105A8000911D08955058BB27AA270E945A2D0C94A7
:105A9000A52C0E94972C38F00E949E2C20F039F4FF
:105AA0009F3F19F426F40C94942C0EF4E095E7FB38
:105AB0000C948E2CE92F0E94B62C58F3BA1762076B
:105AC00073078407950720F079F4A6F50C94D82C79
:105AD0000EF4E0950B2EBA2FA02D0B01B901900109
