:100000000C94F5010C9426020C9426020C94260202
:100010000C9426020C9426020C9426020C942602C0
:100020000C9426020C9426020C9426020C942602B0
:100030000C9426020C94F8130C9426020C941104D0
:100040000C9426020C9426020C9426020C94260290
:100050000C9426020C9426020C9426020C94C00FD9
:100060000C9426020C94DB030C94B1030C9426022E
:100070000C9426020C9426020C9426020C94260260
:100080000C9426020C9426020C9426020C94260250
:100090000C9426020C9426020C9426020C941E0D3D
:1000A0000C9426020C9426020C9426020C94260230
:1000B0000C9426020C9426020C9426020C94260220
:1000C0000C9426020C9426020C9426020C94260210
:1000D0000C9426020C9426020C9426020C94260200
:1000E0000C9426029B165117151A301CE51C721D24
:1000F0005E1E47164716DF1A550C580C470C4B0C62
:10010000510C8F0C5C0C600C660C6A0C6E0C740C41
:10011000780C7C0C8F0C820C860C8A0C0C94580C7E
:100120000C947B230C948F0C0C94E51C0C940B0CFE
:100130000C94151A0C94860C0C94B50B0C94471661
:100140000C947C0C0C9432030C94301C0C94721D97
:100150000C948A0C0C94740C0C94B6060C949002BB
:100160000C94C40B0C94B60B0C945C0C0C94780C93
:100170000C94D7020C9428020C946A0C0C94DB0BA0
:100180000C94820C0C949B160C94D30B0C94510C75
:100190000C946E0C0C94470C0C944B0C0C94511753
:1001A0000C9459020C94660C0C9433030C942605A1
:1001B0000C94B8130C945E1E0C94550C0C94600CAB
:1001C0000C944B020C94DF1A0C94370200407A1006
:1001D000F35A00A0724E18090010A5D4E80000E8F8
:1001E0007648170000E40B54020000CA9A3B000056
:1001F00000E1F505000080969800000040420F00E5
:100200000000A08601000000102700000000E803A5
:10021000000000006400000000000A000000000070
:100220000100000000002C76D888DC674F0823DF2F
:10023000C1DFAE59E1B1B796E5E3E453C63AE65102
:10024000997696E8E6C28426EB898C9B62ED407C29
:100250006FFCEFBC9C9F40F2BAA56FA5F490055AC5
:100260002AF75C936B6CF9676DC11BFCE0E40D47EA
:10027000FEF520E6B500D0ED902E0300943577050D
:100280000080841E080000204E0A000000C80C33C5
:100290003333330F986E12831141EF8D2114893B54
:1002A000E65516CFFEE6DB18D1844B381BF77C1DD4
:1002B000901DA4BBE424203284725E228100C9F127
:1002C00024ECA1E53D2700002100240027002A009E
:1002D0002D003000330001010000040107010A0174
:1002E000000020002300260029002C002F003200EF
:1002F0000001000003010601090100000A0B0209C8
:100300000C0D0E08070304010000000000000000AF
:1003100000000000000000000000000000000000DD
:10032000000000000000121110000000000000009A
:1003300000000000000000000000000000000000BD
:1003400001021020200808102040102040800201E7
:1003500002010804020101020408102040808040CC
:1003600020100804020180040201804020100804CB
:100370000201080402010102040810204080010269
:1003800004081020408000002200250028002B00D7
:100390002E003100340002010000050108010B01AC
:1003A00005050505070508080808020202020A0AF1
:1003B000080804040404010101010101010103030F
:1003C000030303030303040707070C0C0C0C0C0CBA
:1003D0000C0C0202020206060606060606060B0BB7
:1003E0000B0B0B0B0B0B02007B2311241FBECFEF5B
:1003F000D1E2DEBFCDBF00E00CBF16E0A0E0B2E06E
:10040000EAE0F8E500E00BBF02C007900D92A63AC3
:10041000B107D9F728E0A6EAB6E001C01D92AA3BD1
:10042000B207E1F711E0C5EFD1E000E006C0219787
:100430000109802FFE010E94D029C43FD10780E02E
:100440000807A9F70E94BA140C94032C0C9400001E
:10045000FC01538D448D252F30E0842F90E0821BCA
:10046000930B541710F0CF96089501970895FC014F
:10047000918D828D981761F0828DDF01A80FB11DDB
:100480005D968C91928D9F5F9F73928F90E00895FF
:100490008FEF9FEF0895FC01918D828D981731F0B9
:1004A000828DE80FF11D858D90E008958FEF9FEF0D
:1004B0000895FC01918D228D892F90E0805C9F4FE3
:1004C000821B91098F73992708958CE797E00E940A
:1004D000590221E0892B09F420E0822F0895FC01C4
:1004E000848DDF01A80FB11DA35ABF4F2C91848DBD
:1004F00090E001968F739927848FA689B7892C93F2
:10050000A089B1898C9180648C93938D848D98138C
:1005100006C00288F389E02D80818F7D8083089555
:10052000EF92FF920F931F93CF93DF93EC0181E043
:10053000888F9B8D8C8D981305C0E889F9898081FF
:1005400085FD24C0F62E0B8D10E00F5F1F4F0F733B
:100550001127E02E8C8DE8120CC00FB607FCFACFE5
:10056000E889F989808185FFF5CFCE010E946F026D
:10057000F1CF8B8DFE01E80FF11DE35AFF4FF082A2
:100580000B8FEA89FB898081806207C0EE89FF8931
:100590006083E889F98980818064808381E090E0CC
:1005A000DF91CF911F910F91FF90EF900895CF931E
:1005B000DF93EC01888D8823C9F0EA89FB8980816B
:1005C00085FD05C0A889B9898C9186FD0FC00FB63D
:1005D00007FCF5CF808185FFF2CFA889B9898C917E
:1005E00085FFEDCFCE010E946F02E7CFDF91CF9163
:1005F000089580E090E0892B21F00E94650281112E
:1006000025C080E090E0892B41F080E090E0892BCC
:1006100021F00E94000081111CC080E090E0892B35
:1006200041F080E090E0892B21F00E9400008111D0
:1006300013C080E090E0892BA1F080E090E0892B4E
:1006400081F00E94000081110AC008950E940000FC
:10065000D8CF0E940000E1CF0E940000EACF0C94A6
:1006600000000895089580E090E00895823081F0C0
:100670001CF4813031F020C0833089F08430B1F037
:100680001BC061307105C9F06F3F7F4FA9F417C0DF
:1006900061307105B1F06F3F7F4F71F414C061306C
:1006A000710599F06F3F7F4F39F411C061307105CA
:1006B00081F06F3F7F4F79F0089583E0089582E0E5
:1006C000089586E0089585E0089589E0089588E01A
:1006D00008958CE008958BE00895FF920F931F9387
:1006E000CF93DF93EC01088110E08A850E94500EC1
:1006F0000817190711F018862BC088858F5F888727
:100700009985891728F18881FF24F3948F258883A0
:1007100018868A819B818C010F5F1F4F1B830A8380
:100720000E94B40F9B01AC01B80180E090E00E94F0
:100730008528A8EEB3E00E9472280E94A1276C834E
:100740007D838E839F838881882321F0F98202C074
:1007500080E001C081E0DF91CF911F910F91FF9068
:1007600008951F920F920FB60F9211240BB60F929D
:100770002F933F934F935F936F937F938F939F93A9
:10078000AF93BF93EF93FF938CE797E00E946F02C4
:10079000FF91EF91BF91AF919F918F917F916F9159
:1007A0005F914F913F912F910F900BBE0F900FBE15
:1007B0000F901F9018951F920F920FB60F92112451
:1007C0000BB60F922F938F939F93EF93FF93E0912C
:1007D0008C07F0918D078081E0919207F09193074B
:1007E00082FD12C09081809195078F5F8F73209159
:1007F0009607821751F0E0919507F0E0E458F84F22
:10080000958F8093950701C08081FF91EF919F9113
:100810008F912F910F900BBE0F900FBE0F901F90D6
:1008200018951F920F920FB60F9211240BB60F92CC
:100830002F933F934F935F936F937F938F939F93E8
:10084000AF93BF93EF93FF938091AC069091AD0669
:100850008093B2008091AF069091B006A091B1064E
:10086000B091B2060196A11DB11D8093AF06909381
:10087000B006A093B106B093B2068091AF069091F6
:10088000B006A091B106B091B2064091A806509171
:10089000A9066091AA067091AB0684179507A60772
:1008A000B70710F18091AE0681111EC081E08093E0
:1008B000AE068091AF069091B006A091B106B091BE
:1008C000B206841B950BA60BB70B8093AF069093D3
:1008D000B006A093B106B093B206E091A606F091DF
:1008E000A70619951092AE06FF91EF91BF91AF91B7
:1008F0009F918F917F916F915F914F913F912F9138
:100900000F900BBE0F900FBE0F901F901895CF93B6
:10091000FC01C48121E02093ED06C093CC06109227
:100920001607109215078385682B80E797E00E94D1
:100930000B0C80911507813208F046C09091140786
:100940009111FCCF92E09093140791E090931307DC
:100950009FEF9093EE061092100780930F07ADEC77
:10096000B6E02FEE36E0F9019E2F921B981718F48F
:100970009D919193F9CF1092110780911107CC0F9F
:10098000C82BC093110780911207813061F4109237
:100990001207809111078093BB008091BC0083FDFA
:1009A000F8CF85EC01C085EE8093BC0080911407E0
:1009B0008230E1F38091EE068F3F31F08091EE06B8
:1009C000803211F08091EE061092160710921507F2
:1009D0001092ED06CF9108950F931F93CF938C0142
:1009E000C62F0E9487046C2F6460C8010E94870490
:1009F0006C2F6B7FC8010E94870483EC90E0019705
:100A0000F1F7CF911F910F910895FF920F931F93CC
:100A1000CF93DF931F92CDB7DEB78C01F62E962FC2
:100A2000907F692F642BC80149830E94EC0480E108
:100A3000F89EB00111244981642BC8010F90DF9109
:100A4000CF911F910F91FF900C94EC0441E00E9414
:100A5000050581E090E008951092890810927E08C3
:100A6000109273081092680810925D081092520854
:100A70001092470810923C081092310810922608F4
:100A80001092B306089520910002222359F0BC0170
:100A90008CE797E00E9497146BEA75E08CE797E08B
:100AA0000C94A51408950F931F93CF93DF93CDB7A4
:100AB000DEB7AA970FB6F894DEBF0FBECDBF9091F8
:100AC000040290930202909103029093010290918C
:100AD000B4069093CB068093040260930302409384
:100AE000B4060E94B40F6093B9067093BA0680935F
:100AF000BB069093BC064091B5065091B606609136
:100B0000B7067091B8062AE0CE014F960E94A31056
:100B10004091B9065091BA066091BB067091BC062F
:100B20002AE0CE0149960E94A3106091B406062ED9
:100B3000000C770B4AE0CE0143960E94D0106091E2
:100B40000302062E000C770B4AE0CE010D960E94A0
:100B5000D01060910402062E000C770B4AE0CE0103
:100B600007960E94D0106EEA75E0CE0101960E94B1
:100B7000E313BE01695F7F4FCE0101960E942310EF
:100B800068EB75E00E940A10BE01635F7F4F0E9410
:100B9000231068EB75E00E940A10BE016D5E7F4F66
:100BA0000E94231066E674E00E940A10BE01675E90
:100BB0007F4F0E94231061E673E00E940A10BE017D
:100BC000615E7F4F0E942310BC01CE0185960E947A
:100BD000FC10CE0185960E944305CE0185960E94A9
:100BE0006E10CE0101960E946E10CE0107960E94F3
:100BF0006E10CE010D960E946E10CE0143960E949B
:100C00006E10CE0149960E946E10CE014F960E9442
:100C10006E108091B9069091BA06A091BB06B09172
:100C2000BC068093B5069093B606A093B706B09322
:100C3000B8060E942C0580910302823009F089C019
:100C400080910402882319F08B3009F082C00E9441
:100C5000C1242AE030E040E050E00E945328209177
:100C6000BE06022F220F110B220B330BDC01CB012E
:100C7000800F911FA21FB31F0797A105B1050CF4A8
:100C800068C011E0909104022091030285E098026F
:100C9000F0011124E20FF11D27FDFA95EE0FFF1F61
:100CA000E05FFD4F80818F3FF9F03FEF380F343028
:100CB00070F490910202992311F09B30A9F4609195
:100CC000B406062E000C770B0E9436030AC086314C
:100CD0005CF0223031F4992311F09B3011F4112390
:100CE00019F061E00E94790E80910102E091020208
:100CF00095E0E902F0011124E80FF11D87FDFA9556
:100D0000EE0FFF1FE05FFD4F80818F3F71F09FEF7F
:100D1000980F943038F46091CB06062E000C770BB8
:100D20000E94360360E00E94790E809103028B7F5F
:100D300011F482E00BC0112311F089E007C080910B
:100D40000402882311F08B3031F483E08093BD06D8
:100D500002C010E097CFAA960FB6F894DEBF0FBE80
:100D6000CDBFDF91CF911F910F910895CF93DF9366
:100D7000CDB7DEB7A4970FB6F894DEBF0FBECDBFD8
:100D800088E898E00E946D03882309F472C04091BE
:100D90008C0850918D0860918E0870918F0822E028
:100DA000CE0149960E9473104091B5065091B60647
:100DB0006091B7067091B8062AE0CE0143960E9472
:100DC000A3104091B9065091BA066091BB0670918C
:100DD000BC062AE0CE010D960E94A31066E674E0E0
:100DE000CE0107960E94E3136AEB75E0CE010196EF
:100DF0000E94E313BE01695F7F4FCE0101960E94FE
:100E00002310BE01635F7F4F0E94231061E673E0F1
:100E10000E940A10BE016D5E7F4F0E94231060ED9C
:100E200075E00E940A10BE01675E7F4F0E9423108A
:100E3000BC01CE014F960E94FC10CE014F960E943D
:100E40004305CE014F960E946E10CE0101960E947E
:100E50006E10CE0107960E946E10CE010D960E9474
:100E60006E10CE0143960E946E10CE0149960E94EC
:100E70006E108DE798E00E946D03882309F472C01C
:100E80004091810850918208609183087091840894
:100E900022E0CE0149960E9473104091B506509110
:100EA000B6066091B7067091B8062AE0CE01439667
:100EB0000E94A3104091B9065091BA066091BB06FA
:100EC0007091BC062AE0CE010D960E94A31066E642
:100ED00074E0CE0107960E94E31360EE75E0CE0148
:100EE00001960E94E313BE01695F7F4FCE01019618
:100EF0000E942310BE01635F7F4F0E94231061E6B2
:100F000073E00E940A10BE016D5E7F4F0E942310A5
:100F100060ED75E00E940A10BE01675E7F4F0E947F
:100F20002310BC01CE014F960E94FC10CE014F96BB
:100F30000E944305CE014F960E946E10CE0101968D
:100F40000E946E10CE0107960E946E10CE010D9683
:100F50000E946E10CE0143960E946E10CE014996FB
:100F60000E946E1082E798E00E946D03882309F4C6
:100F700072C040917608509177086091780870911E
:100F8000790822E0CE0149960E9473104091B5067F
:100F90005091B6066091B7067091B8062AE0CE016E
:100FA00043960E94A3104091B9065091BA066091F1
:100FB000BB067091BC062AE0CE010D960E94A310DC
:100FC00066E674E0CE0107960E94E31366EF75E0D3
:100FD000CE0101960E94E313BE01695F7F4FCE01EF
:100FE00001960E942310BE01635F7F4F0E94231071
:100FF00061E673E00E940A10BE016D5E7F4F0E94A1
:10100000231060ED75E00E940A10BE01675E7F4FFD
:101010000E942310BC01CE014F960E94FC10CE010D
:101020004F960E944305CE014F960E946E10CE014E
:1010300001960E946E10CE0107960E946E10CE019E
:101040000D960E946E10CE0143960E946E10CE0146
:1010500049960E946E1087E698E00E946D038823EF
:1010600009F472C040916B0850916C0860916D0852
:1010700070916E0822E0CE0149960E947310409153
:10108000B5065091B6066091B7067091B8062AE091
:10109000CE0143960E94A3104091B9065091BA0622
:1010A0006091BB067091BC062AE0CE010D960E94AD
:1010B000A31066E674E0CE0107960E94E3136CE08D
:1010C00076E0CE0101960E94E313BE01695F7F4F77
:1010D000CE0101960E942310BE01635F7F4F0E94E4
:1010E000231061E673E00E940A10BE016D5E7F4F1F
:1010F0000E94231060ED75E00E940A10BE01675E39
:101100007F4F0E942310BC01CE014F960E94FC101D
:10111000CE014F960E944305CE014F960E946E105D
:10112000CE0101960E946E10CE0107960E946E10AD
:10113000CE010D960E946E10CE0143960E946E1055
:10114000CE0149960E946E108CE598E00E946D03D6
:10115000882309F472C04091600850916108609141
:1011600062087091630822E0CE0149960E947310D4
:101170004091B5065091B6066091B7067091B806D9
:101180002AE0CE0143960E94A3104091B9065091E7
:10119000BA066091BB067091BC062AE0CE010D969E
:1011A0000E94A31066E674E0CE0107960E94E31346
:1011B00062E276E0CE0101960E94E313BE01695F10
:1011C0007F4FCE0101960E942310BE01635F7F4FC7
:1011D0000E94231061E673E00E940A10BE016D5E5A
:1011E0007F4F0E94231060ED75E00E940A10BE013F
:1011F000675E7F4F0E942310BC01CE014F960E9474
:10120000FC10CE014F960E944305CE014F960E94DE
:101210006E10CE0101960E946E10CE0107960E94BC
:101220006E10CE010D960E946E10CE0143960E9464
:101230006E10CE0149960E946E1081E598E00E94E2
:101240006D03882309F472C04091550850915608E7
:10125000609157087091580822E0CE0149960E948B
:1012600073104091B5065091B6066091B706709123
:10127000B8062AE0CE0143960E94A3104091B90619
:101280005091BA066091BB067091BC062AE0CE016F
:101290000D960E94A31066E674E0CE0107960E94A8
:1012A000E31368E376E0CE0101960E94E313BE01EA
:1012B000695F7F4FCE0101960E942310BE01635FDC
:1012C0007F4F0E94231061E673E00E940A10BE0166
:1012D0006D5E7F4F0E94231060ED75E00E940A1042
:1012E000BE01675E7F4F0E942310BC01CE014F9666
:1012F0000E94FC10CE014F960E944305CE014F96EE
:101300000E946E10CE0101960E946E10CE010796CB
:101310000E946E10CE010D960E946E10CE01439673
:101320000E946E10CE0149960E946E1086E498E0ED
:101330000E946D03882309F472C040914A085091BD
:101340004B0860914C0870914D0822E0CE014996FF
:101350000E9473104091B5065091B6066091B70691
:101360007091B8062AE0CE0143960E94A3104091E6
:10137000B9065091BA066091BB067091BC062AE08E
:10138000CE010D960E94A31066E674E0CE0107968A
:101390000E94E3136EE476E0CE0101960E94E3130F
:1013A000BE01695F7F4FCE0101960E942310BE01EE
:1013B000635F7F4F0E94231061E673E00E940A1072
:1013C000BE016D5E7F4F0E94231060ED75E00E94AC
:1013D0000A10BE01675E7F4F0E942310BC01CE0140
:1013E0004F960E94FC10CE014F960E944305CE01FD
:1013F0004F960E946E10CE0101960E946E10CE0193
:1014000007960E946E10CE010D960E946E10CE01BE
:1014100043960E946E10CE0149960E946E108BE397
:1014200098E00E946D03882309F472C040913F0840
:1014300050914008609141087091420822E0CE012D
:1014400049960E9473104091B5065091B60660917E
:10145000B7067091B8062AE0CE0143960E94A31009
:101460004091B9065091BA066091BB067091BC06D6
:101470002AE0CE010D960E94A31066E674E0CE012C
:1014800007960E94E31364E676E0CE0101960E947F
:10149000E313BE01695F7F4FCE0101960E942310C6
:1014A000BE01635F7F4F0E94231061E673E00E94DC
:1014B0000A10BE016D5E7F4F0E94231060ED75E043
:1014C0000E940A10BE01675E7F4F0E942310BC017C
:1014D000CE014F960E94FC10CE014F960E9443050C
:1014E000CE014F960E946E10CE0101960E946E10A2
:1014F000CE0107960E946E10CE010D960E946E10CE
:10150000CE0143960E946E10CE0149960E946E1045
:1015100080E398E00E946D03882309F472C0409133
:10152000340850913508609136087091370822E0F0
:10153000CE0149960E9473104091B5065091B606AF
:101540006091B7067091B8062AE0CE0143960E94DA
:10155000A3104091B9065091BA066091BB067091F4
:10156000BC062AE0CE010D960E94A31066E674E048
:10157000CE0107960E94E3136AE776E0CE0101965A
:101580000E94E313BE01695F7F4FCE0101960E9466
:101590002310BE01635F7F4F0E94231061E673E05A
:1015A0000E940A10BE016D5E7F4F0E94231060ED05
:1015B00075E00E940A10BE01675E7F4F0E942310F3
:1015C000BC01CE014F960E94FC10CE014F960E94A6
:1015D0004305CE014F960E946E10CE0101960E94E7
:1015E0006E10CE0107960E946E10CE010D960E94DD
:1015F0006E10CE0143960E946E10CE0149960E9455
:101600006E1085E298E00E946D03882309F472C091
:101610004091290850912A0860912B0870912C085C
:1016200022E0CE0149960E9473104091B506509178
:10163000B6066091B7067091B8062AE0CE014396CF
:101640000E94A3104091B9065091BA066091BB0662
:101650007091BC062AE0CE010D960E94A31066E6AA
:1016600074E0CE0107960E94E31360E976E0CE01B4
:1016700001960E94E313BE01695F7F4FCE01019680
:101680000E942310BE01635F7F4F0E94231061E61A
:1016900073E00E940A10BE016D5E7F4F0E9423100E
:1016A00060ED75E00E940A10BE01675E7F4F0E94E8
:1016B0002310BC01CE014F960E94FC10CE014F9624
:1016C0000E944305CE014F960E946E10CE010196F6
:1016D0000E946E10CE0107960E946E10CE010D96EC
:1016E0000E946E10CE0143960E946E10CE01499664
:1016F0000E946E10A4960FB6F894DEBF0FBECDBF49
:10170000DF91CF91089585ED8093BC008091BC005E
:1017100084FDFCCF10921407089540914207262FB4
:1017200030E0240F311D21323105DCF42091140703
:101730002430C9F4FC0180E090E0861758F4309121
:1017400042072191DC01A05EB84FA30FB11D2C937D
:101750000196F3CF80914207680F6093420780E0C3
:10176000089581E0089582E00895089581E090E071
:101770003091680720916707321710F480E090E0FD
:1017800091958195910908958091680790916707D7
:10179000891730F48F5F8093680780E090E00895A8
:1017A0008FEF9FEF08958091670790E02091680781
:1017B000821B91090895CF92DF92EF92FF920F93CF
:1017C0001F93CF93DF937C01262F972F8A0180915F
:1017D000ED06882391F0C62FD72F6E01C40ED51EBB
:1017E000CC15DD0571F06991D701ED91FC91019067
:1017F000F081E02DC7011995F3CF642F822F0E944D
:101800008D0BC801DF91CF911F910F91FF90EF9049
:10181000DF90CF900895CF93DF931F92CDB7DEB7BF
:1018200069832091ED062223D1F020911507203203
:1018300040F021E030E0FC013383228380E090E03F
:1018400015C080911607E82FF0E0E353F94F998116
:1018500090838F5F809316078093150705C061E022
:10186000CE0101960E948D0B81E090E00F90DF91F8
:10187000CF91089590E0FC013197E231F10508F035
:101880004EC08827E458FF4F8F4F0C94D029809189
:1018900080008F7703C0809180008F7D80938000CF
:1018A000089580918000877FF9CF84B58F7702C03B
:1018B00084B58F7D84BD08958091B0008F7703C07B
:1018C0008091B0008F7D8093B0000895809190004A
:1018D0008F7707C0809190008F7D03C0809190002A
:1018E000877F8093900008958091A0008F7707C034
:1018F0008091A0008F7D03C08091A000877F80939E
:10190000A0000895809120018F7707C08091200169
:101910008F7D03C080912001877F809320010895EF
:101920003FB7F89480911C0790911D07A0911E0766
:10193000B0911F0726B5A89B05C02F3F19F001964F
:10194000A11DB11D3FBFBA2FA92F982F8827820F45
:10195000911DA11DB11DBC01CD0142E0660F771F95
:10196000881F991F4A95D1F708950E94EE2B0F9377
:101970001F93CF93DF93EC0188819981009729F021
:101980002A813B812617370788F48B016F5F7F4FD1
:101990000E94052B009761F0998388831B830A833B
:1019A0002C813D81232B11F4FC01108281E001C0C8
:1019B00080E0DF91CF911F910F910895EF92FF92F8
:1019C0000F931F93CF93DF93FC0124813581611521
:1019D000710511F480E019C041155105A9F07B0192
:1019E000EC018A01020F131FB8010E94B70C882373
:1019F00089F3288139818C819D81B701820F931FE2
:101A00000E94FC2B1D830C8381E0DF91CF911F91FD
:101A10000F91FF90EF900895CF93DF93EC018881B1
:101A20009981009711F00E946D2A198218821D82F7
:101A30001C821B821A82DF91CF9108951F920F9210
:101A40000FB60F9211240BB60F922F933F934F9323
:101A50005F936F937F938F939F93AF93BF93EF9316
:101A6000FF938091B900887F803609F49CC068F5A7
:101A7000883209F45BC090F4803109F454C038F422
:101A8000882309F4F6C0883009F44DC0F6C08831C7
:101A900009F44CC0803209F45DC0EFC0803409F411
:101AA00068C048F4803309F455C0883309F0E5C0B4
:101AB0008093EE06D8C0803509F44FC0883509F40C
:101AC0005DC0883409F0D9C0D6C0883909F4C7C0D0
:101AD000A8F4883709F467C038F4883609F463C07D
:101AE000803709F460C0C9C0883809F4B8C08039AB
:101AF00009F45FC0803809F0C0C05BC0803B09F4C6
:101B000086C038F4803A09F466C0883A09F47FC088
:101B1000B4C0803C09F4A7C0883C09F4A4C0883B49
:101B200009F48AC0AAC08091110710C090911007D3
:101B300080910F07981770F5E091100781E08E0FE4
:101B400080931007F0E0E151F94F80818093BB0052
:101B500085EC86C08093EE068EC0E091100781E090
:101B60008E0F809310078091BB00F0E0E151F94F98
:101B700080839091100780910F076EC0E09110074D
:101B800081E08E0F809310078091BB00F0E0E1515F
:101B9000F94F80838091130781116DC081E080939C
:101BA000120784EA61C083E08093140710926607ED
:101BB000CFCF80916607803208F051C0E091660770
:101BC00081E08E0F809366078091BB00F0E0EA5BB6
:101BD000F84F8083BDCF85EC8093BC001092140732
:101BE00080916607803230F4E0916607F0E0EA5BAE
:101BF000F84F10826091660770E0E0914407F09121
:101C0000450786E497E019951092660736C084E090
:101C1000809314071092430710924207E091400707
:101C2000F0914107199580914207811105C081E02B
:101C30008093420710922007E091430781E08E0FC6
:101C400080934307F0E0E05EF84F80818093BB0013
:101C50009091430780914207981708F479CF85E85F
:101C60008093BC000AC085EC8093BC0010921407DE
:101C700004C01092EE060E94830BFF91EF91BF917A
:101C8000AF919F918F917F916F915F914F913F9114
:101C90002F910F900BBE0F900FBE0F901F901895B5
:101CA000CF93DF93282F30E0F901E650FD4F849168
:101CB000F901E05CFC4FD491F901E056FC4FC4916E
:101CC000CC2391F081110E943A0CEC2FF0E0EE0F42
:101CD000FF1FE052FD4FA591B491EC91ED2381E0FF
:101CE00090E021F480E002C080E090E0DF91CF91AD
:101CF00008951F93CF93DF93282F30E0F901E6502A
:101D0000FD4F8491F901E05CFC4FD491F901E0565C
:101D1000FC4FC491CC23C9F0162F81110E943A0CBC
:101D2000EC2FF0E0EE0FFF1FEA57FC4FA591B491A6
:101D30008FB7F894111105C09C91ED2FE095E92320
:101D400002C0EC91ED2BEC938FBFDF91CF911F91EF
:101D50000895CF93DF9390E0FC01E05CFC4F249169
:101D6000FC01E056FC4F8491882361F190E0880FDC
:101D7000991FFC01EA53FD4FC591D491FC01EA572C
:101D8000FC4FA591B491611109C09FB7F894888167
:101D9000209582238883EC912E230BC0623061F45E
:101DA0009FB7F8943881822F809583238883EC91A4
:101DB0002E2B2C939FBF06C08FB7F894E8812E2B53
:101DC00028838FBFDF91CF9108958F929F92AF921A
:101DD000BF92CF92DF92EF92FF926B017C010E9443
:101DE000900C4B015C01C114D104E104F104F1F049
:101DF0000E94900CDC01CB0188199909AA09BB0942
:101E0000883E9340A105B10570F321E0C21AD108C4
:101E1000E108F10888EE880E83E0981EA11CB11C31
:101E2000C114D104E104F10419F7DDCFFF90EF9064
:101E3000DF90CF90BF90AF909F908F900895CF93F9
:101E4000DF9310926807109267071092160710929E
:101E500015071092140781E0809313071092120760
:101E600061E084E10E94790E61E085E10E94790ED3
:101E70008091B9008E7F8093B9008091B9008D7FE9
:101E80008093B90088E48093B80085E48093BC0017
:101E900010921E0880912308823018F098E09093E9
:101EA0001E088093210862E370E080E090E00E94C9
:101EB000E50E6091240889E198E00E94870468EEAD
:101EC00073E080E090E00E94E50E60E389E198E035
:101ED0000E94EC04CBE4D6E4CE010197F1F760E375
:101EE00089E198E00E94EC042197F1F760E389E131
:101EF00098E00E94EC0483E592E00197F1F760E23C
:101F000089E198E00E94EC0460911E08606240E064
:101F100089E198E00E94050584E080931F0840E075
:101F20006CE089E198E00E94050540E061E089E10C
:101F300098E00E940505CBE3DFE1CE010197F1F7C0
:101F400082E08093200840E066E089E198E00E940A
:101F5000050540E062E089E198E00E9405052197CF
:101F6000F1F7DF91CF9108952FB7F894609118079A
:101F70007091190780911A0790911B072FBF089540
:101F80001F920F920FB60F9211242F933F938F93AE
:101F90009F93AF93BF938091180790911907A091D9
:101FA0001A07B0911B073091170723E0230F2D3735
:101FB00020F40196A11DB11D05C026E8230F02964D
:101FC000A11DB11D2093170780931807909319073F
:101FD000A0931A07B0931B0780911C0790911D07CF
:101FE000A0911E07B0911F070196A11DB11D8093FE
:101FF0001C0790931D07A0931E07B0931F07BF9166
:10200000AF919F918F913F912F910F900FBE0F90A5
:102010001F901895CF93DF93EC016115710561F066
:10202000FB0101900020E9F73197AF01461B570BE8
:102030000E94DE0C811103C0CE010E940C0DCE0166
:10204000DF91CF910895CF93DF93EC01FB014481A1
:102050005581608171810E94DE0C811103C0CE0127
:102060000E940C0DCE01DF91CF910895EF92FF9267
:102070000F931F93CF93DF93EC017B018A01BA0189
:102080000E94B70C811104C0CE010E940C0D07C044
:102090001D830C83B701888199810E94FC2BCE019E
:1020A000DF91CF911F910F91FF90EF900895CF9303
:1020B000DF93EC016115710559F0FB0101900020DF
:1020C000E9F73197AF01461B570B0E94361002C04B
:1020D0000E940C0DCE01DF91CF910895FC0180810B
:1020E00091810C946D2AEF92FF920F931F93CF93DF
:1020F000DF93CDB7DEB7A1970FB6F894DEBF0FBE62
:10210000CDBF7C01CB01BA01F7011182108213828D
:1021100012821582148242E0420F8E010F5F1F4F20
:102120000E945424BC01C7010E945710A1960FB60B
:10213000F894DEBF0FBECDBFDF91CF911F910F91FD
:10214000FF90EF9008950F931F93CF93DF93CDB738
:10215000DEB7A1970FB6F894DEBF0FBECDBF8C01DE
:10216000CB01BA01F801118210821382128215820A
:10217000148230E0AE014F5F5F4F0E94E424BE0145
:102180006F5F7F4FC8010E945710A1960FB6F89459
:10219000DEBF0FBECDBFDF91CF911F910F9108958C
:1021A0000F931F93CF93DF93CDB7DEB762970FB630
:1021B000F894DEBF0FBECDBF8C01CB01F8011182B8
:1021C0001082138212821582148250E0BE016F5F6A
:1021D0007F4F0E94CE24BE016F5F7F4FC8010E94D7
:1021E000571062960FB6F894DEBF0FBECDBFDF91D9
:1021F000CF911F910F910895FB01DC0111961C9264
:102200001E9213961C921E92129715961C921E9265
:1022100014978617970749F06081718161157105E0
:1022200021F0448155810C9436100895CF93DF93AB
:10223000CDB7DEB728970FB6F894DEBF0FBECDBF7F
:1022400028E0E8E8F2E0DE01119601900D922A956F
:10225000E1F720912108261710F46FEF620FFE01BD
:102260003196E60FF11DE60FF11D9081682F690F81
:10227000606840E089E198E028960FB6F894DEBFE8
:102280000FBECDBFDF91CF910C9405058F929F9229
:10229000AF92BF920F931F93CF93DF93CDB7DEB76B
:1022A000A1970FB6F894DEBF0FBECDBF19A2423082
:1022B00008F44AE08E010F5D1F4F842E912CA12C53
:1022C000B12CA50194010E948528E62FB901CA010D
:1022D00001501109EA3014F4E05D01C0E95CD80155
:1022E000EC93232B242B252B61F7B80189E198E08F
:1022F0000E94A514A1960FB6F894DEBF0FBECDBF05
:10230000DF91CF911F910F91BF90AF909F908F90D1
:102310000895BC0189E198E00C94A514FF920F93F5
:102320001F93CF93DF9300D01F92CDB7DEB72091DC
:1023300005022E3221F02F3F09F010C204C0E6EE54
:10234000F3E01491E7C02EE220930502E6EEF3E0FD
:1023500014911F3F09F402C2123009F472C04CF507
:10236000112309F451C0113009F0D4C0109280003B
:10237000109281002091810028602093810020919B
:102380008100216020938100EEECF3E0E491F0E025
:10239000EE0FFF1FEA57FC4F2591349130939E08B2
:1023A00020939D08EEE6F3E0E491E0939C0811E0B1
:1023B000B3C0143009F48BC00CF466C0153009F0BA
:1023C000A9C01092200110922101209121012860C2
:1023D0002093210120912101216020932101EEEC25
:1023E000F3E0E491F0E0EE0FFF1FEA57FC4F259178
:1023F00034913093950820939408EEE6F3E0E4914D
:10240000E093930815E088C014BC15BC24B5226085
:1024100024BD25B5216025BDEEECF3E0E491F0E0AC
:10242000EE0FFF1FEA57FC4F259134913093A1081E
:102430002093A008EEE6F3E0E491E0939F0810E01B
:102440006BC01092B0001092B1002091B0002260D9
:102450002093B0002091B10021602093B100EEECF8
:10246000F3E0E491F0E0EE0FFF1FEA57FC4F2591F7
:10247000349130936B0720936A07EEE6F3E0E49122
:10248000E093690712E048C010929000109291000A
:10249000209191002860209391002091910021606B
:1024A00020939100EEECF3E0E491F0E0EE0FFF1FDB
:1024B000EA57FC4F2591349130939B0820939A085A
:1024C000EEE6F3E0E491E093990813E025C0109262
:1024D000A0001092A1002091A10028602093A100EB
:1024E0002091A10021602093A100EEECF3E0E491A3
:1024F000F0E0EE0FFF1FEA57FC4F25913491309327
:10250000980820939708EEE6F3E0E491E0939608AC
:1025100014E002C017FD22C19B01AC0161E08EE214
:1025200029833A834B835C830E94A90E29813A81D7
:102530004B815C81112309F405C1123009F457C0A5
:10254000113081F480918100887F816080938100C7
:10255000211531054105510509F48AC009E6FAE063
:10256000FF2E53C0133091F480919100887F8160D9
:1025700080939100211531054105510579F72FEF21
:102580003FEFA90109E6EAE0FE2EA0C0143091F465
:102590008091A100887F81608093A1002115310581
:1025A00041055105D9F62FEF3FEFA90109E67AE081
:1025B000F72EA0C0153091F480912101887F8160B1
:1025C00080932101211531054105510539F62FEF81
:1025D0003FEFA90109E66AE0F62EA0C009E69AE0FD
:1025E000F92E2115310541055105D1F00EC080911C
:1025F000B100887F83608093B100211531054105CA
:10260000510509F44FC002E5F12CA0E7B7E10E94A3
:10261000722828EE33E040E050E00E94852803C095
:102620002FEF3FEFA901123009F440C02CF4112321
:1026300081F0113019F192C0143009F45BC00CF430
:1026400045C0153009F46AC089C02FEF3FEFA901DA
:1026500008E207BD2093B2083093B3084093B40852
:102660005093B50880916E00826080936E0076C0B2
:102670002FEF3FEFA90109E68AE0F82E802F9F2D6A
:1026800090938900809388002093AE083093AF0820
:102690004093B0085093B10880916F00826080939E
:1026A0006F005CC02FEF3FEFA90102E50093B3007C
:1026B00020936C0730936D0740936E0750936F071C
:1026C0008091700082608093700048C0802F9F2DA1
:1026D00090939900809398002093AA083093AB08B8
:1026E0004093AC085093AD08809171008260809354
:1026F000710034C0802F9F2D9093A9008093A80073
:102700002093A6083093A7084093A8085093A908DF
:102710008091720082608093720020C0802F9F2D74
:1027200090932901809328012093A2083093A30855
:102730004093A4085093A508809173008260809311
:1027400073000CC085B5887F836085BD2115310578
:102750004105510509F479CF08E256CF0F900F904B
:102760000F900F90DF91CF911F910F91FF900895DF
:10277000CF92DF92EF92FF920F931F93CF93DF934D
:102780006C017A018B01C0E0D0E0CE15DF0589F045
:10279000D8016D918D01D601ED91FC910190F081F0
:1027A000E02DC6011995892B11F47E0102C02196F6
:1027B000ECCFC701DF91CF911F910F91FF90EF9068
:1027C000DF90CF900895FC01118210821382128253
:1027D000158214826115710551F0FB0101900020F2
:1027E000E9F73197AF01461B570B0C94361008954B
:1027F0001F920F920FB60F9211240BB60F922F93C8
:102800003F934F935F936F937F938F939F93AF9378
:10281000BF93EF93FF9380916C0790916D07A09108
:102820006E07B0916F07892B8A2B8B2B59F1809102
:102830006907E0916A07F0916B079081892780838F
:1028400080916C0790916D07A0916E07B0916F0712
:10285000181619061A061B060CF056C080916C0754
:1028600090916D07A0916E07B0916F070197A10934
:10287000B10980936C0790936D07A0936E07B09396
:102880006F0742C080910502E6EEF3E0E4919FEF0E
:1028900090930502E230C9F050F4EE2399F0E13054
:1028A00081F590916F009D7F90936F002AC0E43076
:1028B00019F1E0F0E53029F5909173009D7F909338
:1028C00073001FC010926E001CC0909170009D7F1D
:1028D0009093700091E09093B0009091B100987F38
:1028E00094609093B1001092B3000BC0909171006E
:1028F0009D7F9093710005C0909172009D7F909391
:10290000720060E00E94790EFF91EF91BF91AF914C
:102910009F918F917F916F915F914F913F912F91F7
:102920000F900BBE0F900FBE0F901F901895DC01FB
:10293000ED91FC91DB0114964D915C9115976D9191
:102940007C910280F381E02D19946115710579F075
:10295000FB0101900020E9F73197AF01461B570BAF
:10296000DC01ED91FC910280F381E02D199480E06F
:1029700090E00895CF93DF93CDB7DEB76C970FB695
:10298000F894DEBF0FBECDBF789484B5826084BD5D
:1029900084B5816084BD85B5826085BD85B5816063
:1029A00085BD80916E00816080936E0010928100E1
:1029B000809181008260809381008091810081609C
:1029C000809381008091800081608093800080915D
:1029D000B10084608093B1008091B00081608093E9
:1029E000B00080919100826080939100809191006D
:1029F000816080939100809190008160809390002D
:102A00008091A10082608093A1008091A1008160EB
:102A10008093A1008091A00081608093A0008091AC
:102A20002101826080932101809121018160809346
:102A300021018091200181608093200180917A00A2
:102A4000846080937A0080917A00826080937A001B
:102A500080917A00816080937A0080917A0080680A
:102A600080937A001092C1006DEA75E0CE01019664
:102A70000E94E31382E090E0A0E0B0E08093A8061B
:102A80009093A906A093AA06B093AB0686EB96E0B6
:102A90009093A7068093A606809170008E7F809306
:102AA00070008091B0008C7F8093B0008091B10065
:102AB000877F8093B1008091B6008F7D8093B600B0
:102AC000809170008D7F809370008091B100846050
:102AD0008093B1008091B1008C7F8093B10086E03B
:102AE00090E09093AD068093AC061092AF061092E2
:102AF000B0061092B1061092B2061092AE06809106
:102B0000AC069091AD068093B20080917000816018
:102B1000809370000E94B40F6093B9067093BA0658
:102B20008093BB069093BC066093B5067093B6067F
:102B30008093B7069093B80680917B00886080935D
:102B40007B0086E480937C0080917A00806480938F
:102B50007A0080917A0086FDFCCF609178008091A8
:102B6000790070E0782B072E000C880B990B61150B
:102B700071058105910511F00E94C52462E08FE284
:102B80000E94A90E62E080E30E94A90E8FE20E94DB
:102B9000500E21E0892B09F420E0209300020E94CE
:102BA0001F0F88E08093240860E089E198E00E948C
:102BB000870416E161E0812F0E94A90E1F5F1E327B
:102BC000C9F712E061E0812F0E94A90E1F5F1E303D
:102BD000C9F7E0918C07F0918D0782E08083E09146
:102BE0008807F09189071082E0918A07F0918B079E
:102BF0008FEC808310929407E0919007F0919107F9
:102C000086E08083E0918E07F0918F07808180615C
:102C10008083E0918E07F0918F07808188608083A8
:102C2000E0918E07F0918F07808180688083E0912A
:102C30008E07F0918F0780818F7D8083CE01019672
:102C40000E946E1026E9422E512C612C712C0E949C
:102C5000C12427E030E040E050E00E945328DC012E
:102C6000CB010397A109B1098093BE068091BD06EF
:102C7000082E000C990BAA0BBB0B8A30910538F477
:102C8000FC018827EE58FF4F8F4F0C94D02912E09B
:102C900061E082E00E9416110E94B40F28EE33E03A
:102CA00040E050E00E948528CA01B9014AE00E9434
:102CB000461161E0812F0E94790E68EE73E080E09A
:102CC00090E00E94E50E60E0812F0E94790E68EE90
:102CD00073E080E090E00E94E50E1F5F1E30C1F6B9
:102CE00016E161E082E00E9416110E94B40F28EE06
:102CF00033E040E050E00E948528CA01B9014AE073
:102D00000E94461161E0812F0E94790E68EE73E007
:102D100080E090E00E94E50E60E0812F0E94790E35
:102D200068EE73E080E090E00E94E50E1F5F1E32C7
:102D3000C1F60C9400218FEF8093BD060E941F0FF7
:102D400080E30E94500E60EC72E0CE0101960E947A
:102D5000E313CE0101960E944305CE0101960E9425
:102D60006E1060E080E00E9416118AEF92E00E94EF
:102D7000891161E080E00E9416118BE093E00E94CF
:102D800089110E94C12424E833E040E050E00E9411
:102D900053289B01AC012C593F4F4F4F5F4F298F58
:102DA0003A8F4B8F5C8F812C912C5401898D9A8D99
:102DB000880D991D18161906DCF50E94B40F609352
:102DC000B9067093BA068093BB069093BC0612E0D6
:102DD00061E0812F0E94790E1F5F1E30C9F7C98CF8
:102DE000DA8CEB8CFC8CC80CD91CEA1CFB1CC701D0
:102DF000B6010E94E50E12E060E0812F0E94790E7C
:102E00001F5F1E30C9F7C701B6010E94E50E809111
:102E1000890881110C9404218091520834E6831AA8
:102E20009108A108B108882309F4C0CF0C940421AB
:102E30006EEA73E0CE0101960E94E313CE01019683
:102E40000E944305CE0101960E946E1060E080E072
:102E50000E9416118AEB93E00E94891161E080E0E4
:102E60000E9416118BEC93E00E94891168EE73E0CA
:102E700080E090E00E948E110E94B40F6093B9062A
:102E80007093BA068093BB069093BC068091890824
:102E900081110C94CD2180915208882369F30C9400
:102EA000CD2161E080E00E9416116091C806062ED7
:102EB000000C770B4AE0CE0101960E94D010609181
:102EC000C906062E000C770B4AE0CE0107960E9439
:102ED000D01065E074E0CE010D960E94E313BE01B0
:102EE000695F7F4FCE010D960E9423106AE074E067
:102EF0000E940A10BE016F5F7F4F0E94231066E898
:102F000074E00E940A10BC0189E198E00E949714C5
:102F1000CE010D960E946E10CE0107960E946E1093
:102F2000CE0101960E946E100E94B40F6093B90604
:102F30007093BA068093BB069093BC068090C4063B
:102F40009090C506A090C606B090C706C090C00677
:102F5000D090C106E090C206F090C306811491049F
:102F6000A104B104B9F09B01AC01281939094A093F
:102F70005B0949015A0130E283163FEB930632E0C8
:102F8000A306B10438F0C114D104E104F10411F432
:102F900085E016C0C114D104E104F104A9F09B013D
:102FA000AC012C193D094E095F0969017A0130E233
:102FB000C3163FEBD30632E0E306F10428F086E0C7
:102FC0008093BD060C9400212091CA06C090B506DE
:102FD000D090B606E090B706F090B806DC01CB01C1
:102FE0008C199D09AE09BF09211108C08031974293
:102FF000A105B10508F44EC084E0E2CF20910302A0
:10300000E0910402843F51E09507A105B10510F15C
:10301000223031F540910202042E000C550B6E2F28
:10302000660F770BCB01841B950B6417750719F09E
:103030008B309105A9F44091B406042E000C550B79
:103040002091010264E070E0621B710927FD739515
:103050000C9478238C329140A105B10508F44DC041
:103060004091B406042E000C550B622F660F770BAF
:1030700080910102681B710987FD7395EE0FFF0BAC
:10308000809102029F01281B310987FD3395C901F8
:103090000C9478231091B4061130B1F48091680833
:1030A00081110C9409238091730881110C941723CA
:1030B00080917E0881110C94F22280915D0881112B
:1030C0000C94FA220C9400211F3F09F0DDC080917E
:1030D000310881110C944E2380913C0881110C948D
:1030E00029238091470881110C9437238091260869
:1030F00081110C943F230C94002135E0E302F00190
:103100001124E20FF11D27FDFA95EE0FFF1FE05F7E
:10311000FD4F8181813009F0B7C08091B3068111E4
:10312000B3C080918908882309F4AEC00E94C124ED
:103130002AE030E040E050E00E945328C090BE06F4
:103140000C2C000CDD08EE08FF08C60ED71EE81E8A
:10315000F91E8091B9069091BA06A091BB06B09174
:10316000BC068090B5069090B606A090B706B090C9
:10317000B806BC01CD01681979098A099B09A30128
:1031800092010E948528CA01B90161507109810923
:1031900091090E94A12720E030E040E05FE30E9417
:1031A000B7280E949529C61AD70AE80AF90A609139
:1031B0008C0870918D0880918E0890918F082AE07C
:1031C00037ED43E25CE30E94B7289B01AC0160E06D
:1031D00070E080E09FE30E94232920E030E0A90115
:1031E0000E94CB2987FD1DC060918C0870918D08CD
:1031F00080918E0890918F082AE037ED43E25CE3DE
:103200000E94B7289B01AC0160E070E080E09FE382
:103210000E94232920E030E040E05FE30E94B728CD
:103220001CC060918C0870918D0880918E089091DF
:103230008F082AE037ED43E25CE30E94B7289B0148
:10324000AC0160E070E080E09FE30E94232920E071
:1032500030E040E05FE30E94B6280E949529C61A3C
:10326000D70AE80AF90A45E0C416D104E104F104DA
:1032700044F00E942C051092CA0681E08093B306A8
:10328000CDC081E08093B3068091CA06882309F4FB
:10329000B7C780910302E091040255E0E502F00116
:1032A0001124E80FF11D87FDFA95EE0FFF1FE05F77
:1032B000FD4F81818F3F09F0A3C78091B306811133
:1032C0009FC780915208882309F49AC70E94C1249D
:1032D0002AE030E040E050E00E945328C090BE0653
:1032E0000C2C000CDD08EE08FF08C60ED71EE81EE9
:1032F000F91E8091B9069091BA06A091BB06B091D3
:10330000BC068090B5069090B606A090B706B09027
:10331000B806BC01CD01681979098A099B09A30186
:1033200092010E948528CA01B90161507109810981
:1033300091090E94A12720E030E040E05FE30E9475
:10334000B7280E949529C61AD70AE80AF90A609197
:1033500055087091560880915708909158082AE0B6
:1033600037ED43E25CE30E94B7289B01AC0160E0CB
:1033700070E080E09FE30E94232920E030E0A90173
:103380000E94CB2987FD1DC0609155087091560899
:1033900080915708909158082AE037ED43E25CE3AA
:1033A0000E94B7289B01AC0160E070E080E09FE3E1
:1033B0000E94232920E030E040E05FE30E94B7282C
:1033C0001CC06091550870915608809157089091E3
:1033D00058082AE037ED43E25CE30E94B7289B01DE
:1033E000AC0160E070E080E09FE30E94232920E0D0
:1033F00030E040E05FE30E94B6280E949529C61A9B
:10340000D70AE80AF90A85E0C816D104E104F104F4
:1034100044F00E942C051092CA068FEF8093B406E8
:10342000EFC681E08093B306EBC60E94B40F6093B1
:10343000B9067093BA068093BB069093BC06409180
:10344000B5065091B6066091B7067091B8062AE0AD
:10345000CE0107960E94A3104091B9065091BA067A
:103460006091BB067091BC062AE0CE010D960E94C9
:10347000A31062E174E0CE0143960E94E313BE0103
:10348000635F7F4FCE0143960E94231061E673E095
:103490000E940A10BE01695F7F4F0E942310BC0189
:1034A000CE0101960E94FC10CE0101960E944305B8
:1034B000CE0101960E946E10CE0143960E946E10BE
:1034C000CE010D960E946E10CE0107960E946E10DE
:1034D0008091B9069091BA06A091BB06B091BC0646
:1034E0008093B5069093B606A093B706B093B8063E
:1034F0000E942C051092CA0681E08093BD0620919F
:10350000B4069091030280910402213061F591117B
:103510000FC09FEF980F933028F44FEF5FEF61E0FB
:1035200070E00EC084504FEF5FEF61E070E011C0BB
:103530009FEF980F933040F44FEF5FEF63E070E040
:1035400082E090E00C94782384504FEF5FEF63E0CB
:1035500070E0833020F484E090E00C94782388E0DD
:1035600090E00C94782391110FC098EF980F93304E
:1035700028F441E050E061E070E00EC0855041E089
:1035800050E061E070E011C098EF980F933040F484
:1035900041E050E063E070E089E090E00C94782333
:1035A000855041E050E063E070E0833020F487E034
:1035B00090E00C94782383E090E00C9478230E94B0
:1035C000B40F6093B9067093BA068093BB069093CC
:1035D000BC066EEE72E080E090E00E948E110E94C8
:1035E0002C051092CA0681E08093BD0660E080E061
:1035F0000E941611809104024091B5065091B606C2
:103600006091B7067091B80681118CC08091C80690
:103610008F5F8093C8062AE0CE0107960E94A31010
:103620004091B9065091BA066091BB067091BC06F4
:103630002AE0CE010D960E94A3106FE174E0CE0146
:1036400043960E94E313BE01635F7F4FCE01439612
:103650000E94231061E673E00E940A10BE01695FB8
:103660007F4F0E942310BC01CE0101960E94FC10E6
:10367000CE0101960E944305CE0101960E946E1074
:10368000CE0143960E946E10CE010D960E946E10E0
:10369000CE0107960E946E106091C806062E000C9F
:1036A000770B4AE0CE0101960E94D0106091C906C6
:1036B000062E000C770B4AE0CE0107960E94D01030
:1036C0006EE274E0CE010D960E94E313BE01695FC5
:1036D0007F4FCE010D960E94231066E874E00E9491
:1036E0000A10BE016F5F7F4F0E94231065E874E0EF
:1036F0000E940A10BC0189E198E00E949714CE0153
:103700000D960E946E10CE0107960E946E10CE019B
:1037100001960E946E1041E050E062E070E085E0AA
:1037200090E08BC08091C9068F5F8093C9062AE024
:10373000CE0107960E94A3104091B9065091BA0697
:103740006091BB067091BC062AE0CE010D960E94E6
:10375000A31069E374E0CE0143960E94E313BE0117
:10376000635F7F4FCE0143960E94231061E673E0B2
:103770000E940A10BE01695F7F4F0E942310BC01A6
:10378000CE0101960E94FC10CE0101960E944305D5
:10379000CE0101960E946E10CE0143960E946E10DB
:1037A000CE010D960E946E10CE0107960E946E10FB
:1037B0006091C806062E000C770B4AE0CE010196F8
:1037C0000E94D0106091C906062E000C770B4AE0CB
:1037D000CE0107960E94D0106AE474E0CE010D96E7
:1037E0000E94E313BE01695F7F4FCE010D960E94D8
:1037F000231066E874E00E940A10BE016F5F7F4FDD
:103800000E94231065E874E00E940A10BC0189E15F
:1038100098E00E949714CE010D960E946E10CE0182
:1038200007960E946E10CE0101960E946E104FEF17
:103830005FEF62E070E086E090E00E9453058091C7
:10384000B9069091BA06A091BB06B091BC068093D0
:10385000B5069093B606A093B706B093B806D0C449
:103860000E94B40F6093B9067093BA068093BB06AA
:103870009093BC064091B5065091B6066091B7068C
:103880007091B8062AE0CE0107960E94A3104091DD
:10389000B9065091BA066091BB067091BC062AE049
:1038A000CE010D960E94A31065E574E0CE0143960B
:1038B0000E94E313BE01635F7F4FCE0143960E94D7
:1038C000231061E673E00E940A10BE01695F7F4F1A
:1038D0000E942310BC01CE0101960E94FC10CE0173
:1038E00001960E944305CE0101960E946E10CE0102
:1038F00043960E946E10CE010D960E946E10CE016E
:1039000007960E946E108091B9069091BA06A09118
:10391000BB06B091BC068093B5069093B606A09303
:10392000B706B093B8060E942C051092CA0681E033
:103930008093BD069091B40680910402913011F5F8
:103940008B3029F44FEF5FEF62E070E0CFC681115A
:1039500057C4809103029DEF980F923008F4B1C6CE
:10396000823009F0B3C60E94C12422E030E040E07A
:1039700050E00E945328613071058105910509F4DA
:10398000A0C6A4C6811105C041E050E062E070E02D
:10399000A1C68B3009F034C4809103029DEF980FCB
:1039A000923008F49AC6823009F09CC60E94C12465
:1039B00022E030E040E050E00E9453286130710581
:1039C0008105910509F489C68DC60E94B40F6093E4
:1039D000B9067093BA068093BB069093BC064091DB
:1039E000B5065091B6066091B7067091B8062AE008
:1039F000CE0107960E94A3104091B9065091BA06D5
:103A00006091BB067091BC062AE0CE010D960E9423
:103A1000A3106BE674E0CE0143960E94E313BE014F
:103A2000635F7F4FCE0143960E94231061E673E0EF
:103A30000E940A10BE01695F7F4F0E942310BC01E3
:103A4000CE0101960E94FC10CE0101960E94430512
:103A5000CE0101960E946E10CE0143960E946E1018
:103A6000CE010D960E946E10CE0107960E946E1038
:103A700060E080E00E94161187E794E00E948911BF
:103A80006AEF70E080E090E00E948E118091B906AC
:103A90009091BA06A091BB06B091BC068093B50682
:103AA0009093B606A093B706B093B8060E942C0573
:103AB0001092CA0681E08093BD068091B4068130E1
:103AC00039F44FEF5FEF62E070E086E090E010C6FF
:103AD0008F3F09F095C341E050E062E070E085E07F
:103AE00090E006C668EE73E080E090E00E948E11E0
:103AF0000E94B40F6093B9067093BA068093BB0618
:103B00009093BC064091B5065091B6066091B706F9
:103B10007091B8062AE0CE0107960E94A31040914A
:103B2000B9065091BA066091BB067091BC062AE0B6
:103B3000CE010D960E94A31068E874E0CE01439672
:103B40000E94E313BE01635F7F4FCE0143960E9444
:103B5000231061E673E00E940A10BE01695F7F4F87
:103B60000E942310BC01CE0101960E94FC10CE01E0
:103B700001960E944305CE0101960E946E10CE016F
:103B800043960E946E10CE010D960E946E10CE01DB
:103B900007960E946E1060E080E00E9416118BE98B
:103BA00094E00E94891161E080E00E9416118CEA85
:103BB00094E00E9489110E942C051092CA0681E0AF
:103BC0008093BD068091BF06813039F041E050E01E
:103BD00062E070E085E090E006C04FEF5FEF62E0EA
:103BE00070E086E090E00E94530580918908811181
:103BF0002FC080917E0881112BC0809173088111A4
:103C000027C080916808811123C080915D088111CF
:103C10001FC08091520881111BC0809147088111FB
:103C200017C080913C08811113C080913108811127
:103C30000FC08091260881110BC00E94B40F6093C1
:103C4000B9067093BA068093BB069093BC06CDCF9D
:103C5000C090B906D090BA06E090BB06F090BC06C2
:103C60008091B5069091B606A091B706B091B806BE
:103C7000A7019601281B390B4A0B5B0BDA01C9011E
:103C800080339547A105B105C0F66AEF70E080E08A
:103C900090E00E948E110E94B40F6093C006709352
:103CA000C1068093C2069093C306C092B506D09217
:103CB000B606E092B706F092B806A2C20E94B40F10
:103CC0006093B9067093BA068093BB069093BC06C6
:103CD00068EE73E080E090E00E948E110E942C0557
:103CE0001092CA064091B5065091B6066091B7068B
:103CF0007091B8062AE0CE0107960E94A310409169
:103D0000B9065091BA066091BB067091BC062AE0D4
:103D1000CE010D960E94A3106DEB74E0CE01439688
:103D20000E94E313BE01635F7F4FCE0143960E9462
:103D3000231061E673E00E940A10BE01695F7F4FA5
:103D40000E942310BC01CE0101960E94FC10CE01FE
:103D500001960E944305CE0101960E946E10CE018D
:103D600043960E946E10CE010D960E946E10CE01F9
:103D700007960E946E109091C9068091C80660E077
:103D800089170CF061C080E00E9416118BEC94E062
:103D90000E94891161E080E00E9416116091C806BE
:103DA000062E000C770B4AE0CE0101960E94D0103F
:103DB0006091C906062E000C770B4AE0CE010796EB
:103DC0000E94D01065E074E0CE010D960E94E313CE
:103DD000BE01695F7F4FCE010D960E9423106AE0FD
:103DE00074E00E940A10BE016F5F7F4F0E94231093
:103DF00066E874E00E940A10BC0189E198E00E9424
:103E00009714CE010D960E946E10CE0107960E9467
:103E10006E10CE0101960E946E106091C806062EAB
:103E2000000C770B4AE0CE0107960E94D0106091FB
:103E3000C906062E000C770B4AE0CE010D960E94B3
:103E4000D0106BED74E0C4C098170CF061C080E036
:103E50000E9416118AE793E00E94891161E080E0D8
:103E60000E9416116091C806062E000C770B4AE0DE
:103E7000CE0101960E94D0106091C906062E000C5A
:103E8000770B4AE0CE0107960E94D01065E074E0FF
:103E9000CE010D960E94E313BE01695F7F4FCE01F4
:103EA0000D960E9423106AE074E00E940A10BE0181
:103EB0006F5F7F4F0E94231066E874E00E940A1033
:103EC000BC0189E198E00E949714CE010D960E94F2
:103ED0006E10CE0107960E946E10CE0101960E94D0
:103EE0006E106091C906062E000C770B4AE0CE01D9
:103EF00007960E94D0106091C806062E000C770B22
:103F00004AE0CE010D960E94D01067EF74E060C0C9
:103F100080E00E9416118CE095E00E94891161E01A
:103F200080E00E9416116091C806062E000C770BE7
:103F30004AE0CE0101960E94D0106091C906062E7B
:103F4000000C770B4AE0CE0107960E94D01065E086
:103F500074E0CE010D960E94E313BE01695F7F4FAE
:103F6000CE010D960E9423106AE074E00E940A10B0
:103F7000BE016F5F7F4F0E94231066E874E00E94CD
:103F80000A10BC0189E198E00E949714CE010D96B9
:103F90000E946E10CE0107960E946E10CE0101960F
:103FA0000E946E106091C806062E000C770B4AE046
:103FB000CE0107960E94D0106091C906062E000C13
:103FC000770B4AE0CE010D960E94D0106DE175E0AE
:103FD000CE0143960E94E313BE01635F7F4FCE0183
:103FE00043960E94231062EF74E00E940A10BE0103
:103FF000695F7F4F0E94231067E374E00E940A10FC
:10400000BC01CE0101960E94FC10CE0101960E94D7
:104010004305CE0101960E946E10CE0143960E9488
:104020006E10CE010D960E946E10CE0107960E9472
:104030006E1068E57BE180E090E00E94E50E60E0B4
:1040400080E00E94161183E395E00E94891161E0EF
:1040500080E00E9416116091C806062E000C770BB6
:104060004AE0CE0101960E94D0106091C906062E4A
:10407000000C770B4AE0CE0107960E94D01065E055
:1040800074E0CE010D960E94E313BE01695F7F4F7D
:10409000CE010D960E9423106AE074E00E940A107F
:1040A000BE016F5F7F4F0E94231066E874E00E949C
:1040B0000A10BC0189E198E00E949714CE010D9688
:1040C0000E946E10CE0107960E946E10CE010196DE
:1040D0000E946E108091B9069091BA06A091BB061D
:1040E000B091BC068093B5069093B606A093B70630
:1040F000B093B80668EB7BE080E090E00E94E50EAC
:1041000060E080E00E94161184E495E00E9489112D
:1041100061E080E00E94161185E595E00E9489111A
:104120008091890881112FC080917E0881112BC058
:1041300080917308811127C080916808811123C084
:1041400080915D0881111FC08091520881111BC0B0
:1041500080914708811117C080913C08811113C0DC
:104160008091310881110FC08091260881110BC008
:104170000E94B40F6093B9067093BA068093BB0691
:104180009093BC06CDCF8091B9069091BA06A091CC
:10419000BB06B091BC064091B5065091B606609141
:1041A000B7067091B806841B950BA60BB70B80332E
:1041B0009547A105B105E0F61092BD061092B9062B
:1041C0001092BA061092BB061092BC061092B50669
:1041D0001092B6061092B7061092B8061092C40656
:1041E0001092C5061092C6061092C7061092C0061D
:1041F0001092C1061092C2061092C3061092CA060F
:104200000E94F9020C94271680918908882309F4EA
:1042100061C080915208882309F45CC060E080E0AE
:104220000E94161186E695E00E9489114091B5061C
:104230005091B6066091B7067091B8062AE0CE019B
:1042400007960E94A3104091B9065091BA0660915A
:10425000BB067091BC062AE0CE010D960E94A31009
:1042600067E775E0CE0143960E94E313BE01635FEA
:104270007F4FCE0143960E94231061E673E00E94B7
:104280000A10BE01695F7F4F0E942310BC01CE015E
:1042900001960E94FC10CE0101960E944305CE01BA
:1042A00001960E946E10CE0143960E946E10CE01C0
:1042B0000D960E946E10CE0107960E946E100E940D
:1042C000B40F6093C4067093C5068093C60690939E
:1042D000C70696CF80915208882369F160E080E09C
:1042E0000E9416118CE193E00E94891161E080E048
:1042F0000E9416118DE293E00E9489114091B5064B
:104300005091B6066091B7067091B8062AE0CE01CA
:1043100007960E94A3104091B9065091BA06609189
:10432000BB067091BC062AE0CE010D960E94A31038
:104330006EE373E063C080918908882309F4BFCFDE
:1043400060E080E00E94161189E693E00E948911E6
:1043500061E080E00E9416118AE793E00E948911D3
:104360004091B5065091B6066091B7067091B806B7
:104370002AE0CE0107960E94A3104091B906509101
:10438000BA066091BB067091BC062AE0CE010D967C
:104390000E94A3106BE873E095C080918908882380
:1043A00021F0809152088111C9C080918908882329
:1043B00009F45FC060E080E00E9416118DE293E096
:1043C0000E9489114091B5065091B6066091B706DA
:1043D0007091B8062AE0CE0107960E94A310409182
:1043E000B9065091BA066091BB067091BC062AE0EE
:1043F000CE010D960E94A3106CED73E0CE014396A2
:104400000E94E313BE01635F7F4FCE0143960E947B
:10441000231061E673E00E940A10BE01695F7F4FBE
:104420000E942310BC01CE0101960E94FC10CE0117
:1044300001960E944305CE0101960E946E10CE01A6
:1044400043960E946E10CE010D960E946E10CE0112
:1044500007960E946E1011E01093BD0641E050E0F7
:1044600062E070E085E090E00E9453051093BF0683
:1044700026CF80915208882309F421CF60E080E0A4
:104480000E9416118BEE93E00E9489114091B506AF
:104490005091B6066091B7067091B8062AE0CE0139
:1044A00007960E94A3104091B9065091BA066091F8
:1044B000BB067091BC062AE0CE010D960E94A310A7
:1044C00068EF73E0CE0143960E94E313BE01635F81
:1044D0007F4FCE0143960E94231061E673E00E9455
:1044E0000A10BE01695F7F4F0E942310BC01CE01FC
:1044F00001960E94FC10CE0101960E944305CE0158
:1045000001960E946E10CE0143960E946E10CE015D
:104510000D960E946E10CE0107960E946E1081E0EB
:104520008093BD064FEF5FEF62E070E086E090E0C1
:104530000E9453058FEF8093BF06C1CE60E080E0FC
:104540000E9416118CE895E00E9489114091B506F1
:104550005091B6066091B7067091B8062AE0CE0178
:1045600007960E94A3104091B9065091BA06609137
:10457000BB067091BC062AE0CE010D960E94A310E6
:104580006DE975E0CE0143960E94E313BE01635FBF
:104590007F4FCE0143960E94231061E673E00E9494
:1045A0000A10BE01695F7F4F0E942310BC01CE013B
:1045B00001960E94FC10CE0101960E944305CE0197
:1045C00001960E946E10CE0143960E946E10CE019D
:1045D0000D960E946E10CE0107960E946E101092EA
:1045E000BD066DCE60910302062E000C770B615064
:1045F000710907C060910302062E000C770B6F5FF4
:104600007F4F8091040241E050E0082E000C990B8E
:104610001BC060910302062E000C770B80910402F0
:10462000082E000C990B41E050E001960DC06091FE
:104630000302062E000C770B80910402082E000C5A
:10464000990B41E050E001970E9453051093CA0670
:10465000D7CD60910302062E000C770B80910402E7
:10466000082E000C990B4FEF5FEF019624C060916C
:104670000302062E000C770B6F5F7F4F07C060911F
:104680000302062E000C770B615071098091040221
:104690004FEF5FEF082E000C990B0DC060910302E5
:1046A000062E000C770B80910402082E000C990B4B
:1046B0004FEF5FEF01970E94530581E08093CA0698
:1046C0009FCD4FEF5FEF63E070E004C04FEF5FEF0F
:1046D00061E070E081E090E00BC041E050E063E019
:1046E00070E004C041E050E061E070E08AE090E0FA
:1046F0000E94530585CDCF93DF93E0E7F7E0138267
:10470000128288EE93E0A0E0B0E084839583A683D4
:10471000B78324E932E031832083ECE7F7E01382AA
:10472000128284839583A683B78386EA92E091837D
:10473000808385EC90E09587848784EC90E0978770
:10474000868780EC90E0918B808B81EC90E0938B5E
:10475000828B82EC90E0958B848B86EC90E0978B3B
:10476000868B118E128E138E148EE8E8F8E0138279
:104770001282148215821682178286E38287CFE026
:10478000C18762E00E94A90EEDE7F8E01382128271
:10479000148215821682178287E38287C18762E0BE
:1047A0000E94A90EE2E7F8E01382128214821582B9
:1047B0001682178288E38287C18762E00E94A90E71
:1047C000E7E6F8E0138212821482158216821782BD
:1047D00089E38287C18762E00E94A90EECE5F8E0D8
:1047E0001382128214821582168217828AE38287CC
:1047F000C18762E00E94A90EE1E5F8E0138212820F
:1048000014821582168217828BE38287C18762E049
:104810000E94A90EE6E4F8E0138212821482158247
:10482000168217828CE38287C18762E00E94A90EFC
:10483000EBE3F8E01382128214821582168217824B
:104840008DE38287C18762E00E94A90EE0E3F8E071
:104850001382128214821582168217828EE3828757
:10486000C18762E00E94A90EE5E2F8E0138212829D
:104870001482158216821782DFE3D287C18762E035
:104880008FE30E94A90EE9E1F8E01382128288EB1F
:1048900092E091838083D48380E1818782E0828764
:1048A0001386DF91CF910895EF920F931F93CF93CB
:1048B000DF93E80147FD02C034E001C034E1E42F9A
:1048C000440FFF0BF7FF03C0F195E195F109E32ECB
:1048D000022F2E2FAE010E942B25CE01DF91CF910A
:1048E0001F910F91EF9008958F929F92AF92BF9278
:1048F000CF92DF92EF92FF92CF93DF93EC0168812A
:1049000079818A819B81611571058105910521F469
:1049100064E279ED8BE597E02DE133EF41E050E083
:104920000E94532849015A019B01AC01A7EAB1E456
:104930000E9472286B017C01ACEEB4EFA5019401DA
:104940000E948028DC01CB018C0D9D1DAE1DBF1D7A
:10495000B7FF03C00197A109B04888839983AA8350
:10496000BB83BC01CD019F77DF91CF91FF90EF908A
:10497000DF90CF90BF90AF909F908F9008950C9450
:10498000742486E092E00C94742460930602709381
:104990000702809308029093090208954532510559
:1049A00020F4423010F00C94D924FB011082CB018A
:1049B0000895BB274A3031F4992322F4BDE2909543
:1049C00081959F4F0C9412252532310520F4223019
:1049D00010F00C94EF24FA011082CA010895BB274D
:1049E000FA01A62F6217710581059105330B30FB83
:1049F00066F0AA27660F771F881F991FAA1FA217A4
:104A000010F0A21B63953850A9F7A05DAA3308F0F7
:104A1000A95DA19336F7B111B1931082CA010C942C
:104A20009127BB27FB015527AA27880F991FAA1F8B
:104A3000A41710F0A41B83955051B9F7A05DAA33B9
:104A400008F0A95DA193009779F7B111B193119284
:104A5000CB010C9491274F925F926F927F929F921D
:104A6000AF92BF92CF92DF92EF92FF920F931F937C
:104A7000CF93DF93CDB7DEB729970FB6F894DEBF9B
:104A80000FBECDBF6A01122FB02E2BE3201720F0EE
:104A9000FF24F394F00E02C0BCE3FB2E0F2D27E0A1
:104AA000AE014F5F5F4F0E94B926AC018981982FFC
:104AB0009970913031F0E1FC06C0E0FE06C090E252
:104AC00005C09DE203C09BE201C090E0EE2DE071C5
:104AD00083FF3CC0911102C083E001C084E08117D4
:104AE00018F4212F281B01C020E0E1110BC0F601B2
:104AF000822F30E2882319F031938150FBCFC20E10
:104B0000D11C20E0992329F0D6019C93F60131961F
:104B10006F01C6010396E2FE0AC03EE4D6013C9353
:104B200041E411964C93119712963C9306C03EE6D1
:104B3000F601308341E641833283FC01322F40E2AB
:104B4000332309F442C041933150FACF82FF44C06D
:104B5000911102C083E001C084E0811718F4212F75
:104B6000281B01C020E0E1110BC0F601822F30E2CA
:104B7000882319F031938150FBCFC20ED11C20E065
:104B8000992329F0D6019C93F60131966F01C60155
:104B90000396E2FE0BC039E4D6013C933EE4119645
:104BA0003C93119736E412963C9307C039E6F60120
:104BB00030833EE6318336E63283FC01322F40E219
:104BC000332319F041933150FBCFFC01E20FF11D6B
:104BD00010828EEF9FEFB7C0F1E0911101C0F0E0BD
:104BE0006F2F70E01416150624F49A012F5F3F4FC3
:104BF00002C021E030E0260F371FBB2029F06B2DCB
:104C000070E06F5F7F4F02C060E070E0260F371FDB
:104C1000612F70E0261737071CF4121B212F01C0EB
:104C200020E03E2D387159F4D601322F60E2332353
:104C300019F06D933150FBCFC20ED11C20E0FF2341
:104C400031F0D6019C93B6016F5F7F4F6B01E1118C
:104C50000BC0F601922F30E3992319F03193915054
:104C6000FBCFC20ED11C20E09F2D940F3A81782FEC
:104C70007071A72E84FF03C0313309F491501916C7
:104C800024F4993018F098E001C091E0E42F852FCA
:104C900057FF02C0E0E080E06E2F782FE0E0F0E008
:104CA000AEE29A2E3A01691A71082A01461A570A89
:104CB0000B2D10E01195019511096F3F8FEF7807CB
:104CC00029F4D6019C92C60101966C01461757073C
:104CD00084F0661677066CF47F01E40CF51CA1E005
:104CE000B0E0AC0FBD1FEA0EFB1ED7011196BC90C1
:104CF00002C090E3B92E615071093196C601019648
:104D00007C016017710724F0D601BC926C01D5CFED
:104D10006417750741F4363320F4353321F4A110BC
:104D200002C081E3B82EF601B082F701822F90E233
:104D3000882319F091938150FBCFF701E20FF11D09
:104D4000108280E090E029960FB6F894DEBF0FBE87
:104D5000CDBFDF91CF911F910F91FF90EF90DF902A
:104D6000CF90BF90AF909F907F906F905F904F904B
:104D70000895283008F027E03327DA01990F311D14
:104D800087FD916000966105710539F432602E5FF0
:104D90003D9330E32A95E1F708959F3F30F0803846
:104DA0007105610509F03C5F3C5F3D93913008F06F
:104DB0008068911DDF93CF931F930F93FF92EF9223
:104DC000192F987F9695E92F96959695E90FFF27CD
:104DD000EA5DFD4F99273327EE24FF24A701E70161
:104DE00005900894079428F4360FE71EF81E491F13
:104DF000511D660F771F881F991F0694A1F7059014
:104E0000079428F4E70EF81E491F561FC11D770F9F
:104E1000881F991F661F0694A1F70590079428F430
:104E2000F80E491F561FC71FD11D880F991F661FF7
:104E3000771F0694A1F70590079420F4490F561F99
:104E4000C71FD81F990F661F771F881F0694A9F7E1
:104E500084911095177041F0D695C7955795479551
:104E6000F794E7941A95C1F7ECECF1E0689415908B
:104E7000159135916591959105907FE27395E118B3
:104E8000F10A430B560BC90BD009C0F7E10CF11E18
:104E9000431F561FC91FD01D7EF4703311F48A952D
:104EA000E6CFE894015030F0080F0AF4002702170B
:104EB00008F4202F2395022F7A3328F079E37D938D
:104EC0002A95E9F710C07D932A9589F6069497955F
:104ED0006795379517951794E118F10A430B560B10
:104EE000C90BD00998F023957E9173957A3308F019
:104EF00070E37C932013B8F77E9170617D9330F05E
:104F0000839571E37D9370E32A95E1F71124EF9087
:104F1000FF900F911F91CF91DF91992787FD909579
:104F20000895DC01FC01672F71917723E1F7329737
:104F300004C07C916D9370836291AE17BF07C8F374
:104F40000895E89409C097FB3EF49095809570957C
:104F500061957F4F8F4F9F4F9923A9F0F92F96E9C5
:104F6000BB279395F695879577956795B795F1113A
:104F7000F8CFFAF4BB0F11F460FF1BC06F5F7F4FD7
:104F80008F4F9F4F16C0882311F096E911C07723E9
:104F900021F09EE8872F762F05C0662371F096E8F2
:104FA000862F70E060E02AF09A95660F771F881FC1
:104FB000DAF7880F9695879597F90895990F000865
:104FC000550FAA0BE0E8FEEF16161706E807F907DB
:104FD000C0F012161306E407F50798F0621B730B76
:104FE000840B950B39F40A2661F0232B242B252BF7
:104FF00021F408950A2609F4A140A6958FEF811D9A
:10500000811D089597F99F6780E870E060E008953A
:105010009FEF80EC089500240A94161617061806D0
:105020000906089500240A941216130614060506AC
:105030000895092E0394000C11F4882352F0BB0F3D
:1050400040F4BF2B11F460FF04C06F5F7F4F8F4FA0
:105050009F4F089557FD9058440F551F59F05F3FDB
:1050600071F04795880F97FB991F61F09F3F79F08A
:1050700087950895121613061406551FF2CF46950C
:10508000F1DF08C0161617061806991FF1CF86958E
:105090007105610508940895E894BB276627772772
:1050A000CB0197F90895052E97FB1EF400940E94FA
:1050B0006A2857FD07D00E94852807FC03D04EF4CC
:1050C0000C946A2850954095309521953F4F4F4F4D
:1050D0005F4F089590958095709561957F4F8F4FA4
:1050E0009F4F08950E94A728A59F900DB49F900DF3
:1050F000A49F800D911D11240895B7FF0C94722870
:105100000E947228821B930B0895A1E21A2EAA1BFB
:10511000BB1BFD010DC0AA1FBB1FEE1FFF1FA21767
:10512000B307E407F50720F0A21BB30BE40BF50B64
:10513000661F771F881F991F1A9469F760957095ED
:10514000809590959B01AC01BD01CF010895A29F70
:10515000B001B39FC001A39F700D811D1124911D4B
:10516000B29F700D811D1124911D08955058BB27C9
:10517000AA270E94CE280C9419280E940B2838F0E8
:105180000E94122820F039F49F3F19F426F40C9461
:1051900008280EF4E095E7FB0C940228E92F0E9402
:1051A0002A2858F3BA17620773078407950720F077
:1051B00079F4A6F50C944C280EF4E0950B2EBA2F3A
:1051C000A02D0B01B90190010C01CA01A00111240D
:1051D000FF27591B99F0593F50F4503E68F11A16B9
:1051E000F040A22F232F342F4427585FF3CF46954A
:1051F00037952795A795F0405395C9F77EF41F166C
:10520000BA0B620B730B840BBAF09150A1F0FF0F35
:10521000BB1F661F771F881FC2F70EC0BA0F621F21
:10522000731F841F48F4879577956795B795F79511
:105230009E3F08F0B0CF9395880F08F09927EE0FA6
:105240009795879508950E9437290C9419280E94F4
:10525000122858F00E940B2840F029F45F3F29F0F3
:105260000C94022851110C944D280C9408280E948B
:105270002A2868F39923B1F3552391F3951B550B15
:10528000BB27AA2762177307840738F09F5F5F4F19
:10529000220F331F441FAA1FA9F335D00E2E3AF058
:1052A000E0E832D091505040E695001CCAF72BD070
:1052B000FE2F29D0660F771F881FBB1F26173707C1
:1052C0004807AB07B0E809F0BB0B802DBF01FF27F3
:1052D00093585F4F3AF09E3F510578F00C940228A6
:1052E0000C944D285F3FE4F3983ED4F38695779570
:1052F0006795B795F7959F5FC9F7880F911D9695AC
:10530000879597F90895E1E0660F771F881FBB1F07
:10531000621773078407BA0720F0621B730B840BB4
:10532000BA0BEE1F88F7E09508950E949C296894B7
:10533000B1110C944D2808950E94322888F09F578F
:1053400098F0B92F9927B751B0F0E1F0660F771FA9
:10535000881F991F1AF0BA95C9F714C0B13091F09F
:105360000E944C28B1E008950C944C28672F782FA8
:105370008827B85F39F0B93FCCF386957795679564
:10538000B395D9F73EF490958095709561957F4FD0
:105390008F4F9F4F08950E94DE2708F48FEF0895E6
:1053A000EE0FFF1F881F8BBF0790F691E02D199419
:1053B000CF93DF938230910510F482E090E0E0918A
:1053C000B808F091B90820E030E0C0E0D0E03097B4
:1053D00011F14081518148175907C0F0481759070A
:1053E00061F482819381209719F09B838A832BC07B
:1053F0009093B9088093B80826C02115310519F09B
:105400004217530718F49A01BE01DF01EF01028031
:10541000F381E02DDCCF2115310509F1281B390B73
:105420002430310590F412968D919C91139761155B
:10543000710521F0FB019383828304C09093B90826
:105440008093B808FD01329644C0FD01E20FF31FBE
:1054500081939193225031092D933C933AC020912E
:10546000B6083091B708232B41F420910C023091FB
:105470000D023093B7082093B60820910A023091AC
:105480000B022115310541F42DB73EB740910E02B4
:1054900050910F02241B350BE091B608F091B7082C
:1054A000E217F307A0F42E1B3F0B2817390778F0FB
:1054B000AC014E5F5F4F2417350748F04E0F5F1F5A
:1054C0005093B7084093B6088193919302C0E0E0EF
:1054D000F0E0CF01DF91CF9108950F931F93CF9309
:1054E000DF93009709F48CC0FC013297138212827B
:1054F0000091B8081091B9080115110581F42081B7
:105500003181820F931F2091B6083091B708281778
:10551000390779F5F093B708E093B60871C0D80160
:1055200040E050E0AE17BF0750F412962D913C9129
:105530001397AD012115310509F1D901F3CF9D0173
:10554000DA013383228360817181860F971F82176E
:10555000930769F4EC0128813981260F371F2E5FEC
:105560003F4F318320838A819B8193838283452BA4
:1055700029F4F093B908E093B80842C01396FC935D
:10558000EE931297ED01499159919E01240F351F19
:10559000E217F30771F480819181840F951F0296C1
:1055A00011969C938E938281938113969C938E93F4
:1055B0001297E0E0F0E0D80112968D919C9113973C
:1055C000009719F0F8018C01F6CF8D919C9198010C
:1055D0002E5F3F4F820F931F2091B6083091B7087E
:1055E0002817390769F4309729F41092B9081092F6
:1055F000B80802C0138212821093B7080093B6084D
:10560000DF91CF911F910F9108956F927F928F92AA
:105610009F92AF92BF92CF92DF92EF92FF920F9341
:105620001F93CF93DF93EC01009789F4CB01DF91B7
:10563000CF911F910F91FF90EF90DF90CF90BF908F
:10564000AF909F908F907F906F900C94D829FC0121
:10565000E60FF71F9C0122503109E217F30708F407
:10566000ACC0D9010D911C91119706171707B0F026
:105670000530110508F49FC0C801049786179707E5
:1056800008F499C002501109061B170B01931193DE
:105690006D937C93CF010E946D2A8DC05B01A01A8F
:1056A000B10A4C01800E911EA091B808B091B908C2
:1056B00040E050E0E12CF12C109709F44AC0A81505
:1056C000B905D1F56D907C901197630182E0C80E09
:1056D000D11CCA14DB0480F1A3014A195B096A01D9
:1056E00082E0C80ED11C1296BC9012971396AC9112
:1056F000B5E0CB16D10440F0B282A383518340833E
:10570000D9016D937C930AC00E5F1F4FC301800FB8
:10571000911FF90191838083EB2DFA2FE114F1049D
:1057200031F0D7011396FC93EE93129744C0F09397
:10573000B908E093B8083FC08D919C911197481724
:10574000590708F4AC017D0112960D90BC91A02D73
:10575000B3CF8091B6089091B70888159905E1F408
:1057600046175707C8F480910A0290910B020097E0
:1057700041F48DB79EB740910E0250910F02841BE9
:10578000950BE817F907C8F4F093B708E093B6084B
:10579000F901718360830FC0CB010E94D8297C017D
:1057A000009759F0A801BE010E94F32BCE010E9480
:1057B0006D2AC70104C0CE0102C080E090E0DF91F5
:1057C000CF911F910F91FF90EF90DF90CF90BF90FE
:1057D000AF909F908F907F906F90089581E090E0C0
:1057E000F8940C94032CFB01DC0102C001900D9293
:1057F00041505040D8F70895FB01DC0101900D9213
:0A5800000020E1F70895F894FFCFAF
:10580A0001FFFFFFFFFF010000000000BA0880004F
:10581A00FF00FF002701FF00FF00FF000300230134
:10582A000100FF00FF001DFF25FF19FFFF00FF0019
:10583A001C0124011A01FF00FF001EFF22FF1BFFAB
:10584A00FF00FF00FF002A01FF00FF00FF00FF002A
:10585A002CFFFF00FF00FF001F012B011701FF00B3
:10586A00FF0021FF26FF16FFFF00FF0020012D0188
:10587A001801FF00FF00040029FF0200FF00FF00DB
:10588A00FF0028FFFF00FF00000040001400540042
:10589A00000000000B0CDB0B3303B50BD30BC40B5E
:1058AA00B60B000000009002B8132802D702590272
:1058BA0037024B02000000002605B81333033203F7
:1058CA0057686F2069732066617374657220636F0D
:1058DA0077626F793F212050726573732063617418
:1058EA00636820627574746F6E20616674657220D5
:1058FA007468652062656570210057686F20697356
:10590A00206661737465723F212000436174636885
:10591A002061667465722062656570005265647301
:10592A00206661696C2120202020202000477265B2
:10593A00656E732077696E21202020202000526531
:10594A0064732066616C7365737461727420616E2E
:10595A006420677265656E732077696E20617420B2
:10596A00002061667465722000477265656E732057
:10597A006661696C212020202000526564732077BB
:10598A00696E212020202020202000477265656E44
:10599A00732066616C7365737461727420616E64DE
:1059AA0020726564732077696E20617420004361F8
:1059BA007463682062616C6C2100466173742064B0
:1059CA00726177212020202020200057686F2773DA
:1059DA0020636F77626F7921202020004772656506
:1059EA006E732077696E206174200052656473209B
:1059FA0077696E2120202000526564732077696ED2
:105A0A00206174200047733A200020202052733A04
:105A1A00200053696465206F7574206174200052F8
:105A2A006564732073636F72652061742000526429
:105A3A00732073636F72652100477265656E732008
:105A4A0073636F72652061742000477273207363F9
:105A5A006F72652100476F616C206C696E65206307
:105A6A00726F7373656420617420004F6666736990
:105A7A00646520617420004F66667369646521203D
:105A8A002020202020202000537461727420326E5E
:105A9A00642074696D652061742000326E6420741C
:105AAA00696D6520626567696E732100507265735E
:105ABA007320616E79206B65792E2E2E0047616DF9
:105ACA006520656E64732061742000477265656E97
