:100000000C94C1020C94F2020C94F2020C94F202D1
:100010000C94F2020C94F2020C94F2020C94F20290
:100020000C94F2020C94F2020C94F2020C94F20280
:100030000C94F2020C948F170C94F2020C94C212DE
:100040000C94F2020C94F2020C94F2020C94F20260
:100050000C94F2020C94F2020C94F2020C94BA107A
:100060000C94F2020C948C120C9462120C94F20216
:100070000C94F2020C94F2020C94F2020C94F20230
:100080000C94F2020C94F2020C94F2020C94F20220
:100090000C94F2020C94F2020C94F2020C94180EDE
:1000A0000C94F2020C94F2020C94F2020C94F20200
:1000B0000C94F2020C94F2020C94F2020C94F202F0
:1000C0000C94F2020C94F2020C94F2020C94F202E0
:1000D0000C94F2020C94F2020C94F2020C94F202D0
:1000E0000C94F202B519C51A341E2120B120122138
:1000F000F72169246924C11E670D6A0D590D5D0D34
:10010000630DA10D6E0D720D780D7C0D800D860DA9
:100110008A0D8E0DA10D940D980D9C0D0C94980DCB
:100120000C94C11E0C94B1200C9490270C941D11BA
:100130000C94A10D0C94DA060C944E110C94670DDE
:100140000C946E0D0C9427120C94D60C0C946A0D22
:100150000C94B5190C94780D0C94C70C0C94800D6C
:100160000C9469240C9485110C94C80C0C941221E5
:100170000C942C110C949C0D0C947C0D0C94ED0C97
:100180000C94341E0C94E50C0C948B150C942812D2
:100190000C94ED130C948A0D0C941D0D0C94720D9F
:1001A0000C94940D0C94630D0C94C51A0C945D0D75
:1001B0000C94860D0C948E0D0C94590D0C942120EA
:1001C0000C9419280C94F7210C9440110C94CC1128
:1001D00000407A10F35A00A0724E18090010A5D4FE
:1001E000E80000E87648170000E40B54020000CA5B
:1001F0009A3B000000E1F5050000809698000000A1
:1002000040420F000000A0860100000010270000FF
:100210000000E803000000006400000000000A0085
:10022000000000000100000000002C76D888DC6788
:100230004F0823DFC1DFAE59E1B1B796E5E3E453E0
:10024000C63AE651997696E8E6C28426EB898C9BFD
:1002500062ED407C6FFCEFBC9C9F40F2BAA56FA59D
:10026000F490055A2AF75C936B6CF9676DC11BFC1F
:10027000E0E40D47FEF520E6B500D0ED902E03003A
:10028000943577050080841E080000204E0A000087
:1002900000C80C333333330F986E12831141EF8D46
:1002A0002114893BE65516CFFEE6DB18D1844B3886
:1002B0001BF77C1D901DA4BBE424203284725E22B7
:1002C0008100C9F124ECA1E53D27526564732077D4
:1002D000696E212020202020202000477265656E55
:1002E000732077696E2120202020200044726177DE
:1002F0002067616D6521416761696E210057686FF4
:10030000277320636F77626F792120202000466178
:1003100073742064726177212020202020200063E4
:100320006174636842616C6C2C2C2C2C00526564E7
:10033000732077696E212020202020202000477222
:1003400065656E73206661696C212020202000475E
:100350007265656E732077696E2120202020200051
:1003600052656473206661696C2120202020202062
:100370000043726F7373206661696C212020202016
:100380002000436174636820616674657220626551
:1003900065700057686F20697320666173746572B9
:1003A0003F2120006B6579636F77626F79732C2C26
:1003B0002C2C00507265737320616E79206B657907
:1003C0002E2E2E0044726177696E67206265676920
:1003D0006E732120004F66667369646521202020BA
:1003E000202020202000326E642074696D65206218
:1003F0006567696E732100707265737320616E7931
:10040000206B65792E2E2E00526F74617465206208
:100410006F61726420616E640046696E616C207366
:10042000636F72653A202020200044726177206754
:10043000616D6521202020202020005265647320FA
:1004400077696E21202020202020200047726565DA
:100450006E732077696E212020202000000021008B
:10046000240027002A002D00300033000101000085
:10047000040107010A0100002200250028002B00CA
:100480002E003100340002010000050108010B01BB
:10049000000020002300260029002C002F0032003D
:1004A0000001000003010601090105050505070516
:1004B00008080808020202020A0A080804040404E0
:1004C000010101010101010103030303030303030C
:1004D000040707070C0C0C0C0C0C0C0C020202029B
:1004E00006060606060606060B0B0B0B0B0B0B0B84
:1004F0000102102020080810204010204080020136
:10050000020108040201010204081020408080401A
:100510002010080402018004020180402010080419
:1005200002010804020101020408102040800102B7
:1005300004081020408000000A0B02090C0D0E0870
:10054000070304010000000000000000000000009C
:10055000000000000000000000000000000000009B
:100560000000121110000000000000000000000058
:1005700000000000000000000000000002009027C2
:10058000192811241FBECFEFD1E2DEBFCDBF00E09E
:100590000CBF14E0A0E0B2E0ECEFF0E600E00BBF2F
:1005A00002C007900D92AE34B107D9F726E0AEE451
:1005B000B4E001C01D92A83EB207E1F712E0C0EC22
:1005C000D2E000E006C021970109802FFE010E94C1
:1005D000252ECF3BD10780E00807A9F70E943C18E1
:1005E0000C946C300C9400004F925F926F927F924B
:1005F0008F929F92AF92BF92DF92EF92FF920F93F2
:100600001F93CF93DF93EC01088110E08A890E9449
:100610004A0F0817190711F0188A7CC00E94AE1003
:100620002B013C0188898F5F888B9989891708F491
:1006300071C0D88081E0D826D882188AC301B2015F
:100640000E948A2B20E030E04AE754E40E94232DE8
:100650004B015C010E940C2D0E94952DCB016CE397
:1006600070E00E94112E8C01892B11F40CE310E034
:100670008E859F850817190788F08B899C89AD891D
:10068000BE89A3019201281B390B4A0B5B0BDA01CF
:10069000C90181369A4EA105B10510F01D821C8258
:1006A0004B8A5C8A6D8A7E8A1F870E878A819B812E
:1006B00001969B838A83EC80FD804FEFE41AF40A55
:1006C000FD82EC82BC0180E090E00E948A2BA501B3
:1006D00094010E94232D6E837F8388879987B701B9
:1006E00080E090E00E948A2B4B015C01B80180E021
:1006F00090E00E948A2B9B01AC01C501B4010E94CD
:10070000232D6A877B878C879D8781E0DD2019F008
:10071000898301C080E0DF91CF911F910F91FF90FD
:10072000EF90DF90BF90AF909F908F907F906F90F1
:100730005F904F9008958F929F92AF92BF92EF92E9
:10074000FF921F93CF93DF937B0180E30E944A0FB8
:10075000892B09F4FCC1809105028E3221F08F3F74
:1007600009F0F5C104C0ECE7F5E01491E8C08EE2B1
:1007700080930502ECE7F5E0E491EF3F09F4E7C16F
:10078000E23009F472C04CF5EE2309F451C0E130B7
:1007900009F0D4C0109280001092810080918100F5
:1007A00088608093810080918100816080938100C6
:1007B000E8EDF4E0E491F0E0EE0FFF1FEA58FB4FA4
:1007C000859194919093820480938104EEE1F5E009
:1007D000E491E093800411E0B4C0E43009F48BC0EC
:1007E0000CF466C0E53009F0A9C010922001109207
:1007F0002101809121018860809321018091210154
:10080000816080932101E8EDF4E0E491F0E0EE0FE7
:10081000FF1FEA58FB4F8591949190937904809340
:100820007804EEE1F5E0E491E093770415E089C007
:1008300014BC15BC84B5826084BD85B5816085BD5E
:10084000E8EDF4E0E491F0E0EE0FFF1FEA58FB4F13
:10085000859194919093850480938404EEE1F5E072
:10086000E491E093830410E06CC01092B000109209
:10087000B1008091B00082608093B0008091B1009F
:1008800081608093B100E8EDF4E0E491F0E0EE0FD8
:10089000FF1FEA58FB4F859194919093DE06809359
:1008A000DD06EEE1F5E0E491E093DF0612E049C0F9
:1008B0001092900010929100809191008860809336
:1008C000910080919100816080939100E8EDF4E0C7
:1008D000E491F0E0EE0FFF1FEA58FB4F85919491F1
:1008E00090937F0480937E04EEE1F5E0E491E09341
:1008F0007D0413E026C01092A0001092A100809108
:10090000A10088608093A1008091A1008160809304
:10091000A100E8EDF4E0E491F0E0EE0FFF1FEA58EB
:10092000FB4F8591949190937C0480937B04EEE13E
:10093000F5E0E491E0937A0414E003C01E2F17FD64
:1009400006C14701A12CB12C61E08EE20E94A30FE9
:10095000112309F4F1C0123009F44DC0113071F4C3
:1009600080918100887F81608093810089288A2816
:100970008B2809F480C0C9E6DAE04AC0133081F45C
:1009800080919100887F81608093910089288A28D6
:100990008B2889F72FEF3FEFA901C9E6DAE096C06F
:1009A000143081F48091A100887F81608093A10040
:1009B00089288A288B28F9F62FEF3FEFA901C9E68D
:1009C000DAE096C0153081F480912101887F816042
:1009D0008093210189288A288B2869F62FEF3FEF21
:1009E000A901C9E6DAE096C0C9E6DAE089288A28D2
:1009F0008B28D1F00DC08091B100887F83608093F7
:100A0000B10089288A288B2809F44CC0C2E5D0E0BF
:100A10009701A0E7B7E10E94902C28EE33E040E078
:100A200050E00E946E2C03C02FEF3FEFA90112305F
:100A3000E9F12CF4112381F0113011F188C0143048
:100A400009F456C00CF442C0153009F463C07FC0ED
:100A50002FEF3FEFA901C8E2C7BD20939604309362
:100A60009704409398045093990480916E0082609B
:100A700080936E006CC02FEF3FEFA901C9E6DAE06A
:100A8000D0938900C09388002093920430939304FC
:100A9000409394045093950480916F0082608093FA
:100AA0006F0055C02FEF3FEFA901C2E5C093B3001F
:100AB0002093E0063093E1064093E2065093E3066C
:100AC0008091700082608093700041C0D093990043
:100AD000C093980020938E0430938F044093900429
:100AE00050939104809171008260809371002FC0B7
:100AF000D093A900C093A80020938A0430938B045C
:100B000040938C0450938D04809172008260809396
:100B100072001DC0D0932901C09328012093860440
:100B20003093870440938804509389048091730024
:100B30008260809373000BC085B5887F836085BD1C
:100B400089288A288B2809F483CFC8E260CFDF91F7
:100B5000CF911F91FF90EF90BF90AF909F908F909B
:100B600008950F931F93CF93DF93CDB7DEB7C25491
:100B7000D1090FB6F894DEBF0FBECDBF8C018091B6
:100B800070008E7F8093700080910002882309F4AA
:100B900003C160915604062E000C770B4AE0CE018B
:100BA000CD960E940D1760910102062E000C770B66
:100BB0004AE0CE01C7960E940D1760910202062EF0
:100BC000000C770B4AE0CE01C1960E940D17609190
:100BD0005804062E000C770B4AE0CE018B960E943B
:100BE0000D1790910302692F990F770B4AE0CE0100
:100BF00085960E940D1790910402692F990F770B2B
:100C00004AE0CE014F960E940D1790916904692F1A
:100C1000990F770B4AE0CE0149960E940D1740913B
:100C2000590450915A0460915B0470915C042AE06D
:100C3000CE0143960E94B41640916504509166041B
:100C400060916704709168042AE0CE010D960E94BD
:100C5000B4160E94AE10AB01BC012AE0CE01019691
:100C60000E94B416BE016F5F7F4FCE0107960E94AF
:100C7000711760E973E0CE0107960E940411BE016E
:100C8000635F7F4F0E941D1660E973E00E940411AC
:100C9000BE016D5E7F4F0E941D1660E973E00E94E9
:100CA0000411BE01675E7F4F0E941D1660E973E06C
:100CB0000E940411BE01615E7F4F0E941D1660E913
:100CC00073E00E940411BE016B5D7F4F0E941D16F0
:100CD00060E973E00E940411BE01655D7F4F0E94D0
:100CE0001D1660E973E00E940411BE016F5C7F4F26
:100CF0000E941D1660E973E00E940411BE01695C48
:100D00007F4F0E941D1660E973E00E940411BE012E
:100D1000635C7F4F0E941D1660E973E00E9404111E
:100D2000B8010E941D16BC0180EF94E00E942E18AD
:100D300042E050E061E074E080EF94E00E948B15A7
:100D4000CE0107960E947F16CE0101960E947F1663
:100D5000CE010D960E947F16CE0143960E947F160B
:100D6000CE0149960E947F16CE014F960E947F16B3
:100D7000CE0185960E947F16CE018B960E947F162B
:100D8000CE01C1960E947F16CE01C7960E947F16A3
:100D9000CE01CD960E947F160E943813CE5BDF4FA6
:100DA0000FB6F894DEBF0FBECDBFDF91CF911F917C
:100DB0000F910895CF93DF93CDB7DEB7A4970FB609
:100DC000F894DEBF0FBECDBF63E074E0CE010196A4
:100DD0000E947A178EE696E00E94F402882309F4B6
:100DE0006DC060917206709173064AE0CE014F9615
:100DF0000E94E11660917C0670917D064AE0CE016A
:100E000049960E94E11640917806509179066091CA
:100E10007A0670917B0622E0CE0143960E948416EA
:100E200060916E0670E04AE0CE010D960E940D17AB
:100E3000BE016F5F7F4FCE0107960E94711764E07D
:100E400074E0CE0107960E940411BE01635F7F4FDC
:100E50000E941D1660E973E00E940411BE016D5EE0
:100E60007F4F0E941D1660E973E00E940411BE01CD
:100E7000675E7F4F0E941D1660E973E00E940411B7
:100E8000BE01615E7F4F0E941D16BC01CE0101961E
:100E90000E946816CE0107960E947F16CE010D961D
:100EA0000E947F16CE0143960E947F16CE0149967E
:100EB0000E947F16CE014F960E947F1687E596E02E
:100EC0000E94F402882309F487C08D819E810297D5
:100ED000B0F0BE016F5F7F4FCE0107960E94711781
:100EE00061E074E0CE0107960E940411BC01CE01BE
:100EF00001960E946816CE0107960E947F166091A7
:100F00005B0670915C064AE0CE014F960E94E116A6
:100F100060916506709166064AE0CE0149960E948E
:100F2000E1164091610650916206609163067091EE
:100F3000640622E0CE0143960E9484166091570613
:100F400070E04AE0CE010D960E940D17BE016F5F62
:100F50007F4FCE0107960E94711769E074E0CE01C1
:100F600007960E940411BE01635F7F4F0E941D1609
:100F700060E973E00E940411BE016D5E7F4F0E9424
:100F80001D1660E973E00E940411BE01675E7F4F89
:100F90000E941D1660E973E00E940411BE01615EAB
:100FA0007F4F0E941D16BC01CE0101960E9468165B
:100FB000CE0107960E947F16CE010D960E947F16E5
:100FC000CE0143960E947F16CE0149960E947F165D
:100FD000CE014F960E947F1680E496E00E94F402B4
:100FE000882309F487C08D819E810297B0F0BE01ED
:100FF0006F5F7F4FCE0107960E94711761E074E02A
:10100000CE0107960E940411BC01CE0101960E94F8
:101010006816CE0107960E947F1660914406709173
:1010200045064AE0CE014F960E94E11660914E06B9
:1010300070914F064AE0CE0149960E94E116409118
:101040004A0650914B0660914C0670914D0622E085
:10105000CE0143960E9484166091400670E04AE0FB
:10106000CE010D960E940D17BE016F5F7F4FCE011E
:1010700007960E9471176EE074E0CE0107960E94F9
:101080000411BE01635F7F4F0E941D1660E973E08B
:101090000E940411BE016D5E7F4F0E941D1660E923
:1010A00073E00E940411BE01675E7F4F0E941D160F
:1010B00060E973E00E940411BE01615E7F4F0E94EF
:1010C0001D16BC01CE0101960E946816CE0107963E
:1010D0000E947F16CE010D960E947F16CE01439688
:1010E0000E947F16CE0149960E947F16CE014F9630
:1010F0000E947F1689E296E00E94F402882309F498
:1011000087C08D819E810297B0F0BE016F5F7F4FD7
:10111000CE0107960E94711761E074E0CE01079638
:101120000E940411BC01CE0101960E946816CE01F6
:1011300007960E947F1660912D0670912E064AE058
:10114000CE014F960E94E1166091370670913806E5
:101150004AE0CE0149960E94E11640913306509133
:101160003406609135067091360622E0CE01439632
:101170000E9484166091290670E04AE0CE010D9627
:101180000E940D17BE016F5F7F4FCE0107960E9430
:10119000711763E174E0CE0107960E940411BE014D
:1011A000635F7F4F0E941D1660E973E00E94041187
:1011B000BE016D5E7F4F0E941D1660E973E00E94C4
:1011C0000411BE01675E7F4F0E941D1660E973E047
:1011D0000E940411BE01615E7F4F0E941D16BC017A
:1011E000CE0101960E946816CE0107960E947F16D6
:1011F000CE010D960E947F16CE0143960E947F1667
:10120000CE0149960E947F16CE014F960E947F160E
:1012100082E196E00E94F402882309F487C08D8160
:101220009E810297B0F0BE016F5F7F4FCE0107969F
:101230000E94711761E074E0CE0107960E940411CC
:10124000BC01CE0101960E946816CE0107960E944D
:101250007F1660911606709117064AE0CE014F96F0
:101260000E94E11660912006709121064AE0CE01AD
:1012700049960E94E11640911C0650911D0660910E
:101280001E0670911F0622E0CE0143960E9484162E
:101290006091120670E04AE0CE010D960E940D1793
:1012A000BE016F5F7F4FCE0107960E94711768E104
:1012B00074E0CE0107960E940411BE01635F7F4F68
:1012C0000E941D1660E973E00E940411BE016D5E6C
:1012D0007F4F0E941D1660E973E00E940411BE0159
:1012E000675E7F4F0E941D1660E973E00E94041143
:1012F000BE01615E7F4F0E941D16BC01CE010196AA
:101300000E946816CE0107960E947F16CE010D96A8
:101310000E947F16CE0143960E947F16CE01499609
:101320000E947F16CE014F960E947F168BEF95E0AC
:101330000E94F402882309F487C08D819E81029760
:10134000B0F0BE016F5F7F4FCE0107960E9471170C
:1013500061E074E0CE0107960E940411BC01CE0149
:1013600001960E946816CE0107960E947F16609132
:10137000FF05709100064AE0CE014F960E94E116EB
:101380006091090670910A064AE0CE0149960E94D2
:10139000E11640910506509106066091070670918E
:1013A000080622E0CE0143960E9484166091FB0558
:1013B00070E04AE0CE010D960E940D17BE016F5FEE
:1013C0007F4FCE0107960E9471176DE174E0CE0148
:1013D00007960E940411BE01635F7F4F0E941D1695
:1013E00060E973E00E940411BE016D5E7F4F0E94B0
:1013F0001D1660E973E00E940411BE01675E7F4F15
:101400000E941D1660E973E00E940411BE01615E36
:101410007F4F0E941D16BC01CE0101960E946816E6
:10142000CE0107960E947F16CE010D960E947F1670
:10143000CE0143960E947F16CE0149960E947F16E8
:10144000CE014F960E947F1684EE95E00E94F40232
:10145000882309F487C08D819E810297B0F0BE0178
:101460006F5F7F4FCE0107960E94711761E074E0B5
:10147000CE0107960E940411BC01CE0101960E9484
:101480006816CE0107960E947F166091E80570915C
:10149000E9054AE0CE014F960E94E1166091F205FF
:1014A0007091F3054AE0CE0149960E94E116409101
:1014B000EE055091EF056091F0057091F10522E085
:1014C000CE0143960E9484166091E40570E04AE0E4
:1014D000CE010D960E940D17BE016F5F7F4FCE01AA
:1014E00007960E94711762E274E0CE0107960E948F
:1014F0000411BE01635F7F4F0E941D1660E973E017
:101500000E940411BE016D5E7F4F0E941D1660E9AE
:1015100073E00E940411BE01675E7F4F0E941D169A
:1015200060E973E00E940411BE01615E7F4F0E947A
:101530001D16BC01CE0101960E946816CE010796C9
:101540000E947F16CE010D960E947F16CE01439613
:101550000E947F16CE0149960E947F16CE014F96BB
:101560000E947F168DEC95E00E94F402882309F416
:1015700087C08D819E810297B0F0BE016F5F7F4F63
:10158000CE0107960E94711761E074E0CE010796C4
:101590000E940411BC01CE0101960E946816CE0182
:1015A00007960E947F166091D1057091D2054AE09E
:1015B000CE014F960E94E1166091DB057091DC052B
:1015C0004AE0CE0149960E94E1164091D70550911C
:1015D000D8056091D9057091DA0522E0CE014396D5
:1015E0000E9484166091CD0570E04AE0CE010D9610
:1015F0000E940D17BE016F5F7F4FCE0107960E94BC
:10160000711767E274E0CE0107960E940411BE01D3
:10161000635F7F4F0E941D1660E973E00E94041112
:10162000BE016D5E7F4F0E941D1660E973E00E944F
:101630000411BE01675E7F4F0E941D1660E973E0D2
:101640000E940411BE01615E7F4F0E941D16BC0105
:10165000CE0101960E946816CE0107960E947F1661
:10166000CE010D960E947F16CE0143960E947F16F2
:10167000CE0149960E947F16CE014F960E947F169A
:1016800086EB95E00E94F402882309F487C08D81DF
:101690009E810297B0F0BE016F5F7F4FCE0107962B
:1016A0000E94711761E074E0CE0107960E94041158
:1016B000BC01CE0101960E946816CE0107960E94D9
:1016C0007F166091BA057091BB054AE0CE014F9636
:1016D0000E94E1166091C4057091C5054AE0CE01F3
:1016E00049960E94E1164091C0055091C105609154
:1016F000C2057091C30522E0CE0143960E94841674
:101700006091B60570E04AE0CE010D960E940D177B
:10171000BE016F5F7F4FCE0107960E9471176CE28A
:1017200074E0CE0107960E940411BE01635F7F4FF3
:101730000E941D1660E973E00E940411BE016D5EF7
:101740007F4F0E941D1660E973E00E940411BE01E4
:10175000675E7F4F0E941D1660E973E00E940411CE
:10176000BE01615E7F4F0E941D16BC01CE01019635
:101770000E946816CE0107960E947F16CE010D9634
:101780000E947F16CE0143960E947F16CE01499695
:101790000E947F16CE014F960E947F168FE995E03A
:1017A0000E94F402882309F487C08D819E810297EC
:1017B000B0F0BE016F5F7F4FCE0107960E94711798
:1017C00061E074E0CE0107960E940411BC01CE01D5
:1017D00001960E946816CE0107960E947F166091BE
:1017E000A3057091A4054AE0CE014F960E94E11630
:1017F0006091AD057091AE054AE0CE0149960E9418
:10180000E1164091A9055091AA056091AB05709130
:10181000AC0522E0CE0143960E94841660919F059C
:1018200070E04AE0CE010D960E940D17BE016F5F79
:101830007F4FCE0107960E94711761E374E0CE01DD
:1018400007960E940411BE01635F7F4F0E941D1620
:1018500060E973E00E940411BE016D5E7F4F0E943B
:101860001D1660E973E00E940411BE01675E7F4FA0
:101870000E941D1660E973E00E940411BE01615EC2
:101880007F4F0E941D16BC01CE0101960E94681672
:10189000CE0107960E947F16CE010D960E947F16FC
:1018A000CE0143960E947F16CE0149960E947F1674
:1018B000CE014F960E947F168D819E81029778F00F
:1018C000BE016F5F7F4FCE0107960E947117CE0158
:1018D00007960E94B105CE0107960E947F16CE01A1
:1018E00001960E947F16A4960FB6F894DEBF0FBE35
:1018F000CDBFDF91CF910895FC01862F1382128214
:10190000158214821682178210861186128613861B
:101910001486158617861686138A148A158A168ADF
:10192000628B418B62E00C94A30F85ED8093BC0029
:101930008091BC0084FDFCCF1092E1040895409199
:10194000B006262F30E0240F311D21323105DCF4A2
:101950002091E1042430C9F4FC0180E090E0861776
:1019600058F43091B0062191DC01A257B94FA30F72
:10197000B11D2C930196F3CF8091B006680F609350
:10198000B00680E0089581E0089582E0089508950A
:1019900081E090E03091D6062091D506321710F400
:1019A00080E090E091958195910908958091D60607
:1019B0009091D506891730F48F5F8093D60680E02A
:1019C00090E008958FEF9FEF08958091D50690E005
:1019D0002091D606821B91090895CF92DF92EF9253
:1019E000FF920F931F93CF93DF937C01262F972FA6
:1019F0008A018091BA04882391F0C62FD72F6E01F7
:101A0000C40ED51ECC15DD0571F06991D701ED919D
:101A1000FC910190F081E02DC7011995F3CF642F5F
:101A2000822F0E949F0CC801DF91CF911F910F91CF
:101A3000FF90EF90DF90CF900895CF93DF931F92A8
:101A4000CDB7DEB769832091BA042223D1F020916B
:101A5000E204203240F021E030E0FC0133832283B5
:101A600080E090E015C08091E304E82FF0E0E656B6
:101A7000FB4F998190838F5F8093E3048093E2040E
:101A800005C061E0CE0101960E949F0C81E090E0CC
:101A90000F90DF91CF91089590E0FC013197E231F2
:101AA000F10508F04EC08827E458FF4F8F4F0C9483
:101AB000252E809180008F7703C0809180008F7DDC
:101AC00080938000089580918000877FF9CF84B54E
:101AD0008F7702C084B58F7D84BD08958091B0005A
:101AE0008F7703C08091B0008F7D8093B000089500
:101AF000809190008F7707C0809190008F7D03C008
:101B000080919000877F8093900008958091A0003D
:101B10008F7707C08091A0008F7D03C08091A000C7
:101B2000877F8093A0000895809120018F7707C060
:101B3000809120018F7D03C080912001877F809359
:101B4000200108953FB7F89480918A0690918B0602
:101B5000A0918C06B0918D0626B5A89B05C02F3F9D
:101B600019F00196A11DB11D3FBFBA2FA92F982FC3
:101B70008827820F911DA11DB11DBC01CD0142E03E
:101B8000660F771F881F991F4A95D1F708950E9405
:101B900057300F931F93CF93DF938C01C0E0D0E0B9
:101BA000F801EC0FFD1F6491662371F0E09193053D
:101BB000F09194050190F081E02D83E995E019956D
:101BC000892B11F02196ECCFCE01DF91CF911F919F
:101BD0000F910895CF93DF93CDB7DEB728970FB657
:101BE000F894DEBF0FBECDBF98E0E8E8F2E0DE017A
:101BF000119601900D929A95E1F790919B05981797
:101C000010F48FEF890FFE013196E80FF11DE80FF8
:101C1000F11D6081606840E083E995E028960FB689
:101C2000F894DEBF0FBECDBFDF91CF910C94CC13E3
:101C30001F920F920FB60F9211240BB60F922F9393
:101C40003F934F935F936F937F938F939F93AF9344
:101C5000BF93EF93FF938091B900887F803609F49A
:101C60009CC068F5883209F45BC090F4803109F4B7
:101C700054C038F4882309F4F6C0883009F44DC004
:101C8000F6C0883109F44CC0803209F45DC0EFC061
:101C9000803409F468C048F4803309F455C08833AF
:101CA00009F0E5C08093BB04D8C0803509F44FC06B
:101CB000883509F45DC0883409F0D9C0D6C08839A8
:101CC00009F4C7C0A8F4883709F467C038F4883627
:101CD00009F463C0803709F460C0C9C0883809F4CA
:101CE000B8C0803909F45FC0803809F0C0C05BC05B
:101CF000803B09F486C038F4803A09F466C0883A1B
:101D000009F47FC0B4C0803C09F4A7C0883C09F442
:101D1000A4C0883B09F48AC0AAC08091DE0410C028
:101D20009091DD048091DC04981770F5E091DD045A
:101D300081E08E0F8093DD04F0E0E454FB4F80815E
:101D40008093BB0085EC86C08093BB048EC0E0917D
:101D5000DD0481E08E0F8093DD048091BB00F0E014
:101D6000E454FB4F80839091DD048091DC046EC0CD
:101D7000E091DD0481E08E0F8093DD048091BB0053
:101D8000F0E0E454FB4F80838091E00481116DC04A
:101D900081E08093DF0484EA61C083E08093E10402
:101DA0001092D406CFCF8091D406803208F051C073
:101DB000E091D40681E08E0F8093D4068091BB0021
:101DC000F0E0EC54F94F8083BDCF85EC8093BC00EC
:101DD0001092E1048091D406803230F4E091D40670
:101DE000F0E0EC54F94F10826091D40670E0E0917D
:101DF000B206F091B30684EB96E019951092D406E2
:101E000036C084E08093E1041092B1061092B006CF
:101E1000E091AE06F091AF0619958091B006811160
:101E200005C081E08093B00610928E06E091B10665
:101E300081E08E0F8093B106F0E0E257F94F808188
:101E40008093BB009091B1068091B006981708F47A
:101E500079CF85E88093BC000AC085EC8093BC00F4
:101E60001092E10404C01092BB040E94950CFF91F3
:101E7000EF91BF91AF919F918F917F916F915F9102
:101E80004F913F912F910F900BBE0F900FBE0F906F
:101E90001F901895CF93DF93282F30E0F901EA5C6B
:101EA000FA4F8491F901E051FB4FD491F901E655C5
:101EB000FB4FC491CC2391F081110E944C0DEC2F6B
:101EC000F0E0EE0FFF1FE057FB4FA591B491EC91AE
:101ED000ED2381E090E021F480E002C080E090E01A
:101EE000DF91CF9108951F93CF93DF93282F30E098
:101EF000F901EA5CFA4F8491F901E051FB4FD4916A
:101F0000F901E655FB4FC491CC23C9F0162F81117E
:101F10000E944C0DEC2FF0E0EE0FFF1FEA58FB4F34
:101F2000A591B4918FB7F894111105C09C91ED2F34
:101F3000E095E92302C0EC91ED2BEC938FBFDF918C
:101F4000CF911F910895CF93DF9390E0FC01E05172
:101F5000FB4F2491FC01E655FB4F8491882361F1EE
:101F600090E0880F991FFC01E45AFB4FC591D49172
:101F7000FC01EA58FB4FA591B491611109C09FB7CC
:101F8000F8948881209582238883EC912E230BC0BE
:101F9000623061F49FB7F8943881822F8095832353
:101FA0008883EC912E2B2C939FBF06C08FB7F8949B
:101FB000E8812E2B28838FBFDF91CF9108958F92D8
:101FC0009F92AF92BF92CF92DF92EF92FF926B01FE
:101FD0007C010E94A20D4B015C01C114D104E104FB
:101FE000F104F1F00E94A20DDC01CB0188199909DE
:101FF000AA09BB09883E9340A105B10570F321E011
:10200000C21AD108E108F10888EE880E83E0981E14
:10201000A11CB11CC114D104E104F10419F7DDCFF6
:10202000FF90EF90DF90CF90BF90AF909F908F90F8
:102030000895CF93DF931092D6061092D506109292
:10204000E3041092E2041092E10481E08093E00442
:102050001092DF0461E084E10E94730F61E085E18A
:102060000E94730F8091B9008E7F8093B900809198
:10207000B9008D7F8093B90088E48093B80085E42F
:102080008093BC001092980580919D05823018F0D5
:1020900098E09093980580939B0562E370E080E060
:1020A00090E00E94DF0F60919E0583E995E00E9419
:1020B0004E1368EE73E080E090E00E94DF0F60E373
:1020C00083E995E00E94B313CBE4D6E4CE010197F7
:1020D000F1F760E383E995E00E94B3132197F1F7EC
:1020E00060E383E995E00E94B31383E592E00197F2
:1020F000F1F760E283E995E00E94B31360919805DF
:10210000606240E083E995E00E94CC1384E0809314
:10211000990540E06CE083E995E00E94CC1340E033
:1021200061E083E995E00E94CC13CBE3DFE1CE01CF
:102130000197F1F782E080939A0540E066E083E939
:1021400095E00E94CC1340E062E083E995E00E94B4
:10215000CC132197F1F7DF91CF9108952FB7F89421
:102160006091860670918706809188069091890615
:102170002FBF08951F920F920FB60F9211242F9325
:102180003F938F939F93AF93BF93809186069091D7
:102190008706A0918806B09189063091850623E0D4
:1021A000230F2D3720F40196A11DB11D05C026E88F
:1021B000230F0296A11DB11D2093850680938606EC
:1021C00090938706A0938806B093890680918A062B
:1021D00090918B06A0918C06B0918D060196A11D61
:1021E000B11D80938A0690938B06A0938C06B093C2
:1021F0008D06BF91AF919F918F913F912F910F903D
:102200000FBE0F901F901895CF93DF93EC016115CF
:10221000710561F0FB0101900020E9F73197AF01F2
:10222000461B570B0E94DD15811103C0CE010E9491
:102230000B16CE01DF91CF910895FC01538D448D93
:10224000252F30E0842F90E0821B930B541710F061
:10225000CF96089501970895FC01918D828D98176E
:1022600061F0828DDF01A80FB11D5D968C91928D7A
:102270009F5F9F73928F90E008958FEF9FEF089577
:10228000FC01918D828D981731F0828DE80FF11D40
:10229000858D90E008958FEF9FEF0895FC01918D5B
:1022A000228D892F90E0805C9F4F821B91098F7354
:1022B0009927089580EF94E00E944E1121E0892B28
:1022C00009F420E0822F0895FC01848DDF01A80F1E
:1022D000B11DA35ABF4F2C91848D90E001968F734E
:1022E0009927848FA689B7892C93A089B1898C916D
:1022F00080648C93938D848D981306C00288F38933
:10230000E02D80818F7D80830895EF92FF920F935F
:102310001F93CF93DF93EC0181E0888F9B8D8C8D91
:10232000981305C0E889F989808185FD24C0F62EBF
:102330000B8D10E00F5F1F4F0F731127E02E8C8D58
:10234000E8120CC00FB607FCFACFE889F989808142
:1023500085FFF5CFCE010E946411F1CF8B8DFE0178
:10236000E80FF11DE35AFF4FF0820B8FEA89FB89DA
:102370008081806207C0EE89FF896083E889F989DE
:1023800080818064808381E090E0DF91CF911F9114
:102390000F91FF90EF900895CF93DF93EC01888D1C
:1023A0008823C9F0EA89FB89808185FD05C0A88959
:1023B000B9898C9186FD0FC00FB607FCF5CF8081DF
:1023C00085FFF2CFA889B9898C9185FFEDCFCE0129
:1023D0000E946411E7CFDF91CF91089580E090E0F3
:1023E000892B21F00E945A11811125C080E090E0D4
:1023F000892B41F080E090E0892B21F00E940000C1
:1024000081111CC080E090E0892B41F080E090E0D9
:10241000892B21F00E940000811113C080E090E020
:10242000892BA1F080E090E0892B81F00E940000D0
:1024300081110AC008950E940000D8CF0E940000B8
:10244000E1CF0E940000EACF0C94000008950895A7
:1024500080E090E00895823081F01CF4813031F00A
:1024600020C0833089F08430B1F01BC06130710529
:10247000C9F06F3F7F4FA9F417C061307105B1F00B
:102480006F3F7F4F71F414C06130710599F06F3F59
:102490007F4F39F411C06130710581F06F3F7F4F7C
:1024A00079F0089583E0089582E0089586E0089524
:1024B00085E0089589E0089588E008958CE0089506
:1024C0008BE008951F920F920FB60F9211240BB656
:1024D0000F922F933F934F935F936F937F938F93BD
:1024E0009F93AF93BF93EF93FF9380EF94E00E948D
:1024F0006411FF91EF91BF91AF919F918F917F9167
:102500006F915F914F913F912F910F900BBE0F9064
:102510000FBE0F901F9018951F920F920FB60F923B
:1025200011240BB60F922F938F939F93EF93FF93EA
:10253000E0910005F09101058081E0910605F091A0
:10254000070582FD12C09081809109058F5F8F730E
:1025500020910A05821751F0E0910905F0E0E05161
:10256000FB4F958F8093090501C08081FF91EF910A
:102570009F918F912F910F900BBE0F900FBE0F90D8
:102580001F9018951F920F920FB60F9211240BB641
:102590000F922F933F934F935F936F937F938F93FC
:1025A0009F93AF93BF93EF93FF9380914E049091CD
:1025B0004F048093B2008091D9069091DA06A091E1
:1025C000DB06B091DC060196A11DB11D8093D906F2
:1025D0009093DA06A093DB06B093DC068091D906CF
:1025E0009091DA06A091DB06B091DC06409152048E
:1025F00050915304609154047091550484179507C9
:10260000A607B70710F18091D80681111EC081E09E
:102610008093D8068091D9069091DA06A091DB06C6
:10262000B091DC06841B950BA60BB70B8093D906E3
:102630009093DA06A093DB06B093DC06E091500499
:10264000F091510419951092D806FF91EF91BF9126
:10265000AF919F918F917F916F915F914F913F913A
:102660002F910F900BBE0F900FBE0F901F901895DB
:102670001092D9061092DA061092DB061092DC0650
:102680001092D80680914E0490914F048093B2002E
:10269000E0E7F0E08081816080830895CF93FC01C2
:1026A000C48121E02093BA04C093D7061092E304BA
:1026B0001092E2048385682B84EE94E00E941D0D45
:1026C0008091E204813208F046C09091E1049111BA
:1026D000FCCF92E09093E10491E09093E0049FEFAF
:1026E0009093BB041092DD048093DC04AAE9B4E06B
:1026F0002CEB34E0F9019E2F921B981718F49D9152
:102700009193F9CF1092DE048091DE04CC0FC82B98
:10271000C093DE048091DF04813061F41092DF0405
:102720008091DE048093BB008091BC0083FDF8CFD4
:1027300085EC01C085EE8093BC008091E10482307D
:10274000E1F38091BB048F3F31F08091BB04803274
:1027500011F08091BB041092E3041092E2041092F5
:10276000BA04CF9108950F931F93CF938C01C62F76
:102770000E944E136C2F6460C8010E944E136C2F90
:102780006B7FC8010E944E1383EC90E00197F1F734
:10279000CF911F910F910895FF920F931F93CF93A5
:1027A000DF931F92CDB7DEB78C01F62E962F907F68
:1027B000692F642BC80149830E94B31380E1F89EFE
:1027C000B00111244981642BC8010F90DF91CF9192
:1027D0001F910F91FF900C94B31341E00E94CC1312
:1027E00081E090E0089510926F06109258061092C2
:1027F000410610922A06109213061092FC051092C0
:10280000E5051092CE051092B7051092A005109222
:1028100057040895CF92DF92EF92FF921F93CF93C8
:10282000DF93CDB7DEB7A4970FB6F894DEBF0FBE27
:10283000CDBF909104029093020290910302909375
:10284000010290915804909356048093040260937F
:102850000302409358040E94AE1060936504709385
:102860006604809367049093680466E374E0CE0185
:1028700001960E947A17CE0101960E94B105CE0101
:1028800001960E947F168091650490916604A09144
:102890006704B09168048093590490935A04A093FC
:1028A0005B04B0935C040E94F3130E948A282AE020
:1028B00030E040E050E00E943C2C20916A04C22E9F
:1028C000220FDD08EE08FF086C0D7D1D8E1D9F1D7B
:1028D0000E948C2B6B017C0180915604813049F45D
:1028E000209161043091620440916304509164042A
:1028F0000AC08F3F71F420915D0430915E044091D5
:102900005F0450916004C701B6010E94A02C6B01C6
:102910007C0180910302823009F088C0809104021A
:10292000882319F08B3009F081C011E020E030E0FD
:1029300040EC50E4C701B6010E940C2E18160CF0B2
:1029400010E040915D0450915E0460915F047091CD
:10295000600422E0CE0149960E94841640916104F1
:1029600050916204609163047091640422E0CE018E
:1029700043960E94841660916A04062E000C770B21
:102980004AE0CE010D960E940D1722E0B701A60184
:10299000CE0107960E94841660E474E0CE01019691
:1029A0000E947A17BE01695F7F4FCE0101960E9497
:1029B0001D1660E973E00E940411BE01635F7F4F42
:1029C0000E941D1660E973E00E940411BE016D5E55
:1029D0007F4F0E941D1660E973E00E940411BE0142
:1029E000675E7F4F0E941D16BC01CE014F960E946C
:1029F0007117CE014F960E94B105CE014F960E94ED
:102A00007F16CE0101960E947F16CE0107960E9486
:102A10007F16CE010D960E947F16CE0143960E942E
:102A20007F16CE0149960E947F1601C010E090915A
:102A300004022091030285E09802F0011124E20FC4
:102A4000F11D27FDFA95EE0FFF1FE05FFD4F80811E
:102A50008F3FF9F03FEF380F343070F4909102025D
:102A6000992311F09B30A9F460915804062E000CB4
:102A7000770B0E942B120AC086315CF0223031F4B1
:102A8000992311F09B3011F4112319F061E00E9499
:102A9000730F80910102E091020295E0E902F001DA
:102AA0001124E80FF11D87FDFA95EE0FFF1FE05F7F
:102AB000FD4F80818F3F71F09FEF980F943038F475
:102AC00060915604062E000C770B0E942B1260E0DA
:102AD0000E94730F809103028B7F11F482E00BC080
:102AE000112311F089E007C080910402882311F0BE
:102AF0008B3019F483E080936904A4960FB6F894A0
:102B0000DEBF0FBECDBFDF91CF911F91FF90EF9041
:102B1000DF90CF900895CF92DF92EF92FF920F93C4
:102B20001F93CF93DF936C017A018B01C0E0D0E05B
:102B3000CE15DF0589F0D8016D918D01D601ED919B
:102B4000FC910190F081E02DC6011995892B11F4BB
:102B50007E0102C02196ECCFC701DF91CF911F917A
:102B60000F91FF90EF90DF90CF9008950F931F93F8
:102B7000CF93DF93EC0188819981009729F02A8116
:102B80003B812617370788F48B016F5F7F4F0E94C8
:102B90006E2F009761F0998388831B830A832C81B1
:102BA0003D81232B11F4FC01108281E001C080E003
:102BB000DF91CF911F910F910895EF92FF920F93A4
:102BC0001F93CF93DF93FC0124813581611571053B
:102BD00011F480E019C041155105A9F07B01EC0109
:102BE0008A01020F131FB8010E94B615882389F3CA
:102BF000288139818C819D81B701820F931F0E94AA
:102C000065301D830C8381E0DF91CF911F910F917F
:102C1000FF90EF900895CF93DF93EC018881998125
:102C2000009711F00E94D62E198218821D821C82F4
:102C30001B821A82DF91CF910895CF93DF93EC012D
:102C4000FB0144815581608171810E94DD158111F4
:102C500003C0CE010E940B16CE01DF91CF910895E3
:102C6000EF92FF920F931F93CF93DF93EC017B01C1
:102C70008A01BA010E94B615811104C0CE010E94DA
:102C80000B1607C01D830C83B701888199810E94B0
:102C90006530CE01DF91CF911F910F91FF90EF90A2
:102CA0000895CF93DF93EC016115710559F0FB0195
:102CB00001900020E9F73197AF01461B570B0E94A6
:102CC000301602C00E940B16CE01DF91CF910895FD
:102CD000CF93DF93EC01FB018617970761F06081CA
:102CE00071816115710529F0448155810E9430166A
:102CF00002C00E940B16CE01DF91CF910895FC0116
:102D0000808191810C94D62EEF92FF920F931F93A6
:102D1000CF93DF93CDB7DEB7A1970FB6F894DEBFA0
:102D20000FBECDBF7C01CB01BA01F7011182108229
:102D3000138212821582148242E0420F8E010F5FCD
:102D40001F4F0E941D28BC01C7010E945116A19669
:102D50000FB6F894DEBF0FBECDBFDF91CF911F91AC
:102D60000F91FF90EF9008950F931F93CF93DF93F0
:102D7000CDB7DEB7A1970FB6F894DEBF0FBECDBFBB
:102D80008C01CB01BA01F8011182108213821282E8
:102D90001582148230E0AE014F5F5F4F0E94BD2864
:102DA000BE016F5F7F4FC8010E945116A1960FB6FA
:102DB000F894DEBF0FBECDBFDF91CF911F910F9171
:102DC00008950F931F93CF93DF93CDB7DEB761972D
:102DD0000FB6F894DEBF0FBECDBF8C01CB01F8015A
:102DE00011821082138212821582148250E0BE0179
:102DF0006F5F7F4F0E94EA28BE016F5F7F4FC8015F
:102E00000E94511661960FB6F894DEBF0FBECDBF7B
:102E1000DF91CF911F910F9108950F931F93CF933F
:102E2000DF93CDB7DEB762970FB6F894DEBF0FBE63
:102E3000CDBF8C01CB01F801118210821382128266
:102E40001582148250E0BE016F5F7F4F0E94A72859
:102E5000BE016F5F7F4FC8010E94511662960FB688
:102E6000F894DEBF0FBECDBFDF91CF911F910F91C0
:102E70000895EF92FF920F931F93CF93DF93EC018E
:102E8000198218821B821A821D821C8261157105AB
:102E900009F18B01CB010E949E287C01BC01CE016F
:102EA0000E94B615811109C0CE01DF91CF911F910B
:102EB0000F91FF90EF900C940B16FD82EC82B801FD
:102EC00088819981DF91CF911F910F91FF90EF90B1
:102ED0000C949728DF91CF911F910F91FF90EF9065
:102EE0000895FC01118210821382128215821482CD
:102EF0000C946816FC0111821082138212821582D2
:102F000014826115710551F0FB0101900020E9F771
:102F10003197AF01461B570B0C94301608951F9242
:102F20000F920FB60F9211240BB60F922F933F936F
:102F30004F935F936F937F938F939F93AF93BF93C1
:102F4000EF93FF938091E0069091E106A091E20655
:102F5000B091E306892B8A2B8B2B59F18091DF06E8
:102F6000E091DD06F091DE069081892780838091D3
:102F7000E0069091E106A091E206B091E3061816F2
:102F800019061A061B060CF056C08091E0069091B7
:102F9000E106A091E206B091E3060197A109B1090B
:102FA0008093E0069093E106A093E206B093E306D7
:102FB00042C080910502ECE7F5E0E4919FEF909329
:102FC0000502E230C9F050F4EE2399F0E13081F5CA
:102FD00090916F009D7F90936F002AC0E43019F1AB
:102FE000E0F0E53029F5909173009D7F9093730098
:102FF0001FC010926E001CC0909170009D7F909336
:10300000700091E09093B0009091B100987F94602F
:103010009093B1001092B3000BC0909171009D7F0E
:103020009093710005C0909172009D7F9093720003
:1030300060E00E94730FFF91EF91BF91AF919F915C
:103040008F917F916F915F914F913F912F910F9051
:103050000BBE0F900FBE0F901F901895DC01ED91E5
:10306000FC91DB0114964D915C9115976D917C91CB
:103070000280F381E02D1994CF93DF93CDB7DEB7B3
:10308000A1970FB6F894DEBF0FBECDBF789484B57C
:10309000826084BD84B5816084BD85B5826085BD54
:1030A00085B5816085BD80916E00816080936E00E2
:1030B00010928100809181008260809381008091D4
:1030C0008100816080938100809180008160809385
:1030D00080008091B10084608093B1008091B00045
:1030E00081608093B0008091910082608093910014
:1030F0008091910081608093910080919000816027
:10310000809390008091A10082608093A1008091C3
:10311000A10081608093A1008091A00081608093D4
:10312000A000809121018260809321018091210182
:103130008160809321018091200181608093200132
:1031400080917A00846080937A0080917A00826016
:1031500080937A0080917A00816080937A008091D8
:103160007A00806880937A001092C1008AE090E033
:10317000A0E0B0E08093520490935304A0935404D1
:10318000B09355048AED96E09093510480935004D7
:10319000809170008E7F809370008091B0008C7F52
:1031A0008093B0008091B100877F8093B1008091BF
:1031B000B6008F7D8093B600809170008D7F8093E4
:1031C00070008091B10084608093B1008091B10063
:1031D0008C7F8093B10086E090E090934F048093C1
:1031E0004E040E9438130E94AE10609365047093E1
:1031F0006604809367049093680460935904709305
:103200005A0480935B0490935C0480917B008860F7
:1032100080937B0086E480937C0080917A008064B8
:1032200080937A0080917A0086FDFCCF60917800CF
:103230008091790070E0782B072E000C880B990B99
:10324000611571058105910511F00E948E2862E0DB
:103250008FE20E94A30F62E080E30E94A30F62E06E
:1032600081E30E94A30F8FE20E944A0F21E0892B85
:1032700009F020E0209300020E94191088E080935A
:103280009E0560E083E995E00E944E1316E161E03F
:10329000812F0E94A30F1F5F1E32C9F712E061E069
:1032A000812F0E94A30F1F5F1E30C9F7E091000518
:1032B000F091010582E08083E091FC04F091FD042F
:1032C0001082E091FE04F091FF048FEC8083109255
:1032D0000805E0910405F091050586E08083E09102
:1032E0000205F0910305808180618083E0910205F1
:1032F000F0910305808188608083E0910205F09160
:103300000305808180688083E0910205F0910305C8
:1033100080818F7D80830E948A2827E030E040E012
:1033200050E00E943C2CDC01CB010397A109B109BC
:1033300080936A0480E30E944A0F892B19F487EE78
:103340008093690480916904082E000C990BAA0BE4
:10335000BB0B8A30910510F00C946924FC0188277E
:10336000EE58FF4F8F4F0C94252E8FEF80936904FA
:103370000E94191068EB7BE080EC92E00E949B03B6
:1033800068EC72E0CE0101960E947A17CE01019698
:103390000E94B105CE0101960E947F1680E00E9436
:1033A000EA0D84EC93E00E94C90D81E00E94EA0DD1
:1033B00083EB93E00E94C90D0E94F3138091650492
:1033C00090916604A0916704B091680440915904FB
:1033D00050915A0460915B0470915C04841B950BBE
:1033E000A60BB70B20916F06211124C0209158061F
:1033F000211120C02091410621111CC020912A06D4
:10340000211118C020911306211114C02091FC0530
:10341000211110C02091E50521110CC02091CE058D
:10342000211108C02091B705211104C02091A005E9
:103430002223C1F2803325E79207A105B10590F65A
:103440000E94F31364EA73E0CE0101960E943917DB
:10345000CE0101960E94B105CE0101960E947F1611
:1034600080E00E94EA0D83E993E00E94C90D81E0AB
:103470000E94EA0D82E893E00E94C90D0E948A280A
:1034800024E833E040E050E00E943C2C4B015C011A
:1034900054E6850E911CA11CB11CC12CD12C7601C7
:1034A000C601880D991D18161906C4F50E94AE10A4
:1034B0006093650470936604809367049093680436
:1034C00012E061E0812F0E94730F1F5F1E30C9F769
:1034D00026013701480C591C6A1C7B1CC301B20130
:1034E0000E94DF0F12E060E0812F0E94730F1F5FC8
:1034F0001E30C9F7C301B2010E94DF0F80916F0631
:1035000081110C949D248091FC0534E6C31AD108E6
:10351000E108F108882321F20C949D246FE173E007
:10352000CE0101960E943917CE0101960E94B10585
:10353000CE0101960E947F1680E00E94EA0D8EE087
:1035400093E00E94C90D81E00E94EA0D8DEF92E0A8
:103550000E94C90D68EE73E086EF92E00E949B0323
:103560000E94AE10609365047093660480936704B4
:103570009093680480916F0681110C94842580914A
:10358000FC05882369F30C94842581E00E94EA0DF0
:1035900060917404062E000C770B4AE0CE01019670
:1035A0000E940D1760917504062E000C770B4AE0FF
:1035B000CE010A960E940D1766E173E0CE01409697
:1035C0000E947A17BE01665F7F4FCE0140960E942F
:1035D0001D166BE173E00E940411BE016F5F7F4F07
:1035E0000E941D166FEC73E00E940411BC0183E978
:1035F00095E00E942E18CE0140960E947F16CE01C3
:103600000A960E947F16CE0101960E947F160E94A4
:10361000AE10609365047093660480936704909382
:103620006804C0907004D0907104E0907204F0902F
:10363000730400916C0410916D0420916E0430911C
:103640006F04C114D104E104F104A9F04B015C0141
:103650008C189D08AE08BF0840E284164FEB940614
:1036600042E0A406B10438F0011511052105310529
:1036700011F485E014C0011511052105310599F0FB
:103680004B015C01801A910AA20AB30A40E2841637
:103690004FEB940642E0A406B10428F086E0809344
:1036A00069040C94FB244091760400915904109114
:1036B0005A0420915B0430915C04DC01CB01801B37
:1036C000910BA20BB30B411108C080319742A105A9
:1036D000B10508F45CC084E0E2CF30910302209190
:1036E0000402843F41E09407A105B10510F1323096
:1036F000A9F540910202042E000C550BE22FEE0FAB
:10370000FF0BCF01841B950BE417F50719F08B30E5
:10371000910521F540915804042E000C550B209181
:10372000010264E070E0621B710927FD73950C943F
:1037300046268C329140A105B10580F485E028022F
:10374000F0011124E30FF11D37FDFA95EE0FFF1F75
:10375000E05FFD4F80818F3F09F04CC040915804DD
:10376000042E000C550B632F660F770B809101021E
:10377000681B710987FD7395822F880F990B209123
:103780000202821B910927FD93950C944626109105
:1037900058041130B1F480912A0681110C94E2256D
:1037A0008091410681110C94C525809158068111A4
:1037B0000C94D3258091130681110C94BD250C9493
:1037C000FB241F3F09F028C18091B70581110C949B
:1037D000FC258091CE0581110C940A268091E50587
:1037E00081110C9418268091A00581110C94F42568
:1037F0000C94FB248181813009F00EC18091570423
:1038000081110AC180916F06882309F405C1809156
:1038100056048130C9F5809158048130A9F5809112
:103820000102C0906104D0906204E0906304F090C3
:103830006404381779F020E030E040E450E4C70138
:10384000B6010E94852B87FF05C020E030E040E8EC
:103850005FE30EC020E030E040E450E4C701B60171
:103860000E94852B87FF10C020E030E040E05FE33E
:10387000C701B6010E94A02C60936104709362049A
:1038800080936304909364040E948A28C09061042A
:10389000D0906204E0906304F09064048090780615
:1038A00090907906A0907A06B0907B062AE030E0EE
:1038B00040E050E00E943C2C20916A04022F220F2D
:1038C000110B220B330B600F711F821F931F0E947D
:1038D0008C2BA70196010E94A02C2B013C0180910A
:1038E000650490916604A0916704B091680400910A
:1038F000590410915A0420915B0430915C04BC017E
:10390000CD01601B710B820B930B0E948A2B20E070
:1039100030E048EC52E40E94232D20E030E040E00B
:1039200050E40E949F2C9B01AC01C301B2010E9494
:103930009F2CA50194010E949F2C4B015C0122E069
:10394000B701A601CE010A960E94841680916A04EE
:10395000682F880F770B4AE0CE0140960E940D1722
:1039600022E0B501A401CE0146960E94841663E2CE
:1039700073E0CE014C960E947A17BE016A5E7F4FBB
:10398000CE014C960E941D1660E973E00E9404115E
:10399000BE01605F7F4F0E941D1660E973E00E94C8
:1039A0000411BE01665F7F4F0E941D1660E973E03F
:1039B0000E940411BC01CE0101960E947117CE0134
:1039C00001960E94B105CE0101960E947F16CE019C
:1039D0004C960E947F16CE0146960E947F16CE011D
:1039E00040960E947F16CE010A960E947F1620E024
:1039F00030E040E850E4C501B4010E940C2E1816D6
:103A000044F40E94F3131092760481E080935704EB
:103A100024C181E08093570480917604882309F4BF
:103A2000EAC780910302E091040295E0E902F00107
:103A30001124E80FF11D87FDFA95EE0FFF1FE05FDF
:103A4000FD4F91819F3F09F0D6C790915704911186
:103A5000D2C79091FC05992309F4CDC790915604E3
:103A60009F3FC9F5909158049F3FA9F5909101029D
:103A7000C0905D04D0905E04E0905F04F09060041C
:103A8000891779F020E030E040E450E4C701B60146
:103A90000E94852B87FF05C020E030E040E85FE30F
:103AA0000EC020E030E040E450E4C701B6010E94BF
:103AB000852B87FF10C020E030E040E05FE3C701C6
:103AC000B6010E94A02C60935D0470935E04809305
:103AD0005F04909360040E948A28C0905D04D09097
:103AE0005E04E0905F04F090600480900506909082
:103AF0000606A0900706B09008062AE030E040E0F5
:103B000050E00E943C2C20916A04022F220F110BDE
:103B1000220B330B600F711F821F931F0E948C2B8F
:103B2000A70196010E94A02C2B013C018091650405
:103B300090916604A0916704B091680400915904C3
:103B400010915A0420915B0430915C04BC01CD01BA
:103B5000601B710B820B930B0E948A2B20E030E0DC
:103B600048EC52E40E94232D20E030E040E050E495
:103B70000E949F2C9B01AC01C301B2010E949F2CAB
:103B8000A50194010E949F2C4B015C0122E0B7012A
:103B9000A601CE010A960E94841680916A04682FBD
:103BA000880F770B4AE0CE0140960E940D1722E065
:103BB000B501A401CE0146960E94841662E373E02B
:103BC000CE014C960E947A17BE016A5E7F4FCE01ED
:103BD0004C960E941D1660E973E00E940411BE011C
:103BE000605F7F4F0E941D1660E973E00E94041120
:103BF000BE01665F7F4F0E941D1660E973E00E9460
:103C00000411BC01CE0101960E947117CE010196EC
:103C10000E94B105CE0101960E947F16CE014C96FE
:103C20000E947F16CE0146960E947F16CE014096D6
:103C30000E947F16CE010A960E947F1620E030E097
:103C400040E850E4C501B4010E940C2E181644F45B
:103C50000E94F313109276048FEF80935804CBC622
:103C600081E080935704C7C60E94AE10609365043C
:103C70007093660480936704909368046FE373E025
:103C8000CE0101960E947A17CE0101960E94B105DD
:103C9000CE0101960E947F166AEF70E086EF92E0F7
:103CA0000E949B038091650490916604A091670433
:103CB000B09168048093590490935A04A0935B04D4
:103CC000B0935C040E94F3131092760481E0809319
:103CD00069042091580490910302809104022130DC
:103CE00039F591110FC09FEF980F933028F44FEFE3
:103CF0005FEF61E070E00EC084504FEF5FEF61E076
:103D000070E010C09FEF980F933038F44FEF5FEFE3
:103D100063E070E082E090E0B9C784504FEF5FEF5E
:103D200063E070E0833008F4AFC788E090E0AEC78E
:103D300091110FC098EF980F933028F441E050E0B4
:103D400061E070E00EC0855041E050E061E070E05D
:103D500010C098EF980F933038F441E050E063E0E2
:103D600070E089E090E092C7855041E050E063E068
:103D700070E0833018F487E090E088C783E090E03B
:103D800085C70E94AE1060936504709366048093AB
:103D90006704909368046EEE72E086EF92E00E94F2
:103DA0009B030E94F3131092760410926104109208
:103DB0006204109263041092640410925D041092E5
:103DC0005E0410925F041092600481E080936904A5
:103DD00080E00E94EA0D80910402609174048111D8
:103DE0008EC06F5F60937404062E000C770B4AE060
:103DF000CE010A960E940D1760917504062E000CE4
:103E0000770B4AE0CE0140960E940D176BE473E0F9
:103E1000CE0146960E947A17BE01605F7F4FCE01A9
:103E200046960E941D1660E973E00E940411BE01CF
:103E3000665F7F4F0E941D166FE873E00E940411B9
:103E4000BC01CE0101960E947117CE0101960E941D
:103E5000B105CE0101960E947F16CE0146960E94C2
:103E60007F16CE0140960E947F16CE010A960E94D0
:103E70007F1660917404062E000C770B4AE0CE0189
:103E800001960E940D1760917504062E000C770BA9
:103E90004AE0CE010A960E940D1766E573E0CE0156
:103EA00040960E947A17BE01665F7F4FCE01409612
:103EB0000E941D1661ED73E00E940411BE016F5F48
:103EC0007F4F0E941D1660ED73E00E940411BC013B
:103ED00083E995E00E942E18CE0140960E947F163D
:103EE000CE010A960E947F16CE0101960E947F168F
:103EF00041E050E062E070E085E090E08FC08091AA
:103F000075048F5F80937504062E000C770B4AE0D2
:103F1000CE010A960E940D1760917504062E000CC2
:103F2000770B4AE0CE0140960E940D1761E673E0E0
:103F3000CE0146960E947A17BE01605F7F4FCE0188
:103F400046960E941D1660E973E00E940411BE01AE
:103F5000665F7F4F0E941D166FE873E00E94041198
:103F6000BC01CE0101960E947117CE0101960E94FC
:103F7000B105CE0101960E947F16CE0146960E94A1
:103F80007F16CE0140960E947F16CE010A960E94AF
:103F90007F1660917404062E000C770B4AE0CE0168
:103FA00001960E940D1760917504062E000C770B88
:103FB0004AE0CE010A960E940D176EE673E0CE012C
:103FC00040960E947A17BE01665F7F4FCE014096F1
:103FD0000E941D1661ED73E00E940411BE016F5F27
:103FE0007F4F0E941D1660ED73E00E940411BC011A
:103FF00083E995E00E942E18CE0140960E947F161C
:10400000CE010A960E947F16CE0101960E947F166D
:104010004FEF5FEF62E070E086E090E00E940A14EC
:104020008091650490916604A0916704B091680442
:104030008093590490935A04A0935B04B0935C045A
:10404000DAC40E94AE106093650470936604809396
:1040500067049093680469E773E0CE0101960E94BB
:104060007A17CE0101960E94B105CE0101960E94F9
:104070007F166AEF70E086EF92E00E949B038091CA
:10408000650490916604A0916704B09168048093E0
:10409000590490935A04A0935B04B0935C040E946B
:1040A000F31310927604109261041092620410923D
:1040B00063041092640410925D0410925E041092E6
:1040C0005F041092600481E0809369049091580429
:1040D00080910402913011F58B3029F44FEF5FEF9E
:1040E00062E070E0CEC5811186C4809103029DEF2D
:1040F000980F923008F4B0C5823009F0B2C50E9422
:104100008A2822E030E040E050E00E943C2C613000
:1041100071058105910509F49FC5A3C5811105C0ED
:1041200041E050E062E070E0A0C58B3009F063C46C
:10413000809103029DEF980F923008F499C5823068
:1041400009F09BC50E948A2822E030E040E050E060
:104150000E943C2C613071058105910509F488C5E8
:104160008CC50E94AE1060936504709366048093C2
:1041700067049093680466E873E0CE0101960E949C
:104180007A17CE0101960E94B105CE0101960E94D8
:104190007F1680E00E94EA0D85ED93E00E94C90D34
:1041A0006AEF70E086EF92E00E949B0380916504C5
:1041B00090916604A0916704B091680480935904BB
:1041C00090935A04A0935B04B0935C040E94F31391
:1041D00010927604109261041092620410926304AB
:1041E0001092640410925D0410925E0410925F04B9
:1041F0001092600481E080936904809158048130BA
:1042000039F44FEF5FEF62E070E086E090E03EC58A
:104210008F3F09F0F0C341E050E062E070E085E0DC
:1042200090E034C568EE73E086EF92E00E949B0355
:104230000E94AE10609365047093660480936704D7
:104240009093680460916B04062E000C770B4AE093
:10425000CE010A960E940D1762E973E0CE014096E6
:104260000E947A17BE01665F7F4FCE0140960E9482
:104270001D166EE873E00E940411BC01CE01019688
:104280000E947117CE0101960E94B105CE010196E0
:104290000E947F16CE0140960E947F16CE010A969C
:1042A0000E947F1680E00E94EA0D86EE93E00E9455
:1042B000C90D81E00E94EA0D40E150E06BE973E036
:1042C00083E995E00E948B150E94F3131092760407
:1042D00010926104109262041092630410926404BC
:1042E00010925D0410925E0410925F0410926004BC
:1042F00081E08093690480916B04813039F041E062
:1043000050E062E070E085E090E006C04FEF5FEFC4
:1043100062E070E086E090E00E940A1480916F06EF
:1043200081112FC08091580681112BC080914106C8
:10433000811127C080912A06811123C08091130624
:1043400081111FC08091FC0581111BC08091E50582
:10435000811117C08091CE05811113C08091B705DE
:1043600081110FC08091A00581110BC00E94AE1079
:104370006093650470936604809367049093680467
:10438000CDCFC0906504D0906604E0906704F090B3
:1043900068048091590490915A04A0915B04B091F3
:1043A0005C0446015701881A990AAA0ABB0A20E34D
:1043B000821625E79206A104B104C0F66AEF70E008
:1043C00086EF92E00E949B030E94AE1060936C0403
:1043D00070936D0480936E0490936F04C09259049F
:1043E000D0925A04E0925B04F0925C0404C30E94F1
:1043F000AE10609365047093660480936704909395
:10440000680468EE73E086EF92E00E949B030E94CE
:10441000F3131092760410926104109262041092C9
:1044200063041092640410925D0410925E04109272
:104430005F04109260046CEA73E0CE0101960E9462
:104440007A17CE0101960E94B105CE0101960E9415
:104450007F16909175048091740489170CF060C0E8
:1044600080E00E94EA0D8CE494E00E94C90D81E096
:104470000E94EA0D60917404062E000C770B4AE04E
:10448000CE0101960E940D1760917504062E000C56
:10449000770B4AE0CE010A960E940D1766E173E0A1
:1044A000CE0140960E947A17BE01665F7F4FCE0113
:1044B00040960E941D166BE173E00E940411BE013C
:1044C0006F5F7F4F0E941D1661ED73E00E94041123
:1044D000BC0183E995E00E942E18CE0140960E940F
:1044E0007F16CE010A960E947F16CE0101960E9489
:1044F0007F1660917404062E000C770B4AE0CE0103
:104500000A960E940D1760917504062E000C770B19
:104510004AE0CE0140960E940D1762E073E0C2C0EF
:1045200098170CF060C080E00E94EA0D8BE394E0E5
:104530000E94C90D81E00E94EA0D60917404062E6C
:10454000000C770B4AE0CE0101960E940D17609196
:104550007504062E000C770B4AE0CE010A960E94E5
:104560000D1766E173E0CE0140960E947A17BE01F6
:10457000665F7F4FCE0140960E941D166BE173E08F
:104580000E940411BE016F5F7F4F0E941D1661EDF6
:1045900073E00E940411BC0183E995E00E942E188B
:1045A000CE0140960E947F16CE010A960E947F1689
:1045B000CE0101960E947F1660917404062E000CB5
:1045C000770B4AE0CE010A960E940D1760917504A0
:1045D000062E000C770B4AE0CE0140960E940D1784
:1045E0006DE073E05FC080E00E94EA0D8AE294E033
:1045F0000E94C90D81E00E94EA0D60917404062EAC
:10460000000C770B4AE0CE0101960E940D176091D5
:104610007504062E000C770B4AE0CE010A960E9424
:104620000D1766E173E0CE0140960E947A17BE0135
:10463000665F7F4FCE0140960E941D166BE173E0CE
:104640000E940411BE016F5F7F4F0E941D1661ED35
:1046500073E00E940411BC0183E995E00E942E18CA
:10466000CE0140960E947F16CE010A960E947F16C8
:10467000CE0101960E947F1660917404062E000CF4
:10468000770B4AE0CE010A960E940D1760917504DF
:10469000062E000C770B4AE0CE0140960E940D17C3
:1046A00069EB73E0CE0146960E947A17BE01605F07
:1046B0007F4FCE0146960E941D1660E973E00E946E
:1046C0000411BE01665F7F4F0E941D166FE873E004
:1046D0000E940411BC01CE0101960E947117CE0107
:1046E00001960E94B105CE0101960E947F16CE016F
:1046F00046960E947F16CE0140960E947F16CE01FC
:104700000A960E947F1668E57BE180E090E00E94B7
:10471000DF0F80E00E94EA0D89E194E00E94C90D5C
:1047200081E00E94EA0D60917404062E000C770B64
:104730004AE0CE0101960E940D1760917504062E85
:10474000000C770B4AE0CE010A960E940D1766E135
:1047500073E0CE0140960E947A17BE01665F7F4FDC
:10476000CE0140960E941D166BE173E00E94041179
:10477000BE016F5F7F4F0E941D1661ED73E00E94C6
:104780000411BC0183E995E00E942E18CE014096E9
:104790000E947F16CE010A960E947F16CE010196D6
:1047A0000E947F168091650490916604A091670431
:1047B000B09168048093590490935A04A0935B04C9
:1047C000B0935C0468EB7BE080E090E00E94DF0F38
:1047D00080E00E94EA0D88E094E00E94C90D81E02B
:1047E0000E94EA0D87EF93E00E94C90D80916F0649
:1047F00081112FC08091580681112BC080914106F4
:10480000811127C080912A06811123C0809113064F
:1048100081111FC08091FC0581111BC08091E505AD
:10482000811117C08091CE05811113C08091B70509
:1048300081110FC08091A00581110BC00E94AE10A4
:104840006093650470936604809367049093680492
:10485000CDCF8091650490916604A0916704B091DA
:1048600068044091590450915A0460915B0470911E
:104870005C04841B950BA60BB70B80339547A105F1
:10488000B105E0F610926904109265041092660476
:1048900010926704109268041092590410925A04FE
:1048A00010925B0410925C041092700410927104D8
:1048B000109272041092730410926C0410926D04A2
:1048C00010926E0410926F0440E050E061E070E0DE
:1048D000DBC10E94F31330E1A32E32E0B32EE12CB2
:1048E000F12C00E010E080916F06811116C38091D9
:1048F0005806811112C38091410681110EC3809127
:104900002A0681110AC380911306811106C3809182
:10491000FC05811102C38091E5058111FEC28091E1
:10492000CE058111FAC28091B7058111F6C280913E
:10493000A005882309F4ADC1F0C280916F068111F2
:104940005EC08091FC05882309F474C080E00E9459
:10495000EA0D80E693E00E94C90D81E00E94EA0D15
:104960008FE493E00E94C90D60916B04062E000C49
:10497000770B4AE0CE010A960E940D1764ED72E0B3
:10498000CE0140960E947A17BE01665F7F4FCE012E
:1049900040960E941D166EE873E00E940411BC014F
:1049A000CE0101960E947117CE0101960E94B105B9
:1049B000CE0101960E947F16CE0140960E947F167E
:1049C000CE010A960E947F1611E01093690441E01F
:1049D00050E062E070E085E090E00E940A141093DD
:1049E0006B040E94AE106093700470937104809306
:1049F0007204909373040E94EE110C948B198091B1
:104A0000FC05882309F49DCF80E00E94EA0D81E730
:104A100093E00E94C90D69ED73E0CE0101960E94FA
:104A20007A17CE0101960E94B105CE0101960E942F
:104A30007F16D7CF80916F06882399F280E00E947D
:104A4000EA0D8EE393E00E94C90D81E00E94EA0D19
:104A50008DE293E00E94C90D60916B04062E000C5C
:104A6000770B4AE0CE010A960E940D1764EE72E0C1
:104A700018C08091FC05882309F4B3CF80E00E9420
:104A8000EA0D8AEC92E00E94C90D60916B04062E3B
:104A9000000C770B4AE0CE010A960E940D176DE0DC
:104AA00073E0CE0140960E947A17BE01665F7F4F89
:104AB000CE0140960E941D166EE873E00E9404111C
:104AC000BC01CE0101960E947117CE0101960E9491
:104AD000B105CE0101960E947F16CE0140960E943C
:104AE0007F16CE010A960E947F1681E080936904AA
:104AF0004FEF5FEF62E070E086E090E00E940A1402
:104B00008FEF80936B046DCF80916F068823E1F067
:104B10008091FC058823C1F080E00E94EA0D8CEEB4
:104B200092E00E94C90D6DEE73E0CE0101960E94E5
:104B30007A17CE0101960E94B105CE0101960E941E
:104B40007F16109269044DCF80916F06882309F477
:104B500090CF80E00E94EA0D8BED92E00E94C90D9B
:104B600060916B04062E000C770B4AE0CE010A968A
:104B70000E940D1762E073E003CF60910302062EDE
:104B8000000C770B6F5F7F4F15C060910302062EFC
:104B9000000C770B80910402082E000C990B41E069
:104BA00050E001971CC060910302062E000C770BA9
:104BB000615071098091040241E050E0082E000C20
:104BC000990B0DC060910302062E000C770B8091AB
:104BD0000402082E000C990B41E050E001960E945F
:104BE0000A141093760407CF60910302062E000C7E
:104BF000770B6150710923C060910302062E000CEF
:104C0000770B80910402082E000C990B4FEF5FEF99
:104C100001971CC060910302062E000C770B809157
:104C20000402082E000C990B4FEF5FEF01960EC0A7
:104C300060910302062E000C770B6F5F7F4F80910F
:104C400004024FEF5FEF082E000C990B0E940A142C
:104C500081E080937604CFCE4FEF5FEF63E070E0AA
:104C600004C04FEF5FEF61E070E081E090E00EC0C4
:104C700041E050E063E070E004C041E050E061E0FA
:104C800070E08AE090E002C084E090E00E940A14A4
:104C9000B2CEF801EE0FFF1FEA0DFB1DD0808FEFA3
:104CA0008D0D843008F08FC08D2D42E0D49E800D94
:104CB00011249DEF792E780E22E0C22ED12C872C64
:104CC000912C80E00E94EA0D4AE0B801CE010196E5
:104CD0000E940D174AE0B701CE010A960E940D17F7
:104CE00063EC73E0CE0140960E947A17BE01665FC6
:104CF0007F4FCE0140960E941D1668EC73E00E9423
:104D00000411BE016F5F7F4F0E941D166BEC73E0B4
:104D10000E940411BC0183E995E00E942E18CE0187
:104D200040960E947F16CE010A960E947F16CE0101
:104D300001960E947F1681E00E94EA0DB601680D7F
:104D4000791D4AE0CE0101960E940D1763ED73E0D4
:104D5000CE010A960E947A17BE016F5F7F4FCE0187
:104D60000A960E941D166BEC73E00E940411BC01B0
:104D700083E995E00E942E18CE010A960E947F16C4
:104D8000CE0101960E947F16672C6C0C61E0862D87
:104D90000E94730F68EE73E080E090E00E94DF0FE6
:104DA00060E0862D0E94730F68EE73E080E090E073
:104DB0000E94DF0F5FEFC51AD50A85E0C816D1043F
:104DC00009F07FCF98C09FEFD91609F494C080E016
:104DD0000E94EA0D1B861A861D861C861F861E866B
:104DE0004AE0BE016F5F7F4FC8010E94F528BE01F7
:104DF0006F5F7F4FCE010A960E945116198A188A5A
:104E00001B8A1A8A1D8A1C8A4AE0BE016F5F7F4F87
:104E1000C7010E94F528BE016F5F7F4FCE0140960B
:104E20000E94511663EC73E0CE0101960E947A173E
:104E3000BE01605F7F4FCE0101960E941D1668EC97
:104E400073E00E940411BE01665F7F4F0E941D1631
:104E50006BEC73E00E940411BC0183E995E00E94B1
:104E60002E18CE0101960E947F16CE0140960E9418
:104E70007F16CE010A960E947F1681E00E94EA0DFD
:104E80006D2D0D2C000C770B4AE0CE0101960E948F
:104E90000D1763ED73E0CE010A960E947A17BE01EA
:104EA0006F5F7F4FCE010A960E941D166BEC73E078
:104EB0000E940411BC0183E995E00E942E18CE01E6
:104EC0000A960E947F16CE0101960E947F1661E02D
:104ED0008D2D0E94730F68EE73E080E090E00E94D9
:104EE000DF0F60E08D2D0E94730F68EE73E080E0AD
:104EF00090E00E94DF0F0F5F1F4F0530110509F092
:104F0000F2CC2FEFE21AF20A3AE0A30EB11C4AE00B
:104F1000E416F10409F0E5CC6ECD109269046BCD76
:104F2000E4EEF4E01382128288EE93E0A0E0B0E0B9
:104F300084839583A683B78324E932E03183208379
:104F4000E0EFF4E01382128284839583A683B78313
:104F500086EA92E09183808385EC90E09587848750
:104F600084EC90E09787868780EC90E0918B808B33
:104F700081EC90E0938B828B82EC90E0958B848B1C
:104F800086EC90E0978B868B118E128E138E148E8A
:104F900043E066E38EE696E00E947C0C43E067E324
:104FA00087E596E00E947C0C43E068E380E496E0AD
:104FB0000E947C0C43E069E389E296E00E947C0C4D
:104FC00043E06AE382E196E00E947C0C43E06BE3FD
:104FD0008BEF95E00E947C0C43E06CE384EE95E05F
:104FE0000E947C0C43E06DE38DEC95E00E947C0C0C
:104FF00043E06EE386EB95E00E947C0C43E06FE3B8
:105000008FE995E00E947C0CE3E9F5E013821282BF
:1050100088EB92E0918380838FE3848380E18187B2
:1050200082E08287138663E074E08DE895E00C945B
:105030007A178DE895E00C947F16EF920F931F93EB
:10504000CF93DF93E80147FD02C034E001C034E1B3
:10505000E42F440FFF0BF7FF03C0F195E195F10931
:10506000E32E022F2E2FAE010E940F29CE01DF91D9
:10507000CF911F910F91EF9008958F929F92AF92D1
:10508000BF92CF92DF92EF92FF92CF93DF93EC012A
:10509000688179818A819B816115710581059105FE
:1050A00021F464E279ED8BE597E02DE133EF41E007
:1050B00050E00E943C2C49015A019B01AC01A7EA37
:1050C000B1E40E945B2C6B017C01ACEEB4EFA50156
:1050D00094010E94692CDC01CB018C0D9D1DAE1D3D
:1050E000BF1DB7FF03C00197A109B048888399830A
:1050F000AA83BB83BC01CD019F77DF91CF91FF9045
:10510000EF90DF90CF90BF90AF909F908F900895D9
:105110000C943D2886E092E00C943D2860930602B2
:105120007093070280930802909309020895FB018F
:10513000DC0105900D920020E1F70895FC01059037
:105140000020E9F7809590958E0F9F1F08954532B6
:10515000510520F4423010F00C94B228FB0110826B
:10516000CB010895BB274A3031F4992322F4BDE2E4
:10517000909581959F4F0C94F6282532310520F4A7
:10518000223010F00C94C828FA011082CA01089548
:10519000BB27FA01A62F6217710581059105330B14
:1051A00030FB66F0AA27660F771F881F991FAA1F7A
:1051B000A21710F0A21B63953850A9F7A05DAA337F
:1051C00008F0A95DA19336F7B111B1931082CA011D
:1051D0000C94752B4532510520F4423010F00C949C
:1051E000F528FB011082CB010895BB27FB01552751
:1051F000AA27880F991FAA1FA41710F0A41B839534
:105200005051B9F7A05DAA3308F0A95DA1930097AA
:1052100079F7B111B1931192CB010C94752B4F9288
:105220005F926F927F929F92AF92BF92CF92DF92E6
:10523000EF92FF920F931F93CF93DF93CDB7DEB71B
:1052400029970FB6F894DEBF0FBECDBF6A01122FAB
:10525000B02E2BE3201720F0FF24F394F00E02C0B1
:10526000BCE3FB2E0F2D27E0AE014F5F5F4F0E9486
:105270009D2AAC018981982F9970913031F0E1FC21
:1052800006C0E0FE06C090E205C09DE203C09BE2BE
:1052900001C090E0EE2DE07183FF3CC0911102C08F
:1052A00083E001C084E0811718F4212F281B01C07E
:1052B00020E0E1110BC0F601822F30E2882319F0C3
:1052C00031938150FBCFC20ED11C20E0992329F0ED
:1052D000D6019C93F60131966F01C6010396E2FE5A
:1052E0000AC03EE4D6013C9341E411964C931197D9
:1052F00012963C9306C03EE6F601308341E64183B8
:105300003283FC01322F40E2332309F442C041933F
:105310003150FACF82FF44C0911102C083E001C036
:1053200084E0811718F4212F281B01C020E0E1112F
:105330000BC0F601822F30E2882319F0319381509F
:10534000FBCFC20ED11C20E0992329F0D6019C93FB
:10535000F60131966F01C6010396E2FE0BC039E4F7
:10536000D6013C933EE411963C93119736E4129695
:105370003C9307C039E6F60130833EE6318336E6DA
:105380003283FC01322F40E2332319F04193315034
:10539000FBCFFC01E20FF11D10828EEF9FEFB7C033
:1053A000F1E0911101C0F0E06F2F70E014161506C6
:1053B00024F49A012F5F3F4F02C021E030E0260F16
:1053C000371FBB2029F06B2D70E06F5F7F4F02C04D
:1053D00060E070E0260F371F612F70E02617370757
:1053E0001CF4121B212F01C020E03E2D387159F40E
:1053F000D601322F60E2332319F06D933150FBCF89
:10540000C20ED11C20E0FF2331F0D6019C93B601DF
:105410006F5F7F4F6B01E1110BC0F601922F30E3FC
:10542000992319F031939150FBCFC20ED11C20E08B
:105430009F2D940F3A81782F7071A72E84FF03C09F
:10544000313309F49150191624F4993018F098E08A
:1054500001C091E0E42F852F57FF02C0E0E080E01B
:105460006E2F782FE0E0F0E0AEE29A2E3A01691A52
:1054700071082A01461A570A0B2D10E01195019563
:1054800011096F3F8FEF780729F4D6019C92C6016E
:1054900001966C014617570784F0661677066CF480
:1054A0007F01E40CF51CA1E0B0E0AC0FBD1FEA0EDB
:1054B000FB1ED7011196BC9002C090E3B92E61503B
:1054C00071093196C60101967C016017710724F0BD
:1054D000D601BC926C01D5CF6417750741F4363301
:1054E00020F4353321F4A11002C081E3B82EF60177
:1054F000B082F701822F90E2882319F091938150B6
:10550000FBCFF701E20FF11D108280E090E02996B9
:105510000FB6F894DEBF0FBECDBFDF91CF911F91C4
:105520000F91FF90EF90DF90CF90BF90AF909F9042
:105530007F906F905F904F900895283008F027E09B
:105540003327DA01990F311D87FD916000966105BF
:10555000710539F432602E5F3D9330E32A95E1F70F
:1055600008959F3F30F080387105610509F03C5F78
:105570003C5F3D93913008F08068911DDF93CF939D
:105580001F930F93FF92EF92192F987F9695E92F13
:1055900096959695E90FFF27E65DFD4F99273327EE
:1055A000EE24FF24A701E70105900894079428F44E
:1055B000360FE71EF81E491F511D660F771F881F03
:1055C000991F0694A1F70590079428F4E70EF81E9A
:1055D000491F561FC11D770F881F991F661F06940C
:1055E000A1F70590079428F4F80E491F561FC71F0E
:1055F000D11D880F991F661F771F0694A1F705908C
:10560000079420F4490F561FC71FD81F990F661F14
:10561000771F881F0694A9F784911095177041F0A1
:10562000D695C79557954795F794E7941A95C1F77E
:10563000E0EDF1E0689415901591359165919591A3
:1056400005907FE27395E118F10A430B560BC90BE5
:10565000D009C0F7E10CF11E431F561FC91FD01D12
:105660007EF4703311F48A95E6CFE894015030F05F
:10567000080F0AF40027021708F4202F2395022FA1
:105680007A3328F079E37D932A95E9F710C07D936A
:105690002A9589F6069497956795379517951794E7
:1056A000E118F10A430B560BC90BD00998F023956A
:1056B0007E9173957A3308F070E37C932013B8F7EA
:1056C0007E9170617D9330F0839571E37D9370E3FB
:1056D0002A95E1F71124EF90FF900F911F91CF9140
:1056E000DF91992787FD90950895DC01FC01672FD4
:1056F00071917723E1F7329704C07C916D937083A9
:105700006291AE17BF07C8F308950E94C72B08F433
:1057100081E00895E89409C097FB3EF49095809548
:10572000709561957F4F8F4F9F4F9923A9F0F92F67
:1057300096E9BB279395F695879577956795B795E5
:10574000F111F8CFFAF4BB0F11F460FF1BC06F5FCB
:105750007F4F8F4F9F4F16C0882311F096E911C0DD
:10576000772321F09EE8872F762F05C0662371F0FE
:1057700096E8862F70E060E02AF09A95660F771F12
:10578000881FDAF7880F9695879597F90895990FEE
:105790000008550FAA0BE0E8FEEF16161706E807FB
:1057A000F907C0F012161306E407F50798F0621B1C
:1057B000730B840B950B39F40A2661F0232B242BF1
:1057C000252B21F408950A2609F4A140A6958FEF10
:1057D000811D811D089597F99F6780E870E060E062
:1057E00008959FEF80EC089500240A94161617067A
:1057F00018060906089500240A94121613061406C2
:1058000005060895092E0394000C11F4882352F024
:10581000BB0F40F4BF2B11F460FF04C06F5F7F4FDC
:105820008F4F9F4F089557FD9058440F551F59F0C3
:105830005F3F71F04795880F97FB991F61F09F3F7D
:1058400079F087950895121613061406551FF2CFA6
:105850004695F1DF08C0161617061806991FF1CFF6
:1058600086957105610508940895E894BB2766271D
:105870007727CB0197F90895052E97FB1EF4009426
:105880000E94532C57FD07D00E946E2C07FC03D0BA
:105890004EF40C94532C50954095309521953F4FE4
:1058A0004F4F5F4F089590958095709561957F4F0C
:1058B0008F4F9F4F08950E94902CA59F900DB49FED
:1058C000900DA49F800D911D11240895B7FF0C9495
:1058D0005B2C0E945B2C821B930B0895A1E21A2E75
:1058E000AA1BBB1BFD010DC0AA1FBB1FEE1FFF1F84
:1058F000A217B307E407F50720F0A21BB30BE40BD4
:10590000F50B661F771F881F991F1A9469F760951A
:105910007095809590959B01AC01BD01CF010895D4
:10592000A29FB001B39FC001A39F700D811D1124E0
:10593000911DB29F700D811D1124911D0895505825
:10594000BB27AA270E94B72C0C94022C0E94F42B90
:1059500038F00E94FB2B20F039F49F3F19F426F415
:105960000C94F12B0EF4E095E7FB0C94EB2BE92F54
:105970000E94132C58F3BA17620773078407950720
:1059800020F079F4A6F50C94352C0EF4E0950B2E4E
:10599000BA2FA02D0B01B90190010C01CA01A00181
:1059A0001124FF27591B99F0593F50F4503E68F1DC
:1059B0001A16F040A22F232F342F4427585FF3CF1D
:1059C000469537952795A795F0405395C9F77EF4EE
:1059D0001F16BA0B620B730B840BBAF09150A1F037
:1059E000FF0FBB1F661F771F881FC2F70EC0BA0FBD
:1059F000621F731F841F48F4879577956795B79545
:105A0000F7959E3F08F0B0CF9395880F08F099273F
:105A1000EE0F9795879508950E94F42D90F09F378B
:105A200048F4911116F40C94362C60E070E080E894
:105A30009FE3089526F01B16611D711D811D0C94B6
:105A4000CB2D0C94E62D0E94372D0C94022C0E9435
:105A5000FB2B58F00E94F42B40F029F45F3F29F013
:105A60000C94EB2B51110C94362C0C94F12B0E94BE
:105A7000132C68F39923B1F3552391F3951B550B20
:105A8000BB27AA2762177307840738F09F5F5F4F11
:105A9000220F331F441FAA1FA9F335D00E2E3AF050
:105AA000E0E832D091505040E695001CCAF72BD068
:105AB000FE2F29D0660F771F881FBB1F26173707B9
:105AC0004807AB07B0E809F0BB0B802DBF01FF27EB
:105AD00093585F4F3AF09E3F510578F00C94EB2BB2
