:100000000C9473010C94A4010C94A4010C94A4010D
:100010000C94A4010C94A4010C94A4010C94A401CC
:100020000C94A4010C94A4010C94A4010C94A401BC
:100030000C94A4010C94A4010C94A4010C94E40F5E
:100040000C94BF0D0C94A4010C94A4010C94A40175
:100050000C94580D0C94A4010C94A4010C94F71D5D
:100060000C94A4010C9486160C945C160C94A401B8
:100070000C94A4010C94A4010C94A4010C94BF0D45
:100080000C94A4010C94A4010C94A4010C94580D9C
:100090000C94A4010C94A4010C94A4010C946F057D
:1000A0000C94A4010C94BF0D0C94A4010C94A40115
:1000B0000C94A4010C94580D0C94BF0D0C94A40145
:1000C0000C94A4010C94A4010C94580D0C94A4015C
:1000D0000C94A4010C94A4010C94A4010C94A4010C
:1000E0000C94A4013A1D3D1D2C1D301D361D741DA0
:1000F000411D451D4B1D4F1D531D591D5D1D611D8E
:10010000741D671D6B1D6F1D0C948F070C943A1D99
:100110000C946F1D0C94531D0C94E7010C94D901A1
:100120000C94F9100C9450150C946C1C0C94FE015A
:100130000C94BF0E0C945D1D0C9481150C944B1DFA
:100140000C94B8150C94B00F0C94671D0C944F1DB3
:100150000C94451D0C94FC2A0C94741D0C945A1696
:100160000C946B1D0C945F150C94A90E0C94D80183
:100170000C942C1D0C943D1D0C943C0F0C94731589
:100180000C94361D0C94411D0C94FA0E0C942E0206
:100190000C94B0070C94611D0C94C00E0C94311B90
:1001A0000C94BA0F0C94F6010C94301D0C94FF15AE
:1001B0000C94591D00002200250028002B002E0061
:1001C0003100340002010000050108010B010000AC
:1001D00020002300260029002C002F0032000001FF
:1001E00000000301060109010505050507050808CA
:1001F0000808020202020A0A0808040404040101B1
:1002000001010101010103030303030303030407C5
:1002100007070C0C0C0C0C0C0C0C0202020206065C
:100220000606060606060B0B0B0B0B0B0B0B01024F
:1002300010202008081020401020408002010201F8
:1002400008040201010204081020408080402010B0
:100250000804020180040201804020100804020109
:100260000804020101020408102040800102040871
:100270001020408000000A0B02090C0D0E08070335
:100280000401000000000000000000000000000069
:10029000000000000000000000000000000000005E
:1002A000121110000000000000000000000000001B
:1002B000000000000000000000007C3C3E5E2B3D82
:1002C0003F2F5B5D3B2C2A225C00000021002400B4
:1002D00027002A002D003000330001010000040136
:1002E00007010A01FC2A11241FBECFEFD1E2DEBFB5
:1002F000CDBF00E00CBF15E0A0E0B2E0E8ECFEE509
:1003000000E00BBF02C007900D92AE30B107D9F7E5
:100310002BE0AEE0B5E001C01D92A735B207E1F7D2
:1003200011E0C3E7D1E000E006C021970109802F6A
:10033000FE010E94082DC237D10780E00807A9F707
:100340000E94501F0C94622F0C94000085ED809346
:10035000BC008091BC0084FDFCCF1092770708950B
:1003600040910E09262F30E0240F311D2132310536
:10037000DCF4209177072430C9F4FC0180E090E0A0
:10038000861758F430910E092191DC01A451B74F22
:10039000A30FB11D2C930196F3CF80910E09680F26
:1003A00060930E0980E0089581E0089582E0089549
:1003B000089581E090E0309134092091330932179B
:1003C00010F480E090E091958195910908958091D5
:1003D000340990913309891730F48F5F8093340981
:1003E00080E090E008958FEF9FEF089580913309AA
:1003F00090E020913409821B91090895CF92DF92F9
:10040000EF92FF920F931F93CF93DF937C01262FE0
:10041000972F8A0180914E05882391F0C62FD72F00
:100420006E01C40ED51ECC15DD0571F06991D701A2
:10043000ED91FC910190F081E02DC7011995F3CF6A
:10044000642F822F0E94B001C801DF91CF911F91CC
:100450000F91FF90EF90DF90CF900895CF93DF93AF
:100460001F92CDB7DEB7698320914E052223D1F0CC
:1004700020917807203240F021E030E0FC01338306
:10048000228380E090E015C080917907E82FF0E0AA
:10049000E25DFA4F998190838F5F80937907809313
:1004A000780705C061E0CE0101960E94B00181E0AD
:1004B00090E00F90DF91CF910895CF93DF93CDB768
:1004C000DEB728970FB6F894DEBF0FBECDBF28E089
:1004D000EAE1F2E0DE01119601900D922A95E1F732
:1004E0002091B608261710F46FEF620FFE013196C7
:1004F000E60FF11DE60FF11D9081682F690F60680E
:1005000040E08EEA98E028960FB6F894DEBF0FBE62
:10051000CDBFDF91CF910C94D8108F929F92AF9264
:10052000BF920F931F93CF93DF93CDB7DEB7A19701
:100530000FB6F894DEBF0FBECDBF19A2423008F44B
:100540004AE08E010F5D1F4F842E912CA12CB12CFF
:10055000A50194010E94D72CE62FB901CA010150D0
:100560001109EA3014F4E05D01C0E95CD801EC93B4
:10057000232B242B252B61F7B8018EEA98E00E94EB
:10058000251FA1960FB6F894DEBF0FBECDBFDF9139
:10059000CF911F910F91BF90AF909F908F90089532
:1005A00020914808309149082115310541F0AB01EF
:1005B000BC01C9010E940B1991E0811101C090E0BA
:1005C000892F08958091830790E0880F991FFC017F
:1005D000E65CFD4F0190F081E02D20918007309185
:1005E000810731832083FC01EE5CFD4F0190F08197
:1005F000E02D82E88083E0918307F0E0EE0FFF1F9B
:10060000E65DFD4F0190F081E02D89E18083089542
:10061000E0914808F0914908309729F085818823B6
:1006200011F081E0089508952F923F924F925F92CA
:100630006F927F928F929F92AF92BF92CF92DF92F2
:10064000EF92FF920F931F93CF93DF93CDB7DEB757
:10065000C756D1090FB6F894DEBF0FBECDBF5C01FF
:100660004B01A6964FAFA6973E018EE1680E711C16
:1006700064E778E0C3010E94580E1C821B828AE660
:1006800092E09A8389831E827401FE0131966F0184
:1006900023011F016FE270E0C7010E94412F009704
:1006A000F1F1F70120812F3221F4FFEFEF1AFF0A59
:1006B000F1CF8E198D3008F08CE0082F10E0A801E2
:1006C000B701CE01885A9F4F0E94532FE8E5F0E012
:1006D000EC0FFD1FE00FF11F1082C6010E94C00841
:1006E00021E0AE01485A5F4FB201C6010E94CF0916
:1006F00081110AC01EAE1DAE8AE692E09CAF8BAFA0
:1007000021961FAE219717C0E00EF11EC2010E9474
:10071000C008942D852D2601C92ED82EBBCFC70128
:1007200088199909A8969FAF8EAFA897B201CE01FC
:10073000CB960E94580EA896EEADFFADA8978E0EF0
:100740009F1EF4018081811109C0BE01655C7F4F4D
:10075000C1010E94580E4CEE54E04BC019A218A2E1
:100760008AE692E09F8F8E8F1BA221968FAD2197F4
:10077000811113C0F5011382128288EE93E0A0E08C
:10078000B0E084839583A683B78386E792E0918364
:100790008083128E118E148630C08250A6962FADA3
:1007A000A697A401823040F464E778E0C3010E9478
:1007B000CF0981110DC0DECFBE01655C7F4FC30143
:1007C0000E94CF098823B1F2CE01CB960E94C008C7
:1007D000A6968FADA697867039F049A95AA96BA93C
:1007E0007CA9C3010E940B19B301C1010E94580EDC
:1007F000A401B101C5010E94640FC501C959DF4FB1
:100800000FB6F894DEBF0FBECDBFDF91CF911F9121
:100810000F91FF90EF90DF90CF90BF90AF909F909F
:100820008F907F906F905F904F903F902F900895A2
:100830008091480890914908009761F00E94C00893
:1008400080914808909149080E94A52D109249086E
:1008500010924808089510927A07E0918307F0E01B
:10086000EE0FFF1FEE5DFD4F0190F081E02D8081C6
:100870008E7D80830E94080381110C9418040895D2
:100880008F929F92AF92BF92CF92DF92EF92FF92A0
:10089000CF93DF93C82F8AE498E0909374078093F6
:1008A0007307CC2369F1C53010F080E00DC140E042
:1008B00060E070E0CB010E94F7168823B1F320E1DD
:1008C000C29FC00111248D599A4FFC01E254FE4F82
:1008D00020812F7751F73C9640815181628173814D
:1008E000443651056105710500F33497C080D1800D
:1008F000E280F380C114D104E104F10421F4D5CFE6
:10090000C12CD12C760140E0C701B6010E94F71638
:10091000882359F280917E0590917F058115924040
:1009200021F6A0918305AA2309F4BFCF6091810528
:10093000709182056115710509F4B7CF209180058A
:10094000222309F4B2CFA093680820935A0880E0CC
:1009500030E0E1E0F0E0C82FAF01082E02C0440F04
:10096000551F0A94E2F72417350741F0982F8F5F3F
:10097000983089F789E08093630897CF8093630864
:100980002091890530918A052115310519F040E043
:1009900050E008C020919705309198054091990545
:1009A00050919A0520935B0830935C0840935D0852
:1009B00050935E0846015701860E971EA11CB11C7C
:1009C0008092690890926A08A0926B08B0926C08B5
:1009D000E0918405F0918505F0936F08E0936E082F
:1009E000B0E00E94C42C860E971EA81EB91E8092ED
:1009F000700890927108A0927208B092730885E016
:100A0000EE0FFF1F8A95E1F7E150FE4FEF2FFF2712
:100A1000E6958E0E9F1EA11CB11C809264089092D8
:100A20006508A0926608B09267082091860530910B
:100A300087052115310521F0A90160E070E008C0AB
:100A4000409193055091940560919505709196059C
:100A5000D701C60188199909AA09BB09840F951FF6
:100A6000A61FB71F04C0B695A79597958795CA95F9
:100A7000D2F780935F0890936008A0936108B093C9
:100A80006208853F2FE09207A105B10510F48CE0C4
:100A900018C0853F9F4FA105B10510F480E111C03A
:100AA00080919F059091A005A091A105B091A2050C
:100AB0008093700890937108A0937208B0937308A4
:100AC00080E280936D0881E0DF91CF91FF90EF90FD
:100AD000DF90CF90BF90AF909F908F9008951F921E
:100AE0000F920FB60F9211240BB60F922F933F93D4
:100AF0004F935F936F937F938F939F93AF93BF9326
:100B0000EF93FF938091B900887F803609F49CC0F1
:100B100068F5883209F45BC090F4803109F454C060
:100B200038F4882309F4F6C0883009F44DC0F6C0C3
:100B3000883109F44CC0803209F45DC0EFC08034C4
:100B400009F468C048F4803309F455C0883309F0CB
:100B5000E5C080934F05D8C0803509F44FC0883573
:100B600009F45DC0883409F0D9C0D6C0883909F4C9
:100B7000C7C0A8F4883709F467C038F4883609F488
:100B800063C0803709F460C0C9C0883809F4B8C0B0
:100B9000803909F45FC0803809F0C0C05BC0803B79
:100BA00009F486C038F4803A09F466C0883A09F43A
:100BB0007FC0B4C0803C09F4A7C0883C09F4A4C03D
:100BC000883B09F48AC0AAC08091720510C0909138
:100BD000710580917005981770F5E091710581E0BD
:100BE0008E0F80937105F0E0E05BFA4F8081809377
:100BF000BB0085EC86C080934F058EC0E0917105E7
:100C000081E08E0F809371058091BB00F0E0E05B86
:100C1000FA4F808390917105809170056EC0E091CC
:100C2000710581E08E0F809371058091BB00F0E02B
:100C3000E05BFA4F80838091760781116DC081E07F
:100C40008093750784EA61C083E0809377071092F0
:100C50003209CFCF80913209803208F051C0E09143
:100C6000320981E08E0F809332098091BB00F0E061
:100C7000EE5EF64F8083BDCF85EC8093BC00109272
:100C8000770780913209803230F4E0913209F0E048
:100C9000EE5EF64F10826091320970E0E09110092B
:100CA000F091110982E199E019951092320936C04C
:100CB00084E08093770710920F0910920E09E0915B
:100CC0000C09F0910D09199580910E09811105C04B
:100CD00081E080930E091092EC08E0910F0981E009
:100CE0008E0F80930F09F0E0E451F74F80818093DD
:100CF000BB0090910F0980910E09981708F479CFE5
:100D000085E88093BC000AC085EC8093BC001092FB
:100D1000770704C010924F050E94A601FF91EF9142
:100D2000BF91AF919F918F917F916F915F914F9103
:100D30003F912F910F900BBE0F900FBE0F901F9001
:100D40001895CF93DF93282F30E0F901EC58FD4F31
:100D50008491F901E25DFD4FD491F901E851FE4F14
:100D6000C491CC2391F081110E941F1DEC2FF0E063
:100D7000EE0FFF1FE253FE4FA591B491EC91ED23CE
:100D800081E090E021F480E002C080E090E0DF911B
:100D9000CF9108951F93CF93DF93282F30E0F9016F
:100DA000EC58FD4F8491F901E25DFD4FD491F901BA
:100DB000E851FE4FC491CC23C9F0162F81110E9437
:100DC0001F1DEC2FF0E0EE0FFF1FEC54FE4FA5911E
:100DD000B4918FB7F894111105C09C91ED2FE09557
:100DE000E92302C0EC91ED2BEC938FBFDF91CF9103
:100DF0001F910895CF93DF93109234091092330915
:100E000010927907109278071092770781E080930B
:100E100076071092750761E084E10E94CA0661E0DE
:100E200085E10E94CA068091B9008E7F8093B90047
:100E30008091B9008D7F8093B90088E48093B800D9
:100E400085E48093BC001092B3088091B80882308A
:100E500018F098E09093B3088093B60862E370E0CE
:100E600080E090E00E94B11D6091B9088EEA98E0A0
:100E70000E945A1068EE73E080E090E00E94B11D7D
:100E800060E38EEA98E00E94BF10CBE4D6E4CE0186
:100E90000197F1F760E38EEA98E00E94BF10219776
:100EA000F1F760E38EEA98E00E94BF1083E592E0DC
:100EB0000197F1F760E28EEA98E00E94BF1060911E
:100EC000B308606240E08EEA98E00E94D81084E0A7
:100ED0008093B40840E06CE08EEA98E00E94D8105D
:100EE00040E061E08EEA98E00E94D810CBE3DFE1B9
:100EF000CE010197F1F782E08093B50840E066E00B
:100F00008EEA98E00E94D81040E062E08EEA98E015
:100F10000E94D8102197F1F7DF91CF910895DC015D
:100F20005996ED91FC915A973097B9F0838994893D
:100F3000A589B6894285538564857585841B950B83
:100F4000A60BB70B811520E89207A105B10538F073
:100F50008FEF9FE7A0E0B0E0089580E090E0089573
:100F6000FC01818D928D009711F00C94CD1808959D
:100F70008F929F92AF92BF92CF92DF92EF92FF92A9
:100F80000F931F93CF93DF9300D01F92CDB7DEB79F
:100F90007C0180E2689F6001112496012D583A4F30
:100FA000D9011B969C91917121F0842F827409F0D4
:100FB00097C0142FF701628B80910C0290910D0263
:100FC000A0910E02B0910F0286879787A08BB18BFC
:100FD000F601ED58FA4F4489558960E070E0BA0196
:100FE00055274427D70157964D935D936D937C9376
:100FF0005A97828D938DA0E0B0E0482B592B6A2B35
:101000007B2BD70157964D935D936D937C935A97A5
:10101000D9011B968C91887159F4848D958DA68D7C
:10102000B78DF701838B948BA58BB68B81E012C0B3
:10103000803109F055C097012D5E3F4FD7015B9677
:101040008D919C915C970E946418882309F448C094
:1010500084E0F7018583812F8F70D70114968C93DC
:101060001497F70116821782108611861A961D9220
:101070001D921D921C921D9716FF34C015968C91DF
:10108000813071F511FF2CC0F701438954896589BE
:101090007689452B462B472B09F461C040E050E090
:1010A000BA01C7010E940B198823D1F0F701878884
:1010B000908CA18CB28CC38CD48C82E090E0A0E0A8
:1010C000B0E0F60180839183A283B3839E012F5FFA
:1010D0003F4FB501A401C6010E94E017811104C071
:1010E00080E03DC081E03BC000E010E09801B50128
:1010F000A401C6010E944017882391F389809A8039
:10110000AB80BC80D60157968C91803129F088EF56
:101110009FEFAFEFBFE004C088EF9FEFA0E0B0E02B
:1011200088169906AA06BB0688F2D70157961D9223
:101130001D921D921C925A97F701138A148A158AE0
:10114000168A848180688483C7010E94CD18882311
:1011500039F240E050E0BA01C7010E940B190F902C
:101160000F900F900F90DF91CF911F910F91FF90F3
:10117000EF90DF90CF90BF90AF909F908F900895A9
:10118000CF93DF93EC010E94CD18882311F01D82CC
:1011900081E0DF91CF9108953F924F925F926F92DD
:1011A0007F928F929F92AF92BF92CF92DF92EF92F7
:1011B000FF920F931F93CF93DF93CDB7DEB72C979A
:1011C0000FB6F894DEBF0FBECDBF5C01DC015B96AD
:1011D0008D909C905C971696CD90DD90ED90FC9054
:1011E0001997C114D104E104F10439F0BFEFCB1A0F
:1011F000DB0AEB0AFB0A312C07C0F401C080D18066
:10120000E280F38033243394F40181859285A385B1
:10121000B4859C01AD012F5F3F4F4F4F5F4F298732
:101220003A874B875C87260137011D821E821F8209
:101230001886F40181859285A385B4852D813E8130
:101240004F815885281739074A075B0708F063C0A4
:1012500089859A85AB85BC858C159D05AE05BF0536
:1012600050F482E0C82ED12CE12CF12C92E0492ED2
:10127000512C612C712C9E012F5F3F4FB701A601AD
:10128000C4010E94E017882309F445C089819A812E
:10129000AB81BC81892B8A2B8B2B41F02601370136
:1012A0009FEF491A590A690A790A05C0C414D5047E
:1012B000E604F70491F02D813E814F8158852F5F20
:1012C0003F4F4F4F5F4F2D833E834F8358873FEFF4
:1012D000C31AD30AE30AF30AACCF0FEF1FEF2FEFC5
:1012E0003FE0B301A201C4010E944017882399F096
:1012F000D50116964D915D916D917C91199741158F
:1013000051056105710549F093018201C4010E94F4
:101310004017811102C080E02AC0D50116964D9277
:101320005D926D927C921997332051F0D301C201E6
:101330000196A11DB11DF40180839183A283B38323
:10134000F5018789908DA18DB28D892B8A2B8B2BEE
:1013500069F4D50157964D925D926D927C925A97A1
:1013600014968C911497806814968C9381E02C9637
:101370000FB6F894DEBF0FBECDBFDF91CF911F91A6
:101380000F91FF90EF90DF90CF90BF90AF909F9024
:101390008F907F906F905F904F903F9008954F9205
:1013A0005F926F927F929F92AF92BF92CF92DF92A5
:1013B000EF92FF920F931F93CF93DF93CDB7DEB7DA
:1013C0002B970FB6F894DEBF0FBECDBF7C01DC01BA
:1013D0001596AC90A1108AC1FE0131966F0190E282
:1013E0008BE08E0F91938E13FDCFDA0130E087E012
:1013F0009D91992339F19E3219F0EAEBF2E00AC08F
:101400008A3009F474C138E08AE0F2CF3196491786
:1014100009F46DC144914111F9CF831708F467C1F4
:101420004FED490F4E3508F062C141E0430FF60120
:10143000E30FF11D3FE9390F3A3108F490529083E0
:10144000342FD6CF8981803209F451C1B22E8B015D
:10145000DB015B968D919C915C97F701948F838F54
:1014600016961D921D921D921C921997FB011286D1
:10147000138614861586712CF80182859385A485C0
:10148000B585438954896589768984179507A607A8
:10149000B70708F061C025E0B695A79597958795A1
:1014A0002A95D1F7F82FFF706F2ED80115968C91E1
:1014B000823008F41CC1C8010E94990F97FD17C122
:1014C000F80182859385A485B5854F96A11DB11D30
:1014D00082879387A487B587F0E26F9EC0011124AD
:1014E000BC016D587A4F6115710509F400C1DB012B
:1014F0002C91222319F0253EC1F427C071100EC093
:10150000F701628A40910C0250910D0260910E0227
:1015100070910F0246875787608B718BFC01ED58E5
:10152000FA4F8081811113C015C04BE050E0C60115
:101530000E942B2F892B09F09FCF8B2D8073803336
:1015400009F4D5C04B2D662DCCC07720C9F2772485
:10155000739492CF772473948B2D8271823109F02A
:10156000C6C07720D1F0D7011E966D917D918D91E7
:101570009C91519741E00E94F716882309F4B7C067
:10158000F7016289F0E26F9FB00111246D587A4F24
:101590006115710509F079C0AAC0D80115968C9122
:1015A000823009F4A4C0C8010E94CC08882309F441
:1015B0009EC0D8015B96ED91FC915C9716964D907C
:1015C0005D906D907C901997B2E04B1A51086108BC
:1015D0007108058404C0440C551C661C771C0A94D1
:1015E000D2F786859785A089B189480E591E6A1E53
:1015F0007B1E9480E1E04E1A510861087108992021
:1016000009F10E94BC16882309F471C0E3E7F5E0F4
:10161000119227E0E337F207D9F7D301C201890D10
:10162000911DA11DB11D80930C0290930D02A093FA
:101630000E02B0930F028091450B81608093450BA1
:101640009A94DDCFD8015B96ED91FC915C9780E098
:1016500092E0A0E0B0E0058404C0880F991FAA1FA3
:10166000BB1F0A94D2F7F8014389548965897689AA
:10167000840F951FA61FB71F838B948BA58BB68BEA
:10168000D70152961C9263E775E080E2FB0111924C
:101690008A95E9F78BE0F601DB0101900D928A95BE
:1016A000E1F781E298E2DB0151969C938E9350978B
:1016B00020E038E01F963C932E931E9753969C9300
:1016C0008E93529759969C938E93589757963C9326
:1016D0002E9356970E94BC16882349F04B2DF70194
:1016E0006289C7010E94B807A82E01C0A12C8A2DCB
:1016F0002B960FB6F894DEBF0FBECDBFDF91CF9112
:101700001F910F91FF90EF90DF90CF90BF90AF901F
:101710009F907F906F905F904F9008958FB7F8944F
:101720008091400B8FBF089561E0FC0184810E948D
:10173000CA0680913F0B811110923F0B08958EBD18
:1017400000000DB407FEFDCF8EB508958FEF0C9409
:101750009F0B0F931F93CF93DF93EB010E94EB1D21
:101760008B010E94A60B8F3F49F00E94EB1D601B6E
:10177000710B6C177D07A8F380E001C081E0DF9159
:10178000CF911F910F910895CF93DF93EC018E813C
:10179000882389F08F8198859C012F5F3F4F388780
:1017A0002F838230924018F40E94A60BF3CFCE0113
:1017B0000E94940B1E82DF91CF9108958CBD9DBD38
:1017C0000895CF93DF93EC0180913F0B811109C005
:1017D00081E080933F0B80912D0890912E080E940C
:1017E000DE0B60E08C81DF91CF910C94CA06CF9222
:1017F000DF92FF920F931F93CF93DF9300D01F923E
:10180000CDB7DEB76C01F62E29833A834B835C8318
:101810000E94C40BC6010E94E10B6CE271E0C6019C
:101820000E94A90B8F2D80640E949F0B08E110E09D
:101830005C814B813A812981DA01C901002E04C003
:10184000B695A795979587950A94D2F729833A83F9
:101850004B835C830E949F0B0850110929813A81B8
:101860004B815C81083F8FEF180731F7FF2029F08B
:10187000E8E0FE1204C087E803C085E901C08FEFED
:101880000E949F0B10E00E94A60BF601828787FF43
:1018900004C01F3F11F01F5FF6CF0F900F900F9005
:1018A0000F90DF91CF911F910F91FF90DF90CF901C
:1018B0000895AF92BF92CF92DF92EF92FF920F9373
:1018C0001F93CF93DF93EC016901C801820F931F2F
:1018D0008130924008F070C08E81882371F0888139
:1018E0009981AA81BB81481759076A077B0729F4A8
:1018F0008F819885C816D906B0F5488359836A83C5
:101900007B838B85833039F089E0440F551F661F38
:10191000771F8A95D1F79A01AB0161E1CE010E9450
:10192000F70B882319F083E08D8346C00E94EB1DDE
:101930005B010E94A60B8A878F3F49F40E94EB1D32
:101940006A197B096D327140A0F38FE003C08E3FAE
:1019500031F08DE08D83CE010E94940B2DC018864E
:101960001F8281E08E838F8198858C159D0540F4C0
:101970000E94A60B8F819885019698878F83F3CF5D
:101980006701E00EF11ECE14DF0431F00E94A60BB9
:10199000F60181936F01F7CF8F819885080F191F8A
:1019A00018870F838985882319F00115124048F0A4
:1019B000CE010E94C40B05C0CE010E94940B80E0B2
:1019C00001C081E0DF91CF911F910F91FF90EF90C7
:1019D000DF90CF90BF90AF900895EF92FF920F935A
:1019E0001F93CF93DF93EC017901411551056105F8
:1019F000710511F482E13CC08B85833039F089E0B8
:101A0000440F551F661F771F8A95D1F79A01AB01C6
:101A100068E1CE010E94F70B882311F084E028C012
:101A20008EEF0E949F0B87018EEFF81AF8018191CB
:101A30008F010E949F0B0E151F05C1F78FEF0E94AB
:101A40009F0B8FEF0E949F0B0E94A60B8A878F71BE
:101A5000853031F081E18D83CE010E94940B09C065
:101A600068E572E0CE010E94A90B811107C085E1F3
:101A70008D83CE010E94940B80E013C020E030E003
:101A8000A9016DE0CE010E94F70B811104C00E94F4
:101A9000A60B882311F084E1EBCFCE010E94940BBA
:101AA00081E0DF91CF911F910F91FF90EF9008950A
:101AB0001F920F920FB60F9211240BB60F928F93B5
:101AC0009F93AF93BF93CF93DF93EF93FF93809157
:101AD0000B0286FD3AC08091830790E0880F991F22
:101AE000FC01EA54FD4FA081B181FC01E255FD4F9C
:101AF000C081D181E0913C0B80913B0B9EEFE99F2F
:101B0000F0011124E80FF11DE15CF64F808190E0B7
:101B10009983888311969C938E9380913B0B8F5F62
:101B200080933B0B80913B0B8E3FD0F010923B0B90
:101B3000E0913C0BF0E0E75FFD4F81E08083909106
:101B40003C0B892780933C0B0BC090913E0B81E0AE
:101B5000892780933E0B80913E0B882309F4BBCFED
:101B6000FF91EF91DF91CF91BF91AF919F918F91B5
:101B70000F900BBE0F900FBE0F901F9018951F92E5
:101B80000F920FB60F9211240BB60F922F933F9323
:101B90004F935F936F937F938F939F93AF93BF9375
:101BA000EF93FF93E0913C0B81E0E827F0E0E75FE3
:101BB000FD4F9081992309F468C090913C0B8927CF
:101BC00080933D0BE0918307F0E0EE0FFF1FEE5D89
:101BD000FD4F0190F081E02D80818F7D808378948E
:101BE0008FE298E00E948F0720913D0930913E09D5
:101BF0002817390728F180910B0283FF07C06CE298
:101C000070E080E090E00E94D00232C0E091830753
:101C1000F0E0EE0FFF1FEE5DFD4F0190F081E02D33
:101C200080818E7D8083E0914808F091490830974B
:101C300021F0858181110E94180410927A0725C035
:101C400060913D0B8EEF689FB0011124615C764F6F
:101C50008091480890914908009721F04EEF50E09C
:101C60000E94421BE0913D0BF0E0E75FFD4F1082C8
:101C7000E0918307F0E0EE0FFF1FEE5DFD4F019056
:101C8000F081E02D808180628083FF91EF91BF9190
:101C9000AF919F918F917F916F915F914F913F9104
:101CA0002F910F900BBE0F900FBE0F901F901895A5
:101CB000FC01DB0112968D919C9113979383828393
:101CC0008AE692E09183808314968C9114978483A2
:101CD00015968C911597858316964D915D916D9112
:101CE0007C91199746835783608771871A964D9127
:101CF0005D916D917C911D974287538764877587AD
:101D00001E964D915D916D917C91519746875787B5
:101D1000608B718B52968C915297828B53964D911A
:101D20005D916D917C915697438B548B658B768B2F
:101D300057964D915D916D917C915A97478B508F3D
:101D4000618F728F5B968D919C915C97948F838F3E
:101D50000895CF93DF931F92CDB7DEB76983DC017F
:101D6000ED91FC910280F381E02D41E050E0BE0155
:101D70006F5F7F4F19950F90DF91CF910895089570
:101D800080E090E00895823081F01CF4813031F0E1
:101D900020C0833089F08430B1F01BC06130710500
:101DA000C9F06F3F7F4FA9F417C061307105B1F0E2
:101DB0006F3F7F4F71F414C06130710599F06F3F30
:101DC0007F4F39F411C06130710581F06F3F7F4F53
:101DD00079F0089583E0089582E0089586E00895FB
:101DE00085E0089589E0089588E008958CE00895DD
:101DF0008BE00895CF93DF93EC01898D9A8D009746
:101E000039F481E090E09B838A8380E090E00BC00E
:101E1000FC01138212820E94A119E98DFA8D2281A0
:101E20003381232B71F7DF91CF9108950F931F9387
:101E3000CF93DF93EC01088110E08C810E94A10612
:101E40000817190711F01A820FC08A818F5F8A83E1
:101E50009B81891748F0888191E0892788831A82BD
:101E6000882321F0998302C080E001C081E0DF91E6
:101E7000CF911F910F91089587EE98E00E94160F61
:101E800082EE98E00E94160F8DED98E00E94160FEA
:101E900088ED98E00E94160F83ED98E00E94160FDF
:101EA0008EEC98E00E94160F89EC98E00E94160FC5
:101EB00084EC98E00E94160F8FEB98E00E94160FBA
:101EC0008AEB98E00C94160FEF92FF920F931F93FA
:101ED000CF93DF93EC017B018A011B821A8288EE8B
:101EE00093E0A0E0B0E08C839D83AE83BF8386E760
:101EF00092E0998388838DE190E00E94102D9A8F63
:101F0000898F009779F02DE1F701DC0101900D92A6
:101F10002A95E1F74CE050E0B801CE010C960E9402
:101F2000532F188EDF91CF911F910F91FF90EF905B
:101F30000895CF93DF931F92CDB7DEB741E050E015
:101F4000BE016F5F7F4F0E94421B019719F4898188
:101F500090E002C08FEF9FEF0F90DF91CF91089537
:101F6000FC01818D928D009711F00C94990F8FEFE9
:101F70009FEF08950F931F93CF93DF93FC01818D03
:101F8000928D0097B9F0EF010E94990F8C010F3FDD
:101F90008FEF180791F0898D9A8DFC01428553854A
:101FA0006485758541505109610971090E940B19B9
:101FB000C80105C080E090E002C08FEF9FEFDF9185
:101FC000CF911F910F9108951F920F920FB60F920C
:101FD00011240BB60F922F933F934F935F936F9300
:101FE0007F938F939F93AF93BF93EF93FF938091D2
:101FF0001405909115058093B2008091170590917A
:102000001805A0911905B0911A050196A11DB11DE1
:102010008093170590931805A0931905B0931A059E
:102020008091170590911805A0911905B0911A0596
:1020300040911005509111056091120570911305A2
:1020400084179507A607B70710F18091160581112F
:102050001EC081E0809316058091170590911805A8
:10206000A0911905B0911A05841B950BA60BB70B0F
:102070008093170590931805A0931905B0931A053E
:10208000E0910E05F0910F05199510921605FF913C
:10209000EF91BF91AF919F918F917F916F915F91E0
:1020A0004F913F912F910F900BBE0F900FBE0F904D
:1020B0001F901895CF93FC01C48121E020934E0519
:1020C000C093440B10927907109278078385682B90
:1020D00084E897E00E942E0280917807813208F010
:1020E00046C0909177079111FCCF92E090937707CB
:1020F00091E0909376079FEF90934F0510927105B2
:1021000080937005AEE2B5E020E535E0F9019E2F41
:10211000921B981718F49D919193F9CF1092720524
:1021200080917205CC0FC82BC09372058091750702
:10213000813061F410927507809172058093BB0025
:102140008091BC0083FDF8CF85EC01C085EE8093C3
:10215000BC00809177078230E1F380914F058F3F7B
:1021600031F080914F05803211F080914F0510922F
:1021700079071092780710924E05CF9108950F932A
:102180001F93CF938C01C62F0E945A106C2F64604E
:10219000C8010E945A106C2F6B7FC8010E945A1010
:1021A00083EC90E00197F1F7CF911F910F91089583
:1021B000FF920F931F93CF93DF931F92CDB7DEB79C
:1021C0008C01F62E962F907F692F642BC8014983CE
:1021D0000E94BF1080E1F89EB00111244981642B58
:1021E000C8010F90DF91CF911F910F91FF900C9438
:1021F000BF1041E00E94D81081E090E00895109255
:10220000E8081092E3081092DE081092D9081092A4
:10221000D4081092CF081092CA081092C5081092E4
:10222000C0081092BB0808952F923F924F925F9280
:102230006F927F928F929F92AF92BF92CF92DF92D6
:10224000EF92FF920F931F93CF93DF93CDB7DEB73B
:102250006B970FB6F894DEBF0FBECDBF5C0180E375
:102260000E94A106892B09F44EC290917B078091B0
:102270008207981709F4ACC010927A07E09183079F
:10228000F0E0EE0FFF1FEE5DFD4F0190F081E02DBD
:1022900080818E7D80830E94080381110E94180432
:1022A0008091830790E0880F991FFC01EE5CFD4F41
:1022B00000811181D8012C9127FD20C020910B02B3
:1022C000206220930B02FC01E65DFD4F0190F0813E
:1022D000E02D1082F801108261E080917B070E945E
:1022E000751D80917B07863009F460C08E3209F439
:1022F00061C0853009F060C081E059C0FC01EA543A
:10230000FD4FE080F180D7016D917C919B01AB0185
:10231000FC01E255FD4F2F01DC01A154BD4F3D01F1
:10232000E0918007F0918107D901A61BB70BAE178A
:10233000BF0720F6D201CD90DC9037FD06C0D90151
:10234000E217F30720F4DF0102C0A0E0B0E0F601DD
:10235000B183A08357FD0AC0A0918007B091810787
:10236000FA01A417B50720F4FD0102C0E0E0F0E097
:10237000D7011196FC93EE93F30180809180A09198
:102380008007B09181071D01F2E32F1A3108EAE0BE
:10239000F0E0D401CD90DC90C214D304D0F3319797
:1023A000C1F7415051092F5F3F4FBACF82E0809370
:1023B000830704C083E0FBCF109283078DB5816053
:1023C0008DBD8CB58C7F8CBD80917B0780938207FF
:1023D0000E942B0441E0B501CE0101960E94140336
:1023E0008B819C8190933208809331088D819E81EE
:1023F000AF81B8858093330890933408A093350853
:10240000B093360889859A85AB85BC85809337085B
:1024100090933808A0933908B0933A088DE0FE01F4
:102420003D96ABE3B8E001900D928A95E1F78A8D75
:102430009B8D90934908809348080E940803882345
:1024400009F461C168E070E080E090E00E94D00291
:1024500087E5898381E48A8386E58B8385E48C83A1
:102460008E010F5F1F4F74E0F72EF00E8FE298E0A1
:102470000E94B00FF80121918F01022E000C330B46
:102480008217930711F4FE12F1CF68E170E080E04B
:1024900090E00E94D0028FE298E00E94B00F9093EB
:1024A0007F0780937E078FE298E00E94B00F20E0C4
:1024B00030E0382F80917E0790917F07822B932BFD
:1024C00090937F0780937E076CE270E080E090E05D
:1024D0000E94D0028EEF90E090933E0980933D09D8
:1024E00081E080937A0780910B02982F9F779093D9
:1024F0000B0220917E0730917F072B3F3F4A30F03F
:1025000020EC3DE530937F0720937E0720917E07E6
:1025100030917F0740E050E086FF05C060E075E342
:102520008CE090E004C060E07AE688E190E00E94F0
:10253000A52C6AE0629FC001639F900D11249093C7
:102540008107809380078FE298E00E94B00F8C0192
:102550008FE298E00E94BA0F800F911F97FD0196BD
:102560008C011595079580910B0285FD1AC080910D
:102570000B028F7D80930B02E0918307F0E0EE0F5A
:10258000FF1FEA54FD4F0190F081E02D2081318141
:10259000C80199272817390708F086C040E050E0A5
:1025A00040C08091830790E0880F991FFC01EA5496
:1025B000FD4F0190F081E02D11821082FC01E25567
:1025C000FD4F0190F081E02D80918007909181076F
:1025D000918380830E94E202E0918307F0E020E093
:1025E00030E0EE0FFF1FE255FD4F63E572E0809192
:1025F0008007909181072817390708F0B8CFA0818C
:10260000B181AC01421B530B8417950708F4AC0150
:1026100011965C934E93CB010197F1F72F5F3F4FDB
:10262000E6CFB9016F5F7F4F6217730728F09B01F8
:102630008617970708F49C01FA01E15CF64F2083A6
:102640004F5F5F4F4E3F510561F740E050E0B901E9
:102650006F5F7F4F6217730728F09B0186179707FC
:1026600008F49C01FA01E35CF54F20834F5F5F4F54
:102670004E3F510561F710923C0B109209021092E7
:102680000A0210923B0BF8940E94E202E091830749
:10269000F0E0EE0FFF1FEE5DFD4F0190F081E02DA9
:1026A00081E2808378942FC040E050E0B90161500E
:1026B00071096817790728F06217730718F49B01EE
:1026C00001C09C01FA01E15CF64F20834F5F5F4F30
:1026D0004E3F510559F740E050E0B9016150710992
:1026E0006817790728F06217730718F49B0101C077
:1026F0009C01FA01E35CF54F20834F5F5F4F4E3F33
:10270000510559F7B8CF6B960FB6F894DEBF0FBEE0
:10271000CDBFDF91CF911F910F91FF90EF90DF9090
:10272000CF90BF90AF909F908F907F906F905F9071
:102730004F903F902F900895CF93DF932091000208
:102740002223C9F0EC01BC0180E997E00E943A1F06
:1027500080911B05882379F00E94EB1D6A5F7A4FF8
:1027600083E998E00E944E1FBE0183E998E0DF9163
:10277000CF910C943A1FDF91CF910895CF93DF93BF
:10278000CDB7DEB7AA970FB6F894DEBF0FBECDBFA8
:102790002091070230910802309304022093030233
:1027A000209105023091060230930202209301022B
:1027B00020911C0530911D053093430B2093420B53
:1027C00090930802809307027093060260930502BB
:1027D00050931D0540931C050E94EB1D609322053C
:1027E00070932305809324059093250540911E0541
:1027F00050911F0560912005709121052AE0CE01BE
:102800004F960E94891E40912205509123056091A8
:102810002405709125052AE0CE0149960E94891E63
:1028200060911C0570911D054AE0CE0143960E94FF
:10283000C11E60910502709106024AE0CE010D961C
:102840000E94C11E60910702709108024AE0CE0109
:1028500007960E94C11E6EEE74E0CE0101960E94A2
:10286000021FBE01695F7F4FCE0101960E945A1E72
:1028700068EF74E00E94411EBE01635F7F4F0E94BB
:102880005A1E68EF74E00E94411EBE016D5E7F4FCC
:102890000E945A1E65EB74E00E94411EBE01675EF5
:1028A0007F4F0E945A1E62ED73E00E94411EBE01DE
:1028B000615E7F4F0E945A1EBC01CE0185960E9428
:1028C000F91ECE0185960E949C13CE0185960E942A
:1028D000841ECE0101960E94841ECE0107960E949E
:1028E000841ECE010D960E94841ECE0143960E9446
:1028F000841ECE0149960E94841ECE014F960E94EE
:10290000841E8091220590912305A0912405B09109
:10291000250580931E0590931F05A0932005B09375
:1029200021050E94FF10809107029091080225E086
:10293000289FF001299FF00D1124809105029091AC
:102940000602E80FF91FEE0FFF1FE953FD4F8081CC
:102950008F3FD1F09FEF980F943088F420910302BD
:10296000309104022115310519F02B30310561F445
:1029700060911C0570911D050E94C30E02C0863136
:102980001CF061E00E94CA0680910302909104024B
:1029900025E0289FF001299FF00D1124809101026C
:1029A00090910202E80FF91FEE0FFF1FE953FD4F50
:1029B00080818F3F69F09FEF980F943030F46091E1
:1029C000420B7091430B0E94C30E60E00E94CA0646
:1029D0002091050230910602C9018B7F892B19F4E1
:1029E00082E090E014C080910702909108022230AA
:1029F000310539F4009711F00B9769F489E090E004
:102A000006C0009711F00B9731F483E090E09093AB
:102A1000270580932605AA960FB6F894DEBF0FBE51
:102A2000CDBFDF91CF9108950F931F93CF93DF9385
:102A300020910002222379F18B01EC01BC0180E995
:102A400097E00E943A1F60E080E00E945D026AEF1A
:102A500074E08EEA98E00E944E1F60E080E00E94E1
:102A60005D02B8018EEA98E00E94171F80911B0555
:102A7000882389F00E94EB1D6A5F7A4F83E998E012
:102A80000E944E1FBE0183E998E0DF91CF911F9114
:102A90000F910C943A1FDF91CF911F910F910895E0
:102AA000FC01538D448D252F30E0842F90E0821B54
:102AB000930B541710F0CF96089501970895FC01D9
:102AC000918D828D981761F0828DDF01A80FB11D65
:102AD0005D968C91928D9F5F9F73928F90E0089589
:102AE0008FEF9FEF0895FC01918D828D981731F043
:102AF000828DE80FF11D858D90E008958FEF9FEF97
:102B00000895FC01918D228D892F90E0805C9F4F6C
:102B1000821B91098F739927089580E997E00E949D
:102B2000811521E0892B09F420E0822F0895FC0112
:102B3000848DDF01A80FB11DA35ABF4F2C91848D46
:102B400090E001968F739927848FA689B7892C937B
:102B5000A089B1898C9180648C93938D848D981316
:102B600006C00288F389E02D80818F7D80830895DF
:102B7000EF92FF920F931F93CF93DF93EC0181E0CD
:102B8000888F9B8D8C8D981305C0E889F989808189
:102B900085FD24C0F62E0B8D10E00F5F1F4F0F73C5
:102BA0001127E02E8C8DE8120CC00FB607FCFACF6F
:102BB000E889F989808185FFF5CFCE010E949715BC
:102BC000F1CF8B8DFE01E80FF11DE35AFF4FF0822C
:102BD0000B8FEA89FB898081806207C0EE89FF89BB
:102BE0006083E889F98980818064808381E090E056
:102BF000DF91CF911F910F91FF90EF900895CF93A8
:102C0000DF93EC01888D8823C9F0EA89FB898081F4
:102C100085FD05C0A889B9898C9186FD0FC00FB6C6
:102C200007FCF5CF808185FFF2CFA889B9898C9107
:102C300085FFEDCFCE010E949715E7CFDF91CF91B1
:102C4000089580E090E0892B21F00E948D1581117C
:102C500025C080E090E0892B41F080E090E0892B56
:102C600021F00E94000081111CC080E090E0892BBF
:102C700041F080E090E0892B21F00E94000081115A
:102C800013C080E090E0892BA1F080E090E0892BD8
:102C900081F00E94000081110AC008950E94000086
:102CA000D8CF0E940000E1CF0E940000EACF0C9430
:102CB000000008950E94262F1F920F920FB60F92C8
:102CC00011240BB60F922F933F934F935F936F9303
:102CD0007F938F939F93AF93BF93EF93FF9380E97D
:102CE00097E00E949715FF91EF91BF91AF919F914F
:102CF0008F917F916F915F914F913F912F910F90A5
:102D00000BBE0F900FBE0F901F9018951F920F9241
:102D10000FB60F9211240BB60F922F938F939F93A0
:102D2000EF93FF93E091A007F091A1078081E091DC
:102D3000A607F091A70782FD12C090818091A90794
:102D40008F5F8F732091AA07821751F0E091A90736
:102D5000F0E0E057F84F958F8093A90701C080817C
:102D6000FF91EF919F918F912F910F900BBE0F903C
:102D70000FBE0F901F9018958091450B8823A9F1E5
:102D800040910C0250910D0260910E0270910F0261
:102D900023E735E080917307909174070E94ED0C52
:102DA000811102C080E008954091460B5091470B7D
:102DB0006091480B7091490B4115510561057105F2
:102DC00091F023E735E080917307909174070E949A
:102DD000ED0C882339F31092460B1092470B10929A
:102DE000480B1092490B1092450B81E008958F9289
:102DF0009F92AF92BF92EF92FF920F931F93CF9348
:102E00004B015C01C42F80910C0290910D02A091A6
:102E10000E02B0910F0288159905AA05BB0501F1B4
:102E20000E94BC16811102C080E020C083E7E82E1A
:102E300085E0F82E00E012E020E030E0B501A401CA
:102E400080917307909174070E94590C882361F355
:102E500080920C0290920D02A0920E02B0920F028C
:102E60008091450BC82BC093450B81E0CF911F91FA
:102E70000F91FF90EF90BF90AF909F908F9008952B
:102E80004F925F926F927F928F929F92AF92BF927A
:102E9000CF92DF92EF92FF920F931F93CF93DF9326
:102EA000EC016A017B0128013901423051056105BD
:102EB000710510F480E073C089859A85AB85BC8567
:102EC0000196A11DB11D84179507A607B70790F3BA
:102ED0008B889C88AD88BE888F89803129F4BB2778
:102EE000AF2D9E2D8D2D09C0DB01CA0147E0B6959F
:102EF000A795979587954A95D1F7880E991EAA1E92
:102F0000BB1E80910C0290910D02A0910E02B09117
:102F10000F0288169906AA06BB0679F48F898031BC
:102F2000A1F4DD24EE24FF24C601880F991FFC01C3
:102F3000ED58FA4F5182408219C040E0C501B401FA
:102F40000E94F7168111EACFB5CFE894C7F8DD24C7
:102F5000EE24FF24C601880F991F880F991FFC01DA
:102F6000ED58FA4F40825182628273828091450B04
:102F700081608093450B8A89823080F08D819E81AB
:102F8000AF81B885880E991EAA1EBB1E8092460B83
:102F90009092470BA092480BB092490B81E0DF91D1
:102FA000CF911F910F91FF90EF90DF90CF90BF9046
:102FB000AF909F908F907F906F905F904F9008950B
:102FC0008F929F92AF92BF92CF92DF92EF92FF9239
:102FD0000F931F93CF93DF93FC0181859285A38587
:102FE000B4850196A11DB11D84179507A607B707E3
:102FF00010F480E05CC083899489A589B689C7896B
:10300000C03129F4852E962EA72EBB2409C04A0173
:103010005B01C7E0B694A79497948794CA95D1F7BB
:10302000E9016A017B018F01BC01CD01680D791DA9
:103030008A1D9B1D80900C0290900D02A0900E02A4
:10304000B0900F02681579058A059B0599F4F8017F
:1030500087898031A9F4B701A6015527662777270C
:10306000440F551FFA01ED58FA4F80819181A0E07D
:10307000B0E018C040E00E94F7168111E8CFB9CF48
:10308000B701A6014F77552766277727440F551FAD
:10309000440F551FFA01ED58FA4F80819181A281AA
:1030A000B381BF7088839983AA83BB8381E0DF915A
:1030B000CF911F910F91FF90EF90DF90CF90BF9035
:1030C000AF909F908F9008954F925F926F927F92F2
:1030D000AF92BF92CF92DF92EF92FF920F931F9326
:1030E000CF93DF9300D01F92CDB7DEB78C01498319
:1030F0005A836B837C835901C12CD12C7601412CDE
:1031000082E0582E612C712C49815A816B817C811F
:103110009E012F5F3F4FC8010E94E017882351F1A5
:10312000D301C201F801058404C0880F991FAA1FAA
:10313000BB1F0A94D2F7C80ED91EEA1EFB1E498196
:103140005A816B817C818789803129F088EF9FEFDC
:10315000AFEFBFE004C088EF9FEFA0E0B0E04817FA
:1031600059076A077B0780F2F501C082D182E282AB
:10317000F38281E00F900F900F900F90DF91CF912D
:103180001F910F91FF90EF90DF90CF90BF90AF9085
:103190007F906F905F904F900895CF93DF93EC01F5
:1031A0008D818823A1F18C8187FF2DC06E857F855D
:1031B0008889998941E00E94F716882341F1EA89BC
:1031C00080E2E89FF0011124DF01AD58BA4F10975B
:1031D000F1F08D81823050F44B895C896D897E8954
:1031E0005C964D935D936D937C935F978F89988DDB
:1031F000A98DBA8DED58FA4F938F828FB58BA48B22
:103200008C818F778C83DF91CF910C94BC1680E0FA
:10321000DF91CF9108958F929F92AF92BF92CF92FC
:10322000DF92EF92FF920F931F93CF93DF93EC0106
:103230008D81811102C080E077C00B891C892D89A6
:103240003E890417150726073707A8F36A017B0193
:10325000823029F4CA86DB86EC86FD860DC0C11457
:10326000D104E104F10451F41E821F8218861986EC
:103270001A861B861C861D8681E056C08A849B8424
:10328000AC84BD84EB8DFC8D258530E0275F3F4FFE
:10329000B501A4014150510961097109022E04C010
:1032A00076956795579547950A94D2F7D701C60149
:1032B0000197A109B10904C0B695A795979587957F
:1032C0002A95D2F784179507A607B70720F0892813
:1032D0008A288B2849F44F89588D698D7A8D4E83C1
:1032E0005F836887798704C0841B950BA60BB70B97
:1032F0004C015D018E010A5F1F4F81149104A104EE
:10330000B10409F4A7CF4E815F8168857985980162
:103310008B8D9C8D0E94E01791E0891A9108A1087D
:10332000B1088111EACF87CFDF91CF911F910F9123
:10333000FF90EF90DF90CF90BF90AF909F908F90D5
:1033400008952F923F924F925F926F927F928F9249
:103350009F92AF92BF92CF92DF92EF92FF920F9324
:103360001F93CF93DF9300D01F92CDB7DEB78C01B0
:103370005B011A01DC0115968C9115978130C9F417
:1033800014968C9181FF15C082FF1BC0F801438900
:1033900054896589768982859385A485B585841746
:1033A0009507A607B70769F0C8010E940B1981119C
:1033B00008C081E090E0F8019383828380E090E090
:1033C00039C1610183C0D8015B968D919C915C9756
:1033D000FC01248121502A013B0139E07694679455
:1033E000579447943A95D1F7722E74207A01F1E000
:1033F000FF22772009F476C080E092E08E199F09C1
:1034000046018C159D0508F44C01D8015B962D9161
:103410003C915C9716968D919D910D90BC91A02D3D
:103420000297A109B109F901058404C0880F991F09
:10343000AA1FBB1F0A94D2F74685578560897189F8
:10344000840F951FA61FB71F9C01AD01270D311DCD
:10345000411D511D29013A01811432E0930609F002
:1034600088C080910C0290910D02A0910E02B09143
:103470000F0284159505A605B70559F48FEF9FEF48
:10348000DC0180930C0290930D02A0930E02B09386
:103490000F029501B301A201809173079091740707
:1034A0000E94ED0C882309F484CF9EEFB91AC81846
:1034B000D908F80182859385A485B585880D991D65
:1034C000A11DB11D82879387A487B587D8011A965D
:1034D0004D915D916D917C911D97C114D10409F0BE
:1034E00072CF87C0E114F10409F086CF16964D9192
:1034F0005D916D917C91199741155105610571059B
:1035000059F457968D919D910D90BC91A02D0097E7
:10351000A105B10541F521C09E012F5F3F4F0E94DB
:10352000E017882309F44BCF89819A81AB81BC8154
:10353000F801238D348DF9012789203129F048EFD6
:103540005FEF6FEF7FE004C048EF5FEF60E070E097
:1035500084179507A607B70730F0C8010E94CC086A
:1035600081114ACF26CFF80186839783A087B18740
:1035700043CFE114F10429F5D8011A964D915D91DC
:103580006D917C911D9753968D919D910D90BC915D
:10359000A02D481759076A077B0798F00E94BC16B0
:1035A000882309F406CF40920C0250920D026092DB
:1035B0000E0270920F028091450B81608093450B43
:1035C00008C041E0C301B2010E94F716882309F444
:1035D000F0CED501F701ED58FA4FCF01880D991DB6
:1035E000E817F90719F02D912193FACFA80CB91C0F
:1035F0005ECF53968D919D910D90BC91A02D841717
:103600009507A607B70740F4F801438B548B658BE9
:10361000768B848180688483D80114968C9183FD95
:1036200002C0C10107C0C8010E94CD18882309F457
:10363000C0CEF7CF0F900F900F900F90DF91CF91EA
:103640001F910F91FF90EF90DF90CF90BF90AF90C0
:103650009F908F907F906F905F904F903F902F90B2
:103660000895CF93DF931F92CDB7DEB7698341E012
:1036700050E0BE016F5F7F4F0E94A1190F90DF9154
:10368000CF9108952F923F924F925F926F927F92C7
:103690008F929F92AF92BF92CF92DF92EF92FF9262
:1036A0000F931F93CF93DF93EC016B014A018D8140
:1036B000811103C08FEF9FEFD7C08C8180FFFACFBD
:1036C0004B885C886D887E884A855B856C857D85A6
:1036D000C401A0E0B0E093018201041B150B260B8E
:1036E000370B081719072A073B0718F44201841AF9
:1036F000950A54011E0126E0220E311CA114B104CA
:1037000009F47EC04A855B856C857D852A0181E050
:103710005822ED818A019B0189E0369527951795FE
:1037200007958A95D1F78B8D9C8DE23061F4FC0171
:10373000828D938DA48DB58DBC01CD01600F711F5D
:10374000821F931F3FC0FC0174807A947022411441
:103750005104C9F4711017C0452B462B472B49F46F
:103760008F89988DA98DBA8D8E839F83A887B987FD
:103770000AC04E815F816885798591010E94E017BA
:10378000882309F497CFEB8DFC8D8E819F81A885CE
:10379000B9850297A109B109058404C0880F991F52
:1037A000AA1FBB1F0A94D2F7468557856089718985
:1037B000840F951FA61FB71FBC01CD01670D711D9A
:1037C000811D911D20E032E02419350935012A15AB
:1037D0003B0508F439012C8126FD04C06114F2E098
:1037E0007F0681F400910C0210910D0220910E02CF
:1037F00030910F026017710782079307B1F402C07E
:10380000C40132C040E00E94F716882309F452CF69
:10381000F201ED58FA4FD601CF01860D971DE8173A
:10382000F90789F021912D93FACF76018301920156
:10383000AB01BC0180917307909174070E94590CF1
:10384000882309F437CFC60CD71C8A859B85AC85A5
:10385000BD85860D971DA11DB11D8A879B87AC87ED
:10386000BD87A618B7084ACFDF91CF911F910F915E
:10387000FF90EF90DF90CF90BF90AF909F908F9090
:103880007F906F905F904F903F902F9008953FB73B
:10389000F89480914F0B9091500BA091510BB091E7
:1038A000520B26B5A89B05C02F3F19F00196A11D0C
:1038B000B11D3FBFBA2FA92F982F8827820F911DC6
:1038C000A11DB11DBC01CD0142E0660F771F881F0D
:1038D000991F4A95D1F70895CF92DF92EF92FF9208
:1038E0000F931F93CF93DF936C017A018B01C0E09C
:1038F000D0E0CE15DF0589F0D8016D918D01D6019C
:10390000ED91FC910190F081E02DC6011995892B74
:1039100011F47E0102C02196ECCFC701DF91CF9157
:103920001F910F91FF90EF90DF90CF9008950F932C
:103930001F93CF93DF93EC0188819981009729F041
:103940002A813B812617370788F48B016F5F7F4FF1
:103950000E943D2E009761F0998388831B830A8320
:103960002C813D81232B11F4FC01108281E001C0E8
:1039700080E0DF91CF911F910F910895EF92FF9218
:103980000F931F93CF93DF93FC0124813581611541
:10399000710511F480E019C041155105A9F07B01B2
:1039A000EC018A01020F131FB8010E94971C8823A3
:1039B00089F3288139818C819D81B701820F931F02
:1039C0000E944C2F1D830C8381E0DF91CF911F91CA
:1039D0000F91FF90EF900895CF93DF93EC018881D2
:1039E0009981009711F00E94A52D198218821D82DD
:1039F0001C821B821A82DF91CF910895EF92FF9271
:103A00000F931F93CF93DF93EC017B018A01BA01DF
:103A10000E94971C811104C0CE010E94EC1C07C0BB
:103A20001D830C83B701888199810E944C2FCE01A0
:103A3000DF91CF911F910F91FF90EF90089590E04B
:103A4000FC013197E231F10508F04EC08827EE58AD
:103A5000FF4F8F4F0C94082D809180008F7703C00B
:103A6000809180008F7D80938000089580918000F8
:103A7000877FF9CF84B58F7702C084B58F7D84BDF1
:103A800008958091B0008F7703C08091B0008F7D42
:103A90008093B0000895809190008F7707C0809147
:103AA00090008F7D03C080919000877F809390006D
:103AB00008958091A0008F7707C08091A0008F7D2E
:103AC00003C08091A000877F8093A000089580911B
:103AD00020018F7707C0809120018F7D03C08091E6
:103AE0002001877F809320010895CF93DF9390E09A
:103AF000FC01E25DFD4F2491FC01E851FE4F8491F1
:103B0000882361F190E0880F991FFC01E653FD4F77
:103B1000C591D491FC01EC54FE4FA591B491611173
:103B200009C09FB7F8948881209582238883EC91FF
:103B30002E230BC0623061F49FB7F8943881822F36
:103B4000809583238883EC912E2B2C939FBF06C0F6
:103B50008FB7F894E8812E2B28838FBFDF91CF9108
:103B600008958F929F92AF92BF92CF92DF92EF9281
:103B7000FF926B017C010E94471C4B015C01C11448
:103B8000D104E104F104F1F00E94471CDC01CB01F7
:103B900088199909AA09BB09883E9340A105B10576
:103BA00070F321E0C21AD108E108F10888EE880E0E
:103BB00083E0981EA11CB11CC114D104E104F104DE
:103BC00019F7DDCFFF90EF90DF90CF90BF90AF90CF
:103BD0009F908F9008952FB7F89460914B0B709140
:103BE0004C0B80914D0B90914E0B2FBF08951F925F
:103BF0000F920FB60F9211242F933F938F939F93A1
:103C0000AF93BF9380914B0B90914C0BA0914D0BB8
:103C1000B0914E0B30914A0B23E0230F2D3720F447
:103C20000196A11DB11D05C026E8230F0296A11D16
:103C3000B11D20934A0B80934B0B90934C0BA09398
:103C40004D0BB0934E0B80914F0B9091500BA09168
:103C5000510BB091520B0196A11DB11D80934F0BDA
:103C60009093500BA093510BB093520BBF91AF9117
:103C70009F918F913F912F910F900FBE0F901F90AA
:103C80001895CF93DF93EC016115710561F0FB018D
:103C900001900020E9F73197AF01461B570B0E94B6
:103CA000BE1C811103C0CE010E94EC1CCE01DF912D
:103CB000CF910895CF93DF93EC01FB0144815581AF
:103CC000608171810E94BE1C811103C0CE010E94DF
:103CD000EC1CCE01DF91CF910895CF93DF93EC01DF
:103CE000FB018617970761F060817181611571058D
:103CF00029F0448155810E94FE1C02C00E94EC1CE8
:103D0000CE01DF91CF910895FC01808191810C94C7
:103D1000A52DEF92FF920F931F93CF93DF93CDB713
:103D2000DEB7A1970FB6F894DEBF0FBECDBF8C01F2
:103D3000CB01BA01F801118210821382128215821E
:103D4000148230E0AE014F5F5F4F7A010E944E2C2B
:103D5000F70101900020E9F73197AF014E195F0993
:103D6000B701C8010E94FE1CA1960FB6F894DEBFF1
:103D70000FBECDBFDF91CF911F910F91FF90EF90BC
:103D80000895EF92FF920F931F93CF93DF93CDB7D8
:103D9000DEB762970FB6F894DEBF0FBECDBF8C01C1
:103DA000CB01F801118210821382128215821482D3
:103DB00050E09E012F5F3F4F7901B9010E94382CDE
:103DC000F70101900020E9F73197AF014E195F0923
:103DD000B701C8010E94FE1C62960FB6F894DEBFC0
:103DE0000FBECDBFDF91CF911F910F91FF90EF904C
:103DF0000895FC01118210821382128215821482AE
:103E00000C946D1EFC0111821082138212821582A5
:103E100014826115710551F0FB0101900020E9F752
:103E20003197AF01461B570B0C94FE1C0895DC0123
:103E3000ED91FC91DB0114964D915C9115976D917C
:103E40007C910280F381E02D19946115710579F060
:103E5000FB0101900020E9F73197AF01461B570B9A
:103E6000DC01ED91FC910280F381E02D199480E05A
:103E700090E008950F931F93CF93DF93EC010E947E
:103E8000171F8C016BE075E0CE010E94251F800F8B
:103E9000911FDF91CF911F910F9108950C94251FD1
:103EA000CF93DF93CDB7DEB7CF56D1090FB6F894D5
:103EB000DEBF0FBECDBF789484B5826084BD84B56B
:103EC000816084BD85B5826085BD85B5816085BD15
:103ED00080916E00816080936E00109281008091CD
:103EE0008100826080938100809181008160809355
:103EF0008100809180008160809380008091B1007A
:103F000084608093B1008091B00081608093B000A4
:103F100080919100826080939100809191008160F6
:103F200080939100809190008160809390008091B7
:103F3000A10082608093A1008091A10081608093A4
:103F4000A1008091A00081608093A0008091210158
:103F50008260809321018091210181608093210101
:103F60008091200181608093200180917A0084609B
:103F700080937A0080917A00826080937A008091A9
:103F80007A00816080937A0080917A0080688093C3
:103F90007A001092C1006DE075E0CE018B599F4F01
:103FA0000E94021F82E090E0A0E0B0E08093100544
:103FB00090931105A0931205B09313058CE39FE035
:103FC00090930F0580930E05809170008E7F8093F3
:103FD00070008091B0008C7F8093B0008091B10020
:103FE000877F8093B1008091B6008F7D8093B6006B
:103FF000809170008D7F809370008091B10084600B
:104000008093B1008091B1008C7F8093B10086E0F5
:1040100090E0909315058093140510921705109267
:1040200018051092190510921A0510921605809124
:104030001405909115058093B20080917000816005
:10404000809370000E94EB1D6093220570932305FE
:10405000809324059093250560931E0570931F059A
:10406000809320059093210580917B008860809348
:104070007B0086E480937C0080917A00806480934A
:104080007A0080917A0086FDFCCF60917800809163
:10409000790070E0782B072E000C880B990B6115C6
:1040A00071058105910511F00E942F2C62E08FE2CD
:1040B0000E94751D62E080E30E94751D8FE20E94E0
:1040C000A10621E0892B09F420E0209300020E9440
:1040D000FA0688E08093B90860E08EEA98E00E94D2
:1040E0005A1016E161E0812F0E94751D1F5F1E327C
:1040F000C9F712E061E0812F0E94751D1F5F1E301D
:10410000C9F78EE280937B07E091A007F091A107A9
:1041100082E08083E0919C07F0919D071082E091FE
:104120009E07F0919F078FEC80831092A807E09183
:10413000A407F091A50786E08083E091A207F091A3
:10414000A307808180618083E091A207F091A3079B
:10415000808188608083E091A207F091A30780812D
:1041600080688083E091A207F091A30780818F7D12
:1041700080831092550810925308109250081092A4
:104180004F0885E380934E080E94EB1D8B0161E090
:1041900080914E080E94751D61E080914E080E943A
:1041A000CA06FFB6F89480912805811127C0EDE179
:1041B000F2E08491E3E6F2E09491E82FF0E0EE0F74
:1041C000FF1FE653FD4FA591B491EC91E92321F433
:1041D00061E085E30E94CA0661E085E30E94751DE7
:1041E0008CB580618CBD8CB580648CBD61E084E34E
:1041F0000E94751D61E083E30E94751D8091280572
:104200008F5F80932805FFBE82E580932D08109272
:104210002E0880912D0890912E080E94DE0B2AE036
:10422000F22E8FEF0E949F0BFA94F110FACF8AE4DE
:1042300098E00E94E10B20E030E0A90160E08AE410
:1042400098E00E94F70BF82E8093540831E0831712
:1042500049F00E94EB1D601B710B613D774058F3E4
:1042600081E056C02AEA31E040E050E068E08AE4AC
:1042700098E00E94F70B82FF03C0F092550810C02F
:1042800094E0F92E0E94A60B80935408FA94F11042
:10429000F9CF8A3A11F082E03BC082E08093550862
:1042A00080915508823021F0C12CD12C760105C0B7
:1042B000C12CD12CE12C80E4F82E20E030E0A901C3
:1042C00067E38AE498E00E94F70BA701960169E290
:1042D0008AE498E00E94F70B80935408882349F001
:1042E0000E94EB1D601B710B613D774030F388E04D
:1042F0000FC080915508823001F520E030E0A9011F
:104300006AE38AE498E00E94F70B882341F086E094
:1043100080934F088AE498E00E94940B9EC00E940C
:10432000A60B807C803C19F483E0809355080E94A2
:10433000A60B0E94A60B0E94A60B8AE498E00E949E
:10434000940B80E580932D0810922E0881E00E9446
:104350004004882329F080917908882341F07DC0AA
:1043600080E00E944004882309F477C0F4CF809154
:104370006D08803109F582E08093790810928B08EE
:1043800010928C0810928D0810928E0880916E0801
:1043900090916F08A0E0B0E015E0880F991FAA1F68
:1043A000BB1F1A95D1F78093870890938808A09334
:1043B0008908B0938A081EC0803209F04EC083E09D
:1043C000809379084091700850917108609172084B
:1043D0007091730840938B0850938C0860938D08FC
:1043E00070938E0827E838E086E598E00E9464180C
:1043F000882399F186E598E09093900880938F0840
:1044000081E08093780810927A0810927B081092CD
:104410007C0810927D0810927E0810927F081092FE
:1044200080081092810810928208109283081092DE
:1044300084081092850810928608EFE34E2EE2E47D
:104440005E2EEFE06E2E712CFAE6AF2EF2E0BF2E5C
:104450007E015BE3E50EF11CB7C06FE373E0CE01B4
:1044600001960E94021F6FE373E0CE014E960E94F8
:10447000021FBE016F5F7F4FCE014E960E94141542
:10448000CE014E960E94841ECE0101960E94841E8B
:1044900066C121E0AE01485A5F4FB801C4010E94D5
:1044A000CF09282E98E00437190709F0D5C08823D2
:1044B00009F4D7C08E01025E1F4F902F812F840117
:1044C000892E982EAC964FADAC97532DF601E40F84
:1044D000F51F80818F3211F44F5F5F4FDE01A85AC4
:1044E000BF4F80E090E0F601E40FF51F20812F32EE
:1044F00049F0222339F001964F5F5F4F2D938C30A6
:10450000910589F7E8E5F0E0EC0FFD1FE80FF91FD2
:104510001082F601E40FF51F80818F3211F44F5F96
:104520005F4FAC964FAFAC97352EF601E40FF51FF9
:1045300020801C821B82BA82A9821E8221E0AE01E9
:10454000485A5F4FB801CE0101960E94CF098823D7
:1045500009F47AC0CE0101960E94C008211099CFBB
:1045600028E00437120719F0C8010E94C008BE01F4
:104570006B597F4FCE0101960E94F91E6CE473E0E7
:10458000C7010E94021FBE016B597F4FC7010E94E5
:104590005A1E62E573E00E94411EBC01CE014E9698
:1045A0000E94F91EBE016F5F7F4FCE014E960E94A2
:1045B0001415CE014E960E94841EC7010E94841ECF
:1045C000CE0101960E94841E0E942B2CA301920111
:1045D0000E94A52CAB01BC0120E1CE014E960E94A9
:1045E000891EBE01625E7F4FCE0101960E94F91EB8
:1045F00067E473E0CE0101960E94411EBC01CE012A
:104600008B599F4F0E946D1ECE0101960E94841E01
:10461000CE014E960E94841EA796CEACDFACA79723
:104620001EAE1DAEBCAEABAE21961FAE219719A239
:1046300018A2BF8EAE8E1BA2AC961FAEAC97312CCB
:10464000470104E718E03ECF88E00437180749F037
:10465000C8010E94C00805C0C8010E94C0082110FE
:104660002CCF65E673E0CE014E960E94021FBE017C
:104670006B597F4FCE014E960E945A1EBC01CE014F
:1046800001960E94F91E6CE473E0CE01885A9F4F98
:104690000E94021FBE016B597F4FCE01885A9F4F67
:1046A0000E945A1E69E673E00E94411EBC01C701C8
:1046B0000E94F91EBE016F5F7F4FC7010E94141553
:1046C000C7010E94841ECE01885A9F4F0E94841EFB
:1046D000CE0101960E94841ECE014E960E94841E39
:1046E000A7966EAD7FADA79743E1CE0101960E94DC
:1046F00014038B819C8190939608809395088D81FB
:104700009E81AF81B8858093970890939808A09375
:104710009908B0939A0889859A85AB85BC85809362
:104720009B0890939C08A0939D08B0939E088DE0F1
:10473000FE013D96AFE9B8E001900D928A95E1F750
:104740008A8D9B8D9093AD088093AC0881E0809317
:104750001B0568EE73E080E090E00E94B11DCE0181
:104760008B599F4F0E94841E01E010E078EE872E47
:1047700073E0972EA12CB12C8091260590912705EE
:104780008230910509F4F4C23CF4009709F460C04A
:10479000019709F49DC109C08430910509F4DCC575
:1047A0000CF41AC5099709F4BAC362E0F62E61E069
:1047B00082E00E945D020E94EB1DA50194010E940F
:1047C000D72CCA01B9014AE00E948D0261E08F2D09
:1047D0000E94CA0668EE73E080E090E00E94B11D7E
:1047E00060E08F2D0E94CA0668EE73E080E090E0E2
:1047F0000E94B11DF3943EE0F312D9CF56E1F52E9D
:1048000061E082E00E945D020E94EB1DA50194011F
:104810000E94D72CCA01B9014AE00E948D0261E0D2
:104820008F2D0E94CA0668EE73E080E090E00E943F
:10483000B11D60E08F2D0E94CA0668EE73E080E033
:1048400090E00E94B11DF3944EE2F412D9CF0AC653
:104850008FEF9FEF90932705809326050E94FA061D
:1048600085E893E00E9414110E942B2C24E833E089
:1048700040E050E00E94A52C9B01AC012C593F4F19
:104880004F4F5F4FAF962CAF3DAF4EAF5FAFAF977F
:10489000C12CD12C7601AD968EAD9FADAD978C0D10
:1048A0009D1D181619060CF043C00E94EB1D609365
:1048B000220570932305809324059093250592E0AB
:1048C00061E0892FE0969FAFE0970E94CA06E096CC
:1048D0009FADE0979F5F9E3099F7AF964CAC5DAC73
:1048E0006EAC7FACAF974C0C5D1C6E1C7F1CC30183
:1048F000B2010E94B11D92E060E0892FE0969FAF67
:10490000E0970E94CA06E0969FADE0979F5F9E30B9
:1049100099F7C301B2010E94B11D8091E808882374
:1049200009F4A3C58091CF08882309F49EC50DC65C
:104930000E942B048FE194E00E9414110E94EB1D51
:104940006093220570932305809324059093250599
:104950008091E808882309F45BC060E080E00E9451
:104960005D026EE973E08EEA98E00E944E1F40916E
:104970001E0550911F0560912005709121052AE0C8
:10498000CE014E960E94891E40912205509123052A
:1049900060912405709125052AE0CE01CB960E94F6
:1049A000891E6BE274E0CE01885A9F4F0E94021F5D
:1049B000BE01655C7F4FCE01885A9F4F0E945A1EF0
:1049C00062ED73E00E94411EBE01625E7F4F0E9455
:1049D0005A1EBC01CE0101960E94F91ECE0101961D
:1049E0000E949C13CE0101960E94841ECE01885A1B
:1049F0009F4F0E94841ECE01CB960E94841ECE0142
:104A00004E960E94841E109327050093260522C50A
:104A10008091CF08882309F491CF60E080E00E9464
:104A20005D026AE374E08EEA98E00E944E1F4091B6
:104A30001E0550911F0560912005709121052AE007
:104A4000CE014E960E94891E409122055091230569
:104A500060912405709125052AE0CE01CB960E9435
:104A6000891E67E474E0CE01885A9F4F0E94021F9E
:104A7000BE01655C7F4FCE01885A9F4F0E945A1E2F
:104A800062ED73E00E94411EBE01625E7F4F0E9494
:104A90005A1EBC01CE0101960E94F91ECE0101965C
:104AA0000E949C13CE0101960E94841ECE01885A5A
:104AB0009F4F0E94841ECE01CB960E94841ECE0181
:104AC0004E960E94841E1093270500932605B9C4B4
:104AD00061E080E00E945D0260912B0570912C05E1
:104AE0004AE0CE0101960E94C11E60912905709195
:104AF0002A054AE0CE014E960E94C11E64E574E08C
:104B0000CE01CB960E94021FBE01625E7F4FCE0196
:104B1000CB960E945A1E69E574E00E94411EBE01B8
:104B20006F5F7F4F0E945A1E69E075E00E94411E30
:104B3000BC018EEA98E00E94171FCE01CB960E941E
:104B4000841ECE014E960E94841ECE0101960E94C4
:104B5000841E0E94EB1D60932205709323058093B1
:104B600024059093250520912D05C0901E05D09019
:104B70001F05E0902005F0902105DC01CB018C1988
:104B80009D09AE09BF0921110DC0883B9B40A105BD
:104B9000B10508F455C084E090E090932705809318
:104BA000260560C4843F51E09507A105B10530F1A9
:104BB0008091050290910602029729F52091070243
:104BC00030910802220F331F4091030250910402DA
:104BD000C901841B950B2417350719F08B309105FB
:104BE00091F440911C0550911D05209101023091D6
:104BF000020264E070E0621B730B32C48C3291409D
:104C0000A105B105E8F0609105027091060280915E
:104C100007029091080240911C0550911D05660FF6
:104C2000771F2091010230910202621B730B880FE3
:104C3000991F2091030230910402821B930B10C430
:104C400010931D0500931C058091D908882361F0FD
:104C5000609105027091060280910702909108020E
:104C600041E050E001960FC08091DE08882389F072
:104C700060910502709106028091070290910802EE
:104C800041E050E001970E94BE1381E080932D0522
:104C9000E9C38091E308882339F06091050270919F
:104CA00006026F5F7F4F0AC08091D408882349F0C5
:104CB00060910502709106026150710941E050E077
:104CC00052C08091C008882381F0609105027091E4
:104CD0000602809107029091080241E050E001969F
:104CE0000E94BE1381E080932D058091C508882322
:104CF000A1F020911C0530911D0560910502709175
:104D000006028091070290910802A901821B930B71
:104D10000E94BE1381E080932D058091CA088823EC
:104D200099F040911C0550911D056091050270910C
:104D30000602640F751F80910702909108020E947D
:104D4000BE1381E080932D058091BB08882309F470
:104D500089C340911C0550911D0560910502709119
:104D60000602641B750B80910702909108028BCF9D
:104D70000E94EB1D60932205709323058093240508
:104D80009093250540911E0550911F0560912005C7
:104D9000709121052AE0CE014E960E94891E409115
:104DA00022055091230560912405709125052AE084
:104DB000CE01CB960E94891E61E674E0CE01885A2E
:104DC0009F4F0E94021FBE01655C7F4FCE01885A33
:104DD0009F4F0E945A1E62ED73E00E94411EBE0169
:104DE000625E7F4F0E945A1EBC01CE0101960E9456
:104DF000F91ECE0101960E949C13CE0101960E94DD
:104E0000841ECE01885A9F4F0E94841ECE01CB96ED
:104E10000E94841ECE014E960E94841E809122051F
:104E200090912305A0912405B091250580931E053E
:104E300090931F05A0932005B09321050E94FF10B9
:104E400010922D05109327050093260540911C050F
:104E500050911D05209105023091060280910702B4
:104E6000909108024130510569F5232B89F49C018A
:104E7000215031092330310528F44FEF5FEF61E015
:104E800070E010C004974FEF5FEF61E070E012C078
:104E90009C01215031092330310538F44FEF5FEF89
:104EA00063E070E082E090E0DBC204974FEF5FEFD9
:104EB00063E070E0039718F484E090E0D1C288E0EA
:104EC00090E0CEC2232B89F49C0128503109233075
:104ED000310528F441E050E061E070E010C0059732
:104EE00041E050E061E070E012C09C0128503109BF
:104EF0002330310538F441E050E064E070E089E0AF
:104F000090E0AEC2059741E050E064E070E00397A6
:104F100018F487E090E0A4C283E090E0A1C20E9470
:104F2000EB1D6093220570932305809324059093D5
:104F300025050E942B048FE194E00E941411109229
:104F40002D05109327050093260560E080E00E9460
:104F50005D02809107029091080240911E055091D8
:104F60001F056091200570912105892B09F091C0E2
:104F700080912B0590912C05019690932C058093A0
:104F80002B052AE0CE014E960E94891E40912205F3
:104F90005091230560912405709125052AE0CE01EA
:104FA000CB960E94891E6EE674E0CE01885A9F4F10
:104FB0000E94021FBE01655C7F4FCE01885A9F4F41
:104FC0000E945A1E62ED73E00E94411EBE01625EA5
:104FD0007F4F0E945A1EBC01CE0101960E94F91E0D
:104FE000CE0101960E949C13CE0101960E94841E60
:104FF000CE01885A9F4F0E94841ECE01CB960E94FC
:10500000841ECE014E960E94841E60912B057091E5
:105010002C054AE0CE0101960E94C11E609129052F
:1050200070912A054AE0CE014E960E94C11E6DE79E
:1050300074E0CE01CB960E94021FBE01625E7F4FDC
:10504000CE01CB960E945A1E69E075E00E94411E77
:10505000BE016F5F7F4F0E945A1E68E075E00E949C
:10506000411EBC018EEA98E00E94171FCE01CB962C
:105070000E94841ECE014E960E94841ECE0101968F
:105080000E94841E41E050E062E070E085E090E024
:1050900090C08091290590912A05019690932A0548
:1050A000809329052AE0CE014E960E94891E4091E8
:1050B00022055091230560912405709125052AE071
:1050C000CE01CB960E94891E68E874E0CE01885A12
:1050D0009F4F0E94021FBE01655C7F4FCE01885A20
:1050E0009F4F0E945A1E62ED73E00E94411EBE0156
:1050F000625E7F4F0E945A1EBC01CE0101960E9443
:10510000F91ECE0101960E949C13CE0101960E94C9
:10511000841ECE01885A9F4F0E94841ECE01CB96DA
:105120000E94841ECE014E960E94841E60912B0523
:1051300070912C054AE0CE0101960E94C11E60913B
:10514000290570912A054AE0CE014E960E94C11EA3
:1051500069E974E0CE01CB960E94021FBE01625E37
:105160007F4FCE01CB960E945A1E69E075E00E94E7
:10517000411EBE016F5F7F4F0E945A1E68E075E0BE
:105180000E94411EBC018EEA98E00E94171FCE01CA
:10519000CB960E94841ECE014E960E94841ECE01A4
:1051A00001960E94841E4FEF5FEF62E070E086E0A0
:1051B00090E00E94BE138091220590912305A0915A
:1051C0002405B091250580931E0590931F05A0939B
:1051D0002005B093210546C10E94EB1D6093220576
:1051E00070932305809324059093250540911E0517
:1051F00050911F0560912005709121052AE0CE0194
:105200004E960E94891E409122055091230560917F
:105210002405709125052AE0CE01CB960E94891EB7
:1052200064EA74E0CE01885A9F4F0E94021FBE01BB
:10523000655C7F4FCE01885A9F4F0E945A1E62EDD7
:1052400073E00E94411EBE01625E7F4F0E945A1EA3
:10525000BC01CE0101960E94F91ECE0101960E946A
:105260009C13CE0101960E94841ECE01885A9F4F46
:105270000E94841ECE01CB960E94841ECE014E96C3
:105280000E94841E8091220590912305A0912405FF
:10529000B091250580931E0590931F05A0932005CE
:1052A000B09321050E94FF1010922D051093270541
:1052B0000093260520911C0530911D058091070261
:1052C000909108022130310511F58B30910529F4B8
:1052D0004FEF5FEF62E070E03CC0892B09F0C2C085
:1052E00080910502909106029C01235031092230E1
:1052F000310528F44FEF5FEF63E070E00EC00297D6
:1053000008F0B0C04FEF5FEF61E070E006C00097BB
:1053100039F441E050E062E070E081E090E0A0C04C
:105320000B9709F09FC080910502909106029C01A5
:10533000235031092230310528F441E050E063E088
:1053400070E007C0029708F08DC041E050E061E0D6
:1053500070E08AE090E084C00E94EB1D609322051B
:1053600070932305809324059093250540911E0595
:1053700050911F0560912005709121052AE0CE0112
:105380004E960E94891E40912205509123056091FE
:105390002405709125052AE0CE01CB960E94891E36
:1053A0006AEB74E0CE01885A9F4F0E94021FBE0133
:1053B000655C7F4FCE01885A9F4F0E945A1E62ED56
:1053C00073E00E94411EBE01625E7F4F0E945A1E22
:1053D000BC01CE0101960E94F91ECE0101960E94E9
:1053E0009C13CE0101960E94841ECE01885A9F4FC5
:1053F0000E94841ECE01CB960E94841ECE014E9642
:105400000E94841E8091220590912305A09124057D
:10541000B091250580931E0590931F05A09320054C
:10542000B09321050E94FF1010922D0510932705BF
:105430000093260580911C0590911D0581309105F2
:1054400039F44FEF5FEF62E070E086E090E008C073
:10545000019641F441E050E062E070E085E090E0C8
:105460000E94BE130E94211687C98091CF0888230D
:1054700089F160E080E00E945D026DE873E08EEAF1
:1054800098E00E944E1F61E080E00E945D026EE99C
:1054900073E08EEA98E00E944E1F40911E055091E5
:1054A0001F0560912005709121052AE0CE014E96DE
:1054B0000E94891E40912205509123056091240588
:1054C000709125052AE0CE01CB960E94891E6FEAD5
:1054D00073E069CA8091E80834E6C31AD108E1088C
:1054E000F108882309F4D7C960E080E00E945D02DA
:1054F0006AED73E08EEA98E00E944E1F61E080E062
:105500000E945D026BEE73E08EEA98E00E944E1FEF
:1055100040911E0550911F05609120057091210555
:105520002AE0CE014E960E94891E4091220550919C
:10553000230560912405709125052AE0CE01CB96C4
:105540000E94891E6CEF73E08ECA60E080E00E94CA
:105550005D0266EC74E08EEA98E00E944E1F409176
:105560001E0550911F0560912005709121052AE0CC
:10557000CE014E960E94891E40912205509123052E
:1055800060912405709125052AE0CE01CB960E94FA
:10559000891E67ED74E0CE01885A9F4F0E94021F5A
:1055A000BE01655C7F4FCE01885A9F4F0E945A1EF4
:1055B00062ED73E00E94411EBE01625E7F4F0E9459
:1055C0005A1EBC01CE0101960E94F91ECE01019621
:1055D0000E949C13CE0101960E94841ECE01885A1F
:1055E0009F4F0E94841ECE01CB960E94841ECE0146
:1055F0004E960E94841E36CFCF92DF92EF92FF929A
:105600000F931F93CF93DF93E4E8F7E013821282A6
:1056100088EEC82E83E0D82EE12CF12CC482D582EE
:10562000E682F78286E492E091838083E0E9F7E006
:1056300013821282C482D582E682F78288E592E0E4
:105640009183808385EC90E09587848784EC90E05B
:105650009787868780EC90E0918B808B81EC90E03F
:10566000938B828B82EC90E0958B848B86EC90E020
:10567000978B868B118E128E138E148EEDE2F8E0CE
:1056800080E580831182EFE2F8E013821282C48207
:10569000D582E682F78206E712E011830083128E3C
:1056A000118E1486EAE4F8E01582168211861386BC
:1056B00082E090E0A0E0B0E084879587A687B78776
:1056C00013A215A614A68AE692E093A782A717A6AE
:1056D000E7EEF8E086E38483CFE0C38362E00E94D4
:1056E000751DE2EEF8E087E38483C38362E00E94E5
:1056F000751DEDEDF8E088E38483C38362E00E94CA
:10570000751DE8EDF8E089E38483C38362E00E94BD
:10571000751DE3EDF8E08AE38483C38362E00E94B1
:10572000751DEEECF8E08BE38483C38362E00E9496
:10573000751DE9ECF8E08CE38483C38362E00E948A
:10574000751DE4ECF8E08DE38483C38362E00E947E
:10575000751DEFEBF8E08EE38483C38362E00E9463
:10576000751DEAEBF8E0DFE3D483C38362E08FE3E7
:105770000E94751DEEEAF8E0138212828AE992E037
:1057800091838083D48380E1818782E0828713863E
:10579000E3E9F8E013821282C482D582E682F782BE
:1057A00011830083128E118E1486DF91CF911F9189
:1057B0000F91FF90EF90DF90CF9008958F929F927E
:1057C000AF92BF92CF92DF92EF92FF92CF93DF938F
:1057D000EC01688179818A819B8161157105810560
:1057E000910521F464E279ED8BE597E02DE133EF4B
:1057F00041E050E00E94A52C49015A019B01AC01F7
:10580000A7EAB1E40E94C42C6B017C01ACEEB4EFBA
:10581000A50194010E94D22CDC01CB018C0D9D1DB1
:10582000AE1DBF1DB7FF03C00197A109B048888313
:105830009983AA83BB83BC01CD019F77DF91CF9170
:10584000FF90EF90DF90CF90BF90AF909F908F90A0
:1058500008950C94DE2B80E192E00C94DE2B609393
:105860001002709311028093120290931302089514
:105870004532510520F4423010F00C94432CFB01CA
:105880001082CB010895BB274A3031F4992322F4CA
:10589000BDE2909581959F4F0C947C2C253231056B
:1058A00020F4223010F00C94592CFA011082CA0115
:1058B0000895BB27FA01A62F62177105810591058E
:1058C000330B30FB66F0AA27660F771F881F991FDE
:1058D000AA1FA21710F0A21B63953850A9F7A05D6C
:1058E000AA3308F0A95DA19336F7B111B1931082E4
:1058F000CA010C94952CBB27FB015527AA27880FBA
:10590000991FAA1FA41710F0A41B83955051B9F733
:10591000A05DAA3308F0A95DA193009779F7B111B2
:10592000B1931192CB010C94952CDC01FC01672FF3
:1059300071917723E1F7329704C07C916D93708366
:105940006291AE17BF07C8F30895052E97FB1EF4AA
:1059500000940E94BC2C57FD07D00E94D72C07FC56
:1059600003D04EF40C94BC2C509540953095219565
:105970003F4F4F4F5F4F089590958095709561957B
:105980007F4F8F4F9F4F08950E94F92CA59F900D38
:10599000B49F900DA49F800D911D11240895B7FF11
:1059A0000C94C42C0E94C42C821B930B0895A1E27A
:1059B0001A2EAA1BBB1BFD010DC0AA1FBB1FEE1F89
:1059C000FF1FA217B307E407F50720F0A21BB30BD4
:1059D000E40BF50B661F771F881F991F1A9469F750
:1059E00060957095809590959B01AC01BD01CF01AC
:1059F0000895A29FB001B39FC001A39F700D811DA8
:105A00001124911DB29F700D811D1124911D0895C7
:105A1000EE0FFF1F881F8BBF0790F691E02D1994A2
:105A2000CF93DF938230910510F482E090E0E09113
:105A3000550BF091560B20E030E0C0E0D0E03097FD
:105A400011F14081518148175907C0F04817590793
:105A500061F482819381209719F09B838A832BC004
:105A60009093560B8093550B26C02115310519F0E4
:105A70004217530718F49A01BE01DF01EF010280BB
:105A8000F381E02DDCCF2115310509F1281B390BFD
:105A90002430310590F412968D919C9113976115E5
:105AA000710521F0FB019383828304C09093560B10
:105AB0008093550BFD01329644C0FD01E20FF31FA8
:105AC00081939193225031092D933C933AC02091B8
:105AD000530B3091540B232B41F42091160230913B
