:100000000C9473010C94A4010C94A4010C94A4010D
:100010000C94A4010C94A4010C94A4010C94A401CC
:100020000C94A4010C94A4010C94A4010C94A401BC
:100030000C94A4010C94A4010C94A4010C94F30856
:100040000C94D4070C94A4010C94A4010C94A40166
:100050000C946D070C94A4010C94A4010C94E31D62
:100060000C94A4010C946A150C9440150C94A401F2
:100070000C94A4010C94A4010C94A4010C94D40736
:100080000C94A4010C94A4010C94A4010C946D078D
:100090000C94A4010C94A4010C94A4010C941412CB
:1000A0000C94A4010C94D4070C94A4010C94A40106
:1000B0000C94A4010C946D070C94D4070C94A40127
:1000C0000C94A4010C94A4010C946D070C94A4014D
:1000D0000C94A4010C94A4010C94A4010C94A4010C
:1000E0000C94A401261D291D181D1C1D221D601D18
:1000F0002D1D311D371D3B1D3F1D451D491D4D1D2E
:10010000601D531D571D5B1D0C94581C0C943E150F
:100110000C942D1D0C946B020C94601D0C94291DE5
:100120000C944D1D0C94C7010C947D0E0C94A601EB
:100130000C94E3140C94491D0C94AD020C94451DD1
:100140000C941C1D0C9457140C94DD010C94D30ECC
:100150000C949C140C94AF2A0C9437020C94DE017E
:100160000C94371D0C94311D0C9418020C9434140B
:100170000C94571D0C945B1D0C94221D0C94A30E23
:100180000C943F1D0C943B1D0C949B0E0C9443143B
:100190000C94151A0C947E0E0C94531D0C94410271
:1001A0000C94261D0C948C0E0C9465140C94181D44
:1001B0000C94080A7C3C3E5E2B3D3F2F5B5D3B2C44
:1001C0002A225C0000002200250028002B002E00BF
:1001D0003100340002010000050108010B0100009C
:1001E00020002300260029002C002F0032000001EF
:1001F00000000301060109010505050507050808BA
:100200000808020202020A0A0808040404040101A0
:1002100001010101010103030303030303030407B5
:1002200007070C0C0C0C0C0C0C0C0202020206064C
:100230000606060606060B0B0B0B0B0B0B0B01023F
:1002400010202008081020401020408002010201E8
:1002500008040201010204081020408080402010A0
:1002600008040201800402018040201008040201F9
:100270000804020101020408102040800102040861
:100280001020408000000A0B02090C0D0E08070325
:100290000401000000000000000000000000000059
:1002A000000000000000000000000000000000004E
:1002B000121110000000000000000000000000000B
:1002C00000000000000000000000000021002400E9
:1002D00027002A002D003000330001010000040136
:1002E00007010A01AF2A11241FBECFEFD1E2DEBF02
:1002F000CDBF00E00CBF14E0A0E0B2E0EEE2FEE50E
:1003000000E00BBF02C007900D92A23DB107D9F7E4
:100310002BE0A2EDB4E001C01D92AB31B207E1F7D2
:1003200011E0C3E7D1E000E006C021970109802F6A
:10033000FE010E94BB2CC237D10780E00807A9F755
:100340000E943C1F0C94152F0C940000DC01599660
:10035000ED91FC915A973097B9F083899489A589DA
:10036000B6894285538564857585841B950BA60BDC
:10037000B70B811520E89207A105B10538F08FEF82
:100380009FE7A0E0B0E0089580E090E00895CF936B
:10039000DF931F92CDB7DEB76983DC01ED91FC914D
:1003A0000280F381E02D41E050E0BE016F5F7F4F9E
:1003B00019950F90DF91CF910895089580E090E016
:1003C0000895823081F01CF4813031F020C08330F8
:1003D00089F08430B1F01BC061307105C9F06F3F06
:1003E0007F4FA9F417C061307105B1F06F3F7F4FA7
:1003F00071F414C06130710599F06F3F7F4F39F48B
:1004000011C06130710581F06F3F7F4F79F0089521
:1004100083E0089582E0089586E0089585E00895D8
:1004200089E0089588E008958CE008958BE00895B0
:10043000FC01818D928D009711F00C94B1170895F5
:10044000CF93DF931F92CDB7DEB741E050E0BE01FE
:100450006F5F7F4F0E94261A019719F4898190E0FF
:1004600002C08FEF9FEF0F90DF91CF910895FC01B5
:10047000818D928D009711F00C9420028FEF9FEFE9
:1004800008950F931F93CF93DF93FC01818D928D7D
:100490000097B9F0EF010E9420028C010F3F8FEF0F
:1004A000180791F0898D9A8DFC01428553856485EA
:1004B000758541505109610971090E94EF17C80102
:1004C00005C080E090E002C08FEF9FEFDF91CF91F9
:1004D0001F910F910895CF93DF93EC01898D9A8D31
:1004E000009739F481E090E09B838A8380E090E07C
:1004F0000BC0FC01138212820E948518E98DFA8DCF
:1005000022813381232B71F7DF91CF9108950F93CF
:100510001F93CF93DF93EC01088110E08C810E9440
:1005200046130817190711F01A820FC08A818F5FCE
:100530008A839B81891748F0888191E08927888385
:100540001A82882321F0998302C080E001C081E0F3
:10055000DF91CF911F910F9108958BEB9AE00E944C
:10056000870286EB9AE00E94870281EB9AE00E9464
:1005700087028CEA9AE00E94870287EA9AE00E944A
:10058000870282EA9AE00E9487028DE99AE00E943F
:10059000870288E99AE00E94870283E99AE00E9434
:1005A00087028EE89AE00C948702CF93DF93EC01E8
:1005B0000E94B117882311F01D8281E0DF91CF9155
:1005C00008953F924F925F926F927F928F929F9287
:1005D000AF92BF92CF92DF92EF92FF920F931F9351
:1005E000CF93DF93CDB7DEB72C970FB6F894DEBF6D
:1005F0000FBECDBF5C01DC015B968D909C905C973B
:100600001696CD90DD90ED90FC901997C114D10411
:10061000E104F10439F0BFEFCB1ADB0AEB0AFB0A65
:10062000312C07C0F401C080D180E280F3803324F4
:100630003394F40181859285A385B4859C01AD0135
:100640002F5F3F4F4F4F5F4F29873A874B875C871C
:10065000260137011D821E821F821886F4018185C2
:100660009285A385B4852D813E814F8158852817B9
:1006700039074A075B0708F063C089859A85AB850F
:10068000BC858C159D05AE05BF0550F482E0C82ED3
:10069000D12CE12CF12C92E0492E512C612C712CA3
:1006A0009E012F5F3F4FB701A601C4010E94C416EF
:1006B000882309F445C089819A81AB81BC81892B4B
:1006C0008A2B8B2B41F0260137019FEF491A590ADB
:1006D000690A790A05C0C414D504E604F70491F048
:1006E0002D813E814F8158852F5F3F4F4F4F5F4F88
:1006F0002D833E834F8358873FEFC31AD30AE30A03
:10070000F30AACCF0FEF1FEF2FEF3FE0B301A201D1
:10071000C4010E942416882399F0D50116964D91A4
:100720005D916D917C911997411551056105710598
:1007300049F093018201C4010E942416811102C074
:1007400080E02AC0D50116964D925D926D927C9202
:100750001997332051F0D301C2010196A11DB11D9B
:10076000F40180839183A283B383F5018789908DFF
:10077000A18DB28D892B8A2B8B2B69F4D5015796CD
:100780004D925D926D927C925A9714968C9114972B
:10079000806814968C9381E02C960FB6F894DEBF97
:1007A0000FBECDBFDF91CF911F910F91FF90EF90C2
:1007B000DF90CF90BF90AF909F908F907F906F9081
:1007C0005F904F903F9008954F925F926F927F920B
:1007D0009F92AF92BF92CF92DF92EF92FF920F93D0
:1007E0001F93CF93DF93CDB7DEB72B970FB6F89457
:1007F000DEBF0FBECDBF7C01DC011596AC90A11011
:100800008AC1FE0131966F0190E28BE08E0F9193C9
:100810008E13FDCFDA0130E087E09D91992339F105
:100820009E3219F0E4EBF1E00AC08A3009F474C199
:1008300038E08AE0F2CF3196491709F46DC144914E
:100840004111F9CF831708F467C14FED490F4E35B9
:1008500008F062C141E0430FF601E30FF11D3FE9EB
:10086000390F3A3108F490529083342FD6CF8981D2
:10087000803209F451C1B22E8B01DB015B968D9160
:100880009C915C97F701948F838F16961D921D9211
:100890001D921C921997FB011286138614861586E9
:1008A000712CF80182859385A485B5854389548987
:1008B0006589768984179507A607B70708F061C090
:1008C00025E0B695A795979587952A95D1F7F82FA6
:1008D000FF706F2ED80115968C91823008F41CC1E0
:1008E000C8010E94200297FD17C1F80182859385F7
:1008F000A485B5854F96A11DB11D82879387A487D6
:10090000B587F0E26F9EC0011124BC01695B784F8E
:100910006115710509F400C1DB012C91222319F046
:10092000253EC1F427C071100EC0F701628A4091C4
:100930000C0250910D0260910E0270910F024687D9
:100940005787608B718BFC01E95BF84F80818111C7
:1009500013C015C04BE050E0C6010E94DE2E892B6B
:1009600009F09FCF8B2D8073803309F4D5C04B2DB8
:10097000662DCCC07720C9F27724739492CF772468
:1009800073948B2D8271823109F0C6C07720D1F02B
:10099000D7011E966D917D918D919C91519741E06B
:1009A0000E94DB15882309F4B7C0F7016289F0E2E1
:1009B0006F9FB0011124695B784F6115710509F0D3
:1009C00079C0AAC0D80115968C91823009F4A4C0D0
:1009D000C8010E94E102882309F49EC0D8015B96F9
:1009E000ED91FC915C9716964D905D906D907C908A
:1009F0001997B2E04B1A510861087108058404C0C8
:100A0000440C551C661C771C0A94D2F78685978582
:100A1000A089B189480E591E6A1E7B1E9480E1E0B0
:100A20004E1A510861087108992009F10E94A01519
:100A3000882309F471C0E7E4F7E0119229E0E73474
:100A4000F207D9F7D301C201890D911DA11DB11D76
:100A500080930C0290930D02A0930E02B0930F02AC
:100A60008091090B81608093090B9A94DDCFD801A6
:100A70005B96ED91FC915C9780E092E0A0E0B0E0A5
:100A8000058404C0880F991FAA1FBB1F0A94D2F7C0
:100A9000F8014389548965897689840F951FA61FBB
:100AA000B71F838B948BA58BB68BD70152961C9264
:100AB00067E477E080E2FB0111928A95E9F78BE029
:100AC000F601DB0101900D928A95E1F781E298E24F
:100AD000DB0151969C938E93509720E038E01F964F
:100AE0003C932E931E9753969C938E9352975996B0
:100AF0009C938E93589757963C932E9356970E94AB
:100B0000A015882349F04B2DF7016289C7010E9487
:100B10002B1BA82E01C0A12C8A2D2B960FB6F89462
:100B2000DEBF0FBECDBFDF91CF911F910F91FF9020
:100B3000EF90DF90CF90BF90AF909F907F906F909D
:100B40005F904F9008958FB7F894809101078FBF01
:100B5000089561E0FC0184810E946F138091000779
:100B600081111092000708958EBD00000DB407FE9C
:100B7000FDCF8EB508958FEF0C94B4050F931F939E
:100B8000CF93DF93EB010E94D71D8B010E94BB0521
:100B90008F3F49F00E94D71D601B710B6C177D07BA
:100BA000A8F380E001C081E0DF91CF911F910F9108
:100BB0000895CF93DF93EC018E81882389F08F8194
:100BC00098859C012F5F3F4F38872F83823092405A
:100BD00018F40E94BB05F3CFCE010E94A9051E8226
:100BE000DF91CF9108958CBD9DBD0895CF93DF9384
:100BF000EC0180910007811109C081E0809300071A
:100C00008091010A9091020A0E94F30560E08C81B4
:100C1000DF91CF910C946F13CF92DF92FF920F93DD
:100C20001F93CF93DF9300D01F92CDB7DEB76C0137
:100C3000F62E29833A834B835C830E94D905C60133
:100C40000E94F6056CE271E0C6010E94BE058F2D80
:100C500080640E94B40508E110E05C814B813A8118
:100C60002981DA01C901002E04C0B695A795979590
:100C700087950A94D2F729833A834B835C830E9439
:100C8000B4050850110929813A814B815C81083FE4
:100C90008FEF180731F7FF2029F0E8E0FE1204C0BB
:100CA00087E803C085E901C08FEF0E94B40510E01A
:100CB0000E94BB05F601828787FF04C01F3F11F029
:100CC0001F5FF6CF0F900F900F900F90DF91CF9195
:100CD0001F910F91FF90DF90CF900895AF92BF9238
:100CE000CF92DF92EF92FF920F931F93CF93DF93F8
:100CF000EC016901C801820F931F8130924008F016
:100D000070C08E81882371F088819981AA81BB810E
:100D1000481759076A077B0729F48F819885C816F9
:100D2000D906B0F5488359836A837B838B858330EA
:100D300039F089E0440F551F661F771F8A95D1F758
:100D40009A01AB0161E1CE010E940C06882319F0E3
:100D500083E08D8346C00E94D71D5B010E94BB05C6
:100D60008A878F3F49F40E94D71D6A197B096D322B
:100D70007140A0F38FE003C08E3F31F08DE08D8392
:100D8000CE010E94A9052DC018861F8281E08E83A6
:100D90008F8198858C159D0540F40E94BB058F813D
:100DA0009885019698878F83F3CF6701E00EF11E37
:100DB000CE14DF0431F00E94BB05F60181936F0170
:100DC000F7CF8F819885080F191F18870F838985A2
:100DD000882319F00115124048F0CE010E94D90570
:100DE00005C0CE010E94A90580E001C081E0DF912D
:100DF000CF911F910F91FF90EF90DF90CF90BF9018
:100E0000AF900895EF92FF920F931F93CF93DF93CC
:100E1000EC017901411551056105710511F482E17B
:100E20003CC08B85833039F089E0440F551F661F25
:100E3000771F8A95D1F79A01AB0168E1CE010E9434
:100E40000C06882311F084E028C08EEF0E94B405C0
:100E500087018EEFF81AF80181918F010E94B40585
:100E60000E151F05C1F78FEF0E94B4058FEF0E948A
:100E7000B4050E94BB058A878F71853031F081E10E
:100E80008D83CE010E94A90509C068E572E0CE01FC
:100E90000E94BE05811107C085E18D83CE010E94AD
:100EA000A90580E013C020E030E0A9016DE0CE018B
:100EB0000E940C06811104C00E94BB05882311F01A
:100EC00084E1EBCFCE010E94A90581E0DF91CF91B3
:100ED0001F910F91FF90EF9008951F920F920FB600
:100EE0000F9211240BB60F928F939F93AF93BF93E2
:100EF000CF93DF93EF93FF9380910B0286FD3AC06F
:100F00008091570990E0880F991FFC01EA59FD4F25
:100F1000A081B181FC01E25AFD4FC081D181E091F5
:100F2000FE068091FD069EEFE99FF0011124E80F77
:100F3000F11DEF5FFA4F808190E0998388831196CD
:100F40009C938E938091FD068F5F8093FD06809128
:100F5000FD068E3FD0F01092FD06E091FE06F0E017
:100F6000E75FFD4F81E080839091FE0689278093A3
:100F7000FE060BC09091FF0681E089278093FF0653
:100F80008091FF06882309F4BBCFFF91EF91DF9199
:100F9000CF91BF91AF919F918F910F900BBE0F900A
:100FA0000FBE0F901F9018951F920F920FB60F92C1
:100FB00011240BB60F922F933F934F935F936F9330
:100FC0007F938F939F93AF93BF93EF93FF93E091A2
:100FD000FE0681E0E827F0E0E75FFD4F908199236E
:100FE00009F468C09091FE06892780930005E0917E
:100FF0005709F0E0EE0FFF1FEA58FD4F0190F08116
:10100000E02D80818F7D8083789483E09AE00E9438
:10101000A6012091FE043091FF042817390728F11A
:1010200080910B0283FF07C06CE270E080E090E0EB
:101030000E94750F32C0E0915709F0E0EE0FFF1FDC
:10104000EA58FD4F0190F081E02D80818E7D8083F4
:10105000E0911C0AF0911D0A309721F085818111E1
:101060000E94BD1010924E0925C0609100058EEFC0
:10107000689FB00111246F5F7A4F80911C0A909194
:101080001D0A009721F04EEF50E00E94261AE091D1
:101090000005F0E0E75FFD4F1082E0915709F0E0B6
:1010A000EE0FFF1FEA58FD4F0190F081E02D808187
:1010B00080628083FF91EF91BF91AF919F918F915B
:1010C0007F916F915F914F913F912F910F900BBE48
:1010D0000F900FBE0F901F901895FC01DB01129628
:1010E0008D919C911397938382838EEB92E09183F1
:1010F000808314968C911497848315968C91159700
:10110000858316964D915D916D917C9119974683DB
:101110005783608771871A964D915D916D917C918F
:101120001D9742875387648775871E964D915D9101
:101130006D917C91519746875787608B718B529642
:101140008C915297828B53964D915D916D917C91CC
:101150005697438B548B658B768B57964D915D914B
:101160006D917C915A97478B508F618F728F5B96F0
:101170008D919C915C97948F838F0895EF92FF924D
:101180000F931F93CF93DF93EC017B018A011B82A6
:101190001A8288EE93E0A0E0B0E08C839D83AE835A
:1011A000BF838AEC92E0998388838DE190E00E946E
:1011B000C32C9A8F898F009779F02DE1F701DC011C
:1011C00001900D922A95E1F74CE050E0B801CE0174
:1011D0000C960E94062F188EDF91CF911F910F91D0
:1011E000FF90EF9008951F920F920FB60F92112467
:1011F0000BB60F922F933F934F935F936F937F9311
:101200008F939F93AF93BF93EF93FF938091D804F5
:101210009091D9048093B2008091DB049091DC041A
:10122000A091DD04B091DE040196A11DB11D809353
:10123000DB049093DC04A093DD04B093DE04809182
:10124000DB049091DC04A091DD04B091DE044091B8
:10125000D4045091D5046091D6047091D7048417BA
:101260009507A607B70710F18091DA0481111EC017
:1012700081E08093DA048091DB049091DC04A091FA
:10128000DD04B091DE04841B950BA60BB70B809395
:10129000DB049093DC04A093DD04B093DE04E091C2
:1012A000D204F091D30419951092DA04FF91EF91D2
:1012B000BF91AF919F918F917F916F915F914F916E
:1012C0003F912F910F900BBE0F900FBE0F901F906C
:1012D0001895CF93FC01C48121E020932207C0938D
:1012E000FD0410924D0910924C098385682B88E506
:1012F00099E00E94D30E80914C09813208F046C0DB
:1013000090914B099111FCCF92E090934B0991E0A1
:1013100090934A099FEF909323071092450780937B
:101320004407A2E0B7E024E237E0F9019E2F921BC8
:10133000981718F49D919193F9CF109246078091D8
:101340004607CC0FC82BC0934607809149098130CE
:1013500061F410924909809146078093BB00809107
:10136000BC0083FDF8CF85EC01C085EE8093BC0006
:1013700080914B098230E1F3809123078F3F31F058
:1013800080912307803211F08091230710924D093C
:1013900010924C0910922207CF9108950F931F933A
:1013A000CF938C01C62F0E9469096C2F6460C8011D
:1013B0000E9469096C2F6B7FC8010E94690983EC48
:1013C00090E00197F1F7CF911F910F910895FF924F
:1013D0000F931F93CF93DF931F92CDB7DEB78C018E
:1013E000F62E962F907F692F642BC80149830E94A7
:1013F000CE0980E1F89EB00111244981642BC80117
:101400000F90DF91CF911F910F91FF900C94CE0917
:1014100041E00E94E70981E090E008951092BC0A43
:101420001092B70A1092B20A1092AD0A1092A80A4E
:101430001092A30A10929E0A1092990A1092940A8E
:1014400010928F0A08952F923F924F925F926F925F
:101450007F928F929F92AF92BF92CF92DF92EF9244
:10146000FF920F931F93CF93DF93CDB7DEB76B97A8
:101470000FB6F894DEBF0FBECDBF5C0180E30E94C3
:101480004613892B09F44BC290914F09809156095C
:10149000981709F4ACC010924E09E0915709F0E09A
:1014A000EE0FFF1FEA58FD4F0190F081E02D808183
:1014B0008E7D80830E94AD0F81110E94BD108091AE
:1014C000570990E0880F991FFC01EA57FD4F0081F2
:1014D0001181D8012C9127FD20C020910B022062A0
:1014E00020930B02FC01E258FD4F0190F081E02DAA
:1014F0001082F801108261E080914F090E94611D05
:1015000080914F09863009F460C08E3209F461C0C1
:10151000853009F060C081E059C0FC01EA59FD4FF7
:10152000E080F180D7016D917C919B01AB01FC01C2
:10153000E25AFD4F2F01DC01A65EBD4F3D01E09157
:101540005409F0915509D901A61BB70BAE17BF0777
:1015500020F6D201CD90DC9037FD06C0D901E2170C
:10156000F30720F4DF0102C0A0E0B0E0F601B18390
:10157000A08357FD0AC0A0915409B0915509FA0102
:10158000A417B50720F4FD0102C0E0E0F0E0D701A8
:101590001196FC93EE93F30180809180A091540901
:1015A000B09155091D01F2E32F1A3108EAE0F0E08D
:1015B000D401CD90DC90C214D304D0F33197C1F79D
:1015C000415051092F5F3F4FBACF82E080935709B6
:1015D00004C083E0FBCF109257098DB581608DBDAB
:1015E0008CB58C7F8CBD80914F09809356090E94E9
:1015F000D01041E0B501CE0101960E94B90F8B8158
:101600009C819093060A8093050A8D819E81AF810B
:10161000B8858093070A9093080AA093090AB093AB
:101620000A0A89859A85AB85BC8580930B0A9093BD
:101630000C0AA0930D0AB0930E0A8DE0FE013D96B0
:10164000AFE0BAE001900D928A95E1F78A8D9B8D0B
:1016500090931D0A80931C0A0E94AD0F882309F401
:101660005EC168E070E080E090E00E94750F87E561
:10167000898381E48A8386E58B8385E48C838E016C
:101680000F5F1F4F74E0F72EF00E83E09AE00E9488
:101690003702F80121918F01022E000C330B8217C3
:1016A000930711F4FE12F1CF68E170E080E090E062
:1016B0000E94750F83E09AE00E94370290935309CD
:1016C0008093520983E09AE00E94370220E030E0E4
:1016D000382F8091520990915309822B932B90932C
:1016E0005309809352096CE270E080E090E00E9420
:1016F000750F8EEF90E09093FF048093FE0481E0DD
:1017000080934E09F0900B028F2D8F7780930B0200
:1017100080915209909153098B3F9F4A30F080ECA1
:101720009DE590935309809352092091520930917D
:10173000530940E050E0F6FE05C060E075E38CE040
:1017400090E004C060E07AE688E190E00E94582CC6
:101750006AE0629FC001639F900D11249093550928
:101760008093540983E09AE00E9437028C0183E061
:101770009AE00E944102800F911F97FD01968C0113
:1017800015950795F5FC19C08F2D8F7580930B0269
:10179000E0915709F0E0EE0FFF1FEA59FD4F01906D
:1017A000F081E02D20813181C80199272817390760
:1017B00008F086C040E050E040C08091570990E0BA
:1017C000880F991FFC01EA59FD4F0190F081E02D2F
:1017D00011821082FC01E25AFD4F0190F081E02D50
:1017E0008091540990915509918380830E94870FBD
:1017F000E0915709F0E020E030E0EE0FFF1FE25AE1
:10180000FD4F63E572E080915409909155092817C6
:10181000390708F0B9CFA081B181AC01421B530B4D
:101820008417950708F4AC0111965C934E93CB0195
:101830000197F1F72F5F3F4FE6CFB9016F5F7F4F01
:101840006217730728F09B018617970708F49C011D
:10185000FA01EF5FFA4F20834F5F5F4F4E3F510514
:1018600061F740E050E0B9016F5F7F4F6217730787
:1018700028F09B018617970708F49C01FA01E150B4
:10188000FA4F20834F5F5F4F4E3F510561F7109233
:10189000FE061092090210920A021092FD06F894B8
:1018A0000E94870FE0915709F0E0EE0FFF1FEA5802
:1018B000FD4F0190F081E02D81E2808378942FC06C
:1018C00040E050E0B901615071096817790728F0CC
:1018D0006217730718F49B0101C09C01FA01EF5FC6
:1018E000FA4F20834F5F5F4F4E3F510559F740E05D
:1018F00050E0B901615071096817790728F0621743
:10190000730718F49B0101C09C01FA01E150FA4FE2
:1019100020834F5F5F4F4E3F510559F7B8CF6B960D
:101920000FB6F894DEBF0FBECDBFDF91CF911F91F0
:101930000F91FF90EF90DF90CF90BF90AF909F906E
:101940008F907F906F905F904F903F902F90089571
:10195000CF93DF93209100022223C9F0EC01BC0158
:1019600084E699E00E94261F8091DF04882379F0A5
:101970000E94D71D69537B4F87E69AE00E943A1F69
:10198000BE0187E69AE0DF91CF910C94261FDF918C
:10199000CF910895CF93DF93CDB7DEB7AA970FB657
:1019A000F894DEBF0FBECDBF209107023091080230
:1019B0003093040220930302209105023091060225
:1019C00030930202209301022091E0043091E1045F
:1019D0003093FC042093FB04909308028093070249
:1019E00070930602609305025093E1044093E00473
:1019F0000E94D71D6093E6047093E7048093E80487
:101A00009093E9044091E2045091E3046091E4046E
:101A10007091E5042AE0CE014F960E94751E409118
:101A2000E6045091E7046091E8047091E9042AE02B
:101A3000CE0149960E94751E6091E0047091E10408
:101A40004AE0CE0143960E94AD1E6091050270915E
:101A500006024AE0CE010D960E94AD1E609107027B
:101A6000709108024AE0CE0107960E94AD1E6FEA0F
:101A700074E0CE0101960E94EE1EBE01695F7F4FA9
:101A8000CE0101960E94461E69EB74E00E942D1E55
:101A9000BE01635F7F4F0E94461E69EB74E00E94A7
:101AA0002D1EBE016D5E7F4F0E94461E68E774E0EA
:101AB0000E942D1EBE01675E7F4F0E94461E65E993
:101AC00073E00E942D1EBE01615E7F4F0E94461E84
:101AD000BC01CE0185960E94E51ECE0185960E942E
:101AE000A80CCE0185960E94701ECE0101960E9420
:101AF000701ECE0107960E94701ECE010D960E94A8
:101B0000701ECE0143960E94701ECE0149960E941F
:101B1000701ECE014F960E94701E8091E604909137
:101B2000E704A091E804B091E9048093E204909363
:101B3000E304A093E404B093E5040E940E0A8091AC
:101B400007029091080225E0289FF001299FF00DDF
:101B500011248091050290910602E80FF91FEE5DB5
:101B6000FD4F80818F3F69F09FEF980F943030F4E4
:101B70006091E0047091E1040E94E10161E00E9443
:101B80006F13809103029091040225E0289FF001D9
:101B9000299FF00D11248091010290910202E80F1B
:101BA000F91FEE5DFD4F80818F3F69F09FEF980F29
:101BB000943030F46091FB047091FC040E94E101C8
:101BC00060E00E946F132091050230910602C90166
:101BD0008B7F892B19F482E090E014C0809107027A
:101BE000909108022230310539F4009711F00B97DB
:101BF00069F489E090E006C0009711F00B9731F48A
:101C000083E090E09093EB048093EA04AA960FB6E9
:101C1000F894DEBF0FBECDBFDF91CF9108950F9333
:101C20001F93CF93DF9320910002222379F18B0140
:101C3000EC01BC0184E699E00E94261F60E080E090
:101C40000E94020F6BEB74E082E89AE00E943A1F58
:101C500060E080E00E94020FB80182E89AE00E94F2
:101C6000031F8091DF04882389F00E94D71D6953E8
:101C70007B4F87E69AE00E943A1FBE0187E69AE012
:101C8000DF91CF911F910F910C94261FDF91CF917F
:101C90001F910F91089585ED8093BC008091BC0049
:101CA00084FDFCCF10924B0908954091E20A262F43
:101CB00030E0240F311D21323105DCF420914B0935
:101CC0002430C9F4FC0180E090E0861758F430918C
:101CD000E20A2191DC01A054B54FA30FB11D2C9352
:101CE0000196F3CF8091E20A680F6093E20A80E0E8
:101CF000089581E0089582E00895089581E090E0DC
:101D00003091080B2091070B321710F480E090E01F
:101D100091958195910908958091080B9091070BF9
:101D2000891730F48F5F8093080B80E090E008956E
:101D30008FEF9FEF08958091070B90E02091080BA3
:101D4000821B91090895CF92DF92EF92FF920F9339
:101D50001F93CF93DF937C01262F972F8A018091C9
:101D60002207882391F0C62FD72F6E01C40ED51EEF
:101D7000CC15DD0571F06991D701ED91FC910190D1
:101D8000F081E02DC7011995F3CF642F822F0E94B7
:101D9000550EC801DF91CF911F910F91FF90EF90E9
:101DA000DF90CF900895CF93DF931F92CDB7DEB72A
:101DB0006983209122072223D1F020914C092032FF
:101DC00040F021E030E0FC013383228380E090E0AA
:101DD00015C080914D09E82FF0E0EE5FF84F998132
:101DE00090838F5F80934D0980934C0905C061E01B
:101DF000CE0101960E94550E81E090E00F90DF9198
:101E0000CF910895CF93DF93CDB7DEB728970FB664
:101E1000F894DEBF0FBECDBF28E0EEE6F2E0DE01B3
:101E2000119601900D922A95E1F720918A0A2617C2
:101E300010F46FEF620FFE013196E60FF11DE60F11
:101E4000F11D9081682F690F606840E082E89AE098
:101E500028960FB6F894DEBF0FBECDBFDF91CF91AD
:101E60000C94E7098F929F92AF92BF920F931F93AA
:101E7000CF93DF93CDB7DEB7A1970FB6F894DEBF4F
:101E80000FBECDBF19A2423008F44AE08E010F5DAB
:101E90001F4F842E912CA12CB12CA50194010E94DE
:101EA0008A2CE62FB901CA0101501109EA3014F455
:101EB000E05D01C0E95CD801EC93232B242B252B9A
:101EC00061F7B80182E89AE00E94111FA1960FB64F
:101ED000F894DEBF0FBECDBFDF91CF911F910F9160
:101EE000BF90AF909F908F90089520911C0A3091E1
:101EF0001D0A2115310541F0AB01BC01C9010E9449
:101F0000EF1791E0811101C090E0892F0895809131
:101F1000570990E0880F991FFC01E257FD4F01908F
:101F2000F081E02D209154093091550931832083AF
:101F3000FC01EA57FD4F0190F081E02D82E880839B
:101F4000E0915709F0E0EE0FFF1FE258FD4F0190BE
:101F5000F081E02D89E180830895E0911C0AF091E1
:101F60001D0A309729F08581882311F081E00895BA
:101F700008952F923F924F925F926F927F928F922D
:101F80009F92AF92BF92CF92DF92EF92FF920F9308
:101F90001F93CF93DF93CDB7DEB7C756D1090FB6E6
:101FA000F894DEBF0FBECDBF5C014B01A6964FAFCC
:101FB000A6973E018EE1680E711C68E47AE0C301C9
:101FC0000E946D081C821B828EEB92E09A838983AB
:101FD0001E827401FE0131966F0123011F016FE221
:101FE00070E0C7010E94F42E0097F1F1F701208103
:101FF0002F3221F4FFEFEF1AFF0AF1CF8E198D3047
:1020000008F08CE0082F10E0A801B701CE01885A33
:102010009F4F0E94062FE8E5F0E0EC0FFD1FE00F58
:10202000F11F1082C6010E94D50221E0AE01485A7C
:102030005F4FB201C6010E94E40381110AC01EAEC7
:102040001DAE8EEB92E09CAF8BAF21961FAE219719
:1020500017C0E00EF11EC2010E94D502942D852DFD
:102060002601C92ED82EBBCFC70188199909A89679
:102070009FAF8EAFA897B201CE01CB960E946D089C
:10208000A896EEADFFADA8978E0E9F1EF40180813D
:10209000811109C0BE01655C7F4FC1010E946D08BE
:1020A0004CEC54E04BC019A218A28EEB92E09F8F2B
:1020B0008E8F1BA221968FAD2197811113C0F50140
:1020C0001382128288EE93E0A0E0B0E084839583CF
:1020D000A683B7838AEC92E091838083128E118E5F
:1020E000148630C08250A6962FADA697A4018230E8
:1020F00040F468E47AE0C3010E94E40381110DC05A
:10210000DECFBE01655C7F4FC3010E94E4038823DC
:10211000B1F2CE01CB960E94D502A6968FADA697BE
:10212000867039F049A95AA96BA97CA9C3010E94FC
:10213000EF17B301C1010E946D08A401B101C501EF
:102140000E94BE08C501C959DF4F0FB6F894DEBF23
:102150000FBECDBFDF91CF911F910F91FF90EF90F8
:10216000DF90CF90BF90AF909F908F907F906F90B7
:102170005F904F903F902F90089580911C0A90910E
:102180001D0A009761F00E94D50280911C0A90916F
:102190001D0A0E94582D10921D0A10921C0A0895C3
:1021A00010924E09E0915709F0E0EE0FFF1FEA5838
:1021B000FD4F0190F081E02D80818E7D80830E9413
:1021C000AD0F81110C94BD1008958F929F92AF9224
:1021D000BF92CF92DF92EF92FF92CF93DF93C82FFF
:1021E0008EE19AE09093480980934709CC2369F1E6
:1021F000C53010F080E00DC140E060E070E0CB0140
:102200000E94DB158823B1F320E1C29FC001112495
:10221000895C984FFC01E254FE4F20812F7751F7E3
:102220003C9640815181628173814436510561053C
:10223000710500F33497C080D180E280F380C1142F
:10224000D104E104F10421F4D5CFC12CD12C7601C5
:1022500040E0C701B6010E94DB15882359F2809146
:102260005207909153078115924021F6A09157078C
:10227000AA2309F4BFCF60915507709156076115E5
:10228000710509F4B7CF20915407222309F4B2CF86
:10229000A0933C0A20932E0A80E030E0E1E0F0E0D9
:1022A000C82FAF01082E02C0440F551F0A94E2F751
:1022B0002417350741F0982F8F5F983089F789E010
:1022C0008093370A97CF8093370A20915D0730912A
:1022D0005E072115310519F040E050E008C020915B
:1022E0006B0730916C0740916D0750916E072093FA
:1022F0002F0A3093300A4093310A5093320A460134
:102300005701860E971EA11CB11C80923D0A909227
:102310003E0AA0923F0AB092400AE0915807F0911D
:102320005907F093430AE093420AB0E00E94772CE9
:10233000860E971EA81EB91E8092440A9092450AE6
:10234000A092460AB092470A85E0EE0FFF1F8A95D9
:10235000E1F7E150FE4FEF2FFF27E6958E0E9F1E0F
:10236000A11CB11C8092380A9092390AA0923A0AB4
:10237000B0923B0A20915A0730915B072115310535
:1023800021F0A90160E070E008C04091670750911A
:1023900068076091690770916A07D701C6018819BB
:1023A0009909AA09BB09840F951FA61FB71F04C06E
:1023B000B695A79597958795CA95D2F78093330AD6
:1023C0009093340AA093350AB093360A853F2FE0E4
:1023D0009207A105B10510F48CE018C0853F9F4F0E
:1023E000A105B10510F480E111C0809173079091AF
:1023F0007407A0917507B09176078093440A909373
:10240000450AA093460AB093470A80E28093410AA6
:1024100081E0DF91CF91FF90EF90DF90CF90BF9060
:10242000AF909F908F9008951F920F920FB60F92CA
:1024300011240BB60F922F933F934F935F936F939B
:102440007F938F939F93AF93BF93EF93FF9380916D
:10245000B900887F803609F49CC068F5883209F499
:102460005BC090F4803109F454C038F4882309F437
:10247000F6C0883009F44DC0F6C0883109F44CC06C
:10248000803209F45DC0EFC0803409F468C048F4BC
:10249000803309F455C0883309F0E5C080932307E1
:1024A000D8C0803509F44FC0883509F45DC0883440
:1024B00009F0D9C0D6C0883909F4C7C0A8F4883754
:1024C00009F467C038F4883609F463C0803709F42A
:1024D00060C0C9C0883809F4B8C0803909F45FC049
:1024E000803809F0C0C05BC0803B09F486C038F476
:1024F000803A09F466C0883A09F47FC0B4C0803CD1
:1025000009F4A7C0883C09F4A4C0883B09F48AC038
:10251000AAC08091460710C090914507809144075A
:10252000981770F5E091450781E08E0F809345077D
:10253000F0E0EC5DF84F80818093BB0085EC86C0B5
:10254000809323078EC0E091450781E08E0F809332
:1025500045078091BB00F0E0EC5DF84F80839091DF
:102560004507809144076EC0E091450781E08E0FDA
:10257000809345078091BB00F0E0EC5DF84F8083CD
:1025800080914A0981116DC081E08093490984EAF4
:1025900061C083E080934B091092060BCFCF8091EE
:1025A000060B803208F051C0E091060B81E08E0FDF
:1025B0008093060B8091BB00F0E0EA51F54F8083D9
:1025C000BDCF85EC8093BC0010924B098091060B27
:1025D000803230F4E091060BF0E0EA51F54F1082C2
:1025E0006091060B70E0E091E40AF091E50A86EE56
:1025F0009AE019951092060B36C084E080934B093F
:102600001092E30A1092E20AE091E00AF091E10AE6
:1026100019958091E20A811105C081E08093E20A58
:102620001092C00AE091E30A81E08E0F8093E30AE2
:10263000F0E0E054F54F80818093BB009091E30A75
:102640008091E20A981708F479CF85E88093BC005E
:102650000AC085EC8093BC0010924B0904C0109214
:1026600023070E944B0EFF91EF91BF91AF919F9175
:102670008F917F916F915F914F913F912F910F902B
:102680000BBE0F900FBE0F901F901895CF93DF9346
:10269000282F30E0F901EC57FD4F8491F901E25CFD
:1026A000FD4FD491F901E850FE4FC491CC2391F035
:1026B00081110E940B1DEC2FF0E0EE0FFF1FE25284
:1026C000FE4FA591B491EC91ED2381E090E021F4CF
:1026D00080E002C080E090E0DF91CF9108951F93E9
:1026E000CF93DF93282F30E0F901EC57FD4F849111
:1026F000F901E25CFD4FD491F901E850FE4FC4911D
:10270000CC23C9F0162F81110E940B1DEC2FF0E095
:10271000EE0FFF1FEC53FE4FA591B4918FB7F894C5
:10272000111105C09C91ED2FE095E92302C0EC91B9
:10273000ED2BEC938FBFDF91CF911F910895CF9335
:10274000DF931092080B1092070B10924D09109214
:102750004C0910924B0981E080934A091092490973
:1027600061E084E10E946F1361E085E10E946F13D4
:102770008091B9008E7F8093B9008091B9008D7FE0
:102780008093B90088E48093B80085E48093BC000E
:102790001092870A80918C0A823018F098E090930A
:1027A000870A80938A0A62E370E080E090E00E94EA
:1027B0009D1D60918D0A82E89AE00E94690968EE89
:1027C00073E080E090E00E949D1D60E382E89AE063
:1027D0000E94CE09CBE4D6E4CE010197F1F760E385
:1027E00082E89AE00E94CE092197F1F760E382E83F
:1027F0009AE00E94CE0983E592E00197F1F760E24A
:1028000082E89AE00E94CE096091870A606240E007
:1028100082E89AE00E94E70984E08093880A40E019
:102820006CE082E89AE00E94E70940E061E082E81B
:102830009AE00E94E709CBE3DFE1CE010197F1F7CF
:1028400082E08093890A40E066E082E89AE00E9494
:10285000E70940E062E082E89AE00E94E7092197F8
:10286000F1F7DF91CF910895FC01538D448D252F11
:1028700030E0842F90E0821B930B541710F0CF961A
:10288000089501970895FC01918D828D981761F04C
:10289000828DDF01A80FB11D5D968C91928D9F5F97
:1028A0009F73928F90E008958FEF9FEF0895FC0142
:1028B000918D828D981731F0828DE80FF11D858DF5
:1028C00090E008958FEF9FEF0895FC01918D228D88
:1028D000892F90E0805C9F4F821B91098F7399270D
:1028E000089584E699E00E94651421E0892B09F49B
:1028F00020E0822F0895FC01848DDF01A80FB11D17
:10290000A35ABF4F2C91848D90E001968F73992725
:10291000848FA689B7892C93A089B1898C91806412
:102920008C93938D848D981306C00288F389E02DD3
:1029300080818F7D80830895EF92FF920F931F9384
:10294000CF93DF93EC0181E0888F9B8D8C8D981362
:1029500005C0E889F989808185FD24C0F62E0B8D9C
:1029600010E00F5F1F4F0F731127E02E8C8DE812C0
:102970000CC00FB607FCFACFE889F989808185FF82
:10298000F5CFCE010E947B14F1CF8B8DFE01E80FB5
:10299000F11DE35AFF4FF0820B8FEA89FB8980819A
:1029A000806207C0EE89FF896083E889F9898081A8
:1029B0008064808381E090E0DF91CF911F910F913F
:1029C000FF90EF900895CF93DF93EC01888D8823DB
:1029D000C9F0EA89FB89808185FD05C0A889B9898C
:1029E0008C9186FD0FC00FB607FCF5CF808185FF67
:1029F000F2CFA889B9898C9185FFEDCFCE010E94D5
:102A00007B14E7CFDF91CF91089580E090E0892B90
:102A100021F00E947114811125C080E090E0892B83
:102A200041F080E090E0892B21F00E9400008111AC
:102A30001CC080E090E0892B41F080E090E0892B81
:102A400021F00E940000811113C080E090E0892BEA
:102A5000A1F080E090E0892B81F00E9400008111BC
:102A60000AC008950E940000D8CF0E940000E1CF64
:102A70000E940000EACF0C94000008950E94D92E15
:102A80001F920F920FB60F9211240BB60F922F9335
:102A90003F934F935F936F937F938F939F93AF93E6
:102AA000BF93EF93FF9384E699E00E947B14FF911C
:102AB000EF91BF91AF919F918F917F916F915F91B6
:102AC0004F913F912F910F900BBE0F900FBE0F9023
:102AD0001F9018951F920F920FB60F9211240BB6EC
:102AE0000F922F938F939F93EF93FF93E09174092D
:102AF000F09175098081E0917A09F0917B0982FD5E
:102B000012C0908180917D098F5F8F7320917E0923
:102B1000821751F0E0917D09F0E0EC59F64F958F66
:102B200080937D0901C08081FF91EF919F918F91EA
:102B30002F910F900BBE0F900FBE0F901F90189506
:102B40008091090B8823A9F140910C0250910D024C
:102B500060910E0270910F0227E437E080914709DF
:102B6000909148090E940207811102C080E00895F7
:102B700040910A0B50910B0B60910C0B70910D0B57
:102B8000411551056105710591F027E437E0809109
:102B90004709909148090E940207882339F310924F
:102BA0000A0B10920B0B10920C0B10920D0B109243
:102BB000090B81E008958F929F92AF92BF92EF929E
:102BC000FF920F931F93CF934B015C01C42F809111
:102BD0000C0290910D02A0910E02B0910F02881587
:102BE0009905AA05BB0501F10E94A015811102C03B
:102BF00080E020C087E4E82E87E0F82E00E012E0B5
:102C000020E030E0B501A401809147099091480986
:102C10000E946E06882361F380920C0290920D024E
:102C2000A0920E02B0920F028091090BC82BC093A4
:102C3000090B81E0CF911F910F91FF90EF90BF9012
:102C4000AF909F908F9008954F925F926F927F9276
:102C50008F929F92AF92BF92CF92DF92EF92FF92AC
:102C60000F931F93CF93DF93EC016A017B0128013F
:102C70003901423051056105710510F480E073C0DF
:102C800089859A85AB85BC850196A11DB11D8417E8
:102C90009507A607B70790F38B889C88AD88BE88F8
:102CA0008F89803129F4BB27AF2D9E2D8D2D09C032
:102CB000DB01CA0147E0B695A795979587954A9598
:102CC000D1F7880E991EAA1EBB1E80910C0290910E
:102CD0000D02A0910E02B0910F0288169906AA0665
:102CE000BB0679F48F898031A1F4DD24EE24FF2422
:102CF000C601880F991FFC01E95BF84F51824082A1
:102D000019C040E0C501B4010E94DB158111EACF72
:102D1000B5CFE894C7F8DD24EE24FF24C601880F60
:102D2000991F880F991FFC01E95BF84F408251827F
:102D3000628273828091090B81608093090B8A897A
:102D4000823080F08D819E81AF81B885880E991E7A
:102D5000AA1EBB1E80920A0B90920B0BA0920C0B2A
:102D6000B0920D0B81E0DF91CF911F910F91FF90F9
:102D7000EF90DF90CF90BF90AF909F908F907F901B
:102D80006F905F904F9008958F929F92AF92BF92F5
:102D9000CF92DF92EF92FF920F931F93CF93DF9327
:102DA000FC0181859285A385B4850196A11DB11D85
:102DB00084179507A607B70710F480E05CC08389E5
:102DC0009489A589B689C789C03129F4852E962EA4
:102DD000A72EBB2409C04A015B01C7E0B694A794A3
:102DE00097948794CA95D1F7E9016A017B018F0115
:102DF000BC01CD01680D791D8A1D9B1D80900C02C0
:102E000090900D02A0900E02B0900F026815790507
:102E10008A059B0599F4F80187898031A9F4B701E7
:102E2000A601552766277727440F551FFA01E95B4E
:102E3000F84F80819181A0E0B0E018C040E00E948E
:102E4000DB158111E8CFB9CFB701A6014F77552720
:102E500066277727440F551F440F551FFA01E95B7A
:102E6000F84F80819181A281B381BF70888399835B
:102E7000AA83BB8381E0DF91CF911F910F91FF90D7
:102E8000EF90DF90CF90BF90AF909F908F9008957C
:102E90004F925F926F927F92AF92BF92CF92DF92EA
:102EA000EF92FF920F931F93CF93DF9300D01F9267
:102EB000CDB7DEB78C0149835A836B837C8359017C
:102EC000C12CD12C7601412C82E0582E612C712C22
:102ED00049815A816B817C819E012F5F3F4FC801E0
:102EE0000E94C416882351F1D301C201F801058460
:102EF00004C0880F991FAA1FBB1F0A94D2F7C80EDF
:102F0000D91EEA1EFB1E49815A816B817C8187890B
:102F1000803129F088EF9FEFAFEFBFE004C088EF6A
:102F20009FEFA0E0B0E0481759076A077B0780F2DF
:102F3000F501C082D182E282F38281E00F900F908E
:102F40000F900F90DF91CF911F910F91FF90EF9015
:102F5000DF90CF90BF90AF907F906F905F904F9039
:102F60000895CF93DF93EC018D818823A1F18C81AB
:102F700087FF2DC06E857F858889998941E00E94F1
:102F8000DB15882341F1EA8980E2E89FF0011124F2
:102F9000DF01A95BB84F1097F1F08D81823050F4BA
:102FA0004B895C896D897E895C964D935D936D93A9
:102FB0007C935F978F89988DA98DBA8DE95BF84FC7
:102FC000938F828FB58BA48B8C818F778C83DF91CD
:102FD000CF910C94A01580E0DF91CF9108958F924E
:102FE0009F92AF92BF92CF92DF92EF92FF920F9398
:102FF0001F93CF93DF93EC018D81811102C080E09C
:1030000077C00B891C892D893E890417150726076F
:103010003707A8F36A017B01823029F4CA86DB8670
:10302000EC86FD860DC0C114D104E104F10451F415
:103030001E821F82188619861A861B861C861D868C
:1030400081E056C08A849B84AC84BD84EB8DFC8D6A
:10305000258530E0275F3F4FB501A401415051095C
:1030600061097109022E04C07695679557954795B9
:103070000A94D2F7D701C6010197A109B10904C08A
:10308000B695A795979587952A95D2F784179507B2
:10309000A607B70720F089288A288B2849F44F898A
:1030A000588D698D7A8D4E835F836887798704C0D8
:1030B000841B950BA60BB70B4C015D018E010A5FBB
:1030C0001F4F81149104A104B10409F4A7CF4E81CC
:1030D0005F816885798598018B8D9C8D0E94C416CF
:1030E00091E0891A9108A108B1088111EACF87CF30
:1030F000DF91CF911F910F91FF90EF90DF90CF90D4
:10310000BF90AF909F908F9008952F923F924F92D3
:103110005F926F927F928F929F92AF92BF92CF9267
:10312000DF92EF92FF920F931F93CF93DF9300D024
:103130001F92CDB7DEB78C015B011A01DC01159639
:103140008C9115978130C9F414968C9181FF15C02C
:1031500082FF1BC0F801438954896589768982857D
:103160009385A485B58584179507A607B70769F0E9
:10317000C8010E94EF17811108C081E090E0F801BA
:103180009383828380E090E039C1610183C0D801DC
:103190005B968D919C915C97FC01248121502A01C2
:1031A0003B0139E076946794579447943A95D1F768
:1031B000722E74207A01F1E0FF22772009F476C0A4
:1031C00080E092E08E199F0946018C159D0508F458
:1031D0004C01D8015B962D913C915C9716968D9190
:1031E0009D910D90BC91A02D0297A109B109F90103
:1031F000058404C0880F991FAA1FBB1F0A94D2F729
:103200004685578560897189840F951FA61FB71F52
:103210009C01AD01270D311D411D511D29013A01B0
:10322000811432E0930609F088C080910C029091DD
:103230000D02A0910E02B0910F0284159505A6050E
:10324000B70559F48FEF9FEFDC0180930C02909348
:103250000D02A0930E02B0930F029501B301A201DB
:1032600080914709909148090E940207882309F438
:1032700084CF9EEFB91AC818D908F80182859385C2
:10328000A485B585880D991DA11DB11D82879387E1
:10329000A487B587D8011A964D915D916D917C9167
:1032A0001D97C114D10409F072CF87C0E114F10455
:1032B00009F086CF16964D915D916D917C9119978D
:1032C000411551056105710559F457968D919D91F0
:1032D0000D90BC91A02D0097A105B10541F521C02D
:1032E0009E012F5F3F4F0E94C416882309F44BCFE5
:1032F00089819A81AB81BC81F801238D348DF901DC
:103300002789203129F048EF5FEF6FEF7FE004C09D
:1033100048EF5FEF60E070E084179507A607B707F6
:1033200030F0C8010E94E10281114ACF26CFF80196
:1033300086839783A087B18743CFE114F10429F5F1
:10334000D8011A964D915D916D917C911D97539680
:103350008D919D910D90BC91A02D481759076A073A
:103360007B0798F00E94A015882309F406CF4092AD
:103370000C0250920D0260920E0270920F02809128
:10338000090B81608093090B08C041E0C301B201C1
:103390000E94DB15882309F4F0CED501F701E95B23
:1033A000F84FCF01880D991DE817F90719F02D91F5
:1033B0002193FACFA80CB91C5ECF53968D919D91A5
:1033C0000D90BC91A02D84179507A607B70740F470
:1033D000F801438B548B658B768B84818068848362
:1033E000D80114968C9183FD02C0C10107C0C801A9
:1033F0000E94B117882309F4C0CEF7CF0F900F9029
:103400000F900F90DF91CF911F910F91FF90EF9050
:10341000DF90CF90BF90AF909F908F907F906F90F4
:103420005F904F903F902F900895CF93DF931F921E
:10343000CDB7DEB7698341E050E0BE016F5F7F4FDB
:103440000E9485180F90DF91CF9108952F923F929F
:103450004F925F926F927F928F929F92AF92BF92A4
:10346000CF92DF92EF92FF920F931F93CF93DF9350
:10347000EC016B014A018D81811103C08FEF9FEF39
:10348000D7C08C8180FFFACF4B885C886D887E889E
:103490004A855B856C857D85C401A0E0B0E0930121
:1034A0008201041B150B260B370B081719072A0777
:1034B0003B0718F44201841A950A54011E0126E0C4
:1034C000220E311CA114B10409F47EC04A855B852B
:1034D0006C857D852A0181E05822ED818A019B015E
:1034E00089E036952795179507958A95D1F78B8DA5
:1034F0009C8DE23061F4FC01828D938DA48DB58D9D
:10350000BC01CD01600F711F821F931F3FC0FC01E2
:1035100074807A94702241145104C9F4711017C058
:10352000452B462B472B49F48F89988DA98DBA8D51
:103530008E839F83A887B9870AC04E815F81688583
:10354000798591010E94C416882309F497CFEB8DE9
:10355000FC8D8E819F81A885B9850297A109B1094B
:10356000058404C0880F991FAA1FBB1F0A94D2F7B5
:103570004685578560897189840F951FA61FB71FDF
:10358000BC01CD01670D711D811D911D20E032E050
:103590002419350935012A153B0508F439012C8118
:1035A00026FD04C06114F2E07F0681F400910C0254
:1035B00010910D0220910E0230910F0260177107D9
:1035C00082079307B1F402C0C40132C040E00E94F8
:1035D000DB15882309F452CFF201E95BF84FD601DD
:1035E000CF01860D971DE817F90789F021912D93DA
:1035F000FACF760183019201AB01BC0180914709AA
:10360000909148090E946E06882309F437CFC60CB2
:10361000D71C8A859B85AC85BD85860D971DA11D10
:10362000B11D8A879B87AC87BD87A618B7084ACF8C
:10363000DF91CF911F910F91FF90EF90DF90CF908E
:10364000BF90AF909F908F907F906F905F904F90C2
:103650003F902F9008958F929F92AF92BF92CF92FA
:10366000DF92EF92FF920F931F93CF93DF9300D0DF
:103670001F92CDB7DEB77C0180E2689F6001112404
:103680009601295B384FD9011B969C91917121F0CD
:10369000842F827409F097C0142FF701628B8091F8
:1036A0000C0290910D02A0910E02B0910F0286873C
:1036B0009787A08BB18BF601E95BF84F4489558958
:1036C00060E070E0BA0155274427D70157964D9323
:1036D0005D936D937C935A97828D938DA0E0B0E0BB
:1036E000482B592B6A2B7B2BD70157964D935D9313
:1036F0006D937C935A97D9011B968C91887159F4DC
:10370000848D958DA68DB78DF701838B948BA58BBA
:10371000B68B81E012C0803109F055C097012D5E53
:103720003F4FD7015B968D919C915C970E94481703
:10373000882309F448C084E0F7018583812F8F70C6
:10374000D70114968C931497F7011682178210866E
:1037500011861A961D921D921D921C921D9716FF9E
:1037600034C015968C91813071F511FF2CC0F70192
:103770004389548965897689452B462B472B09F463
:1037800061C040E050E0BA01C7010E94EF178823F2
:10379000D1F0F7018788908CA18CB28CC38CD48C2B
:1037A00082E090E0A0E0B0E0F60180839183A28304
:1037B000B3839E012F5F3F4FB501A401C6010E9454
:1037C000C416811104C080E03DC081E03BC000E030
:1037D00010E09801B501A401C6010E9424168823B7
:1037E00091F389809A80AB80BC80D60157968C91EA
:1037F000803129F088EF9FEFAFEFBFE004C088EF82
:103800009FEFA0E0B0E088169906AA06BB0688F2F2
:10381000D70157961D921D921D921C925A97F7013F
:10382000138A148A158A168A848180688483C70162
:103830000E94B117882339F240E050E0BA01C70175
:103840000E94EF170F900F900F900F90DF91CF9184
:103850001F910F91FF90EF90DF90CF90BF90AF90AE
:103860009F908F9008953FB7F8948091130B90919B
:10387000140BA091150BB091160B26B5A89B05C093
:103880002F3F19F00196A11DB11D3FBFBA2FA92FDF
:10389000982F8827820F911DA11DB11DBC01CD015C
:1038A00042E0660F771F881F991F4A95D1F7089548
:1038B000CF92DF92EF92FF920F931F93CF93DF93FC
:1038C0006C017A018B01C0E0D0E0CE15DF0589F0F4
:1038D000D8016D918D01D601ED91FC910190F0819F
:1038E000E02DC6011995892B11F47E0102C02196A5
:1038F000ECCFC701DF91CF911F910F91FF90EF9017
:10390000DF90CF9008950F931F93CF93DF93EC0137
:1039100088819981009729F02A813B8126173707F2
:1039200088F48B016F5F7F4F0E94F02D009761F04C
:10393000998388831B830A832C813D81232B11F477
:10394000FC01108281E001C080E0DF91CF911F91E6
:103950000F910895EF92FF920F931F93CF93DF93F0
:10396000FC01248135816115710511F480E019C0D5
:1039700041155105A9F07B01EC018A01020F131FCB
:10398000B8010E94831C882389F3288139818C81A6
:103990009D81B701820F931F0E94FF2E1D830C8310
:1039A00081E0DF91CF911F910F91FF90EF900895EB
:1039B000CF93DF93EC0188819981009711F00E94E9
:1039C000582D198218821D821C821B821A82DF9157
:1039D000CF910895EF92FF920F931F93CF93DF93B0
:1039E000EC017B018A01BA010E94831C811104C091
:1039F000CE010E94D81C07C01D830C83B7018881AB
:103A000099810E94FF2ECE01DF91CF911F910F91DE
:103A1000FF90EF90089590E0FC013197E231F105BD
:103A200008F04EC08827EE58FF4F8F4F0C94BB2CE8
:103A3000809180008F7703C0809180008F7D80937C
:103A40008000089580918000877FF9CF84B58F77BB
:103A500002C084B58F7D84BD08958091B0008F77BA
:103A600003C08091B0008F7D8093B0000895809155
:103A700090008F7707C0809190008F7D03C0809168
:103A80009000877F8093900008958091A0008F77A9
:103A900007C08091A0008F7D03C08091A000877F28
:103AA0008093A0000895809120018F7707C08091B6
:103AB00020018F7D03C080912001877F80932001AA
:103AC0000895CF93DF9390E0FC01E25CFD4F2491D9
:103AD000FC01E850FE4F8491882361F190E0880F4B
:103AE000991FFC01E653FD4FC591D491FC01EC53A5
:103AF000FE4FA591B491611109C09FB7F8948881D8
:103B0000209582238883EC912E230BC0623061F4D0
:103B10009FB7F8943881822F809583238883EC9116
:103B20002E2B2C939FBF06C08FB7F894E8812E2BC5
:103B300028838FBFDF91CF9108958F929F92AF928C
:103B4000BF92CF92DF92EF92FF926B017C010E94B5
:103B5000331C4B015C01C114D104E104F104F1F008
:103B60000E94331CDC01CB0188199909AA09BB0901
:103B7000883E9340A105B10570F321E0C21AD10837
:103B8000E108F10888EE880E83E0981EA11CB11CA4
:103B9000C114D104E104F10419F7DDCFFF90EF90D7
:103BA000DF90CF90BF90AF909F908F9008952FB7E8
:103BB000F89460910F0B7091100B8091110B909104
:103BC000120B2FBF08951F920F920FB60F92112460
:103BD0002F933F938F939F93AF93BF9380910F0B3E
:103BE0009091100BA091110BB091120B30910E0B14
:103BF00023E0230F2D3720F40196A11DB11D05C030
:103C000026E8230F0296A11DB11D20930E0B809371
:103C10000F0B9093100BA093110BB093120B80918C
:103C2000130B9091140BA091150BB091160B0196EC
:103C3000A11DB11D8093130B9093140BA093150B32
:103C4000B093160BBF91AF919F918F913F912F91A0
:103C50000F900FBE0F901F901895CF93DF93EC013C
:103C60006115710561F0FB0101900020E9F73197C2
:103C7000AF01461B570B0E94AA1C811103C0CE0145
:103C80000E94D81CCE01DF91CF910895CF93DF938E
:103C9000EC01FB0144815581608171810E94AA1C65
:103CA000811103C0CE010E94D81CCE01DF91CF91BB
:103CB0000895CF93DF93EC01FB018617970761F01E
:103CC000608171816115710529F0448155810E94DF
:103CD000EA1C02C00E94D81CCE01DF91CF9108954A
:103CE000FC01808191810C94582DEF92FF920F93EB
:103CF0001F93CF93DF93CDB7DEB7A1970FB6F8949C
:103D0000DEBF0FBECDBF8C01CB01BA01F80111821D
:103D10001082138212821582148230E0AE014F5F4E
:103D20005F4F7A010E94012CF70101900020E9F712
:103D30003197AF014E195F09B701C8010E94EA1C13
:103D4000A1960FB6F894DEBF0FBECDBFDF91CF9125
:103D50001F910F91FF90EF900895EF92FF920F93B4
:103D60001F93CF93DF93CDB7DEB762970FB6F8946A
:103D7000DEBF0FBECDBF8C01CB01F80111821082D6
:103D8000138212821582148250E09E012F5F3F4FF2
:103D90007901B9010E94EB2BF70101900020E9F7AE
:103DA0003197AF014E195F09B701C8010E94EA1CA3
:103DB00062960FB6F894DEBF0FBECDBFDF91CF91F4
:103DC0001F910F91FF90EF900895FC0111821082D6
:103DD00013821282158214820C94591EFC011182E6
:103DE000108213821282158214826115710551F0BE
:103DF000FB0101900020E9F73197AF01461B570BFB
:103E00000C94EA1C0895DC01ED91FC91DB01149601
:103E10004D915C9115976D917C910280F381E02D1D
:103E200019946115710579F0FB0101900020E9F703
:103E30003197AF01461B570BDC01ED91FC910280DD
:103E4000F381E02D199480E090E008950F931F9383
:103E5000CF93DF93EC010E94031F8C016EEC74E0A2
:103E6000CE010E94111F800F911FDF91CF911F91F2
:103E70000F9108950C94111FCF93DF93CDB7DEB748
:103E8000CF56D1090FB6F894DEBF0FBECDBF7894E0
:103E900084B5826084BD84B5816084BD85B582604F
:103EA00085BD85B5816085BD80916E008160809300
:103EB0006E00109281008091810082608093810069
:103EC0008091810081608093810080918000816079
:103ED000809380008091B10084608093B1008091D4
:103EE000B00081608093B0008091910082608093E7
:103EF0009100809191008160809391008091900069
:103F00008160809390008091A10082608093A100E5
:103F10008091A10081608093A1008091A0008160C8
:103F20008093A00080912101826080932101809183
:103F30002101816080932101809120018160809323
:103F4000200180917A00846080937A0080917A00C9
:103F5000826080937A0080917A00816080937A00F9
:103F600080917A00806880937A001092C10060EDA1
:103F700074E0CE018B599F4F0E94EE1E82E090E0CC
:103F8000A0E0B0E08093D4049093D504A093D6042D
:103F9000B093D7048DEA92E09093D3048093D20437
:103FA000809170008E7F809370008091B0008C7F34
:103FB0008093B0008091B100877F8093B1008091A1
:103FC000B6008F7D8093B600809170008D7F8093C6
:103FD00070008091B10084608093B1008091B10045
:103FE0008C7F8093B10086E090E09093D904809319
:103FF000D8041092DB041092DC041092DD041092BD
:10400000DE041092DA048091D8049091D904809350
:10401000B200809170008160809370000E94D71D73
:104020006093E6047093E7048093E8049093E904B6
:104030006093E2047093E3048093E4049093E504B6
:1040400080917B00886080937B0086E480937C0075
:1040500080917A00806480937A0080917A0086FD56
:10406000FCCF609178008091790070E0782B072E6A
:10407000000C880B990B611571058105910511F0F4
:104080000E94E22B62E08FE20E94611D62E080E309
:104090000E94611D8FE20E94461321E0892B09F4E2
:1040A00020E0209300020E949F1388E080938D0AF5
:1040B00060E082E89AE00E94690916E161E0812FE0
:1040C0000E94611D1F5F1E32C9F712E061E0812F5F
:1040D0000E94611D1F5F1E30C9F78EE280934F0959
:1040E000E0917409F091750982E08083E091700994
:1040F000F09171091082E0917209F09173098FECCF
:10410000808310927C09E0917809F091790986E02A
:104110008083E0917609F0917709808180618083C6
:10412000E0917609F0917709808188608083E09141
:104130007609F0917709808180688083E091760923
:10414000F091770980818F7D80831092290A1092E7
:10415000270A1092240A1092230A85E38093220AE8
:104160000E94D71D8B0161E08091220A0E94611D8F
:1041700061E08091220A0E946F13FFB6F89480914B
:10418000EC04811127C0EDE2F2E08491E3E7F2E074
:104190009491E82FF0E0EE0FFF1FE653FD4FA5913D
:1041A000B491EC91E92321F461E085E30E946F135F
:1041B00061E085E30E94611D8CB580618CBD8CB58A
:1041C00080648CBD61E084E30E94611D61E083E353
:1041D0000E94611D8091EC048F5F8093EC04FFBE10
:1041E00082E58093010A1092020A8091010A90915F
:1041F000020A0E94F3052AE0F22E8FEF0E94B40516
:10420000FA94F110FACF8EE19AE00E94F60520E0D0
:1042100030E0A90160E08EE19AE00E940C06F82EE1
:104220008093280A31E0831749F00E94D71D601B54
:10423000710B613D774058F381E056C02AEA31E0C6
:1042400040E050E068E08EE19AE00E940C0682FFB8
:1042500003C0F092290A10C094E0F92E0E94BB0519
:104260008093280AFA94F110F9CF8A3A11F082E08B
:104270003BC082E08093290A8091290A823021F094
:10428000C12CD12C760105C0C12CD12CE12C80E4AD
:10429000F82E20E030E0A90167E38EE19AE00E9469
:1042A0000C06A701960169E28EE19AE00E940C06D5
:1042B0008093280A882349F00E94D71D601B710B48
:1042C000613D774030F388E00FC08091290A823049
:1042D00001F520E030E0A9016AE38EE19AE00E9456
:1042E0000C06882341F086E08093230A8EE19AE051
:1042F0000E94A9059EC00E94BB05807C803C19F4E9
:1043000083E08093290A0E94BB050E94BB050E949E
:10431000BB058EE19AE00E94A90580E58093010A21
:104320001092020A81E00E94E510882329F0809112
:104330004D0A882341F07DC080E00E94E51088236B
:1043400009F477C0F4CF8091410A803109F582E009
:1043500080934D0A10925F0A1092600A1092610ACF
:104360001092620A8091420A9091430AA0E0B0E064
:1043700015E0880F991FAA1FBB1F1A95D1F78093CC
:104380005B0A90935C0AA0935D0AB0935E0A1EC01C
:10439000803209F04EC083E080934D0A4091440A78
:1043A0005091450A6091460A7091470A40935F0A0E
:1043B0005093600A6093610A7093620A2BE53AE0B9
:1043C0008AE29AE00E944817882399F18AE29AE0EB
:1043D0009093640A8093630A81E080934C0A109260
:1043E0004E0A10924F0A1092500A1092510A1092DF
:1043F000520A1092530A1092540A1092550A1092BF
:10440000560A1092570A1092580A1092590A10929E
:104410005A0AEFE34E2EE2E45E2EEFE06E2E712C90
:10442000FEEBAF2EF2E0BF2E7E015BE3E50EF11C4A
:10443000B7C062E073E0CE0101960E94EE1E62E01A
:1044400073E0CE014E960E94EE1EBE016F5F7F4F5D
:10445000CE014E960E940F0ECE014E960E94701E07
:10446000CE0101960E94701E66C121E0AE01485A3D
:104470005F4FB801C4010E94E403282E9AE008347B
:10448000190709F0D5C0882309F4D7C08E01025E50
:104490001F4F902F812F8401892E982EAC964FADFF
:1044A000AC97532DF601E40FF51F80818F3211F484
:1044B0004F5F5F4FDE01A85ABF4F80E090E0F601EA
:1044C000E40FF51F20812F3249F0222339F00196A5
:1044D0004F5F5F4F2D938C30910589F7E8E5F0E051
:1044E000EC0FFD1FE80FF91F1082F601E40FF51F16
:1044F00080818F3211F44F5F5F4FAC964FAFAC9716
:10450000352EF601E40FF51F20801C821B82BA8233
:10451000A9821E8221E0AE01485A5F4FB801CE0148
:1045200001960E94E403882309F47AC0CE01019623
:104530000E94D502211099CF2AE00834120719F001
:10454000C8010E94D502BE016B597F4FCE01019672
:104550000E94E51E6FE073E0C7010E94EE1EBE01DF
:104560006B597F4FC7010E94461E65E173E00E94B0
:104570002D1EBC01CE014E960E94E51EBE016F5F4E
:104580007F4FCE014E960E940F0ECE014E960E9496
:10459000701EC7010E94701ECE0101960E94701EFF
:1045A0000E94DE2BA30192010E94582CAB01BC019A
:1045B00020E1CE014E960E94751EBE01625E7F4FC5
:1045C000CE0101960E94E51E6AE073E0CE010196DD
:1045D0000E942D1EBC01CE018B599F4F0E94591E77
:1045E000CE0101960E94701ECE014E960E94701E52
:1045F000A796CEACDFACA7971EAE1DAEBCAEABAEE1
:1046000021961FAE219719A218A2BF8EAE8E1BA2B3
:10461000AC961FAEAC97312C470108E41AE03ECFB0
:104620008AE00834180749F0C8010E94D50205C085
:10463000C8010E94D50221102CCF68E273E0CE01A0
:104640004E960E94EE1EBE016B597F4FCE014E96D4
:104650000E94461EBC01CE0101960E94E51E6FE03D
:1046600073E0CE01885A9F4F0E94EE1EBE016B5927
:104670007F4FCE01885A9F4F0E94461E6CE273E026
:104680000E942D1EBC01C7010E94E51EBE016F5F86
:104690007F4FC7010E940F0EC7010E94701ECE01FE
:1046A000885A9F4F0E94701ECE0101960E94701E74
:1046B000CE014E960E94701EA7966EAD7FADA79755
:1046C00043E1CE0101960E94B90F8B819C819093AA
:1046D0006A0A8093690A8D819E81AF81B885809333
:1046E0006B0A90936C0AA0936D0AB0936E0A898549
:1046F0009A85AB85BC8580936F0A9093700AA093CE
:10470000710AB093720A8DE0FE013D96A3E7BAE00C
:1047100001900D928A95E1F78A8D9B8D9093810A85
:104720008093800A81E08093DF0468EE73E080E08C
:1047300090E00E949D1DCE018B599F4F0E94701EDC
:1047400001E010E078EE872E73E0972EA12CB12CBB
:104750008091EA049091EB048230910509F4C0C283
:104760003CF4009709F460C0019709F4DFC109C067
:104770008430910509F4A8C50CF4E6C4099709F43E
:1047800086C362E0F62E61E082E00E94020F0E9482
:10479000D71DA50194010E948A2CCA01B9014AE0E3
:1047A0000E94320F61E08F2D0E946F1368EE73E05C
:1047B00080E090E00E949D1D60E08F2D0E946F13AD
:1047C00068EE73E080E090E00E949D1DF3943EE06F
:1047D000F312D9CF56E1F52E61E082E00E94020F7C
:1047E0000E94D71DA50194010E948A2CCA01B9011B
:1047F0004AE00E94320F61E08F2D0E946F1368EE35
:1048000073E080E090E00E949D1D60E08F2D0E948B
:104810006F1368EE73E080E090E00E949D1DF394BA
:104820004EE2F412D9CFD6C58FEF9FEF9093EB04F1
:104830008093EA040E949F1388E493E00E94230A75
:104840000E94DE2B24E833E040E050E00E94582C28
:104850009B01AC012C593F4F4F4F5F4FAF962CAF90
:104860003DAF4EAF5FAFAF97C12CD12C7601AD9667
:104870008EAD9FADAD978C0D9D1D181619060CF0D1
:104880008FC092E061E0892FE0969FAFE0970E9491
:104890006F13E0969FADE0979F5F9E3099F7AF96BC
:1048A0004CAC5DAC6EAC7FACAF974C0C5D1C6E1C21
:1048B0007F1CC301B2010E949D1D92E060E0892F20
:1048C000E0969FAFE0970E946F13E0969FADE09750
:1048D0009F5F9E3099F7C301B2010E949D1D809198
:1048E000BC0A882309F479C58091A30A882309F4B6
:1048F00074C560E080E00E94020F69E874E082E81D
:104900009AE00E943A1F4091E2045091E3046091C2
:10491000E4047091E5042AE0CE014E960E94751ED3
:104920004091E6045091E7046091E8047091E90435
:104930002AE0CE01CB960E94751E6AE974E0CE0192
:10494000885A9F4F0E94EE1EBE01655C7F4FCE01CC
:10495000885A9F4F0E94461E65E973E00E942D1EF3
:10496000BE01625E7F4F0E94461EBC01CE010196D1
:104970000E94E51ECE0101960E94A80CCE01019670
:104980000E94701ECE01885A9F4F0E94701ECE0159
:10499000CB960E94701ECE014E960E94701E1AC5C4
:1049A0000E94D01082EE93E00E94230A8091BC0AFC
:1049B000882309F45BC060E080E00E94020F61E69A
:1049C00073E082E89AE00E943A1F4091E20450911D
:1049D000E3046091E4047091E5042AE0CE014E9670
:1049E0000E94751E4091E6045091E7046091E8042E
:1049F0007091E9042AE0CE01CB960E94751E6EEEFE
:104A000073E0CE01885A9F4F0E94EE1EBE01655C86
:104A10007F4FCE01885A9F4F0E94461E65E973E082
:104A20000E942D1EBE01625E7F4F0E94461EBC0189
:104A3000CE0101960E94E51ECE0101960E94A80CAF
:104A4000CE0101960E94701ECE01885A9F4F0E948F
:104A5000701ECE01CB960E94701ECE014E960E9413
:104A6000701E1093EB040093EA04ACC48091A30A77
:104A7000882309F49BCF60E080E00E94020F6DEF75
:104A800073E082E89AE00E943A1F4091E20450915C
:104A9000E3046091E4047091E5042AE0CE014E96AF
:104AA0000E94751E4091E6045091E7046091E8046D
:104AB0007091E9042AE0CE01CB960E94751E6AE04F
:104AC00074E0CE01885A9F4F0E94EE1EBE01655CC5
:104AD0007F4FCE01885A9F4F0E94461E65E973E0C2
:104AE0000E942D1EBE01625E7F4F0E94461EBC01C9
:104AF000CE0101960E94E51ECE0101960E94A80CEF
:104B0000CE0101960E94701ECE01885A9F4F0E94CE
:104B1000701ECE01CB960E94701ECE014E960E9452
:104B2000701E1093EB040093EA0443C461E080E03C
:104B30000E94020F6091EF047091F0044AE0CE01F0
:104B400001960E94AD1E6091ED047091EE044AE062
:104B5000CE014E960E94AD1E67E174E0CE01CB9669
:104B60000E94EE1EBE01625E7F4FCE01CB960E9478
:104B7000461E6CE174E00E942D1EBE016F5F7F4FE8
:104B80000E94461E6AEC74E00E942D1EBC0182E861
:104B90009AE00E94031FCE01CB960E94701ECE01A8
:104BA0004E960E94701ECE0101960E94701E0E94B9
:104BB000D71D6093E6047093E7048093E804909314
:104BC000E9042091F104C090E204D090E304E09065
:104BD000E404F090E504DC01CB018C199D09AE09D9
:104BE000BF0921110DC0883B9B40A105B10508F408
:104BF00056C084E090E09093EB048093EA04EAC30B
:104C0000843F51E09507A105B10530F1809105027F
:104C100090910602029729F520910702309108022F
:104C2000220F331F4091030250910402C901841BDB
:104C3000950B2417350719F08B30910591F44091AD
:104C4000E0045091E104209101023091020264E0FD
:104C500070E0621B730BBCC38C329140A105B1059F
:104C6000F0F06091050270910602209107023091E8
:104C700008024091E0045091E104660F771F809193
:104C8000010290910202681B790BC901880F991FDC
:104C90002091030230910402821B930B99C38091EF
:104CA000AD0A81110AC48091940A811106C48091D1
:104CB000B20A811117C48091990A811113C480919D
:104CC000B70A811124C480919E0A811120C4809169
:104CD000A80A811130C480918F0A81112CC47AC333
:104CE0000E94D71D6093E6047093E7048093E80464
:104CF0009093E9044091E2045091E3046091E4044C
:104D00007091E5042AE0CE014E960E94751E4091F6
:104D1000E6045091E7046091E8047091E9042AE008
:104D2000CE01CB960E94751E64E274E0CE01885AD3
:104D30009F4F0E94EE1EBE01655C7F4FCE01885AD8
:104D40009F4F0E94461E65E973E00E942D1EBE0122
:104D5000625E7F4F0E94461EBC01CE0101960E94FA
:104D6000E51ECE0101960E94A80CCE0101960E947C
:104D7000701ECE01885A9F4F0E94701ECE01CB96A6
:104D80000E94701ECE014E960E94701E8091E60415
:104D90009091E704A091E804B091E9048093E204C3
:104DA0009093E304A093E404B093E5040E940E0AF8
:104DB0001092F1041093EB040093EA044091E00494
:104DC0005091E10420910502309106028091070282
:104DD000909108024130510569F5232B89F49C011B
:104DE000215031092330310528F44FEF5FEF61E0A6
:104DF00070E010C004974FEF5FEF61E070E012C009
:104E00009C01215031092330310538F44FEF5FEF19
:104E100063E070E082E090E0DBC204974FEF5FEF69
:104E200063E070E0039718F484E090E0D1C288E07A
:104E300090E0CEC2232B89F49C0128503109233005
:104E4000310528F441E050E061E070E010C00597C2
:104E500041E050E061E070E012C09C01285031094F
:104E60002330310538F441E050E064E070E089E03F
:104E700090E0AEC2059741E050E064E070E0039737
:104E800018F487E090E0A4C283E090E0A1C20E9401
:104E9000D71D6093E6047093E7048093E804909331
:104EA000E9040E94D01082EE93E00E94230A10923F
:104EB000F1041093EB040093EA0460E080E00E94A8
:104EC000020F80910702909108024091E2045091F4
:104ED000E3046091E4047091E504892B09F091C02A
:104EE0008091EF049091F00401969093F0048093E8
:104EF000EF042AE0CE014E960E94751E4091E60412
:104F00005091E7046091E8047091E9042AE0CE0131
:104F1000CB960E94751E61E374E0CE01885A9F4FC4
:104F20000E94EE1EBE01655C7F4FCE01885A9F4FE6
:104F30000E94461E65E973E00E942D1EBE01625E5E
:104F40007F4F0E94461EBC01CE0101960E94E51EC5
:104F5000CE0101960E94A80CCE0101960E94701EFF
:104F6000CE01885A9F4F0E94701ECE01CB960E94A0
:104F7000701ECE014E960E94701E6091EF047091DB
:104F8000F0044AE0CE0101960E94AD1E6091ED044E
:104F90007091EE044AE0CE014E960E94AD1E60E490
:104FA00074E0CE01CB960E94EE1EBE01625E7F4F82
:104FB000CE01CB960E94461E6AEC74E00E942D1E24
:104FC000BE016F5F7F4F0E94461E69EC74E00E9435
:104FD0002D1EBC0182E89AE00E94031FCE01CB96F1
:104FE0000E94701ECE014E960E94701ECE01019648
:104FF0000E94701E41E050E062E070E085E090E0C9
:1050000090C08091ED049091EE0401969093EE048F
:105010008093ED042AE0CE014E960E94751E4091C9
:10502000E6045091E7046091E8047091E9042AE0F5
:10503000CE01CB960E94751E6BE474E0CE01885AB7
:105040009F4F0E94EE1EBE01655C7F4FCE01885AC5
:105050009F4F0E94461E65E973E00E942D1EBE010F
:10506000625E7F4F0E94461EBC01CE0101960E94E7
:10507000E51ECE0101960E94A80CCE0101960E9469
:10508000701ECE01885A9F4F0E94701ECE01CB9693
:105090000E94701ECE014E960E94701E6091EF0419
:1050A0007091F0044AE0CE0101960E94AD1E60911D
:1050B000ED047091EE044AE0CE014E960E94AD1EC2
:1050C0006CE574E0CE01CB960E94EE1EBE01625EDE
:1050D0007F4FCE01CB960E94461E6AEC74E00E9480
:1050E0002D1EBE016F5F7F4F0E94461E69EC74E06B
:1050F0000E942D1EBC0182E89AE00E94031FCE018F
:10510000CB960E94701ECE014E960E94701ECE015C
:1051100001960E94701E4FEF5FEF62E070E086E044
:1051200090E00E94CA0C8091E6049091E704A0915F
:10513000E804B091E9048093E2049093E304A0931F
:10514000E404B093E50446C10E94D71D6093E604D1
:105150007093E7048093E8049093E9044091E2049B
:105160005091E3046091E4047091E5042AE0CE01DB
:105170004E960E94751E4091E6045091E70460919E
:10518000E8047091E9042AE0CE01CB960E94751ED6
:1051900067E674E0CE01885A9F4F0E94EE1EBE0162
:1051A000655C7F4FCE01885A9F4F0E94461E65E97D
:1051B00073E00E942D1EBE01625E7F4F0E94461E5C
:1051C000BC01CE0101960E94E51ECE0101960E940F
:1051D000A80CCE0101960E94701ECE01885A9F4FE6
:1051E0000E94701ECE01CB960E94701ECE014E967C
:1051F0000E94701E8091E6049091E704A091E8045B
:10520000B091E9048093E2049093E304A093E40452
:10521000B093E5040E940E0A1092F1041093EB047F
:105220000093EA042091E0043091E10480910702A8
:10523000909108022130310511F58B30910529F448
:105240004FEF5FEF62E070E03CC0892B09F0C2C015
:1052500080910502909106029C0123503109223071
:10526000310528F44FEF5FEF63E070E00EC0029766
:1052700008F0B0C04FEF5FEF61E070E006C000974C
:1052800039F441E050E062E070E081E090E0A0C0DD
:105290000B9709F09FC080910502909106029C0136
:1052A000235031092230310528F441E050E063E019
:1052B00070E007C0029708F08DC041E050E061E067
:1052C00070E08AE090E084C00E94D71D6093E604FD
:1052D0007093E7048093E8049093E9044091E2041A
:1052E0005091E3046091E4047091E5042AE0CE015A
:1052F0004E960E94751E4091E6045091E70460911D
:10530000E8047091E9042AE0CE01CB960E94751E54
:105310006DE774E0CE01885A9F4F0E94EE1EBE01D9
:10532000655C7F4FCE01885A9F4F0E94461E65E9FB
:1053300073E00E942D1EBE01625E7F4F0E94461EDA
:10534000BC01CE0101960E94E51ECE0101960E948D
:10535000A80CCE0101960E94701ECE01885A9F4F64
:105360000E94701ECE01CB960E94701ECE014E96FA
:105370000E94701E8091E6049091E704A091E804D9
:10538000B091E9048093E2049093E304A093E404D1
:10539000B093E5040E940E0A1092F1041093EB04FE
:1053A0000093EA048091E0049091E104813091053A
:1053B00039F44FEF5FEF62E070E086E090E008C004
:1053C000019641F441E050E062E070E085E090E059
:1053D0000E94CA0C0E940515BBC98091A30A8823AC
:1053E00089F160E080E00E94020F60E573E082E8EE
:1053F0009AE00E943A1F61E080E00E94020F61E69D
:1054000073E082E89AE00E943A1F4091E2045091D2
:10541000E3046091E4047091E5042AE0CE014E9625
:105420000E94751E4091E6045091E7046091E804E3
:105430007091E9042AE0CE01CB960E94751E62E7C6
:1054400073E0DFCA8091BC0A34E6C31AD108E108D0
:10545000F108882309F40BCA60E080E00E94020F83
:105460006DE973E082E89AE00E943A1F61E080E013
:105470000E94020F6EEA73E082E89AE00E943A1FEF
:105480004091E2045091E3046091E4047091E504DA
:105490002AE0CE014E960E94751E4091E60450917E
:1054A000E7046091E8047091E9042AE0CE01CB960C
:1054B0000E94751E6FEB73E004CB8091E004909125
:1054C000E10460910502709106022091070230917B
:1054D0000802AC01820F931F0E94CA0C81E08093E6
:1054E000F104E5CB2091E0043091E10460910502E4
:1054F000709106028091070290910802A901821B17
:10550000930B0E94CA0C81E08093F104D8CB4091A8
:10551000E0045091E1046091050270910602640F6D
:10552000751F80910702909108020E94CA0C81E0C9
:105530008093F104CCCB4091E0045091E104609160
:10554000050270910602641B750B80910702909111
:1055500008020E94CA0C81E08093F1043BCFCF92F5
:10556000DF92EF92FF920F931F93CF93DF93E8E5C3
:10557000F9E01382128288EEC82E83E0D82EE12C47
:10558000F12CC482D582E682F7828AE992E0918387
:105590008083E4E6F9E013821282C482D582E68237
:1055A000F7828CEA92E09183808385EC90E0958786
:1055B000848784EC90E09787868780EC90E0918BDD
:1055C000808B81EC90E0938B828B82EC90E0958BCA
:1055D000848B86EC90E0978B868B118E128E138EC7
:1055E000148EE1E0FAE080E580831182E3E0FAE0E6
:1055F00013821282C482D582E682F7820AEC12E01C
:1056000011830083128E118E1486EEE1FAE015826A
:1056100016821186138682E090E0A0E0B0E08487D5
:105620009587A687B78713A215A614A68EEB92E0DE
:1056300093A782A717A6EBEBFAE086E38483CFE07B
:10564000C38362E00E94611DE6EBFAE087E3848396
:10565000C38362E00E94611DE1EBFAE088E384838A
:10566000C38362E00E94611DECEAFAE089E384836F
:10567000C38362E00E94611DE7EAFAE08AE3848363
:10568000C38362E00E94611DE2EAFAE08BE3848357
:10569000C38362E00E94611DEDE9FAE08CE384833C
:1056A000C38362E00E94611DE8E9FAE08DE3848330
:1056B000C38362E00E94611DE3E9FAE08EE3848324
:1056C000C38362E00E94611DEEE8FAE0DFE3D48369
:1056D000C38362E08FE30E94611DE2E8FAE0138277
:1056E00012828EEE92E091838083D48380E1818761
:1056F00082E082871386E7E6FAE013821282C48290
:10570000D582E682F78211830083128E118E148671
:10571000DF91CF911F910F91FF90EF90DF90CF908D
:1057200008958F929F92AF92BF92CF92DF92EF92A5
:10573000FF92CF93DF93EC01688179818A819B810D
:10574000611571058105910521F464E279ED8BE520
:1057500097E02DE133EF41E050E00E94582C4901E1
:105760005A019B01AC01A7EAB1E40E94772C6B01BE
:105770007C01ACEEB4EFA50194010E94852CDC0104
:10578000CB018C0D9D1DAE1DBF1DB7FF03C0019742
:10579000A109B04888839983AA83BB83BC01CD014A
:1057A0009F77DF91CF91FF90EF90DF90CF90BF90E8
:1057B000AF909F908F9008950C94912B80E192E090
:1057C0000C94912B6093100270931102809312023B
:1057D0009093130208954532510520F4423010F0A1
:1057E0000C94F62BFB011082CB010895BB274A30A5
:1057F00031F4992322F4BDE2909581959F4F0C944A
:105800002F2C2532310520F4223010F00C940C2C72
:10581000FA011082CA010895BB27FA01A62F621768
:10582000710581059105330B30FB66F0AA27660FE1
:10583000771F881F991FAA1FA21710F0A21B63953C
:105840003850A9F7A05DAA3308F0A95DA19336F7F7
:10585000B111B1931082CA010C94482CBB27FB01F3
:105860005527AA27880F991FAA1FA41710F0A41B59
:1058700083955051B9F7A05DAA3308F0A95DA193B3
:10588000009779F7B111B1931192CB010C94482C88
:10589000DC01FC01672F71917723E1F7329704C097
:1058A0007C916D9370836291AE17BF07C8F3089522
:1058B000052E97FB1EF400940E946F2C57FD07D015
:1058C0000E948A2C07FC03D04EF40C946F2C509548
:1058D0004095309521953F4F4F4F5F4F08959095DC
:1058E0008095709561957F4F8F4F9F4F08950E94CF
:1058F000AC2CA59F900DB49F900DA49F800D911D81
:1059000011240895B7FF0C94772C0E94772C821BEA
:10591000930B0895A1E21A2EAA1BBB1BFD010DC01B
:10592000AA1FBB1FEE1FFF1FA217B307E407F5074F
:1059300020F0A21BB30BE40BF50B661F771F881F2B
:10594000991F1A9469F760957095809590959B01C1
:10595000AC01BD01CF010895A29FB001B39FC0016A
:10596000A39F700D811D1124911DB29F700D811D8B
:105970001124911D0895EE0FFF1F881F8BBF079004
:10598000F691E02D1994CF93DF938230910510F4B6
:1059900082E090E0E091190BF0911A0B20E030E0EA
:1059A000C0E0D0E0309711F140815181481759078C
:1059B000C0F04817590761F482819381209719F04C
:1059C0009B838A832BC090931A0B8093190B26C05C
:1059D0002115310519F04217530718F49A01BE0139
:1059E000DF01EF010280F381E02DDCCF21153105CD
:1059F00009F1281B390B2430310590F412968D9152
:105A00009C9113976115710521F0FB0193838283AB
:105A100004C090931A0B8093190BFD01329644C079
:105A2000FD01E20FF31F81939193225031092D93D1
:105A30003C933AC02091170B3091180B232B41F463
:105A400020911602309117023093180B2093170BF8
:105A500020911402309115022115310541F42DB722
:105A60003EB74091180250911902241B350BE0916A
:105A7000170BF091180BE217F307A0F42E1B3F0B46
:105A80002817390778F0AC014E5F5F4F24173507B0
:105A900048F04E0F5F1F5093180B4093170B8193E4
:105AA000919302C0E0E0F0E0CF01DF91CF91089543
:105AB0000F931F93CF93DF93009709F48CC0FC01E1
:105AC0003297138212820091190B10911A0B011553
:105AD000110581F420813181820F931F2091170BD2
