:100000000C9473010C94A4010C94A4010C94A4010D
:100010000C94A4010C94A4010C94A4010C94A401CC
:100020000C94A4010C94A4010C94A4010C94A401BC
:100030000C94A4010C94A4010C94A4010C94BC088D
:100040000C949D070C94A4010C94A4010C94A4019D
:100050000C9436070C94A4010C94A4010C94961DE6
:100060000C94A4010C941D150C94F3140C94A4018D
:100070000C94A4010C94A4010C94A4010C949D076D
:100080000C94A4010C94A4010C94A4010C943607C4
:100090000C94A4010C94A4010C94A4010C94C71119
:1000A0000C94A4010C949D070C94A4010C94A4013D
:1000B0000C94A4010C9436070C949D070C94A40195
:1000C0000C94A4010C94A4010C9436070C94A40184
:1000D0000C94A4010C94A4010C94A4010C94A4010C
:1000E0000C94A401D91CDC1CCB1CCF1CD51C131DEB
:1000F000E01CE41CEA1CEE1CF21CF81CFC1C001D9D
:10010000131D061D0A1D0E1D0C940A1D0C94E01CE7
:100110000C94CB1C0C94C7010C94F1140C94DD01CD
:100120000C94CF1C0C94300E0C94D1090C94001D2F
:100130000C94D91C0C940A020C94D51C0C944F14EA
:100140000C9476020C94560E0C94131D0C940E1DF8
:100150000C94FC1C0C94E7130C94860E0C9423292D
:100160000C94A6010C94E41C0C94EE1C0C9400025C
:100170000C940B1C0C94F6130C94310E0C94EA1C8A
:100180000C94F21C0C944E0E0C94DC1C0C940A146F
:100190000C943F0E0C94061D0C94F81C0C9418142F
:1001A0000C94DE010C9496140C9434020C94C8192F
:1001B0000C94E1017C3C3E5E2B3D3F2F5B5D3B2C74
:1001C0002A225C0000002200250028002B002E00BF
:1001D0003100340002010000050108010B0100009C
:1001E00020002300260029002C002F0032000001EF
:1001F00000000301060109010505050507050808BA
:100200000808020202020A0A0808040404040101A0
:1002100001010101010103030303030303030407B5
:1002200007070C0C0C0C0C0C0C0C0202020206064C
:100230000606060606060B0B0B0B0B0B0B0B01023F
:1002400010202008081020401020408002010201E8
:1002500008040201010204081020408080402010A0
:1002600008040201800402018040201008040201F9
:100270000804020101020408102040800102040861
:100280001020408000000A0B02090C0D0E08070325
:100290000401000000000000000000000000000059
:1002A000000000000000000000000000000000004E
:1002B000121110000000000000000000000000000B
:1002C00000000000000000000000000021002400E9
:1002D00027002A002D003000330001010000040136
:1002E00007010A01232911241FBECFEFD1E2DEBF8F
:1002F000CDBF00E00CBF14E0A0E0B2E0E2E1FBE51E
:1003000000E00BBF02C007900D92A03BB107D9F7E8
:100310002AE0A0EBB4E001C01D92A93FB207E1F7CB
:1003200011E0C3E7D1E000E006C021970109802F6A
:10033000FE010E942D2BC237D10780E00807A9F7E4
:100340000E94EF1E0C94872D0C940000DC0159963E
:10035000ED91FC915A973097B9F083899489A589DA
:10036000B6894285538564857585841B950BA60BDC
:10037000B70B811520E89207A105B10538F08FEF82
:100380009FE7A0E0B0E0089580E090E00895CF936B
:10039000DF931F92CDB7DEB76983DC01ED91FC914D
:1003A0000280F381E02D41E050E0BE016F5F7F4F9E
:1003B00019950F90DF91CF910895089580E090E016
:1003C0000895FC01818D928D009711F00C946417B3
:1003D0000895CF93DF931F92CDB7DEB741E050E091
:1003E000BE016F5F7F4F0E94D919019719F489816F
:1003F00090E002C08FEF9FEF0F90DF91CF910895B3
:10040000FC01818D928D009711F00C94E9018FEF22
:100410009FEF08950F931F93CF93DF93FC01818D7E
:10042000928D0097B9F0EF010E94E9018C010F3F16
:100430008FEF180791F0898D9A8DFC0142855385C5
:100440006485758541505109610971090E94A2179F
:10045000C80105C080E090E002C08FEF9FEFDF9100
:10046000CF911F910F910895CF93DF93EC01898D68
:100470009A8D009739F481E090E09B838A8380E035
:1004800090E00BC0FC01138212820E943818E98DA3
:10049000FA8D22813381232B71F7DF91CF9108955B
:1004A0000F931F93CF93DF93EC01088110E08C81B1
:1004B0000E94F9120817190711F01A820FC08A81D9
:1004C0008F5F8A839B81891748F0888191E0892713
:1004D00088831A82882321F0998302C080E001C0BA
:1004E00081E0DF91CF911F910F91089589E99AE002
:1004F0000E94500284E99AE00E9450028FE89AE03C
:100500000E9450028AE89AE00E94500285E89AE030
:100510000E94500280E89AE00E9450028BE79AE025
:100520000E94500286E79AE00E94500281E79AE01A
:100530000E9450028CE69AE00C945002CF93DF9315
:10054000EC010E946417882311F01D8281E0DF9185
:10055000CF9108953F924F925F926F927F928F92C8
:100560009F92AF92BF92CF92DF92EF92FF920F9342
:100570001F93CF93DF93CDB7DEB72C970FB6F894C8
:10058000DEBF0FBECDBF5C01DC015B968D909C9001
:100590005C971696CD90DD90ED90FC901997C11464
:1005A000D104E104F10439F0BFEFCB1ADB0AEB0A06
:1005B000FB0A312C07C0F401C080D180E280F380B7
:1005C00033243394F40181859285A385B4859C01FD
:1005D000AD012F5F3F4F4F4F5F4F29873A874B87C2
:1005E0005C87260137011D821E821F821886F40156
:1005F00081859285A385B4852D813E814F81588563
:10060000281739074A075B0708F063C089859A8570
:10061000AB85BC858C159D05AE05BF0550F482E009
:10062000C82ED12CE12CF12C92E0492E512C612CBA
:10063000712C9E012F5F3F4FB701A601C4010E949C
:100640007716882309F445C089819A81AB81BC81E2
:10065000892B8A2B8B2B41F0260137019FEF491AFA
:10066000590A690A790A05C0C414D504E604F704D6
:1006700091F02D813E814F8158852F5F3F4F4F4F25
:100680005F4F2D833E834F8358873FEFC31AD30AB2
:10069000E30AF30AACCF0FEF1FEF2FEF3FE0B301F8
:1006A000A201C4010E94D715882399F0D50116969E
:1006B0004D915D916D917C911997411551056105A1
:1006C000710549F093018201C4010E94D71581117F
:1006D00002C080E02AC0D50116964D925D926D92BF
:1006E0007C921997332051F0D301C2010196A11DCC
:1006F000B11DF40180839183A283B383F5018789BF
:10070000908DA18DB28D892B8A2B8B2B69F4D5010D
:1007100057964D925D926D927C925A9714968C9159
:100720001497806814968C9381E02C960FB6F894F9
:10073000DEBF0FBECDBFDF91CF911F910F91FF9014
:10074000EF90DF90CF90BF90AF909F908F907F9071
:100750006F905F904F903F9008954F925F926F928D
:100760007F929F92AF92BF92CF92DF92EF92FF92D1
:100770000F931F93CF93DF93CDB7DEB72B970FB6B1
:10078000F894DEBF0FBECDBF7C01DC011596AC90A6
:10079000A1108AC1FE0131966F0190E28BE08E0FAD
:1007A00091938E13FDCFDA0130E087E09D9199237C
:1007B00039F19E3219F0E4EBF1E00AC08A3009F415
:1007C00074C138E08AE0F2CF3196491709F46DC15F
:1007D00044914111F9CF831708F467C14FED490FD8
:1007E0004E3508F062C141E0430FF601E30FF11D01
:1007F0003FE9390F3A3108F490529083342FD6CF25
:100800008981803209F451C1B22E8B01DB015B96E4
:100810008D919C915C97F701948F838F16961D9212
:100820001D921D921C921997FB0112861386148645
:100830001586712CF80182859385A485B585438939
:1008400054896589768984179507A607B70708F044
:1008500061C025E0B695A795979587952A95D1F71C
:10086000F82FFF706F2ED80115968C91823008F406
:100870001CC1C8010E94E90197FD17C1F8018285DA
:100880009385A485B5854F96A11DB11D8287938759
:10089000A487B587F0E26F9EC0011124BC016B5D97
:1008A000784F6115710509F400C1DB012C912223F9
:1008B00019F0253EC1F427C071100EC0F701628AFD
:1008C00040910C0250910D0260910E0270910F0246
:1008D00046875787608B718BFC01EB5DF84F8081F9
:1008E000811113C015C04BE050E0C6010E94502D8D
:1008F000892B09F09FCF8B2D8073803309F4D5C0ED
:100900004B2D662DCCC07720C9F27724739492CFFB
:10091000772473948B2D8271823109F0C6C07720C1
:10092000D1F0D7011E966D917D918D919C9151973B
:1009300041E00E948E15882309F4B7C0F70162894F
:10094000F0E26F9FB00111246B5D784F6115710566
:1009500009F079C0AAC0D80115968C91823009F4AB
:10096000A4C0C8010E94AA02882309F49EC0D8012D
:100970005B96ED91FC915C9716964D905D906D9015
:100980007C901997B2E04B1A5108610871080584F0
:1009900004C0440C551C661C771C0A94D2F786854B
:1009A0009785A089B189480E591E6A1E7B1E9480C6
:1009B000E1E04E1A510861087108992009F10E947E
:1009C0005315882309F471C0E5E2F7E0119229E09C
:1009D000E532F207D9F7D301C201890D911DA11D9E
:1009E000B11D80930C0290930D02A0930E02B09360
:1009F0000F028091E70A81608093E70A9A94DDCF25
:100A0000D8015B96ED91FC915C9780E092E0A0E0CC
:100A1000B0E0058404C0880F991FAA1FBB1F0A9469
:100A2000D2F7F8014389548965897689840F951F27
:100A3000A61FB71F838B948BA58BB68BD7015296BD
:100A40001C9265E277E080E2FB0111928A95E9F75A
:100A50008BE0F601DB0101900D928A95E1F781E2CE
:100A600098E2DB0151969C938E93509720E038E0FA
:100A70001F963C932E931E9753969C938E9352975A
:100A800059969C938E93589757963C932E935697CE
:100A90000E945315882349F04B2DF7016289C70145
:100AA0000E94DE1AA82E01C0A12C8A2D2B960FB60B
:100AB000F894DEBF0FBECDBFDF91CF911F910F9194
:100AC000FF90EF90DF90CF90BF90AF909F907F907E
:100AD0006F905F904F9008958FB7F8948091DF06E4
:100AE0008FBF089561E0FC0184810E9422138091F0
:100AF000DE0681111092DE0608958EBD00000DB451
:100B000007FEFDCF8EB508958FEF0C947D050F93F2
:100B10001F93CF93DF93EB010E948A1D8B010E94EC
:100B200084058F3F49F00E948A1D601B710B6C1772
:100B30007D07A8F380E001C081E0DF91CF911F9194
:100B40000F910895CF93DF93EC018E81882389F074
:100B50008F8198859C012F5F3F4F38872F8382308C
:100B6000924018F40E948405F3CFCE010E947205D2
:100B70001E82DF91CF9108958CBD9DBD0895CF93C6
:100B8000DF93EC018091DE06811109C081E0809342
:100B9000DE068091DF099091E0090E94BC0560E0CB
:100BA0008C81DF91CF910C942213CF92DF92FF9230
:100BB0000F931F93CF93DF9300D01F92CDB7DEB773
:100BC0006C01F62E29833A834B835C830E94A20535
:100BD000C6010E94BF056CE271E0C6010E94870554
:100BE0008F2D80640E947D0508E110E05C814B81BF
:100BF0003A812981DA01C901002E04C0B695A79572
:100C0000979587950A94D2F729833A834B835C831F
:100C10000E947D050850110929813A814B815C8130
:100C2000083F8FEF180731F7FF2029F0E8E0FE12A8
:100C300004C087E803C085E901C08FEF0E947D05ED
:100C400010E00E948405F601828787FF04C01F3FE1
:100C500011F01F5FF6CF0F900F900F900F90DF9164
:100C6000CF911F910F91FF90DF90CF900895AF9299
:100C7000BF92CF92DF92EF92FF920F931F93CF9389
:100C8000DF93EC016901C801820F931F813092400C
:100C900008F070C08E81882371F088819981AA81C3
:100CA000BB81481759076A077B0729F48F8198850C
:100CB000C816D906B0F5488359836A837B838B8530
:100CC000833039F089E0440F551F661F771F8A95DE
:100CD000D1F79A01AB0161E1CE010E94D5058823CD
:100CE00019F083E08D8346C00E948A1D5B010E943B
:100CF00084058A878F3F49F40E948A1D6A197B09FF
:100D00006D327140A0F38FE003C08E3F31F08DE073
:100D10008D83CE010E9472052DC018861F8281E04E
:100D20008E838F8198858C159D0540F40E948405E3
:100D30008F819885019698878F83F3CF6701E00EA6
:100D4000F11ECE14DF0431F00E948405F601819378
:100D50006F01F7CF8F819885080F191F18870F83B0
:100D60008985882319F00115124048F0CE010E94B0
:100D7000A20505C0CE010E94720580E001C081E09D
:100D8000DF91CF911F910F91FF90EF90DF90CF9067
:100D9000BF90AF900895EF92FF920F931F93CF9360
:100DA000DF93EC017901411551056105710511F4DD
:100DB00082E13CC08B85833039F089E0440F551FB8
:100DC000661F771F8A95D1F79A01AB0168E1CE01C2
:100DD0000E94D505882311F084E028C08EEF0E9480
:100DE0007D0587018EEFF81AF80181918F010E942D
:100DF0007D050E151F05C1F78FEF0E947D058FEF52
:100E00000E947D050E9484058A878F71853031F0AC
:100E100081E18D83CE010E94720509C068E572E010
:100E2000CE010E948705811107C085E18D83CE0127
:100E30000E94720580E013C020E030E0A9016DE05F
:100E4000CE010E94D505811104C00E94840588232B
:100E500011F084E1EBCFCE010E94720581E0DF91B9
:100E6000CF911F910F91FF90EF9008951F920F92D5
:100E70000FB60F9211240BB60F928F939F93AF93DF
:100E8000BF93CF93DF93EF93FF9380910B0286FD87
:100E90003AC08091350990E0880F991FFC01EA590A
:100EA000FD4FA081B181FC01E25AFD4FC081D1818B
:100EB000E091DC068091DB069EEFE99FF0011124B2
:100EC000E80FF11DE152FB4F808190E09983888308
:100ED00011969C938E938091DB068F5F8093DB0647
:100EE0008091DB068E3FD0F01092DB06E091DC06AD
:100EF000F0E0E75FFD4F81E080839091DC06892779
:100F00008093DC060BC09091DD0681E089278093F9
:100F1000DD068091DD06882309F4BBCFFF91EF91B8
:100F2000DF91CF91BF91AF919F918F910F900BBEA9
:100F30000F900FBE0F901F9018951F920F920FB633
:100F40000F9211240BB60F922F933F934F935F9301
:100F50006F937F938F939F93AF93BF93EF93FF9381
:100F6000E091DC0681E0E827F0E0E75FFD4F90814B
:100F7000992309F468C09091DC0689278093DE04E8
:100F8000E0913509F0E0EE0FFF1FEA58FD4F0190A8
:100F9000F081E02D80818F7D8083789481EE99E0CF
:100FA0000E94A6012091DC043091DD042817390746
:100FB00028F180910B0283FF07C06CE270E080E0B3
:100FC00090E00E94280F32C0E0913509F0E0EE0F6A
:100FD000FF1FEA58FD4F0190F081E02D80818E7D4A
:100FE0008083E091FA09F091FB09309721F0858127
:100FF00081110E94701010922C0925C06091DE04AE
:101000008EEF689FB001112461527B4F8091FA09E5
:101010009091FB09009721F04EEF50E00E94D91902
:10102000E091DE04F0E0E75FFD4F1082E0913509CA
:10103000F0E0EE0FFF1FEA58FD4F0190F081E02D28
:10104000808180628083FF91EF91BF91AF919F91EA
:101050008F917F916F915F914F913F912F910F9061
:101060000BBE0F900FBE0F901F901895FC01DB0177
:1010700012968D919C911397938382838EEB92E0CD
:101080009183808314968C911497848315968C9108
:101090001597858316964D915D916D917C91199769
:1010A00046835783608771871A964D915D916D9144
:1010B0007C911D9742875387648775871E964D9153
:1010C0005D916D917C91519746875787608B718BAD
:1010D00052968C915297828B53964D915D916D9162
:1010E0007C915697438B548B658B768B57964D919D
:1010F0005D916D917C915A97478B508F618F728F64
:101100005B968D919C915C97948F838F0895EF925D
:10111000FF920F931F93CF93DF93EC017B018A0122
:101120001B821A8288EE93E0A0E0B0E08C839D835E
:10113000AE83BF838AEC92E0998388838DE190E04F
:101140000E94352B9A8F898F009779F02DE1F70156
:10115000DC0101900D922A95E1F74CE050E0B801D6
:10116000CE010C960E94782D188EDF91CF911F91A1
:101170000F91FF90EF9008951F920F920FB60F926C
:1011800011240BB60F922F933F934F935F936F935E
:101190007F938F939F93AF93BF93EF93FF93809130
:1011A000B6049091B7048093B2008091B9049091F5
:1011B000BA04A091BB04B091BC040196A11DB11D5D
:1011C0008093B9049093BA04A093BB04B093BC0479
:1011D0008091B9049091BA04A091BB04B091BC0471
:1011E0004091B2045091B3046091B4047091B5047D
:1011F00084179507A607B70710F18091B8048111ED
:101200001EC081E08093B8048091B9049091BA0423
:10121000A091BB04B091BC04841B950BA60BB70B2B
:101220008093B9049093BA04A093BB04B093BC0418
:10123000E091B004F091B10419951092B804FF91B7
:10124000EF91BF91AF919F918F917F916F915F913E
:101250004F913F912F910F900BBE0F900FBE0F90AB
:101260001F901895CF93FC01C48121E020930007C3
:10127000C093DB0410922B0910922A098385682BF6
:1012800086E399E00E94860E80912A09813208F057
:1012900046C0909129099111FCCF92E090932909C1
:1012A00091E0909328099FEF9093010710922307F4
:1012B00080932207A0EEB6E022E037E0F9019E2FEE
:1012C000921B981718F49D919193F9CF10922407CF
:1012D00080912407CC0FC82BC09324078091270945
:1012E000813061F410922709809124078093BB001C
:1012F0008091BC0083FDF8CF85EC01C085EE809322
:10130000BC00809129098230E1F3809101078F3F71
:1013100031F080910107803211F080910107109225
:101320002B0910922A0910920007CF9108950F936C
:101330001F93CF938C01C62F0E9432096C2F6460DB
:10134000C8010E9432096C2F6B7FC8010E943209CC
:1013500083EC90E00197F1F7CF911F910F910895E1
:10136000FF920F931F93CF93DF931F92CDB7DEB7FA
:101370008C01F62E962F907F692F642BC80149832C
:101380000E94970980E1F89EB00111244981642BE5
:10139000C8010F90DF91CF911F910F91FF900C9496
:1013A000970941E00E94B00981E090E00895109211
:1013B0009A0A1092950A1092900A10928B0A109233
:1013C000860A1092810A10927C0A1092770A109273
:1013D000720A10926D0A08952F923F924F925F9277
:1013E0006F927F928F929F92AF92BF92CF92DF9235
:1013F000EF92FF920F931F93CF93DF93CDB7DEB79A
:101400006B970FB6F894DEBF0FBECDBF5C0180E3D3
:101410000E94F912892B09F44BC290912D098091F9
:101420003409981709F4ACC010922C09E0913509E1
:10143000F0E0EE0FFF1FEA58FD4F0190F081E02D24
:1014400080818E7D80830E94600F81110E947010C8
:101450008091350990E0880F991FFC01EA57FD4FF4
:1014600000811181D8012C9127FD20C020910B0211
:10147000206220930B02FC01E258FD4F0190F081A5
:10148000E02D1082F801108261E080912D090E9408
:10149000141D80912D09863009F460C08E3209F444
:1014A00061C0853009F060C081E059C0FC01EA5993
:1014B000FD4FE080F180D7016D917C919B01AB01E4
:1014C000FC01E25AFD4F2F01DC01A65EBD4F3D013C
:1014D000E0913209F0913309D901A61BB70BAE1781
:1014E000BF0720F6D201CD90DC9037FD06C0D901B0
:1014F000E217F30720F4DF0102C0A0E0B0E0F6013C
:10150000B183A08357FD0AC0A0913209B09133097D
:10151000FA01A417B50720F4FD0102C0E0E0F0E0F5
:10152000D7011196FC93EE93F30180809180A091F6
:101530003209B09133091D01F2E32F1A3108EAE0B4
:10154000F0E0D401CD90DC90C214D304D0F33197F5
:10155000C1F7415051092F5F3F4FBACF82E08093CE
:10156000350904C083E0FBCF109235098DB5816049
:101570008DBD8CB58C7F8CBD80912D0980933409F5
:101580000E94831041E0B501CE0101960E946C0FCC
:101590008B819C819093E4098093E3098D819E81E6
:1015A000AF81B8858093E5099093E609A093E70998
:1015B000B093E80989859A85AB85BC858093E90954
:1015C0009093EA09A093EB09B093EC098DE0FE013A
:1015D0003D96ADEEB9E001900D928A95E1F78A8DC6
:1015E0009B8D9093FB098093FA090E94600F8823DA
:1015F00009F45EC168E070E080E090E00E94280F8E
:1016000087E5898381E48A8386E58B8385E48C83FF
:101610008E010F5F1F4F74E0F72EF00E81EE99E000
:101620000E940002F80121918F01022E000C330B61
:101630008217930711F4FE12F1CF68E170E080E0A9
:1016400090E00E94280F81EE99E00E9400029093A2
:1016500031098093300981EE99E00E94000220E078
:1016600030E0382F8091300990913109822B932BF3
:1016700090933109809330096CE270E080E090E053
:101680000E94280F8EEF90E09093DD048093DC049D
:1016900081E080932C09F0900B028F2D8F7780933F
:1016A0000B0280913009909131098B3F9F4A30F0B5
:1016B00080EC9DE5909331098093300920913009A9
:1016C0003091310940E050E0F6FE05C060E075E37E
:1016D0008CE090E004C060E07AE688E190E00E944F
:1016E000CA2A6AE0629FC001639F900D1124909303
:1016F00033098093320981EE99E00E9400028C0147
:1017000081EE99E00E940A02800F911F97FD0196D9
:101710008C0115950795F5FC19C08F2D8F75809359
:101720000B02E0913509F0E0EE0FFF1FEA59FD4F83
:101730000190F081E02D20813181C801992728177F
:10174000390708F086C040E050E040C0809135097C
:1017500090E0880F991FFC01EA59FD4F0190F0813C
:10176000E02D11821082FC01E25AFD4F0190F081C0
:10177000E02D8091320990913309918380830E94FA
:101780003A0FE0913509F0E020E030E0EE0FFF1F66
:10179000E25AFD4F63E572E080913209909133097E
:1017A0002817390708F0B9CFA081B181AC01421BDD
:1017B000530B8417950708F4AC0111965C934E9374
:1017C000CB010197F1F72F5F3F4FE6CFB9016F5F74
:1017D0007F4F6217730728F09B018617970708F45D
:1017E0009C01FA01E152FB4F20834F5F5F4F4E3F58
:1017F000510561F740E050E0B9016F5F7F4F62171C
:10180000730728F09B018617970708F49C01FA01DB
:10181000E352FA4F20834F5F5F4F4E3F510561F710
:101820001092DC061092090210920A021092DB0656
:10183000F8940E943A0FE0913509F0E0EE0FFF1F97
:10184000EA58FD4F0190F081E02D81E28083789489
:101850002FC040E050E0B901615071096817790765
:1018600028F06217730718F49B0101C09C01FA016C
:10187000E152FB4F20834F5F5F4F4E3F510559F7B9
:1018800040E050E0B901615071096817790728F00C
:101890006217730718F49B0101C09C01FA01E3521F
:1018A000FA4F20834F5F5F4F4E3F510559F7B8CF36
:1018B0006B960FB6F894DEBF0FBECDBFDF91CF9110
:1018C0001F910F91FF90EF90DF90CF90BF90AF905E
:1018D0009F908F907F906F905F904F903F902F9050
:1018E0000895CF93DF93209100022223C9F0EC01E9
:1018F000BC0182E499E00E94D91E8091BD04882336
:1019000079F00E948A1D6B557B4F85E49AE00E9416
:10191000ED1EBE0185E49AE0DF91CF910C94D91EB3
:10192000DF91CF910895CF93DF93CDB7DEB7AA971C
:101930000FB6F894DEBF0FBECDBF209107023091E5
:101940000802309304022093030220910502309193
:10195000060230930202209301022091BE043091CE
:10196000BF043093DA042093D90490930802809343
:10197000070270930602609305025093BF044093E0
:10198000BE040E948A1D6093C4047093C5048093B2
:10199000C6049093C7044091C0045091C104609163
:1019A000C2047091C3042AE0CE014F960E94281E03
:1019B0004091C4045091C5046091C6047091C7045D
:1019C0002AE0CE0149960E94281E6091BE047091C3
:1019D000BF044AE0CE0143960E94601E609105025A
:1019E000709106024AE0CE010D960E94601E609141
:1019F0000702709108024AE0CE0107960E94601E1D
:101A00006DE874E0CE0101960E94A11EBE01695FDF
:101A10007F4FCE0101960E94F91D67E974E00E9494
:101A2000E01DBE01635F7F4F0E94F91D67E974E00E
:101A30000E94E01DBE016D5E7F4F0E94F91D6BE3A9
:101A400074E00E94E01DBE01675E7F4F0E94F91D99
:101A500065E973E00E94E01DBE01615E7F4F0E9458
:101A6000F91DBC01CE0185960E94981ECE01859677
:101A70000E94710CCE0185960E94231ECE01019614
:101A80000E94231ECE0107960E94231ECE010D96B2
:101A90000E94231ECE0143960E94231ECE0149962A
:101AA0000E94231ECE014F960E94231E8091C404E3
:101AB0009091C504A091C604B091C7048093C0045E
:101AC0009093C104A093C204B093C3040E94D709A9
:101AD000809107029091080225E0289FF001299F3C
:101AE000F00D11248091050290910602E80FF91F74
:101AF000EE5DFD4F80818F3F19F061E00E9422135F
:101B0000809103029091040225E0289FF001299F13
:101B1000F00D11248091010290910202E80FF91F4B
:101B2000EE5DFD4F60E080810E942213209105024E
:101B300030910602C9018B7F892B19F482E090E075
:101B400014C080910702909108022230310539F4C7
:101B5000009711F00B9769F489E090E006C00097B8
:101B600011F00B9731F483E090E09093C9048093D7
:101B7000C804AA960FB6F894DEBF0FBECDBFDF91A2
:101B8000CF9108950F931F93CF93DF93209100027D
:101B9000222379F18B01EC01BC0182E499E00E94DF
:101BA000D91E60E080E00E94B50E69E974E080E62D
:101BB0009AE00E94ED1E60E080E00E94B50EB80140
:101BC00080E69AE00E94B61E8091BD04882389F0C9
:101BD0000E948A1D6B557B4F85E49AE00E94ED1EA2
:101BE000BE0185E49AE0DF91CF911F910F910C9493
:101BF000D91EDF91CF911F910F91089585ED8093AC
:101C0000BC008091BC0084FDFCCF1092290908958E
:101C10004091C00A262F30E0240F311D21323105BA
:101C2000DCF4209129092430C9F4FC0180E090E023
:101C3000861758F43091C00A2191DC01A256B54FA5
:101C4000A30FB11D2C930196F3CF8091C00A680FAA
:101C50006093C00A80E0089581E0089582E00895CD
:101C6000089581E090E03091E60A2091E50A32176C
:101C700010F480E090E0919581959109089580910C
:101C8000E60A9091E50A891730F48F5F8093E60A9F
:101C900080E090E008958FEF9FEF08958091E50A2E
:101CA00090E02091E60A821B91090895CF92DF927D
:101CB000EF92FF920F931F93CF93DF937C01262F18
:101CC000972F8A0180910007882391F0C62FD72F84
:101CD0006E01C40ED51ECC15DD0571F06991D701DA
:101CE000ED91FC910190F081E02DC7011995F3CFA2
:101CF000642F822F0E94080EC801DF91CF911F919F
:101D00000F91FF90EF90DF90CF900895CF93DF93E6
:101D10001F92CDB7DEB76983209100072223D1F04F
:101D200020912A09203240F021E030E0FC01338389
:101D3000228380E090E015C080912B09E82FF0E02D
:101D4000E052F94F998190838F5F80932B098093A4
:101D50002A0905C061E0CE0101960E94080E81E0CB
:101D600090E00F90DF91CF910895CF93DF93CDB79F
:101D7000DEB728970FB6F894DEBF0FBECDBF28E0C0
:101D8000EEE6F2E0DE01119601900D922A95E1F760
:101D90002091680A261710F46FEF620FFE0131964A
:101DA000E60FF11DE60FF11D9081682F690F606845
:101DB00040E080E69AE028960FB6F894DEBF0FBEAA
:101DC000CDBFDF91CF910C94B0098F929F92AF92CB
:101DD000BF920F931F93CF93DF93CDB7DEB7A19739
:101DE0000FB6F894DEBF0FBECDBF19A2423008F483
:101DF0004AE08E010F5D1F4F842E912CA12CB12C37
:101E0000A50194010E94FC2AE62FB901CA010150E4
:101E10001109EA3014F4E05D01C0E95CD801EC93EB
:101E2000232B242B252B61F7B80180E69AE00E9432
:101E3000C41EA1960FB6F894DEBF0FBECDBFDF91D2
:101E4000CF911F910F91BF90AF909F908F90089569
:101E50002091FA093091FB092115310541F0AB01C0
:101E6000BC01C9010E94A21791E0811101C090E05C
:101E7000892F08958091350990E0880F991FFC0102
:101E8000E257FD4F0190F081E02D20913209309111
:101E9000330931832083FC01EA57FD4F0190F08123
:101EA000E02D82E88083E0913509F0E0EE0FFF1F1E
:101EB000E258FD4F0190F081E02D89E18083089583
:101EC000E091FA09F091FB09309729F08581882388
:101ED00011F081E0089508952F923F924F925F9202
:101EE0006F927F928F929F92AF92BF92CF92DF922A
:101EF000EF92FF920F931F93CF93DF93CDB7DEB78F
:101F0000C756D1090FB6F894DEBF0FBECDBF5C0136
:101F10004B01A6964FAFA6973E018EE1680E711C4D
:101F200066E27AE0C3010E9436081C821B828EEBB7
:101F300092E09A8389831E827401FE0131966F01BB
:101F400023011F016FE270E0C7010E94662D009718
:101F5000F1F1F70120812F3221F4FFEFEF1AFF0A90
:101F6000F1CF8E198D3008F08CE0082F10E0A80119
:101F7000B701CE01885A9F4F0E94782DE8E5F0E026
:101F8000EC0FFD1FE00FF11F1082C6010E949E02A0
:101F900021E0AE01485A5F4FB201C6010E94AD0375
:101FA00081110AC01EAE1DAE8EEB92E09CAF8BAFCE
:101FB00021961FAE219717C0E00EF11EC2010E94AC
:101FC0009E02942D852D2601C92ED82EBBCFC70188
:101FD00088199909A8969FAF8EAFA897B201CE0134
:101FE000CB960E943608A896EEADFFADA8978E0E50
:101FF0009F1EF4018081811109C0BE01655C7F4F85
:10200000C1010E9436084AEA54E04BC019A218A246
:102010008EEB92E09F8F8E8F1BA221968FAD219722
:10202000811113C0F5011382128288EE93E0A0E0C3
:10203000B0E084839583A683B7838AEC92E0918392
:102040008083128E118E148630C08250A6962FADDA
:10205000A697A401823040F466E27AE0C3010E94B0
:10206000AD0381110DC0DECFBE01655C7F4FC301A2
:102070000E94AD038823B1F2CE01CB960E949E024E
:10208000A6968FADA697867039F049A95AA96BA973
:102090007CA9C3010E94A217B301C1010E943608A6
:1020A000A401B101C5010E948708C501C959DF4FCC
:1020B0000FB6F894DEBF0FBECDBFDF91CF911F9159
:1020C0000F91FF90EF90DF90CF90BF90AF909F90D7
:1020D0008F907F906F905F904F903F902F900895DA
:1020E0008091FA099091FB09009761F00E949E028D
:1020F0008091FA099091FB090E94CA2B1092FB096A
:102100001092FA09089510922C09E0913509F0E037
:10211000EE0FFF1FEA58FD4F0190F081E02D808106
:102120008E7D80830E94600F81110C947010089541
:102130008F929F92AF92BF92CF92DF92EF92FF92D7
:10214000CF93DF93C82F8CEF99E09093260980936B
:102150002509CC2369F1C53010F080E00DC140E0C5
:1021600060E070E0CB010E948E158823B1F320E17E
:10217000C29FC00111248B5E984FFC01E254FE4FB8
:1021800020812F7751F73C96408151816281738184
:10219000443651056105710500F33497C080D18044
:1021A000E280F380C114D104E104F10421F4D5CF1D
:1021B000C12CD12C760140E0C701B6010E948E15DA
:1021C000882359F280913007909131078115924010
:1021D00021F6A0913507AA2309F4BFCF60913307F8
:1021E000709134076115710509F4B7CF209132075A
:1021F000222309F4B2CFA0931A0A20930C0A80E09C
:1022000030E0E1E0F0E0C82FAF01082E02C0440F3B
:10221000551F0A94E2F72417350741F0982F8F5F76
:10222000983089F789E08093150A97CF8093150A33
:1022300020913B0730913C072115310519F040E012
:1022400050E008C02091490730914A0740914B0760
:1022500050914C0720930D0A30930E0A40930F0AB9
:102260005093100A46015701860E971EA11CB11CFF
:1022700080921B0A90921C0AA0921D0AB0921E0A1C
:10228000E0913607F0913707F093210AE093200A96
:10229000B0E00E94E92A860E971EA81EB91E809201
:1022A000220A9092230AA092240AB092250A85E07D
:1022B000EE0FFF1F8A95E1F7E150FE4FEF2FFF274A
:1022C000E6958E0E9F1EA11CB11C8092160A90925C
:1022D000170AA092180AB092190A20913807309173
:1022E00039072115310521F0A90160E070E008C02F
:1022F0004091450750914607609147077091480704
:10230000D701C60188199909AA09BB09840F951F2D
:10231000A61FB71F04C0B695A79597958795CA9530
:10232000D2F78093110A9093120AA093130AB093E4
:10233000140A853F2FE09207A105B10510F48CE047
:1023400018C0853F9F4FA105B10510F480E111C071
:102350008091510790915207A0915307B091540773
:102360008093220A9093230AA093240AB093250A0B
:1023700080E280931F0A81E0DF91CF91FF90EF9080
:10238000DF90CF90BF90AF909F908F9008951F9255
:102390000F920FB60F9211240BB60F922F933F930B
:1023A0004F935F936F937F938F939F93AF93BF935D
:1023B000EF93FF938091B900887F803609F49CC029
:1023C00068F5883209F45BC090F4803109F454C098
:1023D00038F4882309F4F6C0883009F44DC0F6C0FB
:1023E000883109F44CC0803209F45DC0EFC08034FC
:1023F00009F468C048F4803309F455C0883309F003
:10240000E5C080930107D8C0803509F44FC08835F6
:1024100009F45DC0883409F0D9C0D6C0883909F400
:10242000C7C0A8F4883709F467C038F4883609F4BF
:1024300063C0803709F460C0C9C0883809F4B8C0E7
:10244000803909F45FC0803809F0C0C05BC0803BB0
:1024500009F486C038F4803A09F466C0883A09F471
:102460007FC0B4C0803C09F4A7C0883C09F4A4C074
:10247000883B09F48AC0AAC08091240710C09091BB
:10248000230780912207981770F5E091230781E0D8
:102490008E0F80932307F0E0EE5FF84F80818093EA
:1024A000BB0085EC86C0809301078EC0E0912307B6
:1024B00081E08E0F809323078091BB00F0E0EE5FF8
:1024C000F84F808390912307809122076EC0E0919E
:1024D000230781E08E0F809323078091BB00F0E0FB
:1024E000EE5FF84F80838091280981116DC081E0F3
:1024F0008093270984EA61C083E0809329091092C0
:10250000E40ACFCF8091E40A803208F051C0E09114
:10251000E40A81E08E0F8093E40A8091BB00F0E032
:10252000EC53F54F8083BDCF85EC8093BC001092B7
:1025300029098091E40A803230F4E091E40AF0E065
:10254000EC53F54F10826091E40A70E0E091C20A0A
:10255000F091C30A84EC9AE019951092E40A36C00F
:1025600084E0809329091092C10A1092C00AE09178
:10257000BE0AF091BF0A19958091C00A811105C069
:1025800081E08093C00A10929E0AE091C10A81E026
:102590008E0F8093C10AF0E0E256F54F8081809360
:1025A000BB009091C10A8091C00A981708F479CFB6
:1025B00085E88093BC000AC085EC8093BC00109233
:1025C000290904C0109201070E94FE0DFF91EF91AE
:1025D000BF91AF919F918F917F916F915F914F913B
:1025E0003F912F910F900BBE0F900FBE0F901F9039
:1025F0001895CF93DF93282F30E0F901EC57FD4F6A
:102600008491F901E25CFD4FD491F901E850FE4F4D
:10261000C491CC2391F081110E94BE1CEC2FF0E0FC
:10262000EE0FFF1FE252FE4FA591B491EC91ED2306
:1026300081E090E021F480E002C080E090E0DF9152
:10264000CF9108951F93CF93DF93282F30E0F901A6
:10265000EC57FD4F8491F901E25CFD4FD491F901F3
:10266000E850FE4FC491CC23C9F0162F81110E946F
:10267000BE1CEC2FF0E0EE0FFF1FEC53FE4FA591B8
:10268000B4918FB7F894111105C09C91ED2FE0958E
:10269000E92302C0EC91ED2BEC938FBFDF91CF913A
:1026A0001F910895CF93DF931092E60A1092E50AE6
:1026B00010922B0910922A091092290981E0809327
:1026C00028091092270961E084E10E94221361E049
:1026D00085E10E9422138091B9008E7F8093B9001A
:1026E0008091B9008D7F8093B90088E48093B80011
:1026F00085E48093BC001092650A80916A0A82305A
:1027000018F098E09093650A8093680A62E370E09D
:1027100080E090E00E94501D60916B0A80E69AE094
:102720000E94320968EE73E080E090E00E94501D44
:1027300060E380E69AE00E949709CBE4D6E4CE01FC
:102740000197F1F760E380E69AE00E9497092197EC
:10275000F1F760E380E69AE00E94970983E592E052
:102760000197F1F760E280E69AE00E949709609194
:10277000650A606240E080E69AE00E94B00984E069
:102780008093660A40E06CE080E69AE00E94B0091F
:1027900040E061E080E69AE00E94B009CBE3DFE12F
:1027A000CE010197F1F782E08093670A40E066E08E
:1027B00080E69AE00E94B00940E062E080E69AE09C
:1027C0000E94B0092197F1F7DF91CF910895FC01A4
:1027D000538D448D252F30E0842F90E0821B930B86
:1027E000541710F0CF96089501970895FC01918D2C
:1027F000828D981761F0828DDF01A80FB11D5D9663
:102800008C91928D9F5F9F73928F90E008958FEFD0
:102810009FEF0895FC01918D828D981731F0828D84
:10282000E80FF11D858D90E008958FEF9FEF0895DB
:10283000FC01918D228D892F90E0805C9F4F821B3F
:1028400091098F739927089582E499E00E941814E2
:1028500021E0892B09F420E0822F0895FC01848D6A
:10286000DF01A80FB11DA35ABF4F2C91848D90E0BA
:1028700001968F739927848FA689B7892C93A08995
:10288000B1898C9180648C93938D848D981306C04C
:102890000288F389E02D80818F7D80830895EF92F7
:1028A000FF920F931F93CF93DF93EC0181E0888F0A
:1028B0009B8D8C8D981305C0E889F989808185FDF1
:1028C00024C0F62E0B8D10E00F5F1F4F0F731127E2
:1028D000E02E8C8DE8120CC00FB607FCFACFE88909
:1028E000F989808185FFF5CFCE010E942E14F1CFAA
:1028F0008B8DFE01E80FF11DE35AFF4FF0820B8F25
:10290000EA89FB898081806207C0EE89FF89608344
:10291000E889F98980818064808381E090E0DF919B
:10292000CF911F910F91FF90EF900895CF93DF9378
:10293000EC01888D8823C9F0EA89FB89808185FDB7
:1029400005C0A889B9898C9186FD0FC00FB607FC18
:10295000F5CF808185FFF2CFA889B9898C9185FF59
:10296000EDCFCE010E942E14E7CFDF91CF910895D5
:1029700080E090E0892B21F00E942414811125C071
:1029800080E090E0892B41F080E090E0892B21F0FD
:102990000E94000081111CC080E090E0892B41F072
:1029A00080E090E0892B21F00E940000811113C08B
:1029B00080E090E0892BA1F080E090E0892B81F00D
:1029C0000E94000081110AC008950E940000D8CF23
:1029D0000E940000E1CF0E940000EACF0C940000AA
:1029E00008950E944B2D1F920F920FB60F92112443
:1029F0000BB60F922F933F934F935F936F937F93F9
:102A00008F939F93AF93BF93EF93FF9382E499E0EB
:102A10000E942E14FF91EF91BF91AF919F918F91E2
:102A20007F916F915F914F913F912F910F900BBECE
:102A30000F900FBE0F901F9018951F920F920FB618
:102A40000F9211240BB60F922F938F939F93EF93B6
:102A5000FF93E0915209F09153098081E091580968
:102A6000F091590982FD12C0908180915B098F5FBE
:102A70008F7320915C09821751F0E0915B09F0E0BF
:102A8000EE5BF64F958F80935B0901C08081FF91CB
:102A9000EF919F918F912F910F900BBE0F900FBED2
:102AA0000F901F9018958091E70A8823A9F1409113
:102AB0000C0250910D0260910E0270910F0225E2FE
:102AC00037E080912509909126090E94CB0681115B
:102AD00002C080E008954091E80A5091E90A6091AF
:102AE000EA0A7091EB0A411551056105710591F0F3
:102AF00025E237E080912509909126090E94CB06B6
:102B0000882339F31092E80A1092E90A1092EA0A2F
:102B10001092EB0A1092E70A81E008958F929F923B
:102B2000AF92BF92EF92FF920F931F93CF934B01FF
:102B30005C01C42F80910C0290910D02A0910E02B5
:102B4000B0910F0288159905AA05BB0501F10E94F5
:102B50005315811102C080E020C085E2E82E87E095
:102B6000F82E00E012E020E030E0B501A4018091F1
:102B70002509909126090E943706882361F38092E7
:102B80000C0290920D02A0920E02B0920F02809160
:102B9000E70AC82BC093E70A81E0CF911F910F91FC
:102BA000FF90EF90BF90AF909F908F9008954F92BD
:102BB0005F926F927F928F929F92AF92BF92CF92CD
:102BC000DF92EF92FF920F931F93CF93DF93EC016D
:102BD0006A017B0128013901423051056105710507
:102BE00010F480E073C089859A85AB85BC85019619
:102BF000A11DB11D84179507A607B70790F38B8811
:102C00009C88AD88BE888F89803129F4BB27AF2D81
:102C10009E2D8D2D09C0DB01CA0147E0B695A79511
:102C2000979587954A95D1F7880E991EAA1EBB1EC7
:102C300080910C0290910D02A0910E02B0910F02B2
:102C400088169906AA06BB0679F48F898031A1F40B
:102C5000DD24EE24FF24C601880F991FFC01EB5DE3
:102C6000F84F5182408219C040E0C501B4010E9472
:102C70008E158111EACFB5CFE894C7F8DD24EE2494
:102C8000FF24C601880F991F880F991FFC01EB5D77
:102C9000F84F40825182628273828091E70A81609C
:102CA0008093E70A8A89823080F08D819E81AF818E
:102CB000B885880E991EAA1EBB1E8092E80A9092C3
:102CC000E90AA092EA0AB092EB0A81E0DF91CF9183
:102CD0001F910F91FF90EF90DF90CF90BF90AF903A
:102CE0009F908F907F906F905F904F9008958F92FC
:102CF0009F92AF92BF92CF92DF92EF92FF920F938B
:102D00001F93CF93DF93FC0181859285A385B485C2
:102D10000196A11DB11D84179507A607B70710F4EA
:102D200080E05CC083899489A589B689C789C03150
:102D300029F4852E962EA72EBB2409C04A015B01DB
:102D4000C7E0B694A79497948794CA95D1F7E90100
:102D50006A017B018F01BC01CD01680D791D8A1DBF
:102D60009B1D80900C0290900D02A0900E02B090DE
:102D70000F02681579058A059B0599F4F801878982
:102D80008031A9F4B701A601552766277727440F9C
:102D9000551FFA01EB5DF84F80819181A0E0B0E012
:102DA00018C040E00E948E158111E8CFB9CFB7015D
:102DB000A6014F77552766277727440F551F440FE5
:102DC000551FFA01EB5DF84F80819181A281B3819B
:102DD000BF7088839983AA83BB8381E0DF91CF9101
:102DE0001F910F91FF90EF90DF90CF90BF90AF9029
:102DF0009F908F9008954F925F926F927F92AF92C3
:102E0000BF92CF92DF92EF92FF920F931F93CF93D7
:102E1000DF9300D01F92CDB7DEB78C0149835A8370
:102E20006B837C835901C12CD12C7601412C82E02B
:102E3000582E612C712C49815A816B817C819E01B5
:102E40002F5F3F4FC8010E947716882351F1D301AD
:102E5000C201F801058404C0880F991FAA1FBB1F77
:102E60000A94D2F7C80ED91EEA1EFB1E49815A8168
:102E70006B817C818789803129F088EF9FEFAFEFEC
:102E8000BFE004C088EF9FEFA0E0B0E0481759070B
:102E90006A077B0780F2F501C082D182E282F38269
:102EA00081E00F900F900F900F90DF91CF911F91C5
:102EB0000F91FF90EF90DF90CF90BF90AF907F90F9
:102EC0006F905F904F900895CF93DF93EC018D81C9
:102ED0008823A1F18C8187FF2DC06E857F8588892D
:102EE000998941E00E948E15882341F1EA8980E2A8
:102EF000E89FF0011124DF01AB5DB84F1097F1F0AE
:102F00008D81823050F44B895C896D897E895C9615
:102F10004D935D936D937C935F978F89988DA98D69
:102F2000BA8DEB5DF84F938F828FB58BA48B8C811C
:102F30008F778C83DF91CF910C94531580E0DF91D4
:102F4000CF9108958F929F92AF92BF92CF92DF92CE
:102F5000EF92FF920F931F93CF93DF93EC018D813C
:102F6000811102C080E077C00B891C892D893E89C0
:102F70000417150726073707A8F36A017B0182307B
:102F800029F4CA86DB86EC86FD860DC0C114D10407
:102F9000E104F10451F41E821F82188619861A86F4
:102FA0001B861C861D8681E056C08A849B84AC8467
:102FB000BD84EB8DFC8D258530E0275F3F4FB5014B
:102FC000A4014150510961097109022E04C076958E
:102FD0006795579547950A94D2F7D701C60101978F
:102FE000A109B10904C0B695A795979587952A952B
:102FF000D2F784179507A607B70720F089288A28F3
:103000008B2849F44F89588D698D7A8D4E835F8363
:103010006887798704C0841B950BA60BB70B4C01FE
:103020005D018E010A5F1F4F81149104A104B10458
:1030300009F4A7CF4E815F816885798598018B8DD2
:103040009C8D0E94771691E0891A9108A108B10819
:103050008111EACF87CFDF91CF911F910F91FF9020
:10306000EF90DF90CF90BF90AF909F908F9008959A
:103070002F923F924F925F926F927F928F929F9288
:10308000AF92BF92CF92DF92EF92FF920F931F9376
:10309000CF93DF9300D01F92CDB7DEB78C015B01D9
:1030A0001A01DC0115968C9115978130C9F414969C
:1030B0008C9181FF15C082FF1BC0F80143895489A0
:1030C0006589768982859385A485B585841795075A
:1030D000A607B70769F0C8010E94A217811108C0AE
:1030E00081E090E0F8019383828380E090E039C131
:1030F000610183C0D8015B968D919C915C97FC0126
:10310000248121502A013B0139E076946794579439
:1031100047943A95D1F7722E74207A01F1E0FF229C
:10312000772009F476C080E092E08E199F0946016D
:103130008C159D0508F44C01D8015B962D913C91AE
:103140005C9716968D919D910D90BC91A02D029744
:10315000A109B109F901058404C0880F991FAA1FAC
:10316000BB1F0A94D2F74685578560897189840F01
:10317000951FA61FB71F9C01AD01270D311D411DD5
:10318000511D29013A01811432E0930609F088C0EB
:1031900080910C0290910D02A0910E02B0910F024D
:1031A00084159505A605B70559F48FEF9FEFDC014F
:1031B00080930C0290930D02A0930E02B0930F0225
:1031C0009501B301A20180912509909126090E94E1
:1031D000CB06882309F484CF9EEFB91AC818D90802
:1031E000F80182859385A485B585880D991DA11D5B
:1031F000B11D82879387A487B587D8011A964D9110
:103200005D916D917C911D97C114D10409F072CF2D
:1032100087C0E114F10409F086CF16964D915D91B7
:103220006D917C911997411551056105710559F40E
:1032300057968D919D910D90BC91A02D0097A10561
:10324000B10541F521C09E012F5F3F4F0E947716C7
:10325000882309F44BCF89819A81AB81BC81F80125
:10326000238D348DF9012789203129F048EF5FEF54
:103270006FEF7FE004C048EF5FEF60E070E084171D
:103280009507A607B70730F0C8010E94AA0281116E
:103290004ACF26CFF80186839783A087B18743CF93
:1032A000E114F10429F5D8011A964D915D916D91C3
:1032B0007C911D9753968D919D910D90BC91A02D61
:1032C000481759076A077B0798F00E94531588230F
:1032D00009F406CF40920C0250920D0260920E0249
:1032E00070920F028091E70A81608093E70A08C01C
:1032F00041E0C301B2010E948E15882309F4F0CE8B
:10330000D501F701EB5DF84FCF01880D991DE81746
:10331000F90719F02D912193FACFA80CB91C5ECFB3
:1033200053968D919D910D90BC91A02D841795077A
:10333000A607B70740F4F801438B548B658B768B57
:10334000848180688483D80114968C9183FD02C0A7
:10335000C10107C0C8010E946417882309F4C0CEC8
:10336000F7CF0F900F900F900F90DF91CF911F919B
:103370000F91FF90EF90DF90CF90BF90AF909F9014
:103380008F907F906F905F904F903F902F90089517
:10339000CF93DF931F92CDB7DEB7698341E050E052
:1033A000BE016F5F7F4F0E9438180F90DF91CF9161
:1033B00008952F923F924F925F926F927F928F92D9
:1033C0009F92AF92BF92CF92DF92EF92FF920F93B4
:1033D0001F93CF93DF93EC016B014A018D81811123
:1033E00003C08FEF9FEFD7C08C8180FFFACF4B884F
:1033F0005C886D887E884A855B856C857D85C40187
:10340000A0E0B0E093018201041B150B260B370BE3
:10341000081719072A073B0718F44201841A950A6E
:1034200054011E0126E0220E311CA114B10409F43E
:103430007EC04A855B856C857D852A0181E05822A6
:10344000ED818A019B0189E03695279517950795AF
:103450008A95D1F78B8D9C8DE23061F4FC01828DD1
:10346000938DA48DB58DBC01CD01600F711F821F9E
:10347000931F3FC0FC0174807A9470224114510460
:10348000C9F4711017C0452B462B472B49F48F897F
:10349000988DA98DBA8D8E839F83A887B9870AC01E
:1034A0004E815F816885798591010E947716882316
:1034B00009F497CFEB8DFC8D8E819F81A885B9850E
:1034C0000297A109B109058404C0880F991FAA1F9A
:1034D000BB1F0A94D2F74685578560897189840F8E
:1034E000951FA61FB71FBC01CD01670D711D811D62
:1034F000911D20E032E02419350935012A153B05DC
:1035000008F439012C8126FD04C06114F2E07F0625
:1035100081F400910C0210910D0220910E02309165
:103520000F026017710782079307B1F402C0C4014C
:1035300032C040E00E948E15882309F452CFF20178
:10354000EB5DF84FD601CF01860D971DE817F907FF
:1035500089F021912D93FACF760183019201AB017D
:10356000BC0180912509909126090E943706882385
:1035700009F437CFC60CD71C8A859B85AC85BD85E1
:10358000860D971DA11DB11D8A879B87AC87BD87BE
:10359000A618B7084ACFDF91CF911F910F91FF90E6
:1035A000EF90DF90CF90BF90AF909F908F907F90E3
:1035B0006F905F904F903F902F9008958F929F92C1
:1035C000AF92BF92CF92DF92EF92FF920F931F9331
:1035D000CF93DF9300D01F92CDB7DEB77C0180E29E
:1035E000689F6001112496012B5D384FD9011B960D
:1035F0009C91917121F0842F827409F097C0142F4F
:10360000F701628B80910C0290910D02A0910E0245
:10361000B0910F0286879787A08BB18BF601EB5D87
:10362000F84F4489558960E070E0BA015527442776
:10363000D70157964D935D936D937C935A97828DE6
:10364000938DA0E0B0E0482B592B6A2B7B2BD70140
:1036500057964D935D936D937C935A97D9011B9622
:103660008C91887159F4848D958DA68DB78DF70155
:10367000838B948BA58BB68B81E012C0803109F0CF
:1036800055C097012D5E3F4FD7015B968D919C9160
:103690005C970E94FB16882309F448C084E0F70178
:1036A0008583812F8F70D70114968C931497F7011F
:1036B00016821782108611861A961D921D921D92EF
:1036C0001C921D9716FF34C015968C91813071F5B0
:1036D00011FF2CC0F7014389548965897689452BF0
:1036E000462B472B09F461C040E050E0BA01C70106
:1036F0000E94A2178823D1F0F7018788908CA18CB3
:10370000B28CC38CD48C82E090E0A0E0B0E0F601F3
:1037100080839183A283B3839E012F5F3F4FB501C6
:10372000A401C6010E947716811104C080E03DC04B
:1037300081E03BC000E010E09801B501A401C601A2
:103740000E94D715882391F389809A80AB80BC8032
:10375000D60157968C91803129F088EF9FEFAFEF1B
:10376000BFE004C088EF9FEFA0E0B0E088169906A4
:10377000AA06BB0688F2D70157961D921D921D928C
:103780001C925A97F701138A148A158A168A848123
:1037900080688483C7010E946417882339F240E05F
:1037A00050E0BA01C7010E94A2170F900F900F902E
:1037B0000F90DF91CF911F910F91FF90EF90DF90CD
:1037C000CF90BF90AF909F908F9008953FB7F8949F
:1037D0008091F10A9091F20AA091F30AB091F40A53
:1037E00026B5A89B05C02F3F19F00196A11DB11D5C
:1037F0003FBFBA2FA92F982F8827820F911DA11D97
:10380000B11DBC01CD0142E0660F771F881F991FD3
:103810004A95D1F70895CF92DF92EF92FF920F93DE
:103820001F93CF93DF936C017A018B01C0E0D0E04E
:10383000CE15DF0589F0D8016D918D01D601ED918E
:10384000FC910190F081E02DC6011995892B11F4AE
:103850007E0102C02196ECCFC701DF91CF911F916D
:103860000F91FF90EF90DF90CF9008950F931F93EB
:10387000CF93DF93EC0188819981009729F02A8109
:103880003B812617370788F48B016F5F7F4F0E94BB
:10389000622C009761F0998388831B830A832C81B3
:1038A0003D81232B11F4FC01108281E001C080E0F6
:1038B000DF91CF911F910F910895EF92FF920F9397
:1038C0001F93CF93DF93FC0124813581611571052E
:1038D00011F480E019C041155105A9F07B01EC01FC
:1038E0008A01020F131FB8010E94361C882389F336
:1038F000288139818C819D81B701820F931F0E949D
:10390000712D1D830C8381E0DF91CF911F910F9169
:10391000FF90EF900895CF93DF93EC018881998118
:10392000009711F00E94CA2B198218821D821C82F6
:103930001B821A82DF91CF910895EF92FF920F932D
:103940001F93CF93DF93EC017B018A01BA010E94A0
:10395000361C811104C0CE010E948B1C07C01D8340
:103960000C83B701888199810E94712DCE01DF916E
:10397000CF911F910F91FF90EF90089590E0FC017F
:103980003197E231F10508F04EC08827EE58FF4F1D
:103990008F4F0C942D2B809180008F7703C08091E6
:1039A00080008F7D80938000089580918000877FC4
:1039B000F9CF84B58F7702C084B58F7D84BD08951B
:1039C0008091B0008F7703C08091B0008F7D80938D
:1039D000B0000895809190008F7707C0809190008B
:1039E0008F7D03C080919000877F80939000089521
:1039F0008091A0008F7707C08091A0008F7D03C0C9
:103A00008091A000877F8093A0000895809120017D
:103A10008F7707C0809120018F7D03C080912001A6
:103A2000877F809320010895CF93DF9390E0FC017E
:103A3000E25CFD4F2491FC01E850FE4F8491882305
:103A400061F190E0880F991FFC01E653FD4FC5918D
:103A5000D491FC01EC53FE4FA591B491611109C0C2
:103A60009FB7F8948881209582238883EC912E2338
:103A70000BC0623061F49FB7F8943881822F809533
:103A800083238883EC912E2B2C939FBF06C08FB786
:103A9000F894E8812E2B28838FBFDF91CF91089572
:103AA0008F929F92AF92BF92CF92DF92EF92FF924E
:103AB0006B017C010E94E61B4B015C01C114D10427
:103AC000E104F104F1F00E94E61BDC01CB0188194E
:103AD0009909AA09BB09883E9340A105B10570F375
:103AE00021E0C21AD108E108F10888EE880E83E0CF
:103AF000981EA11CB11CC114D104E104F10419F7F2
:103B0000DDCFFF90EF90DF90CF90BF90AF909F9070
:103B10008F9008952FB7F8946091ED0A7091EE0A96
:103B20008091EF0A9091F00A2FBF08951F920F9293
:103B30000FB60F9211242F933F938F939F93AF93C0
:103B4000BF938091ED0A9091EE0AA091EF0AB09197
:103B5000F00A3091EC0A23E0230F2D3720F4019670
:103B6000A11DB11D05C026E8230F0296A11DB11DA0
:103B70002093EC0A8093ED0A9093EE0AA093EF0A4B
:103B8000B093F00A8091F10A9091F20AA091F30AA1
:103B9000B091F40A0196A11DB11D8093F10A909392
:103BA000F20AA093F30AB093F40ABF91AF919F91E8
:103BB0008F913F912F910F900FBE0F901F901895EE
:103BC000CF93DF93EC016115710561F0FB0101906A
:103BD0000020E9F73197AF01461B570B0E945D1C8F
:103BE000811103C0CE010E948B1CCE01DF91CF91C9
:103BF0000895CF93DF93EC01FB01448155816081EF
:103C000071810E945D1C811103C0CE010E948B1C3A
:103C1000CE01DF91CF910895CF93DF93EC01FB01AB
:103C20008617970761F0608171816115710529F030
:103C3000448155810E949D1C02C00E948B1CCE01B4
:103C4000DF91CF910895FC01808191810C94CA2B62
:103C5000EF92FF920F931F93CF93DF93CDB7DEB711
:103C6000A1970FB6F894DEBF0FBECDBF8C01CB017C
:103C7000BA01F80111821082138212821582148215
:103C800030E0AE014F5F5F4F7A010E94732AF70167
:103C900001900020E9F73197AF014E195F09B70194
:103CA000C8010E949D1CA1960FB6F894DEBF0FBEFE
:103CB000CDBFDF91CF911F910F91FF90EF900895AD
:103CC000EF92FF920F931F93CF93DF93CDB7DEB7A1
:103CD00062970FB6F894DEBF0FBECDBF8C01CB014B
:103CE000F80111821082138212821582148250E030
:103CF0009E012F5F3F4F7901B9010E945D2AF701B4
:103D000001900020E9F73197AF014E195F09B70123
:103D1000C8010E949D1C62960FB6F894DEBF0FBECC
:103D2000CDBFDF91CF911F910F91FF90EF9008953C
:103D3000FC011182108213821282158214820C946B
:103D40000C1EFC01118210821382128215821482D1
:103D50006115710551F0FB0101900020E9F73197E1
:103D6000AF01461B570B0C949D1C0895DC01ED918F
:103D7000FC91DB0114964D915C9115976D917C91AE
:103D80000280F381E02D19946115710579F0FB0132
:103D900001900020E9F73197AF01461B570BDC017A
:103DA000ED91FC910280F381E02D199480E090E088
:103DB00008950F931F93CF93DF93EC010E94B61EDB
:103DC0008C016CEA74E0CE010E94C41E800F911F2A
:103DD000DF91CF911F910F9108950C94C41ECF9342
:103DE000DF93CDB7DEB7CF56D1090FB6F894DEBF5B
:103DF0000FBECDBF789484B5826084BD84B58160E8
:103E000084BD85B5826085BD85B5816085BD8091A5
:103E10006E00816080936E0010928100809181001D
:103E20008260809381008091810081608093810015
:103E3000809180008160809380008091B1008460D7
:103E40008093B1008091B00081608093B000809138
:103E500091008260809391008091910081608093B5
:103E60009100809190008160809390008091A100EA
:103E700082608093A1008091A10081608093A10065
:103E80008091A00081608093A000809121018260D8
:103E90008093210180912101816080932101809193
:103EA000200181608093200180917A00846080935A
:103EB0007A0080917A00826080937A0080917A0003
:103EC000816080937A0080917A00806880937A0084
:103ED0001092C1006EEA74E0CE018B599F4F0E9490
:103EE000A11E82E090E0A0E0B0E08093B204909345
:103EF000B304A093B404B093B50486E792E0909322
:103F0000B1048093B004809170008E7F8093700024
:103F10008091B0008C7F8093B0008091B100877F4A
:103F20008093B1008091B6008F7D8093B600809120
:103F300070008D7F809370008091B10084608093C9
:103F4000B1008091B1008C7F8093B10086E090E059
:103F50009093B7048093B6041092B9041092BA04F7
:103F60001092BB041092BC041092B8048091B60465
:103F70009091B7048093B20080917000816080932B
:103F800070000E948A1D6093C4047093C5048093DE
:103F9000C6049093C7046093C0047093C1048093D7
:103FA000C2049093C30480917B00886080937B005F
:103FB00086E480937C0080917A00806480937A000C
:103FC00080917A0086FDFCCF609178008091790025
:103FD00070E0782B072E000C880B990B611571058A
:103FE0008105910511F00E94542A62E08FE20E943F
:103FF000141D62E080E30E94141D8FE20E94F912FA
:1040000021E0892B09F420E0209300020E94521342
:1040100088E080936B0A60E080E69AE00E943209B3
:1040200016E161E0812F0E94141D1F5F1E32C9F747
:1040300012E061E0812F0E94141D1F5F1E30C9F73E
:104040008EE280932D09E0915209F091530982E0AC
:104050008083E0914E09F0914F091082E091500960
:10406000F09151098FEC808310925A09E091560922
:10407000F091570986E08083E0915409F091550949
:10408000808180618083E0915409F091550980819D
:1040900088608083E0915409F0915509808180689F
:1040A0008083E0915409F091550980818F7D808350
:1040B0001092070A1092050A1092020A1092010A41
:1040C00085E38093000A0E948A1D8B0161E0809144
:1040D000000A0E94141D61E08091000A0E942213D0
:1040E000FFB6F8948091CA04811127C0EDE2F2E096
:1040F0008491E3E7F2E09491E82FF0E0EE0FFF1FE8
:10410000E653FD4FA591B491EC91E92321F461E0D0
:1041100085E30E94221361E085E30E94141D8CB5A3
:1041200080618CBD8CB580648CBD61E084E30E94AD
:10413000141D61E083E30E94141D8091CA048F5F07
:104140008093CA04FFBE82E58093DF091092E009E4
:104150008091DF099091E0090E94BC052AE0F22ECF
:104160008FEF0E947D05FA94F110FACF8CEF99E061
:104170000E94BF0520E030E0A90160E08CEF99E0EB
:104180000E94D505F82E8093060A31E0831749F086
:104190000E948A1D601B710B613D774058F381E0DE
:1041A00056C02AEA31E040E050E068E08CEF99E048
:1041B0000E94D50582FF03C0F092070A10C094E068
:1041C000F92E0E9484058093060AFA94F110F9CF23
:1041D0008A3A11F082E03BC082E08093070A809126
:1041E000070A823021F0C12CD12C760105C0C12CE8
:1041F000D12CE12C80E4F82E20E030E0A90167E327
:104200008CEF99E00E94D505A701960169E28CEF39
:1042100099E00E94D5058093060A882349F00E9400
:104220008A1D601B710B613D774030F388E00FC041
:104230008091070A823001F520E030E0A9016AE3AD
:104240008CEF99E00E94D505882341F086E08093A9
:10425000010A8CEF99E00E9472059EC00E948405BD
:10426000807C803C19F483E08093070A0E948405D7
:104270000E9484050E9484058CEF99E00E947205DB
:1042800080E58093DF091092E00981E00E94981098
:10429000882329F080912B0A882341F07DC080E09B
:1042A0000E949810882309F477C0F4CF80911F0AE8
:1042B000803109F582E080932B0A10923D0A10921A
:1042C0003E0A10923F0A1092400A8091200A909173
:1042D000210AA0E0B0E015E0880F991FAA1FBB1FBC
:1042E0001A95D1F78093390A90933A0AA0933B0A22
:1042F000B0933C0A1EC0803209F04EC083E0809328
:104300002B0A4091220A5091230A6091240A70914D
:10431000250A40933D0A50933E0A60933F0A7093EA
:10432000400A29E33AE088E09AE00E94FB168823DD
:1043300099F188E09AE09093420A8093410A81E0E3
:1043400080932A0A10922C0A10922D0A10922E0A9B
:1043500010922F0A1092300A1092310A1092320AEB
:104360001092330A1092340A1092350A1092360ACB
:104370001092370A1092380AFFE34F2EF2E45F2EB4
:10438000FFE06F2E712CAEEBAA2EA2E0BA2E7E01BA
:104390005BE3E50EF11CB7C062E073E0CE0101966D
:1043A0000E94A11E62E073E0CE014E960E94A11E03
:1043B000BE016F5F7F4FCE014E960E94C20DCE01AF
:1043C0004E960E94231ECE0101960E94231E66C1B6
:1043D00021E0AE01485A5F4FB801C4010E94AD030D
:1043E000282E9AE00632190709F0D5C0882309F46F
:1043F000D7C08E01025E1F4F902F812F8401892E1E
:10440000982EAC964FADAC97532DF601E40FF51FE7
:1044100080818F3211F44F5F5F4FDE01A85ABF4F8A
:1044200080E090E0F601E40FF51F20812F3249F083
:10443000222339F001964F5F5F4F2D938C30910509
:1044400089F7E8E5F0E0EC0FFD1FE80FF91F108297
:10445000F601E40FF51F80818F3211F44F5F5F4F3B
:10446000AC964FAFAC97352EF601E40FF51F2080C8
:104470001C821B82BA82A9821E8221E0AE01485AA8
:104480005F4FB801CE0101960E94AD03882309F465
:104490007AC0CE0101960E949E02211099CF2AE097
:1044A0000632120719F0C8010E949E02BE016B5924
:1044B0007F4FCE0101960E94981E6FE073E0C70106
:1044C0000E94A11EBE016B597F4FC7010E94F91DBA
:1044D00065E173E00E94E01DBC01CE014E960E9492
:1044E000981EBE016F5F7F4FCE014E960E94C20D97
:1044F000CE014E960E94231EC7010E94231ECE01AC
:1045000001960E94231E0E94502AA30192010E943C
:10451000CA2AAB01BC0120E1CE014E960E94281EA2
:10452000BE01625E7F4FCE0101960E94981E6AE036
:1045300073E0CE0101960E94E01DBC01CE018B59B3
:104540009F4F0E940C1ECE0101960E94231ECE0199
:104550004E960E94231EA796CEACDFACA7971EAE48
:104560001DAEBCAEABAE21961FAE219719A218A20C
:10457000BF8EAE8E1BA2AC961FAEAC97312C4701FE
:1045800006E21AE03ECF8AE00632180749F0C80179
:104590000E949E0205C0C8010E949E0221102CCFDD
:1045A00068E273E0CE014E960E94A11EBE016B59D7
:1045B0007F4FCE014E960E94F91DBC01CE0101969F
:1045C0000E94981E6FE073E0CE01885A9F4F0E94B0
:1045D000A11EBE016B597F4FCE01885A9F4F0E948A
:1045E000F91D6CE273E00E94E01DBC01C7010E944E
:1045F000981EBE016F5F7F4FC7010E94C20DC701A9
:104600000E94231ECE01885A9F4F0E94231ECE0176
:1046100001960E94231ECE014E960E94231EA7964D
:104620006EAD7FADA79743E1CE0101960E946C0F5E
:104630008B819C819093480A8093470A8D819E814B
:10464000AF81B8858093490A90934A0AA0934B0A98
:10465000B0934C0A89859A85AB85BC8580934D0AB9
:1046600090934E0AA0934F0AB093500A8DE0FE013A
:104670003D96A1E5BAE001900D928A95E1F78A8D09
:104680009B8D90935F0A80935E0A81E08093BD04C6
:1046900068EE73E080E090E00E94501DCE018B59DF
:1046A0009F4F0E94231E74E0272E312CE8EE8E2EA1
:1046B000E3E09E2EA12CB12C01E010E08091C80413
:1046C0009091C9048130910509F4EFC124F4892B3C
:1046D00009F45BC007C08230910509F4BCC2099798
:1046E00009F490C362E0F62E61E082E00E94B50E0C
:1046F0000E948A1DA50194010E94FC2ACA01B901E9
:104700004AE00E94E50E61E08F2D0E94221368EEC0
:1047100073E080E090E00E94501D60E08F2D0E94C9
:10472000221368EE73E080E090E00E94501DF39445
:104730003EE0F312D9CF56E1F52E61E082E00E940F
:10474000B50E0E948A1DA50194010E94FC2ACA018F
:10475000B9014AE00E94E50E61E08F2D0E9422130C
:1047600068EE73E080E090E00E94501D60E08F2DC5
:104770000E94221368EE73E080E090E00E94501DDA
:10478000F3944EE2F412D9CF99C48FEF9FEF909338
:10479000C9048093C8040E94521388E493E00E94E5
:1047A000EC090E94502A24E833E040E050E00E94E7
:1047B000CA2A9B01AC012C593F4F4F4F5F4FAF9618
:1047C0002CAF3DAF4EAF5FAFAF97C12CD12C760170
:1047D000AD968EAD9FADAD978C0D9D1D181619062B
:1047E0000CF08FC092E061E0892FE0969FAFE097D8
:1047F0000E942213E0969FADE0979F5F9E3099F74D
:10480000AF964CAC5DAC6EAC7FACAF974C0C5D1C06
:104810006E1C7F1CC301B2010E94501D92E060E03B
:10482000892FE0969FAFE0970E942213E0969FADFC
:10483000E0979F5F9E3099F7C301B2010E94501D1F
:1048400080919A0A882309F43CC48091810A8823C4
:1048500009F437C460E080E00E94B50E67E674E0BA
:1048600080E69AE00E94ED1E4091C0045091C10480
:104870006091C2047091C3042AE0CE014E960E945A
:10488000281E4091C4045091C5046091C6047091E3
:10489000C7042AE0CE01CB960E94281E68E774E088
:1048A000CE01885A9F4F0E94A11EBE01655C7F4FBA
:1048B000CE01885A9F4F0E94F91D65E973E00E945E
:1048C000E01DBE01625E7F4F0E94F91DBC01CE015A
:1048D00001960E94981ECE0101960E94710CCE0195
:1048E00001960E94231ECE01885A9F4F0E94231ECC
:1048F000CE01CB960E94231ECE014E960E94231E0F
:10490000DDC30E94831082EE93E00E94EC09809147
:104910009A0A882309F463C060E080E00E94B50E23
:1049200061E673E080E69AE00E94ED1E4091C004CB
:104930005091C1046091C2047091C3042AE0CE0179
:104940004E960E94281E4091C4045091C504609167
:10495000C6047091C7042AE0CE01CB960E94281E9F
:104960006EEE73E0CE01885A9F4F0E94A11EBE01D9
:10497000655C7F4FCE01885A9F4F0E94F91D65E903
:1049800073E00E94E01DBE01625E7F4F0E94F91D30
:10499000BC01CE0101960E94981ECE0101960E9494
:1049A000710CCE0101960E94231ECE01885A9F4FA2
:1049B0000E94231ECE01CB960E94231ECE014E964E
:1049C0000E94231E1093C9040093C80441E050E0E4
:1049D00062E070E085E090E00E94930C6FC38091EC
:1049E000810A882309F493CF60E080E00E94B50E2D
:1049F0006DEF73E080E69AE00E94ED1E4091C004E6
:104A00005091C1046091C2047091C3042AE0CE01A8
:104A10004E960E94281E4091C4045091C504609196
:104A2000C6047091C7042AE0CE01CB960E94281ECE
:104A30006AE074E0CE01885A9F4F0E94A11EBE0119
:104A4000655C7F4FCE01885A9F4F0E94F91D65E932
:104A500073E00E94E01DBE01625E7F4F0E94F91D5F
:104A6000BC01CE0101960E94981ECE0101960E94C3
:104A7000710CCE0101960E94231ECE01885A9F4FD1
:104A80000E94231ECE01CB960E94231ECE014E967D
:104A90000E94231E1093C9040093C8044FEF5FEFD8
:104AA00062E070E086E090E097CF61E080E00E94F5
:104AB000B50E6091CD047091CE044AE0CE0101960E
:104AC0000E94601E6091CB047091CC044AE0CE013C
:104AD0004E960E94601E67E174E0CE01CB960E9464
:104AE000A11EBE01625E7F4FCE01CB960E94F91DD2
:104AF0006CE174E00E94E01DBE016F5F7F4F0E9479
:104B0000F91D68EA74E00E94E01DBC0180E69AE0AD
:104B10000E94B61ECE01CB960E94231ECE014E9659
:104B20000E94231ECE0101960E94231E0E948A1D10
:104B30006093C4047093C5048093C6049093C70423
:104B40002091CF04C090C004D090C104E090C20472
:104B5000F090C304DC01CB018C199D09AE09BF099B
:104B600021110BC0883B9B40A105B10508F452C040
:104B70003092C9042092C804A1C2843F51E0950735
:104B8000A105B10528F180910502909106020297D6
:104B900021F52091070230910802220F331F409126
:104BA000030250910402C901841B950B2417350799
:104BB00019F08B30910589F44091BE045091BF04E7
:104BC0002091010230910202B101621B730B04CFEC
:104BD0008C329140A105B105E8F060910502709119
:104BE000060280910702909108024091BE04509104
:104BF000BF04660F771F2091010230910202621BF1
:104C0000730B880F991F2091030230910402821BBD
:104C1000930BE2CE80918B0A8111C3C28091720AFC
:104C20008111BFC28091900A8111D0C28091770A10
:104C30008111CCC28091950A8111DDC280917C0ADC
:104C40008111D9C28091860A8111E9C280916D0AD1
:104C50008111E5C233C20E948A1D6093C40470931F
:104C6000C5048093C6049093C7044091C00450913A
:104C7000C1046091C2047091C3042AE0CE014E9633
:104C80000E94281E4091C4045091C5046091C6043E
:104C90007091C7042AE0CE01CB960E94281E64E2E0
:104CA00074E0CE01885A9F4F0E94A11EBE01655C30
:104CB0007F4FCE01885A9F4F0E94F91D65E973E02E
:104CC0000E94E01DBE01625E7F4F0E94F91DBC0183
:104CD000CE0101960E94981ECE0101960E94710C91
:104CE000CE0101960E94231ECE01885A9F4F0E943A
:104CF000231ECE01CB960E94231ECE014E960E940B
:104D0000231E8091C4049091C504A091C604B09163
:104D1000C7048093C0049093C104A093C204B093CD
:104D2000C3040E94D7091092CF041093C9040093C2
:104D3000C8044091BE045091BF04209105023091F7
:104D4000060280910702909108024130510569F5F1
:104D5000232B89F49C01215031092330310528F49B
:104D60004FEF5FEF61E070E010C004974FEF5FEF2F
:104D700061E070E012C09C012150310923303105FF
:104D800038F44FEF5FEF63E070E082E090E024CE14
:104D900004974FEF5FEF63E070E0039718F484E04F
:104DA00090E01ACE88E090E017CE232B89F49C0186
:104DB000285031092330310528F441E050E061E00A
:104DC00070E010C0059741E050E061E070E012C073
:104DD0009C01285031092330310538F441E050E07E
:104DE00064E070E089E090E0F7CD059741E050E0A5
:104DF00064E070E0039718F487E090E0EDCD83E085
:104E000090E0EACD0E948A1D6093C4047093C504AB
:104E10008093C6049093C7040E94831082EE93E0AF
:104E20000E94EC091092CF041093C9040093C804A7
:104E300060E080E00E94B50E809107029091080228
:104E40004091C0045091C1046091C2047091C304A8
:104E5000892B09F091C08091CD049091CE040196E8
:104E60009093CE048093CD042AE0CE014E960E940A
:104E7000281E4091C4045091C5046091C6047091ED
:104E8000C7042AE0CE01CB960E94281E61E374E09D
:104E9000CE01885A9F4F0E94A11EBE01655C7F4FC4
:104EA000CE01885A9F4F0E94F91D65E973E00E9468
:104EB000E01DBE01625E7F4F0E94F91DBC01CE0164
:104EC00001960E94981ECE0101960E94710CCE019F
:104ED00001960E94231ECE01885A9F4F0E94231ED6
:104EE000CE01CB960E94231ECE014E960E94231E19
:104EF0006091CD047091CE044AE0CE0101960E94EB
:104F0000601E6091CB047091CC044AE0CE014E96B5
:104F10000E94601E60E474E0CE01CB960E94A11E48
:104F2000BE01625E7F4FCE01CB960E94F91D68EAFA
:104F300074E00E94E01DBE016F5F7F4F0E94F91D6B
:104F400067EA74E00E94E01DBC0180E69AE00E94DE
:104F5000B61ECE01CB960E94231ECE014E960E9415
:104F6000231ECE0101960E94231E41E050E062E024
:104F700070E085E090E090C08091CB049091CC04EB
:104F800001969093CC048093CB042AE0CE014E96F8
:104F90000E94281E4091C4045091C5046091C6042B
:104FA0007091C7042AE0CE01CB960E94281E6BE4C4
:104FB00074E0CE01885A9F4F0E94A11EBE01655C1D
:104FC0007F4FCE01885A9F4F0E94F91D65E973E01B
:104FD0000E94E01DBE01625E7F4F0E94F91DBC0170
:104FE000CE0101960E94981ECE0101960E94710C7E
:104FF000CE0101960E94231ECE01885A9F4F0E9427
:10500000231ECE01CB960E94231ECE014E960E94F7
:10501000231E6091CD047091CE044AE0CE0101962A
:105020000E94601E6091CB047091CC044AE0CE01D6
:105030004E960E94601E6CE574E0CE01CB960E94F5
:10504000A11EBE01625E7F4FCE01CB960E94F91D6C
:1050500068EA74E00E94E01DBE016F5F7F4F0E940E
:10506000F91D67EA74E00E94E01DBC0180E69AE049
:105070000E94B61ECE01CB960E94231ECE014E96F4
:105080000E94231ECE0101960E94231E4FEF5FEF68
:1050900062E070E086E090E00E94930C8091C4048E
:1050A0009091C504A091C604B091C7048093C00438
:1050B0009093C104A093C204B093C3040E94B81497
:1050C000FDCA8091810A882389F160E080E00E9416
:1050D000B50E60E573E080E69AE00E94ED1E61E0A7
:1050E00080E00E94B50E61E673E080E69AE00E94DF
:1050F000ED1E4091C0045091C1046091C2047091B2
:10510000C3042AE0CE014E960E94281E4091C4049A
:105110005091C5046091C6047091C7042AE0CE0185
:10512000CB960E94281E62E773E01CCC80919A0AFD
:1051300034E6C31AD108E108F108882309F448CB02
:1051400060E080E00E94B50E6DE973E080E69AE0D1
:105150000E94ED1E61E080E00E94B50E6EEA73E0F1
:1051600080E69AE00E94ED1E4091C0045091C10477
:105170006091C2047091C3042AE0CE014E960E9451
:10518000281E4091C4045091C5046091C6047091DA
:10519000C7042AE0CE01CB960E94281E6FEB73E075
:1051A00049CC8091BE049091BF046091050270913A
:1051B00006022091070230910802AC01820F931F72
:1051C0000E94930C81E08093CF042CCD2091BE04EB
:1051D0003091BF0460910502709106028091070230
:1051E00090910802A901821B930B0E94930C81E00D
:1051F0008093CF041FCD4091BE045091BF046091B5
:10520000050270910602640F751F8091070290914C
:1052100008020E94930C81E08093CF0413CD40914B
:10522000BE045091BF046091050270910602641B98
:10523000750B80910702909108020E94930C81E007
:105240008093CF043BCFCF92DF92EF92FF920F93E8
:105250001F93CF93E6E3F9E01382128288EEC82E03
:1052600083E0D82EE12CF12CC482D582E682F7822D
:105270008AE992E091838083E2E4F9E0138212826A
:10528000C482D582E682F7828CEA92E091838083A1
:1052900085EC90E09587848784EC90E097878687FB
:1052A00080EC90E0918B808B81EC90E0938B828BF3
:1052B00082EC90E0958B848B86EC90E0978B868BCC
:1052C000118E128E138E148EEFEDF9E080E580833F
:1052D0001182E1EEF9E013821282C482D582E68265
:1052E000F7820AEC12E011830083128E118E14866D
:1052F000ECEFF9E0158216821186138682E090E0C9
:10530000A0E0B0E084879587A687B78713A215A68B
:1053100014A68EEB92E093A782A717A6E9E9FAE01C
:1053200086E38483CFE0C38362E00E94141DE4E936
:10533000FAE087E38483C38362E00E94141DEFE8F0
:10534000FAE088E38483C38362E00E94141DEAE8E4
:10535000FAE089E38483C38362E00E94141DE5E8D8
:10536000FAE08AE38483C38362E00E94141DE0E8CC
:10537000FAE08BE38483C38362E00E94141DEBE7B1
:10538000FAE08CE38483C38362E00E94141DE6E7A5
:10539000FAE08DE38483C38362E00E94141DE1E799
:1053A000FAE08EE38483C38362E00E94141DECE67E
:1053B000FAE08FE38483C38362E00E94141DE0E679
:1053C000FAE0138212828EEE92E09183808387E26C
:1053D000848380E1818782E082871386E5E4FAE0B6
:1053E00013821282C482D582E682F78211830083FF
:1053F000128E118E1486CF911F910F91FF90EF9016
:10540000DF90CF9008958F929F92AF92BF92CF92EC
:10541000DF92EF92FF92CF93DF93EC016881798165
:105420008A819B81611571058105910521F464E2F2
:1054300079ED8BE597E02DE133EF41E050E00E94FC
:10544000CA2A49015A019B01AC01A7EAB1E40E94B2
:10545000E92A6B017C01ACEEB4EFA50194010E9436
:10546000F72ADC01CB018C0D9D1DAE1DBF1DB7FFC2
:1054700003C00197A109B04888839983AA83BB839D
:10548000BC01CD019F77DF91CF91FF90EF90DF902E
:10549000CF90BF90AF909F908F9008950C94032A67
:1054A00080E192E00C94032A609310027093110241
:1054B000809312029093130208954532510520F40F
:1054C000423010F00C94682AFB011082CB01089541
:1054D000BB274A3031F4992322F4BDE2909581959F
:1054E0009F4F0C94A12A2532310520F4223010F070
:1054F0000C947E2AFA011082CA010895BB27FA0192
:10550000A62F6217710581059105330B30FB66F0FC
:10551000AA27660F771F881F991FAA1FA21710F0CE
:10552000A21B63953850A9F7A05DAA3308F0A95DC6
:10553000A19336F7B111B1931082CA010C94BA2A23
:10554000BB27FB015527AA27880F991FAA1FA4175D
:1055500010F0A41B83955051B9F7A05DAA3308F051
:10556000A95DA193009779F7B111B1931192CB0185
:105570000C94BA2ADC01FC01672F71917723E1F7C3
:10558000329704C07C916D9370836291AE17BF0710
:10559000C8F30895052E97FB1EF400940E94E12A9B
:1055A00057FD07D00E94FC2A07FC03D04EF40C9450
:1055B000E12A50954095309521953F4F4F4F5F4FD1
:1055C000089590958095709561957F4F8F4F9F4F6F
:1055D00008950E941E2BA59F900DB49F900DA49F2F
:1055E000800D911D11240895B7FF0C94E92A0E94A3
:1055F000E92A821B930B0895A1E21A2EAA1BBB1B5A
:10560000FD010DC0AA1FBB1FEE1FFF1FA217B3078E
:10561000E407F50720F0A21BB30BE40BF50B661FA4
:10562000771F881F991F1A9469F760957095809568
:1056300090959B01AC01BD01CF010895A29FB001DF
:10564000B39FC001A39F700D811D1124911DB29FB6
:10565000700D811D1124911D0895EE0FFF1F881FED
:105660008BBF0790F691E02D1994CF93DF93823092
:10567000910510F482E090E0E091F70AF091F80AC9
:1056800020E030E0C0E0D0E0309711F1408151815E
:1056900048175907C0F04817590761F48281938170
:1056A000209719F09B838A832BC09093F80A8093EC
:1056B000F70A26C02115310519F04217530718F4CF
:1056C0009A01BE01DF01EF010280F381E02DDCCF02
:1056D0002115310509F1281B390B2430310590F4CF
:1056E00012968D919C9113976115710521F0FB0124
:1056F0009383828304C09093F80A8093F70AFD0194
:10570000329644C0FD01E20FF31F81939193225022
:1057100031092D933C933AC02091F50A3091F60A55
:10572000232B41F420911602309117023093F60A90
:105730002093F50A209114023091150221153105AC
:1057400041F42DB73EB74091180250911902241B25
:10575000350BE091F50AF091F60AE217F307A0F491
:105760002E1B3F0B2817390778F0AC014E5F5F4FB7
:105770002417350748F04E0F5F1F5093F60A4093E9
:10578000F50A8193919302C0E0E0F0E0CF01DF9150
:10579000CF9108950F931F93CF93DF93009709F450
:1057A0008CC0FC013297138212820091F70A10918B
:1057B000F80A0115110581F420813181820F931FB0
:1057C0002091F50A3091F60A2817390779F5F093F8
:1057D000F60AE093F50A71C0D80140E050E0AE1738
:1057E000BF0750F412962D913C911397AD012115EE
:1057F000310509F1D901F3CF9D01DA013383228309
:1058000060817181860F971F8217930769F4EC01FD
:1058100028813981260F371F2E5F3F4F3183208328
:105820008A819B8193838283452B29F4F093F80A24
:10583000E093F70A42C01396FC93EE931297ED01A2
:10584000499159919E01240F351FE217F30771F416
:1058500080819181840F951F029611969C938E935F
:105860008281938113969C938E931297E0E0F0E0EF
:10587000D80112968D919C911397009719F0F80119
:105880008C01F6CF8D919C9198012E5F3F4F820F36
:10589000931F2091F50A3091F60A2817390769F409
:1058A000309729F41092F80A1092F70A02C0138276
:1058B00012821093F60A0093F50ADF91CF911F919F
:1058C0000F9108956F927F928F929F92AF92BF92A5
:1058D000CF92DF92EF92FF920F931F93CF93DF93BC
:1058E000EC01009789F4CB01DF91CF911F910F91CB
:1058F000FF90EF90DF90CF90BF90AF909F908F90F0
:105900007F906F900C94352BFC01E60FF71F9C01E4
:1059100022503109E217F30708F4ACC0D9010D9108
:105920001C91119706171707B0F00530110508F400
:105930009FC0C80104978617970708F499C00250C2
:105940001109061B170B019311936D937C93CF01E3
:105950000E94CA2B8DC05B01A01AB10A4C01800EB7
:10596000911EA091F70AB091F80A40E050E0E12CB6
:10597000F12C109709F44AC0A815B905D1F56D901E
:105980007C901197630182E0C80ED11CCA14DB041D
:1059900080F1A3014A195B096A0182E0C80ED11C9B
:1059A0001296BC9012971396AC91B5E0CB16D10429
:1059B00040F0B282A38351834083D9016D937C93DD
:1059C0000AC00E5F1F4FC301800F911FF901918321
:1059D0008083EB2DFA2FE114F10431F0D7011396F7
:1059E000FC93EE93129744C0F093F80AE093F70A01
:1059F0003FC08D919C9111974817590708F4AC014D
:105A00007D0112960D90BC91A02DB3CF8091F50A27
:105A10009091F60A88159905E1F446175707C8F4DE
:105A20008091140290911502009741F48DB79EB7B2
:105A30004091180250911902841B950BE817F90741
:105A4000C8F4F093F60AE093F50AF90171836083D4
:105A50000FC0CB010E94352B7C01009759F0A801A3
:105A6000BE010E945D2DCE010E94CA2BC70104C059
:105A7000CE0102C080E090E0DF91CF911F910F91A5
:105A8000FF90EF90DF90CF90BF90AF909F908F905E
:105A90007F906F90089581E090E0F8940C94872DAA
:105AA000FB01DC0104C08D910190801921F441506B
:105AB0005040C8F7881B990B0895FB01DC0102C018
:105AC00001900D9241505040D8F70895FC0181910A
:105AD000861721F08823D9F7992708953197CF01A8
