:100000000C94D5020C9406030C9406030C9406037E
:100010000C9406030C9406030C9406030C9406033C
:100020000C9406030C9406030C9406030C9406032C
:100030000C9406030C9496150C9406030C945E0520
:100040000C9406030C9406030C9406030C9406030C
:100050000C9406030C9406030C9406030C942E13C4
:100060000C9406030C9428050C94FE040C940603CF
:100070000C9406030C9406030C9406030C940603DC
:100080000C9406030C9406030C9406030C940603CC
:100090000C9406030C9406030C9406030C948C1029
:1000A0000C9406030C9406030C9406030C940603AC
:1000B0000C9406030C9406030C9406030C9406039C
:1000C0000C9406030C9406030C9406030C9406038C
:1000D0000C9406030C9406030C9406030C9406037C
:1000E0000C940603BC1707190C1D3C1F0720A32006
:1000F000A1214C244C24DC1DDB0FDE0FCD0FD10FD2
:10010000D70F1510E20FE60FEC0FF00FF40FFA0FF8
:10011000FE0F0210151008100C1010100C94DE0FBA
:100120000C941E0B0C94B7030C9415100C947003D4
:100130000C94910F0C94A3200C94DC1D0C940C10C7
:100140000C943B0F0C94BC140C9402100C943B28A0
:100150000C9489060C9410100C94FA0F0C943F2800
:100160000C944A0F0C943C0F0C94E20F0C94072053
:100170000C9413040C944C240C94FE0F0C9439032F
:100180000C9407190C94F00F0C94610F0C94081048
:100190000C94A1210C94590F0C94D70F0C94F40FCC
:1001A0000C94CD0F0C94D10F0C9408030C941204F2
:1001B0000C9417030C94EC0F0C943C1F0C94BC177C
:1001C0000C940C1D0C942B030C94DB0F0C94E60F79
:1001D00000407A10F35A00A0724E18090010A5D4FE
:1001E000E80000E87648170000E40B54020000CA5B
:1001F0009A3B000000E1F5050000809698000000A1
:1002000040420F000000A0860100000010270000FF
:100210000000E803000000006400000000000A0085
:10022000000000000100000000002C76D888DC6788
:100230004F0823DFC1DFAE59E1B1B796E5E3E453E0
:10024000C63AE651997696E8E6C28426EB898C9BFD
:1002500062ED407C6FFCEFBC9C9F40F2BAA56FA59D
:10026000F490055A2AF75C936B6CF9676DC11BFC1F
:10027000E0E40D47FEF520E6B500D0ED902E03003A
:10028000943577050080841E080000204E0A000087
:1002900000C80C333333330F986E12831141EF8D46
:1002A0002114893BE65516CFFEE6DB18D1844B3886
:1002B0001BF77C1D901DA4BBE424203284725E22B7
:1002C0008100C9F124ECA1E53D27526564732077D4
:1002D000696E212020202020202000477265656E55
:1002E000732077696E2120202020200044726177DE
:1002F0002067616D6521416761696E210057686FF4
:10030000277320636F77626F792120202000466178
:100310007374206472617721202020202020004304
:10032000617463682062616C6C21005265647320A3
:1003300077696E21202020202020200047726565EB
:100340006E73206661696C21202020200047726551
:10035000656E732077696E21202020202000526571
:100360006473206661696C212020202020200043D6
:10037000726F7373206661696C2120202020200039
:10038000436174636820616674657220626565709C
:100390000057686F206973206661737465723F212E
:1003A000200057686F20697320666173746572203E
:1003B000636F77626F793F2120507265737320639A
:1003C0006174636820627574746F6E206166746511
:1003D00072207468652062656570210050726573D3
:1003E0007320616E79206B65792E2E2E0044726128
:1003F00077696E6720626567696E732120004F66BA
:10040000667369646521202020202020202000328E
:100410006E642074696D6520626567696E73210082
:10042000707265737320616E79206B65792E2E2E44
:1004300000526F7461746520626F61726420616E36
:10044000640046696E616C2073636F72653A2020A8
:10045000202000447261772067616D652120202093
:1004600020202000526564732077696E21202020AF
:100470002020202000477265656E732077696E2109
:10048000202020200000002100240027002A002D29
:10049000003000330001010000040107010A0100DF
:1004A000002200250028002B002E0031003400021D
:1004B000010000050108010B0100002000230026B7
:1004C0000029002C002F003200000100000301066B
:1004D00001090105050505070508080808020202CB
:1004E000020A0A08080404040401010101010101CF
:1004F000010303030303030303040707070C0C0CA6
:100500000C0C0C0C0C02020202060606060606067D
:10051000060B0B0B0B0B0B0B0B010210202008081A
:100520001020401020408002010201080402010155
:10053000020408102040808040201008040201803E
:100540000402018040201008040201080402010195
:10055000020408102040800102040810204080009E
:10056000000A0B02090C0D0E08070304010000002D
:10057000000000000000000000000000000000007B
:100580000000000000000000000000121110000038
:10059000000000000000000000000000000000005B
:1005A0000000000000023F283B2811241FBECFEFAF
:1005B000D1E2DEBFCDBF00E00CBF15E0A0E0B2E0AD
:1005C000E4E0F1E600E00BBF02C007900D92A23319
:1005D000B107D9F727E0A2E3B5E001C01D92A83B1F
:1005E000B207E1F712E0C4EDD2E000E006C02197C7
:1005F0000109802FFE010E943D2EC33DD10780E0FE
:100600000807A9F70E9443160C9470300C94000060
:10061000FC01538D448D252F30E0842F90E0821B08
:10062000930B541710F0CF96089501970895FC018D
:10063000918D828D981761F0828DDF01A80FB11D19
:100640005D968C91928D9F5F9F73928F90E008953D
:100650008FEF9FEF0895FC01918D828D981731F0F7
:10066000828DE80FF11D858D90E008958FEF9FEF4B
:100670000895FC01918D228D892F90E0805C9F4F21
:10068000821B91098F73992708958AED95E00E9446
:10069000390321E0892B09F420E0822F0895FC0121
:1006A000848DDF01A80FB11DA35ABF4F2C91848DFB
:1006B00090E001968F739927848FA689B7892C9330
:1006C000A089B1898C9180648C93938D848D9813CB
:1006D00006C00288F389E02D80818F7D8083089594
:1006E000EF92FF920F931F93CF93DF93EC0181E082
:1006F000888F9B8D8C8D981305C0E889F98980813E
:1007000085FD24C0F62E0B8D10E00F5F1F4F0F7379
:100710001127E02E8C8DE8120CC00FB607FCFACF23
:10072000E889F989808185FFF5CFCE010E944F03CA
:10073000F1CF8B8DFE01E80FF11DE35AFF4FF082E0
:100740000B8FEA89FB898081806207C0EE89FF896F
:100750006083E889F98980818064808381E090E00A
:10076000DF91CF911F910F91FF90EF900895CF935C
:10077000DF93EC01888D8823C9F0EA89FB898081A9
:1007800085FD05C0A889B9898C9186FD0FC00FB67B
:1007900007FCF5CF808185FFF2CFA889B9898C91BC
:1007A00085FFEDCFCE010E944F03E7CFDF91CF91C0
:1007B000089580E090E0892B21F00E94450381118B
:1007C00025C080E090E0892B41F080E090E0892B0B
:1007D00021F00E94000081111CC080E090E0892B74
:1007E00041F080E090E0892B21F00E94000081110F
:1007F00013C080E090E0892BA1F080E090E0892B8D
:1008000081F00E94000081110AC008950E9400003A
:10081000D8CF0E940000E1CF0E940000EACF0C94E4
:1008200000000895089580E090E00895823081F0FE
:100830001CF4813031F020C0833089F08430B1F075
:100840001BC061307105C9F06F3F7F4FA9F417C01D
:1008500061307105B1F06F3F7F4F71F414C06130AA
:10086000710599F06F3F7F4F39F411C06130710508
:1008700081F06F3F7F4F79F0089583E0089582E023
:10088000089586E0089585E0089589E0089588E058
:1008900008958CE008958BE008953F924F925F9207
:1008A0006F927F928F929F92AF92BF92CF92DF9280
:1008B000EF92FF920F931F93CF93DF93EC01088188
:1008C00010E088890E94BE110817190711F01E86D2
:1008D00082C00E9422136B017C018E858F5F8E8700
:1008E0009F85891708F477C0388081E038263882E0
:1008F0001E86C701B60120E63AEE40E050E00E94B5
:10090000282D4B015C0149885A886B887C88C3017B
:10091000B20120E63AEE40E050E00E94282D861613
:100920009706A806B90658F0D701C601841995099B
:10093000A609B70981369A4EA105B10510F01D82AE
:100940001C82C98ADA8AEB8AFC8A6A817B816F5FA2
:100950007F4F7B836A830C811D810F5F1F4F1D8337
:100960000C8380E090E00E94442C2B013C01C701E5
:10097000B6010E94442C20E030E04AE754E40E9493
:10098000C62D9B01AC01C301B2010E94C62D6E832E
:100990007F8388879987B80180E090E00E94442C8B
:1009A0006B017C01C501B4010E94442C20E030E0C1
:1009B0004AE754E40E94C62D9B01AC01C701B60171
:1009C0000E94C62D6A877B878C879D8781E03320B4
:1009D00019F0898301C080E0DF91CF911F910F91C1
:1009E000FF90EF90DF90CF90BF90AF909F908F904F
:1009F0007F906F905F904F903F9008951F920F925D
:100A00000FB60F9211240BB60F922F933F934F9373
:100A10005F936F937F938F939F93AF93BF93EF9366
:100A2000FF938AED95E00E944F03FF91EF91BF91F4
:100A3000AF919F918F917F916F915F914F913F9176
:100A40002F910F900BBE0F900FBE0F901F90189517
:100A50001F920F920FB60F9211240BB60F922F9385
:100A60008F939F93EF93FF93E091EA05F091EB054D
:100A70008081E091F005F091F10582FD12C0908136
:100A80008091F3058F5F8F732091F405821751F0E9
:100A9000E091F305F0E0E652FA4F958F8093F3056D
:100AA00001C08081FF91EF919F918F912F910F90C5
:100AB0000BBE0F900FBE0F901F9018951F920F92B4
:100AC0000FB60F9211240BB60F922F933F934F93B3
:100AD0005F936F937F938F939F93AF93BF93EF93A6
:100AE000FF9380913205909133058093B2008091FD
:100AF000800590918105A0918205B09183050196B2
:100B0000A11DB11D8093800590938105A09382055E
:100B1000B09383058091800590918105A091820515
:100B2000B0918305409136055091370560913805A5
:100B30007091390584179507A607B70710F18091C2
:100B40007F0581111EC081E080937F058091800523
:100B500090918105A0918205B0918305841B950B2E
:100B6000A60BB70B8093800590938105A093820517
:100B7000B0938305E0913405F091350519951092F5
:100B80007F05FF91EF91BF91AF919F918F917F91E1
:100B90006F915F914F913F912F910F900BBE0F90EE
:100BA0000FBE0F901F90189510928005109281052E
:100BB000109282051092830510927F058091320574
:100BC000909133058093B200E0E7F0E0808181608E
:100BD00080830895CF93FC01C48121E02093A40574
:100BE000C0937E051092CD051092CC058385682BAD
:100BF0008EEC95E00E94910F8091CC05813208F037
:100C000046C09091CB059111FCCF92E09093CB051B
:100C100091E09093CA059FEF9093A5051092C705A8
:100C20008093C605A4E8B5E026EA35E0F9019E2FD9
:100C3000921B981718F49D919193F9CF1092C805C3
:100C40008091C805CC0FC82BC093C8058091C905F9
:100C5000813061F41092C9058091C8058093BB0072
:100C60008091BC0083FDF8CF85EC01C085EE8093B8
:100C7000BC008091CB058230E1F38091A5058F3FC8
:100C800031F08091A505803211F08091A505109278
:100C9000CD051092CC051092A405CF9108950F9325
:100CA0001F93CF938C01C62F0E94EA056C2F6460BE
:100CB000C8010E94EA056C2F6B7FC8010E94EA05FB
:100CC00083EC90E00197F1F7CF911F910F91089578
:100CD000FF920F931F93CF93DF931F92CDB7DEB791
:100CE0008C01F62E962F907F692F642BC8014983C3
:100CF0000E944F0680E1F89EB00111244981642BC7
:100D0000C8010F90DF91CF911F910F91FF900C942C
:100D10004F0641E00E94680681E090E0089510923D
:100D200047071092320710921D0710920807109281
:100D3000F3061092DE061092C9061092B4061092C5
:100D40009F0610928A0610923B0508958F929F92FB
:100D5000AF92BF92EF92FF921F93CF93DF937B01ED
:100D600080E30E94BE11892B09F4FCC18091050229
:100D70008E3221F08F3F09F0F5C104C0E5EAF5E0BD
:100D80001491E8C08EE280930502E5EAF5E0E49173
:100D9000EF3F09F4E7C1E23009F472C04CF5EE23ED
:100DA00009F451C0E13009F0D4C0109280001092D3
:100DB0008100809181008860809381008091810012
:100DC000816080938100E1E0F5E0E491F0E0EE0FD6
:100DD000FF1FE156FB4F8591949190936605809398
:100DE0006505E7E4F5E0E491E093640511E0B4C043
:100DF000E43009F48BC00CF466C0E53009F0A9C0FA
:100E0000109220011092210180912101886080932D
:100E1000210180912101816080932101E1E0F5E0D1
:100E2000E491F0E0EE0FFF1FE156FB4F85919491A6
:100E300090935D0580935C05E7E4F5E0E491E09331
:100E40005B0515E089C014BC15BC84B5826084BD07
:100E500085B5816085BDE1E0F5E0E491F0E0EE0F5D
:100E6000FF1FE156FB4F8591949190936905809304
:100E70006805E7E4F5E0E491E093670510E06CC0F5
:100E80001092B0001092B1008091B0008260809307
:100E9000B0008091B10081608093B100E1E0F5E0A5
:100EA000E491F0E0EE0FFF1FE156FB4F8591949126
:100EB0009093AE078093AD07E7E4F5E0E491E0930B
:100EC000AF0712E049C010929000109291008091FB
:100ED000910088608093910080919100816080935F
:100EE0009100E1E0F5E0E491F0E0EE0FFF1FE15644
:100EF000FB4F859194919093630580936205E7E49D
:100F0000F5E0E491E093610513E026C01092A000A3
:100F10001092A1008091A10088608093A10080912F
:100F2000A10081608093A100E1E0F5E0E491F0E0B0
:100F3000EE0FFF1FE156FB4F859194919093600552
:100F400080935F05E7E4F5E0E491E0935E0514E04B
:100F500003C01E2F17FD06C14701A12CB12C61E073
:100F60008EE20E941712112309F4F1C0123009F425
:100F70004DC0113071F480918100887F8160809331
:100F8000810089288A288B2809F480C0C9E6DAE024
:100F90004AC0133081F480919100887F81608093F2
:100FA000910089288A288B2889F72FEF3FEFA90124
:100FB000C9E6DAE096C0143081F48091A100887F00
:100FC00081608093A10089288A288B28F9F62FEF69
:100FD0003FEFA901C9E6DAE096C0153081F48091AF
:100FE0002101887F81608093210189288A288B28AC
:100FF00069F62FEF3FEFA901C9E6DAE096C0C9E62E
:10100000DAE089288A288B28D1F00DC08091B100C0
:10101000887F83608093B10089288A288B2809F40F
:101020004CC0C2E5D0E09701A0E7B7E10E944A2D8D
:1010300028EE33E040E050E00E94282D03C02FEF5F
:101040003FEFA9011230E9F12CF4112381F01130A6
:1010500011F188C0143009F456C00CF442C01530A8
:1010600009F463C07FC02FEF3FEFA901C8E2C7BDFD
:1010700020937A0530937B0540937C0550937D0542
:1010800080916E00826080936E006CC02FEF3FEF06
:10109000A901C9E6DAE0D0938900C09388002093C3
:1010A00076053093770540937805509379058091C4
:1010B0006F00826080936F0055C02FEF3FEFA90152
:1010C000C2E5C093B3002093B0073093B1074093BB
:1010D000B2075093B30780917000826080937000D4
:1010E00041C0D0939900C09398002093720530932B
:1010F000730540937405509375058091710082606B
:10110000809371002FC0D093A900C093A8002093B2
:101110006E0530936F054093700550937105809173
:1011200072008260809372001DC0D0932901C09329
:10113000280120936A0530936B0540936C0550930A
:101140006D05809173008260809373000BC085B53C
:10115000887F836085BD89288A288B2809F483CFFE
:10116000C8E260CFDF91CF911F91FF90EF90BF90C9
:10117000AF909F908F900895209170002E7F2093C4
:10118000700020910002222369F0BC018AED95E0F5
:101190000E94351642E050E068EF74E08AED95E079
:1011A0000E94BC140C94D405CF92DF92EF92FF9270
:1011B0001F93CF93DF93CDB7DEB7AA970FB6F894FE
:1011C000DEBF0FBECDBF90910402909302029091BA
:1011D00003029093010290913C0590933A0580930D
:1011E00004026093030240933C050E942213609323
:1011F000490570934A0580934B0590934C054091A7
:101200003D0550913E0560913F05709140052AE0F3
:10121000CE014F960E948F144091490550914A0586
:1012200060914B0570914C052AE0CE0149960E94D1
:101230008F1460913C05062E000C770B4AE0CE011E
:1012400043960E94141560910302062E000C770B42
:101250004AE0CE010D960E94141560910402062EFC
:10126000000C770B4AE0CE0107960E94141561EC42
:1012700074E0CE0101960E948115BE01695F7F4F27
:10128000CE0101960E94F81364EF74E00E94DF1310
:10129000BE01635F7F4F0E94F81364EF74E00E9409
:1012A000DF13BE016D5E7F4F0E94F8136EEF73E097
:1012B0000E94DF13BE01675E7F4F0E94F8136AED44
:1012C00072E00E94DF13BE01615E7F4F0E94F8133F
:1012D000BC01CE0185960E947815CE0185960E94AC
:1012E000BC08CE0185960E945A14CE0101960E9438
:1012F0005A14CE0107960E945A14CE010D960E94F0
:101300005A14CE0143960E945A14CE0149960E9467
:101310005A14CE014F960E945A148091490590911B
:101320004A05A0914B05B0914C0580933D059093E3
:101330003E05A0933F05B09340050E948F060E9492
:1013400035292AE030E040E050E00E94F62C209160
:101350004E05C22E220FDD08EE08FF086C0D7D1D24
:101360008E1D9F1D0E94462C6B017C0180913A05C9
:10137000813049F42091450530914605409147055B
:10138000509148050AC08F3F71F42091410530917A
:1013900042054091430550914405C701B6010E94A2
:1013A0005A2D6B017C0180910302823009F0D1C07B
:1013B00080910402882319F08B3009F0CAC011E033
:1013C00020E030E040EC50E4C701B6010E94382E26
:1013D00018160CF010E022E0B701A601CE014396EA
:1013E0000E945F1440913D0550913E0560913F057C
:1013F000709140052AE0CE010D960E948F14409115
:10140000490550914A0560914B0570914C052AE0C1
:10141000CE0107960E948F146BEC74E0CE0101960A
:101420000E948115BE01695F7F4FCE0101960E9427
:10143000F8136AED72E00E94DF13BE01635F7F4F15
:101440000E94F81360E773E00E94DF13BE016D5E37
:101450007F4F0E94F813BC01CE0149960E94781577
:10146000CE0149960E94BC08CE0149960E945A14AA
:10147000CE0101960E945A14CE0107960E945A147A
:10148000CE010D960E945A14CE0143960E945A1422
:10149000409141055091420560914305709144058A
:1014A00022E0CE0143960E945F1440914505509181
:1014B0004605609147057091480522E0CE010D96E2
:1014C0000E945F1460914E05062E000C770B4AE0D7
:1014D000CE0107960E94141565E773E0CE010196D0
:1014E0000E948115BE01695F7F4FCE0101960E9467
:1014F000F8136CED74E00E94DF13BE01635F7F4F51
:101500000E94F81364EF74E00E94DF13BE016D5E69
:101510007F4F0E94F813BC01CE0149960E947815B6
:10152000CE0149960E94BC08CE0149960E945A14E9
:10153000CE0101960E945A14CE0107960E945A14B9
:10154000CE010D960E945A14CE0143960E945A1461
:1015500001C010E0909104022091030285E09802FE
:10156000F0011124E20FF11D27FDFA95EE0FFF1F88
:10157000E05FFD4F80818F3FF9F03FEF380F34304F
:1015800070F490910202992311F09B30A9F46091BC
:101590003C05062E000C770B0E9416040AC086310B
:1015A0005CF0223031F4992311F09B3011F41123B7
:1015B00019F061E00E94E71180910102E0910202BE
:1015C00095E0E902F0011124E80FF11D87FDFA957D
:1015D000EE0FFF1FE05FFD4F80818F3F71F09FEFA7
:1015E000980F943038F460913A05062E000C770B72
:1015F0000E94160460E00E94E711809103028B7F35
:1016000011F482E00BC0112311F089E007C0809132
:101610000402882311F08B3019F483E080934D0588
:10162000AA960FB6F894DEBF0FBECDBFDF91CF9163
:101630001F91FF90EF90DF90CF900895CF92DF92AF
:10164000EF92FF92CF93DF93CDB7DEB76E970FB6D1
:10165000F894DEBF0FBECDBF6AEF74E0CE010196F5
:101660000E9481150E9422136B017C0186E497E0A1
:101670000E944D04882309F455C0409150075091B1
:101680005107609152077091530722E0CE014996AD
:101690000E945F146091460770E04AE0CE014396D5
:1016A0000E9414152AE0B701A601CE010D960E94F2
:1016B000E714BE016F5F7F4FCE0107960E94781539
:1016C000BE01635F7F4FCE0107960E94F81360EF63
:1016D00074E00E94DF13BE016D5E7F4F0E94F8131D
:1016E00064EF74E00E94DF13BE01675E7F4F0E94CB
:1016F000F81366EF74E00E94DF13BC01CE0101967F
:101700000E944314CE0107960E945A14CE010D96F2
:101710000E945A14CE0143960E945A14CE01499653
:101720000E945A1481E397E00E944D04882309F433
:1017300055C040913B0750913C0760913D07709127
:101740003E0722E0CE0149960E945F146091310766
:1017500070E04AE0CE0143960E9414152AE0B701DA
:10176000A601CE010D960E94E714BE016F5F7F4F68
:10177000CE0107960E947815BE01635F7F4FCE01B0
:1017800007960E94F8136BEF74E00E94DF13BE010E
:101790006D5E7F4F0E94F81364EF74E00E94DF13C8
:1017A000BE01675E7F4F0E94F81366EF74E00E94EF
:1017B000DF13BC01CE0101960E944314CE010796AF
:1017C0000E945A14CE010D960E945A14CE014396DF
:1017D0000E945A14CE0149960E945A148CE197E057
:1017E0000E944D04882309F455C04091260750916A
:1017F0002707609128077091290722E0CE014996BA
:101800000E945F1460911C0770E04AE0CE0143968D
:101810000E9414152AE0B701A601CE010D960E9480
:10182000E714BE016F5F7F4FCE0107960E947815C7
:10183000BE01635F7F4FCE0107960E94F81361E0FF
:1018400075E00E94DF13BE016D5E7F4F0E94F813AA
:1018500064EF74E00E94DF13BE01675E7F4F0E9459
:10186000F81366EF74E00E94DF13BC01CE0101960D
:101870000E944314CE0107960E945A14CE010D9681
:101880000E945A14CE0143960E945A14CE014996E2
:101890000E945A1487E097E00E944D04882309F4BF
:1018A00055C0409111075091120760911307709134
:1018B000140722E0CE0149960E945F146091070749
:1018C00070E04AE0CE0143960E9414152AE0B70169
:1018D000A601CE010D960E94E714BE016F5F7F4FF7
:1018E000CE0107960E947815BE01635F7F4FCE013F
:1018F00007960E94F81367E075E00E94DF13BE01AF
:101900006D5E7F4F0E94F81364EF74E00E94DF1356
:10191000BE01675E7F4F0E94F81366EF74E00E947D
:10192000DF13BC01CE0101960E944314CE0107963D
:101930000E945A14CE010D960E945A14CE0143966D
:101940000E945A14CE0149960E945A1482EF96E0E2
:101950000E944D04882309F455C04091FC06509123
:10196000FD066091FE067091FF0622E0CE014996C9
:101970000E945F146091F20670E04AE0CE01439647
:101980000E9414152AE0B701A601CE010D960E940F
:10199000E714BE016F5F7F4FCE0107960E94781556
:1019A000BE01635F7F4FCE0107960E94F8136DE082
:1019B00075E00E94DF13BE016D5E7F4F0E94F81339
:1019C00064EF74E00E94DF13BE01675E7F4F0E94E8
:1019D000F81366EF74E00E94DF13BC01CE0101969C
:1019E0000E944314CE0107960E945A14CE010D9610
:1019F0000E945A14CE0143960E945A14CE01499671
:101A00000E945A148DED96E00E944D04882309F43B
:101A100055C04091E7065091E8066091E906709143
:101A2000EA0622E0CE0149960E945F146091DD062D
:101A300070E04AE0CE0143960E9414152AE0B701F7
:101A4000A601CE010D960E94E714BE016F5F7F4F85
:101A5000CE0107960E947815BE01635F7F4FCE01CD
:101A600007960E94F81363E175E00E94DF13BE0140
:101A70006D5E7F4F0E94F81364EF74E00E94DF13E5
:101A8000BE01675E7F4F0E94F81366EF74E00E940C
:101A9000DF13BC01CE0101960E944314CE010796CC
:101AA0000E945A14CE010D960E945A14CE014396FC
:101AB0000E945A14CE0149960E945A1488EC96E06E
:101AC0000E944D04882309F455C04091D2065091DC
:101AD000D3066091D4067091D50622E0CE014996D6
:101AE0000E945F146091C80670E04AE0CE01439600
:101AF0000E9414152AE0B701A601CE010D960E949E
:101B0000E714BE016F5F7F4FCE0107960E947815E4
:101B1000BE01635F7F4FCE0107960E94F81369E113
:101B200075E00E94DF13BE016D5E7F4F0E94F813C7
:101B300064EF74E00E94DF13BE01675E7F4F0E9476
:101B4000F81366EF74E00E94DF13BC01CE0101962A
:101B50000E944314CE0107960E945A14CE010D969E
:101B60000E945A14CE0143960E945A14CE014996FF
:101B70000E945A1483EB96E00E944D04882309F4D6
:101B800055C04091BD065091BE066091BF06709150
:101B9000C00622E0CE0149960E945F146091B30610
:101BA00070E04AE0CE0143960E9414152AE0B70186
:101BB000A601CE010D960E94E714BE016F5F7F4F14
:101BC000CE0107960E947815BE01635F7F4FCE015C
:101BD00007960E94F8136FE175E00E94DF13BE01C3
:101BE0006D5E7F4F0E94F81364EF74E00E94DF1374
:101BF000BE01675E7F4F0E94F81366EF74E00E949B
:101C0000DF13BC01CE0101960E944314CE0107965A
:101C10000E945A14CE010D960E945A14CE0143968A
:101C20000E945A14CE0149960E945A148EE996E0F9
:101C30000E944D04882309F455C04091A806509194
:101C4000A9066091AA067091AB0622E0CE014996E2
:101C50000E945F1460919E0670E04AE0CE014396B8
:101C60000E9414152AE0B701A601CE010D960E942C
:101C7000E714BE016F5F7F4FCE0107960E94781573
:101C8000BE01635F7F4FCE0107960E94F81365E2A5
:101C900075E00E94DF13BE016D5E7F4F0E94F81356
:101CA00064EF74E00E94DF13BE01675E7F4F0E9405
:101CB000F81366EF74E00E94DF13BC01CE010196B9
:101CC0000E944314CE0107960E945A14CE010D962D
:101CD0000E945A14CE0143960E945A14CE0149968E
:101CE0000E945A1489E896E00E944D04882309F462
:101CF00055C040919306509194066091950670915D
:101D0000960622E0CE0149960E945F1460918906F2
:101D100070E04AE0CE0143960E9414152AE0B70114
:101D2000A601CE010D960E94E714BE016F5F7F4FA2
:101D3000CE0107960E947815BE01635F7F4FCE01EA
:101D400007960E94F8136BE275E00E94DF13BE0154
:101D50006D5E7F4F0E94F81364EF74E00E94DF1302
:101D6000BE01675E7F4F0E94F81366EF74E00E9429
:101D7000DF13BC01CE0101960E944314CE010796E9
:101D80000E945A14CE010D960E945A14CE01439619
:101D90000E945A14CE0149960E945A148D819E8148
:101DA000029778F0BE016F5F7F4FCE0107960E94C9
:101DB0007815CE0107960E94BC08CE0107960E94B6
:101DC0005A14CE0101960E945A146E960FB6F894DA
:101DD000DEBF0FBECDBFDF91CF91FF90EF90DF90C0
:101DE000CF900895FC01862F1382128215821482EF
:101DF000168217821086118612861386148615861F
:101E0000118A128A138A148A608B478762E00C94C5
:101E1000171285ED8093BC008091BC0084FDFCCF3F
:101E20001092CB05089540918607262F30E0240FAD
:101E3000311D21323105DCF42091CB052430C9F469
:101E4000FC0180E090E0861758F4309186072191DC
:101E5000DC01AC59B84FA30FB11D2C930196F3CF01
:101E600080918607680F6093860780E0089581E07F
:101E7000089582E00895089581E090E03091AC07E4
:101E80002091AB07321710F480E090E09195819596
:101E9000910908958091AC079091AB07891730F4B0
:101EA0008F5F8093AC0780E090E008958FEF9FEF05
:101EB00008958091AB0790E02091AC07821B9109B7
:101EC0000895CF92DF92EF92FF920F931F93CF93DB
:101ED000DF937C01262F972F8A018091A405882308
:101EE00091F0C62FD72F6E01C40ED51ECC15DD057F
:101EF00071F06991D701ED91FC910190F081E02D95
:101F0000C7011995F3CF642F822F0E94130FC801C8
:101F1000DF91CF911F910F91FF90EF90DF90CF90C5
:101F20000895CF93DF931F92CDB7DEB769832091D9
:101F3000A4052223D1F02091CC05203240F021E0ED
:101F400030E0FC013383228380E090E015C0809173
:101F5000CD05E82FF0E0EC57FA4F998190838F5F21
:101F60008093CD058093CC0505C061E0CE0101963C
:101F70000E94130F81E090E00F90DF91CF910895C0
:101F800090E0FC013197E231F10508F04EC088275E
:101F9000E458FF4F8F4F0C943D2E809180008F7737
:101FA00003C0809180008F7D809380000895809190
:101FB0008000877FF9CF84B58F7702C084B58F7D8D
:101FC00084BD08958091B0008F7703C08091B000E8
:101FD0008F7D8093B0000895809190008F7707C027
:101FE000809190008F7D03C080919000877F8093C7
:101FF000900008958091A0008F7707C08091A00085
:102000008F7D03C08091A000877F8093A0000895FA
:10201000809120018F7707C0809120018F7D03C0C0
:1020200080912001877F8093200108953FB7F89425
:102030008091600790916107A0916207B09163075A
:1020400026B5A89B05C02F3F19F00196A11DB11D13
:102050003FBFBA2FA92F982F8827820F911DA11D4E
:10206000B11DBC01CD0142E0660F771F881F991F8B
:102070004A95D1F708950E945B300F931F93CF9339
:10208000DF938C01C0E0D0E0F801EC0FFD1F6491FC
:10209000662371F0E0917D06F0917E060190F0815B
:1020A000E02D8DE796E01995892B11F02196ECCF64
:1020B000CE01DF91CF911F910F910895CF93DF93C0
:1020C000CDB7DEB728970FB6F894DEBF0FBECDBFF1
:1020D00098E0E8E8F2E0DE01119601900D929A9501
:1020E000E1F790918506981710F48FEF890FFE01A4
:1020F0003196E80FF11DE80FF11D6081606840E046
:102100008DE796E028960FB6F894DEBF0FBECDBFE0
:10211000DF91CF910C9468061F920F920FB60F9229
:1021200011240BB60F922F933F934F935F936F93AE
:102130007F938F939F93AF93BF93EF93FF93809180
:10214000B900887F803609F49CC068F5883209F4AC
:102150005BC090F4803109F454C038F4882309F44A
:10216000F6C0883009F44DC0F6C0883109F44CC07F
:10217000803209F45DC0EFC0803409F468C048F4CF
:10218000803309F455C0883309F0E5C08093A50574
:10219000D8C0803509F44FC0883509F45DC0883453
:1021A00009F0D9C0D6C0883909F4C7C0A8F4883767
:1021B00009F467C038F4883609F463C0803709F43D
:1021C00060C0C9C0883809F4B8C0803909F45FC05C
:1021D000803809F0C0C05BC0803B09F486C038F489
:1021E000803A09F466C0883A09F47FC0B4C0803CE4
:1021F00009F4A7C0883C09F4A4C0883B09F48AC04C
:10220000AAC08091C80510C09091C7058091C605ED
:10221000981770F5E091C70581E08E0F8093C70590
:10222000F0E0EA55FA4F80818093BB0085EC86C0D0
:102230008093A5058EC0E091C70581E08E0F809345
:10224000C7058091BB00F0E0EA55FA4F808390917A
:10225000C7058091C6056EC0E091C70581E08E0F6D
:102260008093C7058091BB00F0E0EA55FA4F808368
:102270008091CA0581116DC081E08093C90584EA0F
:1022800061C083E08093CB051092AA07CFCF8091E5
:10229000AA07803208F051C0E091AA0781E08E0FB2
:1022A0008093AA078091BB00F0E0E657F84F808347
:1022B000BDCF85EC8093BC001092CB058091AA071E
:1022C000803230F4E091AA07F0E0E657F84F108230
:1022D0006091AA0770E0E0918807F09189078AE889
:1022E00097E019951092AA0736C084E08093CB0539
:1022F0001092870710928607E0918407F091850776
:10230000199580918607811105C081E08093860729
:1023100010926407E091870781E08E0F8093870712
:10232000F0E0EC59F84F80818093BB0090918707D3
:1023300080918607981708F479CF85E88093BC00D0
:102340000AC085EC8093BC001092CB0504C01092AB
:10235000A5050E94090FFF91EF91BF91AF919F9149
:102360008F917F916F915F914F913F912F910F903E
:102370000BBE0F900FBE0F901F901895CF93DF9359
:10238000282F30E0F901E15AFA4F8491F901E75E14
:10239000FA4FD491F901ED52FB4FC491CC2391F047
:1023A00081110E94C00FEC2FF0E0EE0FFF1FE754E9
:1023B000FB4FA591B491EC91ED2381E090E021F4E5
:1023C00080E002C080E090E0DF91CF9108951F93FC
:1023D000CF93DF93282F30E0F901E15AFA4F84912F
:1023E000F901E75EFA4FD491F901ED52FB4FC49128
:1023F000CC23C9F0162F81110E94C00FEC2FF0E002
:10240000EE0FFF1FE156FB4FA591B4918FB7F894E3
:10241000111105C09C91ED2FE095E92302C0EC91CC
:10242000ED2BEC938FBFDF91CF911F910895CF9348
:10243000DF9390E0FC01E75EFA4F2491FC01ED523E
:10244000FB4F8491882361F190E0880F991FFC0174
:10245000EB57FB4FC591D491FC01E156FB4FA59181
:10246000B491611109C09FB7F894888120958223A7
:102470008883EC912E230BC0623061F49FB7F894EF
:102480003881822F809583238883EC912E2B2C9387
:102490009FBF06C08FB7F894E8812E2B28838FBF8B
:1024A000DF91CF9108958F929F92AF92BF92CF927A
:1024B000DF92EF92FF926B017C010E9416104B019C
:1024C0005C01C114D104E104F104F1F00E94161082
:1024D000DC01CB0188199909AA09BB09883E934000
:1024E000A105B10570F321E0C21AD108E108F10895
:1024F00088EE880E83E0981EA11CB11CC114D10483
:10250000E104F10419F7DDCFFF90EF90DF90CF9059
:10251000BF90AF909F908F900895CF93DF931092CC
:10252000AC071092AB071092CD051092CC0510921B
:10253000CB0581E08093CA051092C90561E084E172
:102540000E94E71161E085E10E94E7118091B900E6
:102550008E7F8093B9008091B9008D7F8093B90000
:1025600088E48093B80085E48093BC0010928206D2
:1025700080918706823018F098E0909382068093CD
:10258000850662E370E080E090E00E945312609163
:1025900088068DE796E00E94EA0568EE73E080E029
:1025A00090E00E94531260E38DE796E00E944F0690
:1025B000CBE4D6E4CE010197F1F760E38DE796E036
:1025C0000E944F062197F1F760E38DE796E00E94A5
:1025D0004F0683E592E00197F1F760E28DE796E020
:1025E0000E944F0660918206606240E08DE796E0AF
:1025F0000E94680684E08093830640E06CE08DE7EB
:1026000096E00E94680640E061E08DE796E00E9457
:102610006806CBE3DFE1CE010197F1F782E080931A
:10262000840640E066E08DE796E00E94680640E0A0
:1026300062E08DE796E00E9468062197F1F7DF914E
:10264000CF9108952FB7F89460915C0770915D0762
:1026500080915E0790915F072FBF08951F920F92A0
:102660000FB60F9211242F933F938F939F93AF93A5
:10267000BF9380915C0790915D07A0915E07B09138
:102680005F0730915B0723E0230F2D3720F401967D
:10269000A11DB11D05C026E8230F0296A11DB11D85
:1026A00020935B0780935C0790935D07A0935E0780
:1026B000B0935F078091600790916107A0916207D6
:1026C000B09163070196A11DB11D8093600790939F
:1026D0006107A0936207B0936307BF91AF919F9189
:1026E0008F913F912F910F900FBE0F901F901895D3
:1026F0000F931F93CF93DF93EC018881998100970B
:1027000029F02A813B812617370788F48B016F5FF8
:102710007F4F0E94722F009761F0998388831B83FB
:102720000A832C813D81232B11F4FC01108281E06E
:1027300001C080E0DF91CF911F910F910895EF923A
:10274000FF920F931F93CF93DF93FC012481358178
:102750006115710511F480E019C041155105A9F00A
:102760007B01EC018A01020F131FB8010E9478134C
:10277000882389F3288139818C819D81B701820F5B
:10278000931F0E9469301D830C8381E0DF91CF91FC
:102790001F910F91FF90EF900895CF93DF93EC017D
:1027A00088819981009711F00E94DA2E198218828F
:1027B0001D821C821B821A82DF91CF910895CF93D4
:1027C000DF93EC016115710561F0FB0101900020C0
:1027D000E9F73197AF01461B570B0E949F138111F8
:1027E00003C0CE010E94CD13CE01DF91CF91089599
:1027F000CF93DF93EC01FB014481558160817181AE
:102800000E949F13811103C0CE010E94CD13CE01FF
:10281000DF91CF910895EF92FF920F931F93CF9383
:10282000DF93EC017B018A01BA010E9478138111C8
:1028300004C0CE010E94CD1307C01D830C83B701D5
:10284000888199810E946930CE01DF91CF911F91DB
:102850000F91FF90EF900895CF93DF93EC016115F6
:10286000710559F0FB0101900020E9F73197AF01A4
:10287000461B570B0E940B1402C00E94CD13CE01C1
:10288000DF91CF910895CF93DF93EC01FB01861781
:10289000970761F0608171816115710529F04481AC
:1028A00055810E940B1402C00E94CD13CE01DF910E
:1028B000CF910895FC01808191810C94DA2EEF92E2
:1028C000FF920F931F93CF93DF93CDB7DEB7A197FE
:1028D0000FB6F894DEBF0FBECDBF7C01CB01BA01AD
:1028E000F70111821082138212821582148242E053
:1028F000420F8E010F5F1F4F0E94C828BC01C70105
:102900000E942C14A1960FB6F894DEBF0FBECDBF67
:10291000DF91CF911F910F91FF90EF9008950F934A
:102920001F93CF93DF93CDB7DEB7A1970FB6F8947F
:10293000DEBF0FBECDBF8C01CB01BA01F801118201
:102940001082138212821582148230E0AE014F5F32
:102950005F4F0E948229BE016F5F7F4FC8010E94B6
:102960002C14A1960FB6F894DEBF0FBECDBFDF9139
:10297000CF911F910F910895CF92DF92EF92FF9226
:102980000F931F93CF93DF936C017A018B01C0E00B
:10299000D0E0CE15DF0589F0D8016D918D01D6010B
:1029A000ED91FC910190F081E02DC6011995892BE4
:1029B00011F47E0102C02196ECCFC701DF91CF91C7
:1029C0001F910F91FF90EF90DF90CF9008950F939C
:1029D0001F93CF93DF93CDB7DEB7A2970FB6F894CE
:1029E000DEBF0FBECDBF8C01CB01BA01F801118251
:1029F0001082138212821582148230E0AE014F5F82
:102A00005F4F0E946829BE016F5F7F4FC8010E941F
:102A10002C14A2960FB6F894DEBF0FBECDBFDF9187
:102A2000CF911F910F9108950F931F93CF93DF9331
:102A3000CDB7DEB762970FB6F894DEBF0FBECDBF3D
:102A40008C01CB01F801118210821382128215824F
:102A5000148250E0BE016F5F7F4F0E945229BE0179
:102A60006F5F7F4FC8010E942C1462960FB6F894D6
:102A7000DEBF0FBECDBFDF91CF911F910F910895A3
:102A8000EF92FF920F931F93CF93DF93EC01198284
:102A900018821B821A821D821C826115710509F140
:102AA0008B01CB010E9449297C01BC01CE010E940F
:102AB0007813811109C0CE01DF91CF911F910F9141
:102AC000FF90EF900C94CD13FD82EC82B8018881C9
:102AD0009981DF91CF911F910F91FF90EF900C940E
:102AE0004229DF91CF911F910F91FF90EF900895B0
:102AF000FC011182108213821282158214820C94BE
:102B00004314FC01118210821382128215821482F6
:102B10006115710551F0FB0101900020E9F7319733
:102B2000AF01461B570B0C940B1408951F920F9284
:102B30000FB60F9211240BB60F922F933F934F9322
:102B40005F936F937F938F939F93AF93BF93EF9315
:102B5000FF938091B0079091B107A091B207B09117
:102B6000B307892B8A2B8B2B59F18091AF07E0910A
:102B7000AD07F091AE079081892780838091B007DF
:102B80009091B107A091B207B091B307181619063A
:102B90001A061B060CF056C08091B0079091B10741
:102BA000A091B207B091B3070197A109B109809331
:102BB000B0079093B107A093B207B093B30742C098
:102BC00080910502E5EAF5E0E4919FEF909305021C
:102BD000E230C9F050F4EE2399F0E13081F59091A4
:102BE0006F009D7F90936F002AC0E43019F1E0F0F0
:102BF000E53029F5909173009D7F909373001FC07D
:102C000010926E001CC0909170009D7F9093700098
:102C100091E09093B0009091B100987F9460909370
:102C2000B1001092B3000BC0909171009D7F909302
:102C3000710005C0909172009D7F9093720060E0DA
:102C40000E94E711FF91EF91BF91AF919F918F91FA
:102C50007F916F915F914F913F912F910F900BBE9C
:102C60000F900FBE0F901F901895DC01ED91FC9115
:102C7000DB0114964D915C9115976D917C910280CA
:102C8000F381E02D1994CF93DF93CDB7DEB7A197F1
:102C90000FB6F894DEBF0FBECDBF789484B58260C6
:102CA00084BD84B5816084BD85B5826085BD85B5F0
:102CB000816085BD80916E00816080936E0010926E
:102CC00081008091810082608093810080918100E9
:102CD000816080938100809180008160809380007A
:102CE0008091B10084608093B1008091B0008160D8
:102CF0008093B000809191008260809391008091D8
:102D00009100816080939100809190008160809318
:102D100090008091A10082608093A1008091A10029
:102D200081608093A1008091A00081608093A000C9
:102D30008091210182608093210180912101816035
:102D400080932101809120018160809320018091F6
:102D50007A00846080937A0080917A008260809308
:102D60007A0080917A00816080937A0080917A0065
:102D7000806880937A001092C1008AE090E0A0E021
:102D8000B0E08093360590933705A0933805B09353
:102D900039058EE19BE09093350580933405809151
:102DA00070008E7F809370008091B0008C7F809344
:102DB000B0008091B100877F8093B1008091B60010
:102DC0008F7D8093B600809170008D7F809370001E
:102DD0008091B10084608093B1008091B1008C7FBC
:102DE0008093B10086E090E09093330580933205A4
:102DF0000E94D4050E9422136093490570934A05EE
:102E000080934B0590934C0560933D0570933E0570
:102E100080933F059093400580917B00886080936C
:102E20007B0086E480937C0080917A0080648093AC
:102E30007A0080917A0086FDFCCF609178008091C5
:102E4000790070E0782B072E000C880B990B611528
:102E500071058105910511F00E94392962E08FE228
:102E60000E94171262E080E30E94171262E081E381
:102E70000E9417128FE20E94BE1121E0892B09F0F7
:102E800020E0209300020E948D1288E08093880643
:102E900060E08DE796E00E94EA0516E161E0812F8F
:102EA0000E9417121F5F1E32C9F712E061E0812FE6
:102EB0000E9417121F5F1E30C9F7E091EA05F091DA
:102EC000EB0582E08083E091E605F091E705108252
:102ED000E091E805F091E9058FEC80831092F2050E
:102EE000E091EE05F091EF0586E08083E091EC053E
:102EF000F091ED05808180618083E091EC05F09197
:102F0000ED05808188608083E091EC05F091ED050E
:102F1000808180688083E091EC05F091ED058081EF
:102F20008F7D80830E94352927E030E040E050E02B
:102F30000E94F62CDC01CB010397A109B109809313
:102F40004E0580E30E94BE11892B19F487EE809311
:102F50004D0580914D05082E000C990BAA0BBB0B5B
:102F60008A30910510F00C944C24FC018827EE580F
:102F7000FF4F8F4F0C943D2E8FEF80934D050E9495
:102F80008D1268EB7BE080EC92E00E94A6064091F7
:102F90003D0550913E0560913F05709140052AE046
:102FA000CE010A960E948F144091490550914A051E
:102FB00060914B0570914C052AE0CE0140960E942D
:102FC0008F1468EC72E0CE0146960E948115BE0116
:102FD000605F7F4FCE0146960E94F8136AED72E063
:102FE0000E94DF13BE01665F7F4F0E94F813BC0191
:102FF000CE0101960E947815CE0101960E94BC0870
:10300000CE0101960E945A14CE0146960E945A148F
:10301000CE0140960E945A14CE010A960E945A147C
:1030200080E00E945E108DEE93E00E943D1081E0F2
:103030000E945E108CED93E00E943D100E948F066E
:103040008091490590914A05A0914B05B0914C059E
:1030500040913D0550913E0560913F0570914005BE
:10306000841B950BA60BB70B20914707211124C099
:1030700020913207211120C020911D0721111CC071
:1030800020910807211118C02091F306211114C0C6
:103090002091DE06211110C02091C90621110CC01B
:1030A0002091B406211108C020919F06211104C06F
:1030B00020918A062223C1F2803325E79207A105D9
:1030C000B10590F60E948F0662EA73E0CE01019688
:1030D0000E944015CE0101960E94BC08CE010196C7
:1030E0000E945A1480E00E945E1081E993E00E94E1
:1030F0003D1081E00E945E1080E893E00E943D1048
:103100000E94352924E833E040E050E00E94F62C8C
:103110004B015C0154E6850E911CA11CB11CC12C15
:10312000D12C7601C601880D991D18161906C4F513
:103130000E9422136093490570934A0580934B05C2
:1031400090934C0512E061E0812F0E94E7111F5F10
:103150001E30C9F726013701480C591C6A1C7B1C1C
:10316000C301B2010E94531212E060E0812F0E945D
:10317000E7111F5F1E30C9F7C301B2010E9453124D
:103180008091470781110C9480248091DE0634E6FB
:10319000C31AD108E108F108882321F20C94802495
:1031A0006FE173E0CE0101960E944015CE010196B9
:1031B0000E94BC08CE0101960E945A1480E00E9431
:1031C0005E108EE093E00E943D1081E00E945E1050
:1031D0008DEF92E00E943D1068EE73E088E293E08C
:1031E0000E94A6060E9422136093490570934A0527
:1031F00080934B0590934C058091470781110C9467
:10320000E5258091DE06882369F30C94E52581E0AD
:103210000E945E1060915805062E000C770B4AE064
:10322000CE0101960E94141560915905062E000CDE
:10323000770B4AE0CE010A960E94141560E573E010
:10324000CE0140960E948115BE01665F7F4FCE0180
:1032500040960E94F81365E573E00E94DF13BE01FB
:103260006F5F7F4F0E94F81364E974E00E94DF13E0
:10327000BC018DE796E00E943516CE0140960E9473
:103280005A14CE010A960E945A14CE0101960E9449
:103290005A140E9422136093490570934A05809343
:1032A0004B0590934C05C0905405D0905505E09087
:1032B0005605F09057050091500510915105209149
:1032C000520530915305C114D104E104F104A9F071
:1032D0004B015C018C189D08AE08BF0840E28416C3
:1032E0004FEB940642E0A406B10438F00115110535
:1032F0002105310511F485E014C0011511052105E2
:10330000310599F04B015C01801A910AA20AB30AB7
:1033100040E284164FEB940642E0A406B10428F084
:1033200086E080934D050C94F72440915A05009156
:103330003D0510913E0520913F0530914005DC018F
:10334000CB01801B910BA20BB30B411108C0803144
:103350009742A105B10508F45CC084E0E2CF30914A
:10336000030220910402843F41E09407A105B105C6
:1033700010F13230A9F540910202042E000C550BD9
:10338000E22FEE0FFF0BCF01841B950BE417F5071F
:1033900019F08B30910521F540913C05042E000C6D
:1033A000550B2091010264E070E0621B710927FD5A
:1033B00073950C94F1268C329140A105B10580F4EF
:1033C00085E02802F0011124E30FF11D37FDFA9585
:1033D000EE0FFF1FE05FFD4F80818F3F09F04CC073
:1033E00040913C05042E000C550B632F660F770BA4
:1033F00080910102681B710987FD7395822F880FE8
:10340000990B20910202821B910927FD93950C9440
:10341000F12610913C051130B1F48091080781111B
:103420000C94902680911D0781110C947326809135
:10343000320781110C9481268091F30681110C943E
:103440006B260C94F7241F3F09F071C180919F06F1
:1034500081110C94AA268091B40681110C94B8268F
:103460008091C90681110C94C62680918A0681112B
:103470000C94A2260C94F7248181813009F057C165
:1034800080913B05811153C180914707882309F43E
:103490004EC180913A058130C9F580913C0581305B
:1034A000A9F580910102C0904505D0904605E090B5
:1034B0004705F0904805381779F020E030E040E407
:1034C00050E4C701B6010E943F2C87FF05C020E0F1
:1034D00030E040E85FE30EC020E030E040E450E43C
:1034E000C701B6010E943F2C87FF10C020E030E0EA
:1034F00040E05FE3C701B6010E945A2D6093450585
:103500007093460580934705909348050E9435299E
:10351000C0905007D0905107E0905207F0905307A9
:103520002AE030E040E050E00E94F62C20914E0569
:10353000022F220F110B220B330B600F711F821F02
:10354000931F0E94462C20914505309146054091DD
:103550004705509148050E945A2D4B015C0180910E
:10356000490590914A05A0914B05B0914C050091F9
:103570003D0510913E0520913F0530914005BC016D
:10358000CD01601B710B820B930B0E94442C20E039
:1035900030E048EC52E40E94C62D20E030E040E0EC
:1035A00050E40E94592D9B01AC01C501B4010E9459
:1035B000592DA70196010E94592D6B017C0122E033
:1035C000AB01BC01CE010A960E945F1440913D05FB
:1035D00050913E0560913F05709140052AE0CE0173
:1035E00040960E948F144091490550914A05609180
:1035F0004B0570914C052AE0CE0146960E948F142F
:103600006DE573E0CE014C960E948115BE016A5EA5
:103610007F4FCE014C960E94F8136AED72E00E9433
:10362000DF13BE01605F7F4F0E94F81360E773E015
:103630000E94DF13BE01665F7F4F0E94F813BC013A
:10364000CE0101960E947815CE0101960E94BC0819
:10365000CE0101960E945A14CE014C960E945A1433
:10366000CE0146960E945A14CE0140960E945A14EA
:10367000CE010A960E945A14409145055091460584
:10368000609147057091480522E0CE010A960E949C
:103690005F1480914E05682F880F770B4AE0CE01AA
:1036A00040960E94141565E773E0CE0146960E948D
:1036B0008115BE01605F7F4FCE0146960E94F813D0
:1036C0006DE773E00E94DF13BE01665F7F4F0E94CB
:1036D000F813BC01CE0101960E947815CE01019627
:1036E0000E94BC08CE0101960E945A14CE01469653
:1036F0000E945A14CE0140960E945A14CE010A9696
:103700000E945A1420E030E040E850E4C701B601BE
:103710000E94382E181644F40E948F0610925A0503
:1037200081E080933B0571C181E080933B058091EE
:103730005A05882311F40C94F72480910302E09138
:10374000040295E0E902F0011124E80FF11D87FD64
:10375000FA95EE0FFF1FE05FFD4F91819F3F11F043
:103760000C94F72490913B0591110C94F7249091BF
:10377000DE06992311F40C94F72490913A059F3FAB
:10378000C9F590913C059F3FA9F590910102C09029
:103790004105D0904205E0904305F090440589171B
:1037A00079F020E030E040E450E4C701B6010E9427
:1037B0003F2C87FF05C020E030E040E85FE30EC00B
:1037C00020E030E040E450E4C701B6010E943F2C05
:1037D00087FF10C020E030E040E05FE3C701B601A2
:1037E0000E945A2D609341057093420580934305D2
:1037F000909344050E943529C090E706D090E806D2
:10380000E090E906F090EA062AE030E040E050E07F
:103810000E94F62C20914E05022F220F110B220B35
:10382000330B600F711F821F931F0E94462C209143
:1038300041053091420540914305509144050E9455
:103840005A2D4B015C018091490590914A05A09148
:103850004B05B0914C0500913D0510913E0520911E
:103860003F0530914005BC01CD01601B710B820BFF
:10387000930B0E94442C20E030E048EC52E40E947C
:10388000C62D20E030E040E050E40E94592D9B011D
:10389000AC01C501B4010E94592DA70196010E94F7
:1038A000592D6B017C0122E0AB01BC01CE010A96CF
:1038B0000E945F1440913D0550913E0560913F0587
:1038C000709140052AE0CE0140960E948F144091ED
:1038D000490550914A0560914B0570914C052AE0CD
:1038E000CE0146960E948F146BE873E0CE014C9691
:1038F0000E948115BE016A5E7F4FCE014C960E94E8
:10390000F8136AED72E00E94DF13BE01605F7F4F23
:103910000E94F81360E773E00E94DF13BE01665F48
:103920007F4F0E94F813BC01CE0101960E947815CA
:10393000CE0101960E94BC08CE0101960E945A1445
:10394000CE014C960E945A14CE0146960E945A14FB
:10395000CE0140960E945A14CE010A960E945A1433
:103960004091410550914205609143057091440595
:1039700022E0CE010A960E945F1480914E05682FC6
:10398000880F770B4AE0CE0140960E94141565E738
:1039900073E0CE0146960E948115BE01605F7F4FA5
:1039A000CE0146960E94F8136CE973E00E94DF1383
:1039B000BE01665F7F4F0E94F813BC01CE010196E5
:1039C0000E947815CE0101960E94BC08CE01019696
:1039D0000E945A14CE0146960E945A14CE01409677
:1039E0000E945A14CE010A960E945A1420E030E038
:1039F00040E850E4C701B6010E94382E181644F47E
:103A00000E948F0610925A058FEF80933C05EFC7F6
:103A100081E080933B05EBC70E9422136093490528
:103A200070934A0580934B0590934C0540913D055A
:103A300050913E0560913F05709140052AE0CE010E
:103A40000A960E948F144091490550914A05609151
:103A50004B0570914C052AE0CE0140960E948F14D0
:103A60006AEA73E0CE0146960E948115BE01605F4E
:103A70007F4FCE0146960E94F8136AED72E00E94D5
:103A8000DF13BE01665F7F4F0E94F813BC01CE01B9
:103A900001960E947815CE0101960E94BC08CE01C5
:103AA00001960E945A14CE0146960E945A14CE01E5
:103AB00040960E945A14CE010A960E945A146AEF48
:103AC00070E088E293E00E94A606809149059091FB
:103AD0004A05A0914B05B0914C0580933D0590930C
:103AE0003E05A0933F05B09340050E948F061092BB
:103AF0005A0581E080934D0520913C059091030289
:103B000080910402213061F591110FC09FEF980F51
:103B1000933028F44FEF5FEF61E070E00EC0845007
:103B20004FEF5FEF61E070E011C09FEF980F9330AF
:103B300040F44FEF5FEF63E070E082E090E00C94C0
:103B4000F12684504FEF5FEF63E070E0833020F4A4
:103B500084E090E00C94F12688E090E00C94F1264B
:103B600091110FC098EF980F933028F441E050E086
:103B700061E070E00EC0855041E050E061E070E02F
:103B800011C098EF980F933040F441E050E063E0AB
:103B900070E089E090E00C94F126855041E050E01F
:103BA00063E070E0833020F487E090E00C94F1262D
:103BB00083E090E00C94F1260E9422136093490563
:103BC00070934A0580934B0590934C056EEE72E01E
:103BD00088E293E00E94A6060E948F0610925A0582
:103BE000109245051092460510924705109248051F
:103BF000109241051092420510924305109244051F
:103C000081E080934D0580E00E945E108091040267
:103C100040913D0550913E0560913F0570914005F2
:103C200081118CC0809158058F5F809358052AE0E0
:103C3000CE010A960E948F144091490550914A0581
:103C400060914B0570914C052AE0CE0140960E9490
:103C50008F1467EB73E0CE0146960E948115BE017A
:103C6000605F7F4FCE0146960E94F8136AED72E0C6
:103C70000E94DF13BE01665F7F4F0E94F813BC01F4
:103C8000CE0101960E947815CE0101960E94BC08D3
:103C9000CE0101960E945A14CE0146960E945A14F3
:103CA000CE0140960E945A14CE010A960E945A14E0
:103CB00060915805062E000C770B4AE0CE01019664
:103CC0000E94141560915905062E000C770B4AE0EE
:103CD000CE010A960E94141566EC73E0CE01409660
:103CE0000E948115BE01665F7F4FCE0140960E9403
:103CF000F81366E974E00E94DF13BE016F5F7F4F27
:103D00000E94F81365E974E00E94DF13BC018DE79F
:103D100096E00E943516CE0140960E945A14CE01BC
:103D20000A960E945A14CE0101960E945A1441E04C
:103D300050E062E070E085E090E08BC08091590532
:103D40008F5F809359052AE0CE010A960E948F1456
:103D50004091490550914A0560914B0570914C0581
:103D60002AE0CE0140960E948F1461ED73E0CE01EF
:103D700046960E948115BE01605F7F4FCE01469638
:103D80000E94F8136AED72E00E94DF13BE01665FC5
:103D90007F4F0E94F813BC01CE0101960E94781556
:103DA000CE0101960E94BC08CE0101960E945A14D1
:103DB000CE0146960E945A14CE0140960E945A1493
:103DC000CE010A960E945A1460915805062E000CE6
:103DD000770B4AE0CE0101960E94141560915905B7
:103DE000062E000C770B4AE0CE010A960E941415AD
:103DF00062EE73E0CE0140960E948115BE01665FBF
:103E00007F4FCE0140960E94F81366E974E00E944D
:103E1000DF13BE016F5F7F4F0E94F81365E974E006
:103E20000E94DF13BC018DE796E00E943516CE019B
:103E300040960E945A14CE010A960E945A14CE014E
:103E400001960E945A144FEF5FEF62E070E086E047
:103E500090E00E94D4088091490590914A05A09174
:103E60004B05B0914C0580933D0590933E05A09382
:103E70003F05B0934005BBC50E94221360934905DE
:103E800070934A0580934B0590934C0540913D05F6
:103E900050913E0560913F05709140052AE0CE01AA
:103EA0000A960E948F144091490550914A056091ED
:103EB0004B0570914C052AE0CE0140960E948F146C
:103EC0006DEE73E0CE0146960E948115BE01605FE3
:103ED0007F4FCE0146960E94F8136AED72E00E9471
:103EE000DF13BE01665F7F4F0E94F813BC01CE0155
:103EF00001960E947815CE0101960E94BC08CE0161
:103F000001960E945A14CE0146960E945A14CE0180
:103F100040960E945A14CE010A960E945A146AEFE3
:103F200070E088E293E00E94A60680914905909196
:103F30004A05A0914B05B0914C0580933D059093A7
:103F40003E05A0933F05B09340050E948F06109256
:103F50005A05109245051092460510924705109299
:103F600048051092410510924205109243051092A7
:103F7000440581E080934D0590913C0580910402B9
:103F8000913011F58B3029F44FEF5FEF62E070E074
:103F900026C781112CC5809103029DEF980F9230A6
:103FA00008F408C7823009F00AC70E94352922E0C8
:103FB00030E040E050E00E94F62C61307105810550
:103FC000910509F4F7C6FBC6811105C041E050E038
:103FD00062E070E0F8C68B3009F009C580910302F9
:103FE0009DEF980F923008F4F1C6823009F0F3C6C5
:103FF0000E94352922E030E040E050E00E94F62C9B
:10400000613071058105910509F4E0C6E4C60E949E
:1040100022136093490570934A0580934B05909352
:104020004C0540913D0550913E0560913F057091D2
:1040300040052AE0CE010A960E948F14409149055E
:1040400050914A0560914B0570914C052AE0CE01D4
:1040500040960E948F1463E074E0CE0146960E9461
:104060008115BE01605F7F4FCE0146960E94F81316
:104070006AED72E00E94DF13BE01665F7F4F0E940F
:10408000F813BC01CE0101960E947815CE0101966D
:104090000E94BC08CE0101960E945A14CE01469699
:1040A0000E945A14CE0140960E945A14CE010A96DC
:1040B0000E945A1480E00E945E108EEF93E00E94EE
:1040C0003D106AEF70E088E293E00E94A6068091BE
:1040D000490590914A05A0914B05B0914C058093FC
:1040E0003D0590933E05A0933F05B09340050E9487
:1040F0008F0610925A0510924505109246051092AF
:104100004705109248051092410510924205109201
:1041100043051092440581E080934D0580913C0554
:10412000813039F44FEF5FEF62E070E086E090E0BD
:1041300058C68F3F09F05BC441E050E062E070E098
:1041400085E090E04EC668EE73E088E293E00E945E
:10415000A6060E9422136093490570934A05809336
:104160004B0590934C0540913D0550913E05609163
:104170003F05709140052AE0CE010A960E948F14F7
:104180004091490550914A0560914B0570914C054D
:104190002AE0CE0140960E948F146FE074E0CE01B9
:1041A00046960E948115BE01605F7F4FCE01469604
:1041B0000E94F8136AED72E00E94DF13BE01665F91
:1041C0007F4F0E94F813BC01CE0101960E94781522
:1041D000CE0101960E94BC08CE0101960E945A149D
:1041E000CE0146960E945A14CE0140960E945A145F
:1041F000CE010A960E945A1480E00E945E108FE061
:1042000094E00E943D1081E00E945E1040E150E089
:1042100062E274E08DE796E00E94BC140E948F0673
:1042200010925A05109245051092460510924705C6
:1042300010924805109241051092420510924305D4
:104240001092440581E080934D0580914F058130A7
:1042500039F041E050E062E070E085E090E006C0B7
:104260004FEF5FEF62E070E086E090E00E94D408DC
:104270008091470781112FC08091320781112BC097
:1042800080911D07811127C080910807811123C0EB
:104290008091F30681111FC08091DE0681111BC041
:1042A0008091C906811117C08091B406811113C095
:1042B00080919F0681110FC080918A0681110BC0E9
:1042C0000E9422136093490570934A0580934B0521
:1042D00090934C05CDCFC0904905D0904A05E09011
:1042E0004B05F0904C0580913D0590913E05A091C5
:1042F0003F05B091400546015701881A990AAA0A5C
:10430000BB0A20E3821625E79206A104B104C0F699
:104310006AEF70E088E293E00E94A6060E942213F2
:104320006093500570935105809352059093530507
:10433000C0923D05D0923E05E0923F05F0924005C7
:1043400056C30E9422136093490570934A058093D7
:104350004B0590934C0568EE73E088E293E00E9471
:10436000A6060E948F0610925A05109245051092DB
:10437000460510924705109248051092410510928B
:104380004205109243051092440540913D0550911D
:104390003E0560913F05709140052AE0CE010A96E6
:1043A0000E948F144091490550914A0560914B0538
:1043B00070914C052AE0CE0140960E948F1463E371
:1043C00074E0CE0146960E948115BE01605F7F4F6A
:1043D000CE0146960E94F8136AED72E00E94DF1348
:1043E000BE01665F7F4F0E94F813BC01CE010196AB
:1043F0000E947815CE0101960E94BC08CE0101965C
:104400000E945A14CE0146960E945A14CE0140963C
:104410000E945A14CE010A960E945A14909159058E
:104420008091580589170CF060C080E00E945E10F2
:1044300085E794E00E943D1081E00E945E1060914B
:104440005805062E000C770B4AE0CE0101960E941B
:10445000141560915905062E000C770B4AE0CE0129
:104460000A960E94141560E573E0CE0140960E9402
:104470008115BE01665F7F4FCE0140960E94F81302
:1044800065E573E00E94DF13BE016F5F7F4F0E94FE
:10449000F81366E974E00E94DF13BC018DE796E033
:1044A0000E943516CE0140960E945A14CE010A96FB
:1044B0000E945A14CE0101960E945A146091580528
:1044C000062E000C770B4AE0CE010A960E941415C6
:1044D00060915905062E000C770B4AE0CE014096FC
:1044E0000E94141561E474E0C2C098170CF060C01B
:1044F00080E00E945E1084E694E00E943D1081E01E
:104500000E945E1060915805062E000C770B4AE061
:10451000CE0101960E94141560915905062E000CDB
:10452000770B4AE0CE010A960E94141560E573E00D
:10453000CE0140960E948115BE01665F7F4FCE017D
:1045400040960E94F81365E573E00E94DF13BE01F8
:104550006F5F7F4F0E94F81366E974E00E94DF13DB
:10456000BC018DE796E00E943516CE0140960E9470
:104570005A14CE010A960E945A14CE0101960E9446
:104580005A1460915905062E000C770B4AE0CE01B3
:104590000A960E94141560915805062E000C770BA0
:1045A0004AE0CE0140960E9414156DE574E05FC0AC
:1045B00080E00E945E1083E594E00E943D1081E05F
:1045C0000E945E1060915805062E000C770B4AE0A1
:1045D000CE0101960E94141560915905062E000C1B
:1045E000770B4AE0CE010A960E94141560E573E04D
:1045F000CE0140960E948115BE01665F7F4FCE01BD
:1046000040960E94F81365E573E00E94DF13BE0137
:104610006F5F7F4F0E94F81366E974E00E94DF131A
:10462000BC018DE796E00E943516CE0140960E94AF
:104630005A14CE010A960E945A14CE0101960E9485
:104640005A1460915805062E000C770B4AE0CE01F3
:104650000A960E94141560915905062E000C770BDE
:104660004AE0CE0140960E94141562E774E0CE0144
:1046700046960E948115BE01605F7F4FCE0146962F
:104680000E94F81368E574E00E94DF13BE01665FC4
:104690007F4F0E94F8136FEC73E00E94DF13BC01A0
:1046A000CE0101960E947815CE0101960E94BC08A9
:1046B000CE0101960E945A14CE0146960E945A14C9
:1046C000CE0140960E945A14CE010A960E945A14B6
:1046D00068E57BE180E090E00E94531280E00E9458
:1046E0005E1082E494E00E943D1081E00E945E1022
:1046F00060915805062E000C770B4AE0CE0101961A
:104700000E94141560915905062E000C770B4AE0A3
:10471000CE010A960E94141560E573E0CE01409622
:104720000E948115BE01665F7F4FCE0140960E94B8
:10473000F81365E573E00E94DF13BE016F5F7F4FE2
:104740000E94F81366E974E00E94DF13BC018DE754
:1047500096E00E943516CE0140960E945A14CE0172
:104760000A960E945A14CE0101960E945A14809112
:10477000490590914A05A0914B05B0914C05809355
:104780003D0590933E05A0933F05B093400568EB2F
:104790007BE080E090E00E94531280E00E945E1077
:1047A00081E394E00E943D1081E00E945E1080E26F
:1047B00094E00E943D108091470781112FC08091A5
:1047C000320781112BC080911D07811127C0809174
:1047D0000807811123C08091F30681111FC08091C9
:1047E000DE0681111BC08091C906811117C080911E
:1047F000B406811113C080919F0681110FC0809172
:104800008A0681110BC00E942213609349057093A0
:104810004A0580934B0590934C05CDCF8091490577
:1048200090914A05A0914B05B0914C0540913D05F2
:1048300050913E0560913F0570914005841B950B9A
:10484000A60BB70B80339547A105B105E0F6109292
:104850004D051092490510924A0510924B05109291
:104860004C0510923D0510923E0510923F051092A6
:10487000400510925405109255051092560510925D
:104880005705109250051092510510925205109242
:10489000530510925A05ABC00E948F0630E1A32E3B
:1048A00032E0B32EE12CF12C00E010E080914707BC
:1048B0008111DEC3809132078111DAC380911D0717
:1048C0008111D6C3809108078111D2C38091F3066C
:1048D0008111CEC38091DE068111CAC38091C906C1
:1048E0008111C6C38091B4068111C2C380919F0615
:1048F0008111BEC380918A06882309F475C2B8C3AA
:1049000080914707811177C08091DE06882309F4E2
:10491000C8C080E00E945E108EE593E00E943D10CA
:1049200081E00E945E108DE493E00E943D10409172
:104930003D0550913E0560913F05709140052AE08C
:10494000CE010A960E948F144091490550914A0564
:1049500060914B0570914C052AE0CE0140960E9473
:104960008F1462EE72E0CE0146960E948115BE0160
:10497000605F7F4FCE0146960E94F8136AED72E0A9
:104980000E94DF13BE01665F7F4F0E94F813BC01D7
:10499000CE0101960E947815CE0101960E94BC08B6
:1049A000CE0101960E945A14CE0146960E945A14D6
:1049B000CE0140960E945A14CE010A960E945A14C3
:1049C00011E010934D0541E050E062E070E085E0B9
:1049D00090E00E94D40810934F050E942213609328
:1049E00054057093550580935605909357050E9482
:1049F000D9030C9492178091DE06882309F484CFA2
:104A000080E00E945E108FE693E00E943D1040918E
:104A10003D0550913E0560913F05709140052AE0AB
:104A2000CE010A960E948F144091490550914A0583
:104A300060914B0570914C052AE0CE0140960E9492
:104A40008F146EE974E0CE0146960E948115BE0176
:104A5000605F7F4FCE0146960E94F8136AED72E0C8
:104A60000E94DF13BE01665F7F4F0E94F813BC01F6
:104A7000CE0101960E947815CE0101960E94BC08D5
:104A8000CE0101960E945A14CE0146960E945A14F5
:104A9000CE0140960E945A14CE010A960E945A14E2
:104AA0009CCF80914707882309F497CF80E00E942C
:104AB0005E108CE393E00E943D1081E00E945E1046
:104AC0008BE293E00E943D1040913D0550913E05E0
:104AD00060913F05709140052AE0CE010A960E9440
:104AE0008F144091490550914A0560914B05709192
:104AF0004C052AE0CE0140960E948F1465E073E0D9
:104B000028C08091DE06882309F467CF80E00E94E8
:104B10005E108AEC92E00E943D1040913D0550915C
:104B20003E0560913F05709140052AE0CE010A964E
:104B30000E948F144091490550914A0560914B05A0
:104B400070914C052AE0CE0140960E948F1463E4D8
:104B500073E0CE0146960E948115BE01605F7F4FD3
:104B6000CE0146960E94F8136AED72E00E94DF13B0
:104B7000BE01665F7F4F0E94F813BC01CE01019613
:104B80000E947815CE0101960E94BC08CE010196C4
:104B90000E945A14CE0146960E945A14CE014096A5
:104BA0000E945A14CE010A960E945A1481E0809302
:104BB0004D054FEF5FEF62E070E086E090E00E940D
:104BC000D4088FEF80934F0508CF80914707882343
:104BD00009F458C08091DE06882309F453C080E0B0
:104BE0000E945E108CEE92E00E943D1040913D05C7
:104BF00050913E0560913F05709140052AE0CE013D
:104C00000A960E948F144091490550914A0560917F
:104C10004B0570914C052AE0CE0140960E948F14FE
:104C200063EB74E0CE0146960E948115BE01605F81
:104C30007F4FCE0146960E94F8136AED72E00E9403
:104C4000DF13BE01665F7F4F0E94F813BC01CE01E7
:104C500001960E947815CE0101960E94BC08CE01F3
:104C600001960E945A14CE0146960E945A14CE0113
:104C700040960E945A14CE010A960E945A1410922D
:104C80004D05ABCE80914707882309F43ACF80E0E9
:104C90000E945E108BED92E00E943D1040913D0518
:104CA00050913E0560913F05709140052AE0CE018C
:104CB0000A960E948F144091490550914A056091CF
:104CC0004B0570914C052AE0CE0140960E948F144E
:104CD00064E373E048CE60910302062E000C770B6C
:104CE0006F5F7F4F15C060910302062E000C770B9B
:104CF00080910402082E000C990B41E050E00197CE
:104D00001CC060910302062E000C770B61507109E4
:104D10008091040241E050E0082E000C990B0DC078
:104D200060910302062E000C770B80910402082E7E
:104D3000000C990B41E050E001960E94D4081093BA
:104D40005A0555CE60910302062E000C770B615078
:104D5000710923C060910302062E000C770B80912D
:104D60000402082E000C990B4FEF5FEF01971CC057
:104D700060910302062E000C770B80910402082E2E
:104D8000000C990B4FEF5FEF01960EC0609103028C
:104D9000062E000C770B6F5F7F4F809104024FEF60
:104DA0005FEF082E000C990B0E94D40881E08093DD
:104DB0005A051DCE4FEF5FEF63E070E004C04FEF88
:104DC0005FEF61E070E081E090E00BC041E050E017
:104DD00063E070E004C041E050E061E070E08AE030
:104DE00090E00E94D40803CEF801EE0FFF1FEA0DF9
:104DF000FB1DD0808FEF8D0D843008F08FC08D2D7E
:104E000042E0D49E800D11249DEF392E380E22E011
:104E1000C22ED12C832C912C80E00E945E104AE09F
:104E2000B801CE0101960E9414154AE0B701CE01E7
:104E30000A960E94141568E874E0CE0140960E941C
:104E40008115BE01665F7F4FCE0140960E94F81328
:104E50006DE874E00E94DF13BE016F5F7F4F0E9418
:104E6000F81360E974E00E94DF13BC018DE796E05F
:104E70000E943516CE0140960E945A14CE010A9621
:104E80000E945A14CE0101960E945A1481E00E9499
:104E90005E10B601680D791D4AE0CE0101960E94B0
:104EA000141568E974E0CE010A960E948115BE01CE
:104EB0006F5F7F4FCE010A960E94F81360E974E09D
:104EC0000E94DF13BC018DE796E00E943516CE01EB
:104ED0000A960E945A14CE0101960E945A14232C5D
:104EE0002C0C61E0822D0E94E71168EE73E080E0F7
:104EF00090E00E94531260E0822D0E94E71168EE5C
:104F000073E080E090E00E9453125FEFC51AD50A6B
:104F100085E0C816D10409F07FCF98C09FEFD9165D
:104F200009F494C080E00E945E101B861A861D86DC
:104F30001C861F861E864AE0BE016F5F7F4FC80138
:104F40000E94AF29BE016F5F7F4FCE010A960E947B
:104F50002C14198A188A1B8A1A8A1D8A1C8A4AE00C
:104F6000BE016F5F7F4FC7010E94AF29BE016F5F17
:104F70007F4FCE0140960E942C1468E874E0CE0169
:104F800001960E948115BE01605F7F4FCE010196A0
:104F90000E94F8136DE874E00E94DF13BE01665FA3
:104FA0007F4F0E94F81360E974E00E94DF13BC0198
:104FB0008DE796E00E943516CE0101960E945A14A4
:104FC000CE0140960E945A14CE010A960E945A14AD
:104FD00081E00E945E106D2D0D2C000C770B4AE0D5
:104FE000CE0101960E94141568E974E0CE010A967C
:104FF0000E948115BE016F5F7F4FCE010A960E940D
:10500000F81360E974E00E94DF13BC018DE796E0BD
:105010000E943516CE010A960E945A14CE010196BE
:105020000E945A1461E08D2D0E94E71168EE73E032
:1050300080E090E00E94531260E08D2D0E94E71105
:1050400068EE73E080E090E00E9453120F5F1F4F04
:105050000530110509F02ACC2FEFE21AF20A3AE0E6
:10506000A30EB11C4AE0E416F10409F01DCCBFCC3C
:1050700010924D05BCCC87E796E00C945A14EEECE8
:10508000F5E01382128288EE93E0A0E0B0E0848322
:105090009583A683B78324E932E031832083EAED48
:1050A000F5E01382128284839583A683B78386EA10
:1050B00092E09183808385EC90E09587848784ECEF
:1050C00090E09787868780EC90E0918B808B81ECD5
:1050D00090E0938B828B82EC90E0958B848B86ECB6
:1050E00090E0978B868B118E128E138E148E43E078
:1050F00066E386E497E00E94F20E43E067E381E313
:1051000097E00E94F20E43E068E38CE197E00E9492
:10511000F20E43E069E387E097E00E94F20E43E07D
:105120006AE382EF96E00E94F20E43E06BE38DEDBE
:1051300096E00E94F20E43E06CE388EC96E00E9459
:10514000F20E43E06DE383EB96E00E94F20E43E043
:105150006EE38EE996E00E94F20E43E06FE389E889
:1051600096E00E94F20EEDE7F6E01382128288EBE1
:1051700092E0918380838FE3848380E1818782E062
:10518000828713866AEF74E087E796E00C948115B6
:10519000EF920F931F93CF93DF93E80147FD02C077
:1051A00034E001C034E1E42F440FFF0BF7FF03C0EC
:1051B000F195E195F109E32E022F2E2FAE010E9409
:1051C000C929CE01DF91CF911F910F91EF900895E2
:1051D0008F929F92AF92BF92CF92DF92EF92FF9207
:1051E000CF93DF93EC01688179818A819B8161157E
:1051F00071058105910521F464E279ED8BE597E075
:105200002DE133EF41E050E00E94F62C49015A01B4
:105210009B01AC01A7EAB1E40E94152D6B017C0152
:10522000ACEEB4EFA50194010E94232DDC01CB016B
:105230008C0D9D1DAE1DBF1DB7FF03C00197A109B9
:10524000B04888839983AA83BB83BC01CD019F7733
:10525000DF91CF91FF90EF90DF90CF90BF90AF9014
:105260009F908F9008950C94E82886E092E00C942B
:10527000E8286093060270930702809308029093D7
:1052800009020895FB01DC0105900D920020E1F771
:105290000895FC0105900020E9F7809590958E0F08
:1052A0009F1F08954532510520F4423010F00C94B0
:1052B0005D29FB011082CB010895BB274A3031F4F0
:1052C000992322F4BDE2909581959F4F0C94B029CB
:1052D0002532310520F4223010F00C947329FA01A4
:1052E0001082CA010895BB272A3051F4992342F451
:1052F000BDE290958095709561957F4F8F4F9F4F40
:105300000C948E292532310520F4223010F00C94B3
:105310008D29FA011082CA010895BB27FA01A62F30
:105320006217710581059105330B30FB66F0AA27E2
:10533000660F771F881F991FAA1FA21710F0A21BC4
:1053400063953850A9F7A05DAA3308F0A95DA19331
:1053500036F7B111B1931082CA010C942F2CBB27E0
:10536000FB015527AA27880F991FAA1FA41710F021
:10537000A41B83955051B9F7A05DAA3308F0A95D2D
:10538000A193009779F7B111B1931192CB010C94CD
:105390002F2C4F925F926F927F929F92AF92BF920B
:1053A000CF92DF92EF92FF920F931F93CF93DF93F1
:1053B000CDB7DEB729970FB6F894DEBF0FBECDBFCD
:1053C0006A01122FB02E2BE3201720F0FF24F39454
:1053D000F00E02C0BCE3FB2E0F2D27E0AE014F5FA5
:1053E0005F4F0E94572BAC018981982F99709130A3
:1053F00031F0E1FC06C0E0FE06C090E205C09DE28F
:1054000003C09BE201C090E0EE2DE07183FF3CC041
:10541000911102C083E001C084E0811718F4212FAC
:10542000281B01C020E0E1110BC0F601822F30E201
:10543000882319F031938150FBCFC20ED11C20E09C
:10544000992329F0D6019C93F60131966F01C6018C
:105450000396E2FE0AC03EE4D6013C9341E4119675
:105460004C93119712963C9306C03EE6F6013083AA
:1054700041E641833283FC01322F40E2332309F4B9
:1054800042C041933150FACF82FF44C0911102C013
:1054900083E001C084E0811718F4212F281B01C08C
:1054A00020E0E1110BC0F601822F30E2882319F0D1
:1054B00031938150FBCFC20ED11C20E0992329F0FB
:1054C000D6019C93F60131966F01C6010396E2FE68
:1054D0000BC039E4D6013C933EE411963C931197FE
:1054E00036E412963C9307C039E6F60130833EE677
:1054F000318336E63283FC01322F40E2332319F048
:1055000041933150FBCFFC01E20FF11D10828EEF71
:105510009FEFB7C0F1E0911101C0F0E06F2F70E094
:105520001416150624F49A012F5F3F4F02C021E0A4
:1055300030E0260F371FBB2029F06B2D70E06F5F26
:105540007F4F02C060E070E0260F371F612F70E0D0
:10555000261737071CF4121B212F01C020E03E2D17
:10556000387159F4D601322F60E2332319F06D936C
:105570003150FBCFC20ED11C20E0FF2331F0D60109
:105580009C93B6016F5F7F4F6B01E1110BC0F60179
:10559000922F30E3992319F031939150FBCFC20E33
:1055A000D11C20E09F2D940F3A81782F7071A72E87
:1055B00084FF03C0313309F49150191624F4993053
:1055C00018F098E001C091E0E42F852F57FF02C04A
:1055D000E0E080E06E2F782FE0E0F0E0AEE29A2E7F
:1055E0003A01691A71082A01461A570A0B2D10E070
:1055F0001195019511096F3F8FEF780729F4D601B6
:105600009C92C60101966C014617570784F06616F6
:1056100077066CF47F01E40CF51CA1E0B0E0AC0F60
:10562000BD1FEA0EFB1ED7011196BC9002C090E38D
:10563000B92E615071093196C60101967C0160173F
:10564000710724F0D601BC926C01D5CF64177507A1
:1056500041F4363320F4353321F4A11002C081E344
:10566000B82EF601B082F701822F90E2882319F05C
:1056700091938150FBCFF701E20FF11D108280E082
:1056800090E029960FB6F894DEBF0FBECDBFDF9134
:10569000CF911F910F91FF90EF90DF90CF90BF902F
:1056A000AF909F907F906F905F904F9008952830BB
:1056B00008F027E03327DA01990F311D87FD91604B
:1056C00000966105710539F432602E5F3D9330E339
:1056D0002A95E1F708959F3F30F080387105610504
:1056E00009F03C5F3C5F3D93913008F08068911D6C
:1056F000DF93CF931F930F93FF92EF92192F987F11
:105700009695E92F96959695E90FFF27E65DFD4F53
:1057100099273327EE24FF24A701E7010590089479
:10572000079428F4360FE71EF81E491F511D660F17
:10573000771F881F991F0694A1F70590079428F4F6
:10574000E70EF81E491F561FC11D770F881F991FAE
:10575000661F0694A1F70590079428F4F80E491FD8
:10576000561FC71FD11D880F991F661F771F0694EC
:10577000A1F70590079420F4490F561FC71FD81FA3
:10578000990F661F771F881F0694A9F784911095BB
:10579000177041F0D695C79557954795F794E794BC
:1057A0001A95C1F7E0EDF1E06894159015913591E7
:1057B0006591959105907FE27395E118F10A430B8D
:1057C000560BC90BD009C0F7E10CF11E431F561F41
:1057D000C91FD01D7EF4703311F48A95E6CFE8948A
:1057E000015030F0080F0AF40027021708F4202FA8
:1057F0002395022F7A3328F079E37D932A95E9F7F0
:1058000010C07D932A9589F60694979567953795EC
:1058100017951794E118F10A430B560BC90BD009E1
:1058200098F023957E9173957A3308F070E37C931A
:105830002013B8F77E9170617D9330F0839571E30A
:105840007D9370E32A95E1F71124EF90FF900F917B
:105850001F91CF91DF91992787FD90950895DC01E5
:10586000FC01672F71917723E1F7329704C07C9197
:105870006D9370836291AE17BF07C8F308950E94BD
:10588000812C08F481E00895E89409C097FB3EF468
:1058900090958095709561957F4F8F4F9F4F99237D
:1058A000A9F0F92F96E9BB279395F69587957795FB
:1058B0006795B795F111F8CFFAF4BB0F11F460FFBB
:1058C0001BC06F5F7F4F8F4F9F4F16C0882311F013
:1058D00096E911C0772321F09EE8872F762F05C027
:1058E000662371F096E8862F70E060E02AF09A95C2
:1058F000660F771F881FDAF7880F9695879597F9B7
:105900000895990F0008550FAA0BE0E8FEEF161650
:105910001706E807F907C0F012161306E407F507A3
:1059200098F0621B730B840B950B39F40A2661F017
:10593000232B242B252B21F408950A2609F4A140BA
:10594000A6958FEF811D811D089597F99F6780E8C7
:1059500070E060E008959FEF80EC089500240A94C1
:105960001616170618060906089500240A9412163A
:105970001306140605060895092E0394000C11F46D
:10598000882352F0BB0F40F4BF2B11F460FF04C01A
:105990006F5F7F4F8F4F9F4F089557FD9058440F73
:1059A000551F59F05F3F71F04795880F97FB991F7E
:1059B00061F09F3F79F0879508951216130614063B
:1059C000551FF2CF4695F1DF08C0161617061806C8
:1059D000991FF1CF86957105610508940895E894A3
:1059E000BB2766277727CB0197F90895052E97FBEC
:1059F0001EF400940E940D2D57FD07D00E94282D03
:105A000007FC03D04EF40C940D2D50954095309525
:105A100021953F4F4F4F5F4F08959095809570951A
:105A200061957F4F8F4F9F4F08950E944A2DA59FEC
:105A3000900DB49F900DA49F800D911D1124089589
:105A4000B7FF0C94152D0E94152D821B930B089502
:105A5000A1E21A2EAA1BBB1BFD010DC0AA1FBB1F72
:105A6000EE1FFF1FA217B307E407F50720F0A21BE4
:105A7000B30BE40BF50B661F771F881F991F1A9451
:105A800069F760957095809590959B01AC01BD017B
:105A9000CF010895A29FB001B39FC001A39F700DD5
:105AA000811D1124911DB29F700D811D1124911D26
:105AB00008955058BB27AA270E94712D0C94BC2C26
:105AC0000E94AE2C38F00E94B52C20F039F49F3F94
:105AD00019F426F40C94AB2C0EF4E095E7FB0C942F
