:100000000C9478010C94A9010C94A9010C94A901F9
:100010000C94A9010C94A9010C94A9010C94A901B8
:100020000C94A9010C94A9010C94A9010C94A901A8
:100030000C94A9010C94C30E0C94A9010C947603A2
:100040000C94A9010C94A9010C94A9010C94A90188
:100050000C94A9010C94A9010C94A9010C94A90D6C
:100060000C94A9010C9440030C9416030C94A90160
:100070000C94A9010C94A9010C94A9010C94A90158
:100080000C94A9010C94A9010C94A9010C94A90148
:100090000C94A9010C94A9010C94A9010C949C0B3B
:1000A0000C94A9010C94A9010C94A9010C94A90128
:1000B0000C94A9010C94A9010C94A9010C94A90118
:1000C0000C94A9010C94A9010C94A9010C94A90108
:1000D0000C94A9010C94A9010C94A9010C94A901F8
:1000E0000C94A901C614751505172019D519621AA3
:1000F0004E1B72147214CF17B40AB70AA60AAA0AC2
:10010000B00AEE0ABB0ABF0AC50AC90ACD0AD30A59
:10011000D70ADB0AEE0AE10AE50AE90A0C94621A38
:100120000C94B70A0C9472200C94EE0A0C94D51916
:100130000C946A0A0C948B040C9420190C94E50A14
:100140000C9475150C94140A0C944E1B0C94DB0A39
:100150000C9405170C94B5020C94E90A0C94D30A7C
:100160000C9413020C94230A0C94150A0C94721428
:100170000C94BB0A0C94D70A0C945A020C94AB0151
:100180000C94C90A0C943A0A0C94E10A0C94320AB1
:100190000C94B00A0C94CD0A0C94A60A0C94AA0AEA
:1001A0000C94DC010C94C50A0C94B6020C94C61491
:1001B0000C949B120C94CF170C94B40A0C94BF0AA5
:1001C0000C9419060C94CE010C94BA010000210085
:1001D000240027002A002D00300033000101000018
:1001E000040107010A010000200023002600290065
:1001F0002C002F003200000100000301060109015C
:1002000000000A0B02090C0D0E0807030401000090
:1002100000000000000000000000000000000000DE
:10022000000000000000000000000000121110009B
:1002300000000000000000000000000000000000BE
:1002400000000000000001021020200808102040DB
:10025000102040800201020108040201010204088A
:100260001020408080402010080402018004020118
:100270008040201008040201080402010102040861
:10028000102040800102040810204080000022005D
:10029000250028002B002E00310034000201000050
:1002A000050108010B0105050505070508080808F3
:1002B000020202020A0A08080404040401010101FE
:1002C00001010101030303030303030304070707F9
:1002D0000C0C0C0C0C0C0C0C02020202060606069E
:1002E000060606060B0B0B0B0B0B0B0B020072200A
:1002F00011241FBECFEFD1E2DEBFCDBF00E00CBFA7
:1003000016E0A0E0B2E0ECEDF8E400E00BBF02C0C4
:1003100007900D92A639B107D9F728E0A6E9B6E013
:1003200001C01D92AD36B207E1F711E0C8E7D1E098
:1003300000E006C021970109802FFE010E943922AA
:10034000C737D10780E00807A9F70E94E9120C948B
:100350006C240C940000FC01538D448D252F30E05B
:10036000842F90E0821B930B541710F0CF960895C2
:1003700001970895FC01918D828D981761F0828D0F
:10038000DF01A80FB11D5D968C91928D9F5F9F73C9
:10039000928F90E008958FEF9FEF0895FC01918D6B
:1003A000828D981731F0828DE80FF11D858D90E0D8
:1003B00008958FEF9FEF0895FC01918D228D892F75
:1003C00090E0805C9F4F821B91098F73992708955D
:1003D0008BE697E00E94DC0121E0892B09F420E004
:1003E000822F0895FC01848DDF01A80FB11DA35A4F
:1003F000BF4F2C91848D90E001968F739927848F45
:10040000A689B7892C93A089B1898C9180648C933B
:10041000938D848D981306C00288F389E02D808126
:100420008F7D80830895EF92FF920F931F93CF9358
:10043000DF93EC0181E0888F9B8D8C8D981305C034
:10044000E889F989808185FD24C0F62E0B8D10E0A6
:100450000F5F1F4F0F731127E02E8C8DE8120CC019
:100460000FB607FCFACFE889F989808185FFF5CFBF
:10047000CE010E94F201F1CF8B8DFE01E80FF11D3C
:10048000E35AFF4FF0820B8FEA89FB8980818062FB
:1004900007C0EE89FF896083E889F98980818064DB
:1004A000808381E090E0DF91CF911F910F91FF90C9
:1004B000EF900895CF93DF93EC01888D8823C9F0E6
:1004C000EA89FB89808185FD05C0A889B9898C915D
:1004D00086FD0FC00FB607FCF5CF808185FFF2CFF8
:1004E000A889B9898C9185FFEDCFCE010E94F201D8
:1004F000E7CFDF91CF91089580E090E0892B21F044
:100500000E94E801811125C080E090E0892B41F034
:1005100080E090E0892B21F00E94000081111CC036
:1005200080E090E0892B41F080E090E0892B21F081
:100530000E940000811113C080E090E0892BA1F09F
:1005400080E090E0892B81F00E94000081110AC0B8
:1005500008950E940000D8CF0E940000E1CF0E94C1
:100560000000EACF0C9400000895089580E090E028
:100570000895823081F01CF4813031F020C0833046
:1005800089F08430B1F01BC061307105C9F06F3F54
:100590007F4FA9F417C061307105B1F06F3F7F4FF5
:1005A00071F414C06130710599F06F3F7F4F39F4D9
:1005B00011C06130710581F06F3F7F4F79F0089570
:1005C00083E0089582E0089586E0089585E0089527
:1005D00089E0089588E008958CE008958BE00895FF
:1005E0000F931F93CF93DF93EC01088110E08C8170
:1005F0000E94CE0C0817190711F01A820FC08A81C9
:100600008F5F8A839B81891748F0888191E08927D1
:1006100088831A82882321F0998302C080E001C078
:1006200081E0DF91CF911F910F9108951F920F925A
:100630000FB60F9211240BB60F922F933F934F9347
:100640005F936F937F938F939F93AF93BF93EF933A
:10065000FF938BE697E00E94F201FF91EF91BF912B
:10066000AF919F918F917F916F915F914F913F914A
:100670002F910F900BBE0F900FBE0F901F901895EB
:100680001F920F920FB60F9211240BB60F922F9359
:100690008F939F93EF93FF93E0917B07F0917C07FB
:1006A0008081E0918107F091820782FD12C09081E4
:1006B000809184078F5F8F7320918507821751F097
:1006C000E0918407F0E0E559F84F958F8093840717
:1006D00001C08081FF91EF919F918F912F910F9099
:1006E0000BBE0F900FBE0F901F9018951F920F9288
:1006F0000FB60F9211240BB60F922F933F934F9387
:100700005F936F937F938F939F93AF93BF93EF9379
:10071000FF9380919C0690919D068093B2008091FA
:100720009F069091A006A091A106B091A206019605
:10073000A11DB11D80939F069093A006A093A106D2
:10074000B093A20680919F069091A006A091A10669
:10075000B091A206409198065091990660919A0630
:1007600070919B0684179507A607B70710F1809133
:100770009E0681111EC081E080939E0680919F0697
:100780009091A006A091A106B091A206841B950BA2
:10079000A60BB70B80939F069093A006A093A1068B
:1007A000B093A206E0919606F091970619951092E3
:1007B0009E06FF91EF91BF91AF919F918F917F9195
:1007C0006F915F914F913F912F910F900BBE0F90C2
:1007D0000FBE0F901F901895CF93FC01C48121E0AC
:1007E0002093DC06C093BB06109255071092540765
:1007F0008385682B8FE597E00E946A0A80915407F1
:10080000813208F046C0909153079111FCCF92E0DD
:100810009093530791E0909352079FEF9093DD06DA
:100820001092FF068093FE06ACEBB6E02EED36E0AC
:10083000F9019E2F921B981718F49D919193F9CF6F
:100840001092000780910007CC0FC82BC0930007BF
:1008500080915107813061F4109251078091000717
:100860008093BB008091BC0083FDF8CF85EC01C074
:1008700085EE8093BC00809153078230E1F3809134
:10088000DD068F3F31F08091DD06803211F08091DE
:10089000DD0610925507109254071092DC06CF9196
:1008A00008950F931F93CF938C01C62F0E94EC03E2
:1008B0006C2F6460C8010E94EC036C2F6B7FC80131
:1008C0000E94EC0383EC90E00197F1F7CF911F9128
:1008D0000F910895FF920F931F93CF93DF931F9271
:1008E000CDB7DEB78C01F62E962F907F692F642B43
:1008F000C80149830E94510480E1F89EB00111248F
:100900004981642BC8010F90DF91CF911F910F9106
:10091000FF900C94510441E00E946A0481E090E051
:1009200008951092420810923D08109238081092D3
:10093000330810922E081092290810922408109261
:100940001F0810921A0810921508089520910002AD
:10095000222359F0BC018BE697E00E94C6126BEA95
:1009600075E08BE697E00C94D41208950F931F93D3
:10097000CF93DF93CDB7DEB7AA970FB6F894DEBF5B
:100980000FBECDBF9091040290930202909103029A
:10099000909301029091A3069093BA06809304026B
:1009A000609303024093A3060E949D0D6093A806E6
:1009B0007093A9068093AA069093AB064091A40673
:1009C0005091A5066091A6067091A7062AE0CE0177
:1009D0004F960E94240E4091A8065091A90660915E
:1009E000AA067091AB062AE0CE0149960E94240E19
:1009F0006091A306062E000C770B4AE0CE014396C9
:100A00000E945C0E60910302062E000C770B4AE0F8
:100A1000CE010D960E945C0E60910402062E000C21
:100A2000770B4AE0CE0107960E945C0E6EEA75E0F5
:100A3000CE0101960E94AE0EBE01695F7F4FCE01CE
:100A400001960E940C0E68EB75E00E94F30DBE014A
:100A5000635F7F4F0E940C0E68EB75E00E94F30D00
:100A6000BE016D5E7F4F0E940C0E66E674E00E9430
:100A7000F30DBE01675E7F4F0E940C0E61E673E0CE
:100A80000E94F30DBE01615E7F4F0E940C0EBC01FF
:100A9000CE0185960E94940ECE0185960E94A604F2
:100AA000CE0185960E941F0ECE0101960E941F0E58
:100AB000CE0107960E941F0ECE010D960E941F0EBA
:100AC000CE0143960E941F0ECE0149960E941F0E32
:100AD000CE014F960E941F0E8091A8069091A90604
:100AE000A091AA06B091AB068093A4069093A506A8
:100AF000A093A606B093A7060E94910480910302DA
:100B0000823009F089C080910402882319F08B306B
:100B100009F082C00E945C212AE030E040E050E011
:100B20000E94D6212091AD06022F220F110B220B1D
:100B3000330BDC01CB01800F911FA21FB31F07975E
:100B4000A105B1050CF468C011E090910402209158
:100B5000030285E09802F0011124E20FF11D27FD48
:100B6000FA95EE0FFF1FE05FFD4F80818F3FF9F098
:100B70003FEF380F343070F490910202992311F056
:100B80009B30A9F46091A306062E000C770B0E94FF
:100B9000B9020AC086315CF0223031F4992311F099
:100BA0009B3011F4112319F061E00E94F70C809141
:100BB0000102E091020295E0E902F0011124E80F40
:100BC000F11D87FDFA95EE0FFF1FE05FFD4F80815D
:100BD0008F3F71F09FEF980F943038F46091BA0610
:100BE000062E000C770B0E94B90260E00E94F70C01
:100BF000809103028B7F11F482E00BC0112311F06E
:100C000089E007C080910402882311F08B3031F411
:100C100083E08093AC0602C010E097CFAA960FB68F
:100C2000F894DEBF0FBECDBFDF91CF911F910F9122
:100C30000895CF93DF93CDB7DEB76E970FB6F894D4
:100C4000DEBF0FBECDBF81E498E00E94F002882392
:100C500009F458C04091A4065091A5066091A606DB
:100C60007091A7062AE0CE0143960E94240E40917F
:100C7000A8065091A9066091AA067091AB062AE0D9
:100C8000CE010D960E94240E66E674E0CE01079612
:100C90000E94AE0E6AEB75E0CE0101960E94AE0E88
:100CA000BE01695F7F4FCE0101960E940C0EBE010E
:100CB000635F7F4F0E940C0E61E673E00E94F30DAC
:100CC000BE016D5E7F4F0E940C0EBC01CE014996A5
:100CD0000E94940ECE0149960E94A604CE01499628
:100CE0000E941F0ECE0101960E941F0ECE01079694
:100CF0000E941F0ECE010D960E941F0ECE0143963C
:100D00000E941F0E8CE398E00E94F002882309F4F1
:100D100058C04091A4065091A5066091A606709116
:100D2000A7062AE0CE0143960E94240E4091A80611
:100D30005091A9066091AA067091AB062AE0CE01F7
:100D40000D960E94240E66E674E0CE0107960E947E
:100D5000AE0E60ED75E0CE0101960E94AE0EBE01B2
:100D6000695F7F4FCE0101960E940C0EBE01635F4A
:100D70007F4F0E940C0E61E673E00E94F30DBE01EE
:100D80006D5E7F4F0E940C0EBC01CE0149960E9401
:100D9000940ECE0149960E94A604CE0149960E9467
:100DA0001F0ECE0101960E941F0ECE0107960E94D3
:100DB0001F0ECE010D960E941F0ECE0143960E947B
:100DC0001F0E87E398E00E94F002882309F458C0C0
:100DD0004091A4065091A5066091A6067091A706C1
:100DE0002AE0CE0143960E94240E4091A80650911D
:100DF000A9066091AA067091AB062AE0CE010D9675
:100E00000E94240E66E674E0CE0107960E94AE0EA4
:100E100066EE75E0CE0101960E94AE0EBE01695FDE
:100E20007F4FCE0101960E940C0EBE01635F7F4F83
:100E30000E940C0E61E673E00E94F30DBE016D5E30
:100E40007F4F0E940C0EBC01CE0149960E94940E69
:100E5000CE0149960E94A604CE0149960E941F0E1B
:100E6000CE0101960E941F0ECE0107960E941F0E12
:100E7000CE010D960E941F0ECE0143960E941F0EBA
:100E800082E398E00E94F002882309F458C0409160
:100E9000A4065091A5066091A6067091A7062AE0C7
:100EA000CE0143960E94240E4091A8065091A906B7
:100EB0006091AA067091AB062AE0CE010D960E94C1
:100EC000240E66E674E0CE0107960E94AE0E6CEF2B
:100ED00075E0CE0101960E94AE0EBE01695F7F4FA4
:100EE000CE0101960E940C0EBE01635F7F4F0E94EF
:100EF0000C0E61E673E00E94F30DBE016D5E7F4F44
:100F00000E940C0EBC01CE0149960E94940ECE01A7
:100F100049960E94A604CE0149960E941F0ECE015A
:100F200001960E941F0ECE0107960E941F0ECE0151
:100F30000D960E941F0ECE0143960E941F0E8DE259
:100F400098E00E94F002882309F458C04091A4065A
:100F50005091A5066091A6067091A7062AE0CE01E1
:100F600043960E94240E4091A8065091A9066091D4
:100F7000AA067091AB062AE0CE010D960E94240EBF
:100F800066E674E0CE0107960E94AE0E62E176E05E
:100F9000CE0101960E94AE0EBE01695F7F4FCE0169
:100FA00001960E940C0EBE01635F7F4F0E940C0EE3
:100FB00061E673E00E94F30DBE016D5E7F4F0E94FB
:100FC0000C0EBC01CE0149960E94940ECE014996AA
:100FD0000E94A604CE0149960E941F0ECE010196E2
:100FE0000E941F0ECE0107960E941F0ECE010D9685
:100FF0000E941F0ECE0143960E941F0E88E298E0C9
:101000000E94F002882309F458C04091A406509130
:10101000A5066091A6067091A7062AE0CE01439628
:101020000E94240E4091A8065091A9066091AA063C
:101030007091AB062AE0CE010D960E94240E66E662
:1010400074E0CE0107960E94AE0E68E276E0CE0113
:1010500001960E94AE0EBE01695F7F4FCE010196E0
:101060000E940C0EBE01635F7F4F0E940C0E61E672
:1010700073E00E94F30DBE016D5E7F4F0E940C0E67
:10108000BC01CE0149960E94940ECE0149960E9461
:10109000A604CE0149960E941F0ECE0101960E9421
:1010A0001F0ECE0107960E941F0ECE010D960E94C4
:1010B0001F0ECE0143960E941F0E83E298E00E940D
:1010C000F002882309F458C04091A4065091A50667
:1010D0006091A6067091A7062AE0CE0143960E9471
:1010E000240E4091A8065091A9066091AA0670911D
:1010F000AB062AE0CE010D960E94240E66E674E04F
:10110000CE0107960E94AE0E6EE376E0CE01019608
:101110000E94AE0EBE01695F7F4FCE0101960E9414
:101120000C0EBE01635F7F4F0E940C0E61E673E000
:101130000E94F30DBE016D5E7F4F0E940C0EBC013C
:10114000CE0149960E94940ECE0149960E94A604B3
:10115000CE0149960E941F0ECE0101960E941F0EDD
:10116000CE0107960E941F0ECE010D960E941F0E03
:10117000CE0143960E941F0E8EE198E00E94F0027D
:10118000882309F458C04091A4065091A5066091A7
:10119000A6067091A7062AE0CE0143960E94240E6F
:1011A0004091A8065091A9066091AA067091AB06DD
:1011B0002AE0CE010D960E94240E66E674E0CE0170
:1011C00007960E94AE0E64E576E0CE0101960E947D
:1011D000AE0EBE01695F7F4FCE0101960E940C0EDC
:1011E000BE01635F7F4F0E940C0E61E673E00E94B8
:1011F000F30DBE016D5E7F4F0E940C0EBC01CE014F
:1012000049960E94940ECE0149960E94A604CE01F2
:1012100049960E941F0ECE0101960E941F0ECE011C
:1012200007960E941F0ECE010D960E941F0ECE0142
:1012300043960E941F0E89E198E00E94F0028823E5
:1012400009F458C04091A4065091A5066091A606E5
:101250007091A7062AE0CE0143960E94240E409189
:10126000A8065091A9066091AA067091AB062AE0E3
:10127000CE010D960E94240E66E674E0CE0107961C
:101280000E94AE0E6AE676E0CE0101960E94AE0E96
:10129000BE01695F7F4FCE0101960E940C0EBE0118
:1012A000635F7F4F0E940C0E61E673E00E94F30DB6
:1012B000BE016D5E7F4F0E940C0EBC01CE014996AF
:1012C0000E94940ECE0149960E94A604CE01499632
:1012D0000E941F0ECE0101960E941F0ECE0107969E
:1012E0000E941F0ECE010D960E941F0ECE01439646
:1012F0000E941F0E84E198E00E94F002882309F406
:1013000058C04091A4065091A5066091A606709120
:10131000A7062AE0CE0143960E94240E4091A8061B
:101320005091A9066091AA067091AB062AE0CE0101
:101330000D960E94240E66E674E0CE0107960E9488
:10134000AE0E60E876E0CE0101960E94AE0EBE01C0
:10135000695F7F4FCE0101960E940C0EBE01635F54
:101360007F4F0E940C0E61E673E00E94F30DBE01F8
:101370006D5E7F4F0E940C0EBC01CE0149960E940B
:10138000940ECE0149960E94A604CE0149960E9471
:101390001F0ECE0101960E941F0ECE0107960E94DD
:1013A0001F0ECE010D960E941F0ECE0143960E9485
:1013B0001F0E6E960FB6F894DEBF0FBECDBFDF9145
:1013C000CF91089585ED8093BC008091BC0084FD91
:1013D000FCCF10925307089540912C07262F30E040
:1013E000240F311D21323105DCF4209153072430C4
:1013F000C9F4FC0180E090E0861758F430912C0786
:101400002191DC01A65FB84FA30FB11D2C9301966B
:10141000F3CF80912C07680F60932C0780E008952C
:1014200081E0089582E00895089581E090E0309190
:10143000570720915607321710F480E090E09195FD
:1014400081959109089580915707909156078917C2
:1014500030F48F5F8093570780E090E008958FEF1E
:101460009FEF08958091560790E020915707821BC7
:1014700091090895CF92DF92EF92FF920F931F93FD
:10148000CF93DF937C01262F972F8A018091DC0672
:10149000882391F0C62FD72F6E01C40ED51ECC1510
:1014A000DD0571F06991D701ED91FC910190F0811A
:1014B000E02DC7011995F3CF642F822F0E94EC090C
:1014C000C801DF91CF911F910F91FF90EF90DF90B6
:1014D000CF900895CF93DF931F92CDB7DEB7698386
:1014E0002091DC062223D1F020915407203240F0D5
:1014F00021E030E0FC013383228380E090E015C0DE
:1015000080915507E82FF0E0E454F94F99819083DA
:101510008F5F809355078093540705C061E0CE012B
:1015200001960E94EC0981E090E00F90DF91CF914D
:10153000089590E0FC013197E231F10508F04EC0CA
:101540008827E458FF4F8F4F0C94392280918000F8
:101550008F7703C0809180008F7D809380000895F5
:1015600080918000877FF9CF84B58F7702C084B5E2
:101570008F7D84BD08958091B0008F7703C08091E6
:10158000B0008F7D8093B0000895809190008F7798
:1015900007C0809190008F7D03C080919000877F6D
:1015A0008093900008958091A0008F7707C080916C
:1015B000A0008F7D03C08091A000877F8093A00052
:1015C0000895809120018F7707C0809120018F7D41
:1015D00003C080912001877F8093200108953FB749
:1015E000F8948091060790910707A0910807B091A1
:1015F000090726B5A89B05C02F3F19F00196A11D2C
:10160000B11D3FBFBA2FA92F982F8827820F911D98
:10161000A11DB11DBC01CD0142E0660F771F881FDF
:10162000991F4A95D1F708950F931F93CF93DF9396
:10163000EC0188819981009729F02A813B81261746
:10164000370788F48B016F5F7F4F0E946E230097EE
:1016500061F0998388831B830A832C813D81232B2E
:1016600011F4FC01108281E001C080E0DF91CF9194
:101670001F910F910895EF92FF920F931F93CF93B5
:10168000DF93FC01248135816115710511F480E03F
:1016900019C041155105A9F07B01EC018A01020F27
:1016A000131FB8010E94140B882389F32881398104
:1016B0008C819D81B701820F931F0E9465241D8339
:1016C0000C8381E0DF91CF911F910F91FF90EF90FC
:1016D0000895CF93DF93EC0188819981009711F0F1
:1016E0000E94D622198218821D821C821B821A82B5
:1016F000DF91CF910895EF92FF920F931F93CF93B5
:10170000DF93EC017B018A01BA010E94140B811165
:1017100004C0CE010E94690B07C01D830C83B70172
:10172000888199810E946524CE01DF91CF911F911C
:101730000F91FF90EF9008951F920F920FB60F92A6
:1017400011240BB60F922F933F934F935F936F9398
:101750007F938F939F93AF93BF93EF93FF9380916A
:10176000B900887F803609F49CC068F5883209F496
:101770005BC090F4803109F454C038F4882309F434
:10178000F6C0883009F44DC0F6C0883109F44CC069
:10179000803209F45DC0EFC0803409F468C048F4B9
:1017A000803309F455C0883309F0E5C08093DD0625
:1017B000D8C0803509F44FC0883509F45DC088343D
:1017C00009F0D9C0D6C0883909F4C7C0A8F4883751
:1017D00009F467C038F4883609F463C0803709F427
:1017E00060C0C9C0883809F4B8C0803909F45FC046
:1017F000803809F0C0C05BC0803B09F486C038F473
:10180000803A09F466C0883A09F47FC0B4C0803CCD
:1018100009F4A7C0883C09F4A4C0883B09F48AC035
:10182000AAC08091000710C09091FF068091FE062B
:10183000981770F5E091FF0681E08E0F8093FF0608
:10184000F0E0E252F94F80818093BB0085EC86C0C6
:101850008093DD068EC0E091FF0681E08E0F8093BD
:10186000FF068091BB00F0E0E252F94F8083909137
:10187000FF068091FE066EC0E091FF0681E08E0FAC
:101880008093FF068091BB00F0E0E252F94F808325
:101890008091520781116DC081E08093510784EAE5
:1018A00061C083E08093530710925007CFCF80919F
:1018B0005007803208F051C0E091500781E08E0F50
:1018C000809350078091BB00F0E0E05DF84F80838B
:1018D000BDCF85EC8093BC001092530780915007D8
:1018E000803230F4E0915007F0E0E05DF84F108274
:1018F0006091500770E0E0912E07F0912F0780E390
:1019000097E019951092500736C084E080935307F2
:1019100010922D0710922C07E0912A07F0912B07C7
:10192000199580912C07811105C081E080932C07C7
:1019300010920A07E0912D0781E08E0F80932D070A
:10194000F0E0E65FF84F80818093BB0090912D0717
:1019500080912C07981708F479CF85E88093BC0014
:101960000AC085EC8093BC001092530704C010920B
:10197000DD060E94E209FF91EF91BF91AF919F9127
:101980008F917F916F915F914F913F912F910F9028
:101990000BBE0F900FBE0F901F901895CF93DF9343
:1019A000282F30E0F901E050FE4F8491F901EA5B05
:1019B000FD4FD491F901EA55FD4FC491CC2391F02C
:1019C00081110E94990AEC2FF0E0EE0FFF1FEA51FF
:1019D000FE4FA591B491EC91ED2381E090E021F4CC
:1019E00080E002C080E090E0DF91CF9108951F93E6
:1019F000CF93DF93282F30E0F901E050FE4F849120
:101A0000F901EA5BFD4FD491F901EA55FD4FC4910C
:101A1000CC23C9F0162F81110E94990AEC2FF0E017
:101A2000EE0FFF1FE457FD4FA591B4918FB7F894C7
:101A3000111105C09C91ED2FE095E92302C0EC91B6
:101A4000ED2BEC938FBFDF91CF911F910895CF9332
:101A5000DF9390E0FC01EA5BFD4F2491FC01EA5525
:101A6000FD4F8491882361F190E0880F991FFC015C
:101A7000E453FE4FC591D491FC01E457FD4FA5916D
:101A8000B491611109C09FB7F89488812095822391
:101A90008883EC912E230BC0623061F49FB7F894D9
:101AA0003881822F809583238883EC912E2B2C9371
:101AB0009FBF06C08FB7F894E8812E2B28838FBF75
:101AC000DF91CF9108958F929F92AF92BF92CF9264
:101AD000DF92EF92FF926B017C010E94EF0A4B01B3
:101AE0005C01C114D104E104F104F1F00E94EF0A99
:101AF000DC01CB0188199909AA09BB09883E9340EA
:101B0000A105B10570F321E0C21AD108E108F1087E
:101B100088EE880E83E0981EA11CB11CC114D1046C
:101B2000E104F10419F7DDCFFF90EF90DF90CF9043
:101B3000BF90AF909F908F9008952FB7F8946091C9
:101B400002077091030780910407909105072FBF4A
:101B500008951F920F920FB60F9211242F933F9367
:101B60008F939F93AF93BF93809102079091030748
:101B7000A0910407B09105073091010723E0230FDE
:101B80002D3720F40196A11DB11D05C026E8230FB5
:101B90000296A11DB11D2093010780930207909327
:101BA0000307A0930407B09305078091060790915F
:101BB0000707A0910807B09109070196A11DB11D63
:101BC0008093060790930707A0930807B09309072F
:101BD000BF91AF919F918F913F912F910F900FBE29
:101BE0000F901F901895CF93DF93EC01611571054D
:101BF00061F0FB0101900020E9F73197AF01461B2E
:101C0000570B0E943B0B811103C0CE010E94690B50
:101C1000CE01DF91CF910895CF93DF93EC01FB01CB
:101C200044815581608171810E943B0B811103C009
:101C3000CE010E94690BCE01DF91CF910895FC0186
:101C4000808191810C94D622EF92FF920F931F9383
:101C5000CF93DF93CDB7DEB7A1970FB6F894DEBF71
:101C60000FBECDBF8C01CB01BA01F80111821082E9
:101C7000138212821582148230E0AE014F5F5F4FF3
:101C80007A010E947F21F70101900020E9F7319746
:101C9000AF014E195F09B701C8010E947B0BA196E5
:101CA0000FB6F894DEBF0FBECDBFDF91CF911F916D
:101CB0000F91FF90EF900895EF92FF920F931F9373
:101CC000CF93DF93CDB7DEB762970FB6F894DEBF40
:101CD0000FBECDBF8C01CB01F8011182108213829F
:101CE00012821582148250E09E012F5F3F4F7901CE
:101CF000B9010E946921F70101900020E9F73197AD
:101D0000AF014E195F09B701C8010E947B0B6296B3
:101D10000FB6F894DEBF0FBECDBFDF91CF911F91FC
:101D20000F91FF90EF900895FB01DC0111961C923A
:101D30001E9213961C921E92129715961C921E923A
:101D400014978617970749F06081718161157105B5
:101D500021F0448155810C947B0B0895FC01118284
:101D6000108213821282158214826115710551F05E
:101D7000FB0101900020E9F73197AF01461B570B9B
:101D80000C947B0B08951F920F920FB60F921124A3
:101D90000BB60F922F933F934F935F936F937F9365
:101DA0008F939F93AF93BF93EF93FF9380915B07C4
:101DB00090915C07A0915D07B0915E07892B8A2BFB
:101DC0008B2B59F180915807E0915907F0915A07F0
:101DD00090818927808380915B0790915C07A09117
:101DE0005D07B0915E07181619061A061B060CF05F
:101DF00056C080915B0790915C07A0915D07B09100
:101E00005E070197A109B10980935B0790935C0776
:101E1000A0935D07B0935E0742C080910502ECEE8F
:101E2000F2E0E4919FEF90930502E230C9F050F4A4
:101E3000EE2399F0E13081F590916F009D7F9093B2
:101E40006F002AC0E43019F1E0F0E53029F59091F7
:101E500073009D7F909373001FC010926E001CC092
:101E6000909170009D7F9093700091E09093B000EE
:101E70009091B100987F94609093B1001092B3005C
:101E80000BC0909171009D7F9093710005C090915F
:101E900072009D7F9093720060E00E94F70CFF91AA
:101EA000EF91BF91AF919F918F917F916F915F91D2
:101EB0004F913F912F910F900BBE0F900FBE0F903F
:101EC0001F9018950E945724CF93DF93CDB7DEB7AC
:101ED00028970FB6F894DEBF0FBECDBF28E0E8E824
:101EE000F2E0DE01119601900D922A95E1F7209122
:101EF0001008261710F46FEF620FFE013196E60FFF
:101F0000F11DE60FF11D9081682F690F606840E0B8
:101F100088E098E028960FB6F894DEBF0FBECDBFDC
:101F2000DF91CF910C946A048F929F92AF92BF92EF
:101F30000F931F93CF93DF93CDB7DEB7A1970FB663
:101F4000F894DEBF0FBECDBF19A2423008F44AE0BC
:101F50008E010F5D1F4F842E912CA12CB12CA50159
:101F600094010E940822E62FB901CA01015011090B
:101F7000EA3014F4E05D01C0E95CD801EC93232B56
:101F8000242B252B61F7B80188E098E00E94D41239
:101F9000A1960FB6F894DEBF0FBECDBFDF91CF91F3
:101FA0001F910F91BF90AF909F908F900895BC01AB
:101FB00088E098E00C94D412FF920F931F93CF9374
:101FC000DF9300D01F92CDB7DEB7209105022E32ED
:101FD00021F02F3F09F010C204C0ECEEF2E01491A2
:101FE000E7C02EE220930502ECEEF2E014911F3FD1
:101FF00009F402C2123009F472C04CF5112309F43D
:1020000051C0113009F0D4C01092800010928100AC
:10201000209181002860209381002091810021601F
:1020200020938100E4EDF2E0E491F0E0EE0FFF1F79
:10203000E457FD4F25913491309351082093500877
:10204000E4E7F2E0E491E0934F0811E0B3C014300C
:1020500009F48BC00CF466C0153009F0A9C01092C9
:10206000200110922101209121012860209321015B
:1020700020912101216020932101E4EDF2E0E4911F
:10208000F0E0EE0FFF1FE457FD4F259134913093A0
:10209000480820934708E4E7F2E0E491E09346081B
:1020A00015E088C014BC15BC24B5226024BD25B53C
:1020B000216025BDE4EDF2E0E491F0E0EE0FFF1FBA
:1020C000E457FD4F259134913093540820935308E1
:1020D000E4E7F2E0E491E093520810E06BC0109264
:1020E000B0001092B1002091B00022602093B000A7
:1020F0002091B10021602093B100E4EDF2E0E49181
:10210000F0E0EE0FFF1FE457FD4F2591349130931F
:102110005A0720935907E4E7F2E0E491E093580767
:1021200012E048C01092900010929100209191000E
:1021300028602093910020919100216020939100CC
:10214000E4EDF2E0E491F0E0EE0FFF1FE457FD4F05
:102150002591349130934E0820934D08E4E7F2E046
:10216000E491E0934C0813E025C01092A000109277
:10217000A1002091A10028602093A1002091A1003E
:1021800021602093A100E4EDF2E0E491F0E0EE0F95
:10219000FF1FE457FD4F2591349130934B08209356
:1021A0004A08E4E7F2E0E491E093490814E002C051
:1021B00017FD22C19B01AC0161E08EE229833A83C5
:1021C0004B835C830E94270D29813A814B815C817E
:1021D000112309F405C1123009F457C0113081F4FC
:1021E00080918100887F8160809381002115310575
:1021F0004105510509F48AC009E6FAE0FF2E53C0F3
:10220000133091F480919100887F816080939100D8
:10221000211531054105510579F72FEF3FEFA90150
:1022200009E6EAE0FE2EA0C0143091F48091A100EE
:10223000887F81608093A1002115310541055105FA
:10224000D9F62FEF3FEFA90109E67AE0F72EA0C0FB
:10225000153091F480912101887F81608093210164
:10226000211531054105510539F62FEF3FEFA90141
:1022700009E66AE0F62EA0C009E69AE0F92E2115DB
:10228000310541055105D1F00EC08091B100887F24
:1022900083608093B100211531054105510509F492
:1022A0004FC002E5F12CA0E7B7E10E94F52128EE2E
:1022B00033E040E050E00E94082203C02FEF3FEFE0
:1022C000A901123009F440C02CF4112381F011301F
:1022D00019F192C0143009F45BC00CF445C01530FC
:1022E00009F46AC089C02FEF3FEFA90108E207BDDA
:1022F00020936508309366084093670850936808F8
:1023000080916E00826080936E0076C02FEF3FEF69
:10231000A90109E68AE0F82E802F9F2D909389006D
:10232000809388002093610830936208409363088B
:102330005093640880916F00826080936F005CC04E
:102340002FEF3FEFA90102E50093B30020935B0755
:1023500030935C0740935D0750935E078091700057
:1023600082608093700048C0802F9F2D90939900C9
:102370008093980020935D0830935E0840935F0837
:10238000509360088091710082608093710034C026
:10239000802F9F2D9093A9008093A8002093590827
:1023A00030935A0840935B0850935C088091720008
:1023B00082608093720020C0802F9F2D909329010E
:1023C000809328012093550830935608409357086E
:1023D00050935808809173008260809373000CC002
:1023E00085B5887F836085BD21153105410551057F
:1023F00009F479CF08E256CF0F900F900F900F900D
:10240000DF91CF911F910F91FF900895CF93DF93AC
:1024100010925707109256071092550710925407C2
:102420001092530781E0809352071092510761E0A8
:1024300084E10E94F70C61E085E10E94F70C809135
:10244000B9008E7F8093B9008091B9008D7F809311
:10245000B90088E48093B80085E48093BC001092B2
:102460000D0880911208823018F098E090930D08C2
:102470008093100862E370E080E090E00E94630DBA
:102480006091130888E098E00E94EC0368EE73E026
:1024900080E090E00E94630D60E388E098E00E9495
:1024A0005104CBE4D6E4CE010197F1F760E388E074
:1024B00098E00E9451042197F1F760E388E098E0EA
:1024C0000E94510483E592E00197F1F760E288E011
:1024D00098E00E94510460910D08606240E088E03D
:1024E00098E00E946A0484E080930E0840E06CE06B
:1024F00088E098E00E946A0440E061E088E098E0AB
:102500000E946A04CBE3DFE1CE010197F1F782E09C
:1025100080930F0840E066E088E098E00E946A043B
:1025200040E062E088E098E00E946A042197F1F7B9
:10253000DF91CF910895CF92DF92EF92FF920F93A8
:102540001F93CF93DF936C017A018B01C0E0D0E041
:10255000CE15DF0589F0D8016D918D01D601ED9181
:10256000FC910190F081E02DC6011995892B11F4A1
:102570007E0102C02196ECCFC701DF91CF911F9160
:102580000F91FF90EF90DF90CF900895DC01ED91D7
:10259000FC91DB0114964D915C9115976D917C91A6
:1025A0000280F381E02D19946115710579F0FB012A
:1025B00001900020E9F73197AF01461B570BDC0172
:1025C000ED91FC910280F381E02D199480E090E080
:1025D0000895CF93DF93CDB7DEB768970FB6F89421
:1025E000DEBF0FBECDBF789484B5826084BD84B554
:1025F000816084BD85B5826085BD85B5816085BDFE
:1026000080916E00816080936E00109281008091B5
:10261000810082608093810080918100816080933D
:102620008100809180008160809380008091B10062
:1026300084608093B1008091B00081608093B0008D
:1026400080919100826080939100809191008160DF
:1026500080939100809190008160809390008091A0
:10266000A10082608093A1008091A100816080938D
:10267000A1008091A00081608093A0008091210141
:1026800082608093210180912101816080932101EA
:102690008091200181608093200180917A00846084
:1026A00080937A0080917A00826080937A00809192
:1026B0007A00816080937A0080917A0080688093AC
:1026C0007A001092C1006DEA75E0CE0101960E9479
:1026D000AE0E82E090E0A0E0B0E080939806909388
:1026E0009906A0939A06B0939B0689E196E0909391
:1026F000970680939606809170008E7F809370007D
:102700008091B0008C7F8093B0008091B100877F72
:102710008093B1008091B6008F7D8093B600809148
:1027200070008D7F809370008091B10084608093F1
:10273000B1008091B1008C7F8093B10086E090E081
:1027400090939D0680939C0610929F061092A0067F
:102750001092A1061092A20610929E0680919C06ED
:1027600090919D068093B20080917000816080936B
:1027700070000E949D0D6093A8067093A906809337
:10278000AA069093AB066093A4067093A506809367
:10279000A6069093A70680917B00886080937B00BB
:1027A00086E480937C0080917A00806480937A0034
:1027B00080917A0086FDFCCF60917800809179004D
:1027C00070E0782B072E000C880B990B61157105B2
:1027D0008105910511F00E94602162E08FE20E9464
:1027E000270D62E080E30E94270D8FE20E94CE0C4D
:1027F00021E0892B09F420E0209300020E940612B8
:1028000088E08093130860E088E098E00E94EC0381
:1028100016E161E0812F0E94270D1F5F1E32C9F76C
:1028200012E061E0812F0E94270D1F5F1E30C9F763
:10283000E0917B07F0917C0782E08083E09177074D
:10284000F09178071082E0917907F0917A078FEC88
:10285000808310928307E0917F07F091800786E0E4
:102860008083E0917D07F0917E0780818061808385
:10287000E0917D07F0917E07808188608083E09100
:102880007D07F0917E07808180688083E0917D07DD
:10289000F0917E0780818F7D8083CE0101960E941A
:1028A0001F0E15E00E945C2127E030E040E050E080
:1028B0000E94D621DC01CB010397A109B1098093C5
:1028C000AD068091AC06082E000C990BAA0BBB0B31
:1028D0008A30910538F4FC018827EE58FF4F8F4F5E
:1028E0000C94392202E061E082E00E94640F0E94B1
:1028F0009D0D28EE33E040E050E00E940822CA011E
:10290000B9014AE00E94940F61E0802F0E94F70C09
:1029100068EE73E080E090E00E94630D60E0802F3D
:102920000E94F70C68EE73E080E090E00E94630D77
:102930000F5F0E30C1F606E161E082E00E94640F95
:102940000E949D0D28EE33E040E050E00E940822F6
:10295000CA01B9014AE00E94940F61E0802F0E94F1
:10296000F70C68EE73E080E090E00E94630D60E099
:10297000802F0E94F70C68EE73E080E090E00E94E8
:10298000630D0F5F0E32C1F60C94F01D8FEF809334
:10299000AC060E94061280E30E94CE0C60EC72E04E
:1029A000CE0101960E94AE0ECE0101960E94A604B1
:1029B000CE0101960E941F0E60E080E00E94640F2D
:1029C0008AEF92E00E94D70F61E080E00E94640FDE
:1029D0008BE093E00E94D70F0E945C2124E833E053
:1029E00040E050E00E94D6216B017C0124E6C20E3B
:1029F000D11CE11CF11C812C912C5401C4018C0DC3
:102A00009D1D18161906C4F50E949D0D6093A80619
:102A10007093A9068093AA069093AB0602E061E04A
:102A2000802F0E94F70C0F5F0E30C9F7240135018B
:102A30004C0C5D1C6E1C7F1CC301B2010E94630D17
:102A400002E060E0802F0E94F70C0F5F0E30C9F7A4
:102A5000C301B2010E94630D8091420881110C9460
:102A6000F41D8091290834E6831A9108A108B10861
:102A7000882321F20C94F41D6EEA73E0CE010196D6
:102A80000E94AE0ECE0101960E94A604CE010196D0
:102A90000E941F0E60E080E00E94640F8AEB93E0CA
:102AA0000E94D70F61E080E00E94640F8BEC93E0FE
:102AB0000E94D70F68EE73E080E090E00E94DC0F88
:102AC0000E949D0D6093A8067093A9068093AA06A4
:102AD0009093AB068091420881110C94BD1E8091A9
:102AE0002908882369F30C94BD1E61E080E00E94F0
:102AF000640F6091B706062E000C770B4AE0CE01FA
:102B000001960E945C0E6091B806062E000C770BB1
:102B10004AE0CE0107960E945C0E65E074E0CE01AB
:102B20000D960E94AE0EBE01695F7F4FCE010D96DD
:102B30000E940C0E6AE074E00E94F30DBE016F5F0C
:102B40007F4F0E940C0E66E874E00E94F30DBC01FA
:102B500088E098E00E94C612CE010D960E941F0EDA
:102B6000CE0107960E941F0ECE0101960E941F0EF5
:102B70000E949D0D6093A8067093A9068093AA06F3
:102B80009093AB068090B3069090B406A090B506E3
:102B9000B090B606C090AF06D090B006E090B106F7
:102BA000F090B20681149104A104B104C9F09B0114
:102BB000AC01281939094A095B0949015A0130E277
:102BC00083163FEB930632E0A306B10448F0C1142C
:102BD000D104E104F10421F41093AC060C94F01D2F
:102BE000C114D104E104F10491F09B01AC012C1952
:102BF0003D094E095F0969017A0130E2C3163FEBD6
:102C0000D30632E0E306F10410F086E019C020910B
:102C1000B906C090A406D090A506E090A606F09054
:102C2000A706DC01CB018C199D09AE09BF09211152
:102C30000AC080319742A105B10508F44FC084E075
:102C40008093AC06CDC77091030200910402843FCB
:102C500051E09507A105B10510F1723031F52091D1
:102C60000202022E000C330B402F440F550BCA01F9
:102C7000821B930B4217530719F08B309105A9F46F
:102C80004091A306042E000C550B2091010264E034
:102C900070E0621B710927FD73950C946F208C32D4
:102CA0009140A105B10508F44AC04091A306042E45
:102CB000000C550B672F660F770B80910102681B84
:102CC000710987FD7395802F880F990B209102025F
:102CD000821B910927FD93950C946F200091A30608
:102CE0000130A9F48091330881110C94F91F80916F
:102CF000380881110C94072080913D0881110C94B3
:102D0000E21F80912E0881110C94EA1F69C70F3FC2
:102D100009F042C080911A0881110C943E208091E4
:102D20001F0881110C9419208091240881110C94A2
:102D300027208091150881110C942F2051C7010381
:102D4000F0011124E70FF11D77FDFA95EE0FFF1F3B
:102D5000E05FFD4F01810130F9F480914208882342
:102D6000D9F00E945C212AE030E040E050E00E946F
:102D7000D6212091AD06C22E220FDD08EE08FF08F5
:102D8000DC01CB018C0D9D1DAE1DBF1D0597A1055E
:102D9000B10514F00C9451208091B906882309F4F0
:102DA0001FC780910302209104022103F001112426
:102DB000E80FF11D87FDFA95EE0FFF1FE05FFD4F55
:102DC00001810F3F09F00CC780912908882309F47D
:102DD00007C70E945C212AE030E040E050E00E94FA
:102DE000D6212091AD06C22E220FDD08EE08FF0885
:102DF000DC01CB018C0D9D1DAE1DBF1D0597A105EE
:102E0000B10514F00C945120EBC60E949D0D609307
:102E1000A8067093A9068093AA069093AB064091EA
:102E2000A4065091A5066091A6067091A7062AE017
:102E3000CE0107960E94240E4091A8065091A90643
:102E40006091AA067091AB062AE0CE010D960E9411
:102E5000240E62E174E0CE0143960E94AE0EBE01E4
:102E6000635F7F4FCE0143960E940C0E61E673E0D4
:102E70000E94F30DBE01695F7F4F0E940C0EBC01E2
:102E8000CE0101960E94940ECE0101960E94A604E6
:102E9000CE0101960E941F0ECE0143960E941F0E86
:102EA000CE010D960E941F0ECE0107960E941F0EA6
:102EB0008091A8069091A906A091AA06B091AB06B0
:102EC0008093A4069093A506A093A606B093A706A8
:102ED0000E9491041092B90681E08093AC06209183
:102EE000A3069091030280910402213061F59111B3
:102EF0000FC09FEF980F933028F44FEF5FEF61E022
:102F000070E00EC084504FEF5FEF61E070E011C0E1
:102F10009FEF980F933040F44FEF5FEF63E070E066
:102F200082E090E00C946F2084504FEF5FEF63E0FD
:102F300070E0833020F484E090E00C946F2088E00F
:102F400090E00C946F2091110FC098EF980F933080
:102F500028F441E050E061E070E00EC0855041E0AF
:102F600050E061E070E011C098EF980F933040F4AA
:102F700041E050E063E070E089E090E00C946F2065
:102F8000855041E050E063E070E0833020F487E05A
:102F900090E00C946F2083E090E00C946F200E94EE
:102FA0009D0D6093A8067093A9068093AA0690933E
:102FB000AB066AEF70E080E090E00E94DC0F0E94B8
:102FC00091041092B90681E08093AC0660E080E045
:102FD0000E94640F809104024091A4065091A506BE
:102FE0006091A6067091A70681118CC08091B706EA
:102FF0008F5F8093B7062AE0CE0107960E94240EC9
:103000004091A8065091A9066091AA067091AB065E
:103010002AE0CE010D960E94240E6FE174E0CE01ED
:1030200043960E94AE0EBE01635F7F4FCE01439672
:103030000E940C0E61E673E00E94F30DBE01695F11
:103040007F4F0E940C0EBC01CE0101960E94940E8F
:10305000CE0101960E94A604CE0101960E941F0E89
:10306000CE0143960E941F0ECE010D960E941F0EA8
:10307000CE0107960E941F0E6091B706062E000C27
:10308000770B4AE0CE0101960E945C0E6091B80673
:10309000062E000C770B4AE0CE0107960E945C0ECC
:1030A0006EE274E0CE010D960E94AE0EBE01695F25
:1030B0007F4FCE010D960E940C0E66E874E00E94D0
:1030C000F30DBE016F5F7F4F0E940C0E65E874E048
:1030D0000E94F30DBC0188E098E00E94C612CE0168
:1030E0000D960E941F0ECE0107960E941F0ECE0164
:1030F00001960E941F0E41E050E062E070E085E022
:1031000090E08BC08091B8068F5F8093B8062AE06C
:10311000CE0107960E94240E4091A8065091A90660
:103120006091AA067091AB062AE0CE010D960E942E
:10313000240E69E374E0CE0143960E94AE0EBE01F8
:10314000635F7F4FCE0143960E940C0E61E673E0F1
:103150000E94F30DBE01695F7F4F0E940C0EBC01FF
:10316000CE0101960E94940ECE0101960E94A60403
:10317000CE0101960E941F0ECE0143960E941F0EA3
:10318000CE010D960E941F0ECE0107960E941F0EC3
:103190006091B706062E000C770B4AE0CE0101962F
:1031A0000E945C0E6091B806062E000C770B4AE078
:1031B000CE0107960E945C0E6AE474E0CE010D9683
:1031C0000E94AE0EBE01695F7F4FCE010D960E9438
:1031D0000C0E66E874E00E94F30DBE016F5F7F4F36
:1031E0000E940C0E65E874E00E94F30DBC0188E0BB
:1031F00098E00E94C612CE010D960E941F0ECE01CD
:1032000007960E941F0ECE0101960E941F0E4FEFDF
:103210005FEF62E070E086E090E00E94B60480918B
:10322000A8069091A906A091AA06B091AB0680933A
:10323000A4069093A506A093A606B093A706D0C4B3
:103240000E949D0D6093A8067093A9068093AA061C
:103250009093AB064091A4065091A5066091A606F6
:103260007091A7062AE0CE0107960E94240E409195
:10327000A8065091A9066091AA067091AB062AE0B3
:10328000CE010D960E94240E65E574E0CE014396B2
:103290000E94AE0EBE01635F7F4FCE0143960E9437
:1032A0000C0E61E673E00E94F30DBE01695F7F4F73
:1032B0000E940C0EBC01CE0101960E94940ECE011C
:1032C00001960E94A604CE0101960E941F0ECE0117
:1032D00043960E941F0ECE010D960E941F0ECE0136
:1032E00007960E941F0E8091A8069091A906A091B2
:1032F000AA06B091AB068093A4069093A506A0936E
:10330000A606B093A7060E9491041092B90681E028
:103310008093AC069091A30680910402913011F540
:103320008B3029F44FEF5FEF62E070E0D6C6811179
:1033300057C4809103029DEF980F923008F4B8C6ED
:10334000823009F0BAC60E945C2122E030E040E001
:1033500050E00E94D621613071058105910509F484
:10336000A7C6ABC6811105C041E050E062E070E045
:10337000A8C68B3009F034C4809103029DEF980FEA
:10338000923008F4A1C6823009F0A3C60E945C21E5
:1033900022E030E040E050E00E94D621613071052B
:1033A0008105910509F490C694C60E949D0D609315
:1033B000A8067093A9068093AA069093AB06409145
:1033C000A4065091A5066091A6067091A7062AE072
:1033D000CE0107960E94240E4091A8065091A9069E
:1033E0006091AA067091AB062AE0CE010D960E946C
:1033F000240E6BE674E0CE0143960E94AE0EBE0131
:10340000635F7F4FCE0143960E940C0E61E673E02E
:103410000E94F30DBE01695F7F4F0E940C0EBC013C
:10342000CE0101960E94940ECE0101960E94A60440
:10343000CE0101960E941F0ECE0143960E941F0EE0
:10344000CE010D960E941F0ECE0107960E941F0E00
:1034500060E080E00E94640F87E794E00E94D70F4D
:103460006AEF70E080E090E00E94DC0F8091A80697
:103470009091A906A091AA06B091AB068093A406EC
:103480009093A506A093A606B093A7060E94910468
:103490001092B90681E08093AC068091A30681303A
:1034A00039F44FEF5FEF62E070E086E090E017C61E
:1034B0008F3F09F095C341E050E062E070E085E0A5
:1034C00090E00DC668EE73E080E090E00E94DC0FB3
:1034D0000E949D0D6093A8067093A9068093AA068A
:1034E0009093AB064091A4065091A5066091A60664
:1034F0007091A7062AE0CE0107960E94240E409103
:10350000A8065091A9066091AA067091AB062AE020
:10351000CE010D960E94240E68E874E0CE01439619
:103520000E94AE0EBE01635F7F4FCE0143960E94A4
:103530000C0E61E673E00E94F30DBE01695F7F4FE0
:103540000E940C0EBC01CE0101960E94940ECE0189
:1035500001960E94A604CE0101960E941F0ECE0184
:1035600043960E941F0ECE010D960E941F0ECE01A3
:1035700007960E941F0E60E080E00E94640F8BE9B6
:1035800094E00E94D70F61E080E00E94640F8CEA13
:1035900094E00E94D70F0E9491041092B90681E036
:1035A0008093AC068091AE06813039F041E050E066
:1035B00062E070E085E090E006C04FEF5FEF62E010
:1035C00070E086E090E00E94B6048091420881118C
:1035D0002FC080913D0881112BC080913808811146
:1035E00027C080913308811123C080912E0881115A
:1035F0001FC08091290881111BC08091240881116E
:1036000017C080911F08811113C080911A08811181
:103610000FC08091150881110BC00E949D0D609311
:10362000A8067093A9068093AA069093AB06CDCF07
:10363000C090A806D090A906E090AA06F090AB062C
:103640008091A4069091A506A091A606B091A70628
:10365000A7019601281B390B4A0B5B0BDA01C90144
:1036600080339547A105B105C0F66AEF70E080E0B0
:1036700090E00E94DC0F0E949D0D6093AF06709356
:10368000B0068093B1069093B206C092A406D09281
:10369000A506E092A606F092A706A2C20E949D0D82
:1036A0006093A8067093A9068093AA069093AB0630
:1036B00068EE73E080E090E00E94DC0F0E949104CD
:1036C0001092B9064091A4065091A5066091A606F5
:1036D0007091A7062AE0CE0107960E94240E409121
:1036E000A8065091A9066091AA067091AB062AE03F
:1036F000CE010D960E94240E6DEB74E0CE01439630
:103700000E94AE0EBE01635F7F4FCE0143960E94C2
:103710000C0E61E673E00E94F30DBE01695F7F4FFE
:103720000E940C0EBC01CE0101960E94940ECE01A7
:1037300001960E94A604CE0101960E941F0ECE01A2
:1037400043960E941F0ECE010D960E941F0ECE01C1
:1037500007960E941F0E9091B8068091B70660E010
:1037600089170CF061C080E00E94640F8BEC94E03C
:103770000E94D70F61E080E00E94640F6091B7065D
:10378000062E000C770B4AE0CE0101960E945C0EDB
:103790006091B806062E000C770B4AE0CE01079622
:1037A0000E945C0E65E074E0CE010D960E94AE0EA4
:1037B000BE01695F7F4FCE010D960E940C0E6AE03C
:1037C00074E00E94F30DBE016F5F7F4F0E940C0EEC
:1037D00066E874E00E94F30DBC0188E098E00E9466
:1037E000C612CE010D960E941F0ECE0107960E94B2
:1037F0001F0ECE0101960E941F0E6091B706062E85
:10380000000C770B4AE0CE0107960E945C0E609197
:10381000B806062E000C770B4AE0CE010D960E94EA
:103820005C0E6BED74E0C4C098170CF061C080E0D2
:103830000E94640F8AE793E00E94D70F61E080E066
:103840000E94640F6091B706062E000C770B4AE0C9
:10385000CE0101960E945C0E6091B806062E000C07
:10386000770B4AE0CE0107960E945C0E65E074E09B
:10387000CE010D960E94AE0EBE01695F7F4FCE0154
:103880000D960E940C0E6AE074E00E94F30DBE01DA
:103890006F5F7F4F0E940C0E66E874E00E94F30D8C
:1038A000BC0188E098E00E94C612CE010D960E94ED
:1038B0001F0ECE0107960E941F0ECE0101960E9498
:1038C0001F0E6091B806062E000C770B4AE0CE0161
:1038D00007960E945C0E6091B706062E000C770BCF
:1038E0004AE0CE010D960E945C0E67EF74E060C066
:1038F00080E00E94640F8CE095E00E94D70F61E0A9
:1039000080E00E94640F6091B706062E000C770BD2
:103910004AE0CE0101960E945C0E6091B806062E28
:10392000000C770B4AE0CE0107960E945C0E65E022
:1039300074E0CE010D960E94AE0EBE01695F7F4F0E
:10394000CE010D960E940C0E6AE074E00E94F30D09
:10395000BE016F5F7F4F0E940C0E66E874E00E940C
:10396000F30DBC0188E098E00E94C612CE010D96CE
:103970000E941F0ECE0107960E941F0ECE010196D7
:103980000E941F0E6091B706062E000C770B4AE0CE
:10399000CE0107960E945C0E6091B806062E000CC0
:1039A000770B4AE0CE010D960E945C0E6DE175E04A
:1039B000CE0143960E94AE0EBE01635F7F4FCE01E3
:1039C00043960E940C0E62EF74E00E94F30DBE015C
:1039D000695F7F4F0E940C0E67E374E00E94F30D55
:1039E000BC01CE0101960E94940ECE0101960E9468
:1039F000A604CE0101960E941F0ECE0143960E949E
:103A00001F0ECE010D960E941F0ECE0107960E943A
:103A10001F0E68E57BE180E090E00E94630D60E0AE
:103A200080E00E94640F83E395E00E94D70F61E07D
:103A300080E00E94640F6091B706062E000C770BA1
:103A40004AE0CE0101960E945C0E6091B806062EF7
:103A5000000C770B4AE0CE0107960E945C0E65E0F1
:103A600074E0CE010D960E94AE0EBE01695F7F4FDD
:103A7000CE010D960E940C0E6AE074E00E94F30DD8
:103A8000BE016F5F7F4F0E940C0E66E874E00E94DB
:103A9000F30DBC0188E098E00E94C612CE010D969D
:103AA0000E941F0ECE0107960E941F0ECE010196A6
:103AB0000E941F0E8091A8069091A906A091AA06C7
:103AC000B091AB068093A4069093A506A093A6069A
:103AD000B093A70668EB7BE080E090E00E94630D66
:103AE00060E080E00E94640F84E495E00E94D70FBC
:103AF00061E080E00E94640F85E595E00E94D70FA9
:103B00008091420881112FC080913D0881112BC006
:103B100080913808811127C080913308811123C01A
:103B200080912E0881111FC08091290881111BC02E
:103B300080912408811117C080911F08811113C042
:103B400080911A0881110FC08091150881110BC056
:103B50000E949D0D6093A8067093A9068093AA0603
:103B60009093AB06CDCF8091A8069091A906A09125
:103B7000AA06B091AB064091A4065091A5066091AB
:103B8000A6067091A706841B950BA60BB70B803376
:103B90009547A105B105E0F61092AC061092A80673
:103BA0001092A9061092AA061092AB061092A406D3
:103BB0001092A5061092A6061092A7061092B306C0
:103BC0001092B4061092B5061092B6061092AF0687
:103BD0001092B0061092B1061092B2061092B90679
:103BE0000E947C020C94521480914208882309F4AC
:103BF00061C080912908882309F45CC060E080E0FE
:103C00000E94640F86E695E00E94D70F4091A406BB
:103C10005091A5066091A6067091A7062AE0CE01F4
:103C200007960E94240E4091A8065091A906609123
:103C3000AA067091AB062AE0CE010D960E94240ED2
:103C400067E775E0CE0143960E94AE0EBE01635F4A
:103C50007F4FCE0143960E940C0E61E673E00E94F6
:103C6000F30DBE01695F7F4F0E940C0EBC01CE01B7
:103C700001960E94940ECE0101960E94A604CE01E8
:103C800001960E941F0ECE0143960E941F0ECE0188
:103C90000D960E941F0ECE0107960E941F0E0E94D5
:103CA0009D0D6093B3067093B4068093B506909310
:103CB000B60696CF80912908882369F160E080E0FC
:103CC0000E94640F8CE193E00E94D70F61E080E0D6
:103CD0000E94640F8DE293E00E94D70F4091A406EA
:103CE0005091A5066091A6067091A7062AE0CE0124
:103CF00007960E94240E4091A8065091A906609153
:103D0000AA067091AB062AE0CE010D960E94240E01
:103D10006EE373E063C080914208882309F4BFCF4B
:103D200060E080E00E94640F89E693E00E94D70F74
:103D300061E080E00E94640F8AE793E00E94D70F61
:103D40004091A4065091A5066091A6067091A70621
:103D50002AE0CE0107960E94240E4091A8065091B9
:103D6000A9066091AA067091AB062AE0CE010D96D5
:103D70000E94240E6BE873E095C08091420888236E
:103D800021F0809129088111C9C0809142088823BF
:103D900009F45FC060E080E00E94640F8DE293E070
:103DA0000E94D70F4091A4065091A5066091A606E7
:103DB0007091A7062AE0CE0107960E94240E40913A
:103DC000A8065091A9066091AA067091AB062AE058
:103DD000CE010D960E94240E6CED73E0CE01439649
:103DE0000E94AE0EBE01635F7F4FCE0143960E94DC
:103DF0000C0E61E673E00E94F30DBE01695F7F4F18
:103E00000E940C0EBC01CE0101960E94940ECE01C0
:103E100001960E94A604CE0101960E941F0ECE01BB
:103E200043960E941F0ECE010D960E941F0ECE01DA
:103E300007960E941F0E01E00093AC0641E050E09F
:103E400062E070E085E090E00E94B6040093AE0668
:103E500026CF80912908882309F421CF60E080E0F3
:103E60000E94640F8BEE93E00E94D70F4091A4064E
:103E70005091A5066091A6067091A7062AE0CE0192
:103E800007960E94240E4091A8065091A9066091C1
:103E9000AA067091AB062AE0CE010D960E94240E70
:103EA00068EF73E0CE0143960E94AE0EBE01635FE1
:103EB0007F4FCE0143960E940C0E61E673E00E9494
:103EC000F30DBE01695F7F4F0E940C0EBC01CE0155
:103ED00001960E94940ECE0101960E94A604CE0186
:103EE00001960E941F0ECE0143960E941F0ECE0126
:103EF0000D960E941F0ECE0107960E941F0E81E0B4
:103F00008093AC064FEF5FEF62E070E086E090E0F8
:103F10000E94B6048FEF8093AE06C1CE60E080E0D1
:103F20000E94640F8CE895E00E94D70F4091A40690
:103F30005091A5066091A6067091A7062AE0CE01D1
:103F400007960E94240E4091A8065091A906609100
:103F5000AA067091AB062AE0CE010D960E94240EAF
:103F60006DE975E0CE0143960E94AE0EBE01635F1F
:103F70007F4FCE0143960E940C0E61E673E00E94D3
:103F8000F30DBE01695F7F4F0E940C0EBC01CE0194
:103F900001960E94940ECE0101960E94A604CE01C5
:103FA00001960E941F0ECE0143960E941F0ECE0165
:103FB0000D960E941F0ECE0107960E941F0E1092B2
:103FC000AC066DCE60910302062E000C770B61509B
:103FD000710907C060910302062E000C770B6F5F1A
:103FE0007F4F8091040241E050E0082E000C990BB5
:103FF0001BC060910302062E000C770B8091040217
:10400000082E000C990B41E050E001960DC0609124
:104010000302062E000C770B80910402082E000C80
:10402000990B41E050E001970E94B6040093B90655
:10403000D7CD60910302062E000C770B809104020D
:10404000082E000C990B4FEF5FEF019624C0609192
:104050000302062E000C770B6F5F7F4F07C0609145
:104060000302062E000C770B615071098091040247
:104070004FEF5FEF082E000C990B0DC0609103020B
:10408000062E000C770B80910402082E000C990B71
:104090004FEF5FEF01970E94B60481E08093B9066D
:1040A0009FCD0E9491041092B9060093A30698CD6B
:1040B0004FEF5FEF63E070E004C04FEF5FEF61E050
:1040C00070E081E090E00BC041E050E063E070E020
:1040D00004C041E050E061E070E08AE090E00E94BE
:1040E000B6047ECDCF93DF93EFE5F7E01382128223
:1040F00088EE93E0A0E0B0E084839583A683B78345
:1041000024E932E031832083EBE6F7E01382128268
:1041100084839583A683B78386EA92E09183808324
:1041200085EC90E09587848784EC90E0978786877C
:1041300080EC90E0918B808B81EC90E0938B828B74
:1041400082EC90E0958B848B86EC90E0978B868B4D
:10415000118E128E138E148EE1E4F8E086E38483D0
:10416000CFE0C38362E00E94270DECE3F8E087E331
:104170008483C38362E00E94270DE7E3F8E088E3CD
:104180008483C38362E00E94270DE2E3F8E089E3C1
:104190008483C38362E00E94270DEDE2F8E08AE3A6
:1041A0008483C38362E00E94270DE8E2F8E08BE39A
:1041B0008483C38362E00E94270DE3E2F8E08CE38E
:1041C0008483C38362E00E94270DEEE1F8E08DE373
:1041D0008483C38362E00E94270DE9E1F8E08EE367
:1041E0008483C38362E00E94270DE4E1F8E0DFE30B
:1041F000D483C38362E08FE30E94270DE8E0F8E0F8
:104200001382128288EB92E091838083D48380E1D1
:10421000818782E082871386DF91CF9108958F9204
:104220009F92AF92BF92CF92DF92EF92FF92CF9385
:10423000DF93EC01688179818A819B816115710529
:104240008105910521F464E279ED8BE597E02DE19C
:1042500033EF41E050E00E94D62149015A019B0111
:10426000AC01A7EAB1E40E94F5216B017C01ACEE40
:10427000B4EFA50194010E940322DC01CB018C0D57
:104280009D1DAE1DBF1DB7FF03C00197A109B0481A
:1042900088839983AA83BB83BC01CD019F77DF917B
:1042A000CF91FF90EF90DF90CF90BF90AF909F9015
:1042B0008F9008950C940F2186E092E00C940F21CA
:1042C000609306027093070280930802909309029C
:1042D00008954532510520F4423010F00C947421B9
:1042E000FB011082CB010895BB274A3031F499239A
:1042F00022F4BDE2909581959F4F0C94AD2125321B
:10430000310520F4223010F00C948A21FA01108239
:10431000CA010895BB27FA01A62F6217710581050E
:104320009105330B30FB66F0AA27660F771F881FB5
:10433000991FAA1FA21710F0A21B63953850A9F766
:10434000A05DAA3308F0A95DA19336F7B111B1932E
:104350001082CA010C94C621BB27FB015527AA274E
:10436000880F991FAA1FA41710F0A41B8395505102
:10437000B9F7A05DAA3308F0A95DA193009779F77A
:10438000B111B1931192CB010C94C621DC01FC0157
:10439000672F71917723E1F7329704C07C916D9379
:1043A00070836291AE17BF07C8F30895052E97FB7F
:1043B0001EF400940E94ED2157FD07D00E940822B0
:1043C00007FC03D04EF40C94ED21509540953095A8
:1043D00021953F4F4F4F5F4F089590958095709571
:1043E00061957F4F8F4F9F4F08950E942A22A59F6E
:1043F000900DB49F900DA49F800D911D11240895E0
:10440000B7FF0C94F5210E94F521821B930B0895B0
:10441000A1E21A2EAA1BBB1BFD010DC0AA1FBB1FC8
:10442000EE1FFF1FA217B307E407F50720F0A21B3A
:10443000B30BE40BF50B661F771F881F991F1A94A7
:1044400069F760957095809590959B01AC01BD01D1
:10445000CF010895A29FB001B39FC001A39F700D2B
:10446000811D1124911DB29F700D811D1124911D7C
:104470000895EE0FFF1F881F8BBF0790F691E02D68
:104480001994CF93DF938230910510F482E090E08D
:10449000E0916B08F0916C0820E030E0C0E0D0E0E3
:1044A000309711F14081518148175907C0F04817E2
:1044B000590761F482819381209719F09B838A8345
:1044C0002BC090936C0880936B0826C02115310592
:1044D00019F04217530718F49A01BE01DF01EF01EA
:1044E0000280F381E02DDCCF2115310509F1281B75
:1044F000390B2430310590F412968D919C911397CD
:104500006115710521F0FB019383828304C09093B0
:104510006C0880936B08FD01329644C0FD01E20FE8
:10452000F31F81939193225031092D933C933AC00C
:104530002091690830916A08232B41F420910C02E4
:1045400030910D0230936A082093690820910A0285
:1045500030910B022115310541F42DB73EB7409142
:104560000E0250910F02241B350BE0916908F09167
:104570006A08E217F307A0F42E1B3F0B2817390730
:1045800078F0AC014E5F5F4F2417350748F04E0FAF
:104590005F1F50936A08409369088193919302C00A
:1045A000E0E0F0E0CF01DF91CF9108950F931F93EA
:1045B000CF93DF93009709F48CC0FC0132971382EC
:1045C000128200916B0810916C080115110581F49D
:1045D00020813181820F931F2091690830916A08F0
:1045E0002817390779F5F0936A08E093690871C0D4
:1045F000D80140E050E0AE17BF0750F412962D915D
:104600003C911397AD012115310509F1D901F3CF83
:104610009D01DA013383228360817181860F971FA8
:104620008217930769F4EC0128813981260F371F1F
:104630002E5F3F4F318320838A819B8193838283C6
:10464000452B29F4F0936C08E0936B0842C0139655
:10465000FC93EE931297ED01499159919E01240F1D
:10466000351FE217F30771F480819181840F951F44
:10467000029611969C938E938281938113969C93BC
:104680008E931297E0E0F0E0D80112968D919C9104
:104690001397009719F0F8018C01F6CF8D919C913A
:1046A00098012E5F3F4F820F931F20916908309130
:1046B0006A082817390769F4309729F410926C08B2
:1046C00010926B0802C01382128210936A08009342
:1046D0006908DF91CF911F910F9108956F927F929A
:1046E0008F929F92AF92BF92CF92DF92EF92FF9202
:1046F0000F931F93CF93DF93EC01009789F4CB01C5
:10470000DF91CF911F910F91FF90EF90DF90CF90AD
:10471000BF90AF909F908F907F906F900C944122AC
:10472000FC01E60FF71F9C0122503109E217F30745
:1047300008F4ACC0D9010D911C9111970617170709
:10474000B0F00530110508F49FC0C8010497861722
:10475000970708F499C002501109061B170B019323
:1047600011936D937C93CF010E94D6228DC05B0183
:10477000A01AB10A4C01800E911EA0916B08B09155
:104780006C0840E050E0E12CF12C109709F44AC08D
:10479000A815B905D1F56D907C901197630182E061
:1047A000C80ED11CCA14DB0480F1A3014A195B09AD
:1047B0006A0182E0C80ED11C1296BC901297139623
:1047C000AC91B5E0CB16D10440F0B282A383518303
:1047D0004083D9016D937C930AC00E5F1F4FC301C4
:1047E000800F911FF90191838083EB2DFA2FE11443
:1047F000F10431F0D7011396FC93EE93129744C065
:10480000F0936C08E0936B083FC08D919C911197D9
:104810004817590708F4AC017D0112960D90BC9120
:10482000A02DB3CF8091690890916A0888159905E9
:10483000E1F446175707C8F480910A0290910B02E1
:10484000009741F48DB79EB740910E0250910F0230
:10485000841B950BE817F907C8F4F0936A08E093F6
:104860006908F901718360830FC0CB010E94412266
:104870007C01009759F0A801BE010E945C24CE0182
:104880000E94D622C70104C0CE0102C080E090E0A1
:10489000DF91CF911F910F91FF90EF90DF90CF901C
:1048A000BF90AF909F908F907F906F90089581E020
:1048B00090E0F8940C946C24FB01DC0102C00190A0
:1048C0000D9241505040D8F70895FB01DC01019052
:0C48D0000D920020E1F70895F894FFCF4E
:1048DC0001FFFFFFFFFF0100000000006D088000DA
:1048EC00FF00FF002701FF00FF00FF000300230172
:1048FC000100FF00FF001DFF25FF19FFFF00FF0057
:10490C001C0124011A01FF00FF001EFF22FF1BFFE8
:10491C00FF00FF00FF002A01FF00FF00FF00FF0067
:10492C002CFFFF00FF00FF001F012B011701FF00F0
:10493C00FF0021FF26FF16FFFF00FF0020012D01C5
:10494C001801FF00FF00040029FF0200FF00FF0018
:10495C00FF0028FFFF00FF0000004000140054007F
:10496C00000000006A0A3A0AB602140A320A230A44
:10497C00150A0000000013029B12AB015A02DC0165
:10498C00BA01CE01000000008B049B12B602B502E6
:10499C0057686F2069732066617374657220636F4A
:1049AC0077626F793F212050726573732063617455
:1049BC00636820627574746F6E2061667465722012
:1049CC007468652062656570210057686F20697393
:1049DC00206661737465723F2120004361746368C3
:1049EC00206166746572206265657000526564733F
:1049FC00206661696C2120202020202000477265F0
:104A0C00656E732077696E2120202020200052656E
:104A1C0064732066616C7365737461727420616E6B
:104A2C006420677265656E732077696E20617420EF
:104A3C00002061667465722000477265656E732094
:104A4C006661696C212020202000526564732077F8
:104A5C00696E212020202020202000477265656E81
:104A6C00732066616C7365737461727420616E641B
:104A7C0020726564732077696E2061742000436135
:104A8C007463682062616C6C2100466173742064ED
:104A9C00726177212020202020200057686F277317
:104AAC0020636F77626F7921202020004772656543
:104ABC006E732077696E20617420005265647320D8
:104ACC0077696E2120202000526564732077696E0F
:104ADC00206174200047733A200020202052733A42
:104AEC00200053696465206F757420617420005236
:104AFC006564732073636F72652061742000526467
:104B0C00732073636F72652100477265656E732045
:104B1C0073636F7265206174200047727320736336
:104B2C006F72652100476F616C206C696E65206344
:104B3C00726F7373656420617420004F66667369CD
:104B4C00646520617420004F66667369646521207A
:104B5C002020202020202000537461727420326E9B
:104B6C00642074696D652061742000326E64207459
:104B7C00696D6520626567696E732100507265739B
:104B8C007320616E79206B65792E2E2E0047616D36
:104B9C006520656E64732061742000477265656ED4
:104BAC00732077696E212020202000477265656E86
:104BBC00732077696E20776974682073636F7265F0
:104BCC0020002076732000526564732077696E2074
:104BDC00776974682073636F726520004472617723
:104BEC002067616D65212020202020200044726107
:104BFC00772067616D6520776974682073636F72C5
:104C0C0065200046696E616C2073636F72653A2093
:104C1C0020202000526F7461746520626F61726491
:104C2C0020616E6400707265737320616E79206B05
:104C3C0065792E2E2E0043726F7373206661696C3A
:104C4C002120202020200043726F73732066616C3A
:104C5C00736573746172742061742000447261779F
:104C6C002067616D6521416761696E210044726145
:104C7C00772067616D6520617420000D0A004E6518
:104C8C00777879206F6E20002C00627574746F6ECB
:104C9C0031312073746174654368616E67656400BB
:104CAC00627574746F6E313220737461746543680D
:104CBC00616E67656400627574746F6E3133207356
:104CCC00746174654368616E6765640062757474C1
:104CDC006F6E31342073746174654368616E6765FF
:104CEC006400627574746F6E313520737461746511
:104CFC004368616E67656400627574746F6E3231FF
:104D0C002073746174654368616E676564006275D5
:104D1C0074746F6E32322073746174654368616EA3
:104D2C0067656400627574746F6E323320737461DE
:104D3C0074654368616E67656400627574746F6E48
:104D4C0032342073746174654368616E6765640006
:104D5C00627574746F6E3235207374617465436858
:064D6C00616E6765640042
:00000001FF
