:100000000C9483000C94B4000C94B4000C94B400D1
:100010000C94B4000C94B4000C94B4000C94B40090
:100020000C94B4000C94B4000C94B4000C94B40080
:100030000C94B4000C94B4000C94B4000C94B40070
:100040000C94B4000C94B4000C94B4000C94B40060
:100050000C94B4000C94B4000C94B4000C944402BE
:100060000C94B4000C94B8020C948E020C94B4005E
:100070000C94B4000C94B4000C94B4000C94B40030
:100080000C94B4000C94B4000C94B4000C94B40020
:100090000C94B4000C94B4000C94B4000C94B40010
:1000A0000C94B4000C94B4000C94B4000C94B40000
:1000B0000C94B4000C94B4000C94B4000C94B400F0
:1000C0000C94B4000C94B4000C94B4000C94B400E0
:1000D0000C94B4000C94B4000C94B4000C94B400D0
:1000E0000C94B4000C9416010C94F4000C94B6001B
:1000F0000C944D010C9420050C9494010C9408016F
:100100000C94E500200511241FBECFEFD1E2DEBF25
:10011000CDBF00E00CBF12E0A0E0B2E0E4EDFFE0F4
:1001200000E00BBF02C007900D92A632B107D9F7CD
:1001300022E0A6E2B2E001C01D92AC3CB207E1F7BA
:1001400010E0C3E8D0E000E006C021970109802F4D
:10015000FE010E94DB07C238D10780E00807A9F73B
:100160000E94EE020C94E8070C940000CF92DF92FC
:10017000EF92FF920F931F93CF93DF936C017A015D
:100180008B01C0E0D0E0CE15DF0589F0D8016D917C
:100190008D01D601ED91FC910190F081E02DC60119
:1001A0001995892B11F47E0102C02196ECCFC7016D
:1001B000DF91CF911F910F91FF90EF90DF90CF9043
:1001C0000895089580E090E00895FC01538D448DDA
:1001D000252F30E0842F90E0821B930B541710F0F2
:1001E000CF96089501970895FC01918D828D9817FF
:1001F00061F0828DDF01A80FB11D5D968C91928D0B
:100200009F5F9F73928F90E008958FEF9FEF089507
:10021000FC01918D828D981731F0828DE80FF11DD0
:10022000858D90E008958FEF9FEF0895FC01918DEB
:10023000228D892F90E0805C9F4F821B91098F73E4
:10024000992708958FE292E00E94160121E0892B00
:1002500009F420E0822F0895FC01848DDF01A80FAE
:10026000B11DA35ABF4F2C91848D90E001968F73DE
:100270009927848FA689B7892C93A089B1898C91FD
:1002800080648C93938D848D981306C00288F389C3
:10029000E02D80818F7D80830895EF92FF920F93F0
:1002A0001F93CF93DF93EC0181E0888F9B8D8C8D22
:1002B000981305C0E889F989808185FD24C0F62E50
:1002C0000B8D10E00F5F1F4F0F731127E02E8C8DE9
:1002D000E8120CC00FB607FCFACFE889F9898081D3
:1002E00085FFF5CFCE010E942C01F1CF8B8DFE0151
:1002F000E80FF11DE35AFF4FF0820B8FEA89FB896B
:100300008081806207C0EE89FF896083E889F9896E
:1003100080818064808381E090E0DF91CF911F91A4
:100320000F91FF90EF900895CF93DF93EC01888DAC
:100330008823C9F0EA89FB89808185FD05C0A889E9
:10034000B9898C9186FD0FC00FB607FCF5CF80816F
:1003500085FFF2CFA889B9898C9185FFEDCFCE01B9
:100360000E942C01E7CFDF91CF91089580E090E0CB
:10037000892B21F00E942201811125C080E090E0AC
:10038000892B41F080E090E0892B21F00E94000051
:1003900081111CC080E090E0892B41F080E090E06A
:1003A000892B21F00E940000811113C080E090E0B1
:1003B000892BA1F080E090E0892B81F00E94000061
:1003C00081110AC008950E940000D8CF0E94000049
:1003D000E1CF0E940000EACF0C940000089500973E
:1003E00069F0FC0101900020E9F73197AF01481B4B
:1003F000590BBC018FE292E00C94B60080E090E0D3
:1004000008958F929F92AF92BF920F931F93CF93B5
:10041000DF93CDB7DEB7A1970FB6F894DEBF0FBE5E
:10042000CDBF19A2423008F44AE08E010F5D1F4F84
:10043000842E912CA12CB12CA50194010E94D905E8
:10044000E62FB901CA0101501109EA3014F4E05D48
:1004500001C0E95CD801EC93232B242B252B61F7F9
:10046000C8010E94EF01A1960FB6F894DEBF0FBE3F
:10047000CDBFDF91CF911F910F91BF90AF909F9013
:100480008F9008950E94E3071F920F920FB60F926C
:1004900011242F933F938F939F93AF93BF9380919A
:1004A0002B0290912C02A0912D02B0912E0230913E
:1004B0002A0223E0230F2D3720F40196A11DB11D40
:1004C00005C026E8230F0296A11DB11D20932A0224
:1004D00080932B0290932C02A0932D02B0932E02B6
:1004E0008091260290912702A0912802B0912902C2
:1004F0000196A11DB11D8093260290932702A0931F
:100500002802B0932902BF91AF919F918F913F91A3
:100510002F910F900FBE0F901F9018951F920F9262
:100520000FB60F9211240BB60F922F933F934F9358
:100530005F936F937F938F939F93AF93BF93EF934B
:10054000FF938FE292E00E942C01FF91EF91BF9107
:10055000AF919F918F917F916F915F914F913F915B
:100560002F910F900BBE0F900FBE0F901F901895FC
:100570001F920F920FB60F9211240BB60F922F936A
:100580008F939F93EF93FF93E0913F02F09140028E
:100590008081E0914502F091460282FD12C0908177
:1005A000809148028F5F8F7320914902821751F02A
:1005B000E0914802F0E0E15DFD4F958F80934802A5
:1005C00001C08081FF91EF919F918F912F910F90AA
:1005D0000BBE0F900FBE0F901F901895CF93DF9317
:1005E00000D01F92CDB7DEB7789484B5826084BD09
:1005F00084B5816084BD85B5826085BD85B5816027
:1006000085BD80916E00816080936E0010928100A4
:10061000809181008260809381008091810081605F
:100620008093810080918000816080938000809120
:10063000B10084608093B1008091B00081608093AC
:10064000B000809191008260809391008091910030
:1006500081608093910080919000816080939000F0
:100660008091A10082608093A1008091A1008160AF
:100670008093A1008091A00081608093A000809170
:10068000210182608093210180912101816080930A
:1006900021018091200181608093200180917A0066
:1006A000846080937A0080917A00826080937A00DF
:1006B00080917A00816080937A0080917A008068CE
:1006C00080937A001092C100E0913F02F0914002C5
:1006D00082E08083E0913B02F0913C021082E09145
:1006E0003D02F0913E028FEC808310924702E09130
:1006F0004302F091440286E08083E0914102F09150
:100700004202808180618083E0914102F091420247
:10071000808188608083E0914102F0914202808173
:1007200080688083E0914102F091420280818F7D58
:10073000808388E5482E82E0582E612C712C0E941F
:100740009A054B015C010E949A056B017C01C50171
:10075000B4012AE030E040E050E00E94A7054B01E0
:100760005C01C701B60127E030E040E050E00E94A4
:10077000A7056B017C0123E0C21AD108E108F1084A
:10078000C80CD91CEA1CFB1C0E949A0524E030E02E
:1007900040E050E00E94A705C60ED71EE81EF91ED5
:1007A0000E949A05A30192010E94A7056C32714034
:1007B00081059105DCF00E949A05A30192010E9437
:1007C000A70526E930E040E050E00E94A705CA01F5
:1007D000B90162507109810991090E94B40620E0B3
:1007E00030E040E05FE30E940B061AC00E949A05C9
:1007F000A30192010E94A70526E930E040E050E005
:100800000E94A705CA01B9016250710981099109C5
:100810000E94B40620E030E040E05FE30E940A0658
:100820000E947C06C61AD70AE80AF90A0E949A05AD
:1008300026E030E040E050E00E94A7050E94B406A8
:1008400020E030E040E05FE30E94690720E030E014
:10085000A9010E94640787FD17C00E949A0526E03F
:1008600030E040E050E00E94A7050E94B40620E07E
:1008700030E040E05FE30E94690720E030E040E0C4
:100880005FE30E940B0616C00E949A0526E030E046
:1008900040E050E00E94A7050E94B40620E030E04E
:1008A00040E05FE30E94690720E030E040E05FE362
:1008B0000E940A060E947C06A7019601261B370BA0
:1008C000480B590BCA01B9010E94B4066B017C01A7
:1008D0004B015C019B01AC010E94D607882319F0F3
:1008E00086E192E01FC0D701C601BF7789839A8352
:1008F000AB83BC832FEF3FEF4FE75FE7BC01CD0138
:100900000E94D607811111C02FEF3FEF4FE75FE73D
:1009100069817A818B819C810E94770618162CF45C
:100920008AE192E00E94EF0184C02FEF3FEF4FE792
:100930005FE4C701B6010E94640718161CF48EE13B
:1009400092E0F0CF2FEF3FEF4FE75FECC701B6012A
:100950000E94770687FDF3CF20E030E0A901C701B0
:10096000B6010E94770687FF11C0E0912F02F09137
:1009700030020190F081E02D6DE28FE292E0199556
:1009800046015701B7FAB094B7F8B0942AE037EDB2
:1009900043EA5BE3C501B4010E940B064B015C0115
:1009A0000E9483066B017C010E94B2069B01AC0190
:1009B000C501B4010E940A064B015C014AE0C7016F
:1009C000B6010E940102E0912F02F09130020190E5
:1009D000F081E02D6EE28FE292E0199520E030E0A8
:1009E00040E251E4C501B4010E9469076B017C013A
:1009F0000E9483064B01A12CB12C4AE0C501B40131
:100A00000E940102C501B4010E94B2069B01AC0123
:100A1000C701B6010E940A0620E030E040E251E43E
:100A20000E9469070E94830680E090E04AE00E94ED
:100A3000010282E292E00E94EF010E94B6017FCEA5
:100A4000EFE2F2E01382128288EE93E0A0E0B0E0E1
:100A500084839583A683B78388E092E09183808323
:100A600085EC90E09587848784EC90E09787868773
:100A700080EC90E0918B808B81EC90E0938B828B6B
:100A800082EC90E0958B848B86EC90E0978B868B44
:100A9000118E128E138E148E08958F929F92AF92A4
:100AA000BF92CF92DF92EF92FF92CF93DF93EC0150
:100AB000688179818A819B81611571058105910524
:100AC00021F464E279ED8BE597E02DE133EF41E02D
:100AD00050E00E94A70549015A019B01AC01A7EA19
:100AE000B1E40E94C6056B017C01ACEEB4EFA50138
:100AF00094010E94D405DC01CB018C0D9D1DAE1D1F
:100B0000BF1DB7FF03C00197A109B048888399832F
:100B1000AA83BB83BC01CD019F77DF91CF91FF906A
:100B2000EF90DF90CF90BF90AF909F908F900895FF
:100B30000C944D0580E092E00C944D05609300020A
:100B40007093010280930202909303020895052E90
:100B500097FB1EF400940E94BE0557FD07D00E942B
:100B6000D90507FC03D04EF40C94BE055095409572
:100B7000309521953F4F4F4F5F4F08959095809549
:100B8000709561957F4F8F4F9F4F08950E94FB0591
:100B9000A59F900DB49F900DA49F800D911D1124D1
:100BA0000895B7FF0C94C6050E94C605821B930BDF
:100BB0000895A1E21A2EAA1BBB1BFD010DC0AA1F9E
:100BC000BB1FEE1FFF1FA217B307E407F50720F0B6
:100BD000A21BB30BE40BF50B661F771F881F991F31
:100BE0001A9469F760957095809590959B01AC017A
:100BF000BD01CF010895A29FB001B39FC001A39F83
:100C0000700D811D1124911DB29F700D811D112445
:100C1000911D08955058BB27AA270E9422060C94C4
:100C20002A070E941C0738F00E94230720F039F49D
:100C30009F3F19F426F40C9419070EF4E095E7FB96
:100C40000C941307E92F0E943B0758F3BA17620769
:100C500073078407950720F079F4A6F50C945D07D7
:100C60000EF4E0950B2EBA2FA02D0B01B9019001C7
:100C70000C01CA01A0011124FF27591B99F0593F0B
:100C800050F4503E68F11A16F040A22F232F342F53
:100C90004427585FF3CF469537952795A795F040A1
:100CA0005395C9F77EF41F16BA0B620B730B840BB6
:100CB000BAF09150A1F0FF0FBB1F661F771F881F6E
:100CC000C2F70EC0BA0F621F731F841F48F48795C6
:100CD00077956795B795F7959E3F08F0B0CF9395B8
:100CE000880F08F09927EE0F9795879508950E9431
:100CF000EF0608F481E008950E9483066894B1111C
:100D00000C945E0708950E94430788F09F5798F05F
:100D1000B92F9927B751B0F0E1F0660F771F881F00
:100D2000991F1AF0BA95C9F714C0B13091F00E941A
:100D30005D07B1E008950C945D07672F782F882731
:100D4000B85F39F0B93FCCF3869577956795B39541
:100D5000D9F73EF490958095709561957F4F8F4FB0
:100D60009F4F0895E89409C097FB3EF490958095B5
:100D7000709561957F4F8F4F9F4F9923A9F0F92F61
:100D800096E9BB279395F695879577956795B795DF
:100D9000F111F8CFFAF4BB0F11F460FF1BC06F5FC5
:100DA0007F4F8F4F9F4F16C0882311F096E911C0D7
:100DB000772321F09EE8872F762F05C0662371F0F8
:100DC00096E8862F70E060E02AF09A95660F771F0C
:100DD000881FDAF7880F9695879597F90895990FE8
:100DE0000008550FAA0BE0E8FEEF16161706E807F5
:100DF000F907C0F012161306E407F50798F0621B16
:100E0000730B840B950B39F40A2661F0232B242BEA
:100E1000252B21F408950A2609F4A140A6958FEF09
:100E2000811D811D089597F99F6780E870E060E05B
:100E300008959FEF80EC089500240A941616170673
:100E400018060906089500240A94121613061406BB
:100E500005060895092E0394000C11F4882352F01E
:100E6000BB0F40F4BF2B11F460FF04C06F5F7F4FD6
:100E70008F4F9F4F089557FD9058440F551F59F0BD
:100E80005F3F71F04795880F97FB991F61F09F3F77
:100E900079F087950895121613061406551FF2CFA0
:100EA0004695F1DF08C0161617061806991FF1CFF0
:100EB00086957105610508940895E894BB27662717
:100EC0007727CB0197F908950E94EF0608F48FEF7A
:100ED00008950E947C070C942A070E941C0738F092
:100EE0000E94230720F0952311F00C9413070C9413
:100EF000190711240C945E070E943B0770F3959F1D
:100F0000C1F3950F50E0551F629FF001729FBB2700
:100F1000F00DB11D639FAA27F00DB11DAA1F649F9C
:100F20006627B00DA11D661F829F2227B00DA11D4F
:100F3000621F739FB00DA11D621F839FA00D611DD5
:100F4000221F749F3327A00D611D231F849F600DF6
:100F5000211D822F762F6A2F11249F5750409AF01F
:100F6000F1F088234AF0EE0FFF1FBB1F661F771FAB
:100F7000881F91505040A9F79E3F510580F00C9476
:100F800013070C945E075F3FE4F3983ED4F3869515
:100F900077956795B795F795E7959F5FC1F7FE2B16
:100FA000880F911D9695879597F908950E94EF06F1
:100FB000880B990B0895EE0FFF1F881F8BBF0790BA
:100FC000F691E02D199481E090E0F8940C94E807F4
:040FD000F894FFCFC3
:100FD40001000000000000004D01B600E50094018E
:100FE4001601F40008016E616E00696E66006F768A
:060FF40066000D0A00007A
:00000001FF
