:100000000C9473010C94A4010C94A4010C94A4010D
:100010000C94A4010C94A4010C94A4010C94A401CC
:100020000C94A4010C94A4010C94A4010C94A401BC
:100030000C94A4010C94A4010C94A4010C94EC095C
:100040000C94CD080C94A4010C94A4010C94A4016C
:100050000C9466080C94A4010C94A4010C943F1C0D
:100060000C94A4010C9416130C94EC120C94A4019F
:100070000C94A4010C94A4010C94A4010C94CD083C
:100080000C94A4010C94A4010C94A4010C94660893
:100090000C94A4010C94A4010C94A4010C94051AD2
:1000A0000C94A4010C94CD080C94A4010C94A4010C
:1000B0000C94A4010C9466080C94CD080C94A40133
:1000C0000C94A4010C94A4010C9466080C94A40153
:1000D0000C94A4010C94A4010C94A4010C94A4010C
:1000E0000C94A401521B551B441B481B4E1B8C1B1C
:1000F000591B5D1B631B671B6B1B711B751B791BDE
:100100008C1B7F1B831B871B0C946B1B0C94DD01CA
:100110000C9427190C943C030C94EF110C94441B81
:100120000C945D1B0C94B3190C9412030C941819C5
:100130000C94791B0C94671B0C948F120C94631B0A
:100140000C948C1B0C9458240C94E0110C945F19A3
:100150000C94871B0C94DE010C94A6030C947F1B5B
:100160000C94551B0C944E1B0C94751B0C94831B08
:100170000C94C1170C94481B0C9409190C94481248
:100180000C94A6010C94C7010C942F190C94031223
:100190000C94EA120C94591B0C9411120C94010B40
:1001A0000C9408030C94E1010C94521B0C94711BE9
:1001B0000C940A19000020002300260029002C00BE
:1001C0002F003200000100000301060109017C3C00
:1001D0003E5E2B3D3F2F5B5D3B2C2A225C000000E6
:1001E0002100240027002A002D00300033000101E7
:1001F0000000040107010A01000022002500280078
:100200002B002E003100340002010000050108011E
:100210000B0105050505070508080808020202028A
:100220000A0A080804040404010101010101010192
:100230000303030303030303040707070C0C0C0C5D
:100240000C0C0C0C02020202060606060606060646
:100250000B0B0B0B0B0B0B0B0102102020080810D3
:100260002040102040800201020108040201010226
:1002700004081020408080402010080402018004FF
:10028000020180402010080402010804020101025A
:100290000408102040800102040810204080000063
:1002A0000A0B02090C0D0E080703040100000000F0
:1002B000000000000000000000000000000000003E
:1002C00000000000000000000000121110000000FB
:1002D000000000000000000000000000000000001E
:1002E00000000000582411241FBECFEFD1E2DEBF72
:1002F000CDBF00E00CBF13E0A0E0B2E0EAE0F1E522
:1003000000E00BBF02C007900D92A23EB107D9F7E3
:100310002AE0A2EEB3E001C01D92AA32B207E1F7D3
:1003200011E0C3E7D1E000E006C021970109802F6A
:10033000FE010E942926C237D10780E00807A9F7ED
:100340000E942D1D0C9483280C940000DC0159960A
:10035000ED91FC915A973097B9F083899489A589DA
:10036000B6894285538564857585841B950BA60BDC
:10037000B70B811520E89207A105B10538F08FEF82
:100380009FE7A0E0B0E0089580E090E00895CF936B
:10039000DF931F92CDB7DEB76983DC01ED91FC914D
:1003A0000280F381E02D41E050E0BE016F5F7F4F9E
:1003B00019950F90DF91CF910895089580E090E016
:1003C0000895FC01818D928D009711F00C945D15BC
:1003D00008958F929F92AF92BF92CF92DF92EF9249
:1003E000FF920F931F93CF93DF9300D01F92CDB74F
:1003F000DEB77C0180E2689F6001112496012F5EC8
:100400003B4FD9011B969C91917121F0842F8274EE
:1004100009F097C0142FF701628B80910B02909125
:100420000C02A0910D02B0910E0286879787A08BD7
:10043000B18BF601EF5EFB4F4489558960E070E0B7
:10044000BA0155274427D70157964D935D936D9375
:100450007C935A97828D938DA0E0B0E0482B592B66
:100460006A2B7B2BD70157964D935D936D937C93AD
:100470005A97D9011B968C91887159F4848D958D6A
:10048000A68DB78DF701838B948BA58BB68B81E0FE
:1004900012C0803109F055C097012D5E3F4FD70142
:1004A0005B968D919C915C970E94F414882309F4CB
:1004B00048C084E0F7018583812F8F70D70114969F
:1004C0008C931497F70116821782108611861A965C
:1004D0001D921D921D921C921D9716FF34C01596F9
:1004E0008C91813071F511FF2CC0F701438954893B
:1004F00065897689452B462B472B09F461C040E07E
:1005000050E0BA01C7010E949B158823D1F0F70182
:100510008788908CA18CB28CC38CD48C82E090E0C4
:10052000A0E0B0E0F60180839183A283B3839E01B3
:100530002F5F3F4FB501A401C6010E9470148111C5
:1005400004C080E03DC081E03BC000E010E09801C5
:10055000B501A401C6010E94D013882391F38980BC
:100560009A80AB80BC80D60157968C91803129F05F
:1005700088EF9FEFAFEFBFE004C088EF9FEFA0E0F0
:10058000B0E088169906AA06BB0688F2D7015796EE
:100590001D921D921D921C925A97F701138A148A7C
:1005A000158A168A848180688483C7010E945D153C
:1005B000882339F240E050E0BA01C7010E949B1540
:1005C0000F900F900F900F90DF91CF911F910F918F
:1005D000FF90EF90DF90CF90BF90AF909F908F9063
:1005E0000895CF93DF931F92CDB7DEB741E050E07F
:1005F000BE016F5F7F4F0E94D217019719F4898166
:1006000090E002C08FEF9FEF0F90DF91CF910895A0
:10061000FC01818D928D009711F00C94F1028FEF07
:100620009FEF08950F931F93CF93DF93FC01818D6C
:10063000928D0097B9F0EF010E94F1028C010F3FFB
:100640008FEF180791F0898D9A8DFC0142855385B3
:100650006485758541505109610971090E949B1596
:10066000C80105C080E090E002C08FEF9FEFDF91EE
:10067000CF911F910F910895CF93DF93EC01898D56
:100680009A8D009739F481E090E09B838A8380E023
:1006900090E00BC0FC01138212820E943116E98D9A
:1006A000FA8D22813381232B71F7DF91CF91089549
:1006B000EF92FF920F931F93CF93DF93EC0188810A
:1006C000E82EF12C2C8130E0F901E256FD4F8491A7
:1006D000F901E85AFD4F0491F901EE5EFD4F1491C6
:1006E0001123A1F081110E94371BE12FF0E0EE0FE2
:1006F000FF1FEC54FE4FA591B491EC91E02331E043
:1007000020E009F430E0832F922F02C080E090E0D7
:10071000E816F90611F01A820FC08A818F5F8A836A
:100720009B81891748F0888191E0892788831A8204
:10073000882321F0998302C080E001C081E0DF912D
:10074000CF911F910F91FF90EF90089587E899E066
:100750000E94580382E899E00E9458038DE799E0CF
:100760000E94580388E799E00E94580383E799E0C4
:100770000E9458038EE699E00E94580389E699E0AA
:100780000E94580384E699E00E9458038FE599E09F
:100790000E9458038AE599E00C945803CF93DF93A5
:1007A000EC010E945D15882311F01D8281E0DF912C
:1007B000CF9108953F924F925F926F927F928F9266
:1007C0009F92AF92BF92CF92DF92EF92FF920F93E0
:1007D0001F93CF93DF93CDB7DEB72C970FB6F89466
:1007E000DEBF0FBECDBF5C01DC015B968D909C909F
:1007F0005C971696CD90DD90ED90FC901997C11402
:10080000D104E104F10439F0BFEFCB1ADB0AEB0AA3
:10081000FB0A312C07C0F401C080D180E280F38054
:1008200033243394F40181859285A385B4859C019A
:10083000AD012F5F3F4F4F4F5F4F29873A874B875F
:100840005C87260137011D821E821F821886F401F3
:1008500081859285A385B4852D813E814F81588500
:10086000281739074A075B0708F063C089859A850E
:10087000AB85BC858C159D05AE05BF0550F482E0A7
:10088000C82ED12CE12CF12C92E0492E512C612C58
:10089000712C9E012F5F3F4FB701A601C4010E943A
:1008A0007014882309F445C089819A81AB81BC8189
:1008B000892B8A2B8B2B41F0260137019FEF491A98
:1008C000590A690A790A05C0C414D504E604F70474
:1008D00091F02D813E814F8158852F5F3F4F4F4FC3
:1008E0005F4F2D833E834F8358873FEFC31AD30A50
:1008F000E30AF30AACCF0FEF1FEF2FEF3FE0B30196
:10090000A201C4010E94D013882399F0D501169644
:100910004D915D916D917C9119974115510561053E
:10092000710549F093018201C4010E94D013811125
:1009300002C080E02AC0D50116964D925D926D925C
:100940007C921997332051F0D301C2010196A11D69
:10095000B11DF40180839183A283B383F50187895C
:10096000908DA18DB28D892B8A2B8B2B69F4D501AB
:1009700057964D925D926D927C925A9714968C91F7
:100980001497806814968C9381E02C960FB6F89497
:10099000DEBF0FBECDBFDF91CF911F910F91FF90B2
:1009A000EF90DF90CF90BF90AF909F908F907F900F
:1009B0006F905F904F903F9008954F925F926F922B
:1009C0007F929F92AF92BF92CF92DF92EF92FF926F
:1009D0000F931F93CF93DF93CDB7DEB72B970FB64F
:1009E000F894DEBF0FBECDBF7C01DC011596AC9044
:1009F000A1108AC1FE0131966F0190E28BE08E0F4B
:100A000091938E13FDCFDA0130E087E09D91992319
:100A100039F19E3219F0EEECF1E00AC08A3009F4A7
:100A200074C138E08AE0F2CF3196491709F46DC1FC
:100A300044914111F9CF831708F467C14FED490F75
:100A40004E3508F062C141E0430FF601E30FF11D9E
:100A50003FE9390F3A3108F490529083342FD6CFC2
:100A60008981803209F451C1B22E8B01DB015B9682
:100A70008D919C915C97F701948F838F16961D92B0
:100A80001D921D921C921997FB01128613861486E3
:100A90001586712CF80182859385A485B5854389D7
:100AA00054896589768984179507A607B70708F0E2
:100AB00061C025E0B695A795979587952A95D1F7BA
:100AC000F82FFF706F2ED80115968C91823008F4A4
:100AD0001CC1C8010E94F10297FD17C1F80182856F
:100AE0009385A485B5854F96A11DB11D82879387F7
:100AF000A487B587F0E26F9EC0011124BC016F5E30
:100B00007B4F6115710509F400C1DB012C91222393
:100B100019F0253EC1F427C071100EC0F701628A9A
:100B200040910B0250910C0260910D0270910E02E7
:100B300046875787608B718BFC01EF5EFB4F80818E
:100B4000811113C015C04BE050E0C6010E944C2833
:100B5000892B09F09FCF8B2D8073803309F4D5C08A
:100B60004B2D662DCCC07720C9F27724739492CF99
:100B7000772473948B2D8271823109F0C6C077205F
:100B8000D1F0D7011E966D917D918D919C915197D9
:100B900041E00E948713882309F4B7C0F7016289F6
:100BA000F0E26F9FB00111246F5E7B4F61157105FC
:100BB00009F079C0AAC0D80115968C91823009F449
:100BC000A4C0C8010E94DA03882309F49EC0D8019A
:100BD0005B96ED91FC915C9716964D905D906D90B3
:100BE0007C901997B2E04B1A51086108710805848E
:100BF00004C0440C551C661C771C0A94D2F78685E9
:100C00009785A089B189480E591E6A1E7B1E948063
:100C1000E1E04E1A510861087108992009F10E941B
:100C20004C13882309F471C0E1E1F4E0119226E04D
:100C3000E131F207D9F7D301C201890D911DA11D40
:100C4000B11D80930B0290930C02A0930D02B09300
:100C50000E0280918C09816080938C099A94DDCF7B
:100C6000D8015B96ED91FC915C9780E092E0A0E06A
:100C7000B0E0058404C0880F991FAA1FBB1F0A9407
:100C8000D2F7F8014389548965897689840F951FC5
:100C9000A61FB71F838B948BA58BB68BD70152965B
:100CA0001C9261E174E080E2FB0111928A95E9F700
:100CB0008BE0F601DB0101900D928A95E1F781E26C
:100CC00098E2DB0151969C938E93509720E038E098
:100CD0001F963C932E931E9753969C938E935297F8
:100CE00059969C938E93589757963C932E9356976C
:100CF0000E944C13882349F04B2DF7016289C701EC
:100D00000E94E901A82E01C0A12C8A2D2B960FB6B6
:100D1000F894DEBF0FBECDBFDF91CF911F910F9131
:100D2000FF90EF90DF90CF90BF90AF909F907F901B
:100D30006F905F904F9008958FB7F894809108045A
:100D40008FBF089561E0FC0184810E948D1B80911A
:100D5000070481111092070408958EBD00000DB4A0
:100D600007FEFDCF8EB508958FEF0C94AD060F935F
:100D70001F93CF93DF93EB010E94331C8B010E94E2
:100D8000B4068F3F49F00E94331C601B710B6C1737
:100D90007D07A8F380E001C081E0DF91CF911F9132
:100DA0000F910895CF93DF93EC018E81882389F012
:100DB0008F8198859C012F5F3F4F38872F8382302A
:100DC000924018F40E94B406F3CFCE010E94A2060E
:100DD0001E82DF91CF9108958CBD9DBD0895CF9364
:100DE000DF93EC0180910704811109C081E08093B9
:100DF00007048091CD089091CE080E94EC0660E037
:100E00008C81DF91CF910C948D1BCF92DF92FF925A
:100E10000F931F93CF93DF9300D01F92CDB7DEB710
:100E20006C01F62E29833A834B835C830E94D206A1
:100E3000C6010E94EF066CE271E0C6010E94B7068F
:100E40008F2D80640E94AD0608E110E05C814B812B
:100E50003A812981DA01C901002E04C0B695A7950F
:100E6000979587950A94D2F729833A834B835C83BD
:100E70000E94AD060850110929813A814B815C819D
:100E8000083F8FEF180731F7FF2029F0E8E0FE1246
:100E900004C087E803C085E901C08FEF0E94AD065A
:100EA00010E00E94B406F601828787FF04C01F3F4E
:100EB00011F01F5FF6CF0F900F900F900F90DF9102
:100EC000CF911F910F91FF90DF90CF900895AF9237
:100ED000BF92CF92DF92EF92FF920F931F93CF9327
:100EE000DF93EC016901C801820F931F81309240AA
:100EF00008F070C08E81882371F088819981AA8161
:100F0000BB81481759076A077B0729F48F819885A9
:100F1000C816D906B0F5488359836A837B838B85CD
:100F2000833039F089E0440F551F661F771F8A957B
:100F3000D1F79A01AB0161E1CE010E940507882338
:100F400019F083E08D8346C00E94331C5B010E9430
:100F5000B4068A878F3F49F40E94331C6A197B09C3
:100F60006D327140A0F38FE003C08E3F31F08DE011
:100F70008D83CE010E94A2062DC018861F8281E0BB
:100F80008E838F8198858C159D0540F40E94B40650
:100F90008F819885019698878F83F3CF6701E00E44
:100FA000F11ECE14DF0431F00E94B406F6018193E5
:100FB0006F01F7CF8F819885080F191F18870F834E
:100FC0008985882319F00115124048F0CE010E944E
:100FD000D20605C0CE010E94A20680E001C081E0D9
:100FE000DF91CF911F910F91FF90EF90DF90CF9005
:100FF000BF90AF900895EF92FF920F931F93CF93FE
:10100000DF93EC017901411551056105710511F47A
:1010100082E13CC08B85833039F089E0440F551F55
:10102000661F771F8A95D1F79A01AB0168E1CE015F
:101030000E940507882311F084E028C08EEF0E94EB
:10104000AD0687018EEFF81AF80181918F010E9499
:10105000AD060E151F05C1F78FEF0E94AD068FEF8D
:101060000E94AD060E94B4068A878F71853031F0E8
:1010700081E18D83CE010E94A20609C068E572E07D
:10108000CE010E94B706811107C085E18D83CE0194
:101090000E94A20680E013C020E030E0A9016DE0CC
:1010A000CE010E940507811104C00E94B406882366
:1010B00011F084E1EBCFCE010E94A20681E0DF9126
:1010C000CF911F910F91FF90EF9008951F920F9273
:1010D0000FB60F9211240BB60F928F939F93AF937D
:1010E000BF93CF93DF93EF93FF9380910A0286FD26
:1010F0003AC08091230890E0880F991FFC01E259C3
:10110000FD4FA081B181FC01EA59FD4FC081D18121
:10111000E0911B0680911A069EEFE99FF0011124D1
:10112000E80FF11DE45EF94F808190E09983888398
:1011300011969C938E9380911A068F5F80931A0666
:1011400080911A068E3FD0F010921A06E0911B068D
:10115000F0E0E85FFD4F81E0808390911B068927D6
:1011600080931B060BC09091060481E08927809331
:10117000060480910604882309F4BBCFFF91EF9108
:10118000DF91CF91BF91AF919F918F910F900BBE47
:101190000F900FBE0F901F9018951F920F920FB6D1
:1011A0000F9211240BB60F922F933F934F935F939F
:1011B0006F937F938F939F93AF93BF93EF93FF931F
:1011C000E0911B0681E0E827F0E0E85FFD4F9081A9
:1011D000992309F468C090911B0689278093050420
:1011E000E0912308F0E0EE0FFF1FEA58FD4F019059
:1011F000F081E02D80818F7D808378948FEC98E062
:101200000E94A60120911808309119082817390763
:1012100028F180910A0283FF07C06CE270E080E051
:1012200090E00E94500C32C0E0912308F0E0EE0FF5
:10123000FF1FEA58FD4F0190F081E02D80818E7DE7
:101240008083E091E808F091E908309721F08581EA
:1012500081110E94660D10921A0825C06091050444
:101260008EEF689FB0011124645E794F8091E80889
:101270009091E908009721F04EEF50E00E94D217BC
:10128000E0910504F0E0E85FFD4F1082E091230853
:10129000F0E0EE0FFF1FEA58FD4F0190F081E02DC6
:1012A000808180628083FF91EF91BF91AF919F9188
:1012B0008F917F916F915F914F913F912F910F90FF
:1012C0000BBE0F900FBE0F901F901895FC01DB0115
:1012D00012968D919C911397938382838EEB92E06B
:1012E0009183808314968C911497848315968C91A6
:1012F0001597858316964D915D916D917C91199707
:1013000046835783608771871A964D915D916D91E1
:101310007C911D9742875387648775871E964D91F0
:101320005D916D917C91519746875787608B718B4A
:1013300052968C915297828B53964D915D916D91FF
:101340007C915697438B548B658B768B57964D913A
:101350005D916D917C915A97478B508F618F728F01
:101360005B968D919C915C97948F838F0895EF92FB
:10137000FF920F931F93CF93DF93EC017B018A01C0
:101380001B821A8288EE93E0A0E0B0E08C839D83FC
:10139000AE83BF838AEC92E0998388838DE190E0ED
:1013A0000E9431269A8F898F009779F02DE1F701FD
:1013B000DC0101900D922A95E1F74CE050E0B80174
:1013C000CE010C960E947428188EDF91CF911F9148
:1013D0000F91FF90EF9008951F920F920FB60F920A
:1013E00011240BB60F922F933F934F935F936F93FC
:1013F0007F938F939F93AF93BF93EF93FF938091CE
:10140000E8039091E9038093B2008091EB039091FF
:10141000EC03A091ED03B091EE030196A11DB11D67
:101420008093EB039093EC03A093ED03B093EE0352
:101430008091EB039091EC03A091ED03B091EE034A
:101440004091E4035091E5036091E6037091E70356
:1014500084179507A607B70710F18091EA03811159
:101460001EC081E08093EA038091EB039091EC032E
:10147000A091ED03B091EE03841B950BA60BB70B67
:101480008093EB039093EC03A093ED03B093EE03F2
:10149000E091E203F091E30319951092EA03FF91C2
:1014A000EF91BF91AF919F918F917F916F915F91DC
:1014B0004F913F912F910F900BBE0F900FBE0F9049
:1014C0001F901895CF93FC01C48121E02093B109AE
:1014D000C093040410921706109216068385682B99
:1014E00084E298E00E945F1980911606813208F02C
:1014F00046C0909115069111FCCF92E0909315068D
:1015000091E0909314069FEF9093B2091092D40942
:101510008093D309A1E9B9E023EB39E0F9019E2FCB
:10152000921B981718F49D919193F9CF1092D509B9
:101530008091D509CC0FC82BC093D5098091130693
:10154000813061F4109213068091D5098093BB001D
:101550008091BC0083FDF8CF85EC01C085EE8093BF
:10156000BC00809115068230E1F38091B2098F3F73
:1015700031F08091B209803211F08091B20910925D
:101580001706109216061092B109CF9108950F9385
:101590001F93CF938C01C62F0E94620A6C2F646048
:1015A000C8010E94620A6C2F6B7FC8010E94620A08
:1015B00083EC90E00197F1F7CF911F910F9108957F
:1015C000FF920F931F93CF93DF931F92CDB7DEB798
:1015D0008C01F62E962F907F692F642BC8014983CA
:1015E0000E94C70A80E1F89EB00111244981642B52
:1015F000C8010F90DF91CF911F910F91FF900C9434
:10160000C70A41E00E94E00A81E090E0089510924C
:1016100088091092830910927E091092790910921C
:10162000740910926F0910926A091092650910925C
:10163000600910925B09089520910602309107021B
:1016400030930102209300022091040230910502A0
:1016500030930302209302022091EF033091F003B4
:1016600030930304209302049093070280930602B0
:1016700070930502609304025093F0034093EF03CC
:101680000E94331C6093F5037093F6038093F70375
:101690009093F8036093F1037093F2038093F30344
:1016A0009093F4030E94070B809106029091070229
:1016B00025E0289FF001299FF00D1124809104025C
:1016C00090910502E80FF91FE75EFD4F80818F3F83
:1016D00019F061E00E948D1B80910002909101023F
:1016E00025E0289FF001299FF00D1124809102022E
:1016F00090910302E80FF91FE75EFD4F60E08081E3
:101700000E948D1B2091040230910502C9018B7F3C
:10171000892B19F482E090E014C080910602909128
:1017200007022230310539F4009711F00B9769F464
:1017300089E090E006C0009711F00B9731F483E048
:1017400090E09093FA038093F90308958091230821
:1017500090E0880F991FFC01E257FD4F0190F08146
:10176000E02D209120083091210831832083FC0155
:10177000EA57FD4F0190F081E02D82E88083E091EF
:101780002308F0E0EE0FFF1FE258FD4F0190F081BB
:10179000E02D89E180830895E091E808F091E9085F
:1017A000309729F08581882311F081E0089508950C
:1017B000CF93DF93CDB7DEB728970FB6F894DEBF8F
:1017C0000FBECDBF28E0E5E5F2E0DE011196019005
:1017D0000D922A95E1F720915609261710F46FEF24
:1017E000620FFE013196E60FF11DE60FF11D9081AB
:1017F000682F690F606840E08EE499E028960FB684
:10180000F894DEBF0FBECDBFDF91CF910C94E00AFC
:101810008F929F92AF92BF920F931F93CF93DF93BC
:10182000CDB7DEB7A1970FB6F894DEBF0FBECDBF20
:1018300019A2423008F44AE08E010F5D1F4F842E3A
:10184000912CA12CB12CA50194010E94F825E62F22
:10185000B901CA0101501109EA3014F4E05D01C078
:10186000E95CD801EC93232B242B252B61F7B801DD
:101870008EE499E00E94181DA1960FB6F894DEBF81
:101880000FBECDBFDF91CF911F910F91BF90AF9051
:101890009F908F900895BC018EE499E00C94181DE0
:1018A0002091E8083091E9082115310541F0AB019C
:1018B000BC01C9010E949B1591E0811101C090E01B
:1018C000892F08952F923F924F925F926F927F924D
:1018D0008F929F92AF92BF92CF92DF92EF92FF9240
:1018E0000F931F93CF93DF93CDB7DEB7C756D109C0
:1018F0000FB6F894DEBF0FBECDBF5C014B01A696BC
:101900004FAFA6973E018EE1680E711C64E179E04D
:10191000C3010E9466091C821B828EEB92E09A83AF
:1019200089831E827401FE0131966F0123011F011C
:101930006FE270E0C7010E9462280097F1F1F701A1
:1019400020812F3221F4FFEFEF1AFF0AF1CF8E1919
:101950008D3008F08CE0082F10E0A801B701CE010F
:10196000885A9F4F0E947428E8E5F0E0EC0FFD1FB5
:10197000E00FF11F1082C6010E94CE0321E0AE01EC
:10198000485A5F4FB201C6010E94DD0481110AC0AE
:101990001EAE1DAE8EEB92E09CAF8BAF21961FAEBC
:1019A000219717C0E00EF11EC2010E94CE03942DB4
:1019B000852D2601C92ED82EBBCFC70188199909BC
:1019C000A8969FAF8EAFA897B201CE01CB960E948A
:1019D0006609A896EEADFFADA8978E0E9F1EF40186
:1019E0008081811109C0BE01655C7F4FC1010E94E9
:1019F00066094FED53E04BC019A218A28EEB92E09E
:101A00009F8F8E8F1BA221968FAD2197811113C0BE
:101A1000F5011382128288EE93E0A0E0B0E08483A7
:101A20009583A683B7838AEC92E091838083128E9C
:101A3000118E148630C08250A6962FADA697A401B1
:101A4000823040F464E179E0C3010E94DD04811139
:101A50000DC0DECFBE01655C7F4FC3010E94DD0477
:101A60008823B1F2CE01CB960E94CE03A6968FAD0D
:101A7000A697867039F049A95AA96BA97CA9C30118
:101A80000E949B15B301C1010E946609A401B10126
:101A9000C5010E94B709C501C959DF4F0FB6F894B7
:101AA000DEBF0FBECDBFDF91CF911F910F91FF9091
:101AB000EF90DF90CF90BF90AF909F908F907F90EE
:101AC0006F905F904F903F902F9008958091E8081D
:101AD0009091E908009761F00E94CE038091E80898
:101AE0009091E9080E94C6261092E9081092E80831
:101AF000089510921A08E0912308F0E0EE0FFF1FFE
:101B0000EA58FD4F0190F081E02D80818E7D808329
:101B10000E94CC0B81110C94660D08952F923F9278
:101B20004F925F926F927F928F929F92AF92BF92ED
:101B3000CF92DF92EF92FF920F931F93CF93DF9399
:101B4000CDB7DEB76B970FB6F894DEBF0FBECDBF33
:101B50005C0190911B0880912208981709F4ACC091
:101B600010921A08E0912308F0E0EE0FFF1FEA58E8
:101B7000FD4F0190F081E02D80818E7D80830E9459
:101B8000CC0B81110E94660D8091230890E0880F94
:101B9000991FFC01EA57FD4F00811181D8012C915A
:101BA00027FD20C020910A02206220930A02FC0136
:101BB000E258FD4F0190F081E02D1082F801108273
:101BC00061E080911B080E94BD1B80911B0886303C
:101BD00009F460C08E3209F461C0853009F060C03C
:101BE00081E059C0FC01E259FD4FE080F180D7014E
:101BF0006D917C919B01AB01FC01EA59FD4F2F01D6
:101C0000DC01A25ABD4F3D01E0912008F09121086E
:101C1000D901A61BB70BAE17BF0720F6D201CD9096
:101C2000DC9037FD06C0D901E217F30720F4DF018D
:101C300002C0A0E0B0E0F601B183A08357FD0AC066
:101C4000A0912008B0912108FA01A417B50720F44B
:101C5000FD0102C0E0E0F0E0D7011196FC93EE93A5
:101C6000F30180809180A0912008B09121081D018E
:101C7000F2E32F1A3108EAE0F0E0D401CD90DC90D5
:101C8000C214D304D0F33197C1F7415051092F5FEB
:101C90003F4FBACF82E08093230804C083E0FBCF9C
:101CA000109223088DB581608DBD8CB58C7F8CBD65
:101CB00080911B08809322080E94790D41E0B501B4
:101CC000CE0101960E94620C8B819C819093D20878
:101CD0008093D1088D819E81AF81B8858093D30890
:101CE0009093D408A093D508B093D60889859A8597
:101CF000AB85BC858093D7089093D808A093D9086A
:101D0000B093DA088DE0FE013D96ABEDB8E00190AE
:101D10000D928A95E1F78A8D9B8D9093E9088093C7
:101D2000E8080E94CC0B882309F456C168E070E0F3
:101D300080E090E00E94500C87E5898381E48A83EB
:101D400086E58B8385E48C838E010F5F1F4F54E003
:101D5000F52EF00E8FEC98E00E940803F801219117
:101D60008F01022E000C330B8217930711F4FE1221
:101D7000F1CF68E170E080E090E00E94500C8FECC1
:101D800098E00E94080390931F0880931E088FEC30
:101D900098E00E94080320E030E0382F80911E0870
:101DA00090911F08822B932B90931F0880931E08FD
:101DB0006CE270E080E090E00E94500C8EEF90E0CA
:101DC000909319088093180881E080931A08F09086
:101DD0000A028F2D8F7780930A0280911E089091BE
:101DE0001F088B3F9F4A30F080EC9DE590931F08C1
:101DF00080931E0820911E0830911F0840E050E09B
:101E0000F6FE05C060E075E38CE090E004C060E0A1
:101E10007AE688E190E00E94C6256AE0629FC001F0
:101E2000639F900D112490932108809320088FECDC
:101E300098E00E9408038C018FEC98E00E94120346
:101E4000800F911F97FD01968C0115950795F5FC64
:101E500019C08F2D8F7580930A02E0912308F0E05E
:101E6000EE0FFF1FE259FD4F0190F081E02D208120
:101E70003181C80199272817390708F07EC040E052
:101E800050E038C08091230890E0880F991FFC0132
:101E9000E259FD4F0190F081E02D11821082FC018A
:101EA000EA59FD4FC080D18080912008909121088F
:101EB000D60111969C938E930E94A60B20E030E0F1
:101EC00063E572E080912008909121082817390776
:101ED00008F0BFCFAC01421B530B8417950708F4E1
:101EE000AC01F60151834083CB010197F1F72F5FDD
:101EF0003F4FE8CFB9016F5F7F4F6217730728F03C
:101F00009B018617970708F49C01FA01E45EF94FDC
:101F100020834F5F5F4F4E3F510561F740E050E037
:101F2000B9016F5F7F4F6217730728F09B01861717
:101F3000970708F49C01FA01E65EF84F20834F5F93
:101F40005F4F4E3F510561F710921B061092080239
:101F50001092090210921A06F8940E94A60BE091C2
:101F60002308F0E0EE0FFF1FEA58FD4F0190F081CB
:101F7000E02D81E2808378942FC040E050E0B901E9
:101F8000615071096817790728F06217730718F410
:101F90009B0101C09C01FA01E45EF94F20834F5F71
:101FA0005F4F4E3F510559F740E050E0B901615095
:101FB00071096817790728F06217730718F49B01F5
:101FC00001C09C01FA01E65EF84F20834F5F5F4F2E
:101FD0004E3F510559F7B8CF6B960FB6F894DEBF58
:101FE0000FBECDBFDF91CF911F910F91FF90EF906A
:101FF000DF90CF90BF90AF909F908F907F906F9029
:102000005F904F903F902F900895CF93DF93109261
:1020100019061092180610921706109216061092C2
:10202000150681E0809314061092130661E084E1A6
:102030000E948D1B61E085E10E948D1B8091B9009B
:102040008E7F8093B9008091B9008D7F8093B90015
:1020500088E48093B80085E48093BC001092530913
:1020600080915809823018F098E09093530980933A
:10207000560962E370E080E090E00E94F91B6091F5
:1020800059098EE499E00E94620A68EE73E080E0EC
:1020900090E00E94F91B60E38EE499E00E94C70A79
:1020A000CBE4D6E4CE010197F1F760E38EE499E04A
:1020B0000E94C70A2197F1F760E38EE499E00E943D
:1020C000C70A83E592E00197F1F760E28EE499E0B8
:1020D0000E94C70A60915309606240E08EE499E073
:1020E0000E94E00A84E08093540940E06CE08EE4B2
:1020F00099E00E94E00A40E061E08EE499E00E94ED
:10210000E00ACBE3DFE1CE010197F1F782E08093B3
:10211000550940E066E08EE499E00E94E00A40E064
:1021200062E08EE499E00E94E00A2197F1F7DF91E6
:10213000CF910895CF93DF93FC0144815581608155
:10214000718180E398E00E94B319EC016AE073E0CA
:1021500080E398E00E94181D8C0F9D1FDF91CF91A6
:1021600008958F929F92AF92BF92CF92DF92EF929B
:10217000FF92CF93DF93C82F8AEE98E090931206D8
:1021800080931106CC2369F1C53010F080E00DC1B9
:1021900040E060E070E0CB010E9487138823B1F338
:1021A00020E1C29FC00111248F5F9B4FFC01E254CC
:1021B000FE4F20812F7751F73C96408151816281FB
:1021C0007381443651056105710500F33497C08071
:1021D000D180E280F380C114D104E104F10421F440
:1021E000D5CFC12CD12C760140E0C701B6010E94A9
:1021F0008713882359F280911C0490911D04811546
:10220000924021F6A0912104AA2309F4BFCF609146
:102210001F04709120046115710509F4B7CF209156
:102220001E04222309F4B2CFA09308092093FA08D0
:1022300080E030E0E1E0F0E0C82FAF01082E02C0FE
:10224000440F551F0A94E2F72417350741F0982FE1
:102250008F5F983089F789E08093030997CF809347
:10226000030920912704309128042115310519F024
:1022700040E050E008C02091350430913604409190
:102280003704509138042093FB083093FC084093A6
:10229000FD085093FE0846015701860E971EA11CAB
:1022A000B11C8092090990920A09A0920B09B09280
:1022B0000C09E0912204F0912304F0930F09E093BC
:1022C0000E09B0E00E94E525860E971EA81EB91ED5
:1022D0008092100990921109A0921209B0921309EC
:1022E00085E0EE0FFF1F8A95E1F7E150FE4FEF2FDB
:1022F000FF27E6958E0E9F1EA11CB11C809204093B
:1023000090920509A0920609B09207092091240431
:10231000309125042115310521F0A90160E070E01C
:1023200008C040913104509132046091330470919F
:102330003404D701C60188199909AA09BB09840F79
:10234000951FA61FB71F04C0B695A79597958795AB
:10235000CA95D2F78093FF0890930009A0930109D2
:10236000B0930209853F2FE09207A105B10510F453
:102370008CE018C0853F9F4FA105B10510F480E1A6
:1023800011C080913D0490913E04A0913F04B09112
:1023900040048093100990931109A0931209B093FF
:1023A000130980E280930D0981E0DF91CF91FF90C6
:1023B000EF90DF90CF90BF90AF909F908F90089557
:1023C000FC01538D448D252F30E0842F90E0821B3B
:1023D000930B541710F0CF96089501970895FC01C0
:1023E000918D828D981761F0828DDF01A80FB11D4C
:1023F0005D968C91928D9F5F9F73928F90E0089570
:102400008FEF9FEF0895FC01918D828D981731F029
:10241000828DE80FF11D858D90E008958FEF9FEF7D
:102420000895FC01918D228D892F90E0805C9F4F53
:10243000821B91098F739927089580E398E00E9489
:10244000111221E0892B09F420E0822F0895FC016C
:10245000848DDF01A80FB11DA35ABF4F2C91848D2D
:1024600090E001968F739927848FA689B7892C9362
:10247000A089B1898C9180648C93938D848D9813FD
:1024800006C00288F389E02D80818F7D80830895C6
:10249000EF92FF920F931F93CF93DF93EC0181E0B4
:1024A000888F9B8D8C8D981305C0E889F989808170
:1024B00085FD24C0F62E0B8D10E00F5F1F4F0F73AC
:1024C0001127E02E8C8DE8120CC00FB607FCFACF56
:1024D000E889F989808185FFF5CFCE010E94271216
:1024E000F1CF8B8DFE01E80FF11DE35AFF4FF08213
:1024F0000B8FEA89FB898081806207C0EE89FF89A2
:102500006083E889F98980818064808381E090E03C
:10251000DF91CF911F910F91FF90EF900895CF938E
:10252000DF93EC01888D8823C9F0EA89FB898081DB
:1025300085FD05C0A889B9898C9186FD0FC00FB6AD
:1025400007FCF5CF808185FFF2CFA889B9898C91EE
:1025500085FFEDCFCE010E942712E7CFDF91CF910B
:10256000089580E090E0892B21F00E941D128111D6
:1025700025C080E090E0892B41F080E090E0892B3D
:1025800021F00E94000081111CC080E090E0892BA6
:1025900041F080E090E0892B21F00E940000811141
:1025A00013C080E090E0892BA1F080E090E0892BBF
:1025B00081F00E94000081110AC008950E9400006D
:1025C000D8CF0E940000E1CF0E940000EACF0C9417
:1025D000000008950E9447281F920F920FB60F9295
:1025E00011240BB60F922F933F934F935F936F93EA
:1025F0007F938F939F93AF93BF93EF93FF9380E36A
:1026000098E00E942712FF91EF91BF91AF919F91A7
:102610008F917F916F915F914F913F912F910F908B
:102620000BBE0F900FBE0F901F9018951F920F9228
:102630000FB60F9211240BB60F922F938F939F9387
:10264000EF93FF93E0914008F09141088081E09181
:102650004608F091470882FD12C090818091490898
:102660008F5F8F7320914A08821751F0E0914908DB
:10267000F0E0E05DF74F958F8093490801C08081BD
:10268000FF91EF919F918F912F910F900BBE0F9023
:102690000FBE0F901F90189580918C098823A9F187
:1026A00040910B0250910C0260910D0270910E024C
:1026B00021E134E080911106909112060E94FB07FF
:1026C000811102C080E0089540918D0950918E09DA
:1026D00060918F097091900941155105610571054F
:1026E00091F021E134E080911106909112060E9450
:1026F000FB07882339F310928D0910928E091092EE
:102700008F091092900910928C0981E008958F92A0
:102710009F92AF92BF92EF92FF920F931F93CF932E
:102720004B015C01C42F80910B0290910C02A0918F
:102730000D02B0910E0288159905AA05BB0501F19D
:102740000E944C13811102C080E020C081E1E82E7C
:1027500084E0F82E00E012E020E030E0B501A401B2
:1027600080911106909112060E946707882361F3F9
:1027700080920B0290920C02A0920D02B0920E0277
:1027800080918C09C82BC0938C0981E0CF911F9157
:102790000F91FF90EF90BF90AF909F908F90089512
:1027A0004F925F926F927F928F929F92AF92BF9261
:1027B000CF92DF92EF92FF920F931F93CF93DF930D
:1027C000EC016A017B0128013901423051056105A4
:1027D000710510F480E073C089859A85AB85BC854E
:1027E0000196A11DB11D84179507A607B70790F3A1
:1027F0008B889C88AD88BE888F89803129F4BB275F
:10280000AF2D9E2D8D2D09C0DB01CA0147E0B69585
:10281000A795979587954A95D1F7880E991EAA1E78
:10282000BB1E80910B0290910C02A0910D02B09101
:102830000E0288169906AA06BB0679F48F898031A4
:10284000A1F4DD24EE24FF24C601880F991FFC01AA
:10285000EF5EFB4F5182408219C040E0C501B401D8
:102860000E9487138111EACFB5CFE894C7F8DD2421
:10287000EE24FF24C601880F991F880F991FFC01C1
:10288000EF5EFB4F408251826282738280918C099D
:10289000816080938C098A89823080F08D819E814D
:1028A000AF81B885880E991EAA1EBB1E80928D0925
:1028B00090928E09A0928F09B092900981E0DF91E9
:1028C000CF911F910F91FF90EF90DF90CF90BF902D
:1028D000AF909F908F907F906F905F904F900895F2
:1028E0008F929F92AF92BF92CF92DF92EF92FF9220
:1028F0000F931F93CF93DF93FC0181859285A3856E
:10290000B4850196A11DB11D84179507A607B707C9
:1029100010F480E05CC083899489A589B689C78951
:10292000C03129F4852E962EA72EBB2409C04A015A
:102930005B01C7E0B694A79497948794CA95D1F7A2
:10294000E9016A017B018F01BC01CD01680D791D90
:102950008A1D9B1D80900B0290900C02A0900D028E
:10296000B0900E02681579058A059B0599F4F80167
:1029700087898031A9F4B701A601552766277727F3
:10298000440F551FFA01EF5EFB4F80819181A0E05B
:10299000B0E018C040E00E9487138111E8CFB9CFA2
:1029A000B701A6014F77552766277727440F551F94
:1029B000440F551FFA01EF5EFB4F80819181A28188
:1029C000B381BF7088839983AA83BB8381E0DF9141
:1029D000CF911F910F91FF90EF90DF90CF90BF901C
:1029E000AF909F908F9008954F925F926F927F92D9
:1029F000AF92BF92CF92DF92EF92FF920F931F930D
:102A0000CF93DF9300D01F92CDB7DEB78C014983FF
:102A10005A836B837C835901C12CD12C7601412CC4
:102A200082E0582E612C712C49815A816B817C8106
:102A30009E012F5F3F4FC8010E947014882351F1FF
:102A4000D301C201F801058404C0880F991FAA1F91
:102A5000BB1F0A94D2F7C80ED91EEA1EFB1E49817D
:102A60005A816B817C818789803129F088EF9FEFC3
:102A7000AFEFBFE004C088EF9FEFA0E0B0E04817E1
:102A800059076A077B0780F2F501C082D182E28292
:102A9000F38281E00F900F900F900F90DF91CF9114
:102AA0001F910F91FF90EF90DF90CF90BF90AF906C
:102AB0007F906F905F904F900895CF93DF93EC01DC
:102AC0008D818823A1F18C8187FF2DC06E857F8544
:102AD0008889998941E00E948713882341F1EA8916
:102AE00080E2E89FF0011124DF01AF5EBB4F109739
:102AF000F1F08D81823050F44B895C896D897E893B
:102B00005C964D935D936D937C935F978F89988DC1
:102B1000A98DBA8DEF5EFB4F938F828FB58BA48BFF
:102B20008C818F778C83DF91CF910C944C1380E054
:102B3000DF91CF9108958F929F92AF92BF92CF92E3
:102B4000DF92EF92FF920F931F93CF93DF93EC01ED
:102B50008D81811102C080E077C00B891C892D898D
:102B60003E890417150726073707A8F36A017B017A
:102B7000823029F4CA86DB86EC86FD860DC0C1143E
:102B8000D104E104F10451F41E821F8218861986D3
:102B90001A861B861C861D8681E056C08A849B840B
:102BA000AC84BD84EB8DFC8D258530E0275F3F4FE5
:102BB000B501A4014150510961097109022E04C0F7
:102BC00076956795579547950A94D2F7D701C60130
:102BD0000197A109B10904C0B695A7959795879566
:102BE0002A95D2F784179507A607B70720F08928FA
:102BF0008A288B2849F44F89588D698D7A8D4E83A8
:102C00005F836887798704C0841B950BA60BB70B7D
:102C10004C015D018E010A5F1F4F81149104A104D4
:102C2000B10409F4A7CF4E815F8168857985980149
:102C30008B8D9C8D0E94701491E0891A9108A108D7
:102C4000B1088111EACF87CFDF91CF911F910F910A
:102C5000FF90EF90DF90CF90BF90AF909F908F90BC
:102C600008952F923F924F925F926F927F928F9230
:102C70009F92AF92BF92CF92DF92EF92FF920F930B
:102C80001F93CF93DF9300D01F92CDB7DEB78C0197
:102C90005B011A01DC0115968C9115978130C9F4FE
:102CA00014968C9181FF15C082FF1BC0F8014389E7
:102CB00054896589768982859385A485B58584172D
:102CC0009507A607B70769F0C8010E949B158111F7
:102CD00008C081E090E0F8019383828380E090E077
:102CE00039C1610183C0D8015B968D919C915C973D
:102CF000FC01248121502A013B0139E0769467943C
:102D0000579447943A95D1F7722E74207A01F1E0E6
:102D1000FF22772009F476C080E092E08E199F09A7
:102D200046018C159D0508F44C01D8015B962D9148
:102D30003C915C9716968D919D910D90BC91A02D24
:102D40000297A109B109F901058404C0880F991FF0
:102D5000AA1FBB1F0A94D2F74685578560897189DF
:102D6000840F951FA61FB71F9C01AD01270D311DB4
:102D7000411D511D29013A01811432E0930609F0E9
:102D800088C080910B0290910C02A0910D02B0912D
:102D90000E0284159505A605B70559F48FEF9FEF30
:102DA000DC0180930B0290930C02A0930D02B09370
:102DB0000E029501B301A2018091110690911206B5
:102DC0000E94FB07882309F484CF9EEFB91AC81824
:102DD000D908F80182859385A485B585880D991D4C
:102DE000A11DB11D82879387A487B587D8011A9644
:102DF0004D915D916D917C911D97C114D10409F0A5
:102E000072CF87C0E114F10409F086CF16964D9178
:102E10005D916D917C911997411551056105710581
:102E200059F457968D919D910D90BC91A02D0097CE
:102E3000A105B10541F521C09E012F5F3F4F0E94C2
:102E40007014882309F44BCF89819A81AB81BC81AE
:102E5000F801238D348DF9012789203129F048EFBD
:102E60005FEF6FEF7FE004C048EF5FEF60E070E07E
:102E700084179507A607B70730F0C8010E94DA0348
:102E800081114ACF26CFF80186839783A087B18727
:102E900043CFE114F10429F5D8011A964D915D91C3
:102EA0006D917C911D9753968D919D910D90BC9144
:102EB000A02D481759076A077B0798F00E944C130A
:102EC000882309F406CF40920B0250920C026092C4
:102ED0000D0270920E0280918C09816080938C09A2
:102EE00008C041E0C301B2010E948713882309F49E
:102EF000F0CED501F701EF5EFB4FCF01880D991D94
:102F0000E817F90719F02D912193FACFA80CB91CF5
:102F10005ECF53968D919D910D90BC91A02D8417FD
:102F20009507A607B70740F4F801438B548B658BD0
:102F3000768B848180688483D80114968C9183FD7C
:102F400002C0C10107C0C8010E945D15882309F4B1
:102F5000C0CEF7CF0F900F900F900F90DF91CF91D1
:102F60001F910F91FF90EF90DF90CF90BF90AF90A7
:102F70009F908F907F906F905F904F903F902F9099
:102F80000895CF93DF931F92CDB7DEB7698341E0F9
:102F900050E0BE016F5F7F4F0E9431160F90DF91AE
:102FA000CF9108952F923F924F925F926F927F92AE
:102FB0008F929F92AF92BF92CF92DF92EF92FF9249
:102FC0000F931F93CF93DF93EC016B014A018D8127
:102FD000811103C08FEF9FEFD7C08C8180FFFACFA4
:102FE0004B885C886D887E884A855B856C857D858D
:102FF000C401A0E0B0E093018201041B150B260B75
:10300000370B081719072A073B0718F44201841ADF
:10301000950A54011E0126E0220E311CA114B104B0
:1030200009F47EC04A855B856C857D852A0181E037
:103030005822ED818A019B0189E0369527951795E5
:1030400007958A95D1F78B8D9C8DE23061F4FC0158
:10305000828D938DA48DB58DBC01CD01600F711F44
:10306000821F931F3FC0FC0174807A947022411428
:103070005104C9F4711017C0452B462B472B49F456
:103080008F89988DA98DBA8D8E839F83A887B987E4
:103090000AC04E815F816885798591010E94701414
:1030A000882309F497CFEB8DFC8D8E819F81A885B5
:1030B000B9850297A109B109058404C0880F991F39
:1030C000AA1FBB1F0A94D2F746855785608971896C
:1030D000840F951FA61FB71FBC01CD01670D711D81
:1030E000811D911D20E032E02419350935012A1592
:1030F0003B0508F439012C8126FD04C06114F2E07F
:103100007F0681F400910B0210910C0220910D02B8
:1031100030910E026017710782079307B1F402C065
:10312000C40132C040E00E948713882309F452CFC3
:10313000F201EF5EFB4FD601CF01860D971DE81718
:10314000F90789F021912D93FACF7601830192013D
:10315000AB01BC0180911106909112060E94670795
:10316000882309F437CFC60CD71C8A859B85AC858C
:10317000BD85860D971DA11DB11D8A879B87AC87D4
:10318000BD87A618B7084ACFDF91CF911F910F9145
:10319000FF90EF90DF90CF90BF90AF909F908F9077
:1031A0007F906F905F904F903F902F90089585EDA6
:1031B0008093BC008091BC0084FDFCCF109215066A
:1031C00008954091010A262F30E0240F311D21324D
:1031D0003105DCF4209115062430C9F4FC0180E0AF
:1031E00090E0861758F43091010A2191DC01A15238
:1031F000B64FA30FB11D2C930196F3CF8091010A16
:10320000680F6093010A80E0089581E0089582E0EC
:103210000895089581E090E03091190620911806F4
:10322000321710F480E090E091958195910908950E
:103230008091190690911806891730F48F5F80935A
:10324000190680E090E008958FEF9FEF0895809138
:10325000180690E020911906821B91090895CF92DB
:10326000DF92EF92FF920F931F93CF93DF937C0136
:10327000262F972F8A018091B109882391F0C62FBC
:10328000D72F6E01C40ED51ECC15DD0571F06991E6
:10329000D701ED91FC910190F081E02DC7011995C6
:1032A000F3CF642F822F0E94E118C801DF91CF91E4
:1032B0001F910F91FF90EF90DF90CF900895CF93E3
:1032C000DF931F92CDB7DEB769832091B109222326
:1032D000D1F020911606203240F021E030E0FC01D0
:1032E0003383228380E090E015C080911706E82F99
:1032F000F0E0EF56F64F998190838F5F8093170629
:103300008093160605C061E0CE0101960E94E11887
:1033100081E090E00F90DF91CF9108953FB7F8944E
:103320008091DB099091DC09A091DD09B091DE0963
:1033300026B5A89B05C02F3F19F00196A11DB11D10
:103340003FBFBA2FA92F982F8827820F911DA11D4B
:10335000B11DBC01CD0142E0660F771F881F991F88
:103360004A95D1F70895CF92DF92EF92FF920F9393
:103370001F93CF93DF936C017A018B01C0E0D0E003
:10338000CE15DF0589F0D8016D918D01D601ED9143
:10339000FC910190F081E02DC6011995892B11F463
:1033A0007E0102C02196ECCFC701DF91CF911F9122
:1033B0000F91FF90EF90DF90CF9008950F931F93A0
:1033C000CF93DF93EC0188819981009729F02A81BE
:1033D0003B812617370788F48B016F5F7F4F0E9470
:1033E0005E27009761F0998388831B830A832C8171
:1033F0003D81232B11F4FC01108281E001C080E0AB
:10340000DF91CF911F910F9108951F920F920FB6E8
:103410000F9211240BB60F922F933F934F935F930C
:103420006F937F938F939F93AF93BF93EF93FF938C
:103430008091B900887F803609F49CC068F5883295
:1034400009F45BC090F4803109F454C038F4882347
:1034500009F4F6C0883009F44DC0F6C0883109F48B
:103460004CC0803209F45DC0EFC0803409F468C0FC
:1034700048F4803309F455C0883309F0E5C08093DF
:10348000B209D8C0803509F44FC0883509F45DC051
:10349000883409F0D9C0D6C0883909F4C7C0A8F467
:1034A000883709F467C038F4883609F463C0803778
:1034B00009F460C0C9C0883809F4B8C0803909F47B
:1034C0005FC0803809F0C0C05BC0803B09F486C093
:1034D00038F4803A09F466C0883A09F47FC0B4C071
:1034E000803C09F4A7C0883C09F4A4C0883B09F4D7
:1034F0008AC0AAC08091D50910C09091D40980914A
:10350000D309981770F5E091D40981E08E0F80936C
:10351000D409F0E0ED54F64F80818093BB0085EC38
:1035200086C08093B2098EC0E091D40981E08E0FED
:103530008093D4098091BB00F0E0ED54F64F808376
:103540009091D4098091D3096EC0E091D40981E0B3
:103550008E0F8093D4098091BB00F0E0ED54F64FBC
:1035600080838091140681116DC081E080931306E1
:1035700084EA61C083E0809315061092250ACFCFBC
:103580008091250A803208F051C0E091250A81E03F
:103590008E0F8093250A8091BB00F0E0EB5FF54F22
:1035A0008083BDCF85EC8093BC001092150680917E
:1035B000250A803230F4E091250AF0E0EB5FF54F08
:1035C00010826091250A70E0E091030AF091040AEC
:1035D00085E09AE019951092250A36C084E0809320
:1035E00015061092020A1092010AE091FF09F0916B
:1035F000000A19958091010A811105C081E080932C
:10360000010A1092DF09E091020A81E08E0F809397
:10361000020AF0E0E152F64F80818093BB00909166
:10362000020A8091010A981708F479CF85E88093FF
:10363000BC000AC085EC8093BC001092150604C043
:103640001092B2090E94D718FF91EF91BF91AF91EC
:103650009F918F917F916F915F914F913F912F91AA
:103660000F900BBE0F900FBE0F901F90189590E01B
:10367000FC013197E231F10508F04EC08827EE5881
:10368000FF4F8F4F0C942926809180008F7703C0C5
:10369000809180008F7D80938000089580918000CC
:1036A000877FF9CF84B58F7702C084B58F7D84BDC5
:1036B00008958091B0008F7703C08091B0008F7D16
:1036C0008093B0000895809190008F7707C080911B
:1036D00090008F7D03C080919000877F8093900041
:1036E00008958091A0008F7707C08091A0008F7D02
:1036F00003C08091A000877F8093A00008958091EF
:1037000020018F7707C0809120018F7D03C08091B9
:103710002001877F8093200108951F93CF93DF932B
:10372000282F30E0F901E256FD4F8491F901E85A63
:10373000FD4FD491F901EE5EFD4FC491CC23C9F049
:10374000162F81110E94371BEC2FF0E0EE0FFF1FA8
:10375000E850FE4FA591B4918FB7F894111105C0B0
:103760009C91ED2FE095E92302C0EC91ED2BEC93B9
:103770008FBFDF91CF911F910895CF93DF9390E09A
:10378000FC01E85AFD4F2491FC01EE5EFD4F84914F
:10379000882361F190E0880F991FFC01E252FE4FEF
:1037A000C591D491FC01E850FE4FA591B4916111EF
:1037B00009C09FB7F8948881209582238883EC9173
:1037C0002E230BC0623061F49FB7F8943881822FAA
:1037D000809583238883EC912E2B2C939FBF06C06A
:1037E0008FB7F894E8812E2B28838FBFDF91CF917C
:1037F00008958F929F92AF92BF92CF92DF92EF92F5
:10380000FF926B017C010E948E194B015C01C11477
:10381000D104E104F104F1F00E948E19DC01CB0126
:1038200088199909AA09BB09883E9340A105B105E9
:1038300070F321E0C21AD108E108F10888EE880E81
:1038400083E0981EA11CB11CC114D104E104F10451
:1038500019F7DDCFFF90EF90DF90CF90BF90AF9042
:103860009F908F9008952FB7F8946091D709709129
:10387000D8098091D9099091DA092FBF08951F9234
:103880000F920FB60F9211242F933F938F939F9314
:10389000AF93BF938091D7099091D809A091D9098E
:1038A000B091DA093091D60923E0230F2D3720F4A7
:1038B0000196A11DB11D05C026E8230F0296A11D8A
:1038C000B11D2093D6098093D7099093D809A0936E
:1038D000D909B093DA098091DB099091DC09A091B4
:1038E000DD09B091DE090196A11DB11D8093DB09B0
:1038F0009093DC09A093DD09B093DE09BF91AF91ED
:103900009F918F913F912F910F900FBE0F901F901D
:103910001895EF92FF920F931F93CF93DF93FC01C3
:10392000248135816115710511F480E019C04115BC
:103930005105A9F07B01EC018A01020F131FB801A8
:103940000E94DE19882389F3288139818C819D8129
:10395000B701820F931F0E946D281D830C8381E0A5
:10396000DF91CF911F910F91FF90EF900895CF932A
:10397000DF93EC0188819981009711F00E94C6269F
:10398000198218821D821C821B821A82DF91CF91BC
:103990000895CF93DF93EC016115710561F0FB0190
:1039A00001900020E9F73197AF01461B570B0E94A9
:1039B000891C811103C0CE010E94B71CCE01DF918A
:1039C000CF910895EF92FF920F931F93CF93DF93C0
:1039D000EC017B018A01BA010E94DE19811104C049
:1039E000CE010E94B71C07C01D830C83B7018881DC
:1039F00099810E946D28CE01DF91CF911F910F9187
:103A0000FF90EF900895FC011182108213821282C0
:103A1000158214826115710551F0FB01019000209F
:103A2000E9F73197AF01461B570B0C94E21C089540
:103A30006115710579F0FB0101900020E9F73197DC
:103A4000AF01461B570BDC01ED91FC910280F38125
:103A5000E02D199480E090E00895CF93DF93CDB7E7
:103A6000DEB7C757D1090FB6F894DEBF0FBECDBF82
:103A7000789484B5826084BD84B5816084BD85B549
:103A8000826085BD85B5816085BD80916E00816055
:103A900080936E00109281008091810082608093FB
:103AA00081008091810081608093810080918000FD
:103AB0008160809380008091B10084608093B10028
:103AC0008091B00081608093B0008091910082600D
:103AD000809391008091910081608093910080910A
:103AE00090008160809390008091A100826080931B
:103AF000A1008091A10081608093A1008091A0002D
:103B000081608093A00080912101826080932101D7
:103B10008091210181608093210180912001816049
:103B20008093200180917A00846080937A00809154
:103B30007A00826080937A0080917A00816080931D
:103B40007A0080917A00806880937A001092C10098
:103B50006E0129E6C20ED11C6CE073E0C6010E9422
:103B6000031D82E090E0A0E0B0E08093E403909336
:103B7000E503A093E603B093E70386EA93E090930E
:103B8000E3038093E203809170008E7F8093700046
:103B90008091B0008C7F8093B0008091B100877FCE
:103BA0008093B1008091B6008F7D8093B6008091A4
:103BB00070008D7F809370008091B100846080934D
:103BC000B1008091B1008C7F8093B10086E090E0DD
:103BD0009093E9038093E8031092EB031092EC03B7
:103BE0001092ED031092EE031092EA038091E80325
:103BF0009091E9038093B20080917000816080937E
:103C000070000E94331C6093F5037093F603809359
:103C1000F7039093F8036093F1037093F20380939A
:103C2000F3039093F40380917B00886080937B0082
:103C300086E480937C0080917A00806480937A008F
:103C400080917A0086FDFCCF6091780080917900A8
:103C500070E0782B072E000C880B990B611571050D
:103C60008105910511F00E948B250E94051088E0C6
:103C70008093590960E08EE499E00E94620A16E19F
:103C800061E0812F0E94BD1B1F5F1E32C9F712E049
:103C900061E0812F0E94BD1B1F5F1E30C9F78EE2BD
:103CA00080931B08E0914008F091410882E08083F6
:103CB000E0913C08F0913D081082E0913E08F091BF
:103CC0003F088FEC808310924808E0914408F091FF
:103CD000450886E08083E0914208F09143088081A6
:103CE00080618083E0914208F09143088081886080
:103CF0008083E0914208F09143088081806880834E
:103D0000E0914208F091430880818F7D808310927A
:103D1000F5081092F3081092F0081092EF0885E36E
:103D20008093EE080E94331C8B0161E08091EE08C5
:103D30000E94BD1B61E08091EE080E948D1BFFB6C2
:103D4000F8948091FB03811127C0E7E4F2E08491AD
:103D5000EDE8F2E09491E82FF0E0EE0FFF1FE25261
:103D6000FE4FA591B491EC91E92321F461E085E344
:103D70000E948D1B61E085E30E94BD1B8CB58061B4
:103D80008CBD8CB580648CBD61E084E30E94BD1B5A
:103D900061E083E30E94BD1B8091FB038F5F8093F2
:103DA000FB03FFBE82E58093CD081092CE08809180
:103DB000CD089091CE080E94EC062AE0F22E8FEFFB
:103DC0000E94AD06FA94F110FACF8AEE98E00E94B4
:103DD000EF0620E030E0A90160E08AEE98E00E9462
:103DE0000507F82E8093F40841E0841749F00E94FB
:103DF000331C601B710B613D774058F381E056C066
:103E00002AEA31E040E050E068E08AEE98E00E9463
:103E1000050782FF03C0F092F50810C094E0F92E68
:103E20000E94B4068093F408FA94F110F9CF8A3A0C
:103E300011F082E03BC082E08093F5088091F508A4
:103E4000823021F0812C912C540105C0812C912CC1
:103E5000A12C80E4B82E20E030E0A90167E38AEECF
:103E600098E00E940507A501940169E28AEE98E0B6
:103E70000E9405078093F408882349F00E94331CB0
:103E8000601B710B613D774030F388E00FC080917B
:103E9000F508823001F520E030E0A9016AE38AEEFE
:103EA00098E00E940507882341F086E08093EF08A0
:103EB0008AEE98E00E94A206A3C00E94B406807C0D
:103EC000803C19F483E08093F5080E94B4060E94B8
:103ED000B4060E94B4068AEE98E00E94A20680E52D
:103EE0008093CD081092CE0881E00E94B110882303
:103EF00029F080911909882341F082C080E00E9456
:103F0000B110882309F47CC0F4CF80910D09803171
:103F100009F582E08093190910922B0910922C095F
:103F200010922D0910922E0980910E0990910F097F
:103F3000A0E0B0E015E0880F991FAA1FBB1F1A95DB
:103F4000D1F78093270990932809A0932909B0936A
:103F50002A091EC0803209F053C083E080931909FA
:103F60004091100950911109609112097091130943
:103F700040932B0950932C0960932D0970932E09BF
:103F800027E239E086EF98E00E94F4148823C1F11B
:103F900086EF98E09093300980932F0981E0809319
:103FA000180910921A0910921B0910921C091092FC
:103FB0001D0910921E0910921F09109220091092DB
:103FC00021091092220910922309109224091092BB
:103FD000250910922609EFE34E2EE2E45E2EEFE073
:103FE0006E2E712C8E010F5F1F4FFEEBAF2EF2E095
:103FF000BF2ECE01CF96E1969FAF8EAFE197BFC0A7
:1040000062E073E080E398E00E94181D6AE073E0CC
:1040100080E398E00E94181D80C1C8010E94B71C6F
:104020006DE073E0C8010E94C91C8C159D0509F064
:10403000D5C089819A810E94C6268AA19BA10E942F
:10404000C626F6018080918023961FAE1EAE239770
:104050002196BFAEAEAE219725961FAE25971DA225
:104060001CA2BBA2AAA21FA2E6961FAEE697E796E5
:104070001FAEE797E0963FADE097E2963FAFE2973D
:10408000E1962FACE19774E1E72E79E0F72EE69602
:104090002FADE697E7963FADE797F401E20FF31FE8
:1040A00080818F3211F42F5F3F4FDE01A45ABF4F42
:1040B00080E090E0F401E20FF31F40814F3249F0BD
:1040C000442339F001962F5F3F4F4D938C3091057B
:1040D00089F7ECE5F0E0EC0FFD1FE80FF91F108207
:1040E000F401E20FF31F80818F3211F42F5F3F4FF5
:1040F000E6962FAFE697E7963FAFE797F401E20F1A
:10410000F31F30801C821B82BA82A9821E8221E0AA
:10411000AE01445A5F4FB701C8010E94DD048823F5
:1041200009F46CC0C8010E94CE03311070C094E144
:10413000E91699E0F90619F0C7010E94CE0362E181
:1041400073E0C8010E94031DAF964EAD5FADAF97FF
:10415000AB966EAD7FADAB97C8010E94891C8111F3
:1041600003C0C8010E94B71C68E173E0C8010E9447
:10417000C91C0E949A1089819A810E94C6260E94B9
:1041800087251BA21AA21DA21CA21FA21EA2A30168
:1041900092010E94C62520E1A8010E949425F80101
:1041A00001900020E9F73197AF01401B510BB80196
:1041B000CE0182960E94E21C1A8219821C821B8206
:1041C0001E821D826AA17BA16115710509F425CFAC
:1041D0004EA15FA1C8010E94E21C22CFFC016081B8
:1041E00071816115710531F044815581C6010E94CC
:1041F000E21C1FCFC6010E94B71C1BCF54E1E5167D
:1042000059E0F50631F1C7010E94CE0322C021E03A
:10421000AE01445A5F4FB701E2968FADE297922DFF
:104220000E94DD04382E84E1E81689E0F80609F4DE
:1042300037C3C7010E94CE03332059F09E2D8F2D26
:10424000E296EFACE297F22CE2969FAFE297282E2F
:104250001ECF60E080E00E94D80BF60144815581BA
:10426000608171818EE499E00E94B31962E173E08C
:10427000C8010E94031DF60144815581608171814E
:10428000C8010E94891C811103C0C8010E94B71C8B
:104290006BE273E0C8010E94C91C0E949A108981D8
:1042A0009A810E94C626F6016081718143E1C801AE
:1042B0000E94620C8B819C81909336098093350912
:1042C0008D819E81AF81B88580933709909338099D
:1042D000A0933909B0933A0989859A85AB85BC8545
:1042E00080933B0990933C09A0933D09B0933E090C
:1042F0008DE0FE013D96AFE3B9E001900D928A9505
:10430000E1F78A8D9B8D90934D0980934C0968EE5F
:1043100073E080E090E00E94F91BF60180819181BA
:104320000E94C6263324339468EE862E63E0962ED0
:10433000A12CB12C01E010E08091F9039091FA03D7
:104340008130910509F4F5C024F4892B09F45BC090
:1043500007C08230910509F457C1099709F4D7C104
:1043600052E0F52E61E082E00E94D80B0E94331CDF
:10437000A50194010E94F825CA01B9014AE00E94F2
:10438000080C61E08F2D0E948D1B68EE73E080E0C9
:1043900090E00E94F91B60E08F2D0E948D1B68EE5B
:1043A00073E080E090E00E94F91BF394FEE0FF12BE
:1043B000D9CF46E1F42E61E082E00E94D80B0E9442
:1043C000331CA50194010E94F825CA01B9014AE0F5
:1043D0000E94080C61E08F2D0E948D1B68EE73E037
:1043E00080E090E00E94F91B60E08F2D0E948D1B01
:1043F00068EE73E080E090E00E94F91BF3942EE2F7
:10440000F212D9CFD5C18FEF9FEF9093FA0380932B
:10441000F9030E94051087E493E00E948E0D0E942C
:10442000872524E833E040E050E00E94C6259B0148
:10443000AC012C593F4F4F4F5F4FE5962CAF3DAF2E
:104440004EAF5FAFE597C12CD12C7601E3968EADD0
:104450009FADE3978C0D9D1D181619060CF041C0F9
:1044600092E061E0892FE8969FAFE8970E948D1B4C
:10447000E8969FADE8979F5F9E3099F7E5964CAC24
:104480005DAC6EAC7FACE5974C0C5D1C6E1C7F1C6C
:10449000C301B2010E94F91B92E060E0892FE89607
:1044A0009FAFE8970E948D1BE8969FADE8979F5FAE
:1044B0009E3099F7C301B2010E94F91B80918809CF
:1044C000882309F478C180916F09882309F473C1A6
:1044D00060E080E00E94D80B8EEC93E00E944B0CD1
:1044E00067C10E94790D83E993E00E948E0D80914F
:1044F0008809882369F060E080E00E94D80B80E69C
:1045000093E00E944B0C1093FA030093F90334C11B
:1045100080916F09882359F360E080E00E94D80BF6
:104520008FE993E00E944B0C1093FA030093F90378
:1045300037C10E94331C6093F5037093F603809398
:10454000F7039093F80320910004C090F103D090FA
:10455000F203E090F303F090F403DC01CB018C193B
:104560009D09AE09BF0921110CC0883B9B40A105E4
:10457000B10548F184E090E09093FA038093F90349
:1045800017C18C329140A105B105E8F06091040299
:104590007091050280910602909107024091EF030D
:1045A0005091F003660F771F2091020230910302B1
:1045B000621B730B880F991F20910002309101023A
:1045C000821B930BF3C08091790981111BC18091EB
:1045D0006009811117C180917E09811127C18091E5
:1045E0006509811123C180918309811133C18091B3
:1045F0006A0981112FC18091740981113EC1809196
:104600005B0981113AC1D4C00E94331C6093F50349
:104610007093F6038093F7039093F8036093F1038C
:104620007093F2038093F3039093F4030E94070BBB
:10463000109200041093FA030093F9034091EF03E2
:104640005091F003209104023091050280910602FE
:10465000909107024130510569F5232B89F49C01A3
:10466000215031092330310528F44FEF5FEF61E02D
:1046700070E010C004974FEF5FEF61E070E012C090
:104680009C01215031092330310538F44FEF5FEFA1
:1046900063E070E082E090E089C004974FEF5FEF45
:1046A00063E070E0039718F484E090E07FC088E056
:1046B00090E07CC0232B89F49C01285031092330E1
:1046C000310528F441E050E061E070E010C005974A
:1046D00041E050E061E070E012C09C0128503109D7
:1046E0002330310538F441E050E064E070E089E0C7
:1046F00090E05CC0059741E050E064E070E0039713
:1047000018F487E090E052C083E090E04FC00E9430
:10471000331C6093F5037093F6038093F703909333
:10472000F8036093F1037093F2038093F303909383
:10473000F4030E94790D83E993E00E948E0D10929C
:1047400000041093FA030093F90360E080E00E94F4
:10475000D80B8091060290910702892BA1F48091D9
:10476000FC039091FD0301969093FD038093FC035D
:104770008CEA93E00E944B0C41E050E062E070E074
:1047800085E090E013C08091FE039091FF030196B5
:104790009093FF038093FE038DEB93E00E944B0CFC
:1047A0004FEF5FEF62E070E086E090E00E941C0B4C
:1047B0000E94B112C1CD80916F09882351F060E051
:1047C00080E00E94D80B8FE493E00E944B0C61E0E4
:1047D00093CE8091880934E6C31AD108E108F10824
:1047E000882309F433CE60E080E00E94D80B81E793
:1047F00093E00E944B0C61E080E00E94D80B82E8BD
:1048000093E090CE8091EF039091F00360910402C9
:10481000709105022091060230910702AC01820FCF
:10482000931F0E941C0B30920004D5CE2091EF0301
:104830003091F003609104027091050280910602AC
:1048400090910702A901821B930B0E941C0B3092CE
:104850000004C9CE4091EF035091F003609104022F
:1048600070910502640F751F8091060290910702F6
:104870000E941C0B30920004BECE4091EF03509179
:10488000F0036091040270910502641B750B809126
:104890000602909107020E941C0B3092000488CF00
:1048A000332009F4D6CCAE014E5D5F4F7A01C6CC01
:1048B000CF92DF92EF92FF920F931F93CF93DF93EC
:1048C000E4E2F8E01382128288EEC82E83E0D82E4C
:1048D000E12CF12CC482D582E682F7828AE992E04B
:1048E00091838083E0E3F8E013821282C482D58250
:1048F000E682F7828CEA92E09183808385EC90E0F7
:104900009587848784EC90E09787868780EC90E099
:10491000918B808B81EC90E0938B828B82EC90E08A
:10492000958B848B86EC90E0978B868B118E128E04
:10493000138E148EEDECF8E080E580831182EFECAD
:10494000F8E013821282C482D582E682F7820AECF2
:1049500012E011830083128E118E1486EAEEF8E0C5
:10496000158216821186138682E090E0A0E0B0E006
:1049700084879587A687B78713A215A614A68EEB02
:1049800092E093A782A717A6E7E8F9E086E384837D
:10499000CFE0C38362E00E94BD1BE2E8F9E087E359
:1049A0008483C38362E00E94BD1BEDE7F9E088E3E6
:1049B0008483C38362E00E94BD1BE8E7F9E089E3DA
:1049C0008483C38362E00E94BD1BE3E7F9E08AE3CE
:1049D0008483C38362E00E94BD1BEEE6F9E08BE3B3
:1049E0008483C38362E00E94BD1BE9E6F9E08CE3A7
:1049F0008483C38362E00E94BD1BE4E6F9E08DE39B
:104A00008483C38362E00E94BD1BEFE5F9E08EE37F
:104A10008483C38362E00E94BD1BEAE5F9E0DFE323
:104A2000D483C38362E08FE30E94BD1BEEE4F9E010
:104A3000138212828EEE92E091838083D48380E190
:104A4000818782E082871386E3E3F9E01382128292
:104A5000C482D582E682F78211830083128E118E82
:104A60001486DF91CF911F910F91FF90EF90DF900F
:104A7000CF9008958F929F92AF92BF92CF92DF9284
:104A8000EF92FF92CF93DF93EC01688179818A8165
:104A90009B81611571058105910521F464E279ED31
:104AA0008BE597E02DE133EF41E050E00E94C62511
:104AB00049015A019B01AC01A7EAB1E40E94E52536
:104AC0006B017C01ACEEB4EFA50194010E94F325CB
:104AD000DC01CB018C0D9D1DAE1DBF1DB7FF03C0BA
:104AE0000197A109B04888839983AA83BB83BC013D
:104AF000CD019F77DF91CF91FF90EF90DF90CF9026
:104B0000BF90AF909F908F9008950C943A258FE0BE
:104B100092E00C943A2560930F02709310028093F8
:104B20001102909312020895BB27FA01A62F621773
:104B3000710581059105330B30FB66F0AA27660FDE
:104B4000771F881F991FAA1FA21710F0A21B639539
:104B50003850A9F7A05DAA3308F0A95DA19336F7F4
:104B6000B111B1931082CA010C94B625DC01FC018D
:104B7000672F71917723E1F7329704C07C916D9391
:104B800070836291AE17BF07C8F30895052E97FB97
:104B90001EF400940E94DD2557FD07D00E94F825E1
:104BA00007FC03D04EF40C94DD25509540953095CC
:104BB00021953F4F4F4F5F4F089590958095709589
:104BC00061957F4F8F4F9F4F08950E941A26A59F92
:104BD000900DB49F900DA49F800D911D11240895F8
:104BE000B7FF0C94E5250E94E525821B930B0895E1
:104BF000A1E21A2EAA1BBB1BFD010DC0AA1FBB1FE1
:104C0000EE1FFF1FA217B307E407F50720F0A21B52
:104C1000B30BE40BF50B661F771F881F991F1A94BF
:104C200069F760957095809590959B01AC01BD01E9
:104C3000CF010895A29FB001B39FC001A39F700D43
:104C4000811D1124911DB29F700D811D1124911D94
:104C50000895EE0FFF1F881F8BBF0790F691E02D80
:104C60001994CF93DF938230910510F482E090E0A5
:104C7000E091280AF091290A20E030E0C0E0D0E07D
:104C8000309711F14081518148175907C0F04817FA
:104C9000590761F482819381209719F09B838A835D
:104CA0002BC09093290A8093280A26C0211531052C
:104CB00019F04217530718F49A01BE01DF01EF0102
:104CC0000280F381E02DDCCF2115310509F1281B8D
:104CD000390B2430310590F412968D919C911397E5
:104CE0006115710521F0FB019383828304C09093C9
:104CF000290A8093280AFD01329644C0FD01E20F83
:104D0000F31F81939193225031092D933C933AC024
:104D10002091260A3091270A232B41F42091150275
:104D2000309116023093270A2093260A209113020D
:104D3000309114022115310541F42DB73EB7409151
:104D4000170250911802241B350BE091260AF091AE
:104D5000270AE217F307A0F42E1B3F0B2817390789
:104D600078F0AC014E5F5F4F2417350748F04E0FC7
:104D70005F1F5093270A4093260A8193919302C0A4
:104D8000E0E0F0E0CF01DF91CF9108950F931F9302
:104D9000CF93DF93009709F48CC0FC013297138204
:104DA00012820091280A1091290A0115110581F437
:104DB00020813181820F931F2091260A3091270A8A
:104DC0002817390779F5F093270AE093260A71C06E
:104DD000D80140E050E0AE17BF0750F412962D9175
:104DE0003C911397AD012115310509F1D901F3CF9C
:104DF0009D01DA013383228360817181860F971FC1
:104E00008217930769F4EC0128813981260F371F37
:104E10002E5F3F4F318320838A819B8193838283DE
:104E2000452B29F4F093290AE093280A42C01396EF
:104E3000FC93EE931297ED01499159919E01240F35
:104E4000351FE217F30771F480819181840F951F5C
:104E5000029611969C938E938281938113969C93D4
:104E60008E931297E0E0F0E0D80112968D919C911C
:104E70001397009719F0F8018C01F6CF8D919C9152
:104E800098012E5F3F4F820F931F2091260A309189
:104E9000270A2817390769F4309729F41092290A4C
:104EA0001092280A02C0138212821093270A0093DC
:104EB000260ADF91CF911F910F9108956F927F92F3
:104EC0008F929F92AF92BF92CF92DF92EF92FF921A
:104ED0000F931F93CF93DF93EC01009789F4CB01DD
:104EE000DF91CF911F910F91FF90EF90DF90CF90C6
:104EF000BF90AF909F908F907F906F900C943126D1
:104F0000FC01E60FF71F9C0122503109E217F3075D
:104F100008F4ACC0D9010D911C9111970617170721
:104F2000B0F00530110508F49FC0C801049786173A
:104F3000970708F499C002501109061B170B01933B
:104F400011936D937C93CF010E94C6268DC05B01A7
:104F5000A01AB10A4C01800E911EA091280AB091AE
:104F6000290A40E050E0E12CF12C109709F44AC0E6
:104F7000A815B905D1F56D907C901197630182E079
:104F8000C80ED11CCA14DB0480F1A3014A195B09C5
:104F90006A0182E0C80ED11C1296BC90129713963B
:104FA000AC91B5E0CB16D10440F0B282A38351831B
:104FB0004083D9016D937C930AC00E5F1F4FC301DC
:104FC000800F911FF90191838083EB2DFA2FE1145B
:104FD000F10431F0D7011396FC93EE93129744C07D
:104FE000F093290AE093280A3FC08D919C91119774
:104FF0004817590708F4AC017D0112960D90BC9139
:10500000A02DB3CF8091260A9091270A8815990583
:10501000E1F446175707C8F48091130290911402E7
:10502000009741F48DB79EB7409117025091180236
:10503000841B950BE817F907C8F4F093270AE0934F
:10504000260AF901718360830FC0CB010E943126CB
:105050007C01009759F0A801BE010E945928CE0199
:105060000E94C626C70104C0CE0102C080E090E0C5
:10507000DF91CF911F910F91FF90EF90DF90CF9034
:10508000BF90AF909F908F907F906F90089581E038
:1050900090E0F8940C948328FB01DC0104C08D910E
:1050A0000190801921F441505040C8F7881B990B9A
:1050B0000895FB01DC0102C001900D924150504067
:1050C000D8F70895FC018191861721F08823D9F73C
:1050D000992708953197CF010895FB01DC010190D4
:1050E0000D920020E1F70895FB01DC014150504092
:1050F00048F001900D920020C9F701C01D92415067
:0A5100005040E0F70895F894FFCF47
:10510A00FFFFFFFFFFFFFFFF010160FFFFFFFF013E
:10511A0000000000002A0A8000FFFF27FFFFFF01AE
:10512A002303FFFF19251DFFFF1A241CFFFF1B2263
:10513A001EFFFFFF2AFFFFFFFF2CFFFFFF172B1F9A
:10514A00FFFF162621FFFF182D20FFFF022904FF6B
:10515A00FFFF28FFFF0000400014005400008400F5
:10516A009400A40024010F040D040B040904880010
:10517A009800A80028016F00710072007300810076
:10518A009100A100210180009000A000200186006A
:10519A009600A6002601000000005F192F19DE0103
:1051AA000919271918190A19000000004812B31919
:1051BA00E0118F121112EF11031200000000C11743
:1051CA00B319DE01DD0100000000C7013C03DE0166
:1051DA00E101A6010803120300000000EA12B31954
:1051EA00DE01DD01EA12EA12EA1200000000010BF8
:1051FA00B319DE01DD0100000000EA12B319DE0175
:10520A00DD015344206661696C000D0A002E747832
:10521A00740046696C65200020657869737473218F
:10522A00204E6577207475726E210020646F657355
:10523A006E277420657869737421204372656174DE
:10524A0065206E657721006F6C652E776176005256
:10525A00656473206661696C21202020202020006B
:10526A00477265656E732077696E212020202020A1
:10527A0000477265656E73206661696C2120202083
:10528A002000526564732077696E21202020202037
:10529A0020200077686973746C652E7761760052F6
:1052AA006564732077696E2120202000526564733B
:1052BA002073636F726521202020202000477265C9
:1052CA00656E732073636F7265212020200043721C
:1052DA006F7373206661696C212020202020002FC3
:0252EA000000C2
:00000001FF
