:100000000C9474010C94A5010C94A5010C94A50109
:100010000C94A5010C94A5010C94A5010C94A501C8
:100020000C94A5010C94A5010C94A5010C94A501B8
:100030000C94A5010C947B1A0C94A5010C94590DF9
:100040000C946F0C0C94A5010C94A5010C94A501C3
:100050000C94080C0C94A5010C94A5010C94311A75
:100060000C94A5010C9457030C942D030C94A5013A
:100070000C94A5010C94A5010C94A5010C946F0C93
:100080000C94A5010C94A5010C94A5010C94080CEA
:100090000C94A5010C94A5010C94A5010C94581482
:1000A0000C94A5010C946F0C0C94A5010C94A50163
:1000B0000C94A5010C94080C0C946F0C0C94A501E5
:1000C0000C94A5010C94A5010C94080C0C94A501AA
:1000D0000C94A5010C94A5010C94A5010C94A50108
:1000E0000C94A5014419471936193A1940197E197B
:1000F0004B194F19551959195D19631967196B195E
:100100007E197119751979190C94B2020C94360F75
:100110000C944F190C945D190C94B5020C94B917FA
:100120000C94ED170C944B190C9440220C94D801AC
:100130000C94D0170C9479180C94CA010C940503F4
:100140000C94150F0C946B190C9463190C944518AE
:100150000C9495180C944F180C9444190C941A187C
:100160000C94C5180C94F70B0C94B1020C947E19E6
:100170000C9456020C9447190C94CF170C940F0250
:100180000C946E0E0C943A190C9475190C94711908
:100190000C9436190C9455190C9467190C94591930
:1001A0000C9440190C9479190C94A7010C94DE1747
:1001B0000C94B601000020002300260029002C002A
:1001C0002F003200000100000301060109017C3C00
:1001D0003E5E2B3D3F2F5B5D3B2C2A225C000200E4
:1001E000002100240027002A002D003000330001E8
:1001F000010000040107010A010000220025002877
:10020000002B002E0031003400020100000501081F
:10021000010B01050505050705080808080202028B
:10022000020A0A0808040404040101010101010191
:10023000010303030303030303040707070C0C0C68
:100240000C0C0C0C0C020202020606060606060640
:10025000060B0B0B0B0B0B0B0B01021020200808DD
:100260001020401020408002010201080402010118
:100270000204081020408080402010080402018001
:100280000402018040201008040201080402010158
:100290000204081020408001020408102040800061
:1002A000000A0B02090C0D0E0807030401000000F0
:1002B000000000000000000000000000000000003E
:1002C00000000000000000000000001211100000FB
:1002D000000000000000000000000000000000001E
:1002E000000000000000402211241FBECFEFD1E229
:1002F000DEBFCDBF00E00CBF13E0A0E0B2E0EEE453
:10030000FAE400E00BBF02C007900D92A23BB107D8
:10031000D9F72AE0A2EBB3E001C01D92A130B207E9
:10032000E1F711E0C4E7D1E000E006C02197010940
:10033000802FFE010E94C423C337D10780E0080745
:10034000A9F70E942F1B0C9425250C940000FC019A
:10035000538D448D252F30E0842F90E0821B930B2A
:10036000541710F0CF96089501970895FC01918DD0
:10037000828D981761F0828DDF01A80FB11D5D9607
:100380008C91928D9F5F9F73928F90E008958FEF75
:100390009FEF0895FC01918D828D981731F0828D29
:1003A000E80FF11D858D90E008958FEF9FEF089580
:1003B000FC01918D228D892F90E0805C9F4F821BE4
:1003C00091098F73992708958BE898E00E94D801CE
:1003D00021E0892B09F420E0822F0895FC01848D0F
:1003E000DF01A80FB11DA35ABF4F2C91848D90E05F
:1003F00001968F739927848FA689B7892C93A0893A
:10040000B1898C9180648C93938D848D981306C0F0
:100410000288F389E02D80818F7D80830895EF929B
:10042000FF920F931F93CF93DF93EC0181E0888FAE
:100430009B8D8C8D981305C0E889F989808185FD95
:1004400024C0F62E0B8D10E00F5F1F4F0F73112786
:10045000E02E8C8DE8120CC00FB607FCFACFE889AD
:10046000F989808185FFF5CFCE010E94EE01F1CFA1
:100470008B8DFE01E80FF11DE35AFF4FF0820B8FC9
:10048000EA89FB898081806207C0EE89FF896083E9
:10049000E889F98980818064808381E090E0DF9140
:1004A000CF911F910F91FF90EF900895CF93DF931D
:1004B000EC01888D8823C9F0EA89FB89808185FD5C
:1004C00005C0A889B9898C9186FD0FC00FB607FCBD
:1004D000F5CF808185FFF2CFA889B9898C9185FFFE
:1004E000EDCFCE010E94EE01E7CFDF91CF910895CD
:1004F00080E090E0892B21F00E94E401811125C069
:1005000080E090E0892B41F080E090E0892B21F0A1
:100510000E94000081111CC080E090E0892B41F016
:1005200080E090E0892B21F00E940000811113C02F
:1005300080E090E0892BA1F080E090E0892B81F0B1
:100540000E94000081110AC008950E940000D8CFC7
:100550000E940000E1CF0E940000EACF0C9400004E
:100560000895089580E090E008950E94F924EF92A4
:10057000FF920F931F93CF93DF93EC018881E82EB6
:10058000F12C2C8130E0F901E156FD4F8491F90105
:10059000E75AFD4F0491F901ED5EFD4F14911123CF
:1005A000A1F081110E942919E12FF0E0EE0FFF1F49
:1005B000EC54FE4FA591B491EC91E02331E020E0A2
:1005C00009F430E0832F922F02C080E090E0E8161B
:1005D000F90611F01A820FC08A818F5F8A839B818E
:1005E000891748F0888191E0892788831A828823B7
:1005F00021F0998302C080E001C081E0DF91CF91BA
:100600001F910F91FF90EF90089587EC99E00E9461
:10061000B70282EC99E00E94B7028DEB99E00E944C
:10062000B70288EB99E00E94B70283EB99E00E9441
:10063000B7028EEA99E00E94B70289EA99E00E9427
:10064000B70284EA99E00E94B7028FE999E00E941C
:10065000B7028AE999E00C94B7021F920F920FB685
:100660000F9211240BB60F922F933F934F935F93EA
:100670006F937F938F939F93AF93BF93EF93FF936A
:100680008BE898E00E94EE01FF91EF91BF91AF914E
:100690009F918F917F916F915F914F913F912F919A
:1006A0000F900BBE0F900FBE0F901F9018951F92CA
:1006B0000F920FB60F9211240BB60F922F938F93B8
:1006C0009F93EF93FF93E0919B08F0919C088081AA
:1006D000E091A108F091A20882FD12C09081809162
:1006E000A4088F5F8F732091A508821751F0E091C5
:1006F000A408F0E0E557F74F958F8093A40801C058
:100700008081FF91EF919F918F912F910F900BBE60
:100710000F900FBE0F901F9018958FB7F89480918F
:10072000B9038FBF089561E0FC0184810E947F19A5
:100730008091B80381111092B80308958EBD000016
:100740000DB407FEFDCF8EB508958FEF0C949E0378
:100750000F931F93CF93DF93EB010E94251A8B0118
:100760000E94A5038F3F49F00E94251A601B710B60
:100770006C177D07A8F380E001C081E0DF91CF9185
:100780001F910F910895CF93DF93EC018E81882301
:1007900089F08F8198859C012F5F3F4F38872F8389
:1007A0008230924018F40E94A503F3CFCE010E943C
:1007B00093031E82DF91CF9108958CBD9DBD089556
:1007C000CF93DF93EC018091B803811109C081E0E0
:1007D0008093B80380912809909129090E94DD0334
:1007E00060E08C81DF91CF910C947F19CF92DF92E2
:1007F000FF920F931F93CF93DF9300D01F92CDB73B
:10080000DEB76C01F62E29833A834B835C830E940A
:10081000C303C6010E94E0036CE271E0C6010E94BE
:10082000A8038F2D80640E949E0308E110E05C8184
:100830004B813A812981DA01C901002E04C0B695A5
:10084000A795979587950A94D2F729833A834B8386
:100850005C830E949E030850110929813A814B81D3
:100860005C81083F8FEF180731F7FF2029F0E8E09F
:10087000FE1204C087E803C085E901C08FEF0E9423
:100880009E0310E00E94A503F601828787FF04C043
:100890001F3F11F01F5FF6CF0F900F900F900F903A
:1008A000DF91CF911F910F91FF90DF90CF9008952E
:1008B000AF92BF92CF92DF92EF92FF920F931F936E
:1008C000CF93DF93EC016901C801820F931F813040
:1008D000924008F070C08E81882371F088819981E0
:1008E000AA81BB81481759076A077B0729F48F81C2
:1008F0009885C816D906B0F5488359836A837B83E7
:100900008B85833039F089E0440F551F661F771FB0
:100910008A95D1F79A01AB0161E1CE010E94F603FD
:10092000882319F083E08D8346C00E94251A5B015D
:100930000E94A5038A878F3F49F40E94251A6A19ED
:100940007B096D327140A0F38FE003C08E3F31F020
:100950008DE08D83CE010E9493032DC018861F82E7
:1009600081E08E838F8198858C159D0540F40E94CF
:10097000A5038F819885019698878F83F3CF6701B0
:10098000E00EF11ECE14DF0431F00E94A503F60143
:1009900081936F01F7CF8F819885080F191F1887F2
:1009A0000F838985882319F00115124048F0CE0184
:1009B0000E94C30305C0CE010E94930380E001C0E2
:1009C00081E0DF91CF911F910F91FF90EF90DF9029
:1009D000CF90BF90AF900895EF92FF920F931F9327
:1009E000CF93DF93EC017901411551056105710544
:1009F00011F482E13CC08B85833039F089E0440FEB
:100A0000551F661F771F8A95D1F79A01AB0168E1E0
:100A1000CE010E94F603882311F084E028C08EEFF7
:100A20000E949E0387018EEFF81AF80181918F01D1
:100A30000E949E030E151F05C1F78FEF0E949E03B3
:100A40008FEF0E949E030E94A5038A878F718530D5
:100A500031F081E18D83CE010E94930309C068E5E6
:100A600072E0CE010E94A803811107C085E18D8349
:100A7000CE010E94930380E013C020E030E0A90182
:100A80006DE0CE010E94F603811104C00E94A5030F
:100A9000882311F084E1EBCFCE010E94930381E023
:100AA000DF91CF911F910F91FF90EF90089580916A
:100AB00075068823A9F140910B0250910C026091B8
:100AC0000D0270910E0226E736E080912404909189
:100AD00025040E94EC04811102C080E00895409139
:100AE000BA035091BB036091BC037091BD034115E3
:100AF00051056105710591F026E736E080912404E7
:100B0000909125040E94EC04882339F31092BA03D3
:100B10001092BB031092BC031092BD031092750695
:100B200081E008958F929F92AF92BF92EF92FF92D1
:100B30000F931F93CF934B015C01C42F80910B0245
:100B400090910C02A0910D02B0910E0288159905AA
:100B5000AA05BB0501F10E945705811102C080E082
:100B600020C086E7E82E86E0F82E00E012E020E0C4
:100B700030E0B501A40180912404909125040E94E5
:100B80005804882361F380920B0290920C02A09289
:100B90000D02B0920E0280917506C82BC0937506A7
:100BA00081E0CF911F910F91FF90EF90BF90AF9098
:100BB0009F908F9008954F925F926F927F928F9245
:100BC0009F92AF92BF92CF92DF92EF92FF920F93DC
:100BD0001F93CF93DF93EC016A017B012801390158
:100BE000423051056105710510F480E073C08985BC
:100BF0009A85AB85BC850196A11DB11D841795070B
:100C0000A607B70790F38B889C88AD88BE888F892C
:100C1000803129F4BB27AF2D9E2D8D2D09C0DB011E
:100C2000CA0147E0B695A795979587954A95D1F75C
:100C3000880E991EAA1EBB1E80910B0290910C0279
:100C4000A0910D02B0910E0288169906AA06BB0665
:100C500079F48F898031A1F4DD24EE24FF24C601CC
:100C6000880F991FFC01EA58F94F5182408219C040
:100C700040E0C501B4010E9492058111EACFB5CFD1
:100C8000E894C7F8DD24EE24FF24C601880F991FDD
:100C9000880F991FFC01EA58F94F40825182628205
:100CA0007382809175068160809375068A8982308F
:100CB00080F08D819E81AF81B885880E991EAA1E15
:100CC000BB1E8092BA039092BB03A092BC03B09269
:100CD000BD0381E0DF91CF911F910F91FF90EF90C5
:100CE000DF90CF90BF90AF909F908F907F906F904C
:100CF0005F904F9008958F929F92AF92BF92CF9244
:100D0000DF92EF92FF920F931F93CF93DF93FC013B
:100D100081859285A385B4850196A11DB11D841797
:100D20009507A607B70710F480E05CC08389948913
:100D3000A589B689C789C03129F4852E962EA72E9C
:100D4000BB2409C04A015B01C7E0B694A7949794FD
:100D50008794CA95D1F7E9016A017B018F01BC0133
:100D6000CD01680D791D8A1D9B1D80900B0290900E
:100D70000C02A0900D02B0900E02681579058A054C
:100D80009B0599F4F80187898031A9F4B701A60180
:100D9000552766277727440F551FFA01EA58F94F60
:100DA00080819181A0E0B0E018C040E00E949205EF
:100DB0008111E8CFB9CFB701A6014F775527662734
:100DC0007727440F551F440F551FFA01EA58F94F72
:100DD00080819181A281B381BF7088839983AA8326
:100DE000BB8381E0DF91CF911F910F91FF90EF9036
:100DF000DF90CF90BF90AF909F908F9008954F92CB
:100E00005F926F927F92AF92BF92CF92DF92EF92FA
:100E1000FF920F931F93CF93DF9300D01F92CDB714
:100E2000DEB78C0149835A836B837C835901C12CC3
:100E3000D12C7601412C82E0582E612C712C4981F5
:100E40005A816B817C819E012F5F3F4FC8010E94B8
:100E50007B06882351F1D301C201F801058404C047
:100E6000880F991FAA1FBB1F0A94D2F7C80ED91E5C
:100E7000EA1EFB1E49815A816B817C818789803102
:100E800029F088EF9FEFAFEFBFE004C088EF9FEF3E
:100E9000A0E0B0E0481759076A077B0780F2F50128
:100EA000C082D182E282F38281E00F900F900F9096
:100EB0000F90DF91CF911F910F91FF90EF90DF90F6
:100EC000CF90BF90AF907F906F905F904F900895BC
:100ED0008F929F92AF92BF92CF92DF92EF92FF924A
:100EE0000F931F93CF93DF93EC018D81811102C08B
:100EF00080E077C00B891C892D893E89041715076E
:100F000026073707A8F36A017B01823029F4CA86D5
:100F1000DB86EC86FD860DC0C114D104E104F1042A
:100F200051F41E821F82188619861A861B861C861B
:100F30001D8681E056C08A849B84AC84BD84EB8D81
:100F4000FC8D258530E0275F3F4FB501A40141505E
:100F5000510961097109022E04C07695679557956C
:100F600047950A94D2F7D701C6010197A109B109A3
:100F700004C0B695A795979587952A95D2F78417BB
:100F80009507A607B70720F089288A288B2849F4F7
:100F90004F89588D698D7A8D4E835F8368877987F5
:100FA00004C0841B950BA60BB70B4C015D018E0191
:100FB0000A5F1F4F81149104A104B10409F4A7CF63
:100FC0004E815F816885798598018B8D9C8D0E940B
:100FD0007B0691E0891A9108A108B1088111EACF36
:100FE00087CFDF91CF911F910F91FF90EF90DF900E
:100FF000CF90BF90AF909F908F9008953F924F9267
:101000005F926F927F928F929F92AF92BF92CF9298
:10101000DF92EF92FF920F931F93CF93DF93CDB7A1
:10102000DEB72C970FB6F894DEBF0FBECDBF5C01C4
:10103000DC015B968D909C905C971696CD90DD9030
:10104000ED90FC901997C114D104E104F10439F03A
:10105000BFEFCB1ADB0AEB0AFB0A312C07C0F40105
:10106000C080D180E280F38033243394F401818501
:101070009285A385B4859C01AD012F5F3F4F4F4FF3
:101080005F4F29873A874B875C87260137011D828E
:101090001E821F821886F40181859285A385B485FE
:1010A0002D813E814F815885281739074A075B07F4
:1010B00008F063C089859A85AB85BC858C159D0534
:1010C000AE05BF0550F482E0C82ED12CE12CF12CE6
:1010D00092E0492E512C612C712C9E012F5F3F4FC5
:1010E000B701A601C4010E947B06882309F445C00C
:1010F00089819A81AB81BC81892B8A2B8B2B41F012
:10110000260137019FEF491A590A690A790A05C071
:10111000C414D504E604F70491F02D813E814F817B
:1011200058852F5F3F4F4F4F5F4F2D833E834F8337
:1011300058873FEFC31AD30AE30AF30AACCF0FEF85
:101140001FEF2FEF3FE0B301A201C4010E94DB05B6
:10115000882399F0D50116964D915D916D917C9102
:101160001997411551056105710549F093018201F7
:10117000C4010E94DB05811102C080E02AC0D501B4
:1011800016964D925D926D927C921997332051F094
:10119000D301C2010196A11DB11DF4018083918389
:1011A000A283B383F5018789908DA18DB28D892BA0
:1011B0008A2B8B2B69F4D50157964D925D926D92D7
:1011C0007C925A9714968C911497806814968C93FD
:1011D00081E02C960FB6F894DEBF0FBECDBFDF9135
:1011E000CF911F910F91FF90EF90DF90CF90BF9024
:1011F000AF909F908F907F906F905F904F903F90B7
:1012000008952F923F924F925F926F927F928F92AA
:101210009F92AF92BF92CF92DF92EF92FF920F9385
:101220001F93CF93DF93EC016B014A018D818111F4
:1012300003C08FEF9FEFD7C08C8180FFFACF4B8820
:101240005C886D887E884A855B856C857D85C40158
:10125000A0E0B0E093018201041B150B260B370BB5
:10126000081719072A073B0718F44201841A950A40
:1012700054011E0126E0220E311CA114B10409F410
:101280007EC04A855B856C857D852A0181E0582278
:10129000ED818A019B0189E0369527951795079581
:1012A0008A95D1F78B8D9C8DE23061F4FC01828DA3
:1012B000938DA48DB58DBC01CD01600F711F821F70
:1012C000931F3FC0FC0174807A9470224114510432
:1012D000C9F4711017C0452B462B472B49F48F8951
:1012E000988DA98DBA8D8E839F83A887B9870AC0F0
:1012F0004E815F816885798591010E947B068823F4
:1013000009F497CFEB8DFC8D8E819F81A885B985DF
:101310000297A109B109058404C0880F991FAA1F6B
:10132000BB1F0A94D2F74685578560897189840F5F
:10133000951FA61FB71FBC01CD01670D711D811D33
:10134000911D20E032E02419350935012A153B05AD
:1013500008F439012C8126FD04C06114F2E07F06F7
:1013600081F400910B0210910C0220910D0230913A
:101370000E026017710782079307B1F402C0C4011F
:1013800032C040E00E949205882309F452CFF20156
:10139000EA58F94FD601CF01860D971DE817F907D6
:1013A00089F021912D93FACF760183019201AB014F
:1013B000BC0180912404909125040E945804882344
:1013C00009F437CFC60CD71C8A859B85AC85BD85B3
:1013D000860D971DA11DB11D8A879B87AC87BD8790
:1013E000A618B7084ACFDF91CF911F910F91FF90B8
:1013F000EF90DF90CF90BF90AF909F908F907F90B5
:101400006F905F904F903F902F900895CF93DF9310
:101410001F92CDB7DEB741E050E0BE016F5F7F4F56
:101420000E940109019719F4898190E002C08FEFB1
:101430009FEF0F90DF91CF910895CF93DF93EC0151
:101440008D818823A1F18C8187FF2DC06E857F85DA
:101450008889998941E00E949205882341F1EA89AF
:1014600080E2E89FF0011124DF01AA58B94F1097DC
:10147000F1F08D81823050F44B895C896D897E89D1
:101480005C964D935D936D937C935F978F89988D58
:10149000A98DBA8DEA58F94F938F828FB58BA48BA3
:1014A0008C818F778C83DF91CF910C94570580E0EE
:1014B000DF91CF910895CF93DF93EC010E941D0A35
:1014C000882311F01D8281E0DF91CF9108952F9242
:1014D0003F924F925F926F927F928F929F92AF92C4
:1014E000BF92CF92DF92EF92FF920F931F93CF9311
:1014F000DF9300D01F92CDB7DEB78C015B011A01DC
:10150000DC0115968C9115978130C9F414968C9155
:1015100081FF15C082FF1BC0F8014389548965898A
:10152000768982859385A485B58584179507A60756
:10153000B70769F0C8010E946807811108C081E0FF
:1015400090E0F8019383828380E090E039C16101EB
:1015500083C0D8015B968D919C915C97FC0124819E
:1015600021502A013B0139E07694679457944794BF
:101570003A95D1F7722E74207A01F1E0FF2277209C
:1015800009F476C080E092E08E199F0946018C151F
:101590009D0508F44C01D8015B962D913C915C9718
:1015A00016968D919D910D90BC91A02D0297A10949
:1015B000B109F901058404C0880F991FAA1FBB1F38
:1015C0000A94D2F74685578560897189840F951FE3
:1015D000A61FB71F9C01AD01270D311D411D511DD7
:1015E00029013A01811432E0930609F088C0809104
:1015F0000B0290910C02A0910D02B0910E02841585
:101600009505A605B70559F48FEF9FEFDC01809390
:101610000B0290930C02A0930D02B0930E02950161
:10162000B301A20180912404909125040E94EC044E
:10163000882309F484CF9EEFB91AC818D908F80195
:1016400082859385A485B585880D991DA11DB11D41
:1016500082879387A487B587D8011A964D915D91AB
:101660006D917C911D97C114D10409F072CF87C090
:10167000E114F10409F086CF16964D915D916D91BC
:101680007C911997411551056105710559F45796DB
:101690008D919D910D90BC91A02D0097A105B10554
:1016A00041F521C09E012F5F3F4F0E947B0688239A
:1016B00009F44BCF89819A81AB81BC81F801238DDC
:1016C000348DF9012789203129F048EF5FEF6FEF62
:1016D0007FE004C048EF5FEF60E070E0841795079B
:1016E000A607B70730F0C8010E94FE0781114ACF54
:1016F00026CFF80186839783A087B18743CFE11473
:10170000F10429F5D8011A964D915D916D917C9166
:101710001D9753968D919D910D90BC91A02D4817CA
:1017200059076A077B0798F00E945705882309F438
:1017300006CF40920B0250920C0260920D02709202
:101740000E028091750681608093750608C041E0A5
:10175000C301B2010E949205882309F4F0CED5019D
:10176000F701EA58F94FCF01880D991DE817F907DD
:1017700019F02D912193FACFA80CB91C5ECF539686
:101780008D919D910D90BC91A02D84179507A60772
:10179000B70740F4F801438B548B658B768B8481BB
:1017A00080688483D80114968C9183FD02C0C101A6
:1017B00007C0C8010E941D0A882309F4C0CEF7CFD4
:1017C0000F900F900F900F90DF91CF911F910F917D
:1017D000FF90EF90DF90CF90BF90AF909F908F9051
:1017E0007F906F905F904F903F902F900895CF9390
:1017F000DF931F92CDB7DEB7698341E050E0BE01B1
:101800006F5F7F4F0E94670A0F90DF91CF9108951D
:101810001F920F920FB60F9211240BB60F928F9357
:101820009F93AF93BF93CF93DF93EF93FF938091F9
:101830000A0286FD3AC080917E0890E0880F991FC9
:10184000FC01E959FD4FA081B181FC01E15AFD4F36
:10185000C081D181E0912E0480912D049EEFE99FFB
:10186000F0011124E80FF11DE15DFB4F808190E054
:101870009983888311969C938E9380912D048F5F1A
:1018800080932D0480912D048E3FD0F010922D0472
:10189000E0912E04F0E0E85FFD4F81E080839091BD
:1018A0002E04892780932E040BC09091B70381E00A
:1018B00089278093B7038091B703882309F4BBCFAE
:1018C000FF91EF91DF91CF91BF91AF919F918F9158
:1018D0000F900BBE0F900FBE0F901F9018951F9288
:1018E0000F920FB60F9211240BB60F922F933F93C6
:1018F0004F935F936F937F938F939F93AF93BF9318
:10190000EF93FF93E0912E0481E0E827F0E0E85F99
:10191000FD4F9081992309F468C090912E04892786
:101920008093B603E0917E08F0E0EE0FFF1FE159CF
:10193000FD4F0190F081E02D80818F7D8083789430
:101940008AE299E00E94150F20912B0630912C0617
:101950002817390728F180910A0283FF07C06CE23B
:1019600070E080E090E00E947B1632C0E0917E083B
:10197000F0E0EE0FFF1FE159FD4F0190F081E02DE7
:1019800080818E7D8083E0914309F09144093097F6
:1019900021F0858181110E94A61710922D0625C085
:1019A0006091B6038EEF689FB0011124615D7B4F9B
:1019B0008091430990914409009721F04EEF50E047
:1019C0000E940109E091B603F0E0E85FFD4F10824C
:1019D000E0917E08F0E0EE0FFF1FE159FD4F01900E
:1019E000F081E02D808180628083FF91EF91BF9133
:1019F000AF919F918F917F916F915F914F913F91A7
:101A00002F910F900BBE0F900FBE0F901F90189547
:101A1000FC01DB0112968D919C9113979383828335
:101A200085EE92E09183808314968C911497848341
:101A300015968C911597858316964D915D916D91B4
:101A40007C91199746835783608771871A964D91C9
:101A50005D916D917C911D9742875387648775874F
:101A60001E964D915D916D917C9151974687578758
:101A7000608B718B52968C915297828B53964D91BD
:101A80005D916D917C915697438B548B658B768BD2
:101A900057964D915D916D917C915A97478B508FE0
:101AA000618F728F5B968D919C915C97948F838FE1
:101AB00008951F920F920FB60F9211240BB60F923A
:101AC0002F933F934F935F936F937F938F939F9346
:101AD000AF93BF93EF93FF938091C4039091C5039D
:101AE0008093B2008091C7039091C803A091C9036D
:101AF000B091CA030196A11DB11D8093C7039093B5
:101B0000C803A093C903B093CA038091C7039091FF
:101B1000C803A091C903B091CA034091C00350917A
:101B2000C1036091C2037091C30384179507A60790
:101B3000B70710F18091C60381111EC081E0809328
:101B4000C6038091C7039091C803A091C903B091C7
:101B5000CA03841B950BA60BB70B8093C703909306
:101B6000C803A093C903B093CA03E091BE03F091E8
:101B7000BF0319951092C603FF91EF91BF91AF91EA
:101B80009F918F917F916F915F914F913F912F9195
:101B90000F900BBE0F900FBE0F901F901895CF9314
:101BA000FC01C48121E02093F309C093B503109296
:101BB0002A04109229048385682B8FE798E00E94FD
:101BC000C51880912904813208F046C090912804FC
:101BD0009111FCCF92E09093280491E09093270418
:101BE0009FEF909300041092220480932104A3EDB0
:101BF000B9E021E034E0F9019E2F921B981718F408
:101C00009D919193F9CF1092230480912304CC0FDE
:101C1000C82BC093230480912604813061F4109274
:101C20002604809123048093BB008091BC0083FD37
:101C3000F8CF85EC01C085EE8093BC00809128042C
:101C40008230E1F3809100048F3F31F080910004F5
:101C5000803211F08091000410922A04109229041D
:101C60001092F309CF9108950F931F93CF938C0196
:101C7000C62F0E94CF0D6C2F6460C8010E94CF0D4B
:101C80006C2F6B7FC8010E94CF0D83EC90E0019711
:101C9000F1F7CF911F910F910895FF920F931F932A
:101CA000CF93DF931F92CDB7DEB78C01F62E962F20
:101CB000907F692F642BC80149830E94340E80E114
:101CC000F89EB00111244981642BC8010F90DF9167
:101CD000CF911F910F91FF900C94340E41E00E9420
:101CE0004D0E81E090E008951092C8091092C3094A
:101CF0001092BE091092B9091092B4091092AF095E
:101D00001092AA091092A5091092A00910929B099D
:101D1000089520910602309107023093010220932A
:101D200000022091040230910502309303022093B7
:101D300002022091CB033091CC033093B403209363
:101D4000B303909307028093060270930502609399
:101D500004025093CC034093CB030E94251A609356
:101D6000D1037093D2038093D3039093D4036093F1
:101D7000CD037093CE038093CF039093D0030E9442
:101D8000740E809106029091070225E0289FF001D1
:101D9000299FF00D11248091040290910502E80F13
:101DA000F91FE65EFD4F80818F3F19F061E00E94D0
:101DB0007F19809100029091010225E0289FF00197
:101DC000299FF00D11248091020290910302E80FE7
:101DD000F91FE65EFD4F60E080810E947F198091CF
:101DE0000402909105029C012B7F232B19F482E0C1
:101DF00090E00CC0029771F4809106029091070266
:101E0000009711F00B9731F489E090E09093D6039E
:101E10008093D503089585ED8093BC008091BC002C
:101E200084FDFCCF109228040895DC015996ED91B1
:101E3000FC915A973097B9F083899489A589B6891E
:101E40004285538564857585841B950BA60BB70B5E
:101E5000811520E89207A105B10538F08FEF9FE7C3
:101E6000A0E0B0E0089580E090E00895FC01818D4D
:101E7000928D009711F00C941D0A08952F923F92B5
:101E80004F925F926F927F928F929F92AF92BF928A
:101E9000CF92DF92EF92FF920F931F93CF93DF9336
:101EA000CDB7DEB7C457D1090FB6F894DEBF0FBE69
:101EB000CDBF8C019091760880917D08981709F428
:101EC000B1C010922D06E0917E08F0E0EE0FFF1FEA
:101ED000E159FD4F0190F081E02D80818E7D80835E
:101EE0000E94B31681110E94A61720917E0830E04F
:101EF000220F331FF901E757FD4FA080B180D501B4
:101F00008C9187FD20C080910A02806280930A0232
:101F1000F901EF57FD4F0190F081E02D1082F5019E
:101F2000108261E0809176080E94AF198091760856
:101F3000863009F465C08E3209F466C0853009F038
:101F400065C081E05EC0F901E959FD4FE080F18094
:101F5000D7016D917C91CB01AB01F901E15AFD4FA5
:101F60002F01D901A95ABD4F3D01E0917B08F091A5
:101F70007C08DC01A61BB70BAE17BF0720F6D20109
:101F8000CD90DC9097FD06C0DC01E817F90720F43E
:101F9000DF0102C0A0E0B0E0F601B183A08357FDED
:101FA0000AC0A0917B08B0917C08FA01A417B5077C
:101FB00020F4FD0102C0E0E0F0E0D7011196FC93AF
:101FC000EE93F30180809180A0917B08B0917C0812
:101FD000FD01F297E596FFAFEEAFE597EAE0F0E09E
:101FE000D401CD90DC90E596AEADBFADE597CA16B5
:101FF000DB06B0F33197A1F7415051090196B5CFF7
:1020000082E080937E0804C083E0FBCF10927E08BC
:102010008DB581608DBD8CB58C7F8CBD809176082F
:1020200080937D0810922D06E0917E08F0E0EE0F7F
:10203000FF1FE159FD4F0190F081E02D80818E7DE1
:1020400080830E94B31681110E94A6175E01BEE133
:10205000AB0EB11C6FE679E0C5010E94080D1C8231
:102060001B8285EE92E09A8389831E824801FE01DD
:1020700031967F0125013F016FE270E0C4010E94AB
:102080000B25009709F441C0D4012C912F3221F483
:10209000BFEF8B1A9B0AF0CF88198D3008F08CE0C7
:1020A000C82ED12CA601B401CE01885A9F4F0E94A0
:1020B0001625E8E5F0E0EC0FFD1FEC0DFD1D10828C
:1020C000C7010E945B0AF7018581882351F01EAE8B
:1020D0001DAE85EE92E09CAF8BAF21961FAE21978F
:1020E0001CC0AE01485A5F4FB201C7010E94BF1623
:1020F000882369F38C0C9D1CC2010E945B0A942DFD
:10210000852D2701E92EF82EB7CF1401201A310AA8
:10211000B201CE01CB960E94080D020D131DD8010D
:102120008C91811109C0BE01655C7F4FC3010E9483
:10213000080D4FEA53E03FC019A218A285EE92E0C5
:102140009F8F8E8F1BA221968FAD2197811116C074
:102150006C961FAE1EAE6C9788EE93E0A0E0B0E0E8
:10216000A0968CAF9DAFAEAFBFAFA097E3961FAE6A
:102170001EAEE397A5961FAEA59723C08250A80177
:10218000823040F46FE679E0C5010E94BF168111EC
:102190000DC0DECFBE01655C7F4FC5010E94BF163A
:1021A0008823B1F2CE01CB960E945B0AB501C30130
:1021B0000E94080DA801B301CE01885A9F4F0E94CA
:1021C000F4186C968EAD9FAD6C9790932D0980930B
:1021D0002C09A0968CAD9DADAEADBFADA097809300
:1021E0002E0990932F09A0933009B0933109A4963A
:1021F0008CAD9DADAEADBFADA497809332099093E9
:102200003309A0933409B09335098DE0E8E5F0E097
:10221000EC0FFD1F3C96A6E3B9E001900D928A9564
:10222000E1F7E3968EAD9FADE397909344098093D9
:1022300043090E94B316882309F45CC168E070E08A
:1022400080E090E00E947B1687E5898381E48A83A1
:1022500086E58B8385E48C83830174E0F72EF60C8E
:102260008AE299E00E944518F80121918F01022E1F
:10227000000C330B8217930711F4FE12F1CF68E1C3
:1022800070E080E090E00E947B168AE299E00E9474
:10229000451890937A08809379088AE299E00E9421
:1022A000451820E030E0382F8091790890917A0825
:1022B000822B932B90937A08809379086CE270E0DC
:1022C00080E090E00E947B168EEF90E090932C06C9
:1022D00080932B0681E080932D06F0900A028F2DCB
:1022E0008F7780930A028091790890917A088B3FCA
:1022F0009F4A30F080EC9DE590937A0880937908AE
:102300002091790830917A0840E050E0F6FE05C04F
:1023100060E075E38CE090E004C060E07AE688E17C
:1023200090E00E9461236AE0629FC001639F900D6C
:10233000112490937C0880937B088AE299E00E94A4
:1023400045188C018AE299E00E944F18800F911F76
:1023500097FD01968C0115950795F5FC19C08F2DF9
:102360008F7580930A02E0917E08F0E0EE0FFF1F68
:10237000E959FD4F0190F081E02D20813181C801A4
:1023800099272817390708F086C040E050E040C080
:1023900080917E0890E0880F991FFC01E959FD4F5C
:1023A0000190F081E02D11821082FC01E15AFD4F75
:1023B0000190F081E02D80917B0890917C089183C1
:1023C00080830E948D16E0917E08F0E020E030E0EE
:1023D000EE0FFF1FE15AFD4F63E572E080917B082D
:1023E00090917C082817390708F0B9CFA081B181F6
:1023F000AC01421B530B8417950708F4AC011196EE
:102400005C934E93CB010197F1F72F5F3F4FE6CFDF
:10241000B9016F5F7F4F6217730728F09B01861722
:10242000970708F49C01FA01E15DFB4F20834F5FA1
:102430005F4F4E3F510561F740E050E0B9016F5FDB
:102440007F4F6217730728F09B018617970708F4E0
:102450009C01FA01E35DFA4F20834F5F5F4F4E3FCF
:10246000510561F710922E04109208021092090291
:1024700010922D04F8940E948D16E0917E08F0E0F1
:10248000EE0FFF1FE159FD4F0190F081E02D81E239
:10249000808378942FC040E050E0B9016150710909
:1024A0006817790728F06217730718F49B0101C0B9
:1024B0009C01FA01E15DFB4F20834F5F5F4F4E3F70
:1024C000510559F740E050E0B901615071096817B2
:1024D000790728F06217730718F49B0101C09C016B
:1024E000FA01E35DFA4F20834F5F5F4F4E3F510586
:1024F00059F7B8CFCC58DF4F0FB6F894DEBF0FBEF8
:10250000CDBFDF91CF911F910F91FF90EF90DF90A2
:10251000CF90BF90AF909F908F907F906F905F9083
:102520004F903F902F900895CF93DF9310922C04FB
:1025300010922B0410922A0410922904109228045D
:1025400081E0809327041092260461E084E10E94D8
:102550007F1961E085E10E947F198091B9008E7F2B
:102560008093B9008091B9008D7F8093B90088E491
:102570008093B80085E48093BC0010929309809109
:102580009809823018F098E0909393098093960907
:1025900062E370E080E090E00E94EB19609199099D
:1025A0008EE899E00E94CF0D68EE73E080E090E045
:1025B0000E94EB1960E38EE899E00E94340ECBE4B0
:1025C000D6E4CE010197F1F760E38EE899E00E942E
:1025D000340E2197F1F760E38EE899E00E94340E03
:1025E00083E592E00197F1F760E28EE899E00E94BE
:1025F000340E60919309606240E08EE899E00E9499
:102600004D0E84E08093940940E06CE08EE899E000
:102610000E944D0E40E061E08EE899E00E944D0E70
:10262000CBE3DFE1CE010197F1F782E080939509DA
:1026300040E066E08EE899E00E944D0E40E062E0E6
:102640008EE899E00E944D0E2197F1F7DF91CF912E
:1026500008958F929F92AF92BF92CF92DF92EF92A6
:10266000FF92CF93DF93C82F85E499E090932504E0
:1026700080932404CC2369F1C53010F080E00DC1B3
:1026800040E060E070E0CB010E9492058823B1F346
:1026900020E1C29FC00111248A59994FFC01E254E4
:1026A000FE4F20812F7751F73C9640815181628106
:1026B0007381443651056105710500F33497C0807C
:1026C000D180E280F380C114D104E104F10421F44B
:1026D000D5CFC12CD12C760140E0C701B6010E94B4
:1026E0009205882359F28091810690918206811586
:1026F000924021F6A0918606AA2309F4BFCF6091EB
:102700008406709185066115710509F4B7CF209193
:102710008306222309F4B2CFA093630920935509BD
:1027200080E030E0E1E0F0E0C82FAF01082E02C009
:10273000440F551F0A94E2F72417350741F0982FEC
:102740008F5F983089F789E080935E0997CF8093F7
:102750005E0920918C0630918D062115310519F006
:1027600040E050E008C020919A0630919B064091CD
:102770009C0650919D06209356093093570940932B
:1027800058095093590946015701860E971EA11CFE
:10279000B11C8092640990926509A0926609B0927A
:1027A0006709E0918706F0918806F0936A09E09343
:1027B0006909B0E00E948023860E971EA81EB91EEC
:1027C00080926B0990926C09A0926D09B0926E098B
:1027D00085E0EE0FFF1F8A95E1F7E150FE4FEF2FE6
:1027E000FF27E6958E0E9F1EA11CB11C80925F09EB
:1027F00090926009A0926109B092620920918906C5
:1028000030918A062115310521F0A90160E070E0C0
:1028100008C0409196065091970660919806709175
:102820009906D701C60188199909AA09BB09840F1D
:10283000951FA61FB71F04C0B695A79597958795B6
:10284000CA95D2F780935A0990935B09A0935C09CB
:10285000B0935D09853F2FE09207A105B10510F403
:102860008CE018C0853F9F4FA105B10510F480E1B1
:1028700011C08091A2069091A306A091A406B091E8
:10288000A50680936B0990936C09A0936D09B09392
:102890006E0980E28093680981E0DF91CF91FF901B
:1028A000EF90DF90CF90BF90AF909F908F90089562
:1028B0001F920F920FB60F9211240BB60F922F9307
:1028C0003F934F935F936F937F938F939F93AF93B8
:1028D000BF93EF93FF938091B900887F803609F40E
:1028E0009CC068F5883209F45BC090F4803109F42B
:1028F00054C038F4882309F4F6C0883009F44DC078
:10290000F6C0883109F44CC0803209F45DC0EFC0D4
:10291000803409F468C048F4803309F455C0883322
:1029200009F0E5C080930004D8C0803509F44FC099
:10293000883509F45DC0883409F0D9C0D6C088391B
:1029400009F4C7C0A8F4883709F467C038F488369A
:1029500009F463C0803709F460C0C9C0883809F43D
:10296000B8C0803909F45FC0803809F0C0C05BC0CE
:10297000803B09F486C038F4803A09F466C0883A8E
:1029800009F47FC0B4C0803C09F4A7C0883C09F4B6
:10299000A4C0883B09F48AC0AAC08091230410C057
:1029A0009091220480912104981770F5E0912204FF
:1029B00081E08E0F80932204F0E0EF5FFB4F808177
:1029C0008093BB0085EC86C0809300048EC0E091AC
:1029D000220481E08E0F809322048091BB00F0E0FE
:1029E000EF5FFB4F808390912204809121046EC0A1
:1029F000E091220481E08E0F809322048091BB003D
:102A0000F0E0EF5FFB4F80838091270481116DC060
:102A100081E08093260484EA61C083E080932804E7
:102A200010927406CFCF80917406803208F051C0A6
:102A3000E091740681E08E0F809374068091BB0054
:102A4000F0E0EC5AF94F8083BDCF85EC8093BC0059
:102A50001092280480917406803230F4E09174065C
:102A6000F0E0EC5AF94F10826091740670E0E0914A
:102A70005206F091530684E596E01995109274067B
:102A800036C084E0809328041092510610925006BC
:102A9000E0914E06F0914F061995809150068111F4
:102AA00005C081E08093500610922E06E0915106F9
:102AB00081E08E0F80935106F0E0E25DF94F808156
:102AC0008093BB009091510680915006981708F4AE
:102AD00079CF85E88093BC000AC085EC8093BC0068
:102AE0001092280404C0109200040E940B0FFF9162
:102AF000EF91BF91AF919F918F917F916F915F9176
:102B00004F913F912F910F900BBE0F900FBE0F90E2
:102B10001F90189540915006262F30E0240F311D4C
:102B200021323105DCF4209128042430C9F4FC0161
:102B300080E090E0861758F4309150062191DC0136
:102B4000A25DB94FA30FB11D2C930196F3CF8091D5
:102B50005006680F6093500680E0089581E0089564
:102B600082E00895CF93DF93EC016A8B80910B0292
:102B700090910C02A0910D02B0910E028E879F875A
:102B8000A88BB98B80E2689FF0011124EA58F94FB5
:102B90004489558960E070E0BA01552744274F8B7E
:102BA000588F698F7A8F828D938DA0E0B0E0482B8B
:102BB000592B6A2B7B2B4F8B588F698F7A8F83858C
:102BC000887151F4848D958DA68DB78D8B8B9C8BE0
:102BD000AD8BBE8B81E00EC0803111F080E015C05E
:102BE0009E012D5E3F4F8B8D9C8D0E94FF0688239A
:102BF000A9F384E08D8381E08C831E821F82188676
:102C000019861A861B861C861D86DF91CF91089532
:102C1000CF93DF93CDB7DEB728970FB6F894DEBF1A
:102C20000FBECDBF28E0E7E7F2E0DE01119601908C
:102C30000D922A95E1F720919609261710F46FEF6F
:102C4000620FFE013196E60FF11DE60FF11D908136
:102C5000682F690F606840E08EE899E028960FB60B
:102C6000F894DEBF0FBECDBFDF91CF910C944D0E17
:102C70008F929F92AF92BF920F931F93CF93DF9348
:102C8000CDB7DEB7A1970FB6F894DEBF0FBECDBFAC
:102C900019A2423008F44AE08E010F5D1F4F842EC6
:102CA000912CA12CB12CA50194010E949323E62F15
:102CB000B901CA0101501109EA3014F4E05D01C004
:102CC000E95CD801EC93232B242B252B61F7B80169
:102CD0008EE899E00E941A1BA1960FB6F894DEBF09
:102CE0000FBECDBFDF91CF911F910F91BF90AF90DD
:102CF0009F908F90089520914309309144092115A8
:102D0000310541F0AB01BC01C9010E94680791E0A7
:102D1000811101C090E0892F089580917E0890E094
:102D2000880F991FFC01EF56FD4F0190F081E02DB7
:102D300020917B0830917C0831832083FC01E75788
:102D4000FD4F0190F081E02D82EB8083E0917E08C1
:102D5000F0E0EE0FFF1FEF57FD4F0190F081E02DE7
:102D600089E180830895E0914309F0914409309707
:102D700029F08581882311F081E008950895AF92AC
:102D8000BF92CF92DF92EF92FF920F931F93CF9358
:102D9000DF93CDB7DEB72B970FB6F894DEBF0FBE2B
:102DA000CDBF7C01CE0101966C01FC0190E28BE06D
:102DB0008C0D91938E13FDCFDA0120E037E09D91C9
:102DC000992339F19E3219F0EEECF1E00AC03A3065
:102DD00009F4AAC028E03AE0F2CF3196891709F445
:102DE000A3C084918111F9CF321708F49DC08FEDF3
:102DF000890F8E3508F098C081E0820FF601E20F4E
:102E0000F11D2FE9290F2A3108F490529083282FC1
:102E1000D6CF8981803209F487C08B01FB01838D75
:102E2000948DF701948F838FFB0116821782108691
:102E300011861286138614861586A12CF8018285C8
:102E40009385A485B58543895489658976898417D6
:102E50009507A607B70708F067C025E0B695A795C0
:102E6000979587952A95D1F7F82FFF70BF2EF80117
:102E70008581823008F458C0C8010E94060A97FD77
:102E800053C0F80182859385A485B5854F96A11D11
:102E9000B11D82879387A487B587F0E2BF9EC001EA
:102EA0001124BC016A58794F61157105E9F1FB01E4
:102EB00020812223B9F1253EE1F04BE050E0C6012C
:102EC0000E94FE24892B09F0B9CF6B2DC7012B96E8
:102ED0000FB6F894DEBF0FBECDBFDF91CF911F912B
:102EE0000F91FF90EF90DF90CF90BF90AF900C9438
:102EF000B215A11014C0F701B28A40910B02509193
:102F00000C0260910D0270910E0246875787608B0C
:102F1000718BFC01EA58F94F8081882329F0AA249B
:102F2000A3948CCFAA2039F380E02B960FB6F894A7
:102F3000DEBF0FBECDBFDF91CF911F910F91FF90EC
:102F4000EF90DF90CF90BF90AF90089580914309AC
:102F500090914409009761F00E945B0A80914309B7
:102F6000909144090E9461241092440910924309EF
:102F70000895CF93DF931F92CDB7DEB76983DC014D
:102F8000ED91FC910280F381E02D41E050E0BE0123
:102F90006F5F7F4F19950F90DF91CF91089508953E
:102FA00081E090E030912C0420912B04321710F432
:102FB00080E090E0919581959109089580912C048D
:102FC00090912B04891730F48F5F80932C0480E05C
:102FD00090E008958FEF9FEF089580912B0490E08B
:102FE00020912C04821B910908953FB7F894809199
:102FF000F9099091FA09A091FB09B091FC0926B555
:10300000A89B05C02F3F19F00196A11DB11D3FBF20
:10301000BA2FA92F982F8827820F911DA11DB11DAE
:10302000BC01CD0142E0660F771F881F991F4A95AA
:10303000D1F70895CF92DF92EF92FF920F931F93F3
:10304000CF93DF936C017A018B01C0E0D0E0CE1505
:10305000DF0589F0D8016D918D01D601ED91FC91CC
:103060000190F081E02DC6011995892B11F47E01A4
:1030700002C02196ECCFC701DF91CF911F910F9134
:10308000FF90EF90DF90CF900895FC01818D928D9D
:10309000009711F00C94060A8FEF9FEF08950F939D
:1030A0001F93CF93DF93FC01818D928D0097B9F030
:1030B000EF010E94060A8C010F3F8FEF180791F075
:1030C000898D9A8DFC0142855385648575854150B3
:1030D0005109610971090E946807C80105C080E0B3
:1030E00090E002C08FEF9FEFDF91CF911F910F9182
:1030F0000895CF93DF93EC01898D9A8D009739F471
:1031000081E090E09B838A8380E090E00BC0FC012B
:10311000138212820E94670AE98DFA8D228133811F
:10312000232B71F7DF91CF910895CF92DF92EF9229
:10313000FF920F931F93CF93DF937C01262F972F3E
:103140008A018091F309882391F0C62FD72F6E0151
:10315000C40ED51ECC15DD0571F06991D701ED9136
:10316000FC910190F081E02DC7011995F3CF642FF8
:10317000822F0E948A15C801DF91CF911F910F9174
:10318000FF90EF90DF90CF900895CF93DF931F9241
:10319000CDB7DEB769832091F3092223D1F02091C6
:1031A0002904203240F021E030E0FC013383228307
:1031B00080E090E015C080912A04E82FF0E0ED5205
:1031C000F64F998190838F5F80932A04809329041E
:1031D00005C061E0CE0101960E948A1581E090E071
:1031E0000F90DF91CF910895EF92FF920F931F936D
:1031F000CF93DF93EC017B018A011B821A8288EE58
:1032000093E0A0E0B0E08C839D83AE83BF8381EC2C
:1032100092E0998388838DE190E00E94CC239A8F7D
:10322000898F009779F02DE1F701DC0101900D9273
:103230002A95E1F74CE050E0B801CE010C960E94CF
:103240001625188EDF91CF911F910F91FF90EF906F
:10325000089590E0FC013197E231F10508F04EC08D
:103260008827EE58FF4F8F4F0C94C4238091800025
:103270008F7703C0809180008F7D809380000895B8
:1032800080918000877FF9CF84B58F7702C084B5A5
:103290008F7D84BD08958091B0008F7703C08091A9
:1032A000B0008F7D8093B0000895809190008F775B
:1032B00007C0809190008F7D03C080919000877F30
:1032C0008093900008958091A0008F7707C080912F
:1032D000A0008F7D03C08091A000877F8093A00015
:1032E0000895809120018F7707C0809120018F7D04
:1032F00003C080912001877F8093200108951F9350
:10330000CF93DF93282F30E0F901E156FD4F8491F0
:10331000F901E75AFD4FD491F901ED5EFD4FC491DB
:10332000CC23C9F0162F81110E942919EC2FF0E04F
:10333000EE0FFF1FE750FE4FA591B4918FB7F894A1
:10334000111105C09C91ED2FE095E92302C0EC918D
:10335000ED2BEC938FBFDF91CF911F910895CF9309
:10336000DF9390E0FC01E75AFD4F2491FC01ED5EF4
:10337000FD4F8491882361F190E0880F991FFC0133
:10338000E152FE4FC591D491FC01E750FE4FA5914B
:10339000B491611109C09FB7F89488812095822368
:1033A0008883EC912E230BC0623061F49FB7F894B0
:1033B0003881822F809583238883EC912E2B2C9348
:1033C0009FBF06C08FB7F894E8812E2B28838FBF4C
:1033D000DF91CF9108958F929F92AF92BF92CF923B
:1033E000DF92EF92FF926B017C010E94F5174B0177
:1033F0005C01C114D104E104F104F1F00E94F5175D
:10340000DC01CB0188199909AA09BB09883E9340C0
:10341000A105B10570F321E0C21AD108E108F10855
:1034200088EE880E83E0981EA11CB11CC114D10443
:10343000E104F10419F7DDCFFF90EF90DF90CF901A
:10344000BF90AF909F908F9008952FB7F8946091A0
:10345000F5097091F6098091F7099091F8092FBF4D
:1034600008951F920F920FB60F9211242F933F933E
:103470008F939F93AF93BF938091F5099091F60935
:10348000A091F709B091F8093091F40923E0230FD6
:103490002D3720F40196A11DB11D05C026E8230F8C
:1034A0000296A11DB11D2093F4098093F509909314
:1034B000F609A093F709B093F8098091F909909162
:1034C000FA09A091FB09B091FC090196A11DB11D5B
:1034D0008093F9099093FA09A093FB09B093FC0932
:1034E000BF91AF919F918F913F912F910F900FBE00
:1034F0000F901F9018951F920F920FB60F921124E4
:103500000BB60F922F933F934F935F936F937F93DD
:103510008F939F93AF93BF93EF93FF938091CF09C6
:103520009091D009A091D109B091D209892B8A2B11
:103530008B2B59F18091CE09E091CC09F091CD0906
:103540009081892780838091CF099091D009A091A3
:10355000D109B091D209181619061A061B060CF0EB
:1035600056C08091CF099091D009A091D109B09116
:10357000D2090197A109B1098093CF099093D0098D
:10358000A093D109B093D20942C080910F02EEED11
:10359000F1E0E4919FEF90930F02E230C9F050F414
:1035A000EE2399F0E13081F590916F009D7F90932B
:1035B0006F002AC0E43019F1E0F0E53029F5909170
:1035C00073009D7F909373001FC010926E001CC00B
:1035D000909170009D7F9093700091E09093B00067
:1035E0009091B100987F94609093B1001092B300D5
:1035F0000BC0909171009D7F9093710005C09091D8
:1036000072009D7F9093720060E00E947F19FF918D
:10361000EF91BF91AF919F918F917F916F915F914A
:103620004F913F912F910F900BBE0F900FBE0F90B7
:103630001F9018956115710579F0FB01019000202C
:10364000E9F73197AF01461B570BDC01ED91FC9177
:103650000280F381E02D199480E090E00895CF93EB
:10366000DF9300D01F921F92CDB7DEB7789484B558
:10367000826084BD84B5816084BD85B5826085BD6E
:1036800085B5816085BD80916E00816080936E00FC
:1036900010928100809181008260809381008091EE
:1036A000810081608093810080918000816080939F
:1036B00080008091B10084608093B1008091B0005F
:1036C00081608093B000809191008260809391002E
:1036D0008091910081608093910080919000816041
:1036E000809390008091A10082608093A1008091DE
:1036F000A10081608093A1008091A00081608093EF
:10370000A00080912101826080932101809121019C
:10371000816080932101809120018160809320014C
:1037200080917A00846080937A0080917A00826030
:1037300080937A0080917A00816080937A008091F2
:103740007A00806880937A001092C10082E090E055
:10375000A0E0B0E08093C0039093C103A093C203A4
:10376000B093C30385E093E09093BF038093BE03BF
:10377000809170008E7F809370008091B0008C7F6C
:103780008093B0008091B100877F8093B1008091D9
:10379000B6008F7D8093B600809170008D7F8093FE
:1037A00070008091B10084608093B1008091B1007D
:1037B0008C7F8093B10086E090E09093C503809366
:1037C000C4031092C7031092C8031092C903109249
:1037D000CA031092C6038091C4039091C5038093DD
:1037E000B200809170008160809370000E94251A61
:1037F0006093D1037093D2038093D3039093D40347
:103800006093CD037093CE038093CF039093D00346
:1038100080917B00886080937B0086E480937C00AD
:1038200080917A00806480937A0080917A0086FD8E
:10383000FCCF609178008091790070E0782B072EA2
:10384000000C880B990B611571058105910511F02C
:103850000E9458230E94941288E08093990960E0A6
:103860008EE899E00E94CF0D16E161E0812F0E9461
:10387000AF191F5F1E32C9F712E061E0812F0E946D
:10388000AF191F5F1E30C9F78EE280937608E09172
:103890009B08F0919C0882E08083E0919708F0916A
:1038A00098081082E0919908F0919A088FEC808333
:1038B0001092A308E0919F08F091A00886E0808311
:1038C000E0919D08F0919E08808180618083E09165
:1038D0009D08F0919E08808188608083E0919D081A
:1038E000F0919E08808180688083E0919D08F0912E
:1038F0009E0880818F7D80831092500910924E091E
:1039000010924B0910924A0985E3809349090E945D
:10391000251A5B0161E0809149090E94AF1961E0BD
:10392000809149090E947F191FB7F8948091D703AD
:10393000811127C0E8E4F2E08491EEE8F2E094918E
:10394000E82FF0E0EE0FFF1FE152FE4FA591B4917A
:10395000EC91E92321F461E085E30E947F1961E0A5
:1039600085E30E94AF198CB580618CBD8CB58064F5
:103970008CBD61E084E30E94AF1961E083E30E94A3
:10398000AF198091D7038F5F8093D7031FBF82E564
:10399000809328091092290980912809909129097A
:1039A0000E94DD031AE08FEF0E949E031150D9F7A9
:1039B00085E499E00E94E00320E030E0A90160E0A6
:1039C00085E499E00E94F603182F80934F09813017
:1039D00049F00E94251A6A197B09613D774060F31E
:1039E00081E054C02AEA31E040E050E068E085E43C
:1039F00099E00E94F60382FF03C0109350090EC0A5
:103A000014E00E94A50380934F091150D1F78A3A20
:103A100011F082E03BC082E0809350098091500910
:103A2000823021F0C12CD12C760105C0C12CD12CC3
:103A3000E12C30E4F32E20E030E0A90167E385E4D7
:103A400099E00E94F603A701960169E285E499E0F6
:103A50000E94F60380934F09882349F00E94251A9B
:103A60006A197B09613D774030F388E00FC080918F
:103A70005009823001F520E030E0A9016AE385E4D5
:103A800099E00E94F603882341F086E080934A097A
:103A900085E499E00E9493038FC00E94A503807C77
:103AA000803C19F483E0809350090E94A5030E9492
:103AB000A5030E94A50385E499E00E94930380E595
:103AC000809328091092290981E00E9429138823F4
:103AD00029F080917409882341F06EC080E00E9433
:103AE0002913882309F468C0F4CF809168098031D4
:103AF00009F582E080937409109286091092870973
:103B000010928809109289098091690990916A0937
:103B1000A0E0B0E025E0880F991FAA1FBB1F2A95DF
:103B2000D1F78093820990938309A0938409B0937D
:103B300085091EC0803209F03FC083E0809374097C
:103B400040916B0950916C0960916D0970916E09FB
:103B50004093860950938709609388097093890977
:103B600022E839E081E599E00E94FF06882321F1EF
:103B700081E599E090938B0980938A0981E0809395
:103B800073091092750910927609109277091092B4
:103B900078091092790910927A0910927B09109293
:103BA0007C0910927D0910927E0910927F09109273
:103BB0008009109281090CC065E073E08BE898E001
:103BC0000E941A1B6DE073E08BE898E00E941A1BBC
:103BD00001E010E08CEDC82E85E0D82EE12CF12C10
:103BE00099E6292E9AE0392E8091D5039091D6033B
:103BF0008130910509F4EEC024F4892B09F45FC0EB
:103C000007C08230910509F450C1099709F4D0C169
:103C1000B2E0BB2E61E082E00E9408160E94251AE5
:103C200028EE33E040E050E00E949323CA01B9013E
:103C30004AE00E94381661E08B2D0E947F1968EEE1
:103C400073E080E090E00E94EB1960E08B2D0E9411
:103C50007F1968EE73E080E090E00E94EB19B39466
:103C60004EE0B412D7CFA6E1BA2E61E082E00E9406
:103C700008160E94251A28EE33E040E050E00E942A
:103C80009323CA01B9014AE00E94381661E08B2DE6
:103C90000E947F1968EE73E080E090E00E94EB19CB
:103CA00060E08B2D0E947F1968EE73E080E090E069
:103CB0000E94EB19B3945EE2B512D7CF5CC387EED6
:103CC00093E09093D6038093D5030E94941280E1F1
:103CD00093E00E943E0F0E94542324E833E040E02A
:103CE00050E00E9461239B01AC012C593F4F4F4F84
:103CF0005F4F29833A834B835C83412C512C3201E3
:103D000089819A81840D951D18161906CCF592E0CB
:103D100061E0892F9D830E947F199D819F5F9E3066
:103D2000B9F789809A80AB80BC80840C951CA61C56
:103D3000B71CC501B4010E94EB1992E060E0892F25
:103D40009D830E947F199D819F5F9E30B9F7C501B9
:103D5000B4010E94EB198091C809882309F40EC3AD
:103D60008091AF09882309F409C360E080E00E94D4
:103D7000081668E973E08EE899E00E941A1BFBC2FE
:103D800082E693E00E943E0F8091C809882379F073
:103D900060E080E00E9408166DE273E08EE899E032
:103DA0000E941A1B1093D6030093D503C6C28091BC
:103DB000AF09882349F360E080E00E94081664E5BB
:103DC00073E08EE899E00E941A1B1093D6030093CB
:103DD000D503C9C20E94251A6093D1037093D20300
:103DE0008093D3039093D4032091FF038090CD035D
:103DF0009090CE03A090CF03B090D003DC01CB0114
:103E000088199909AA09BB0921110CC0883B9B405C
:103E1000A105B10548F184E090E09093D60380932A
:103E2000D503A9C28C329140A105B105E8F060919B
:103E30000402709105028091060290910702409160
:103E4000CB035091CC03660F771F20910202309173
:103E50000302621B730B880F991F2091000230919F
:103E60000102821B930B85C28091B9098111A2C204
:103E70008091A00981119EC28091BE098111AFC2BB
:103E80008091A5098111ABC28091C3098111BCC287
:103E90008091AA098111B8C28091B4098111C8C268
:103EA00080919B098111C4C266C20E94251A609349
:103EB000D1037093D2038093D3039093D403609380
:103EC000CD037093CE038093CF039093D0030E94D1
:103ED000740E1092FF031093D6030093D503409104
:103EE000CB035091CC0320910402309105028091C4
:103EF0000602909107024130510569F5232B89F4A0
:103F00009C01215031092330310528F44FEF5FEF38
:103F100061E070E010C004974FEF5FEF61E070E088
:103F200012C09C01215031092330310538F44FEF84
:103F30005FEF63E070E082E090E01BC204974FEF18
:103F40005FEF63E070E0039718F484E090E011C243
:103F500088E090E00EC2232B89F49C01285031099F
:103F60002330310528F441E050E061E070E010C0FA
:103F7000059741E050E061E070E012C09C012850DC
:103F800031092330310538F441E050E064E070E05D
:103F900089E090E0EEC1059741E050E064E070E018
:103FA000039718F487E090E0E4C183E090E0E1C17A
:103FB0000E94251A6093D1037093D2038093D30398
:103FC0009093D4036093CD037093CE038093CF037B
:103FD0009093D00380910F028E3221F4EEEDF1E048
:103FE0009491F0C08F3F09F089C18EE280930F0257
:103FF000EEEDF1E094919F3F09F480C1923009F415
:1040000075C054F5992309F453C0913009F0DAC012
:1040100010928000109281008091810088608093CE
:10402000810080918100816080938100E1E4F2E071
:104030008491E82FF0E0EE0FFF1FE750FE4F8591CF
:1040400094919093E3038093E203E7E8F2E0849194
:104050008093E10391E0B8C0943009F48FC00CF470
:1040600069C0953009F0AEC0109220011092210174
:1040700080912101886080932101809121018160DC
:1040800080932101E1E4F2E08491E82FF0E0EE0F6B
:10409000FF1FE750FE4F859194919093DA03809330
:1040A000D903E7E8F2E084918093D80395E08CC0CF
:1040B00014BC15BC84B5826084BD85B5816085BDA6
:1040C000E1E4F2E08491E82FF0E0EE0FFF1FE7500B
:1040D000FE4F859194919093E6038093E503E7E882
:1040E000F2E084918093E40390E06EC01092B000FF
:1040F0001092B1008091B00082608093B0008091F6
:10410000B10081608093B100E1E4F2E08491E82F96
:10411000F0E0EE0FFF1FE750FE4F859194919093D2
:10412000CD098093CC09E7E8F2E084918093CE0931
:1041300092E04AC0109290001092910080919100FC
:1041400088608093910080919100816080939100BC
:10415000E1E4F2E08491E82FF0E0EE0FFF1FE7507A
:10416000FE4F859194919093E0038093DF03E7E8FD
:10417000F2E084918093DE0393E026C01092A000C9
:104180001092A1008091A10088608093A10080918D
:10419000A10081608093A100E1E4F2E08491E82F26
:1041A000F0E0EE0FFF1FE750FE4F85919491909342
:1041B000DD038093DC03E7E8F2E084918093DB0386
:1041C00094E002C097FD9AC061E08EE29D830E9458
:1041D000AF199D81992309F43FC1923009F442C07F
:1041E0009130C1F480918100887F8160809381004B
:1041F0003092890020928800C092F303D092F40399
:10420000E092F503F092F60380916F008260809354
:104210006F0074C0933039F480919100887F816081
:104220008093910036C0943039F48091A100887F4A
:1042300081608093A1003FC0953039F480912101C5
:10424000887F81608093210148C0933011F12CF464
:10425000923009F053C089E60CC0943061F195307A
:10426000E1F14CC08091B100887F83608093B10000
:1042700082E58093B300C092CF09D092D009E0923A
:10428000D109F092D2098091700082608093700011
:1042900035C03092990020929800C092EF03D092DE
:1042A000F003E092F103F092F203809171008260DA
:1042B0008093710023C03092A9002092A800C09280
:1042C000EB03D092EC03E092ED03F092EE038091C9
:1042D000720082608093720011C030922901209296
:1042E0002801C092E703D092E803E092E903F0923C
:1042F000EA03809173008260809373001092FF0341
:104300001093D6030093D50360E080E00E94081666
:104310008091060290910702892BB1F48091FB03F2
:104320009091FC0301969093FC038093FB036EE64F
:1043300073E08EE899E00E941A1B41E050E062E0D1
:1043400070E085E090E015C08091FD039091FE0340
:1043500001969093FE038093FD0362E873E08EE87C
:1043600099E00E941A1B4FEF5FEF62E070E086E079
:1043700090E00E94890E0E94780236CC8091AF09AD
:10438000882339F060E080E00E94081668E173E05D
:1043900005CD8091C80934E6431A510861087108B7
:1043A000882309F4ADCC60E080E00E9408166DE33C
:1043B00073E007CD8091CB039091CC036091040210
:1043C000709105022091060230910702AC01820F24
:1043D000931F0E94890EF1E0F093FF034DCD2091D1
:1043E000CB033091CC03609104027091050280915F
:1043F000060290910702A901821B930B0E94890E6D
:1044000021E02093FF0340CD4091CB035091CC039A
:104410006091040270910502640F751F809106027D
:10442000909107020E94890E31E03093FF0334CD52
:104430004091CB035091CC0360910402709105022E
:10444000641B750B80910602909107020E94890EF1
:1044500041E04093FF038FCF85B5887F836085BDA2
:1044600088E287BDC092F703D092F803E092F90387
:10447000F092FA0380916E00826080936E003ECFCE
:10448000CF93DF93EFE7F8E01382128288EE93E098
:10449000A0E0B0E084839583A683B7832DE932E062
:1044A00031832083EBE8F8E01382128284839583C2
:1044B000A683B7832FEA32E03183208325EC30E0F6
:1044C0003587248724EC30E03787268720EC30E0DE
:1044D000318B208B21EC30E0338B228B22EC30E0CF
:1044E000358B248B26EC30E0378B268B118E128E89
:1044F000138E148EE8E2F9E020E520831182EAE2CF
:10450000F9E01382128284839583A683B78381ECBA
:1045100092E091838083128E118E1486E5E4F9E097
:10452000158216821186138682E090E0A0E0B0E04A
:1045300084879587A687B78713A215A614A685EE4C
:1045400092E093A782A717A6E7ECF9E086E38483BD
:10455000CFE0C38362E00E94AF19E2ECF9E087E3A9
:104560008483C38362E00E94AF19EDEBF9E088E336
:104570008483C38362E00E94AF19E8EBF9E089E32A
:104580008483C38362E00E94AF19E3EBF9E08AE31E
:104590008483C38362E00E94AF19EEEAF9E08BE303
:1045A0008483C38362E00E94AF19E9EAF9E08CE3F7
:1045B0008483C38362E00E94AF19E4EAF9E08DE3EB
:1045C0008483C38362E00E94AF19EFE9F9E08EE3D0
:1045D0008483C38362E00E94AF19EAE9F9E0DFE374
:1045E000D483C38362E08FE30E94AF19EEE8F9E061
:1045F0001382128281EF92E091838083D48380E1E1
:10460000818782E082871386DF91CF9108958F9210
:104610009F92AF92BF92CF92DF92EF92FF92CF9391
:10462000DF93EC01688179818A819B816115710535
:104630008105910521F464E279ED8BE597E02DE1A8
:1046400033EF41E050E00E94612349015A019B0190
:10465000AC01A7EAB1E40E9480236B017C01ACEEBF
:10466000B4EFA50194010E948E23DC01CB018C0DD7
:104670009D1DAE1DBF1DB7FF03C00197A109B04826
:1046800088839983AA83BB83BC01CD019F77DF9187
:10469000CF91FF90EF90DF90CF90BF90AF909F9021
:1046A0008F9008950C94072380E192E00C940723E7
:1046B0006093100270931102809312029093130280
:1046C0000895052E97FB1EF400940E94782357FD51
:1046D00007D00E94932307FC03D04EF40C94782358
:1046E00050954095309521953F4F4F4F5F4F08951E
:1046F00090958095709561957F4F8F4F9F4F08954E
:104700000E94B523A59F900DB49F900DA49F800D8E
:10471000911D11240895B7FF0C9480230E948023DB
:10472000821B930B0895A1E21A2EAA1BBB1BFD014D
:104730000DC0AA1FBB1FEE1FFF1FA217B307E40780
:10474000F50720F0A21BB30BE40BF50B661F771FD8
:10475000881F991F1A9469F76095709580959095B8
:104760009B01AC01BD01CF010895A29FB001B39F91
:10477000C001A39F700D811D1124911DB29F700D6A
:10478000811D1124911D0895EE0FFF1F881F8BBFFF
:104790000790F691E02D1994CF93DF938230910525
:1047A00010F482E090E0E091FF09F091000A20E02F
:1047B00030E0C0E0D0E0309711F1408151814817DE
:1047C0005907C0F04817590761F4828193812097F7
:1047D00019F09B838A832BC09093000A8093FF0972
:1047E00026C02115310519F04217530718F49A0114
:1047F000BE01DF01EF010280F381E02DDCCF211546
:10480000310509F1281B390B2430310590F412963B
:104810008D919C9113976115710521F0FB01938394
:10482000828304C09093000A8093FF09FD013296B1
:1048300044C0FD01E20FF31F81939193225031098F
:104840002D933C933AC02091FD093091FE09232B12
:1048500041F420911602309117023093FE09209303
:10486000FD0920911402309115022115310541F402
:104870002DB73EB74091180250911902241B350BF9
:10488000E091FD09F091FE09E217F307A0F42E1B59
:104890003F0B2817390778F0AC014E5F5F4F2417A4
:1048A000350748F04E0F5F1F5093FE094093FD09F6
:1048B0008193919302C0E0E0F0E0CF01DF91CF91CE
:1048C00008950F931F93CF93DF93009709F48CC043
:1048D000FC013297138212820091FF091091000AA5
:1048E0000115110581F420813181820F931F2091E0
:1048F000FD093091FE092817390779F5F093FE0973
:10490000E093FD0971C0D80140E050E0AE17BF0749
:1049100050F412962D913C911397AD01211531055C
:1049200009F1D901F3CF9D01DA013383228360813C
:104930007181860F971F8217930769F4EC01288114
:104940003981260F371F2E5F3F4F318320838A81A5
:104950009B8193838283452B29F4F093000AE09393
:10496000FF0942C01396FC93EE931297ED01499113
:1049700059919E01240F351FE217F30771F48081CE
:104980009181840F951F029611969C938E9382813C
:10499000938113969C938E931297E0E0F0E0D801F8
:1049A00012968D919C911397009719F0F8018C0144
:1049B000F6CF8D919C9198012E5F3F4F820F931FF0
:1049C0002091FD093091FE092817390769F43097C5
:1049D00029F41092000A1092FF0902C01382128279
:1049E0001093FE090093FD09DF91CF911F910F9164
:1049F000089581E090E0F8940C942525FB01DC01FA
:104A000004C08D910190801921F441505040C8F7A5
:104A1000881B990B0895FC018191861721F088234A
:104A2000D9F7992708953197CF010895FB01DC014B
:104A30004150504048F001900D920020C9F701C04C
:0E4A40001D9241505040E0F70895F894FFCFCA
:104A4E00FFFFFFFFFFFFFFFF010160FFFFFFFFFF03
:104A5E00010000000000010A8000FFFFFFFFFFFFC2
:104A6E00012303FFFF19251DFFFF1A241CFFFF1B47
:104A7E00221EFFFFFF2AFFFFFFFF2CFFFFFF172B5A
:104A8E001FFFFF162621FFFF182D20FFFF0229040E
:104A9E00FFFFFFFFFFFF0084009400A40024018AA3
:104AAE00009A00AA002A0188009800A80028016F29
:104ABE0000710072007300000040001400540000EA
:104ACE000081009100A100210180009000A0002033
:104ADE000186009600A600260100000000C518956C
:104AEE0018B202CF17ED17DE17D017000000000F17
:104AFE00021A18A7015602D801B601CA0100000019
:104B0E0000B9177918B202360F150F45184F180055
:104B1E00000000B5021A18B202B102B502B502B514
:104B2E000200000000F70B1A18B202B102000000DA
:104B3E00006E0E1A18B202B10200000000B5021A81
:104B4E0018B202B1025344206661696C000D0A006E
:104B5E006F6C652E7761760052656420706C7220E2
:104B6E0066616C736520737461727421204772657F
:104B7E00656E20706C722077696E732100477265C6
:104B8E00656E20706C722066616C73652073746143
:104B9E007274212052656420706C722077696E7376
:104BAE00210077686973746C652E776176005265A3
:104BBE006420706C72206861732073636F72656419
:104BCE002100477265656E20706C722068617320DB
:104BDE0073636F7265642100426F746820706C722B
:104BEE00732066616C736520737461727421002F7B
:024BFE000000B5
:00000001FF
