:100000000C9473010C94A4010C94A4010C94A4010D
:100010000C94A4010C94A4010C94A4010C94A401CC
:100020000C94A4010C94A4010C94A4010C94A401BC
:100030000C94A4010C94A4010C94A4010C94580DEC
:100040000C946E0C0C94A4010C94A4010C94A401C7
:100050000C94070C0C94A4010C94A4010C94331A76
:100060000C94A4010C9456030C942C030C94A4013E
:100070000C94A4010C94A4010C94A4010C946E0C97
:100080000C94A4010C94A4010C94A4010C94070CEE
:100090000C94A4010C94A4010C94A4010C940417D6
:1000A0000C94A4010C946E0C0C94A4010C94A40167
:1000B0000C94A4010C94070C0C946E0C0C94A401E9
:1000C0000C94A4010C94A4010C94070C0C94A401AE
:1000D0000C94A4010C94A4010C94A4010C94A4010C
:1000E0000C94A4018618891878187C188218C018F6
:1000F0008D18911897189B189F18A518A918AD1856
:10010000C018B318B718BB180C949C140C94B50104
:100110000C948F150C946D0E0C94AD180C94040374
:100120000C94D4140C9482180C94F60B0C9478183C
:100130000C94F1140C94BD140C94B1020C94C018DE
:100140000C9486180C940E020C94A9180C94B718F1
:100150000C94B9150C94D7010C9491180C949F1819
:100160000C948D180C9489180C9455020C940B2047
:100170000C9429150C947C180C94BB180C949718AB
:100180000C94D3140C94B3180C94F9140C94A51873
:100190000C947D150C94B0020C94FC190C94A601DF
:1001A0000C94E2140C9485150C94C9010C949B18C2
:1001B0000C94B402000020002300260029002C002B
:1001C0002F003200000100000301060109017C3C00
:1001D0003E5E2B3D3F2F5B5D3B2C2A225C000000E6
:1001E0002100240027002A002D00300033000101E7
:1001F0000000040107010A01000022002500280078
:100200002B002E003100340002010000050108011E
:100210000B0105050505070508080808020202028A
:100220000A0A080804040404010101010101010192
:100230000303030303030303040707070C0C0C0C5D
:100240000C0C0C0C02020202060606060606060646
:100250000B0B0B0B0B0B0B0B0102102020080810D3
:100260002040102040800201020108040201010226
:1002700004081020408080402010080402018004FF
:10028000020180402010080402010804020101025A
:100290000408102040800102040810204080000063
:1002A0000A0B02090C0D0E080703040100000000F0
:1002B000000000000000000000000000000000003E
:1002C00000000000000000000000121110000000FB
:1002D000000000000000000000000000000000001E
:1002E000000000000B2011241FBECFEFD1E2DEBFC3
:1002F000CDBF00E00CBF13E0A0E0B2E0E0EEF5E41B
:1003000000E00BBF02C007900D92AA37B107D9F7E2
:1003100029E0AAE7B3E001C01D92A73AB207E1F7CE
:1003200011E0C3E7D1E000E006C021970109802F6A
:10033000FE010E948D21C237D10780E00807A9F78E
:100340000E94921A0C94EE220C940000FC01538D32
:10035000448D252F30E0842F90E0821B930B54179F
:1003600010F0CF96089501970895FC01918D828D2C
:10037000981761F0828DDF01A80FB11D5D968C91F9
:10038000928D9F5F9F73928F90E008958FEF9FEF04
:100390000895FC01918D828D981731F0828DE80FC0
:1003A000F11D858D90E008958FEF9FEF0895FC017A
:1003B000918D228D892F90E0805C9F4F821B910947
:1003C0008F739927089584EC97E00E94D70121E06C
:1003D000892B09F420E0822F0895FC01848DDF0130
:1003E000A80FB11DA35ABF4F2C91848D90E00196A8
:1003F0008F739927848FA689B7892C93A089B18997
:100400008C9180648C93938D848D981306C00288A0
:10041000F389E02D80818F7D80830895EF92FF9294
:100420000F931F93CF93DF93EC0181E0888F9B8D17
:100430008C8D981305C0E889F989808185FD24C0D9
:10044000F62E0B8D10E00F5F1F4F0F731127E02E5C
:100450008C8DE8120CC00FB607FCFACFE889F98939
:10046000808185FFF5CFCE010E94ED01F1CF8B8D0C
:10047000FE01E80FF11DE35AFF4FF0820B8FEA896E
:10048000FB898081806207C0EE89FF896083E889EB
:10049000F98980818064808381E090E0DF91CF9151
:1004A0001F910F91FF90EF900895CF93DF93EC0190
:1004B000888D8823C9F0EA89FB89808185FD05C084
:1004C000A889B9898C9186FD0FC00FB607FCF5CFBE
:1004D000808185FFF2CFA889B9898C9185FFEDCF06
:1004E000CE010E94ED01E7CFDF91CF91089580E02A
:1004F00090E0892B21F00E94E301811125C080E06A
:1005000090E0892B41F080E090E0892B21F00E945F
:10051000000081111CC080E090E0892B41F080E058
:1005200090E0892B21F00E940000811113C080E02F
:1005300090E0892BA1F080E090E0892B81F00E946F
:10054000000081110AC008950E940000D8CF0E94C7
:100550000000E1CF0E940000EACF0C940000089553
:10056000089580E090E008950E94C222EF92FF92E9
:100570000F931F93CF93DF93EC018881E82EF12C2A
:100580002C8130E0F901E256FD4F8491F901E85ADF
:10059000FD4F0491F901EE5EFD4F14911123A1F07E
:1005A00081110E946B18E12FF0E0EE0FFF1FEC5459
:1005B000FE4FA591B491EC91E02331E020E009F4E5
:1005C00030E0832F922F02C080E090E0E816F90619
:1005D00011F01A820FC08A818F5F8A839B818917ED
:1005E00048F0888191E0892788831A82882321F046
:1005F000998302C080E001C081E0DF91CF911F911B
:100600000F91FF90EF90089580E099E00E94B6026C
:100610008BEF98E00E94B60286EF98E00E94B60247
:1006200081EF98E00E94B6028CEE98E00E94B6023C
:1006300087EE98E00E94B60282EE98E00E94B60231
:100640008DED98E00E94B60288ED98E00E94B60217
:1006500083ED98E00C94B6021F920F920FB60F92A2
:1006600011240BB60F922F933F934F935F936F9389
:100670007F938F939F93AF93BF93EF93FF9384ECFC
:1006800097E00E94ED01FF91EF91BF91AF919F9193
:100690008F917F916F915F914F913F912F910F902B
:1006A0000BBE0F900FBE0F901F9018951F920F92C8
:1006B0000FB60F9211240BB60F922F938F939F9327
:1006C000EF93FF93E091D407F091D5078081E091FB
:1006D000DA07F091DB0782FD12C090818091DD077F
:1006E0008F5F8F732091DE07821751F0E091DD0755
:1006F000F0E0EC53F84F958F8093DD0701C08081C7
:10070000FF91EF919F918F912F910F900BBE0F90C2
:100710000FBE0F901F9018958FB7F89480918103AA
:100720008FBF089561E0FC0184810E94C11880910F
:10073000800381111092800308958EBD00000DB4D6
:1007400007FEFDCF8EB508958FEF0C949D030F9398
:100750001F93CF93DF93EB010E94271A8B010E9416
:10076000A4038F3F49F00E94271A601B710B6C177E
:100770007D07A8F380E001C081E0DF91CF911F9158
:100780000F910895CF93DF93EC018E81882389F038
:100790008F8198859C012F5F3F4F38872F83823050
:1007A000924018F40E94A403F3CFCE010E9492035A
:1007B0001E82DF91CF9108958CBD9DBD0895CF938A
:1007C000DF93EC0180918003811109C081E0809367
:1007D000800380916108909162080E94DC0360E0D0
:1007E0008C81DF91CF910C94C118CF92DF92FF9250
:1007F0000F931F93CF93DF9300D01F92CDB7DEB737
:100800006C01F62E29833A834B835C830E94C203DA
:10081000C6010E94DF036CE271E0C6010E94A703DB
:100820008F2D80640E949D0308E110E05C814B8164
:100830003A812981DA01C901002E04C0B695A79535
:10084000979587950A94D2F729833A834B835C83E3
:100850000E949D030850110929813A814B815C81D6
:10086000083F8FEF180731F7FF2029F0E8E0FE126C
:1008700004C087E803C085E901C08FEF0E949D0393
:1008800010E00E94A403F601828787FF04C01F3F87
:1008900011F01F5FF6CF0F900F900F900F90DF9128
:1008A000CF911F910F91FF90DF90CF900895AF925D
:1008B000BF92CF92DF92EF92FF920F931F93CF934D
:1008C000DF93EC016901C801820F931F81309240D0
:1008D00008F070C08E81882371F088819981AA8187
:1008E000BB81481759076A077B0729F48F819885D0
:1008F000C816D906B0F5488359836A837B838B85F4
:10090000833039F089E0440F551F661F771F8A95A1
:10091000D1F79A01AB0161E1CE010E94F503882372
:1009200019F083E08D8346C00E94271A5B010E9464
:10093000A4038A878F3F49F40E94271A6A197B090A
:100940006D327140A0F38FE003C08E3F31F08DE037
:100950008D83CE010E9492032DC018861F8281E0F4
:100960008E838F8198858C159D0540F40E94A40389
:100970008F819885019698878F83F3CF6701E00E6A
:10098000F11ECE14DF0431F00E94A403F60181931E
:100990006F01F7CF8F819885080F191F18870F8374
:1009A0008985882319F00115124048F0CE010E9474
:1009B000C20305C0CE010E94920380E001C081E025
:1009C000DF91CF911F910F91FF90EF90DF90CF902B
:1009D000BF90AF900895EF92FF920F931F93CF9324
:1009E000DF93EC017901411551056105710511F4A1
:1009F00082E13CC08B85833039F089E0440F551F7C
:100A0000661F771F8A95D1F79A01AB0168E1CE0185
:100A10000E94F503882311F084E028C08EEF0E9425
:100A20009D0387018EEFF81AF80181918F010E94D2
:100A30009D030E151F05C1F78FEF0E949D038FEFD9
:100A40000E949D030E94A4038A878F71853031F034
:100A500081E18D83CE010E94920309C068E572E0B6
:100A6000CE010E94A703811107C085E18D83CE01CD
:100A70000E94920380E013C020E030E0A9016DE005
:100A8000CE010E94F503811104C00E94A4038823B3
:100A900011F084E1EBCFCE010E94920381E0DF915F
:100AA000CF911F910F91FF90EF9008958091AE0527
:100AB0008823A9F140910B0250910C0260910D0224
:100AC00070910E022FEA35E080914E0990914F0906
:100AD0000E94EB04811102C080E0089540918203DE
:100AE00050918303609184037091850341155105F2
:100AF0006105710591F02FEA35E080914E099091E2
:100B00004F090E94EB04882339F31092820310925C
:100B1000830310928403109285031092AE0581E046
:100B200008958F929F92AF92BF92EF92FF920F9390
:100B30001F93CF934B015C01C42F80910B029091C6
:100B40000C02A0910D02B0910E0288159905AA051C
:100B5000BB0501F10E945605811102C080E020C052
:100B60008FEAE82E85E0F82E00E012E020E030E089
:100B7000B501A40180914E0990914F090E9457043C
:100B8000882361F380920B0290920C02A0920D02D6
:100B9000B0920E028091AE05C82BC093AE0581E0E5
:100BA000CF911F910F91FF90EF90BF90AF909F90CA
:100BB0008F9008954F925F926F927F928F929F9243
:100BC000AF92BF92CF92DF92EF92FF920F931F935B
:100BD000CF93DF93EC016A017B0128013901423098
:100BE00051056105710510F480E073C089859A850F
:100BF000AB85BC850196A11DB11D84179507A6077D
:100C0000B70790F38B889C88AD88BE888F89803128
:100C100029F4BB27AF2D9E2D8D2D09C0DB01CA0104
:100C200047E0B695A795979587954A95D1F7880E91
:100C3000991EAA1EBB1E80910B0290910C02A091DE
:100C40000D02B0910E0288169906AA06BB0679F429
:100C50008F898031A1F4DD24EE24FF24C601880FA2
:100C6000991FFC01E155FA4F5182408219C040E0C2
:100C7000C501B4010E9491058111EACFB5CFE89476
:100C8000C7F8DD24EE24FF24C601880F991F880FC2
:100C9000991FFC01E155FA4F4082518262827382B2
:100CA0008091AE0581608093AE058A89823080F0A4
:100CB0008D819E81AF81B885880E991EAA1EBB1EAC
:100CC0008092820390928303A0928403B092850362
:100CD00081E0DF91CF911F910F91FF90EF90DF9016
:100CE000CF90BF90AF909F908F907F906F905F90CC
:100CF0004F9008958F929F92AF92BF92CF92DF92C2
:100D0000EF92FF920F931F93CF93DF93FC018185A6
:100D10009285A385B4850196A11DB11D8417950701
:100D2000A607B70710F480E05CC083899489A58981
:100D3000B689C789C03129F4852E962EA72EBB24EB
:100D400009C04A015B01C7E0B694A79497948794C1
:100D5000CA95D1F7E9016A017B018F01BC01CD0180
:100D6000680D791D8A1D9B1D80900B0290900C02CE
:100D7000A0900D02B0900E02681579058A059B05BA
:100D800099F4F80187898031A9F4B701A6015527A4
:100D900066277727440F551FFA01E155FA4F8081E6
:100DA0009181A0E0B0E018C040E00E94910581115F
:100DB000E8CFB9CFB701A6014F7755276627772728
:100DC000440F551F440F551FFA01E155FA4F80811A
:100DD0009181A281B381BF7088839983AA83BB83E9
:100DE00081E0DF91CF911F910F91FF90EF90DF9005
:100DF000CF90BF90AF909F908F9008954F925F9249
:100E00006F927F92AF92BF92CF92DF92EF92FF925A
:100E10000F931F93CF93DF9300D01F92CDB7DEB710
:100E20008C0149835A836B837C835901C12CD12C5B
:100E30007601412C82E0582E612C712C49815A8117
:100E40006B817C819E012F5F3F4FC8010E947A0613
:100E5000882351F1D301C201F801058404C0880F31
:100E6000991FAA1FBB1F0A94D2F7C80ED91EEA1EEB
:100E7000FB1E49815A816B817C818789803129F0F1
:100E800088EF9FEFAFEFBFE004C088EF9FEFA0E0D7
:100E9000B0E0481759076A077B0780F2F501C08266
:100EA000D182E282F38281E00F900F900F900F9039
:100EB000DF91CF911F910F91FF90EF90DF90CF9036
:100EC000BF90AF907F906F905F904F9008958F92FA
:100ED0009F92AF92BF92CF92DF92EF92FF920F93C9
:100EE0001F93CF93DF93EC018D81811102C080E0CD
:100EF00077C00B891C892D893E89041715072607A1
:100F00003707A8F36A017B01823029F4CA86DB86A1
:100F1000EC86FD860DC0C114D104E104F10451F446
:100F20001E821F82188619861A861B861C861D86BD
:100F300081E056C08A849B84AC84BD84EB8DFC8D9B
:100F4000258530E0275F3F4FB501A401415051098D
:100F500061097109022E04C07695679557954795EA
:100F60000A94D2F7D701C6010197A109B10904C0BB
:100F7000B695A795979587952A95D2F784179507E3
:100F8000A607B70720F089288A288B2849F44F89BB
:100F9000588D698D7A8D4E835F836887798704C009
:100FA000841B950BA60BB70B4C015D018E010A5FEC
:100FB0001F4F81149104A104B10409F4A7CF4E81FD
:100FC0005F816885798598018B8D9C8D0E947A065A
:100FD00091E0891A9108A108B1088111EACF87CF61
:100FE000DF91CF911F910F91FF90EF90DF90CF9005
:100FF000BF90AF909F908F9008953F924F925F92D5
:101000006F927F928F929F92AF92BF92CF92DF9218
:10101000EF92FF920F931F93CF93DF93CDB7DEB77D
:101020002C970FB6F894DEBF0FBECDBF5C01DC017C
:101030005B968D909C905C971696CD90DD90ED9090
:10104000FC901997C114D104E104F10439F0BFEF09
:10105000CB1ADB0AEB0AFB0A312C07C0F401C08073
:10106000D180E280F38033243394F401818592852A
:10107000A385B4859C01AD012F5F3F4F4F4F5F4F5C
:1010800029873A874B875C87260137011D821E829C
:101090001F821886F40181859285A385B4852D81F0
:1010A0003E814F815885281739074A075B0708F0AA
:1010B00063C089859A85AB85BC858C159D05AE0579
:1010C000BF0550F482E0C82ED12CE12CF12C92E027
:1010D000492E512C612C712C9E012F5F3F4FB7017F
:1010E000A601C4010E947A06882309F445C08981BB
:1010F0009A81AB81BC81892B8A2B8B2B41F02601F5
:1011000037019FEF491A590A690A790A05C0C414C0
:10111000D504E604F70491F02D813E814F81588576
:101120002F5F3F4F4F4F5F4F2D833E834F83588735
:101130003FEFC31AD30AE30AF30AACCF0FEF1FEF56
:101140002FEF3FE0B301A201C4010E94DA0588231A
:1011500099F0D50116964D915D916D917C911997FD
:10116000411551056105710549F093018201C401E2
:101170000E94DA05811102C080E02AC0D5011696CE
:101180004D925D926D927C921997332051F0D3016C
:10119000C2010196A11DB11DF40180839183A28338
:1011A000B383F5018789908DA18DB28D892B8A2B10
:1011B0008B2B69F4D50157964D925D926D927C927E
:1011C0005A9714968C911497806814968C9381E0AA
:1011D0002C960FB6F894DEBF0FBECDBFDF91CF9136
:1011E0001F910F91FF90EF90DF90CF90BF90AF9045
:1011F0009F908F907F906F905F904F903F90089559
:101200002F923F924F925F926F927F928F929F9216
:10121000AF92BF92CF92DF92EF92FF920F931F9304
:10122000CF93DF93EC016B014A018D81811103C0E3
:101230008FEF9FEFD7C08C8180FFFACF4B885C88FF
:101240006D887E884A855B856C857D85C401A0E0BC
:10125000B0E093018201041B150B260B370B081716
:1012600019072A073B0718F44201841A950A54010A
:101270001E0126E0220E311CA114B10409F47EC027
:101280004A855B856C857D852A0181E05822ED8148
:101290008A019B0189E036952795179507958A95D0
:1012A000D1F78B8D9C8DE23061F4FC01828D938DA2
:1012B000A48DB58DBC01CD01600F711F821F931FDE
:1012C0003FC0FC0174807A94702241145104C9F427
:1012D000711017C0452B462B472B49F48F89988DE9
:1012E000A98DBA8D8E839F83A887B9870AC04E8146
:1012F0005F816885798591010E947A06882309F4C7
:1013000097CFEB8DFC8D8E819F81A885B985029743
:10131000A109B109058404C0880F991FAA1FBB1F2A
:101320000A94D2F74685578560897189840F951F85
:10133000A61FB71FBC01CD01670D711D811D911D39
:1013400020E032E02419350935012A153B0508F45F
:1013500039012C8126FD04C06114F2E07F0681F47E
:1013600000910B0210910C0220910D0230910E029F
:101370006017710782079307B1F402C0C40132C03D
:1013800040E00E949105882309F452CFF201E15513
:10139000FA4FD601CF01860D971DE817F90789F09E
:1013A00021912D93FACF760183019201AB01BC010B
:1013B00080914E0990914F090E945704882309F4A7
:1013C00037CFC60CD71C8A859B85AC85BD85860D1D
:1013D000971DA11DB11D8A879B87AC87BD87A61865
:1013E000B7084ACFDF91CF911F910F91FF90EF90F7
:1013F000DF90CF90BF90AF909F908F907F906F9035
:101400005F904F903F902F900895CF93DF931F925E
:10141000CDB7DEB741E050E0BE016F5F7F4F0E9465
:101420000009019719F4898190E002C08FEF9FEFC6
:101430000F90DF91CF910895CF93DF93EC018D81D1
:101440008823A1F18C8187FF2DC06E857F858889D7
:10145000998941E00E949105882341F1EA8980E25F
:10146000E89FF0011124DF01A155BA4F1097F1F068
:101470008D81823050F44B895C896D897E895C96C0
:101480004D935D936D937C935F978F89988DA98D14
:10149000BA8DE155FA4F938F828FB58BA48B8C81D7
:1014A0008F778C83DF91CF910C94560580E0DF918C
:1014B000CF910895CF93DF93EC010E941C0A8823FB
:1014C00011F01D8281E0DF91CF9108952F923F921C
:1014D0004F925F926F927F928F929F92AF92BF9244
:1014E000CF92DF92EF92FF920F931F93CF93DF93F0
:1014F00000D01F92CDB7DEB78C015B011A01DC0171
:1015000015968C9115978130C9F414968C9181FFB2
:1015100015C082FF1BC0F80143895489658976890B
:1015200082859385A485B58584179507A607B70797
:1015300069F0C8010E946707811108C081E090E04E
:10154000F8019383828380E090E039C1610183C018
:10155000D8015B968D919C915C97FC012481215070
:101560002A013B0139E076946794579447943A9561
:10157000D1F7722E74207A01F1E0FF22772009F46E
:1015800076C080E092E08E199F0946018C159D057A
:1015900008F44C01D8015B962D913C915C9716960E
:1015A0008D919D910D90BC91A02D0297A109B1093B
:1015B000F901058404C0880F991FAA1FBB1F0A9454
:1015C000D2F74685578560897189840F951FA61FBC
:1015D000B71F9C01AD01270D311D411D511D290172
:1015E0003A01811432E0930609F088C080910B0221
:1015F00090910C02A0910D02B0910E0284159505F8
:10160000A605B70559F48FEF9FEFDC0180930B021D
:1016100090930C02A0930D02B0930E029501B301BA
:10162000A20180914E0990914F090E94EB048823FA
:1016300009F484CF9EEFB91AC818D908F801828539
:101640009385A485B585880D991DA11DB11D82873F
:101650009387A487B587D8011A964D915D916D91B6
:101660007C911D97C114D10409F072CF87C0E11499
:10167000F10409F086CF16964D915D916D917C91A4
:101680001997411551056105710559F457968D91CA
:101690009D910D90BC91A02D0097A105B10541F53C
:1016A00021C09E012F5F3F4F0E947A06882309F4D4
:1016B0004BCF89819A81AB81BC81F801238D348D18
:1016C000F9012789203129F048EF5FEF6FEF7FE0C4
:1016D00004C048EF5FEF60E070E084179507A6074D
:1016E000B70730F0C8010E94FD0781114ACF26CF0D
:1016F000F80186839783A087B18743CFE114F10473
:1017000029F5D8011A964D915D916D917C911D97A7
:1017100053968D919D910D90BC91A02D481759071E
:101720006A077B0798F00E945605882309F406CFC4
:1017300040920B0250920C0260920D0270920E02C7
:101740008091AE0581608093AE0508C041E0C30181
:10175000B2010E949105882309F4F0CED501F7016A
:10176000E155FA4FCF01880D991DE817F90719F0D7
:101770002D912193FACFA80CB91C5ECF53968D9171
:101780009D910D90BC91A02D84179507A607B707D2
:1017900040F4F801438B548B658B768B8481806891
:1017A0008483D80114968C9183FD02C0C10107C0C7
:1017B000C8010E941C0A882309F4C0CEF7CF0F90FD
:1017C0000F900F900F90DF91CF911F910F91FF908D
:1017D000EF90DF90CF90BF90AF909F908F907F90D1
:1017E0006F905F904F903F902F900895CF93DF932D
:1017F0001F92CDB7DEB7698341E050E0BE016F5F55
:101800007F4F0E94660A0F90DF91CF9108951F923B
:101810000F920FB60F9211240BB60F928F939F93D6
:10182000AF93BF93CF93DF93EF93FF9380910A021F
:1018300086FD3AC08091B70790E0880F991FFC01A0
:10184000E259FD4FA081B181FC01EA59FD4FC081F1
:10185000D181E091AE038091AD039EEFE99FF0014D
:101860001124E80FF11DE155FC4F808190E0998330
:10187000888311969C938E938091AD038F5F8093A4
:10188000AD038091AD038E3FD0F01092AD03E09197
:10189000AE03F0E0E85FFD4F81E080839091AE03FE
:1018A00089278093AE030BC090917F0381E0892745
:1018B00080937F0380917F03882309F4BBCFFF913E
:1018C000EF91DF91CF91BF91AF919F918F910F9049
:1018D0000BBE0F900FBE0F901F9018951F920F9286
:1018E0000FB60F9211240BB60F922F933F934F9385
:1018F0005F936F937F938F939F93AF93BF93EF9378
:10190000FF93E091AE0381E0E827F0E0E85FFD4F50
:101910009081992309F468C09091AE038927809340
:101920007E03E091B707F0E0EE0FFF1FEA58FD4F8E
:101930000190F081E02D80818F7D8083789483E613
:1019400098E00E949C142091AB053091AC052817BB
:10195000390728F180910A0283FF07C06CE270E02A
:1019600080E090E00E94F41032C0E091B707F0E010
:10197000EE0FFF1FEA58FD4F0190F081E02D8081AE
:101980008E7D8083E0917C08F0917D08309721F076
:10199000858181110E9406111092AD0525C06091CC
:1019A0007E038EEF689FB001112461557C4F8091BA
:1019B0007C0890917D08009721F04EEF50E00E9446
:1019C0000009E0917E03F0E0E85FFD4F1082E091B6
:1019D000B707F0E0EE0FFF1FEA58FD4F0190F081CE
:1019E000E02D808180628083FF91EF91BF91AF9164
:1019F0009F918F917F916F915F914F913F912F9127
:101A00000F900BBE0F900FBE0F901F901895FC010A
:101A1000DB0112968D919C9113979383828384EEC0
:101A200092E09183808314968C9114978483159609
:101A30008C911597858316964D915D916D917C9152
:101A4000199746835783608771871A964D915D91E8
:101A50006D917C911D9742875387648775871E9689
:101A60004D915D916D917C91519746875787608B21
:101A7000718B52968C915297828B53964D915D91BA
:101A80006D917C915697438B548B658B768B5796D3
:101A90004D915D916D917C915A97478B508F618FDD
:101AA000728F5B968D919C915C97948F838F089534
:101AB0001F920F920FB60F9211240BB60F922F9315
:101AC0003F934F935F936F937F938F939F93AF93C6
:101AD000BF93EF93FF9380918C0390918D0380933C
:101AE000B20080918F0390919003A0919103B091E7
:101AF00092030196A11DB11D80938F0390939003D3
:101B0000A0939103B093920380918F0390919003DF
:101B1000A0919103B0919203409188035091890361
:101B200060918A0370918B0384179507A607B70706
:101B300010F180918E0381111EC081E080938E038D
:101B400080918F0390919003A0919103B0919203A3
:101B5000841B950BA60BB70B80938F039093900378
:101B6000A0939103B0939203E0918603F0918703D1
:101B7000199510928E03FF91EF91BF91AF919F91B4
:101B80008F917F916F915F914F913F912F910F9026
:101B90000BBE0F900FBE0F901F901895CF93FC01B6
:101BA000C48121E020932909C0937D031092540938
:101BB000109253098385682B88EB97E00E942915C2
:101BC00080915309813208F046C0909152099111D9
:101BD000FCCF92E09093520991E0909351099FEFCE
:101BE00090932A0910924C0980934B09A9E0B9E01F
:101BF0002BE239E0F9019E2F921B981718F49D9162
:101C00009193F9CF10924D0980914D09CC0FC82BBB
:101C1000C0934D0980915009813061F410925009B0
:101C200080914D098093BB008091BC0083FDF8CF6B
:101C300085EC01C085EE8093BC0080915209823012
:101C4000E1F380912A098F3F31F080912A09803297
:101C500011F080912A0910925409109253091092A0
:101C60002909CF9108950F931F93CF938C01C62F0D
:101C70000E94CE0D6C2F6460C8010E94CE0D6C2FA7
:101C80006B7FC8010E94CE0D83EC90E00197F1F7C5
:101C9000CF911F910F910895FF920F931F93CF93B0
:101CA000DF931F92CDB7DEB78C01F62E962F907F73
:101CB000692F642BC80149830E94330E80E1F89E8E
:101CC000B00111244981642BC8010F90DF91CF919D
:101CD0001F910F91FF900C94330E41E00E944C0E27
:101CE00081E090E00895109201091092FC08109292
:101CF000F7081092F2081092ED081092E80810927E
:101D0000E3081092DE081092D9081092D4080895C2
:101D100020910602309107023093010220930002C5
:101D200020910402309105023093030220930202B5
:101D3000209193033091940330937C0320937B0391
:101D40009093070280930602709305026093040249
:101D500050939403409393030E94271A609399032E
:101D600070939A0380939B0390939C0360939503D5
:101D70007093960380939703909398030E94730E39
:101D8000809106029091070225E0289FF001299F8B
:101D9000F00D11248091040290910502E80FF91FC3
:101DA000E75EFD4F80818F3F19F061E00E94C1180E
:101DB000809100029091010225E0289FF001299F67
:101DC000F00D11248091020290910302E80FF91F97
:101DD000E75EFD4F60E080810E94C11820910402FF
:101DE00030910502C9018B7F892B19F482E090E0C4
:101DF00014C080910602909107022230310539F417
:101E0000009711F00B9769F489E090E006C0009705
:101E100011F00B9731F483E090E090939E03809350
:101E20009D0308958091B70790E0880F991FFC01EA
:101E3000E057FD4F0190F081E02D2091B4073091E3
:101E4000B50731832083FC01E857FD4F0190F081F5
:101E5000E02D82E88083E091B707F0E0EE0FFF1FEE
:101E6000E058FD4F0190F081E02D89E180830895D5
:101E7000E0917C08F0917D08309729F085818823D6
:101E800011F081E008950895CF93DF93EC016A8B00
:101E900080910B0290910C02A0910D02B0910E0264
:101EA0008E879F87A88BB98B80E2689FF0011124F1
:101EB000E155FA4F4489558960E070E0BA01552731
:101EC00044274F8B588F698F7A8F828D938DA0E036
:101ED000B0E0482B592B6A2B7B2B4F8B588F698F87
:101EE0007A8F8385887151F4848D958DA68DB78DF9
:101EF0008B8B9C8BAD8BBE8B81E00EC0803111F043
:101F000080E015C09E012D5E3F4F8B8D9C8D0E9401
:101F1000FE068823A9F384E08D8381E08C831E82F2
:101F20001F82188619861A861B861C861D86DF91DD
:101F3000CF910895AF92BF92CF92DF92EF92FF922E
:101F40000F931F93CF93DF93CDB7DEB72B970FB6C9
:101F5000F894DEBF0FBECDBF7C01CE0101966C01AF
:101F6000FC0190E28BE08C0D91938E13FDCFDA0192
:101F700020E037E09D91992339F19E3219F0EEEC83
:101F8000F1E00AC03A3009F4AAC028E03AE0F2CF02
:101F90003196891709F4A3C084918111F9CF3217C2
:101FA00008F49DC08FED890F8E3508F098C081E050
:101FB000820FF601E20FF11D2FE9290F2A3108F4F3
:101FC00090529083282FD6CF8981803209F487C020
:101FD0008B01FB01838D948DF701948F838FFB011F
:101FE000168217821086118612861386148615862D
:101FF000A12CF80182859385A485B58543895489F0
:102000006589768984179507A607B70708F067C022
:1020100025E0B695A795979587952A95D1F7F82F3E
:10202000FF70BF2EF8018581823008F458C0C801C6
:102030000E94050A97FD53C0F80182859385A48507
:10204000B5854F96A11DB11D82879387A487B5875B
:10205000F0E2BF9EC0011124BC0161557A4F6115A9
:102060007105E9F1FB0120812223B9F1253EE1F060
:102070004BE050E0C6010E94C722892B09F0B9CF7E
:102080006B2DC7012B960FB6F894DEBF0FBECDBFE8
:10209000DF91CF911F910F91FF90EF90DF90CF9044
:1020A000BF90AF900C94440FA11014C0F701B28AF6
:1020B00040910B0250910C0260910D0270910E0242
:1020C00046875787608B718BFC01E155FA4F808101
:1020D000882329F0AA24A3948CCFAA2039F380E086
:1020E0002B960FB6F894DEBF0FBECDBFDF91CF9118
:1020F0001F910F91FF90EF90DF90CF90BF90AF9026
:102100000895CF93DF93CDB7DEB728970FB6F89435
:10211000DEBF0FBECDBF28E0E5E5F2E0DE0111969F
:1021200001900D922A95E1F72091CF08261710F41F
:102130006FEF620FFE013196E60FF11DE60FF11D04
:102140009081682F690F606840E087EC98E02896DE
:102150000FB6F894DEBF0FBECDBFDF91CF910C94C8
:102160004C0E8F929F92AF92BF920F931F93CF937B
:10217000DF93CDB7DEB7A1970FB6F894DEBF0FBEE1
:10218000CDBF19A2423008F44AE08E010F5D1F4F07
:10219000842E912CA12CB12CA50194010E945C21CC
:1021A000E62FB901CA0101501109EA3014F4E05DCB
:1021B00001C0E95CD801EC93232B242B252B61F77C
:1021C000B80187EC98E00E947D1AA1960FB6F894AA
:1021D000DEBF0FBECDBFDF91CF911F910F91BF909A
:1021E000AF909F908F90089520917C0830917D084A
:1021F0002115310541F0AB01BC01C9010E946707FF
:1022000091E0811101C090E0892F089580917C08B0
:1022100090917D08009761F00E945A0A80917C0895
:1022200090917D080E942A2210927D0810927C08CD
:1022300008951092AD05E091B707F0E0EE0FFF1F93
:10224000EA58FD4F0190F081E02D80818E7D8083E2
:102250000E94380F81110C94061108952F923F921D
:102260004F925F926F927F928F929F92AF92BF92A6
:10227000CF92DF92EF92FF920F931F93CF93DF9352
:10228000CDB7DEB7C457D1090FB6F894DEBF0FBE85
:10229000CDBF8C019091AF078091B607981709F4D4
:1022A000B1C01092AD05E091B707F0E0EE0FFF1F4F
:1022B000EA58FD4F0190F081E02D80818E7D808372
:1022C0000E94380F81110E9406112091B70730E05B
:1022D000220F331FF901E857FD4FA080B180D501CF
:1022E0008C9187FD20C080910A02806280930A024F
:1022F000F901E058FD4F0190F081E02D1082F501C9
:10230000108261E08091AF070E94F1188091AF07C1
:10231000863009F465C08E3209F466C0853009F054
:1023200065C081E05EC0F901E259FD4FE080F180B7
:10233000D7016D917C91CB01AB01F901EA59FD4FB9
:102340002F01D901A25ABD4F3D01E091B407F09190
:10235000B507DC01A61BB70BAE17BF0720F6D201ED
:10236000CD90DC9097FD06C0DC01E817F90720F45A
:10237000DF0102C0A0E0B0E0F601B183A08357FD09
:102380000AC0A091B407B091B507FA01A417B50728
:1023900020F4FD0102C0E0E0F0E0D7011196FC93CB
:1023A000EE93F30180809180A091B407B091B507BE
:1023B000FD01F297E596FFAFEEAFE597EAE0F0E0BA
:1023C000D401CD90DC90E596AEADBFADE597CA16D1
:1023D000DB06B0F33197A1F7415051090196B5CF13
:1023E00082E08093B70704C083E0FBCF1092B70769
:1023F0008DB581608DBD8CB58C7F8CBD8091AF0714
:102400008093B6070E9419115E01BEE1AB0EB11CAC
:1024100068EA78E0C5010E94070D1C821B8284EEE9
:1024200092E09A8389831E824801FE0131967F01E2
:1024300025013F016FE270E0C4010E94D4220097A1
:1024400009F441C0D4012C912F3221F4BFEF8B1A33
:102450009B0AF0CF88198D3008F08CE0C82ED12C63
:10246000A601B401CE01885A9F4F0E94DF22E8E501
:10247000F0E0EC0FFD1FEC0DFD1D1082C7010E9466
:102480005A0AF7018581882351F01EAE1DAE84EEF5
:1024900092E09CAF8BAF21961FAE21971CC0AE017E
:1024A000485A5F4FB201C7010E949A0F882369F30F
:1024B0008C0C9D1CC2010E945A0A942D852D270167
:1024C000E92EF82EB7CF1401201A310AB201CE013D
:1024D000CB960E94070D020D131DD8018C9181111E
:1024E00009C0BE01655C7F4FC3010E94070D47E72D
:1024F00053E03FC019A218A284EE92E09F8F8E8F06
:102500001BA221968FAD2197811116C06C961FAE2C
:102510001EAE6C9788EE93E0A0E0B0E0A0968CAF82
:102520009DAFAEAFBFAFA097E3961FAE1EAEE397D1
:10253000A5961FAEA59723C08250A801823040F413
:1025400068EA78E0C5010E949A0F81110DC0DECFC4
:10255000BE01655C7F4FC5010E949A0F8823B1F2CE
:10256000CE01CB960E945A0AB501C3010E94070D05
:10257000A801B301CE01885A9F4F0E9436186C966D
:102580008EAD9FAD6C979093660880936508A0967A
:102590008CAD9DADAEADBFADA09780936708909315
:1025A0006808A0936908B0936A08A4968CAD9DADA5
:1025B000AEADBFADA49780936B0890936C08A093C9
:1025C0006D08B0936E088DE0E8E5F0E0EC0FFD1FBC
:1025D0003C96AFE6B8E001900D928A95E1F7E3965C
:1025E0008EAD9FADE39790937D0880937C080E9409
:1025F000380F882309F454C168E070E080E090E06F
:102600000E94F41087E5898381E48A8386E58B83C1
:1026100085E48C83830154E0F52EF60C83E698E084
:102620000E948515F80121918F01022E000C330BB9
:102630008217930711F4FE12F1CF68E170E080E099
:1026400090E00E94F41083E698E00E948515909334
:10265000B3078093B20783E698E00E94851520E0D7
:1026600030E0382F8091B2079091B307822B932BE3
:102670009093B3078093B2076CE270E080E090E043
:102680000E94F4108EEF90E09093AC058093AB0520
:1026900081E08093AD05F0900A028F2D8F778093B3
:1026A0000A028091B2079091B3078B3F9F4A30F0A6
:1026B00080EC9DE59093B3078093B2072091B20719
:1026C0003091B30740E050E0F6FE05C060E075E3EE
:1026D0008CE090E004C060E07AE688E190E00E943F
:1026E0002A216AE0629FC001639F900D112490939C
:1026F000B5078093B40783E698E00E9485158C01A6
:1027000083E698E00E948F15800F911F97FD019638
:102710008C0115950795F5FC19C08F2D8F75809349
:102720000A02E091B707F0E0EE0FFF1FE259FD4FFC
:102730000190F081E02D20813181C801992728176F
:10274000390708F07EC040E050E038C08091B707FC
:1027500090E0880F991FFC01E259FD4F0190F08134
:10276000E02D11821082FC01EA59FD4FC080D1801A
:102770008091B4079091B507D60111969C938E93E2
:102780000E94120F20E030E063E572E08091B40710
:102790009091B5072817390708F0BFCFAC01421B4D
:1027A000530B8417950708F4AC01F601518340835D
:1027B000CB010197F1F72F5F3F4FE8CFB9016F5F72
:1027C0007F4F6217730728F09B018617970708F45D
:1027D0009C01FA01E155FC4F20834F5F5F4F4E3F54
:1027E000510561F740E050E0B9016F5F7F4F62171C
:1027F000730728F09B018617970708F49C01FA01DC
:10280000E355FB4F20834F5F5F4F4E3F510561F70C
:102810001092AE0310920802109209021092AD03BA
:10282000F8940E94120FE091B707F0E0EE0FFF1F3F
:10283000EA58FD4F0190F081E02D81E28083789489
:102840002FC040E050E0B901615071096817790765
:1028500028F06217730718F49B0101C09C01FA016C
:10286000E155FC4F20834F5F5F4F4E3F510559F7B5
:1028700040E050E0B901615071096817790728F00C
:102880006217730718F49B0101C09C01FA01E3551C
:10289000FB4F20834F5F5F4F4E3F510559F7B8CF35
:1028A000CC58DF4F0FB6F894DEBF0FBECDBFDF911F
:1028B000CF911F910F91FF90EF90DF90CF90BF903D
:1028C000AF909F908F907F906F905F904F903F90D0
:1028D0002F90089585ED8093BC008091BC0084FD0D
:1028E000FCCF10925209089540917709262F30E0CD
:1028F000240F311D21323105DCF42091520924309E
:10290000C9F4FC0180E090E0861758F43091770913
:102910002191DC01AB5AB64FA30FB11D2C93019648
:10292000F3CF80917709680F6093770980E008956D
:1029300081E0089582E00895DC015996ED91FC91C3
:102940005A973097B9F083899489A589B6894285C9
:10295000538564857585841B950BA60BB70B811574
:1029600020E89207A105B10538F08FEF9FE7A0E0BE
:10297000B0E0089580E090E00895CF93DF931F9238
:10298000CDB7DEB76983DC01ED91FC910280F38164
:10299000E02D41E050E0BE016F5F7F4F19950F9031
:1029A000DF91CF910895089581E090E030919D09E5
:1029B00020919C09321710F480E090E09195819568
:1029C0009109089580919D0990919C09891730F48F
:1029D0008F5F80939D0980E090E008958FEF9FEFD7
:1029E000089580919C0990E020919D09821B910996
:1029F0000895CF92DF92EF92FF920F931F93CF93A0
:102A0000DF937C01262F972F8A0180912909882343
:102A100091F0C62FD72F6E01C40ED51ECC15DD0543
:102A200071F06991D701ED91FC910190F081E02D59
:102A3000C7011995F3CF642F822F0E947414C80127
:102A4000DF91CF911F910F91FF90EF90DF90CF908A
:102A50000895CF93DF931F92CDB7DEB7698320919E
:102A600029092223D1F020915309203240F021E09E
:102A700030E0FC013383228380E090E015C0809138
:102A80005409E82FF0E0E75FF64F998190838F5F5C
:102A9000809354098093530905C061E0CE010196EB
:102AA0000E94741481E090E00F90DF91CF9108951F
:102AB0003FB7F8948091050990910609A091070904
:102AC000B091080926B5A89B05C02F3F19F00196C3
:102AD000A11DB11D3FBFBA2FA92F982F8827820FA4
:102AE000911DA11DB11DBC01CD0142E0660F771FF4
:102AF000881F991F4A95D1F70895FC01818D928D09
:102B0000009711F00C941C0A0895FC01818D928DA0
:102B1000009711F00C94050A8FEF9FEF08950F9323
:102B20001F93CF93DF93FC01818D928D0097B9F0B5
:102B3000EF010E94050A8C010F3F8FEF180791F0FB
:102B4000898D9A8DFC014285538564857585415038
:102B50005109610971090E946707C80105C080E039
:102B600090E002C08FEF9FEFDF91CF911F910F9107
:102B70000895CF93DF93EC01898D9A8D009739F4F6
:102B800081E090E09B838A8380E090E00BC0FC01B1
:102B9000138212820E94660AE98DFA8D22813381A6
:102BA000232B71F7DF91CF9108958F929F92AF926F
:102BB000BF92CF92DF92EF92FF92CF93DF93C82F15
:102BC0008EE798E090934F0980934E09CC2369F1EA
:102BD000C53010F080E00DC140E060E070E0CB0156
:102BE0000E9491058823B1F320E1C29FC001112406
:102BF00081569A4FFC01E254FE4F20812F7751F706
:102C00003C96408151816281738144365105610552
:102C1000710500F33497C080D180E280F380C11445
:102C2000D104E104F10421F4D5CFC12CD12C7601DB
:102C300040E0C701B6010E949105882359F28091B6
:102C4000BA059091BB058115924021F6A091BF0570
:102C5000AA2309F4BFCF6091BD057091BE0561152F
:102C6000710509F4B7CF2091BC05222309F4B2CF36
:102C7000A0939C0820938E0880E030E0E1E0F0E033
:102C8000C82FAF01082E02C0440F551F0A94E2F767
:102C90002417350741F0982F8F5F983089F789E026
:102CA0008093970897CF809397082091C50530911E
:102CB000C6052115310519F040E050E008C020910B
:102CC000D3053091D4054091D5055091D605209378
:102CD0008F083093900840939108509392084601D2
:102CE0005701860E971EA11CB11C80929D089092E0
:102CF0009E08A0929F08B092A008E091C005F091B4
:102D0000C105F093A308E093A208B0E00E94492116
:102D1000860E971EA81EB91E8092A4089092A50840
:102D2000A092A608B092A70885E0EE0FFF1F8A9533
:102D3000E1F7E150FE4FEF2FFF27E6958E0E9F1E25
:102D4000A11CB11C8092980890929908A0929A08B0
:102D5000B0929B082091C2053091C3052115310521
:102D600021F0A90160E070E008C04091CF055091CA
:102D7000D0056091D1057091D205D701C60188199F
:102D80009909AA09BB09840F951FA61FB71F04C084
:102D9000B695A79597958795CA95D2F7809393088E
:102DA00090939408A0939508B0939608853F2FE0E0
:102DB0009207A105B10510F48CE018C0853F9F4F24
:102DC000A105B10510F480E111C08091DB0590915F
:102DD000DC05A091DD05B091DE058093A4089093F9
:102DE000A508A093A608B093A70880E28093A10845
:102DF00081E0DF91CF91FF90EF90DF90CF90BF9077
:102E0000AF909F908F9008951F920F920FB60F92E0
:102E100011240BB60F922F933F934F935F936F93B1
:102E20007F938F939F93AF93BF93EF93FF93809183
:102E3000B900887F803609F49CC068F5883209F4AF
:102E40005BC090F4803109F454C038F4882309F44D
:102E5000F6C0883009F44DC0F6C0883109F44CC082
:102E6000803209F45DC0EFC0803409F468C048F4D2
:102E7000803309F455C0883309F0E5C080932A09EE
:102E8000D8C0803509F44FC0883509F45DC0883456
:102E900009F0D9C0D6C0883909F4C7C0A8F488376A
:102EA00009F467C038F4883609F463C0803709F440
:102EB00060C0C9C0883809F4B8C0803909F45FC05F
:102EC000803809F0C0C05BC0803B09F486C038F48C
:102ED000803A09F466C0883A09F47FC0B4C0803CE7
:102EE00009F4A7C0883C09F4A4C0883B09F48AC04F
:102EF000AAC080914D0910C090914C0980914B0956
:102F0000981770F5E0914C0981E08E0F80934C0981
:102F1000F0E0E55DF64F80818093BB0085EC86C0D4
:102F200080932A098EC0E0914C0981E08E0F809336
:102F30004C098091BB00F0E0E55DF64F80839091F5
:102F40004C0980914B096EC0E0914C0981E08E0FD5
:102F500080934C098091BB00F0E0E55DF64F8083E3
:102F60008091510981116DC081E08093500984EAFC
:102F700061C083E08093520910929B09CFCF80916A
:102F80009B09803208F051C0E0919B0981E08E0FCF
:102F900080939B098091BB00F0E0E558F64F808359
:102FA000BDCF85EC8093BC001092520980919B09A3
:102FB000803230F4E0919B09F0E0E558F64F108242
:102FC00060919B0970E0E0917909F0917A098BE7B3
:102FD00099E0199510929B0936C084E080935209BC
:102FE0001092780910927709E0917509F0917609AD
:102FF000199580917709811105C081E08093770947
:1030000010925509E091780981E08E0F809378093C
:10301000F0E0EB5AF64F80818093BB0090917809E5
:1030200080917709981708F479CF85E88093BC00E0
:103030000AC085EC8093BC001092520904C0109223
:103040002A090E946A14FF91EF91BF91AF919F915D
:103050008F917F916F915F914F913F912F910F9041
:103060000BBE0F900FBE0F901F901895EF92FF921E
:103070000F931F93CF93DF93EC017B018A011B8297
:103080001A8288EE93E0A0E0B0E08C839D83AE834B
:10309000BF8380EC92E0998388838DE190E00E9469
:1030A00095219A8F898F009779F02DE1F701DC0146
:1030B00001900D922A95E1F74CE050E0B801CE0165
:1030C0000C960E94DF22188EDF91CF911F910F91F5
:1030D000FF90EF90089590E0FC013197E231F10507
:1030E00008F04EC08827EE58FF4F8F4F0C948D216B
:1030F000809180008F7703C0809180008F7D8093C6
:103100008000089580918000877FF9CF84B58F7704
:1031100002C084B58F7D84BD08958091B0008F7703
:1031200003C08091B0008F7D8093B000089580919E
:1031300090008F7707C0809190008F7D03C08091B1
:103140009000877F8093900008958091A0008F77F2
:1031500007C08091A0008F7D03C08091A000877F71
:103160008093A0000895809120018F7707C08091FF
:1031700020018F7D03C080912001877F80932001F3
:1031800008951F93CF93DF93282F30E0F901E25683
:10319000FD4F8491F901E85AFD4FD491F901EE5E9B
:1031A000FD4FC491CC23C9F0162F81110E946B18DA
:1031B000EC2FF0E0EE0FFF1FE850FE4FA591B49109
:1031C0008FB7F894111105C09C91ED2FE095E9237C
:1031D00002C0EC91ED2BEC938FBFDF91CF911F914B
:1031E0000895CF93DF9390E0FC01E85AFD4F2491BE
:1031F000FC01EE5EFD4F8491882361F190E0880F21
:10320000991FFC01E252FE4FC591D491FC01E85098
:10321000FE4FA591B491611109C09FB7F8948881C0
:10322000209582238883EC912E230BC0623061F4B9
:103230009FB7F8943881822F809583238883EC91FF
:103240002E2B2C939FBF06C08FB7F894E8812E2BAE
:1032500028838FBFDF91CF9108958F929F92AF9275
:10326000BF92CF92DF92EF92FF926B017C010E949E
:1032700058154B015C01C114D104E104F104F1F0D3
:103280000E945815DC01CB0188199909AA09BB09CC
:10329000883E9340A105B10570F321E0C21AD10820
:1032A000E108F10888EE880E83E0981EA11CB11C8D
:1032B000C114D104E104F10419F7DDCFFF90EF90C0
:1032C000DF90CF90BF90AF909F908F900895CF9355
:1032D000DF9310929D0910929C091092540910924C
:1032E00053091092520981E08093510910925009BC
:1032F00061E084E10E94C11861E085E10E94C1188B
:103300008091B9008E7F8093B9008091B9008D7F44
:103310008093B90088E48093B80085E48093BC0072
:103320001092CC088091D108823018F098E09093E8
:10333000CC088093CF0862E370E080E090E00E94C8
:103340002D196091D20887EC98E00E94CE0D68EEAE
:1033500073E080E090E00E942D1960E387EC98E034
:103360000E94330ECBE4D6E4CE010197F1F760E37F
:1033700087EC98E00E94330E2197F1F760E387EC29
:1033800098E00E94330E83E592E00197F1F760E246
:1033900087EC98E00E94330E6091CC08606240E0B8
:1033A00087EC98E00E944C0E84E08093CD0840E0CA
:1033B0006CE087EC98E00E944C0E40E061E087EC06
:1033C00098E00E944C0ECBE3DFE1CE010197F1F7CC
:1033D00082E08093CE0840E066E087EC98E00E94AF
:1033E0004C0E40E062E087EC98E00E944C0E219782
:1033F000F1F7DF91CF910895CF92DF92EF92FF9294
:103400000F931F93CF93DF936C017A018B01C0E080
:10341000D0E0CE15DF0589F0D8016D918D01D60180
:10342000ED91FC910190F081E02DC6011995892B59
:1034300011F47E0102C02196ECCFC701DF91CF913C
:103440001F910F91FF90EF90DF90CF9008952FB7CD
:10345000F89460919F097091A0098091A1099091C1
:10346000A2092FBF08951F920F920FB60F92112439
:103470002F933F938F939F93AF93BF9380919F0917
:103480009091A009A091A109B091A20930919E0943
:1034900023E0230F2D3720F40196A11DB11D05C097
:1034A00026E8230F0296A11DB11D20939E0980934B
:1034B0009F099093A009A093A109B093A2098091BC
:1034C000050990910609A0910709B0910809019694
:1034D000A11DB11D8093050990930609A0930709CA
:1034E000B0930809BF91AF919F918F913F912F9118
:1034F0000F900FBE0F901F9018956115710579F010
:10350000FB0101900020E9F73197AF01461B570BF3
:10351000DC01ED91FC910280F381E02D199480E0B3
:1035200090E00895CF93DF9300D01F92CDB7DEB720
:10353000789484B5826084BD84B5816084BD85B58E
:10354000826085BD85B5816085BD80916E0081609A
:1035500080936E0010928100809181008260809340
:103560008100809181008160809381008091800042
:103570008160809380008091B10084608093B1006D
:103580008091B00081608093B00080919100826052
:10359000809391008091910081608093910080914F
:1035A00090008160809390008091A1008260809360
:1035B000A1008091A10081608093A1008091A00072
:1035C00081608093A000809121018260809321011D
:1035D000809121018160809321018091200181608F
:1035E0008093200180917A00846080937A0080919A
:1035F0007A00826080937A0080917A008160809363
:103600007A0080917A00806880937A001092C100DD
:1036100082E090E0A0E0B0E080938803909389037B
:10362000A0938A03B0938B0384E093E09093870385
:1036300080938603809170008E7F809370008091CC
:10364000B0008C7F8093B0008091B100877F809321
:10365000B1008091B6008F7D8093B600809170009C
:103660008D7F809370008091B10084608093B10061
:103670008091B1008C7F8093B10086E090E09093C0
:103680008D0380938C0310928F03109290031092FD
:1036900091031092920310928E0380918C0390916B
:1036A0008D038093B20080917000816080937000E0
:1036B0000E94271A6093990370939A0380939B0347
:1036C00090939C0360939503709396038093970364
:1036D0009093980380917B00886080937B0086E4C0
:1036E00080937C0080917A00806480937A0080913E
:1036F0007A0086FDFCCF609178008091790070E0BF
:10370000782B072E000C880B990B6115710581052C
:10371000910511F00E9421210E94671988E0809391
:10372000D20860E087EC98E00E94CE0D16E161E0DF
:10373000812F0E94F1181F5F1E32C9F712E061E06D
:10374000812F0E94F1181F5F1E30C9F78EE280930F
:10375000AF07E091D407F091D50782E08083E09134
:10376000D007F091D1071082E091D207F091D307F2
:103770008FEC80831092DC07E091D807F091D90795
:1037800086E08083E091D607F091D7078081806141
:103790008083E091D607F091D7078081886080838D
:1037A000E091D607F091D707808180688083E0910F
:1037B000D607F091D70780818F7D8083109289088A
:1037C00010928708109284081092830885E38093F2
:1037D00082080E94271A5B0161E0809182080E94A2
:1037E000F11861E0809182080E94C1181FB7F89417
:1037F00080919F03811127C0E7E4F2E08491EDE816
:10380000F2E09491E82FF0E0EE0FFF1FE252FE4F3E
:10381000A591B491EC91E92321F461E085E30E9444
:10382000C11861E085E30E94F1188CB580618CBD00
:103830008CB580648CBD61E084E30E94F11861E086
:1038400083E30E94F11880919F038F5F80939F0311
:103850001FBF82E580936108109262088091610821
:10386000909162080E94DC031AE08FEF0E949D0392
:103870001150D9F78EE798E00E94DF0320E030E096
:10388000A90160E08EE798E00E94F503182F80936D
:103890008808813049F00E94271A6A197B09613D26
:1038A000774060F381E054C02AEA31E040E050E024
:1038B00068E08EE798E00E94F50382FF03C0109352
:1038C00089080EC014E00E94A40380938808115058
:1038D000D1F78A3A11F082E03BC082E080938908F8
:1038E00080918908823021F0C12CD12C760105C04D
:1038F000C12CD12CE12C60E4F62E20E030E0A901AF
:1039000067E38EE798E00E94F503A701960169E25C
:103910008EE798E00E94F50380938808882349F099
:103920000E94271A6A197B09613D774030F388E0CD
:103930000FC080918908823001F520E030E0A901B4
:103940006AE38EE798E00E94F503882341F086E061
:10395000809383088EE798E00E9492038FC00E94B4
:10396000A403807C803C19F483E0809389080E9442
:10397000A4030E94A4030E94A4038EE798E00E947F
:10398000920380E5809361081092620881E00E94B2
:10399000D515882329F08091AD08882341F06EC0A9
:1039A00080E00E94D515882309F468C0F4CF809187
:1039B000A108803109F582E08093AD081092BF081C
:1039C0001092C0081092C1081092C2088091A208FB
:1039D0009091A308A0E0B0E055E0880F991FAA1FBE
:1039E000BB1F5A95D1F78093BB089093BC08A09356
:1039F000BD08B093BE081EC0803209F03FC083E00E
:103A00008093AD084091A4085091A5086091A60844
:103A10007091A7084093BF085093C0086093C108F5
:103A20007093C2082BEB38E08AE898E00E94FE060B
:103A3000882321F18AE898E09093C4088093C30812
:103A400081E08093AC081092AE081092AF081092FB
:103A5000B0081092B1081092B2081092B3081092F8
:103A6000B4081092B5081092B6081092B7081092D8
:103A7000B8081092B9081092BA080CC064E073E05C
:103A800084EC97E00E947D1A6CE073E084EC97E090
:103A90000E947D1A11E034E0232E312C48EE442E92
:103AA00043E0542E612C712C80919D0390919E03D4
:103AB0008130910509F4E8C024F4892B09F457C03A
:103AC00007C08230910509F449C1099709F4CBC1B7
:103AD00002E061E082E00E9481100E94271AA301A7
:103AE00092010E945C21CA01B9014AE00E94B11012
:103AF00061E0802F0E94C11868EE73E080E090E0E2
:103B00000E942D1960E0802F0E94C11868EE73E0BA
:103B100080E090E00E942D190F5F0E30D1F606E193
:103B200061E082E00E9481100E94271AA3019201A5
:103B30000E945C21CA01B9014AE00E94B11061E013
:103B4000802F0E94C11868EE73E080E090E00E9430
:103B50002D1960E0802F0E94C11868EE73E080E0AC
:103B600090E00E942D190F5F0E32D1F6D3C18FEF76
:103B70009FEF90939E0380939D030E9467198FE0AF
:103B800093E00E942E110E941D2124E833E040E0C2
:103B900050E00E942A219B01AC012C593F4F4F4F0E
:103BA0005F4F29833A834B835C83C12CD12C7601F0
:103BB00089819A818C0D9D1D18161906ACF502E0BD
:103BC00061E0802F0E94C1180F5F0E30C9F7898015
:103BD0009A80AB80BC808C0C9D1CAE1CBF1CC501A8
:103BE000B4010E942D1902E060E0802F0E94C118EC
:103BF0000F5F0E30C9F7C501B4010E942D198091E5
:103C00000109882309F489C18091E808882309F40F
:103C100084C160E080E00E9481106BE673E087EC75
:103C200098E00E947D1A76C10E94191185E493E004
:103C30000E942E1180910109882389F060E080E0C4
:103C40000E94811062E273E087EC98E00E947D1A86
:103C5000E1E0F0E0F0939E03E0939D033DC180918D
:103C6000E808882339F360E080E00E9481106BE36C
:103C700073E087EC98E00E947D1A21E030E03093F9
:103C80009E0320939D033EC10E94271A60939903CF
:103C900070939A0380939B0390939C032091A403B9
:103CA000C0909503D0909603E0909703F09098030E
:103CB000DC01CB018C199D09AE09BF0921110AC095
:103CC000883B9B40A105B10540F130929E032092B4
:103CD0009D0320C18C329140A105B105F0F06091A7
:103CE0000402709105022091060230910702409172
:103CF000930350919403660F771F80910202909175
:103D00000302681B790BC901880F991F20910002DB
:103D100030910102821B930BFBC08091F20881114C
:103D20002CC18091D908811128C18091F708811197
:103D300038C18091DE08811134C18091FC08811165
:103D400044C18091E308811140C18091ED08811147
:103D50004FC18091D40881114BC1DCC00E94271A49
:103D60006093990370939A0380939B0390939C03B1
:103D700060939503709396038093970390939803B1
:103D80000E94730E1092A40381E090E090939E0332
:103D900080939D03409193035091940320910402DA
:103DA0003091050280910602909107024130510541
:103DB00069F5232B89F49C01215031092330310509
:103DC00028F44FEF5FEF61E070E010C004974FEF11
:103DD0005FEF61E070E012C09C0121503109233097
:103DE000310538F44FEF5FEF63E070E082E090E080
:103DF0008FC004974FEF5FEF63E070E0039718F414
:103E000084E090E085C088E090E082C0232B89F4B4
:103E10009C01285031092330310528F441E050E05D
:103E200061E070E010C0059741E050E061E070E0B3
:103E300012C09C01285031092330310538F441E08B
:103E400050E064E070E089E090E062C0059741E0F6
:103E500050E064E070E0039718F487E090E058C009
:103E600083E090E055C00E94271A609399037093F5
:103E70009A0380939B0390939C03609395037093A4
:103E8000960380939703909398030E94191185E4F9
:103E900093E00E942E111092A403E1E0F0E0F09371
:103EA0009E03E0939D0360E080E00E94811080917A
:103EB000060290910702892BB1F48091A0039091A2
:103EC000A10301969093A1038093A00361E573E0A1
:103ED00087EC98E00E947D1A41E050E062E070E0DB
:103EE00085E090E015C08091A2039091A303019614
:103EF0009093A3038093A2036DE573E087EC98E0B1
:103F00000E947D1A4FEF5FEF62E070E086E090E084
:103F10000E94880E0E947702C7CD8091E80888230E
:103F200089F060E080E00E94811067E173E087EC37
:103F300098E00E947D1A41E050E050939E03409328
:103F40009D03CCCF8091010954E6C51AD108E10840
:103F5000F108882309F42CCE60E080E00E948110F3
:103F60006EE273E087EC98E00E947D1A81E090E0B9
:103F700090939E0380939D03C5CF8091930390916E
:103F80009403609104027091050220910602309121
:103F90000702AC01820F931F0E94880E1093A403A6
:103FA000C4CE2091930330919403609104027091E8
:103FB00005028091060290910702A901821B930BD2
:103FC0000E94880E1093A403B8CE409193035091A1
:103FD00094036091040270910502640F751F809133
:103FE0000602909107020E94880E1093A403ADCEA2
:103FF00040919303509194036091040270910502E3
:10400000641B750B80910602909107020E94880E36
:104010001093A4037FCFCF93E8EBF7E013821282D3
:1040200088EE93E0A0E0B0E084839583A683B78315
:104030002CE932E031832083E4ECF7E01382128232
:1040400084839583A683B7832EEA32E0318320836D
:1040500025EC30E03587248724EC30E0378726874D
:1040600020EC30E0318B208B21EC30E0338B228B45
:1040700022EC30E0358B248B26EC30E0378B268B1E
:10408000118E128E138E148EE1E6F8E020E5208367
:104090001182E3E6F8E01382128284839583A6837B
:1040A000B78380EC92E091838083128E118E148608
:1040B000EEE7F8E0158216821186138682E090E022
:1040C000A0E0B0E084879587A687B78713A215A6DE
:1040D00014A684EE92E093A782A717A6E0E0F9E089
:1040E00086E38483CFE0C38362E00E94F118EBEFA4
:1040F000F8E087E38483C38362E00E94F118E6EF6F
:10410000F8E088E38483C38362E00E94F118E1EF62
:10411000F8E089E38483C38362E00E94F118ECEE47
:10412000F8E08AE38483C38362E00E94F118E7EE3B
:10413000F8E08BE38483C38362E00E94F118E2EE2F
:10414000F8E08CE38483C38362E00E94F118EDED14
:10415000F8E08DE38483C38362E00E94F118E8ED08
:10416000F8E08EE38483C38362E00E94F118E3EDFC
:10417000F8E08FE38483C38362E00E94F118E7ECE8
:10418000F8E01382128280EF92E09183808387E2CD
:10419000848380E1818782E082871386CF910895AE
:1041A0008F929F92AF92BF92CF92DF92EF92FF9247
:1041B000CF93DF93EC01688179818A819B816115BE
:1041C00071058105910521F464E279ED8BE597E0B5
:1041D0002DE133EF41E050E00E942A2149015A01CC
:1041E0009B01AC01A7EAB1E40E9449216B017C016B
:1041F000ACEEB4EFA50194010E945721DC01CB0184
:104200008C0D9D1DAE1DBF1DB7FF03C00197A109F9
:10421000B04888839983AA83BB83BC01CD019F7773
:10422000DF91CF91FF90EF90DF90CF90BF90AF9054
:104230009F908F9008950C94D0208FE092E00C9482
:10424000D02060930F02709310028093110290931C
:1042500012020895052E97FB1EF400940E9441213E
:1042600057FD07D00E945C2107FC03D04EF40C944C
:10427000412150954095309521953F4F4F4F5F4FCD
:10428000089590958095709561957F4F8F4F9F4FC2
:1042900008950E947E21A59F900DB49F900DA49F2C
:1042A000800D911D11240895B7FF0C9449210E949F
:1042B0004921821B930B0895A1E21A2EAA1BBB1B56
:1042C000FD010DC0AA1FBB1FEE1FFF1FA217B307E2
:1042D000E407F50720F0A21BB30BE40BF50B661FF8
:1042E000771F881F991F1A9469F7609570958095BC
:1042F00090959B01AC01BD01CF010895A29FB00133
:10430000B39FC001A39F700D811D1124911DB29F09
:10431000700D811D1124911D0895EE0FFF1F881F40
:104320008BBF0790F691E02D1994CF93DF938230E5
:10433000910510F482E090E0E091A509F091A609C2
:1043400020E030E0C0E0D0E0309711F140815181B1
:1043500048175907C0F04817590761F482819381C3
:10436000209719F09B838A832BC09093A609809392
:10437000A50926C02115310519F04217530718F475
:104380009A01BE01DF01EF010280F381E02DDCCF55
:104390002115310509F1281B390B2430310590F422
:1043A00012968D919C9113976115710521F0FB0177
:1043B0009383828304C09093A6098093A509FD018D
:1043C000329644C0FD01E20FF31F81939193225076
:1043D00031092D933C933AC02091A3093091A4094F
:1043E000232B41F420911502309116023093A40939
:1043F0002093A30920911302309114022115310555
:1044000041F42DB73EB74091170250911802241B7A
:10441000350BE091A309F091A409E217F307A0F48A
:104420002E1B3F0B2817390778F0AC014E5F5F4F0A
:104430002417350748F04E0F5F1F5093A40940938F
:10444000A3098193919302C0E0E0F0E0CF01DF91F6
:10445000CF9108950F931F93CF93DF93009709F4A3
:104460008CC0FC013297138212820091A509109131
:10447000A6090115110581F420813181820F931F56
:104480002091A3093091A4092817390779F5F093F1
:10449000A409E093A30971C0D80140E050E0AE1731
:1044A000BF0750F412962D913C911397AD01211541
:1044B000310509F1D901F3CF9D01DA01338322835C
:1044C00060817181860F971F8217930769F4EC0151
:1044D00028813981260F371F2E5F3F4F318320837C
:1044E0008A819B8193838283452B29F4F093A609CB
:1044F000E093A50942C01396FC93EE931297ED0149
:10450000499159919E01240F351FE217F30771F469
:1045100080819181840F951F029611969C938E93B2
:104520008281938113969C938E931297E0E0F0E042
:10453000D80112968D919C911397009719F0F8016C
:104540008C01F6CF8D919C9198012E5F3F4F820F89
:10455000931F2091A3093091A4092817390769F402
:10456000309729F41092A6091092A50902C013826F
:1045700012821093A4090093A309DF91CF911F9198
:104580000F91089581E090E0F8940C94EE22FB01E5
:10459000DC0104C08D910190801921F441505040FC
:1045A000C8F7881B990B0895FC018191861721F0AB
:1045B0008823D9F7992708953197CF010895FB01F2
:1045C000DC014150504048F001900D920020C9F7A5
:1045D00001C01D9241505040E0F70895F894FFCF7C
:1045E000FFFFFFFFFFFFFFFF010160FFFFFFFF0174
:1045F0000000000000A7098000FFFF27FFFFFF0168
:104600002303FFFF19251DFFFF1A241CFFFF1B2298
:104610001EFFFFFF2AFFFFFFFF2CFFFFFF172B1FCF
:10462000FFFF162621FFFF182D20FFFF022904FFA0
:10463000FFFF28FFFF00004000140054000084002A
:104640009400A4002401AB03A903A703A5038800D9
:104650009800A80028016F0071007200730000002C
:1046600081009100A100210180009000A0002001A4
:1046700086009600A6002601000000002915F91406
:10468000B102D314F114E214D414000000000E029D
:10469000FC19A6015502D701B501C90100000000AF
:1046A000BD14B915B1027D159C1485158F15000038
:1046B0000000B402FC19B102B002B402B402B402A8
:1046C00000000000F60BFC19B102B002000000006F
:1046D0006D0EFC19B102B00200000000B402FC191A
:1046E000B102B0025344206661696C000D0A006F8C
:1046F0006C652E7761760052656473206661696C23
:10470000210A477265656E732077696E21004772D2
:1047100065656E73206661696C210A526564732059
:1047200077696E210077686973746C652E7761769E
:1047300000526564732073636F7265210047726570
:10474000656E732073636F7265210043726F7373BC
:0A475000206661696C21002F000053
:00000001FF
