:100000000C9474010C94A5010C94A5010C94A50109
:100010000C94A5010C94A5010C94A5010C94A501C8
:100020000C94A5010C94A5010C94A5010C94A501B8
:100030000C94A5010C94821A0C94A5010C94590DF2
:100040000C946F0C0C94A5010C94A5010C94A501C3
:100050000C94080C0C94A5010C94A5010C94381A6E
:100060000C94A5010C9457030C942D030C94A5013A
:100070000C94A5010C94A5010C94A5010C946F0C93
:100080000C94A5010C94A5010C94A5010C94080CEA
:100090000C94A5010C94A5010C94A5010C945F147B
:1000A0000C94A5010C946F0C0C94A5010C94A50163
:1000B0000C94A5010C94080C0C946F0C0C94A501E5
:1000C0000C94A5010C94A5010C94080C0C94A501AA
:1000D0000C94A5010C94A5010C94A5010C94A50108
:1000E0000C94A5014B194E193D1941194719851951
:1000F000521956195C19601964196A196E19721926
:10010000851978197C1980190C94B2020C943D0F52
:100110000C9456190C9464190C94B5020C94C017E5
:100120000C94F4170C9452190C9447220C94D80197
:100130000C94D7170C9480180C94CA010C940503E6
:100140000C941C0F0C9472190C946A190C944C1892
:100150000C949C180C9456180C944B190C94211860
:100160000C94CC180C94F70B0C94B1020C948519D8
:100170000C9456020C944E190C94D6170C940F0242
:100180000C946E0E0C9441190C947C190C947819F3
:100190000C943D190C945C190C946E190C94601914
:1001A0000C9447190C9480190C94A7010C94E51732
:1001B0000C94B601000020002300260029002C002A
:1001C0002F003200000100000301060109017C3C00
:1001D0003E5E2B3D3F2F5B5D3B2C2A225C000200E4
:1001E000002100240027002A002D003000330001E8
:1001F000010000040107010A010000220025002877
:10020000002B002E0031003400020100000501081F
:10021000010B01050505050705080808080202028B
:10022000020A0A0808040404040101010101010191
:10023000010303030303030303040707070C0C0C68
:100240000C0C0C0C0C020202020606060606060640
:10025000060B0B0B0B0B0B0B0B01021020200808DD
:100260001020401020408002010201080402010118
:100270000204081020408080402010080402018001
:100280000402018040201008040201080402010158
:100290000204081020408001020408102040800061
:1002A000000A0B02090C0D0E0807030401000000F0
:1002B000000000000000000000000000000000003E
:1002C00000000000000000000000001211100000FB
:1002D000000000000000000000000000000000001E
:1002E000000000000000472211241FBECFEFD1E222
:1002F000DEBFCDBF00E00CBF13E0A0E0B2E0E8E558
:10030000FAE400E00BBF02C007900D92AE3EB107C9
:10031000D9F72AE0AEEEB3E001C01D92AD33B207CB
:10032000E1F711E0C4E7D1E000E006C02197010940
:10033000802FFE010E94C923C337D10780E0080740
:10034000A9F70E94361B0C942A250C940000FC018E
:10035000538D448D252F30E0842F90E0821B930B2A
:10036000541710F0CF96089501970895FC01918DD0
:10037000828D981761F0828DDF01A80FB11D5D9607
:100380008C91928D9F5F9F73928F90E008958FEF75
:100390009FEF0895FC01918D828D981731F0828D29
:1003A000E80FF11D858D90E008958FEF9FEF089580
:1003B000FC01918D228D892F90E0805C9F4F821BE4
:1003C00091098F739927089587EC98E00E94D801CE
:1003D00021E0892B09F420E0822F0895FC01848D0F
:1003E000DF01A80FB11DA35ABF4F2C91848D90E05F
:1003F00001968F739927848FA689B7892C93A0893A
:10040000B1898C9180648C93938D848D981306C0F0
:100410000288F389E02D80818F7D80830895EF929B
:10042000FF920F931F93CF93DF93EC0181E0888FAE
:100430009B8D8C8D981305C0E889F989808185FD95
:1004400024C0F62E0B8D10E00F5F1F4F0F73112786
:10045000E02E8C8DE8120CC00FB607FCFACFE889AD
:10046000F989808185FFF5CFCE010E94EE01F1CFA1
:100470008B8DFE01E80FF11DE35AFF4FF0820B8FC9
:10048000EA89FB898081806207C0EE89FF896083E9
:10049000E889F98980818064808381E090E0DF9140
:1004A000CF911F910F91FF90EF900895CF93DF931D
:1004B000EC01888D8823C9F0EA89FB89808185FD5C
:1004C00005C0A889B9898C9186FD0FC00FB607FCBD
:1004D000F5CF808185FFF2CFA889B9898C9185FFFE
:1004E000EDCFCE010E94EE01E7CFDF91CF910895CD
:1004F00080E090E0892B21F00E94E401811125C069
:1005000080E090E0892B41F080E090E0892B21F0A1
:100510000E94000081111CC080E090E0892B41F016
:1005200080E090E0892B21F00E940000811113C02F
:1005300080E090E0892BA1F080E090E0892B81F0B1
:100540000E94000081110AC008950E940000D8CFC7
:100550000E940000E1CF0E940000EACF0C9400004E
:100560000895089580E090E008950E94FE24EF929F
:10057000FF920F931F93CF93DF93EC018881E82EB6
:10058000F12C2C8130E0F901E156FD4F8491F90105
:10059000E75AFD4F0491F901ED5EFD4F14911123CF
:1005A000A1F081110E943019E12FF0E0EE0FFF1F42
:1005B000EC54FE4FA591B491EC91E02331E020E0A2
:1005C00009F430E0832F922F02C080E090E0E8161B
:1005D000F90611F01A820FC08A818F5F8A839B818E
:1005E000891748F0888191E0892788831A828823B7
:1005F00021F0998302C080E001C081E0DF91CF91BA
:100600001F910F91FF90EF90089583E09AE00E9470
:10061000B7028EEF99E00E94B70289EF99E00E943D
:10062000B70284EF99E00E94B7028FEE99E00E9432
:10063000B7028AEE99E00E94B70285EE99E00E9427
:10064000B70280EE99E00E94B7028BED99E00E941C
:10065000B70286ED99E00C94B7021F920F920FB685
:100660000F9211240BB60F922F933F934F935F93EA
:100670006F937F938F939F93AF93BF93EF93FF936A
:1006800087EC98E00E94EE01FF91EF91BF91AF914E
:100690009F918F917F916F915F914F913F912F919A
:1006A0000F900BBE0F900FBE0F901F9018951F92CA
:1006B0000F920FB60F9211240BB60F922F938F93B8
:1006C0009F93EF93FF93E091D708F091D808808132
:1006D000E091DD08F091DE0882FD12C090818091EA
:1006E000E0088F5F8F732091E108821751F0E0914D
:1006F000E008F0E0E953F74F958F8093E00801C0E0
:100700008081FF91EF919F918F912F910F900BBE60
:100710000F900FBE0F901F9018958FB7F89480918F
:10072000F5038FBF089561E0FC0184810E94861962
:100730008091F40381111092F40308958EBD00009E
:100740000DB407FEFDCF8EB508958FEF0C949E0378
:100750000F931F93CF93DF93EB010E942C1A8B0111
:100760000E94A5038F3F49F00E942C1A601B710B59
:100770006C177D07A8F380E001C081E0DF91CF9185
:100780001F910F910895CF93DF93EC018E81882301
:1007900089F08F8198859C012F5F3F4F38872F8389
:1007A0008230924018F40E94A503F3CFCE010E943C
:1007B00093031E82DF91CF9108958CBD9DBD089556
:1007C000CF93DF93EC018091F403811109C081E0A4
:1007D0008093F40380916409909165090E94DD0380
:1007E00060E08C81DF91CF910C948619CF92DF92DB
:1007F000FF920F931F93CF93DF9300D01F92CDB73B
:10080000DEB76C01F62E29833A834B835C830E940A
:10081000C303C6010E94E0036CE271E0C6010E94BE
:10082000A8038F2D80640E949E0308E110E05C8184
:100830004B813A812981DA01C901002E04C0B695A5
:10084000A795979587950A94D2F729833A834B8386
:100850005C830E949E030850110929813A814B81D3
:100860005C81083F8FEF180731F7FF2029F0E8E09F
:10087000FE1204C087E803C085E901C08FEF0E9423
:100880009E0310E00E94A503F601828787FF04C043
:100890001F3F11F01F5FF6CF0F900F900F900F903A
:1008A000DF91CF911F910F91FF90DF90CF9008952E
:1008B000AF92BF92CF92DF92EF92FF920F931F936E
:1008C000CF93DF93EC016901C801820F931F813040
:1008D000924008F070C08E81882371F088819981E0
:1008E000AA81BB81481759076A077B0729F48F81C2
:1008F0009885C816D906B0F5488359836A837B83E7
:100900008B85833039F089E0440F551F661F771FB0
:100910008A95D1F79A01AB0161E1CE010E94F603FD
:10092000882319F083E08D8346C00E942C1A5B0156
:100930000E94A5038A878F3F49F40E942C1A6A19E6
:100940007B096D327140A0F38FE003C08E3F31F020
:100950008DE08D83CE010E9493032DC018861F82E7
:1009600081E08E838F8198858C159D0540F40E94CF
:10097000A5038F819885019698878F83F3CF6701B0
:10098000E00EF11ECE14DF0431F00E94A503F60143
:1009900081936F01F7CF8F819885080F191F1887F2
:1009A0000F838985882319F00115124048F0CE0184
:1009B0000E94C30305C0CE010E94930380E001C0E2
:1009C00081E0DF91CF911F910F91FF90EF90DF9029
:1009D000CF90BF90AF900895EF92FF920F931F9327
:1009E000CF93DF93EC017901411551056105710544
:1009F00011F482E13CC08B85833039F089E0440FEB
:100A0000551F661F771F8A95D1F79A01AB0168E1E0
:100A1000CE010E94F603882311F084E028C08EEFF7
:100A20000E949E0387018EEFF81AF80181918F01D1
:100A30000E949E030E151F05C1F78FEF0E949E03B3
:100A40008FEF0E949E030E94A5038A878F718530D5
:100A500031F081E18D83CE010E94930309C068E5E6
:100A600072E0CE010E94A803811107C085E18D8349
:100A7000CE010E94930380E013C020E030E0A90182
:100A80006DE0CE010E94F603811104C00E94A5030F
:100A9000882311F084E1EBCFCE010E94930381E023
:100AA000DF91CF911F910F91FF90EF90089580916A
:100AB000B1068823A9F140910B0250910C0260917C
:100AC0000D0270910E0222EB36E08091600490914D
:100AD00061040E94EC04811102C080E008954091FD
:100AE000F6035091F7036091F8037091F9034115F3
:100AF00051056105710591F022EB36E080916004AB
:100B0000909161040E94EC04882339F31092F6035B
:100B10001092F7031092F8031092F9031092B106A5
:100B200081E008958F929F92AF92BF92EF92FF92D1
:100B30000F931F93CF934B015C01C42F80910B0245
:100B400090910C02A0910D02B0910E0288159905AA
:100B5000AA05BB0501F10E945705811102C080E082
:100B600020C082EBE82E86E0F82E00E012E020E0C4
:100B700030E0B501A40180916004909161040E946D
:100B80005804882361F380920B0290920C02A09289
:100B90000D02B0920E028091B106C82BC093B1062F
:100BA00081E0CF911F910F91FF90EF90BF90AF9098
:100BB0009F908F9008954F925F926F927F928F9245
:100BC0009F92AF92BF92CF92DF92EF92FF920F93DC
:100BD0001F93CF93DF93EC016A017B012801390158
:100BE000423051056105710510F480E073C08985BC
:100BF0009A85AB85BC850196A11DB11D841795070B
:100C0000A607B70790F38B889C88AD88BE888F892C
:100C1000803129F4BB27AF2D9E2D8D2D09C0DB011E
:100C2000CA0147E0B695A795979587954A95D1F75C
:100C3000880E991EAA1EBB1E80910B0290910C0279
:100C4000A0910D02B0910E0288169906AA06BB0665
:100C500079F48F898031A1F4DD24EE24FF24C601CC
:100C6000880F991FFC01EE54F94F5182408219C040
:100C700040E0C501B4010E9492058111EACFB5CFD1
:100C8000E894C7F8DD24EE24FF24C601880F991FDD
:100C9000880F991FFC01EE54F94F40825182628205
:100CA00073828091B10681608093B1068A89823017
:100CB00080F08D819E81AF81B885880E991EAA1E15
:100CC000BB1E8092F6039092F703A092F803B092B5
:100CD000F90381E0DF91CF911F910F91FF90EF9089
:100CE000DF90CF90BF90AF909F908F907F906F904C
:100CF0005F904F9008958F929F92AF92BF92CF9244
:100D0000DF92EF92FF920F931F93CF93DF93FC013B
:100D100081859285A385B4850196A11DB11D841797
:100D20009507A607B70710F480E05CC08389948913
:100D3000A589B689C789C03129F4852E962EA72E9C
:100D4000BB2409C04A015B01C7E0B694A7949794FD
:100D50008794CA95D1F7E9016A017B018F01BC0133
:100D6000CD01680D791D8A1D9B1D80900B0290900E
:100D70000C02A0900D02B0900E02681579058A054C
:100D80009B0599F4F80187898031A9F4B701A60180
:100D9000552766277727440F551FFA01EE54F94F60
:100DA00080819181A0E0B0E018C040E00E949205EF
:100DB0008111E8CFB9CFB701A6014F775527662734
:100DC0007727440F551F440F551FFA01EE54F94F72
:100DD00080819181A281B381BF7088839983AA8326
:100DE000BB8381E0DF91CF911F910F91FF90EF9036
:100DF000DF90CF90BF90AF909F908F9008954F92CB
:100E00005F926F927F92AF92BF92CF92DF92EF92FA
:100E1000FF920F931F93CF93DF9300D01F92CDB714
:100E2000DEB78C0149835A836B837C835901C12CC3
:100E3000D12C7601412C82E0582E612C712C4981F5
:100E40005A816B817C819E012F5F3F4FC8010E94B8
:100E50007B06882351F1D301C201F801058404C047
:100E6000880F991FAA1FBB1F0A94D2F7C80ED91E5C
:100E7000EA1EFB1E49815A816B817C818789803102
:100E800029F088EF9FEFAFEFBFE004C088EF9FEF3E
:100E9000A0E0B0E0481759076A077B0780F2F50128
:100EA000C082D182E282F38281E00F900F900F9096
:100EB0000F90DF91CF911F910F91FF90EF90DF90F6
:100EC000CF90BF90AF907F906F905F904F900895BC
:100ED0008F929F92AF92BF92CF92DF92EF92FF924A
:100EE0000F931F93CF93DF93EC018D81811102C08B
:100EF00080E077C00B891C892D893E89041715076E
:100F000026073707A8F36A017B01823029F4CA86D5
:100F1000DB86EC86FD860DC0C114D104E104F1042A
:100F200051F41E821F82188619861A861B861C861B
:100F30001D8681E056C08A849B84AC84BD84EB8D81
:100F4000FC8D258530E0275F3F4FB501A40141505E
:100F5000510961097109022E04C07695679557956C
:100F600047950A94D2F7D701C6010197A109B109A3
:100F700004C0B695A795979587952A95D2F78417BB
:100F80009507A607B70720F089288A288B2849F4F7
:100F90004F89588D698D7A8D4E835F8368877987F5
:100FA00004C0841B950BA60BB70B4C015D018E0191
:100FB0000A5F1F4F81149104A104B10409F4A7CF63
:100FC0004E815F816885798598018B8D9C8D0E940B
:100FD0007B0691E0891A9108A108B1088111EACF36
:100FE00087CFDF91CF911F910F91FF90EF90DF900E
:100FF000CF90BF90AF909F908F9008953F924F9267
:101000005F926F927F928F929F92AF92BF92CF9298
:10101000DF92EF92FF920F931F93CF93DF93CDB7A1
:10102000DEB72C970FB6F894DEBF0FBECDBF5C01C4
:10103000DC015B968D909C905C971696CD90DD9030
:10104000ED90FC901997C114D104E104F10439F03A
:10105000BFEFCB1ADB0AEB0AFB0A312C07C0F40105
:10106000C080D180E280F38033243394F401818501
:101070009285A385B4859C01AD012F5F3F4F4F4FF3
:101080005F4F29873A874B875C87260137011D828E
:101090001E821F821886F40181859285A385B485FE
:1010A0002D813E814F815885281739074A075B07F4
:1010B00008F063C089859A85AB85BC858C159D0534
:1010C000AE05BF0550F482E0C82ED12CE12CF12CE6
:1010D00092E0492E512C612C712C9E012F5F3F4FC5
:1010E000B701A601C4010E947B06882309F445C00C
:1010F00089819A81AB81BC81892B8A2B8B2B41F012
:10110000260137019FEF491A590A690A790A05C071
:10111000C414D504E604F70491F02D813E814F817B
:1011200058852F5F3F4F4F4F5F4F2D833E834F8337
:1011300058873FEFC31AD30AE30AF30AACCF0FEF85
:101140001FEF2FEF3FE0B301A201C4010E94DB05B6
:10115000882399F0D50116964D915D916D917C9102
:101160001997411551056105710549F093018201F7
:10117000C4010E94DB05811102C080E02AC0D501B4
:1011800016964D925D926D927C921997332051F094
:10119000D301C2010196A11DB11DF4018083918389
:1011A000A283B383F5018789908DA18DB28D892BA0
:1011B0008A2B8B2B69F4D50157964D925D926D92D7
:1011C0007C925A9714968C911497806814968C93FD
:1011D00081E02C960FB6F894DEBF0FBECDBFDF9135
:1011E000CF911F910F91FF90EF90DF90CF90BF9024
:1011F000AF909F908F907F906F905F904F903F90B7
:1012000008952F923F924F925F926F927F928F92AA
:101210009F92AF92BF92CF92DF92EF92FF920F9385
:101220001F93CF93DF93EC016B014A018D818111F4
:1012300003C08FEF9FEFD7C08C8180FFFACF4B8820
:101240005C886D887E884A855B856C857D85C40158
:10125000A0E0B0E093018201041B150B260B370BB5
:10126000081719072A073B0718F44201841A950A40
:1012700054011E0126E0220E311CA114B10409F410
:101280007EC04A855B856C857D852A0181E0582278
:10129000ED818A019B0189E0369527951795079581
:1012A0008A95D1F78B8D9C8DE23061F4FC01828DA3
:1012B000938DA48DB58DBC01CD01600F711F821F70
:1012C000931F3FC0FC0174807A9470224114510432
:1012D000C9F4711017C0452B462B472B49F48F8951
:1012E000988DA98DBA8D8E839F83A887B9870AC0F0
:1012F0004E815F816885798591010E947B068823F4
:1013000009F497CFEB8DFC8D8E819F81A885B985DF
:101310000297A109B109058404C0880F991FAA1F6B
:10132000BB1F0A94D2F74685578560897189840F5F
:10133000951FA61FB71FBC01CD01670D711D811D33
:10134000911D20E032E02419350935012A153B05AD
:1013500008F439012C8126FD04C06114F2E07F06F7
:1013600081F400910B0210910C0220910D0230913A
:101370000E026017710782079307B1F402C0C4011F
:1013800032C040E00E949205882309F452CFF20156
:10139000EE54F94FD601CF01860D971DE817F907D6
:1013A00089F021912D93FACF760183019201AB014F
:1013B000BC0180916004909161040E9458048823CC
:1013C00009F437CFC60CD71C8A859B85AC85BD85B3
:1013D000860D971DA11DB11D8A879B87AC87BD8790
:1013E000A618B7084ACFDF91CF911F910F91FF90B8
:1013F000EF90DF90CF90BF90AF909F908F907F90B5
:101400006F905F904F903F902F900895CF93DF9310
:101410001F92CDB7DEB741E050E0BE016F5F7F4F56
:101420000E940109019719F4898190E002C08FEFB1
:101430009FEF0F90DF91CF910895CF93DF93EC0151
:101440008D818823A1F18C8187FF2DC06E857F85DA
:101450008889998941E00E949205882341F1EA89AF
:1014600080E2E89FF0011124DF01AE54B94F1097DC
:10147000F1F08D81823050F44B895C896D897E89D1
:101480005C964D935D936D937C935F978F89988D58
:10149000A98DBA8DEE54F94F938F828FB58BA48BA3
:1014A0008C818F778C83DF91CF910C94570580E0EE
:1014B000DF91CF910895CF93DF93EC010E941D0A35
:1014C000882311F01D8281E0DF91CF9108952F9242
:1014D0003F924F925F926F927F928F929F92AF92C4
:1014E000BF92CF92DF92EF92FF920F931F93CF9311
:1014F000DF9300D01F92CDB7DEB78C015B011A01DC
:10150000DC0115968C9115978130C9F414968C9155
:1015100081FF15C082FF1BC0F8014389548965898A
:10152000768982859385A485B58584179507A60756
:10153000B70769F0C8010E946807811108C081E0FF
:1015400090E0F8019383828380E090E039C16101EB
:1015500083C0D8015B968D919C915C97FC0124819E
:1015600021502A013B0139E07694679457944794BF
:101570003A95D1F7722E74207A01F1E0FF2277209C
:1015800009F476C080E092E08E199F0946018C151F
:101590009D0508F44C01D8015B962D913C915C9718
:1015A00016968D919D910D90BC91A02D0297A10949
:1015B000B109F901058404C0880F991FAA1FBB1F38
:1015C0000A94D2F74685578560897189840F951FE3
:1015D000A61FB71F9C01AD01270D311D411D511DD7
:1015E00029013A01811432E0930609F088C0809104
:1015F0000B0290910C02A0910D02B0910E02841585
:101600009505A605B70559F48FEF9FEFDC01809390
:101610000B0290930C02A0930D02B0930E02950161
:10162000B301A20180916004909161040E94EC04D6
:10163000882309F484CF9EEFB91AC818D908F80195
:1016400082859385A485B585880D991DA11DB11D41
:1016500082879387A487B587D8011A964D915D91AB
:101660006D917C911D97C114D10409F072CF87C090
:10167000E114F10409F086CF16964D915D916D91BC
:101680007C911997411551056105710559F45796DB
:101690008D919D910D90BC91A02D0097A105B10554
:1016A00041F521C09E012F5F3F4F0E947B0688239A
:1016B00009F44BCF89819A81AB81BC81F801238DDC
:1016C000348DF9012789203129F048EF5FEF6FEF62
:1016D0007FE004C048EF5FEF60E070E0841795079B
:1016E000A607B70730F0C8010E94FE0781114ACF54
:1016F00026CFF80186839783A087B18743CFE11473
:10170000F10429F5D8011A964D915D916D917C9166
:101710001D9753968D919D910D90BC91A02D4817CA
:1017200059076A077B0798F00E945705882309F438
:1017300006CF40920B0250920C0260920D02709202
:101740000E028091B10681608093B10608C041E02D
:10175000C301B2010E949205882309F4F0CED5019D
:10176000F701EE54F94FCF01880D991DE817F907DD
:1017700019F02D912193FACFA80CB91C5ECF539686
:101780008D919D910D90BC91A02D84179507A60772
:10179000B70740F4F801438B548B658B768B8481BB
:1017A00080688483D80114968C9183FD02C0C101A6
:1017B00007C0C8010E941D0A882309F4C0CEF7CFD4
:1017C0000F900F900F900F90DF91CF911F910F917D
:1017D000FF90EF90DF90CF90BF90AF909F908F9051
:1017E0007F906F905F904F903F902F900895CF9390
:1017F000DF931F92CDB7DEB7698341E050E0BE01B1
:101800006F5F7F4F0E94670A0F90DF91CF9108951D
:101810001F920F920FB60F9211240BB60F928F9357
:101820009F93AF93BF93CF93DF93EF93FF938091F9
:101830000A0286FD3AC08091BA0890E0880F991F8D
:10184000FC01ED55FD4FA081B181FC01E556FD4F36
:10185000C081D181E0916A04809169049EEFE99F83
:10186000F0011124E80FF11DE559FB4F808190E054
:101870009983888311969C938E93809169048F5FDE
:1018800080936904809169048E3FD0F010926904BE
:10189000E0916A04F0E0E85FFD4F81E08083909181
:1018A0006A04892780936A040BC09091F30381E056
:1018B00089278093F3038091F303882309F4BBCF36
:1018C000FF91EF91DF91CF91BF91AF919F918F9158
:1018D0000F900BBE0F900FBE0F901F9018951F9288
:1018E0000F920FB60F9211240BB60F922F933F93C6
:1018F0004F935F936F937F938F939F93AF93BF9318
:10190000EF93FF93E0916A0481E0E827F0E0E85F5D
:10191000FD4F9081992309F468C090916A0489274A
:101920008093F203E091BA08F0E0EE0FFF1FE55557
:10193000FD4F0190F081E02D80818F7D8083789430
:1019400086E699E00E941C0F209167063091680698
:101950002817390728F180910A0283FF07C06CE23B
:1019600070E080E090E00E94821632C0E091BA08F8
:10197000F0E0EE0FFF1FE555FD4F0190F081E02DE7
:1019800080818E7D8083E0917F09F091800930977E
:1019900021F0858181110E94AD171092690625C042
:1019A0006091F2038EEF689FB001112465597B4F5F
:1019B00080917F0990918009009721F04EEF50E0CF
:1019C0000E940109E091F203F0E0E85FFD4F108210
:1019D000E091BA08F0E0EE0FFF1FE555FD4F0190D2
:1019E000F081E02D808180628083FF91EF91BF9133
:1019F000AF919F918F917F916F915F914F913F91A7
:101A00002F910F900BBE0F900FBE0F901F90189547
:101A1000FC01DB0112968D919C9113979383828335
:101A200081E293E09183808314968C911497848350
:101A300015968C911597858316964D915D916D91B4
:101A40007C91199746835783608771871A964D91C9
:101A50005D916D917C911D9742875387648775874F
:101A60001E964D915D916D917C9151974687578758
:101A7000608B718B52968C915297828B53964D91BD
:101A80005D916D917C915697438B548B658B768BD2
:101A900057964D915D916D917C915A97478B508FE0
:101AA000618F728F5B968D919C915C97948F838FE1
:101AB00008951F920F920FB60F9211240BB60F923A
:101AC0002F933F934F935F936F937F938F939F9346
:101AD000AF93BF93EF93FF93809100049091010423
:101AE0008093B2008091030490910404A0910504B6
:101AF000B09106040196A11DB11D8093030490933B
:101B00000404A0930504B09306048091030490910B
:101B10000404A0910504B09106044091FC03509187
:101B2000FD036091FE037091FF0384179507A607DC
:101B3000B70710F18091020481111EC081E08093EB
:101B400002048091030490910404A0910504B091D3
:101B50000604841B950BA60BB70B8093030490938C
:101B60000404A0930504B0930604E091FA03F091F5
:101B7000FB03199510920204FF91EF91BF91AF9171
:101B80009F918F917F916F915F914F913F912F9195
:101B90000F900BBE0F900FBE0F901F901895CF9314
:101BA000FC01C48121E020932F0AC093F10310921D
:101BB0006604109265048385682B8BEB98E00E9485
:101BC000CC1880916504813208F046C0909164047D
:101BD0009111FCCF92E09093640491E090936304A0
:101BE0009FEF90933C0410925E0480935D04AFE0FD
:101BF000BAE02DE334E0F9019E2F921B981718F4F8
:101C00009D919193F9CF10925F0480915F04CC0F66
:101C1000C82BC0935F0480916204813061F41092FC
:101C2000620480915F048093BB008091BC0083FDBF
:101C3000F8CF85EC01C085EE8093BC0080916404F0
:101C40008230E1F380913C048F3F31F080913C047D
:101C5000803211F080913C04109266041092650469
:101C600010922F0ACF9108950F931F93CF938C0159
:101C7000C62F0E94CF0D6C2F6460C8010E94CF0D4B
:101C80006C2F6B7FC8010E94CF0D83EC90E0019711
:101C9000F1F7CF911F910F910895FF920F931F932A
:101CA000CF93DF931F92CDB7DEB78C01F62E962F20
:101CB000907F692F642BC80149830E94340E80E114
:101CC000F89EB00111244981642BC8010F90DF9167
:101CD000CF911F910F91FF900C94340E41E00E9420
:101CE0004D0E81E090E008951092040A1092FF09D1
:101CF0001092FA091092F5091092F0091092EB096E
:101D00001092E6091092E1091092DC091092D709AD
:101D1000089520910602309107023093010220932A
:101D200000022091040230910502309303022093B7
:101D3000020220910704309108043093F0032093AD
:101D4000EF0390930702809306027093050260935D
:101D5000040250930804409307040E942C1A6093D5
:101D60000D0470930E0480930F04909310046093FD
:101D7000090470930A0480930B0490930C040E944E
:101D8000740E809106029091070225E0289FF001D1
:101D9000299FF00D11248091040290910502E80F13
:101DA000F91FEE0FFF1FE65EFD4F808191818F3F8F
:101DB0002FEF920719F061E00E94861980910002CE
:101DC0009091010225E0289FF001299FF00D112438
:101DD0008091020290910302E80FF91FEE0FFF1F9E
:101DE000E65EFD4F60E080810E94861980910402CA
:101DF000909105029C012B7F232B19F482E090E047
:101E00000CC0029771F4809106029091070200972E
:101E100011F00B9731F489E090E0909312048093D5
:101E20001104089585ED8093BC008091BC0084FD71
:101E3000FCCF109264040895DC015996ED91FC9159
:101E40005A973097B9F083899489A589B6894285D4
:101E5000538564857585841B950BA60BB70B81157F
:101E600020E89207A105B10538F08FEF9FE7A0E0C9
:101E7000B0E0089580E090E00895FC01818D928D9E
:101E8000009711F00C941D0A08952F923F924F92E3
:101E90005F926F927F928F929F92AF92BF92CF92FA
:101EA000DF92EF92FF920F931F93CF93DF93CDB703
:101EB000DEB7C457D1090FB6F894DEBF0FBECDBF51
:101EC0008C019091B2088091B908981709F4B1C0BB
:101ED00010926906E091BA08F0E0EE0FFF1FE55599
:101EE000FD4F0190F081E02D80818E7D80830E94E6
:101EF000BA1681110E94AD172091BA0830E0220F66
:101F0000331FF901EB53FD4FA080B180D5018C91B7
:101F100087FD20C080910A02806280930A02F90145
:101F2000E354FD4F0190F081E02D1082F501108205
:101F300061E08091B2080E94B6198091B2088630A3
:101F400009F465C08E3209F466C0853009F065C0B9
:101F500081E05EC0F901ED55FD4FE080F180D701D1
:101F60006D917C91CB01AB01F901E556FD4F2F013D
:101F7000D901AD56BD4F3D01E091B708F091B808C9
:101F8000DC01A61BB70BAE17BF0720F6D201CD9020
:101F9000DC9097FD06C0DC01E817F90720F4DF01AB
:101FA00002C0A0E0B0E0F601B183A08357FD0AC0F3
:101FB000A091B708B091B808FA01A417B50720F4AA
:101FC000FD0102C0E0E0F0E0D7011196FC93EE9332
:101FD000F30180809180A091B708B091B808FD010D
:101FE000F297E596FFAFEEAFE597EAE0F0E0D401B7
:101FF000CD90DC90E596AEADBFADE597CA16DB0699
:10200000B0F33197A1F7415051090196B5CF82E065
:102010008093BA0804C083E0FBCF1092BA088DB554
:1020200081608DBD8CB58C7F8CBD8091B208809312
:10203000B90810926906E091BA08F0E0EE0FFF1FB0
:10204000E555FD4F0190F081E02D80818E7D8083EC
:102050000E94BA1681110E94AD175E01BEE1AB0E5F
:10206000B11C6BEA79E0C5010E94080D1C821B823D
:1020700081E293E09A8389831E824801FE013196B2
:102080007F0125013F016FE270E0C4010E9410252D
:10209000009709F441C0D4012C912F3221F4BFEFF5
:1020A0008B1A9B0AF0CF88198D3008F08CE0C82E6F
:1020B000D12CA601B401CE01885A9F4F0E941B2546
:1020C000E8E5F0E0EC0FFD1FEC0DFD1D1082C701EF
:1020D0000E945B0AF7018581882351F01EAE1DAE78
:1020E00081E293E09CAF8BAF21961FAE21971CC07D
:1020F000AE01485A5F4FB201C7010E94C61688233D
:1021000069F38C0C9D1CC2010E945B0A942D852DE5
:102110002701E92EF82EB7CF1401201A310AB20197
:10212000CE01CB960E94080D020D131DD8018C9193
:10213000811109C0BE01655C7F4FC3010E94080D7B
:102140004BEE53E03FC019A218A281E293E09F8FAB
:102150008E8F1BA221968FAD2197811116C06C9690
:102160001FAE1EAE6C9788EE93E0A0E0B0E0A096A4
:102170008CAF9DAFAEAFBFAFA097E3961FAE1EAEC4
:10218000E397A5961FAEA59723C08250A801823081
:1021900040F46BEA79E0C5010E94C61681110DC0BA
:1021A000DECFBE01655C7F4FC5010E94C616882345
:1021B000B1F2CE01CB960E945B0AB501C3010E9429
:1021C000080DA801B301CE01885A9F4F0E94FB1849
:1021D0006C968EAD9FAD6C9790936909809368095A
:1021E000A0968CAD9DADAEADBFADA09780936A09B2
:1021F00090936B09A0936C09B0936D09A4968CAD74
:102200009DADAEADBFADA49780936E0990936F095D
:10221000A0937009B09371098DE0E8E5F0E0EC0F50
:10222000FD1F3C96A2E7B9E001900D928A95E1F777
:10223000E3968EAD9FADE3979093800980937F09DD
:102240000E94BA16882309F45CC168E070E080E05F
:1022500090E00E94821687E5898381E48A8386E57F
:102260008B8385E48C83830174E0F72EF60C86E67D
:1022700099E00E944C18F80121918F01022E000C68
:10228000330B8217930711F4FE12F1CF68E170E06F
:1022900080E090E00E94821686E699E00E944C1849
:1022A0009093B6088093B50886E699E00E944C1892
:1022B00020E030E0382F8091B5089091B608822B4D
:1022C000932B9093B6088093B5086CE270E080E0A1
:1022D00090E00E9482168EEF90E0909368068093C3
:1022E000670681E080936906F0900A028F2D8F7750
:1022F00080930A028091B5089091B6088B3F9F4A5F
:1023000030F080EC9DE59093B6088093B50820915D
:10231000B5083091B60840E050E0F6FE05C060E038
:1023200075E38CE090E004C060E07AE688E190E03C
:102330000E9466236AE0629FC001639F900D112492
:102340009093B8088093B70886E699E00E944C18ED
:102350008C0186E699E00E945618800F911F97FD28
:1023600001968C0115950795F5FC19C08F2D8F7579
:1023700080930A02E091BA08F0E0EE0FFF1FED55DE
:10238000FD4F0190F081E02D20813181C801992716
:102390002817390708F086C040E050E040C080911F
:1023A000BA0890E0880F991FFC01ED55FD4F019090
:1023B000F081E02D11821082FC01E556FD4F019065
:1023C000F081E02D8091B7089091B80891838083C7
:1023D0000E949416E091BA08F0E020E030E0EE0FA1
:1023E000FF1FE556FD4F63E572E08091B7089091BD
:1023F000B8082817390708F0B9CFA081B181AC011E
:10240000421B530B8417950708F4AC0111965C939B
:102410004E93CB010197F1F72F5F3F4FE6CFB90104
:102420006F5F7F4F6217730728F09B01861797072E
:1024300008F49C01FA01E559FB4F20834F5F5F4F81
:102440004E3F510561F740E050E0B9016F5F7F4FAB
:102450006217730728F09B018617970708F49C0101
:10246000FA01E759FA4F20834F5F5F4F4E3F510506
:1024700061F710926A0410920802109209021092F9
:102480006904F8940E949416E091BA08F0E0EE0F07
:10249000FF1FE555FD4F0190F081E02D81E2808323
:1024A00078942FC040E050E0B9016150710968177D
:1024B000790728F06217730718F49B0101C09C018B
:1024C000FA01E559FB4F20834F5F5F4F4E3F5105A7
:1024D00059F740E050E0B901615071096817790778
:1024E00028F06217730718F49B0101C09C01FA01E0
:1024F000E759FA4F20834F5F5F4F4E3F510559F721
:10250000B8CFCC58DF4F0FB6F894DEBF0FBECDBFAB
:10251000DF91CF911F910F91FF90EF90DF90CF90BF
:10252000BF90AF909F908F907F906F905F904F90F3
:102530003F902F900895CF93DF93109268041092EC
:10254000670410926604109265041092640481E09E
:10255000809363041092620461E084E10E94861912
:1025600061E085E10E9486198091B9008E7F809399
:10257000B9008091B9008D7F8093B90088E4809381
:10258000B80085E48093BC001092CF098091D409F3
:10259000823018F098E09093CF098093D20962E3DB
:1025A00070E080E090E00E94F2196091D5098AEC19
:1025B00099E00E94CF0D68EE73E080E090E00E9409
:1025C000F21960E38AEC99E00E94340ECBE4D6E481
:1025D000CE010197F1F760E38AEC99E00E94340E96
:1025E0002197F1F760E38AEC99E00E94340E83E5CD
:1025F00092E00197F1F760E28AEC99E00E94340ED4
:102600006091CF09606240E08AEC99E00E944D0E33
:1026100084E08093D00940E06CE08AEC99E00E946D
:102620004D0E40E061E08AEC99E00E944D0ECBE354
:10263000DFE1CE010197F1F782E08093D10940E01C
:1026400066E08AEC99E00E944D0E40E062E08AEC80
:1026500099E00E944D0E2197F1F7DF91CF910895F7
:102660008F929F92AF92BF92CF92DF92EF92FF92A2
:10267000CF93DF93C82F81E899E090936104809312
:102680006004CC2369F1C53010F080E00DC140E05A
:1026900060E070E0CB010E9492058823B1F320E155
:1026A000C29FC00111248E55994FFC01E254FE4F88
:1026B00020812F7751F73C9640815181628173814F
:1026C000443651056105710500F33497C080D1800F
:1026D000E280F380C114D104E104F10421F4D5CFE8
:1026E000C12CD12C760140E0C701B6010E949205B1
:1026F000882359F28091BD069091BE0681159240C3
:1027000021F6A091C206AA2309F4BFCF6091C006AA
:102710007091C1066115710509F4B7CF2091BF060C
:10272000222309F4B2CFA0939F092093910980E05E
:1027300030E0E1E0F0E0C82FAF01082E02C0440F06
:10274000551F0A94E2F72417350741F0982F8F5F41
:10275000983089F789E080939A0997CF80939A09F6
:102760002091C8063091C9062115310519F040E0C5
:1027700050E008C02091D6063091D7064091D80687
:102780005091D9062093920930939309409394096C
:102790005093950946015701860E971EA11CB11C46
:1027A0008092A0099092A109A092A209B092A309D7
:1027B000E091C306F091C406F093A609E093A50941
:1027C000B0E00E948523860E971EA81EB91E809237
:1027D000A7099092A809A092A909B092AA0985E038
:1027E000EE0FFF1F8A95E1F7E150FE4FEF2FFF2715
:1027F000E6958E0E9F1EA11CB11C80929B099092A3
:102800009C09A0929D09B0929E092091C506309125
:10281000C6062115310521F0A90160E070E008C06D
:102820004091D2065091D3066091D4067091D5069E
:10283000D701C60188199909AA09BB09840F951FF8
:10284000A61FB71F04C0B695A79597958795CA95FB
:10285000D2F78093960990939709A0939809B09323
:102860009909853F2FE09207A105B10510F48CE08E
:1028700018C0853F9F4FA105B10510F480E111C03C
:102880008091DE069091DF06A091E006B091E1060E
:102890008093A7099093A809A093A909B093AA09C6
:1028A00080E28093A40981E0DF91CF91FF90EF90C7
:1028B000DF90CF90BF90AF909F908F9008951F9220
:1028C0000F920FB60F9211240BB60F922F933F93D6
:1028D0004F935F936F937F938F939F93AF93BF9328
:1028E000EF93FF938091B900887F803609F49CC0F4
:1028F00068F5883209F45BC090F4803109F454C063
:1029000038F4882309F4F6C0883009F44DC0F6C0C5
:10291000883109F44CC0803209F45DC0EFC08034C6
:1029200009F468C048F4803309F455C0883309F0CD
:10293000E5C080933C04D8C0803509F44FC0883589
:1029400009F45DC0883409F0D9C0D6C0883909F4CB
:10295000C7C0A8F4883709F467C038F4883609F48A
:1029600063C0803709F460C0C9C0883809F4B8C0B2
:10297000803909F45FC0803809F0C0C05BC0803B7B
:1029800009F486C038F4803A09F466C0883A09F43C
:102990007FC0B4C0803C09F4A7C0883C09F4A4C03F
:1029A000883B09F48AC0AAC080915F0410C090914E
:1029B0005E0480915D04981770F5E0915E0481E0FB
:1029C0008E0F80935E04F0E0E35CFB4F8081809388
:1029D000BB0085EC86C080933C048EC0E0915E0411
:1029E00081E08E0F80935E048091BB00F0E0E35C99
:1029F000FB4F808390915E0480915D046EC0E091F6
:102A00005E0481E08E0F80935E048091BB00F0E055
:102A1000E35CFB4F80838091630481116DC081E092
:102A20008093620484EA61C083E08093640410921E
:102A3000B006CFCF8091B006803208F051C0E0914F
:102A4000B00681E08E0F8093B0068091BB00F0E06D
:102A5000E057F94F8083BDCF85EC8093BC00109286
:102A600064048091B006803230F4E091B006F0E06A
:102A7000E057F94F10826091B00670E0E0918E0649
:102A8000F0918F0680E996E019951092B00636C055
:102A900084E08093640410928D0610928C06E0917D
:102AA0008A06F0918B06199580918C06811105C0DC
:102AB00081E080938C0610926A06E0918D0681E099
:102AC0008E0F80938D06F0E0E659F94F8081809358
:102AD000BB0090918D0680918C06981708F479CFF1
:102AE00085E88093BC000AC085EC8093BC001092FE
:102AF000640404C010923C040E94120FFF91EF91F5
:102B0000BF91AF919F918F917F916F915F914F9105
:102B10003F912F910F900BBE0F900FBE0F901F9003
:102B2000189540918C06262F30E0240F311D21325C
:102B30003105DCF4209164042430C9F4FC0180E008
:102B400090E0861758F430918C062191DC01A6594B
:102B5000B94FA30FB11D2C930196F3CF80918C0632
:102B6000680F60938C0680E0089581E0089582E00C
:102B70000895CF93DF93EC016A8B80910B029091C3
:102B80000C02A0910D02B0910E028E879F87A88B38
:102B9000B98B80E2689FF0011124EE54F94F44890B
:102BA000558960E070E0BA01552744274F8B588F54
:102BB000698F7A8F828D938DA0E0B0E0482B592BDE
:102BC0006A2B7B2B4F8B588F698F7A8F8385887107
:102BD00051F4848D958DA68DB78D8B8B9C8BAD8B91
:102BE000BE8B81E00EC0803111F080E015C09E01E7
:102BF0002D5E3F4F8B8D9C8D0E94FF068823A9F38D
:102C000084E08D8381E08C831E821F821886198662
:102C10001A861B861C861D86DF91CF910895CF935F
:102C2000DF93CDB7DEB728970FB6F894DEBF0FBE9F
:102C3000CDBF28E0E3EBF2E0DE01119601900D92AA
:102C40002A95E1F72091D209261710F46FEF620F51
:102C5000FE013196E60FF11DE60FF11D9081682F00
:102C6000690F606840E08AEC99E028960FB6F89406
:102C7000DEBF0FBECDBFDF91CF910C944D0E8F9272
:102C80009F92AF92BF920F931F93CF93DF93CDB7D5
:102C9000DEB7A1970FB6F894DEBF0FBECDBF19A265
:102CA000423008F44AE08E010F5D1F4F842E912CB4
:102CB000A12CB12CA50194010E949823E62FB90103
:102CC000CA0101501109EA3014F4E05D01C0E95C69
:102CD000D801EC93232B242B252B61F7B8018AEC28
:102CE00099E00E94211BA1960FB6F894DEBF0FBE9B
:102CF000CDBFDF91CF911F910F91BF90AF909F906B
:102D00008F90089520917F09309180092115310518
:102D100041F0AB01BC01C9010E94680791E081113B
:102D200001C090E0892F08958091BA0890E0880F43
:102D3000991FFC01E353FD4F0190F081E02D20919C
:102D4000B7083091B80831832083FC01EB53FD4F65
:102D50000190F081E02D82EB8083E091BA08F0E0F1
:102D6000EE0FFF1FE354FD4F0190F081E02D89E14C
:102D700080830895E0917F09F0918009309729F0D0
:102D80008581882311F081E008950895AF92BF9264
:102D9000CF92DF92EF92FF920F931F93CF93DF9327
:102DA000CDB7DEB72B970FB6F894DEBF0FBECDBF01
:102DB0007C01CE0101966C01FC0190E28BE08C0D50
:102DC00091938E13FDCFDA0120E037E09D91992396
:102DD00039F19E3219F0EEECF1E00AC03A3009F414
:102DE000AAC028E03AE0F2CF3196891709F4A3C0CF
:102DF00084918111F9CF321708F49DC08FED890FAE
:102E00008E3508F098C081E0820FF601E20FF11DC7
:102E10002FE9290F2A3108F490529083282FD6CF1A
:102E20008981803209F487C08B01FB01838D948DE9
:102E3000F701948F838FFB0116821782108611860B
:102E40001286138614861586A12CF8018285938537
:102E5000A485B58543895489658976898417950742
:102E6000A607B70708F067C025E0B695A795979520
:102E700087952A95D1F7F82FFF70BF2EF80185812D
:102E8000823008F458C0C8010E94060A97FD53C05A
:102E9000F80182859385A485B5854F96A11DB11D46
:102EA00082879387A487B587F0E2BF9EC001112473
:102EB000BC016E54794F61157105E9F1FB01208168
:102EC0002223B9F1253EE1F04BE050E0C6010E941B
:102ED0000325892B09F0B9CF6B2DC7012B960FB6AF
:102EE000F894DEBF0FBECDBFDF91CF911F910F9140
:102EF000FF90EF90DF90CF90BF90AF900C94B915FA
:102F0000A11014C0F701B28A40910B0250910C023B
:102F100060910D0270910E0246875787608B718B0E
:102F2000FC01EE54F94F8081882329F0AA24A39450
:102F30008CCFAA2039F380E02B960FB6F894DEBF31
:102F40000FBECDBFDF91CF911F910F91FF90EF90FA
:102F5000DF90CF90BF90AF90089580917F099091BE
:102F60008009009761F00E945B0A80917F0990912F
:102F700080090E9466241092800910927F090895AA
:102F8000CF93DF931F92CDB7DEB76983DC01ED915C
:102F9000FC910280F381E02D41E050E0BE016F5FC3
:102FA0007F4F19950F90DF91CF910895089581E09B
:102FB00090E03091680420916704321710F480E0AB
:102FC00090E0919581959109089580916804909180
:102FD0006704891730F48F5F8093680480E090E085
:102FE00008958FEF9FEF08958091670490E02091FE
:102FF0006804821B910908953FB7F8948091350ABF
:103000009091360AA091370AB091380A26B5A89B4C
:1030100005C02F3F19F00196A11DB11D3FBFBA2F6A
:10302000A92F982F8827820F911DA11DB11DBC01CA
:10303000CD0142E0660F771F881F991F4A95D1F78F
:103040000895CF92DF92EF92FF920F931F93CF9349
:10305000DF936C017A018B01C0E0D0E0CE15DF0573
:1030600089F0D8016D918D01D601ED91FC9101900F
:10307000F081E02DC6011995892B11F47E0102C063
:103080002196ECCFC701DF91CF911F910F91FF9057
:10309000EF90DF90CF900895FC01818D928D009785
:1030A00011F00C94060A8FEF9FEF08950F931F9372
:1030B000CF93DF93FC01818D928D0097B9F0EF01E2
:1030C0000E94060A8C010F3F8FEF180791F0898D3F
:1030D0009A8DFC014285538564857585415051095F
:1030E000610971090E946807C80105C080E090E08D
:1030F00002C08FEF9FEFDF91CF911F910F91089545
:10310000CF93DF93EC01898D9A8D009739F481E09C
:1031100090E09B838A8380E090E00BC0FC011382E7
:1031200012820E94670AE98DFA8D22813381232B56
:1031300071F7DF91CF910895CF92DF92EF92FF92D6
:103140000F931F93CF93DF937C01262F972F8A0134
:1031500080912F0A882391F0C62FD72F6E01C40EBD
:10316000D51ECC15DD0571F06991D701ED91FC916B
:103170000190F081E02DC7011995F3CF642F822FC4
:103180000E949115C801DF91CF911F910F91FF907F
:10319000EF90DF90CF900895CF93DF931F92CDB73C
:1031A000DEB7698320912F0A2223D1F02091650494
:1031B000203240F021E030E0FC013383228380E0C4
:1031C00090E015C080916604E82FF0E0E15FF54FD4
:1031D000998190838F5F809366048093650405C016
:1031E00061E0CE0101960E94911581E090E00F9080
:1031F000DF91CF910895EF92FF920F931F93CF939A
:10320000DF93EC017B018A011B821A8288EE93E036
:10321000A0E0B0E08C839D83AE83BF838DEF92E00E
:10322000998388838DE190E00E94D1239A8F898FC2
:10323000009779F02DE1F701DC0101900D922A95BC
:10324000E1F74CE050E0B801CE010C960E941B253E
:10325000188EDF91CF911F910F91FF90EF900895FD
:1032600090E0FC013197E231F10508F04EC088276B
:10327000EE58FF4F8F4F0C94C923809180008F77B9
:1032800003C0809180008F7D80938000089580919D
:103290008000877FF9CF84B58F7702C084B58F7D9A
:1032A00084BD08958091B0008F7703C08091B000F5
:1032B0008F7D8093B0000895809190008F7707C034
:1032C000809190008F7D03C080919000877F8093D4
:1032D000900008958091A0008F7707C08091A00092
:1032E0008F7D03C08091A000877F8093A000089508
:1032F000809120018F7707C0809120018F7D03C0CE
:1033000080912001877F8093200108951F93CF93A0
:10331000DF93282F30E0F901E156FD4F8491F90148
:10332000E75AFD4FD491F901ED5EFD4FC491CC23D6
:10333000C9F0162F81110E943019EC2FF0E0EE0F2A
:10334000FF1FE750FE4FA591B4918FB7F89411116C
:1033500005C09C91ED2FE095E92302C0EC91ED2B87
:10336000EC938FBFDF91CF911F910895CF93DF939F
:1033700090E0FC01E75AFD4F2491FC01ED5EFD4F0A
:103380008491882361F190E0880F991FFC01E1523C
:10339000FE4FC591D491FC01E750FE4FA591B49129
:1033A000611109C09FB7F894888120958223888392
:1033B000EC912E230BC0623061F49FB7F8943881F2
:1033C000822F809583238883EC912E2B2C939FBF93
:1033D00006C08FB7F894E8812E2B28838FBFDF912A
:1033E000CF9108958F929F92AF92BF92CF92DF922A
:1033F000EF92FF926B017C010E94FC174B015C0174
:10340000C114D104E104F104F1F00E94FC17DC01C5
:10341000CB0188199909AA09BB09883E9340A105E7
:10342000B10570F321E0C21AD108E108F10888EE75
:10343000880E83E0981EA11CB11CC114D104E104C4
:10344000F10419F7DDCFFF90EF90DF90CF90BF90A0
:10345000AF909F908F9008952FB7F8946091310AA4
:103460007091320A8091330A9091340A2FBF0895E7
:103470001F920F920FB60F9211242F933F938F93A9
:103480009F93AF93BF938091310A9091320AA0919C
:10349000330AB091340A3091300A23E0230F2D37DC
:1034A00020F40196A11DB11D05C026E8230F029648
:1034B000A11DB11D2093300A8093310A9093320AE6
:1034C000A093330AB093340A8091350A9091360A5A
:1034D000A091370AB091380A0196A11DB11D8093C1
:1034E000350A9093360AA093370AB093380ABF91F1
:1034F000AF919F918F913F912F910F900FBE0F90A1
:103500001F9018951F920F920FB60F9211240BB6B1
:103510000F922F933F934F935F936F937F938F936C
:103520009F93AF93BF93EF93FF9380910B0A90917A
:103530000C0AA0910D0AB0910E0A892B8A2B8B2BB5
:1035400059F180910A0AE091080AF091090A9081E4
:103550008927808380910B0A90910C0AA0910D0A13
:10356000B0910E0A181619061A061B060CF056C062
:1035700080910B0A90910C0AA0910D0AB0910E0A4D
:103580000197A109B10980930B0A90930C0AA093AB
:103590000D0AB0930E0A42C080910F02EEEDF1E0E9
:1035A000E4919FEF90930F02E230C9F050F4EE23C4
:1035B00099F0E13081F590916F009D7F90936F00BD
:1035C0002AC0E43019F1E0F0E53029F5909173005C
:1035D0009D7F909373001FC010926E001CC090914D
:1035E00070009D7F9093700091E09093B000909157
:1035F000B100987F94609093B1001092B3000BC01B
:10360000909171009D7F9093710005C09091720020
:103610009D7F9093720060E00E948619FF91EF9168
:10362000BF91AF919F918F917F916F915F914F91DA
:103630003F912F910F900BBE0F900FBE0F901F90D8
:1036400018956115710579F0FB0101900020E9F7EB
:103650003197AF01461B570BDC01ED91FC910280C5
:10366000F381E02D199480E090E00895CF93DF93EB
:1036700000D01F921F92CDB7DEB7789484B58260D8
:1036800084BD84B5816084BD85B5826085BD85B506
:10369000816085BD80916E00816080936E00109284
:1036A00081008091810082608093810080918100FF
:1036B0008160809381008091800081608093800090
:1036C0008091B10084608093B1008091B0008160EE
:1036D0008093B000809191008260809391008091EE
:1036E000910081608093910080919000816080932F
:1036F00090008091A10082608093A1008091A10040
:1037000081608093A1008091A00081608093A000DF
:10371000809121018260809321018091210181604B
:10372000809321018091200181608093200180910C
:103730007A00846080937A0080917A00826080931E
:103740007A0080917A00816080937A0080917A007B
:10375000806880937A001092C10082E090E0A0E03F
:10376000B0E08093FC039093FD03A093FE03B0931D
:10377000FF0385E093E09093FB038093FA0380912D
:1037800070008E7F809370008091B0008C7F80935A
:10379000B0008091B100877F8093B1008091B60026
:1037A0008F7D8093B600809170008D7F8093700034
:1037B0008091B10084608093B1008091B1008C7FD2
:1037C0008093B10086E090E0909301048093000420
:1037D000109203041092040410920504109206043F
:1037E0001092020480910004909101048093B20031
:1037F000809170008160809370000E942C1A609309
:103800000D0470930E0480930F0490931004609342
:10381000090470930A0480930B0490930C04809124
:103820007B00886080937B0086E480937C0080919D
:103830007A00806480937A0080917A0086FDFCCFC4
:10384000609178008091790070E0782B072E000C51
:10385000880B990B611571058105910511F00E9486
:103860005D230E949B1288E08093D50960E08AEC7A
:1038700099E00E94CF0D16E161E0812F0E94B619F8
:103880001F5F1E32C9F712E061E0812F0E94B61956
:103890001F5F1E30C9F78EE28093B208E091D7080F
:1038A000F091D80882E08083E091D308F091D408A9
:1038B0001082E091D508F091D6088FEC80831092A9
:1038C000DF08E091DB08F091DC0886E08083E0917E
:1038D000D908F091DA08808180618083E091D9086D
:1038E000F091DA08808188608083E091D908F091B6
:1038F000DA08808180688083E091D908F091DA0845
:1039000080818F7D808310928C0910928A09109299
:1039100087091092860985E3809385090E942C1AF5
:103920005B0161E0809185090E94B61961E0809198
:1039300085090E9486191FB7F8948091130481119C
:1039400027C0E8E4F2E08491EEE8F2E09491E82FF9
:10395000F0E0EE0FFF1FE152FE4FA591B491EC9104
:10396000E92321F461E085E30E94861961E085E3A3
:103970000E94B6198CB580618CBD8CB580648CBDFD
:1039800061E084E30E94B61961E083E30E94B61906
:10399000809113048F5F809313041FBF82E580938F
:1039A00064091092650980916409909165090E94EB
:1039B000DD031AE08FEF0E949E031150D9F781E8D2
:1039C00099E00E94E00320E030E0A90160E081E896
:1039D00099E00E94F603182F80938B09813049F0FB
:1039E0000E942C1A6A197B09613D774060F381E0DF
:1039F00054C02AEA31E040E050E068E081E899E014
:103A00000E94F60382FF03C010938C090EC014E0DD
:103A10000E94A50380938B091150D1F78A3A11F0C7
:103A200082E03BC082E080938C0980918C098230D7
:103A300021F0C12CD12C760105C0C12CD12CE12C58
:103A400030E4F32E20E030E0A90167E381E899E05B
:103A50000E94F603A701960169E281E899E00E94BD
:103A6000F60380938B09882349F00E942C1A6A1967
:103A70007B09613D774030F388E00FC080918C096D
:103A8000823001F520E030E0A9016AE381E899E0A5
:103A90000E94F603882341F086E08093860981E83E
:103AA00099E00E9493038FC00E94A503807C803C14
:103AB00019F483E080938C090E94A5030E94A5035A
:103AC0000E94A50381E899E00E94930380E580931A
:103AD00064091092650981E00E943013882329F05F
:103AE0008091B009882341F06EC080E00E943013BD
:103AF000882309F468C0F4CF8091A409803109F5C6
:103B000082E08093B0091092C2091092C30910920A
:103B1000C4091092C5098091A5099091A609A0E059
:103B2000B0E025E0880F991FAA1FBB1F2A95D1F787
:103B30008093BE099093BF09A093C009B093C109B7
:103B40001EC0803209F03FC083E08093B0094091ED
:103B5000A7095091A8096091A9097091AA094093F9
:103B6000C2095093C3096093C4097093C5092EEB31
:103B700039E08DE899E00E94FF06882321F18DE865
:103B800099E09093C7098093C60981E08093AF09BB
:103B90001092B1091092B2091092B3091092B409AF
:103BA0001092B5091092B6091092B7091092B8098F
:103BB0001092B9091092BA091092BB091092BC096F
:103BC0001092BD090CC061E473E087EC98E00E949C
:103BD000211B69E473E087EC98E00E94211B01E05F
:103BE00010E08CEDC82E85E0D82EE12CF12C99E662
:103BF000292E9AE0392E809111049091120481307F
:103C0000910509F4EEC024F4892B09F45FC007C0C4
:103C10008230910509F450C1099709F4D0C1B2E08E
:103C2000BB2E61E082E00E940F160E942C1A28EE43
:103C300033E040E050E00E949823CA01B9014AE015
:103C40000E943F1661E08B2D0E94861968EE73E09A
:103C500080E090E00E94F21960E08B2D0E948619AE
:103C600068EE73E080E090E00E94F219B3944EE0B9
:103C7000B412D7CFA6E1BA2E61E082E00E940F16FF
:103C80000E942C1A28EE33E040E050E00E94982376
:103C9000CA01B9014AE00E943F1661E08B2D0E94E3
:103CA000861968EE73E080E090E00E94F21960E00F
:103CB0008B2D0E94861968EE73E080E090E00E94F0
:103CC000F219B3945EE2B512D7CF5CC387EE93E0EE
:103CD00090931204809311040E949B128CE493E051
:103CE0000E94450F0E94592324E833E040E050E051
:103CF0000E9466239B01AC012C593F4F4F4F5F4FF1
:103D000029833A834B835C83412C512C3201898176
:103D10009A81840D951D18161906CCF592E061E084
:103D2000892F9D830E9486199D819F5F9E30B9F7E0
:103D300089809A80AB80BC80840C951CA61CB71C23
:103D4000C501B4010E94F21992E060E0892F9D83C1
:103D50000E9486199D819F5F9E30B9F7C501B4010D
:103D60000E94F2198091040A882309F40EC38091FD
:103D7000EB09882309F409C360E080E00E940F1674
:103D800064ED73E08AEC99E00E94211BFBC28EE98E
:103D900093E00E94450F8091040A882379F060E047
:103DA00080E00E940F1669E673E08AEC99E00E94B9
:103DB000211B1093120400931104C6C28091EB09D9
:103DC000882349F360E080E00E940F1660E973E009
:103DD0008AEC99E00E94211B1093120400931104B5
:103DE000C9C20E942C1A60930D0470930E04809334
:103DF0000F049093100420913B048090090490904C
:103E00000A04A0900B04B0900C04DC01CB018819CB
:103E10009909AA09BB0921110CC0883B9B40A10547
:103E2000B10548F184E090E090931204809311046E
:103E3000A9C28C329140A105B105E8F0609104025D
:103E4000709105028091060290910702409107044B
:103E500050910804660F771F2091020230910302EF
:103E6000621B730B880F991F209100023091010291
:103E7000821B930B85C28091F5098111A2C28091AA
:103E8000DC0981119EC28091FA098111AFC2809133
:103E9000E1098111ABC28091FF098111BCC28091FF
:103EA000E6098111B8C28091F0098111C8C28091E0
:103EB000D7098111C4C266C20E942C1A60930D04F6
:103EC00070930E0480930F04909310046093090480
:103ED00070930A0480930B0490930C040E94740E58
:103EE00010923B04109312040093110440910704B4
:103EF000509108042091040230910502809106023D
:103F0000909107024130510569F5232B89F49C01FA
:103F1000215031092330310528F44FEF5FEF61E084
:103F200070E010C004974FEF5FEF61E070E012C0E7
:103F30009C01215031092330310538F44FEF5FEFF8
:103F400063E070E082E090E01BC204974FEF5FEF08
:103F500063E070E0039718F484E090E011C288E019
:103F600090E00EC2232B89F49C01285031092330A4
:103F7000310528F441E050E061E070E010C00597A1
:103F800041E050E061E070E012C09C01285031092E
:103F90002330310538F441E050E064E070E089E01E
:103FA00090E0EEC1059741E050E064E070E00397D7
:103FB00018F487E090E0E4C183E090E0E1C10E9462
:103FC0002C1A60930D0470930E0480930F04909349
:103FD00010046093090470930A0480930B04909377
:103FE0000C0480910F028E3221F4EEEDF1E09491F9
:103FF000F0C08F3F09F089C18EE280930F02EEED91
:10400000F1E094919F3F09F480C1923009F475C0AA
:1040100054F5992309F453C0913009F0DAC0109295
:1040200080001092810080918100886080938100DF
:1040300080918100816080938100E1E4F2E08491CD
:10404000E82FF0E0EE0FFF1FE750FE4F85919491AF
:1040500090931F0480931E04E7E8F2E0849180931C
:104060001D0491E0B8C0943009F48FC00CF469C00D
:10407000953009F0AEC0109220011092210180917C
:1040800021018860809321018091210181608093CA
:104090002101E1E4F2E08491E82FF0E0EE0FFF1F50
:1040A000E750FE4F859194919093160480931504E8
:1040B000E7E8F2E084918093140495E08CC014BC8E
:1040C00015BC84B5826084BD85B5816085BDE1E4A1
:1040D000F2E08491E82FF0E0EE0FFF1FE750FE4F73
:1040E000859194919093220480932104E7E8F2E073
:1040F00084918093200490E06EC01092B0001092E2
:10410000B1008091B00082608093B0008091B100D6
:1041100081608093B100E1E4F2E08491E82FF0E067
:10412000EE0FFF1FE750FE4F859194919093090A7F
:104130008093080AE7E8F2E0849180930A0A92E00B
:104140004AC0109290001092910080919100886076
:104150008093910080919100816080939100E1E4CF
:10416000F2E08491E82FF0E0EE0FFF1FE750FE4FE2
:104170008591949190931C0480931B04E7E8F2E0EE
:10418000849180931A0493E026C01092A0001092AC
:10419000A1008091A10088608093A1008091A1007E
:1041A00081608093A100E1E4F2E08491E82FF0E0E7
:1041B000EE0FFF1FE750FE4F8591949190931904E5
:1041C00080931804E7E8F2E084918093170494E068
:1041D00002C097FD9AC061E08EE29D830E94B619ED
:1041E0009D81992309F43FC1923009F442C0913076
:1041F000C1F480918100887F81608093810030923A
:10420000890020928800C0922F04D0923004E0925E
:104210003104F092320480916F00826080936F00CD
:1042200074C0933039F480919100887F81608093CD
:10423000910036C0943039F48091A100887F81606C
:104240008093A1003FC0953039F480912101887F8F
:1042500081608093210148C0933011F12CF4923099
:1042600009F053C089E60CC0943061F19530E1F15A
:104270004CC08091B100887F83608093B10082E55B
:104280008093B300C0920B0AD0920C0AE0920D0A00
:10429000F0920E0A8091700082608093700035C0A9
:1042A0003092990020929800C0922B04D0922C0456
:1042B000E0922D04F0922E04809171008260809330
:1042C000710023C03092A9002092A800C092270458
:1042D000D0922804E0922904F0922A04809172007E
:1042E00082608093720011C03092290120922801CF
:1042F000C0922304D0922404E0922504F092260474
:104300008091730082608093730010923B0410933D
:1043100012040093110460E080E00E940F16809167
:10432000060290910702892BB1F480913704909195
:104330003804019690933804809337046AEA73E056
:104340008AEC99E00E94211B41E050E062E070E0BD
:1043500085E090E015C08091390490913A0401966F
:1043600090933A04809339046EEB73E08AEC99E001
:104370000E94211B4FEF5FEF62E070E086E090E06B
:104380000E94890E0E94780236CC8091EB09882326
:1043900039F060E080E00E940F1664E573E005CD1F
:1043A0008091040A34E6431A510861087108882391
:1043B00009F4ADCC60E080E00E940F1669E773E07D
:1043C00007CD8091070490910804609104027091D8
:1043D00005022091060230910702AC01820F931F63
:1043E0000E94890EF1E0F0933B044DCD209107042B
:1043F00030910804609104027091050280910602D8
:1044000090910702A901821B930B0E94890E21E063
:1044100020933B0440CD40910704509108046091E3
:10442000040270910502640F751F8091060290913D
:1044300007020E94890E31E030933B0434CD409155
:104440000704509108046091040270910502641BF6
:10445000750B80910602909107020E94890E41E03F
:1044600040933B048FCF85B5887F836085BD88E20C
:1044700087BDC0923304D0923404E0923504F092A8
:10448000360480916E00826080936E003ECFCF93A1
:10449000EBEBF8E01382128288EE93E0A0E0B0E04C
:1044A00084839583A683B78329ED32E0318320830B
:1044B000E7ECF8E01382128284839583A683B783A6
:1044C0002BEE32E03183208325EC30E035872487E2
:1044D00024EC30E03787268720EC30E0318B208BCE
:1044E00021EC30E0338B228B22EC30E0358B248BB7
:1044F00026EC30E0378B268B118E128E138E148EA5
:10450000E4E6F9E020E520831182E6E6F9E0138293
:10451000128284839583A683B7838DEF92E0918383
:104520008083128E118E1486E1E8F9E015821682DE
:104530001186138682E090E0A0E0B0E08487958742
:10454000A687B78713A215A614A681E293E093A7C6
:1045500082A717A6E3E0FAE086E38483CFE0C38373
:1045600062E00E94B619EEEFF9E087E38483C3832B
:1045700062E00E94B619E9EFF9E088E38483C3831F
:1045800062E00E94B619E4EFF9E089E38483C38313
:1045900062E00E94B619EFEEF9E08AE38483C383F8
:1045A00062E00E94B619EAEEF9E08BE38483C383EC
:1045B00062E00E94B619E5EEF9E08CE38483C383E0
:1045C00062E00E94B619E0EEF9E08DE38483C383D4
:1045D00062E00E94B619EBEDF9E08EE38483C383B9
:1045E00062E00E94B619E6EDF9E08FE38483C383AD
:1045F00062E00E94B619EAECF9E0138212828DE2C1
:1046000093E09183808387E2848380E1818782E0E5
:1046100082871386CF9108958F929F92AF92BF9217
:10462000CF92DF92EF92FF92CF93DF93EC016881FC
:1046300079818A819B81611571058105910521F43C
:1046400064E279ED8BE597E02DE133EF41E050E056
:104650000E94662349015A019B01AC01A7EAB1E41B
:104660000E9485236B017C01ACEEB4EFA50194019F
:104670000E949323DC01CB018C0D9D1DAE1DBF1D3F
:10468000B7FF03C00197A109B04888839983AA8323
:10469000BB83BC01CD019F77DF91CF91FF90EF905D
:1046A000DF90CF90BF90AF909F908F9008950C9423
:1046B0000C2380E192E00C940C2360931002709321
:1046C000110280931202909313020895052E97FB16
:1046D0001EF400940E947D2357FD07D00E9498236A
:1046E00007FC03D04EF40C947D23509540953095F3
:1046F00021953F4F4F4F5F4F08959095809570954E
:1047000061957F4F8F4F9F4F08950E94BA23A59FB9
:10471000900DB49F900DA49F800D911D11240895BC
:10472000B7FF0C9485230E948523821B930B089569
:10473000A1E21A2EAA1BBB1BFD010DC0AA1FBB1FA5
:10474000EE1FFF1FA217B307E407F50720F0A21B17
:10475000B30BE40BF50B661F771F881F991F1A9484
:1047600069F760957095809590959B01AC01BD01AE
:10477000CF010895A29FB001B39FC001A39F700D08
:10478000811D1124911DB29F700D811D1124911D59
:104790000895EE0FFF1F881F8BBF0790F691E02D45
:1047A0001994CF93DF938230910510F482E090E06A
:1047B000E0913B0AF0913C0A20E030E0C0E0D0E01C
:1047C000309711F14081518148175907C0F04817BF
:1047D000590761F482819381209719F09B838A8322
:1047E0002BC090933C0A80933B0A26C021153105CB
:1047F00019F04217530718F49A01BE01DF01EF01C7
:104800000280F381E02DDCCF2115310509F1281B51
:10481000390B2430310590F412968D919C911397A9
:104820006115710521F0FB019383828304C090938D
:104830003C0A80933B0AFD01329644C0FD01E20F21
:10484000F31F81939193225031092D933C933AC0E9
:104850002091390A30913A0A232B41F42091160213
:104860003091170230933A0A2093390A20911402AA
:10487000309115022115310541F42DB73EB7409115
:10488000180250911902241B350BE091390AF0915E
:104890003A0AE217F307A0F42E1B3F0B281739073B
:1048A00078F0AC014E5F5F4F2417350748F04E0F8C
:1048B0005F1F50933A0A4093390A8193919302C043
:1048C000E0E0F0E0CF01DF91CF9108950F931F93C7
:1048D000CF93DF93009709F48CC0FC0132971382C9
:1048E000128200913B0A10913C0A0115110581F4D6
:1048F00020813181820F931F2091390A30913A0A29
:104900002817390779F5F0933A0AE093390A71C00C
:10491000D80140E050E0AE17BF0750F412962D9139
:104920003C911397AD012115310509F1D901F3CF60
:104930009D01DA013383228360817181860F971F85
:104940008217930769F4EC0128813981260F371FFC
:104950002E5F3F4F318320838A819B8193838283A3
:10496000452B29F4F0933C0AE0933B0A42C013968E
:10497000FC93EE931297ED01499159919E01240FFA
:10498000351FE217F30771F480819181840F951F21
:10499000029611969C938E938281938113969C9399
:1049A0008E931297E0E0F0E0D80112968D919C91E1
:1049B0001397009719F0F8018C01F6CF8D919C9117
:1049C00098012E5F3F4F820F931F2091390A30913B
:1049D0003A0A2817390769F4309729F410923C0AEB
:1049E00010923B0A02C01382128210933A0A00937B
:1049F000390ADF91CF911F910F91089581E090E0E6
:104A0000F8940C942A25FB01DC0104C08D910190DF
:104A1000801921F441505040C8F7881B990B089524
:104A2000FC018191861721F08823D9F799270895F1
:104A30003197CF010895FB01DC014150504048F00F
:104A400001900D920020C9F701C01D9241505040C5
:084A5000E0F70895F894FFCF90
:104A5800FFFFFFFFFFFFFFFF010160FFFFFFFFFFF9
:104A68000100000000003D0A8000FFFFFFFFFFFF7C
:104A7800FFFFFFFFFFFF010023000300FFFFFFFF11
:104A8800190025001D00FFFFFFFF1A0024001C006D
:104A9800FFFFFFFF1B0022001E00FFFFFFFFFFFFBD
:104AA8002A00FFFFFFFFFFFFFFFF2C00FFFFFFFFB4
:104AB800FFFF17002B001F00FFFFFFFF1600260057
:104AC8002100FFFFFFFF18002D002000FFFFFFFF60
:104AD800020029000400FFFFFFFFFFFFFFFFFFFFA9
:104AE800FFFF0084009400A40024018A009A00AA11
:104AF800002A0188009800A80028016F0071007240
:104B08000073000000400014005400000081009170
:104B180000A100210180009000A0002001860096DD
:104B280000A600260100000000CC189C18B202D68E
:104B380017F417E517D717000000000F022118A770
:104B4800015602D801B601CA0100000000C0178052
:104B580018B2023D0F1C0F4C18561800000000B583
:104B6800022118B202B102B502B502B50200000076
:104B780000F70B2118B202B102000000006E0E21EE
:104B880018B202B10200000000B5022118B202B149
:104B9800025344206661696C000D0A006F6C652E33
:104BA8007761760052656420706C722066616C7360
:104BB800652073746172742120477265656E207078
:104BC8006C722077696E732100477265656E20707C
:104BD8006C722066616C7365207374617274212035
:104BE80052656420706C722077696E732100776853
:104BF8006973746C652E7761760052656420706CF9
:104C080072206861732073636F7265642100477254
:104C180065656E20706C72206861732073636F72B3
:104C280065642100426F746820706C72732066613D
:0E4C38006C736520737461727421002F00008C
:00000001FF
