:100000000C944C010C947D010C947D010C947D01A9
:100010000C947D010C947D010C947D010C947D0168
:100020000C947D010C947D010C947D010C947D0158
:100030000C947D010C9471030C947D010C941004BC
:100040000C947D010C947D010C947D010C947D0138
:100050000C947D010C947D010C947D010C9427037C
:100060000C947D010C947D010C947D010C947D0118
:100070000C947D010C947D010C947D010C947D0108
:100080000C947D010C947D010C947D010C947D01F8
:100090000C947D010C947D010C947D010C946706F9
:1000A0000C947D010C947D010C947D010C947D01D8
:1000B0000C947D010C947D010C947D010C947D01C8
:1000C0000C947D010C947D010C947D010C947D01B8
:1000D0000C947D010C947D010C947D010C947D01A8
:1000E0000C947D01B407B707A607AA07B007EE076F
:1000F000BB07BF07C507C907CD07D307D707DB076E
:10010000EE07E107E507E9070C947B050C94E1078E
:100110000C947A0E0C94E5070C94E9070C942505D1
:100120000C94B0070C94A6070C94EE070C945E0593
:100130000C94B0010C94AA070C94C5070C945D05AF
:100140000C94CD070C94B7070C94B4070C94C90712
:100150000C946C050C94C5020C94D3070C94D7072F
:100160000C94BB070C9483050C94DB070C94B3052B
:100170000C94BF07000020002300260029002C005B
:100180002F003200000100000301060109010000F8
:100190002100240027002A002D0030003300010137
:1001A0000000040107010A0100000A0B02090C0DFE
:1001B0000E0807030401000000000000000000001A
:1001C000000000000000000000000000000000002F
:1001D00000000000121110000000000000000000EC
:1001E000000000000000000000000000000001020C
:1001F0001020200808102040102040800201020139
:1002000008040201010204081020408080402010F0
:100210000804020180040201804020100804020149
:1002200008040201010204081020408001020408B1
:100230001020408000002200250028002B002E0006
:100240003100340002010000050108010B01050521
:100250000505070508080808020202020A0A08083C
:10026000040404040101010101010101030303036A
:1002700003030303040707070C0C0C0C0C0C0C0CF9
:100280000202020206060606060606060B0B0B0B0A
:100290000B0B0B0B02007A0E11241FBECFEFD1E225
:1002A000DEBFCDBF00E00CBF13E0A0E0B2E0E2E7AC
:1002B000FFE100E00BBF02C007900D92A033B10731
:1002C000D9F724E0A0E3B3E001C01D92A136B20744
:1002D000E1F711E0CCE4D1E000E006C0219701098C
:1002E000802FFE010E94AA0FCB34D10780E00807BF
:1002F000A9F70E94B60A0C94B70F0C9400003FB700
:10030000F8948091560390915703A0915803B091AF
:10031000590326B5A89B05C02F3F19F00196A11DD2
:10032000B11D3FBFBA2FA92F982F8827820F911D8B
:10033000A11DB11DBC01CD0142E0660F771F881FD2
:10034000991F4A95D1F708952FB7F89460915203F9
:100350007091530380915403909155032FBF0895DA
:10036000CF92DF92EF92FF920F931F93CF93DF9381
:100370006C017A018B01C0E0D0E0CE15DF0589F079
:10038000D8016D918D01D601ED91FC910190F08124
:10039000E02DC6011995892B11F47E0102C021962A
:1003A000ECCFC701DF91CF911F910F91FF90EF909C
:1003B000DF90CF9008951092F1031092EC03109209
:1003C000E7031092E2031092DD031092D80310921B
:1003D000D3031092CE031092C9031092C403089560
:1003E000CF92DF92EF92FF920F931F93CF93DF9301
:1003F0008C017B01C0900602D0900702D0920102CE
:10040000C0920002C0910402D0910502D093030271
:10041000C093020280914003909141039093310375
:100420008093300310930702009306027093050235
:100430006093040250934103409340030E94A4013F
:1004400060934B0370934C0380934D0390934E0342
:1004500060934703709348038093490390934A0342
:100460000E94DB0185E0809FF001819FF00D112447
:10047000EE0DFF1DEE0FFF1FE35FFD4F80819181A9
:100480008F3F2FEF920719F061E00E94EF0725E000
:100490002C9DC0012D9D900D1124C80FD91FCC0F8C
:1004A000DD1FC35FDD4F60E088810E94EF07C70159
:1004B0008B7F892B19F482E090E00CC082E0E81673
:1004C000F10461F40115110519F00B30110531F437
:1004D00089E090E09093500380934F03DF91CF9198
:1004E0001F910F91FF90EF90DF90CF900895EF92C2
:1004F000FF920F931F93CF93DF93EC018881E82E37
:10050000F12C2C8130E0F901E855FE4F8491F9017E
:10051000E251FE4F0491F901E25BFD4F149111236A
:10052000A1F081110E949907E12FF0E0EE0FFF1F6B
:10053000EC58FE4FA591B491EC91E02331E020E01E
:1005400009F430E0832F922F02C080E090E0E8169B
:10055000F90611F01A820FC08A818F5F8A839B810E
:10056000891748F0888191E0892788831A82882337
:1005700021F0998302C080E001C081E0DF91CF913A
:100580001F910F91FF90EF90089580EF93E00E94EC
:1005900077028BEE93E00E94770286EE93E00E9452
:1005A000770281EE93E00E9477028CED93E00E9447
:1005B000770287ED93E00E94770282ED93E00E943C
:1005C00077028DEC93E00E94770288EC93E00E9422
:1005D000770283EC93E00C9477028F929F92AF9214
:1005E000BF92CF92DF92EF92FF926B017C010E944B
:1005F0007F014B015C01C114D104E104F104F1F06D
:100600000E947F01DC01CB0188199909AA09BB0965
:10061000883E9340A105B10570F321E0C21AD108CC
:10062000E108F10888EE880E83E0981EA11CB11C39
:10063000C114D104E104F10419F7DDCFFF90EF906C
:10064000DF90CF90BF90AF909F908F9008951F92B2
:100650000F920FB60F9211242F933F938F939F9376
:10066000AF93BF938091520390915303A091540391
:10067000B09155033091510323E0230F2D3720F41F
:100680000196A11DB11D05C026E8230F0296A11DEC
:10069000B11D209351038093520390935303A09371
:1006A0005403B09355038091560390915703A09142
:1006B0005803B09159030196A11DB11D80935603B3
:1006C00090935703A0935803B0935903BF91AF91F0
:1006D0009F918F913F912F910F900FBE0F901F9080
:1006E00018951F920F920FB60F9211240BB60F920E
:1006F0002F933F934F935F936F937F938F939F932A
:10070000AF93BF93EF93FF938091A7039091A803BA
:10071000A091A903B091AA03892B8A2B8B2B59F1A5
:100720008091A403E091A503F091A603908189270D
:1007300080838091A7039091A803A091A903B09111
:10074000AA03181619061A061B060CF056C080914B
:10075000A7039091A803A091A903B091AA030197C0
:10076000A109B1098093A7039093A803A093A903BB
:10077000B093AA0342C080910802E4E9F2E0E49158
:100780009FEF90930802E230C9F050F4EE2399F005
:10079000E13081F590916F009D7F90936F002AC0AA
:1007A000E43019F1E0F0E53029F5909173009D7F78
:1007B000909373001FC010926E001CC09091700047
:1007C0009D7F9093700091E09093B0009091B10064
:1007D000987F94609093B1001092B3000BC09091F9
:1007E00071009D7F9093710005C0909172009D7F74
:1007F0009093720060E00E94EF07FF91EF91BF912C
:10080000AF919F918F917F916F915F914F913F91A8
:100810002F910F900BBE0F900FBE0F901F90189549
:100820001F920F920FB60F9211240BB60F922F93B7
:100830003F934F935F936F937F938F939F93AF9368
:10084000BF93EF93FF938091390390913A03809384
:10085000B20080913C0390913D03A0913E03B09182
:100860003F030196A11DB11D80933C0390933D036E
:10087000A0933E03B0933F0380913C0390913D03CE
:10088000A0913E03B0913F03409135035091360350
:10089000609137037091380384179507A607B7074F
:1008A00010F180913B0381111EC081E080933B03D6
:1008B00080913C0390913D03A0913E03B0913F0392
:1008C000841B950BA60BB70B80933C0390933D03C1
:1008D000A0933E03B0933F03E0913303F0913403C0
:1008E000199510923B03FF91EF91BF91AF919F91AA
:1008F0008F917F916F915F914F913F912F910F90C9
:100900000BBE0F900FBE0F901F901895CF93FC0158
:10091000C48121E020937A03C09332031092A30391
:100920001092A2038385682B8BEA93E00E94B305A3
:100930008091A203813208F046C09091A1039111E9
:10094000FCCF92E09093A10391E09093A0039FEFDE
:1009500090937B0310929D0380939C03AAE5B3E0E0
:100960002CE733E0F9019E2F921B981718F49D9104
:100970009193F9CF10929E0380919E03CC0FC82BC8
:10098000C0939E0380919F03813061F410929F0376
:1009900080919E038093BB008091BC0083FDF8CFC3
:1009A00085EC01C085EE8093BC008091A10382306C
:1009B000E1F380917B038F3F31F080917B038032A4
:1009C00011F080917B031092A3031092A203109266
:1009D0007A03CF9108950F931F93CF938C01C62F65
:1009E0000E9486046C2F6460C8010E9486046C2FEC
:1009F0006B7FC8010E94860483EC90E00197F1F7B9
:100A0000CF911F910F910895FF920F931F93CF9352
:100A1000DF931F92CDB7DEB78C01F62E962F907F15
:100A2000692F642BC80149830E94EB0480E1F89E82
:100A3000B00111244981642BC8010F90DF91CF913F
:100A40001F910F91FF900C94EB0441E00E9404056C
:100A500081E090E0089585ED8093BC008091BC001A
:100A600084FDFCCF1092A103089540911704262F16
:100A700030E0240F311D21323105DCF42091A10337
:100A80002430C9F4FC0180E090E0861758F43091DE
:100A900017042191DC01AB50BC4FA30FB11D2C9367
:100AA0000196F3CF80911704680F6093170480E0DC
:100AB000089581E0089582E00895089581E090E02E
:100AC00030913D0420913C04321710F480E090E016
:100AD000919581959109089580913D0490913C04F0
:100AE000891730F48F5F80933D0480E090E0089593
:100AF0008FEF9FEF089580913C0490E020913D049A
:100B0000821B91090895CF92DF92EF92FF920F938B
:100B10001F93CF93DF937C01262F972F8A0180911B
:100B20007A03882391F0C62FD72F6E01C40ED51EED
:100B3000CC15DD0571F06991D701ED91FC91019023
:100B4000F081E02DC7011995F3CF642F822F0E9409
:100B50003505C801DF91CF911F910F91FF90EF9064
:100B6000DF90CF900895CF93DF931F92CDB7DEB77C
:100B7000698320917A032223D1F02091A2032032AD
:100B800040F021E030E0FC013383228380E090E0FC
:100B900015C08091A303E82FF0E0E65AFC4F99813D
:100BA00090838F5F8093A3038093A20305C061E0CD
:100BB000CE0101960E94350581E090E00F90DF9113
:100BC000CF9108950E94B20FCF93DF93CDB7DEB7D8
:100BD00028970FB6F894DEBF0FBECDBF28E0E5E83A
:100BE000F2E0DE01119601900D922A95E1F7209135
:100BF000BF03261710F46FEF620FFE013196E60F68
:100C0000F11DE60FF11D9081682F690F606840E0CB
:100C100087EB93E028960FB6F894DEBF0FBECDBFEA
:100C2000DF91CF910C940405009769F0FC010190CD
:100C30000020E9F73197AF01481B590BBC0187EB46
:100C400093E00C94B00180E090E008958F929F9221
:100C5000AF92BF920F931F93CF93DF93CDB7DEB7C1
:100C6000A1970FB6F894DEBF0FBECDBF19A24230D8
:100C700008F44AE08E010F5D1F4F842E912CA12CA9
:100C8000B12CA50194010E94790FE62FB901CA0188
:100C900001501109EA3014F4E05D01C0E95CD801AB
:100CA000EC93232B242B252B61F7C8010E941406FB
:100CB000A1960FB6F894DEBF0FBECDBFDF91CF91E6
:100CC0001F910F91BF90AF909F908F9008951F92AA
:100CD0000F920FB60F9211240BB60F922F933F93E2
:100CE0004F935F936F937F938F939F93AF93BF9334
:100CF000EF93FF938091B900887F803609F49CC000
:100D000068F5883209F45BC090F4803109F454C06E
:100D100038F4882309F4F6C0883009F44DC0F6C0D1
:100D2000883109F44CC0803209F45DC0EFC08034D2
:100D300009F468C048F4803309F455C0883309F0D9
:100D4000E5C080937B03D8C0803509F44FC0883557
:100D500009F45DC0883409F0D9C0D6C0883909F4D7
:100D6000C7C0A8F4883709F467C038F4883609F496
:100D700063C0803709F460C0C9C0883809F4B8C0BE
:100D8000803909F45FC0803809F0C0C05BC0803B87
:100D900009F486C038F4803A09F466C0883A09F448
:100DA0007FC0B4C0803C09F4A7C0883C09F4A4C04B
:100DB000883B09F48AC0AAC080919E0310C090911C
:100DC0009D0380919C03981770F5E0919D0381E04D
:100DD0008E0F80939D03F0E0E458FC4F8081809358
:100DE000BB0085EC86C080937B038EC0E0919D03A1
:100DF00081E08E0F80939D038091BB00F0E0E4586A
:100E0000FC4F808390919D0380919C036EC0E09184
:100E10009D0381E08E0F80939D038091BB00F0E0E5
:100E2000E458FC4F80838091A00381116DC081E064
:100E300080939F0384EA61C083E08093A1031092B2
:100E40003B04CFCF80913B04803208F051C0E09149
:100E50003B0481E08E0F80933B048091BB00F0E067
:100E6000E55EFB4F8083BDCF85EC8093BC00109284
:100E7000A10380913B04803230F4E0913B04F0E028
:100E8000E55EFB4F108260913B0470E0E091190435
:100E9000F0911A048BE194E0199510923B0436C04E
:100EA00084E08093A1031092180410921704E0913B
:100EB0001504F0911604199580911704811105C04D
:100EC00081E0809317041092F503E091180481E00B
:100ED0008E0F80931804F0E0EB50FC4F80818093DC
:100EE000BB009091180480911704981708F479CFEB
:100EF00085E88093BC000AC085EC8093BC0010920A
:100F0000A10304C010927B030E942B05FF91EF9177
:100F1000BF91AF919F918F917F916F915F914F9111
:100F20003F912F910F900BBE0F900FBE0F901F900F
:100F3000189590E0FC013197E231F10508F04EC0C0
:100F40008827EE58FF4F8F4F0C94AA0F8091800096
:100F50008F7703C0809180008F7D809380000895FB
:100F600080918000877FF9CF84B58F7702C084B5E8
:100F70008F7D84BD08958091B0008F7703C08091EC
:100F8000B0008F7D8093B0000895809190008F779E
:100F900007C0809190008F7D03C080919000877F73
:100FA0008093900008958091A0008F7707C0809172
:100FB000A0008F7D03C08091A000877F8093A00058
:100FC0000895809120018F7707C0809120018F7D47
:100FD00003C080912001877F8093200108951F9393
:100FE000CF93DF93282F30E0F901E855FE4F84912D
:100FF000F901E251FE4FD491F901E25BFD4FC4913A
:10100000CC23C9F0162F81110E949907EC2FF0E034
:10101000EE0FFF1FEC5CFD4FA591B4918FB7F894D4
:10102000111105C09C91ED2FE095E92302C0EC91D0
:10103000ED2BEC938FBFDF91CF911F910895CF934C
:10104000DF9310923D0410923C041092A30310927F
:10105000A2031092A10381E08093A00310929F034A
:1010600061E084E10E94EF0761E085E10E94EF0703
:101070008091B9008E7F8093B9008091B9008D7FF7
:101080008093B90088E48093B80085E48093BC0025
:101090001092BC038091C103823018F098E09093C5
:1010A000BC038093BF0362E370E080E090E00E94A5
:1010B000ED026091C20387EB93E00E94860468EE24
:1010C00073E080E090E00E94ED0260E387EB93E044
:1010D0000E94EB04CBE4D6E4CE010197F1F760E384
:1010E00087EB93E00E94EB042197F1F760E387EB35
:1010F00093E00E94EB0483E592E00197F1F760E250
:1011000087EB93E00E94EB046091BC03606240E0D7
:1011100087EB93E00E94040584E08093BD0340E0E8
:101120006CE087EB93E00E94040540E061E087EB10
:1011300093E00E940405CBE3DFE1CE010197F1F7D4
:1011400082E08093BE0340E066E087EB93E00E947C
:10115000040540E062E087EB93E00E9404052197DC
:10116000F1F7DF91CF910895CF93DF9390E0FC01E9
:10117000E251FE4F2491FC01E25BFD4F84918823F4
:1011800061F190E0880F991FFC01E257FE4FC59175
:10119000D491FC01EC5CFD4FA591B491611109C0A3
:1011A0009FB7F8948881209582238883EC912E2321
:1011B0000BC0623061F49FB7F8943881822F80951C
:1011C00083238883EC912E2B2C939FBF06C08FB76F
:1011D000F894E8812E2B28838FBFDF91CF9108955B
:1011E000CF93809108028E3221F08F3F09F0BCC16D
:1011F00004C0E4E9F2E0C491E8C08EE28093080202
:10120000E4E9F2E0E491EF3F09F4AEC1E23009F421
:1012100072C04CF5EE2309F451C0E13009F0D4C09E
:1012200010928000109281008091810088608093EC
:10123000810080918100816080938100ECE7F2E081
:10124000E491F0E0EE0FFF1FEC5CFD4F859194916F
:101250009093490480934804ECE1F2E0E491E09338
:101260004704C1E0B4C0E43009F48BC00CF466C09C
:10127000E53009F0A9C0109220011092210180915F
:1012800021018860809321018091210181608093F8
:101290002101ECE7F2E0E491F0E0EE0FFF1FEC5CDF
:1012A000FD4F859194919093400480933F04ECE12D
:1012B000F2E0E491E0933E04C5E089C014BC15BCA3
:1012C00084B5826084BD85B5816085BDECE7F2E0C0
:1012D000E491F0E0EE0FFF1FEC5CFD4F85919491DF
:1012E00090934C0480934B04ECE1F2E0E491E093A2
:1012F0004A04C0E06CC01092B0001092B10080911E
:10130000B00082608093B0008091B10081608093D2
:10131000B100ECE7F2E0E491F0E0EE0FFF1FEC5CCF
:10132000FD4F859194919093A6038093A503ECE1E2
:10133000F2E0E491E093A403C2E049C0109290006F
:10134000109291008091910088608093910080912B
:101350009100816080939100ECE7F2E0E491F0E08D
:10136000EE0FFF1FEC5CFD4F859194919093460426
:1013700080934504ECE1F2E0E491E0934404C3E09F
:1013800026C01092A0001092A1008091A100886058
:101390008093A1008091A10081608093A100ECE77F
:1013A000F2E0E491F0E0EE0FFF1FEC5CFD4F859161
:1013B00094919093430480934204ECE1F2E0E49131
:1013C000E0934104C4E003C0CE2FC7FDCDC061E06F
:1013D0008EE20E94B408CC2309F4AFC0C23009F4F5
:1013E00049C0C130F1F480918100887F8160809391
:1013F000810089E69AE090938900809388008CEDC3
:1014000095E0A0E0B0E08093590490935A04A09333
:101410005B04B0935C0480916F00826080936F00E6
:10142000A3C0C33039F480919100887F816080939C
:1014300091003BC0C43039F48091A100887F816065
:101440008093A1004AC0C53039F480912101887F82
:1014500081608093210159C0C33039F12CF4C2302E
:1014600009F082C089E60DC0C430B9F1C53009F475
:101470004CC07AC08091B100887F83608093B100B6
:1014800082E58093B3008CED95E0A0E0B0E080931E
:10149000A7039093A803A093A903B093AA038091F4
:1014A00070008260809370005FC089E69AE090933C
:1014B0009900809398008CED95E0A0E0B0E08093D7
:1014C000550490935604A0935704B0935804809108
:1014D000710082608093710047C089E69AE0909322
:1014E000A9008093A8008CED95E0A0E0B0E0809387
:1014F000510490935204A0935304B09354048091E8
:1015000072008260809372002FC089E69AE0909307
:101510002901809328018CED95E0A0E0B0E0809354
:101520004D0490934E04A0934F04B09350048091C7
:10153000730082608093730017C085B5887F8360D5
:1015400085BD88E287BD8CED95E0A0E0B0E080939A
:101550005D0490935E04A0935F04B0936004809157
:101560006E00826080936E00CF910895CF93DF93D9
:1015700000D01F92CDB7DEB7789484B5826084BD69
:1015800084B5816084BD85B5826085BD85B5816087
:1015900085BD80916E00816080936E001092810005
:1015A00080918100826080938100809181008160C0
:1015B0008093810080918000816080938000809181
:1015C000B10084608093B1008091B000816080930D
:1015D000B000809191008260809391008091910091
:1015E0008160809391008091900081608093900051
:1015F0008091A10082608093A1008091A100816010
:101600008093A1008091A00081608093A0008091D0
:10161000210182608093210180912101816080936A
:1016200021018091200181608093200180917A00C6
:10163000846080937A0080917A00826080937A003F
:1016400080917A00816080937A0080917A0080682E
:1016500080937A001092C10082E090E0A0E0B0E0B8
:101660008093350390933603A0933703B0933803E8
:1016700085EC92E090933403809333038091700063
:101680008E7F809370008091B0008C7F8093B0003B
:101690008091B100877F8093B1008091B6008F7DEB
:1016A0008093B600809170008D7F80937000809150
:1016B000B10084608093B1008091B1008C7F8093F1
:1016C000B10086E090E090933A0380933903109242
:1016D0003C0310923D0310923E0310923F03109280
:1016E0003B038091390390913A038093B20080913B
:1016F00070008160809370000E94A40160934B038E
:1017000070934C0380934D0390934E036093470373
:10171000709348038093490390934A0380917B0020
:10172000886080937B0086E480937C0080917A00BF
:10173000806480937A0080917A0086FDFCCF60916E
:1017400078008091790070E0782B072E000C880BD0
:10175000990B611571058105910511F00E943E0FED
:1017600061E08EE20E94B4080E941F0888E0809326
:10177000C20360E087EB93E00E94860416E161E01B
:10178000812F0E94B4081F5F1E32C9F712E061E08A
:10179000812F0E94B4081F5F1E30C9F748EE842EC7
:1017A00043E0942EA12CB12C57EE252E53E0352E7C
:1017B00011E080914F03909150038130910509F41D
:1017C000D8C024F4892B09F457C007C08230910592
:1017D00009F43AC1099709F4BCC102E061E082E072
:1017E0000E94E4050E94A401A50194010E94790FC2
:1017F000CA01B9014AE00E94260661E0802F0E94DA
:10180000EF0768EE73E080E090E00E94ED0260E098
:10181000802F0E94EF0768EE73E080E090E00E9466
:10182000ED020F5F0E30D1F606E161E082E00E942A
:10183000E4050E94A401A50194010E94790FCA0148
:10184000B9014AE00E94260661E0802F0E94EF075E
:1018500068EE73E080E090E00E94ED0260E0802F8F
:101860000E94EF0768EE73E080E090E00E94ED02D6
:101870000F5F0E32D1F6BCC13092500320924F035D
:101880000E941F080E943A0F24E833E040E050E035
:101890000E94470F9B01AC012C593F4F4F4F5F4FA8
:1018A00029833A834B835C83C12CD12C76018981B7
:1018B0009A818C0D9D1D181619069CF502E061E0B9
:1018C000802F0E94EF070F5F0E30C9F749805A80C2
:1018D0006B807C804C0C5D1C6E1C7F1CC301B201B4
:1018E0000E94ED0202E060E0802F0E94EF070F5F90
:1018F0000E30C9F7C301B2010E94ED028091F103DD
:10190000882309F47DC18091D803882309F478C124
:1019100060E080E00E94E40589E193E00E94140603
:1019200067C10E94F0088091F103882379F060E09C
:1019300080E00E94E4058AEB92E00E941406E1E058
:10194000F0E0F0935003E0934F0336C18091D80349
:10195000882349F360E080E00E94E40581EE92E094
:101960000E94140621E030E03093500320934F038F
:1019700037C10E94A40160934B0370934C03809382
:101980004D0390934E0320914603C0904703D0909F
:101990004803E0904903F0904A03DC01CB018C1925
:1019A0009D09AE09BF0921110CC0883B9B40A105D0
:1019B000B10548F144E050E05093500340934F0389
:1019C00017C18C329140A105B105E8F06091040285
:1019D00070910502809106029091070240914003A8
:1019E00050914103660F771F20910202309103024C
:1019F000621B730B880F991F209100023091010226
:101A0000821B930BF3C08091E203811125C1809169
:101A1000C903811121C18091E703811131C18091F6
:101A2000CE0381112DC18091EC0381113DC18091C4
:101A3000D303811139C18091DD03811148C18091A7
:101A4000C403811144C1D4C00E94A40160934B031C
:101A500070934C0380934D0390934E036093470320
:101A6000709348038093490390934A030E94DB01DB
:101A70001092460381E090E09093500380934F03CF
:101A8000409140035091410320910402309105029E
:101A900080910602909107024130510569F5232B90
:101AA00089F49C01215031092330310528F44FEF8E
:101AB0005FEF61E070E010C004974FEF5FEF61E00F
:101AC00070E012C09C01215031092330310538F4F7
:101AD0004FEF5FEF63E070E082E090E087C0049733
:101AE0004FEF5FEF63E070E0039718F484E090E05D
:101AF0007DC088E090E07AC0232B89F49C012850B7
:101B000031092330310528F441E050E061E070E014
:101B100010C0059741E050E061E070E012C09C0108
:101B2000285031092330310538F441E050E064E0B9
:101B300070E089E090E05AC0059741E050E064E031
:101B400070E0039718F487E090E050C083E090E0E5
:101B50004DC00E94A40160934B0370934C0380938B
:101B60004D0390934E036093470370934803809313
:101B7000490390934A030E94F00810924603E1E063
:101B8000F0E0F0935003E0934F0360E080E00E94A8
:101B9000E4058091060290910702892BA1F48091BF
:101BA0004203909143030196909343038093420331
:101BB0008FEE92E00E94140641E050E062E070E097
:101BC00085E090E013C08091440390914503019615
:101BD000909345038093440383E093E00E941406AE
:101BE0004FEF5FEF62E070E086E090E00E94F0016E
:101BF00020E030E0232B09F4DCCD0E940000D8CD9A
:101C00008091D803882379F060E080E00E94E405A9
:101C100085EA92E00E94140641E050E050935003A0
:101C200040934F03CBCF8091F10354E6C51AD108FE
:101C3000E108F108882309F43ACE60E080E00E94D0
:101C4000E4058AEC92E00E94140681E090E0909313
:101C5000500380934F03C4CF809140039091410380
:101C600060910402709105022091060230910702F2
:101C7000AC01820F931F0E94F00110934603CBCE5C
:101C8000209140033091410360910402709105025C
:101C90008091060290910702A901821B930B0E947A
:101CA000F00110934603BFCE409140035091410391
:101CB0006091040270910502640F751F8091060205
:101CC000909107020E94F00110934603B4CE409118
:101CD0004003509141036091040270910502641B1E
:101CE000750B80910602909107020E94F0011093FB
:101CF00046037ECFCF93EBEAF3E01382128288EEA5
:101D000093E0A0E0B0E084839583A683B78381E964
:101D100092E091838083E0EFF3E086E38483CFE079
:101D2000C38362E00E94B408EBEEF3E087E38483B0
:101D3000C38362E00E94B408E6EEF3E088E38483A4
:101D4000C38362E00E94B408E1EEF3E089E3848398
:101D5000C38362E00E94B408ECEDF3E08AE384837D
:101D6000C38362E00E94B408E7EDF3E08BE3848371
:101D7000C38362E00E94B408E2EDF3E08CE3848365
:101D8000C38362E00E94B408EDECF3E08DE384834A
:101D9000C38362E00E94B408E8ECF3E08EE384833E
:101DA000C38362E00E94B408E3ECF3E08FE3848332
:101DB000C38362E00E94B408E7EBF3E0138212826F
:101DC00081EA92E09183808387E2848380E1818746
:101DD00082E082871386CF9108958F929F92AF926F
:101DE000BF92CF92DF92EF92FF92CF93DF93EC01FD
:101DF000688179818A819B816115710581059105D1
:101E000021F464E279ED8BE597E02DE133EF41E0D9
:101E100050E00E94470F49015A019B01AC01A7EA1B
:101E2000B1E40E94660F6B017C01ACEEB4EFA5013A
:101E300094010E94740FDC01CB018C0D9D1DAE1D21
:101E4000BF1DB7FF03C00197A109B04888839983DC
:101E5000AA83BB83BC01CD019F77DF91CF91FF9017
:101E6000EF90DF90CF90BF90AF909F908F900895AC
:101E70000C94ED0E89E092E00C94ED0E6093090253
:101E800070930A0280930B0290930C020895052E22
:101E900097FB1EF400940E945E0F57FD07D00E942E
:101EA000790F07FC03D04EF40C945E0F50954095CB
:101EB000309521953F4F4F4F5F4F089590958095F6
:101EC000709561957F4F8F4F9F4F08950E949B0F94
:101ED000A59F900DB49F900DA49F800D911D11247E
:101EE0000895B7FF0C94660F0E94660F821B930B38
:101EF0000895A1E21A2EAA1BBB1BFD010DC0AA1F4B
:101F0000BB1FEE1FFF1FA217B307E407F50720F062
:101F1000A21BB30BE40BF50B661F771F881F991FDD
:101F20001A9469F760957095809590959B01AC0126
:101F3000BD01CF010895A29FB001B39FC001A39F2F
:101F4000700D811D1124911DB29F700D811D1124F2
:101F5000911D0895EE0FFF1F881F8BBF0790F6910C
:101F6000E02D199481E090E0F8940C94B70FF89468
:021F7000FFCFA1
:101F7200FFFFFFFFFFFFFFFFFF01000000FFFFFF6A
:101F8200FFFFFFFFFFFFFFFFFF010023000300FF32
:101F9200FFFFFF190025001D00FFFFFFFF1A0024AD
:101FA200001C00FFFFFFFF1B0022001E00FFFFFFBF
:101FB200FFFFFF2A00FFFFFFFFFFFFFFFF2C00FFD5
:101FC200FFFFFFFFFF17002B001F00FFFFFFFF16A1
:101FD2000026002100FFFFFFFF18002D002000FF58
:101FE200FFFFFF020029000400FFFFFFFFFFFFFFCA
:101FF200FFFFFFFFFF00004000140054000000003C
:1020020000B30583057B056C055E055D05000000D8
:10201200002505B00152656420706C722066616C07
:1020220073652073746172742120477265656E2036
:10203200706C722077696E732100477265656E203D
:10204200706C722066616C736520737461727421A6
:102052002052656420706C722077696E7321005281
:10206200656420706C72206861732073636F72659F
:10207200642100477265656E20706C72206861731E
:102082002073636F7265642100426F746820706C04
:1020920072732066616C73652073746172742100BF
:00000001FF
