:100000000C9473010C94A4010C94A4010C94A4010D
:100010000C94A4010C94A4010C94A4010C94A401CC
:100020000C94A4010C94A4010C94A4010C94A401BC
:100030000C94A4010C94A4010C94A4010C94EC095C
:100040000C94CD080C94A4010C94A4010C94A4016C
:100050000C9466080C94A4010C94A4010C943A1C12
:100060000C94A4010C9411130C94E7120C94A401A9
:100070000C94A4010C94A4010C94A4010C94CD083C
:100080000C94A4010C94A4010C94A4010C94660893
:100090000C94A4010C94A4010C94A4010C94001AD7
:1000A0000C94A4010C94CD080C94A4010C94A4010C
:1000B0000C94A4010C9466080C94CD080C94A40133
:1000C0000C94A4010C94A4010C9466080C94A40153
:1000D0000C94A4010C94A4010C94A4010C94A4010C
:1000E0000C94A4014D1B501B3F1B431B491B871B3A
:1000F000541B581B5E1B621B661B6C1B701B741B06
:10010000871B7A1B7E1B821B0C94661B0C94DD01E3
:100110000C9422190C943C030C94EA110C943F1B90
:100120000C94581B0C94AE190C9412030C941319D4
:100130000C94741B0C94621B0C948A120C945E1B1E
:100140000C94871B0C9437240C94DB110C945A19D3
:100150000C94821B0C94DE010C94A6030C947A1B65
:100160000C94501B0C94491B0C94701B0C947E1B1C
:100170000C94BC170C94431B0C9404190C9443125C
:100180000C94A6010C94C7010C942A190C94FE112E
:100190000C94E5120C94541B0C940C120C94010B4F
:1001A0000C9408030C94E1010C944D1B0C946C1BF3
:1001B0000C940519000020002300260029002C00C3
:1001C0002F003200000100000301060109017C3C00
:1001D0003E5E2B3D3F2F5B5D3B2C2A225C000000E6
:1001E0002100240027002A002D00300033000101E7
:1001F0000000040107010A01000022002500280078
:100200002B002E003100340002010000050108011E
:100210000B0105050505070508080808020202028A
:100220000A0A080804040404010101010101010192
:100230000303030303030303040707070C0C0C0C5D
:100240000C0C0C0C02020202060606060606060646
:100250000B0B0B0B0B0B0B0B0102102020080810D3
:100260002040102040800201020108040201010226
:1002700004081020408080402010080402018004FF
:10028000020180402010080402010804020101025A
:100290000408102040800102040810204080000063
:1002A0000A0B02090C0D0E080703040100000000F0
:1002B000000000000000000000000000000000003E
:1002C00000000000000000000000121110000000FB
:1002D000000000000000000000000000000000001E
:1002E00000000000372411241FBECFEFD1E2DEBF93
:1002F000CDBF00E00CBF13E0A0E0B2E0E8ECF0E519
:1003000000E00BBF02C007900D92A23BB107D9F7E6
:1003100029E0A2EBB3E001C01D92AA3FB207E1F7CA
:1003200011E0C3E7D1E000E006C021970109802F6A
:10033000FE010E940826C237D10780E00807A9F70E
:100340000E94281D0C9462280C940000DC01599630
:10035000ED91FC915A973097B9F083899489A589DA
:10036000B6894285538564857585841B950BA60BDC
:10037000B70B811520E89207A105B10538F08FEF82
:100380009FE7A0E0B0E0089580E090E00895CF936B
:10039000DF931F92CDB7DEB76983DC01ED91FC914D
:1003A0000280F381E02D41E050E0BE016F5F7F4F9E
:1003B00019950F90DF91CF910895089580E090E016
:1003C0000895FC01818D928D009711F00C945815C1
:1003D00008958F929F92AF92BF92CF92DF92EF9249
:1003E000FF920F931F93CF93DF9300D01F92CDB74F
:1003F000DEB77C0180E2689F6001112496012F51D5
:100400003C4FD9011B969C91917121F0842F8274ED
:1004100009F097C0142FF701628B80910B02909125
:100420000C02A0910D02B0910E0286879787A08BD7
:10043000B18BF601EF51FC4F4489558960E070E0C3
:10044000BA0155274427D70157964D935D936D9375
:100450007C935A97828D938DA0E0B0E0482B592B66
:100460006A2B7B2BD70157964D935D936D937C93AD
:100470005A97D9011B968C91887159F4848D958D6A
:10048000A68DB78DF701838B948BA58BB68B81E0FE
:1004900012C0803109F055C097012D5E3F4FD70142
:1004A0005B968D919C915C970E94EF14882309F4D0
:1004B00048C084E0F7018583812F8F70D70114969F
:1004C0008C931497F70116821782108611861A965C
:1004D0001D921D921D921C921D9716FF34C01596F9
:1004E0008C91813071F511FF2CC0F701438954893B
:1004F00065897689452B462B472B09F461C040E07E
:1005000050E0BA01C7010E9496158823D1F0F70187
:100510008788908CA18CB28CC38CD48C82E090E0C4
:10052000A0E0B0E0F60180839183A283B3839E01B3
:100530002F5F3F4FB501A401C6010E946B148111CA
:1005400004C080E03DC081E03BC000E010E09801C5
:10055000B501A401C6010E94CB13882391F38980C1
:100560009A80AB80BC80D60157968C91803129F05F
:1005700088EF9FEFAFEFBFE004C088EF9FEFA0E0F0
:10058000B0E088169906AA06BB0688F2D7015796EE
:100590001D921D921D921C925A97F701138A148A7C
:1005A000158A168A848180688483C7010E94581541
:1005B000882339F240E050E0BA01C7010E94961545
:1005C0000F900F900F900F90DF91CF911F910F918F
:1005D000FF90EF90DF90CF90BF90AF909F908F9063
:1005E0000895CF93DF931F92CDB7DEB741E050E07F
:1005F000BE016F5F7F4F0E94CD17019719F489816B
:1006000090E002C08FEF9FEF0F90DF91CF910895A0
:10061000FC01818D928D009711F00C94F1028FEF07
:100620009FEF08950F931F93CF93DF93FC01818D6C
:10063000928D0097B9F0EF010E94F1028C010F3FFB
:100640008FEF180791F0898D9A8DFC0142855385B3
:100650006485758541505109610971090E9496159B
:10066000C80105C080E090E002C08FEF9FEFDF91EE
:10067000CF911F910F910895CF93DF93EC01898D56
:100680009A8D009739F481E090E09B838A8380E023
:1006900090E00BC0FC01138212820E942C16E98D9F
:1006A000FA8D22813381232B71F7DF91CF91089549
:1006B000EF92FF920F931F93CF93DF93EC0188810A
:1006C000E82EF12C2C8130E0F901E256FD4F8491A7
:1006D000F901E85AFD4F0491F901EE5EFD4F1491C6
:1006E0001123A1F081110E94321BE12FF0E0EE0FE7
:1006F000FF1FEC54FE4FA591B491EC91E02331E043
:1007000020E009F430E0832F922F02C080E090E0D7
:10071000E816F90611F01A820FC08A818F5F8A836A
:100720009B81891748F0888191E0892788831A8204
:10073000882321F0998302C080E001C081E0DF912D
:10074000CF911F910F91FF90EF90089587E599E069
:100750000E94580382E599E00E9458038DE499E0D5
:100760000E94580388E499E00E94580383E499E0CA
:100770000E9458038EE399E00E94580389E399E0B0
:100780000E94580384E399E00E9458038FE299E0A5
:100790000E9458038AE299E00C945803CF93DF93A8
:1007A000EC010E945815882311F01D8281E0DF9131
:1007B000CF9108953F924F925F926F927F928F9266
:1007C0009F92AF92BF92CF92DF92EF92FF920F93E0
:1007D0001F93CF93DF93CDB7DEB72C970FB6F89466
:1007E000DEBF0FBECDBF5C01DC015B968D909C909F
:1007F0005C971696CD90DD90ED90FC901997C11402
:10080000D104E104F10439F0BFEFCB1ADB0AEB0AA3
:10081000FB0A312C07C0F401C080D180E280F38054
:1008200033243394F40181859285A385B4859C019A
:10083000AD012F5F3F4F4F4F5F4F29873A874B875F
:100840005C87260137011D821E821F821886F401F3
:1008500081859285A385B4852D813E814F81588500
:10086000281739074A075B0708F063C089859A850E
:10087000AB85BC858C159D05AE05BF0550F482E0A7
:10088000C82ED12CE12CF12C92E0492E512C612C58
:10089000712C9E012F5F3F4FB701A601C4010E943A
:1008A0006B14882309F445C089819A81AB81BC818E
:1008B000892B8A2B8B2B41F0260137019FEF491A98
:1008C000590A690A790A05C0C414D504E604F70474
:1008D00091F02D813E814F8158852F5F3F4F4F4FC3
:1008E0005F4F2D833E834F8358873FEFC31AD30A50
:1008F000E30AF30AACCF0FEF1FEF2FEF3FE0B30196
:10090000A201C4010E94CB13882399F0D501169649
:100910004D915D916D917C9119974115510561053E
:10092000710549F093018201C4010E94CB1381112A
:1009300002C080E02AC0D50116964D925D926D925C
:100940007C921997332051F0D301C2010196A11D69
:10095000B11DF40180839183A283B383F50187895C
:10096000908DA18DB28D892B8A2B8B2B69F4D501AB
:1009700057964D925D926D927C925A9714968C91F7
:100980001497806814968C9381E02C960FB6F89497
:10099000DEBF0FBECDBFDF91CF911F910F91FF90B2
:1009A000EF90DF90CF90BF90AF909F908F907F900F
:1009B0006F905F904F903F9008954F925F926F922B
:1009C0007F929F92AF92BF92CF92DF92EF92FF926F
:1009D0000F931F93CF93DF93CDB7DEB72B970FB64F
:1009E000F894DEBF0FBECDBF7C01DC011596AC9044
:1009F000A1108AC1FE0131966F0190E28BE08E0F4B
:100A000091938E13FDCFDA0130E087E09D91992319
:100A100039F19E3219F0EEECF1E00AC08A3009F4A7
:100A200074C138E08AE0F2CF3196491709F46DC1FC
:100A300044914111F9CF831708F467C14FED490F75
:100A40004E3508F062C141E0430FF601E30FF11D9E
:100A50003FE9390F3A3108F490529083342FD6CFC2
:100A60008981803209F451C1B22E8B01DB015B9682
:100A70008D919C915C97F701948F838F16961D92B0
:100A80001D921D921C921997FB01128613861486E3
:100A90001586712CF80182859385A485B5854389D7
:100AA00054896589768984179507A607B70708F0E2
:100AB00061C025E0B695A795979587952A95D1F7BA
:100AC000F82FFF706F2ED80115968C91823008F4A4
:100AD0001CC1C8010E94F10297FD17C1F80182856F
:100AE0009385A485B5854F96A11DB11D82879387F7
:100AF000A487B587F0E26F9EC0011124BC016F513D
:100B00007C4F6115710509F400C1DB012C91222392
:100B100019F0253EC1F427C071100EC0F701628A9A
:100B200040910B0250910C0260910D0270910E02E7
:100B300046875787608B718BFC01EF51FC4F80819A
:100B4000811113C015C04BE050E0C6010E942B2854
:100B5000892B09F09FCF8B2D8073803309F4D5C08A
:100B60004B2D662DCCC07720C9F27724739492CF99
:100B7000772473948B2D8271823109F0C6C077205F
:100B8000D1F0D7011E966D917D918D919C915197D9
:100B900041E00E948213882309F4B7C0F7016289FB
:100BA000F0E26F9FB00111246F517C4F6115710508
:100BB00009F079C0AAC0D80115968C91823009F449
:100BC000A4C0C8010E94DA03882309F49EC0D8019A
:100BD0005B96ED91FC915C9716964D905D906D90B3
:100BE0007C901997B2E04B1A51086108710805848E
:100BF00004C0440C551C661C771C0A94D2F78685E9
:100C00009785A089B189480E591E6A1E7B1E948063
:100C1000E1E04E1A510861087108992009F10E941B
:100C20004713882309F471C0E1EEF3E0119225E047
:100C3000E13EF207D9F7D301C201890D911DA11D33
:100C4000B11D80930B0290930C02A0930D02B09300
:100C50000E0280915C09816080935C099A94DDCFDB
:100C6000D8015B96ED91FC915C9780E092E0A0E06A
:100C7000B0E0058404C0880F991FAA1FBB1F0A9407
:100C8000D2F7F8014389548965897689840F951FC5
:100C9000A61FB71F838B948BA58BB68BD70152965B
:100CA0001C9261EE73E080E2FB0111928A95E9F7F4
:100CB0008BE0F601DB0101900D928A95E1F781E26C
:100CC00098E2DB0151969C938E93509720E038E098
:100CD0001F963C932E931E9753969C938E935297F8
:100CE00059969C938E93589757963C932E9356976C
:100CF0000E944713882349F04B2DF7016289C701F1
:100D00000E94E901A82E01C0A12C8A2D2B960FB6B6
:100D1000F894DEBF0FBECDBFDF91CF911F910F9131
:100D2000FF90EF90DF90CF90BF90AF909F907F901B
:100D30006F905F904F9008958FB7F8948091D8038B
:100D40008FBF089561E0FC0184810E94881B80911F
:100D5000D70381111092D70308958EBD00000DB402
:100D600007FEFDCF8EB508958FEF0C94AD060F935F
:100D70001F93CF93DF93EB010E942E1C8B010E94E7
:100D8000B4068F3F49F00E942E1C601B710B6C173C
:100D90007D07A8F380E001C081E0DF91CF911F9132
:100DA0000F910895CF93DF93EC018E81882389F012
:100DB0008F8198859C012F5F3F4F38872F8382302A
:100DC000924018F40E94B406F3CFCE010E94A2060E
:100DD0001E82DF91CF9108958CBD9DBD0895CF9364
:100DE000DF93EC018091D703811109C081E08093EA
:100DF000D70380919D0890919E080E94EC0660E0C8
:100E00008C81DF91CF910C94881BCF92DF92FF925F
:100E10000F931F93CF93DF9300D01F92CDB7DEB710
:100E20006C01F62E29833A834B835C830E94D206A1
:100E3000C6010E94EF066CE271E0C6010E94B7068F
:100E40008F2D80640E94AD0608E110E05C814B812B
:100E50003A812981DA01C901002E04C0B695A7950F
:100E6000979587950A94D2F729833A834B835C83BD
:100E70000E94AD060850110929813A814B815C819D
:100E8000083F8FEF180731F7FF2029F0E8E0FE1246
:100E900004C087E803C085E901C08FEF0E94AD065A
:100EA00010E00E94B406F601828787FF04C01F3F4E
:100EB00011F01F5FF6CF0F900F900F900F90DF9102
:100EC000CF911F910F91FF90DF90CF900895AF9237
:100ED000BF92CF92DF92EF92FF920F931F93CF9327
:100EE000DF93EC016901C801820F931F81309240AA
:100EF00008F070C08E81882371F088819981AA8161
:100F0000BB81481759076A077B0729F48F819885A9
:100F1000C816D906B0F5488359836A837B838B85CD
:100F2000833039F089E0440F551F661F771F8A957B
:100F3000D1F79A01AB0161E1CE010E940507882338
:100F400019F083E08D8346C00E942E1C5B010E9435
:100F5000B4068A878F3F49F40E942E1C6A197B09C8
:100F60006D327140A0F38FE003C08E3F31F08DE011
:100F70008D83CE010E94A2062DC018861F8281E0BB
:100F80008E838F8198858C159D0540F40E94B40650
:100F90008F819885019698878F83F3CF6701E00E44
:100FA000F11ECE14DF0431F00E94B406F6018193E5
:100FB0006F01F7CF8F819885080F191F18870F834E
:100FC0008985882319F00115124048F0CE010E944E
:100FD000D20605C0CE010E94A20680E001C081E0D9
:100FE000DF91CF911F910F91FF90EF90DF90CF9005
:100FF000BF90AF900895EF92FF920F931F93CF93FE
:10100000DF93EC017901411551056105710511F47A
:1010100082E13CC08B85833039F089E0440F551F55
:10102000661F771F8A95D1F79A01AB0168E1CE015F
:101030000E940507882311F084E028C08EEF0E94EB
:10104000AD0687018EEFF81AF80181918F010E9499
:10105000AD060E151F05C1F78FEF0E94AD068FEF8D
:101060000E94AD060E94B4068A878F71853031F0E8
:1010700081E18D83CE010E94A20609C068E572E07D
:10108000CE010E94B706811107C085E18D83CE0194
:101090000E94A20680E013C020E030E0A9016DE0CC
:1010A000CE010E940507811104C00E94B406882366
:1010B00011F084E1EBCFCE010E94A20681E0DF9126
:1010C000CF911F910F91FF90EF9008951F920F9273
:1010D0000FB60F9211240BB60F928F939F93AF937D
:1010E000BF93CF93DF93EF93FF9380910A0286FD26
:1010F0003AC08091F30790E0880F991FFC01E259F4
:10110000FD4FA081B181FC01EA59FD4FC081D18121
:10111000E091EB058091EA059EEFE99FF001112433
:10112000E80FF11DE451FA4F808190E099838883A4
:1011300011969C938E938091EA058F5F8093EA05C8
:101140008091EA058E3FD0F01092EA05E091EB0520
:10115000F0E0E85FFD4F81E080839091EB05892707
:101160008093EB050BC09091D60381E08927809393
:10117000D6038091D603882309F4BBCFFF91EF916A
:10118000DF91CF91BF91AF919F918F910F900BBE47
:101190000F900FBE0F901F9018951F920F920FB6D1
:1011A0000F9211240BB60F922F933F934F935F939F
:1011B0006F937F938F939F93AF93BF93EF93FF931F
:1011C000E091EB0581E0E827F0E0E85FFD4F9081DA
:1011D000992309F468C09091EB0589278093D50382
:1011E000E091F307F0E0EE0FFF1FEA58FD4F01908A
:1011F000F081E02D80818F7D808378948FE998E065
:101200000E94A6012091E8073091E90728173907C5
:1012100028F180910A0283FF07C06CE270E080E051
:1012200090E00E944B0C32C0E091F307F0E0EE0F2B
:10123000FF1FEA58FD4F0190F081E02D80818E7DE7
:101240008083E091B808F091B908309721F085814A
:1012500081110E94610D1092EA0725C06091D503AB
:101260008EEF689FB001112464517A4F8091B808C5
:101270009091B908009721F04EEF50E00E94CD17F1
:10128000E091D503F0E0E85FFD4F1082E091F307B5
:10129000F0E0EE0FFF1FEA58FD4F0190F081E02DC6
:1012A000808180628083FF91EF91BF91AF919F9188
:1012B0008F917F916F915F914F913F912F910F90FF
:1012C0000BBE0F900FBE0F901F901895FC01DB0115
:1012D00012968D919C911397938382838EEB92E06B
:1012E0009183808314968C911497848315968C91A6
:1012F0001597858316964D915D916D917C91199707
:1013000046835783608771871A964D915D916D91E1
:101310007C911D9742875387648775871E964D91F0
:101320005D916D917C91519746875787608B718B4A
:1013300052968C915297828B53964D915D916D91FF
:101340007C915697438B548B658B768B57964D913A
:101350005D916D917C915A97478B508F618F728F01
:101360005B968D919C915C97948F838F0895EF92FB
:10137000FF920F931F93CF93DF93EC017B018A01C0
:101380001B821A8288EE93E0A0E0B0E08C839D83FC
:10139000AE83BF838AEC92E0998388838DE190E0ED
:1013A0000E9410269A8F898F009779F02DE1F7011E
:1013B000DC0101900D922A95E1F74CE050E0B80174
:1013C000CE010C960E945328188EDF91CF911F9169
:1013D0000F91FF90EF9008951F920F920FB60F920A
:1013E00011240BB60F922F933F934F935F936F93FC
:1013F0007F938F939F93AF93BF93EF93FF938091CE
:10140000B8039091B9038093B2008091BB0390918F
:10141000BC03A091BD03B091BE030196A11DB11DF7
:101420008093BB039093BC03A093BD03B093BE0312
:101430008091BB039091BC03A091BD03B091BE030A
:101440004091B4035091B5036091B6037091B70316
:1014500084179507A607B70710F18091BA03811189
:101460001EC081E08093BA038091BB039091BC03BE
:10147000A091BD03B091BE03841B950BA60BB70BC7
:101480008093BB039093BC03A093BD03B093BE03B2
:10149000E091B203F091B30319951092BA03FF9152
:1014A000EF91BF91AF919F918F917F916F915F91DC
:1014B0004F913F912F910F900BBE0F900FBE0F9049
:1014C0001F901895CF93FC01C48121E020938109DE
:1014D000C093D4031092E7051092E6058385682B2C
:1014E00084EF97E00E945A198091E605813208F056
:1014F00046C09091E5059111FCCF92E09093E505EF
:1015000091E09093E4059FEF909382091092A409D3
:101510008093A309A1E6B9E023E839E0F9019E2F01
:10152000921B981718F49D919193F9CF1092A509E9
:101530008091A509CC0FC82BC093A5098091E30524
:10154000813061F41092E3058091A5098093BB007E
:101550008091BC0083FDF8CF85EC01C085EE8093BF
:10156000BC008091E5058230E1F3809182098F3FD4
:1015700031F080918209803211F0809182091092BD
:10158000E7051092E60510928109CF9108950F9317
:101590001F93CF938C01C62F0E94620A6C2F646048
:1015A000C8010E94620A6C2F6B7FC8010E94620A08
:1015B00083EC90E00197F1F7CF911F910F9108957F
:1015C000FF920F931F93CF93DF931F92CDB7DEB798
:1015D0008C01F62E962F907F692F642BC8014983CA
:1015E0000E94C70A80E1F89EB00111244981642B52
:1015F000C8010F90DF91CF911F910F91FF900C9434
:10160000C70A41E00E94E00A81E090E0089510924C
:1016100058091092530910924E09109249091092DC
:10162000440910923F0910923A091092350910921C
:10163000300910922B09089520910602309107027B
:1016400030930102209300022091040230910502A0
:1016500030930302209302022091BF033091C00314
:101660003093D3032093D203909307028093060212
:1016700070930502609304025093C0034093BF032C
:101680000E942E1C6093C5037093C6038093C7030A
:101690009093C8036093C1037093C2038093C30304
:1016A0009093C4030E94070B809106029091070259
:1016B00025E0289FF001299FF00D1124809104025C
:1016C00090910502E80FF91FE75EFD4F80818F3F83
:1016D00019F061E00E94881B809100029091010244
:1016E00025E0289FF001299FF00D1124809102022E
:1016F00090910302E80FF91FE75EFD4F60E08081E3
:101700000E94881B2091040230910502C9018B7F41
:10171000892B19F482E090E014C080910602909128
:1017200007022230310539F4009711F00B9769F464
:1017300089E090E006C0009711F00B9731F483E048
:1017400090E09093CA038093C90308958091F307B2
:1017500090E0880F991FFC01E257FD4F0190F08146
:10176000E02D2091F0073091F10731832083FC01B7
:10177000EA57FD4F0190F081E02D82E88083E091EF
:10178000F307F0E0EE0FFF1FE258FD4F0190F081EC
:10179000E02D89E180830895E091B808F091B908BF
:1017A000309729F08581882311F081E0089508950C
:1017B000CF93DF93CDB7DEB728970FB6F894DEBF8F
:1017C0000FBECDBF28E0E5E5F2E0DE011196019005
:1017D0000D922A95E1F720912609261710F46FEF54
:1017E000620FFE013196E60FF11DE60FF11D9081AB
:1017F000682F690F606840E08EE199E028960FB687
:10180000F894DEBF0FBECDBFDF91CF910C94E00AFC
:101810008F929F92AF92BF920F931F93CF93DF93BC
:10182000CDB7DEB7A1970FB6F894DEBF0FBECDBF20
:1018300019A2423008F44AE08E010F5D1F4F842E3A
:10184000912CA12CB12CA50194010E94D725E62F43
:10185000B901CA0101501109EA3014F4E05D01C078
:10186000E95CD801EC93232B242B252B61F7B801DD
:101870008EE199E00E94131DA1960FB6F894DEBF89
:101880000FBECDBFDF91CF911F910F91BF90AF9051
:101890009F908F9008952091B8083091B908211534
:1018A000310541F0AB01BC01C9010E94961591E0E0
:1018B000811101C090E0892F08952F923F924F929D
:1018C0005F926F927F928F929F92AF92BF92CF92D0
:1018D000DF92EF92FF920F931F93CF93DF93CDB7D9
:1018E000DEB7C756D1090FB6F894DEBF0FBECDBF25
:1018F0005C014B01A6964FAFA6973E018EE1680EA4
:10190000711C64EE78E0C3010E9466091C821B8290
:101910008EEB92E09A8389831E827401FE013196D8
:101920006F0123011F016FE270E0C7010E9441288F
:101930000097F1F1F70120812F3221F4FFEFEF1A28
:10194000FF0AF1CF8E198D3008F08CE0082F10E0DF
:10195000A801B701CE01885A9F4F0E945328E8E59D
:10196000F0E0EC0FFD1FE00FF11F1082C6010E9496
:10197000CE0321E0AE01485A5F4FB201C6010E947A
:10198000DD0481110AC01EAE1DAE8EEB92E09CAF4D
:101990008BAF21961FAE219717C0E00EF11EC2013A
:1019A0000E94CE03942D852D2601C92ED82EBBCFA3
:1019B000C70188199909A8969FAF8EAFA897B20161
:1019C000CE01CB960E946609A896EEADFFADA89712
:1019D0008E0E9F1EF4018081811109C0BE01655CDD
:1019E0007F4FC1010E9466094FEA53E04BC019A224
:1019F00018A28EEB92E09F8F8E8F1BA221968FAD47
:101A00002197811113C0F5011382128288EE93E0B1
:101A1000A0E0B0E084839583A683B7838AEC92E04C
:101A200091838083128E118E148630C08250A696C8
:101A30002FADA697A401823040F464EE78E0C30194
:101A40000E94DD0481110DC0DECFBE01655C7F4FB9
:101A5000C3010E94DD048823B1F2CE01CB960E941F
:101A6000CE03A6968FADA697867039F049A95AA9DC
:101A70006BA97CA9C3010E949615B301C1010E9404
:101A80006609A401B101C5010E94B709C501C95980
:101A9000DF4F0FB6F894DEBF0FBECDBFDF91CF9101
:101AA0001F910F91FF90EF90DF90CF90BF90AF907C
:101AB0009F908F907F906F905F904F903F902F906E
:101AC00008958091B8089091B908009761F00E943C
:101AD000CE038091B8089091B9080E94A526109273
:101AE000B9081092B80808951092EA07E091F30738
:101AF000F0E0EE0FFF1FEA58FD4F0190F081E02D5E
:101B000080818E7D80830E94CC0B81110C94610DAD
:101B100008952F923F924F925F926F927F928F9291
:101B20009F92AF92BF92CF92DF92EF92FF920F936C
:101B30001F93CF93DF93CDB7DEB76B970FB6F894B3
:101B4000DEBF0FBECDBF5C019091EB078091F20725
:101B5000981709F4ACC01092EA07E091F307F0E09F
:101B6000EE0FFF1FEA58FD4F0190F081E02D8081BC
:101B70008E7D80830E94CC0B81110E94610D80912B
:101B8000F30790E0880F991FFC01EA57FD4F008191
:101B90001181D8012C9127FD20C020910A022062DA
:101BA00020930A02FC01E258FD4F0190F081E02DE4
:101BB0001082F801108261E08091EB070E94B81B4F
:101BC0008091EB07863009F460C08E3209F461C061
:101BD000853009F060C081E059C0FC01E259FD4F39
:101BE000E080F180D7016D917C919B01AB01FC01FC
:101BF000EA59FD4F2F01DC01A25ABD4F3D01E09192
:101C0000F007F091F107D901A61BB70BAE17BF077C
:101C100020F6D201CD90DC9037FD06C0D901E21745
:101C2000F30720F4DF0102C0A0E0B0E0F601B183C9
:101C3000A08357FD0AC0A091F007B091F107FA0107
:101C4000A417B50720F4FD0102C0E0E0F0E0D701E1
:101C50001196FC93EE93F30180809180A091F007A0
:101C6000B091F1071D01F2E32F1A3108EAE0F0E02C
:101C7000D401CD90DC90C214D304D0F33197C1F7D6
:101C8000415051092F5F3F4FBACF82E08093F30755
:101C900004C083E0FBCF1092F3078DB581608DBD4A
:101CA0008CB58C7F8CBD8091EB078093F2070E94EE
:101CB000740D41E0B501CE0101960E945D0C8B814F
:101CC0009C819093A2088093A1088D819E81AF8111
:101CD000B8858093A3089093A408A093A508B09317
:101CE000A60889859A85AB85BC858093A7089093C3
:101CF000A808A093A908B093AA088DE0FE013D961C
:101D0000ABEAB8E001900D928A95E1F78A8D9B8D40
:101D10009093B9088093B8080E94CC0B882309F4EB
:101D200056C168E070E080E090E00E944B0C87E5CF
:101D3000898381E48A8386E58B8385E48C838E01A5
:101D40000F5F1F4F54E0F52EF00E8FE998E00E94D0
:101D50000803F80121918F01022E000C330B82172A
:101D6000930711F4FE12F1CF68E170E080E090E09B
:101D70000E944B0C8FE998E00E9408039093EF07B4
:101D80008093EE078FE998E00E94080320E030E09E
:101D9000382F8091EE079091EF07822B932B909331
:101DA000EF078093EE076CE270E080E090E00E9425
:101DB0004B0C8EEF90E09093E9078093E80781E069
:101DC0008093EA07F0900A028F2D8F7780930A02A2
:101DD0008091EE079091EF078B3F9F4A30F080ECA7
:101DE0009DE59093EF078093EE072091EE073091E9
:101DF000EF0740E050E0F6FE05C060E075E38CE0E0
:101E000090E004C060E07AE688E190E00E94A525B9
:101E10006AE0629FC001639F900D11249093F107C7
:101E20008093F0078FE998E00E9408038C018FE906
:101E300098E00E941203800F911F97FD01968C017C
:101E400015950795F5FC19C08F2D8F7580930A02A3
:101E5000E091F307F0E0EE0FFF1FE259FD4F019014
:101E6000F081E02D20813181C80199272817390799
:101E700008F07EC040E050E038C08091F30790E069
:101E8000880F991FFC01E259FD4F0190F081E02D70
:101E900011821082FC01EA59FD4FC080D1808091EF
:101EA000F0079091F107D60111969C938E930E94B2
:101EB000A60B20E030E063E572E08091F00790919E
:101EC000F1072817390708F0BFCFAC01421B530BAD
:101ED0008417950708F4AC01F60151834083CB01C8
:101EE0000197F1F72F5F3F4FE8CFB9016F5F7F4F49
:101EF0006217730728F09B018617970708F49C0167
:101F0000FA01E451FA4F20834F5F5F4F4E3F510576
:101F100061F740E050E0B9016F5F7F4F62177307D0
:101F200028F09B018617970708F49C01FA01E651F7
:101F3000F94F20834F5F5F4F4E3F510561F710927D
:101F4000EB0510920802109209021092EA05F8942B
:101F50000E94A60BE091F307F0E0EE0FFF1FEA5896
:101F6000FD4F0190F081E02D81E2808378942FC0B5
:101F700040E050E0B901615071096817790728F015
:101F80006217730718F49B0101C09C01FA01E45128
:101F9000FA4F20834F5F5F4F4E3F510559F740E0A6
:101FA00050E0B901615071096817790728F062178C
:101FB000730718F49B0101C09C01FA01E651F94F27
:101FC00020834F5F5F4F4E3F510559F7B8CF6B9657
:101FD0000FB6F894DEBF0FBECDBFDF91CF911F913A
:101FE0000F91FF90EF90DF90CF90BF90AF909F90B8
:101FF0008F907F906F905F904F903F902F900895BB
:10200000CF93DF931092E9051092E8051092E7054F
:102010001092E6051092E50581E08093E4051092A8
:10202000E30561E084E10E94881B61E085E10E9494
:10203000881B8091B9008E7F8093B9008091B90090
:102040008D7F8093B90088E48093B80085E4809305
:10205000BC001092230980912809823018F098E082
:10206000909323098093260962E370E080E090E07A
:102070000E94F41B609129098EE199E00E94620A96
:1020800068EE73E080E090E00E94F41B60E38EE174
:1020900099E00E94C70ACBE4D6E4CE010197F1F79C
:1020A00060E38EE199E00E94C70A2197F1F760E3AF
:1020B0008EE199E00E94C70A83E592E00197F1F76B
:1020C00060E28EE199E00E94C70A60912309606294
:1020D00040E08EE199E00E94E00A84E080932409C8
:1020E00040E06CE08EE199E00E94E00A40E061E0AF
:1020F0008EE199E00E94E00ACBE3DFE1CE01019797
:10210000F1F782E08093250940E066E08EE199E0F6
:102110000E94E00A40E062E08EE199E00E94E00A5D
:102120002197F1F7DF91CF910895CF93DF93FC01D1
:10213000448155816081718180E098E00E94AE19F0
:10214000EC016AE073E080E098E00E94131D8C0FC0
:102150009D1FDF91CF9108958F929F92AF92BF9272
:10216000CF92DF92EF92FF92CF93DF93C82F8AEB4B
:1021700098E09093E2058093E105CC2369F1C530A6
:1021800010F080E00DC140E060E070E0CB010E9403
:1021900082138823B1F320E1C29FC00111248F5222
:1021A0009C4FFC01E254FE4F20812F7751F73C9663
:1021B0004081518162817381443651056105710509
:1021C00000F33497C080D180E280F380C114D10441
:1021D000E104F10421F4D5CFC12CD12C760140E0EB
:1021E000C701B6010E948213882359F28091EC0343
:1021F0009091ED038115924021F6A091F103AA235D
:1022000009F4BFCF6091EF037091F0036115710580
:1022100009F4B7CF2091EE03222309F4B2CFA093A3
:10222000D8082093CA0880E030E0E1E0F0E0C82F51
:10223000AF01082E02C0440F551F0A94E2F724177D
:10224000350741F0982F8F5F983089F789E08093A8
:10225000D30897CF8093D3082091F7033091F803E8
:102260002115310519F040E050E008C02091050427
:102270003091060440910704509108042093CB0844
:102280003093CC084093CD085093CE0846015701B7
:10229000860E971EA11CB11C8092D9089092DA0874
:1022A000A092DB08B092DC08E091F203F091F30316
:1022B000F093DF08E093DE08B0E00E94C425860EAC
:1022C000971EA81EB91E8092E0089092E108A09285
:1022D000E208B092E30885E0EE0FFF1F8A95E1F770
:1022E000E150FE4FEF2FFF27E6958E0E9F1EA11C9B
:1022F000B11C8092D4089092D508A092D608B092D2
:10230000D7082091F4033091F5032115310521F010
:10231000A90160E070E008C04091010450910204FE
:102320006091030470910404D701C60188199909CA
:10233000AA09BB09840F951FA61FB71F04C0B69535
:10234000A79597958795CA95D2F78093CF089093D4
:10235000D008A093D108B093D208853F2FE0920710
:10236000A105B10510F48CE018C0853F9F4FA10571
:10237000B10510F480E111C080910D0490910E041C
:10238000A0910F04B09110048093E0089093E108AD
:10239000A093E208B093E30880E28093DD0881E037
:1023A000DF91CF91FF90EF90DF90CF90BF90AF90F3
:1023B0009F908F900895FC01538D448D252F30E020
:1023C000842F90E0821B930B541710F0CF96089542
:1023D00001970895FC01918D828D981761F0828D8F
:1023E000DF01A80FB11D5D968C91928D9F5F9F7349
:1023F000928F90E008958FEF9FEF0895FC01918DEB
:10240000828D981731F0828DE80FF11D858D90E057
:1024100008958FEF9FEF0895FC01918D228D892FF4
:1024200090E0805C9F4F821B91098F7399270895DC
:1024300080E098E00E940C1221E0892B09F420E052
:10244000822F0895FC01848DDF01A80FB11DA35ACE
:10245000BF4F2C91848D90E001968F739927848FC4
:10246000A689B7892C93A089B1898C9180648C93BB
:10247000938D848D981306C00288F389E02D8081A6
:102480008F7D80830895EF92FF920F931F93CF93D8
:10249000DF93EC0181E0888F9B8D8C8D981305C0B4
:1024A000E889F989808185FD24C0F62E0B8D10E026
:1024B0000F5F1F4F0F731127E02E8C8DE8120CC099
:1024C0000FB607FCFACFE889F989808185FFF5CF3F
:1024D000CE010E942212F1CF8B8DFE01E80FF11D7B
:1024E000E35AFF4FF0820B8FEA89FB89808180627B
:1024F00007C0EE89FF896083E889F989808180645B
:10250000808381E090E0DF91CF911F910F91FF9048
:10251000EF900895CF93DF93EC01888D8823C9F065
:10252000EA89FB89808185FD05C0A889B9898C91DC
:1025300086FD0FC00FB607FCF5CF808185FFF2CF77
:10254000A889B9898C9185FFEDCFCE010E94221216
:10255000E7CFDF91CF91089580E090E0892B21F0C3
:102560000E941812811125C080E090E0892B41F073
:1025700080E090E0892B21F00E94000081111CC0B6
:1025800080E090E0892B41F080E090E0892B21F001
:102590000E940000811113C080E090E0892BA1F01F
:1025A00080E090E0892B81F00E94000081110AC038
:1025B00008950E940000D8CF0E940000E1CF0E9441
:1025C0000000EACF0C94000008950E9426281F9274
:1025D0000F920FB60F9211240BB60F922F933F93C9
:1025E0004F935F936F937F938F939F93AF93BF931B
:1025F000EF93FF9380E098E00E942212FF91EF9109
:10260000BF91AF919F918F917F916F915F914F910A
:102610003F912F910F900BBE0F900FBE0F901F9008
:1026200018951F920F920FB60F9211240BB60F92AE
:102630002F938F939F93EF93FF93E0911008F09166
:1026400011088081E0911608F091170882FD12C0F0
:102650009081809119088F5F8F7320911A088217DB
:1026600051F0E0911908F0E0E050F84F958F809319
:10267000190801C08081FF91EF919F918F912F9157
:102680000F900BBE0F900FBE0F901F90189580916A
:102690005C098823A9F140910B0250910C026091D2
:1026A0000D0270910E0221EE33E08091E1059091D0
:1026B000E2050E94FB07811102C080E0089540916D
:1026C0005D0950915E0960915F0970916009411543
:1026D00051056105710591F021EE33E08091E1052E
:1026E0009091E2050E94FB07882339F310925D095F
:1026F00010925E0910925F091092600910925C09B5
:1027000081E008958F929F92AF92BF92EF92FF92D5
:102710000F931F93CF934B015C01C42F80910B0249
:1027200090910C02A0910D02B0910E0288159905AE
:10273000AA05BB0501F10E944713811102C080E088
:1027400020C081EEE82E83E0F82E00E012E020E0C9
:1027500030E0B501A4018091E1059091E2050E946D
:102760006707882361F380920B0290920C02A0927B
:102770000D02B0920E0280915C09C82BC0935C09D7
:1027800081E0CF911F910F91FF90EF90BF90AF909C
:102790009F908F9008954F925F926F927F928F9249
:1027A0009F92AF92BF92CF92DF92EF92FF920F93E0
:1027B0001F93CF93DF93EC016A017B01280139015C
:1027C000423051056105710510F480E073C08985C0
:1027D0009A85AB85BC850196A11DB11D841795070F
:1027E000A607B70790F38B889C88AD88BE888F8931
:1027F000803129F4BB27AF2D9E2D8D2D09C0DB0123
:10280000CA0147E0B695A795979587954A95D1F760
:10281000880E991EAA1EBB1E80910B0290910C027D
:10282000A0910D02B0910E0288169906AA06BB0669
:1028300079F48F898031A1F4DD24EE24FF24C601D0
:10284000880F991FFC01EF51FC4F5182408219C043
:1028500040E0C501B4010E9482138111EACFB5CFD7
:10286000E894C7F8DD24EE24FF24C601880F991FE1
:10287000880F991FFC01EF51FC4F40825182628208
:10288000738280915C09816080935C098A898230BF
:1028900080F08D819E81AF81B885880E991EAA1E19
:1028A000BB1E80925D0990925E09A0925F09B09272
:1028B000600981E0DF91CF911F910F91FF90EF9020
:1028C000DF90CF90BF90AF909F908F907F906F9050
:1028D0005F904F9008958F929F92AF92BF92CF9248
:1028E000DF92EF92FF920F931F93CF93DF93FC0140
:1028F00081859285A385B4850196A11DB11D84179C
:102900009507A607B70710F480E05CC08389948917
:10291000A589B689C789C03129F4852E962EA72EA0
:10292000BB2409C04A015B01C7E0B694A794979401
:102930008794CA95D1F7E9016A017B018F01BC0137
:10294000CD01680D791D8A1D9B1D80900B02909012
:102950000C02A0900D02B0900E02681579058A0550
:102960009B0599F4F80187898031A9F4B701A60184
:10297000552766277727440F551FFA01EF51FC4F63
:1029800080819181A0E0B0E018C040E00E948213F5
:102990008111E8CFB9CFB701A6014F775527662738
:1029A0007727440F551F440F551FFA01EF51FC4F75
:1029B00080819181A281B381BF7088839983AA832A
:1029C000BB8381E0DF91CF911F910F91FF90EF903A
:1029D000DF90CF90BF90AF909F908F9008954F92CF
:1029E0005F926F927F92AF92BF92CF92DF92EF92FF
:1029F000FF920F931F93CF93DF9300D01F92CDB719
:102A0000DEB78C0149835A836B837C835901C12CC7
:102A1000D12C7601412C82E0582E612C712C4981F9
:102A20005A816B817C819E012F5F3F4FC8010E94BC
:102A30006B14882351F1D301C201F801058404C04D
:102A4000880F991FAA1FBB1F0A94D2F7C80ED91E60
:102A5000EA1EFB1E49815A816B817C818789803106
:102A600029F088EF9FEFAFEFBFE004C088EF9FEF42
:102A7000A0E0B0E0481759076A077B0780F2F5012C
:102A8000C082D182E282F38281E00F900F900F909A
:102A90000F90DF91CF911F910F91FF90EF90DF90FA
:102AA000CF90BF90AF907F906F905F904F900895C0
:102AB000CF93DF93EC018D818823A1F18C8187FF77
:102AC0002DC06E857F858889998941E00E94821397
:102AD000882341F1EA8980E2E89FF0011124DF01B7
:102AE000AF51BC4F1097F1F08D81823050F44B897B
:102AF0005C896D897E895C964D935D936D937C9323
:102B00005F978F89988DA98DBA8DEF51FC4F938F68
:102B1000828FB58BA48B8C818F778C83DF91CF9143
:102B20000C94471380E0DF91CF9108958F929F928C
:102B3000AF92BF92CF92DF92EF92FF920F931F93CB
:102B4000CF93DF93EC018D81811102C080E077C0CB
:102B50000B891C892D893E8904171507260737071D
:102B6000A8F36A017B01823029F4CA86DB86EC86F1
:102B7000FD860DC0C114D104E104F10451F41E829C
:102B80001F82188619861A861B861C861D8681E080
:102B900056C08A849B84AC84BD84EB8DFC8D2585D6
:102BA00030E0275F3F4FB501A40141505109610951
:102BB0007109022E04C076956795579547950A943A
:102BC000D2F7D701C6010197A109B10904C0B69592
:102BD000A795979587952A95D2F784179507A60705
:102BE000B70720F089288A288B2849F44F89588D07
:102BF000698D7A8D4E835F836887798704C0841BD3
:102C0000950BA60BB70B4C015D018E010A5F1F4FA0
:102C100081149104A104B10409F4A7CF4E815F810E
:102C20006885798598018B8D9C8D0E946B1491E04D
:102C3000891A9108A108B1088111EACF87CFDF91E5
:102C4000CF911F910F91FF90EF90DF90CF90BF90A9
:102C5000AF909F908F9008952F923F924F925F92E6
:102C60006F927F928F929F92AF92BF92CF92DF929C
:102C7000EF92FF920F931F93CF93DF9300D01F9299
:102C8000CDB7DEB78C015B011A01DC0115968C9182
:102C900015978130C9F414968C9181FF15C082FF7D
:102CA0001BC0F8014389548965897689828593859B
:102CB000A485B58584179507A607B70769F0C801ED
:102CC0000E949615811108C081E090E0F80193837D
:102CD000828380E090E039C1610183C0D8015B96B6
:102CE0008D919C915C97FC01248121502A013B012C
:102CF00039E076946794579447943A95D1F7722EB9
:102D000074207A01F1E0FF22772009F476C080E098
:102D100092E08E199F0946018C159D0508F44C011F
:102D2000D8015B962D913C915C9716968D919D9163
:102D30000D90BC91A02D0297A109B109F90105845C
:102D400004C0880F991FAA1FBB1F0A94D2F746859B
:102D5000578560897189840F951FA61FB71F9C0135
:102D6000AD01270D311D411D511D29013A0181146D
:102D700032E0930609F088C080910B0290910C021A
:102D8000A0910D02B0910E0284159505A605B70518
:102D900059F48FEF9FEFDC0180930B0290930C02AC
:102DA000A0930D02B0930E029501B301A201809190
:102DB000E1059091E2050E94FB07882309F484CF86
:102DC0009EEFB91AC818D908F80182859385A485A1
:102DD000B585880D991DA11DB11D82879387A48794
:102DE000B587D8011A964D915D916D917C911D9793
:102DF000C114D10409F072CF87C0E114F10409F0C5
:102E000086CF16964D915D916D917C9119974115E4
:102E100051056105710559F457968D919D910D905D
:102E2000BC91A02D0097A105B10541F521C09E01DF
:102E30002F5F3F4F0E946B14882309F44BCF898189
:102E40009A81AB81BC81F801238D348DF9012789EA
:102E5000203129F048EF5FEF6FEF7FE004C048EFCB
:102E60005FEF60E070E084179507A607B70730F0C2
:102E7000C8010E94DA0381114ACF26CFF801868368
:102E80009783A087B18743CFE114F10429F5D801D6
:102E90001A964D915D916D917C911D9753968D91F0
:102EA0009D910D90BC91A02D481759076A077B078B
:102EB00098F00E944713882309F406CF40920B0232
:102EC00050920C0260920D0270920E0280915C0989
:102ED000816080935C0908C041E0C301B2010E9497
:102EE0008213882309F4F0CED501F701EF51FC4F8E
:102EF000CF01880D991DE817F90719F02D9121933D
:102F0000FACFA80CB91C5ECF53968D919D910D9070
:102F1000BC91A02D84179507A607B70740F4F801C8
:102F2000438B548B658B768B848180688483D80136
:102F300014968C9183FD02C0C10107C0C8010E9494
:102F40005815882309F4C0CEF7CF0F900F900F903B
:102F50000F90DF91CF911F910F91FF90EF90DF9035
:102F6000CF90BF90AF909F908F907F906F905F9029
:102F70004F903F902F900895CF93DF931F92CDB73E
:102F8000DEB7698341E050E0BE016F5F7F4F0E9472
:102F90002C160F90DF91CF9108952F923F924F9270
:102FA0005F926F927F928F929F92AF92BF92CF92D9
:102FB000DF92EF92FF920F931F93CF93DF93EC0179
:102FC0006B014A018D81811103C08FEF9FEFD7C044
:102FD0008C8180FFFACF4B885C886D887E884A851B
:102FE0005B856C857D85C401A0E0B0E09301820122
:102FF000041B150B260B370B081719072A073B076D
:1030000018F44201841A950A54011E0126E0220E8A
:10301000311CA114B10409F47EC04A855B856C851E
:103020007D852A0181E05822ED818A019B0189E09A
:1030300036952795179507958A95D1F78B8D9C8D99
:10304000E23061F4FC01828D938DA48DB58DBC01BD
:10305000CD01600F711F821F931F3FC0FC01748060
:103060007A94702241145104C9F4711017C0452B91
:10307000462B472B49F48F89988DA98DBA8D8E8365
:103080009F83A887B9870AC04E815F81688579854B
:1030900091010E946B14882309F497CFEB8DFC8D6E
:1030A0008E819F81A885B9850297A109B109058400
:1030B00004C0880F991FAA1FBB1F0A94D2F7468528
:1030C000578560897189840F951FA61FB71FBC01A2
:1030D000CD01670D711D811D911D20E032E0241985
:1030E000350935012A153B0508F439012C8126FDE7
:1030F00004C06114F2E07F0681F400910B0210918C
:103100000C0220910D0230910E02601771078207A8
:103110009307B1F402C0C40132C040E00E948213A0
:10312000882309F452CFF201EF51FC4FD601CF01B1
:10313000860D971DE817F90789F021912D93FACF95
:10314000760183019201AB01BC018091E105909170
:10315000E2050E946707882309F437CFC60CD71C05
:103160008A859B85AC85BD85860D971DA11DB11DEA
:103170008A879B87AC87BD87A618B7084ACFDF919F
:10318000CF911F910F91FF90EF90DF90CF90BF9064
:10319000AF909F908F907F906F905F904F903F90F7
:1031A0002F90089585ED8093BC008091BC0084FD34
:1031B000FCCF1092E50508954091D109262F30E00B
:1031C000240F311D21323105DCF42091E505243036
:1031D000C9F4FC0180E090E0861758F43091D109E1
:1031E0002191DC01A155B64FA30FB11D2C9301967F
:1031F000F3CF8091D109680F6093D10980E00895E1
:1032000081E0089582E00895089581E090E0309192
:10321000E9052091E805321710F480E090E09195DF
:103220008195910908958091E9059091E8058917A4
:1032300030F48F5F8093E90580E090E008958FEF90
:103240009FEF08958091E80590E02091E905821BA9
:1032500091090895CF92DF92EF92FF920F931F93FF
:10326000CF93DF937C01262F972F8A0180918109CC
:10327000882391F0C62FD72F6E01C40ED51ECC1512
:10328000DD0571F06991D701ED91FC910190F0811C
:10329000E02DC7011995F3CF642F822F0E94DC180F
:1032A000C801DF91CF911F910F91FF90EF90DF90B8
:1032B000CF900895CF93DF931F92CDB7DEB7698388
:1032C000209181092223D1F02091E605203240F09F
:1032D00021E030E0FC013383228380E090E015C0E0
:1032E0008091E705E82FF0E0EF59F64F9981908340
:1032F0008F5F8093E7058093E60505C061E0CE010E
:1033000001960E94DC1881E090E00F90DF91CF9150
:1033100008953FB7F8948091AB099091AC09A091C2
:10332000AD09B091AE0926B5A89B05C02F3F19F095
:103330000196A11DB11D3FBFBA2FA92F982F882735
:10334000820F911DA11DB11DBC01CD0142E0660F90
:10335000771F881F991F4A95D1F70895CF92DF9262
:10336000EF92FF920F931F93CF93DF936C017A013B
:103370008B01C0E0D0E0CE15DF0589F0D8016D915A
:103380008D01D601ED91FC910190F081E02DC601F7
:103390001995892B11F47E0102C02196ECCFC7014B
:1033A000DF91CF911F910F91FF90EF90DF90CF9021
:1033B00008950F931F93CF93DF93EC018881998138
:1033C000009729F02A813B812617370788F48B0163
:1033D0006F5F7F4F0E943D27009761F0998388833C
:1033E0001B830A832C813D81232B11F4FC01108265
:1033F00081E001C080E0DF91CF911F910F9108958E
:103400001F920F920FB60F9211240BB60F922F93AB
:103410003F934F935F936F937F938F939F93AF935C
:10342000BF93EF93FF938091B900887F803609F4B2
:103430009CC068F5883209F45BC090F4803109F4CF
:1034400054C038F4882309F4F6C0883009F44DC01C
:10345000F6C0883109F44CC0803209F45DC0EFC079
:10346000803409F468C048F4803309F455C08833C7
:1034700009F0E5C080938209D8C0803509F44FC0B7
:10348000883509F45DC0883409F0D9C0D6C08839C0
:1034900009F4C7C0A8F4883709F467C038F488363F
:1034A00009F463C0803709F460C0C9C0883809F4E2
:1034B000B8C0803909F45FC0803809F0C0C05BC073
:1034C000803B09F486C038F4803A09F466C0883A33
:1034D00009F47FC0B4C0803C09F4A7C0883C09F45B
:1034E000A4C0883B09F48AC0AAC08091A50910C075
:1034F0009091A4098091A309981770F5E091A4090F
:1035000081E08E0F8093A409F0E0ED57F64F8081A3
:103510008093BB0085EC86C0809382098EC0E091C9
:10352000A40981E08E0F8093A4098091BB00F0E094
:10353000ED57F64F80839091A4098091A3096EC046
:10354000E091A40981E08E0F8093A4098091BB00D3
:10355000F0E0ED57F64F80838091E40581116DC056
:1035600081E08093E30584EA61C083E08093E50510
:103570001092F509CFCF8091F509803208F051C043
:10358000E091F50981E08E0F8093F5098091BB00F1
:10359000F0E0EB52F64F8083BDCF85EC8093BC000A
:1035A0001092E5058091F509803230F4E091F5093B
:1035B000F0E0EB52F64F10826091F50970E0E09177
:1035C000D309F091D40985ED99E019951092F50988
:1035D00036C084E08093E5051092D2091092D1099B
:1035E000E091CF09F091D00919958091D10981110D
:1035F00005C081E08093D1091092AF09E091D20912
:1036000081E08E0F8093D209F0E0E155F64F808182
:103610008093BB009091D2098091D109981708F44A
:1036200079CF85E88093BC000AC085EC8093BC000C
:103630001092E50504C0109282090E94D218FF91F1
:10364000EF91BF91AF919F918F917F916F915F911A
:103650004F913F912F910F900BBE0F900FBE0F9087
:103660001F90189590E0FC013197E231F10508F0C8
:103670004EC08827EE58FF4F8F4F0C94082680913C
:1036800080008F7703C0809180008F7D80938000C1
:10369000089580918000877FF9CF84B58F7702C02D
:1036A00084B58F7D84BD08958091B0008F7703C06D
:1036B0008091B0008F7D8093B0000895809190003C
:1036C0008F7707C0809190008F7D03C0809190001C
:1036D000877F8093900008958091A0008F7707C026
:1036E0008091A0008F7D03C08091A000877F809390
:1036F000A0000895809120018F7707C0809120015C
:103700008F7D03C080912001877F809320010895E1
:103710001F93CF93DF93282F30E0F901E256FD4F3E
:103720008491F901E85AFD4FD491F901EE5EFD4F05
:10373000C491CC23C9F0162F81110E94321BEC2FAB
:10374000F0E0EE0FFF1FE850FE4FA591B4918FB748
:10375000F894111105C09C91ED2FE095E92302C06A
:10376000EC91ED2BEC938FBFDF91CF911F910895DA
:10377000CF93DF9390E0FC01E85AFD4F2491FC01C8
:10378000EE5EFD4F8491882361F190E0880F991FD0
:10379000FC01E252FE4FC591D491FC01E850FE4F6E
:1037A000A591B491611109C09FB7F89488812095C3
:1037B00082238883EC912E230BC0623061F49FB783
:1037C000F8943881822F809583238883EC912E2B67
:1037D0002C939FBF06C08FB7F894E8812E2B2883C7
:1037E0008FBFDF91CF9108958F929F92AF92BF923A
:1037F000CF92DF92EF92FF926B017C010E948919B8
:103800004B015C01C114D104E104F104F1F00E9408
:103810008919DC01CB0188199909AA09BB09883EDD
:103820009340A105B10570F321E0C21AD108E10867
:10383000F10888EE880E83E0981EA11CB11CC1140B
:10384000D104E104F10419F7DDCFFF90EF90DF9090
:10385000CF90BF90AF909F908F9008952FB7F8941E
:103860006091A7097091A8098091A9099091AA096E
:103870002FBF08951F920F920FB60F9211242F930E
:103880003F938F939F93AF93BF938091A70990919C
:10389000A809A091A909B091AA093091A60923E02D
:1038A000230F2D3720F40196A11DB11D05C026E878
:1038B000230F0296A11DB11D2093A6098093A7098D
:1038C0009093A809A093A909B093AA098091AB0984
:1038D0009091AC09A091AD09B091AE090196A11DDE
:1038E000B11D8093AB099093AC09A093AD09B0933F
:1038F000AE09BF91AF919F918F913F912F910F9002
:103900000FBE0F901F901895EF92FF920F931F9389
:10391000CF93DF93FC01248135816115710511F48A
:1039200080E019C041155105A9F07B01EC018A0125
:10393000020F131FB8010E94D919882389F3288127
:1039400039818C819D81B701820F931F0E944C2881
:103950001D830C8381E0DF91CF911F910F91FF9028
:10396000EF900895CF93DF93EC01888199810097C0
:1039700011F00E94A526198218821D821C821B82CA
:103980001A82DF91CF910895CF93DF93EC016115F7
:10399000710561F0FB0101900020E9F73197AF015B
:1039A000461B570B0E94841C811103C0CE010E944C
:1039B000B21CCE01DF91CF910895EF92FF920F9349
:1039C0001F93CF93DF93EC017B018A01BA010E9420
:1039D000D919811104C0CE010E94B21C07C01D83F9
:1039E0000C83B701888199810E944C28CE01DF9118
:1039F000CF911F910F91FF90EF900895FC011182DC
:103A0000108213821282158214826115710551F0A1
:103A1000FB0101900020E9F73197AF01461B570BDE
:103A20000C94DD1C08956115710579F0FB0101907E
:103A30000020E9F73197AF01461B570BDC01ED91F0
:103A4000FC910280F381E02D199480E090E00895CC
:103A5000CF93DF93CDB7DEB7C357D1090FB6F89434
:103A6000DEBF0FBECDBF789484B5826084BD84B5BF
:103A7000816084BD85B5826085BD85B5816085BD69
:103A800080916E00816080936E0010928100809121
:103A900081008260809381008091810081608093A9
:103AA0008100809180008160809380008091B100CE
:103AB00084608093B1008091B00081608093B000F9
:103AC000809191008260809391008091910081604B
:103AD000809391008091900081608093900080910C
:103AE000A10082608093A1008091A10081608093F9
:103AF000A1008091A00081608093A00080912101AD
:103B00008260809321018091210181608093210155
:103B10008091200181608093200180917A008460EF
:103B200080937A0080917A00826080937A008091FD
:103B30007A00816080937A0080917A008068809317
:103B40007A001092C1006E0129E6C20ED11C6CE011
:103B500073E0C6010E94FE1C82E090E0A0E0B0E0AD
:103B60008093B4039093B503A093B603B093B703C7
:103B700086EA93E09093B3038093B2038091700040
:103B80008E7F809370008091B0008C7F8093B00016
:103B90008091B100877F8093B1008091B6008F7DC6
:103BA0008093B600809170008D7F8093700080912B
:103BB000B10084608093B1008091B1008C7F8093CC
:103BC000B10086E090E09093B9038093B80310921F
:103BD000BB031092BC031092BD031092BE0310925F
:103BE000BA038091B8039091B9038093B200809199
:103BF00070008160809370000E942E1C6093C5034A
:103C00007093C6038093C7039093C8036093C10366
:103C10007093C2038093C3039093C40380917B008D
:103C2000886080937B0086E480937C0080917A009A
:103C3000806480937A0080917A0086FDFCCF609149
:103C400078008091790070E0782B072E000C880BAB
:103C5000990B611571058105910511F00E946A2586
:103C60000E94001088E08093290960E08EE199E0CD
:103C70000E94620A16E161E0812F0E94B81B1F5F5B
:103C80001E32C9F712E061E0812F0E94B81B1F5F4E
:103C90001E30C9F78EE28093EB07E0911008F09197
:103CA000110882E08083E0910C08F0910D081082E9
:103CB000E0910E08F0910F088FEC808310921808A5
:103CC000E0911408F091150886E08083E0911208D5
:103CD000F0911308808180618083E0911208F09157
:103CE0001308808188608083E0911208F0911308A6
:103CF000808180688083E0911208F09113088081B0
:103D00008F7D80831092C5081092C3081092C0085E
:103D10001092BF0885E38093BE080E942E1C8B0181
:103D200061E08091BE080E94B81B61E08091BE08EE
:103D30000E94881BFFB6F8948091CB03811127C0A5
:103D4000E7E4F2E08491EDE8F2E09491E82FF0E00E
:103D5000EE0FFF1FE252FE4FA591B491EC91E923C3
:103D600021F461E085E30E94881B61E085E30E9405
:103D7000B81B8CB580618CBD8CB580648CBD61E056
:103D800084E30E94B81B61E083E30E94B81B80912A
:103D9000CB038F5F8093CB03FFBE82E580939D08AA
:103DA00010929E0880919D0890919E080E94EC06BA
:103DB0008AE0F82E8FEF0E94AD06FA94F110FACF48
:103DC0008AEB98E00E94EF0620E030E0A90160E075
:103DD0008AEB98E00E940507F82E8093C40841E022
:103DE000841749F00E942E1C601B710B613D7740C7
:103DF00058F381E056C02AEA31E040E050E068E044
:103E00008AEB98E00E94050782FF03C0F092C50884
:103E100010C0B4E0FB2E0E94B4068093C408FA944C
:103E2000F110F9CF8A3A11F082E03BC082E0809332
:103E3000C5088091C508823021F0812C912C540155
:103E400005C0812C912CA12CA0E4BA2E20E030E0FA
:103E5000A90167E38AEB98E00E940507A501940198
:103E600069E28AEB98E00E9405078093C4088823E2
:103E700049F00E942E1C601B710B613D774030F3AE
:103E800088E00FC08091C508823001F520E030E065
:103E9000A9016AE38AEB98E00E940507882341F0B4
:103EA00086E08093BF088AEB98E00E94A20699C042
:103EB0000E94B406807C803C19F483E08093C5089E
:103EC0000E94B4060E94B4060E94B4068AEB98E0F1
:103ED0000E94A20680E580939D0810929E0881E0D2
:103EE0000E94AC10882329F08091E908882341F0D2
:103EF00078C080E00E94AC10882309F472C0F4CF2F
:103F00008091DD08803109F582E08093E908109204
:103F1000FB081092FC081092FD081092FE08809198
:103F2000DE089091DF08A0E0B0E0F5E0880F991F6F
:103F3000AA1FBB1FFA95D1F78093F7089093F80852
:103F4000A093F908B093FA081EC0803209F049C066
:103F500083E08093E9084091E0085091E108609186
:103F6000E2087091E3084093FB085093FC086093CB
:103F7000FD087093FE0827EF38E086EC98E00E9479
:103F8000EF14882371F186EC98E0909300098093F8
:103F9000FF0881E08093E8081092EA081092EB088D
:103FA0001092EC081092ED081092EE081092EF08B3
:103FB0001092F0081092F1081092F2081092F30893
:103FC0001092F4081092F5081092F6088E010F5F17
:103FD0001F4FEEEB8E2EE2E09E2ECE01CF963C01DF
:103FE000B3C062E073E080E098E00E94131D6AE0D5
:103FF00073E080E098E00E94131DD6018D919C91A2
:104000006FC1C8010E94B21C6DE073E0C8010E943C
:10401000C41C8C159D0509F0C6C089819A810E9437
:10402000A5268AA19BA10E94A526D601AD90BC9091
:1040300023961FAE1EAE2397F301918280822596B0
:104040001FAE25971DA21CA29BA28AA21FA2E096CA
:104050001FAEE097312C562C472C74EEE72E78E0FB
:10406000F72EE096EFADE097F32DD501AE0FBF1F11
:104070008C918F3209F43196AE01445A5F4F80E043
:1040800090E095012E0F3F1FD9012C912F3251F056
:10409000222341F001963196DA012D93AD018C3047
:1040A000910579F7ACE5B0E0AC0FBD1FA80FB91FC3
:1040B0001C92D501AE0FBF1F8C918F3209F431963F
:1040C000E096EFAFE0973F2EEA0DFB1D20801C82AB
:1040D0001B829A8289821E8221E0AE01445A5F4F80
:1040E000B701C8010E94DD04882309F46CC0C8012F
:1040F0000E94CE03211070C0F4EEEF16F8E0FF0628
:1041000019F0C7010E94CE0362E173E0C8010E946A
:10411000FE1CAF964EAD5FADAF97AB966EAD7FAD6B
:10412000AB97C8010E94841C811103C0C8010E9482
:10413000B21C68E173E0C8010E94C41C0E94951083
:1041400089819A810E94A5260E9466251BA21AA237
:104150001DA21CA21FA21EA220E1A80160E070E027
:1041600080E090E80E947325F80101900020E9F7B3
:104170003197AF01401B510BB801CE0182960E94CE
:10418000DD1C1A8219821C821B821E821D826AA17A
:104190007BA16115710509F434CF4EA15FA1C8015F
:1041A0000E94DD1C31CFFC016081718161157105B8
:1041B00031F044815581C6010E94DD1C2ECFC6011D
:1041C0000E94B21C2ACFB4EEEB16B8E0FB06F9F061
:1041D000C7010E94CE031BC021E0AE01445A5F4FCD
:1041E000B701852D942D0E94DD04282EE4EEEE16F5
:1041F000E8E0FE0609F433C3C7010E94CE03222083
:1042000031F09E2D8F2DE52CF42C2C012ACF60E06F
:1042100080E00E94D80BD60114964D915C911597C1
:104220006D917C918EE199E00E94AE1962E173E09C
:10423000C8010E94FE1CF601448155816081718194
:10424000C8010E94841C811103C0C8010E94B21CD5
:104250006BE273E0C8010E94C41C0E949510898122
:104260009A810E94A526D6016D917C9143E1C801F7
:104270000E945D0C8B819C819093060980930509B7
:104280008D819E81AF81B88580930709909308093D
:10429000A0930909B0930A0989859A85AB85BC85E5
:1042A00080930B0990930C09A0930D09B0930E090C
:1042B0008DE0FE013D96AFE0B9E001900D928A9548
:1042C000E1F78A8D9B8D90931D0980931C0968EE00
:1042D00073E080E090E00E94F41BF6018081918100
:1042E0000E94A5263324339468EE862E63E0962E32
:1042F000A12CB12C01E010E08091C9039091CA0378
:104300008130910509F4FBC024F4892B09F45BC0CA
:1043100007C08230910509F45DC1099709F4DDC138
:1043200052E0F52E61E082E00E94D80B0E942E1C24
:10433000A50194010E94D725CA01B9014AE00E9453
:10434000080C61E08F2D0E94881B68EE73E080E00E
:1043500090E00E94F41B60E08F2D0E94881B68EEA5
:1043600073E080E090E00E94F41BF394FEE0FF1203
:10437000D9CF46E1F42E61E082E00E94D80B0E9482
:104380002E1CA50194010E94D725CA01B9014AE05B
:104390000E94080C61E08F2D0E94881B68EE73E07C
:1043A00080E090E00E94F41B60E08F2D0E94881B4B
:1043B00068EE73E080E090E00E94F41BF3942EE23C
:1043C000F212D9CFDFC18FEF9FEF9093CA03809392
:1043D000C9030E94001087E493E00E94890D0E94A7
:1043E000662524E833E040E050E00E94A5259B01CB
:1043F000AC012C593F4F4F4F5F4FE3962CAF3DAF71
:104400004EAF5FAFE397C12CD12C7601E1968EAD14
:104410009FADE1978C0D9D1D181619060CF043C039
:1044200092E061E0892FE4969FAFE4970E94881B99
:10443000E4969FADE4979F5F9E3099F7E3964CAC6E
:104440005DAC6EAC7FACE3974C0C5D1C6E1C7F1CAE
:10445000C301B2010E94F41B92E060E0892FE49650
:104460009FAFE4970E94881BE4969FADE4979F5FFF
:104470009E3099F7C301B2010E94F41B8091580944
:10448000882309F482C180913F09882309F47DC102
:1044900060E080E00E94D80B63EA73E08EE199E06F
:1044A0000E94131D6FC10E94740D8DE793E00E945E
:1044B000890D80915809882379F060E080E00E949E
:1044C000D80B6AE573E08EE199E00E94131D10930A
:1044D000CA030093C90338C180913F09882349F377
:1044E00060E080E00E94D80B63E773E08EE199E022
:1044F0000E94131D1093CA030093C9033BC10E947D
:104500002E1C6093C5037093C6038093C7039093DA
:10451000C8032091D003C090C103D090C203E090A3
:10452000C303F090C403DC01CB018C199D09AE09D3
:10453000BF0921110CC0883B9B40A105B10548F182
:1045400084E090E09093CA038093C9031BC18C322E
:104550009140A105B105E8F0609104027091050257
:1045600080910602909107024091BF035091C003D1
:10457000660F771F2091020230910302621B730BBA
:10458000880F991F2091000230910102821B930B2A
:10459000F7C080914909811114C1809130098111BE
:1045A00010C180914E09811120C18091350981117E
:1045B0001CC18091530981112CC180913A0981114C
:1045C00028C180914409811137C180912B09811143
:1045D00033C1D8C00E942E1C6093C5037093C603DC
:1045E0008093C7039093C8036093C1037093C20381
:1045F0008093C3039093C4030E94070B1092D003CF
:104600001093CA030093C9034091BF035091C003A4
:1046100020910402309105028091060290910702D8
:104620004130510569F5232B89F49C012150310952
:104630002330310528F44FEF5FEF61E070E010C0E8
:1046400004974FEF5FEF61E070E012C09C012150D2
:1046500031092330310538F44FEF5FEF63E070E04C
:1046600082E090E08DC004974FEF5FEF63E070E071
:10467000039718F484E090E083C088E090E080C065
:10468000232B89F49C01285031092330310528F46B
:1046900041E050E061E070E010C0059741E050E07B
:1046A00061E070E012C09C012850310923303105CF
:1046B00038F441E050E064E070E089E090E060C0F0
:1046C000059741E050E064E070E0039718F487E05C
:1046D00090E056C083E090E053C00E942E1C60938F
:1046E000C5037093C6038093C7039093C803609378
:1046F000C1037093C2038093C3039093C4030E94C9
:10470000740D8DE793E00E94890D1092D0031093F1
:10471000CA030093C90360E080E00E94D80B809137
:10472000060290910702892BB1F48091CC039091FD
:10473000CD0301969093CD038093CC0369E873E099
:104740008EE199E00E94131D41E050E062E070E0CC
:1047500085E090E015C08091CE039091CF03019643
:104760009093CF038093CE0365E973E08EE199E0E7
:104770000E94131D4FEF5FEF62E070E086E090E073
:104780000E941C0B0E94AC12B7CD80913F09882378
:1047900039F060E080E00E94D80B6FE473E093CEC4
:1047A0008091580934E6C31AD108E108F10888233A
:1047B00009F42CCE60E080E00E94D80B66E673E03E
:1047C00095CE8091BF039091C003609104027091D7
:1047D00005022091060230910702AC01820F931F5F
:1047E0000E941C0B3092D003DCCE2091BF0330918D
:1047F000C0036091040270910502809106029091BD
:104800000702A901821B930B0E941C0B3092D0035C
:10481000D0CE4091BF035091C003609104027091CB
:104820000502640F751F80910602909107020E9495
:104830001C0B3092D003C5CE4091BF035091C003F2
:104840006091040270910502641B750B8091060251
:10485000909107020E941C0B3092D00393CF8823C3
:1048600009F4D5CC9E012E5D3F4F7901CACCCF9281
:10487000DF92EF92FF920F931F93CF93DF93E4EFBA
:10488000F7E01382128288EEC82E83E0D82EE12C46
:10489000F12CC482D582E682F7828AE992E0918384
:1048A0008083E0E0F8E013821282C482D582E6823F
:1048B000F7828CEA92E09183808385EC90E0958783
:1048C000848784EC90E09787868780EC90E0918BDA
:1048D000808B81EC90E0938B828B82EC90E0958BC7
:1048E000848B86EC90E0978B868B118E128E138EC4
:1048F000148EEDE9F8E080E580831182EFE9F8E0BD
:1049000013821282C482D582E682F7820AEC12E018
:1049100011830083128E118E1486EAEBF8E0158263
:1049200016821186138682E090E0A0E0B0E08487D2
:104930009587A687B78713A215A614A68EEB92E0DB
:1049400093A782A717A6E7E5F9E086E38483CFE083
:10495000C38362E00E94B81BE2E5F9E087E3848349
:10496000C38362E00E94B81BEDE4F9E088E384832E
:10497000C38362E00E94B81BE8E4F9E089E3848322
:10498000C38362E00E94B81BE3E4F9E08AE3848316
:10499000C38362E00E94B81BEEE3F9E08BE38483FB
:1049A000C38362E00E94B81BE9E3F9E08CE38483EF
:1049B000C38362E00E94B81BE4E3F9E08DE38483E3
:1049C000C38362E00E94B81BEFE2F9E08EE38483C8
:1049D000C38362E00E94B81BEAE2F9E0DFE3D4831C
:1049E000C38362E08FE30E94B81BEEE1F9E013821B
:1049F00012828EEE92E091838083D48380E181875E
:104A000082E082871386E3E0F9E013821282C48297
:104A1000D582E682F78211830083128E118E14866E
:104A2000DF91CF911F910F91FF90EF90DF90CF908A
:104A300008958F929F92AF92BF92CF92DF92EF92A2
:104A4000FF92CF93DF93EC01688179818A819B810A
:104A5000611571058105910521F464E279ED8BE51D
:104A600097E02DE133EF41E050E00E94A525490198
:104A70005A019B01AC01A7EAB1E40E94C4256B0175
:104A80007C01ACEEB4EFA50194010E94D225DC01BB
:104A9000CB018C0D9D1DAE1DBF1DB7FF03C001973F
:104AA000A109B04888839983AA83BB83BC01CD0147
:104AB0009F77DF91CF91FF90EF90DF90CF90BF90E5
:104AC000AF909F908F9008950C9419258FE092E0FD
:104AD0000C94192560930F027093100280931102B9
:104AE000909312020895BB27FA01A62F6217710551
:104AF00081059105330B30FB66F0AA27660F771FFF
:104B0000881F991FAA1FA21710F0A21B6395385087
:104B1000A9F7A05DAA3308F0A95DA19336F7B111FA
:104B2000B1931082CA010C949525DC01FC01672F1A
:104B300071917723E1F7329704C07C916D93708374
:104B40006291AE17BF07C8F30895052E97FB1EF4B8
:104B500000940E94BC2557FD07D00E94D72507FC72
:104B600003D04EF40C94BC2550954095309521957A
:104B70003F4F4F4F5F4F0895909580957095619589
:104B80007F4F8F4F9F4F08950E94F925A59F900D4D
:104B9000B49F900DA49F800D911D11240895B7FF1F
:104BA0000C94C4250E94C425821B930B0895A1E296
:104BB0001A2EAA1BBB1BFD010DC0AA1FBB1FEE1F97
:104BC000FF1FA217B307E407F50720F0A21BB30BE2
:104BD000E40BF50B661F771F881F991F1A9469F75E
:104BE00060957095809590959B01AC01BD01CF01BA
:104BF0000895A29FB001B39FC001A39F700D811DB6
:104C00001124911DB29F700D811D1124911D0895D5
:104C1000EE0FFF1F881F8BBF0790F691E02D1994B0
:104C2000CF93DF938230910510F482E090E0E09121
:104C3000F809F091F90920E030E0C0E0D0E03097C9
:104C400011F14081518148175907C0F048175907A1
:104C500061F482819381209719F09B838A832BC012
:104C60009093F9098093F80926C02115310519F0B0
:104C70004217530718F49A01BE01DF01EF010280C9
:104C8000F381E02DDCCF2115310509F1281B390B0B
:104C90002430310590F412968D919C9113976115F3
:104CA000710521F0FB019383828304C09093F9097D
:104CB0008093F809FD01329644C0FD01E20FF31F15
:104CC00081939193225031092D933C933AC02091C6
:104CD000F6093091F709232B41F420911502309108
:104CE00016023093F7092093F609209113023091B0
:104CF00014022115310541F42DB73EB7409117023A
:104D000050911802241B350BE091F609F091F70938
:104D1000E217F307A0F42E1B3F0B2817390778F092
:104D2000AC014E5F5F4F2417350748F04E0F5F1FF1
:104D30005093F7094093F6098193919302C0E0E004
:104D4000F0E0CF01DF91CF9108950F931F93CF93A0
:104D5000DF93009709F48CC0FC0132971382128212
:104D60000091F8091091F9090115110581F42081CC
:104D70003181820F931F2091F6093091F70928178E
:104D8000390779F5F093F709E093F60971C0D80176
:104D900040E050E0AE17BF0750F412962D913C91C1
:104DA0001397AD012115310509F1D901F3CF9D010B
:104DB000DA013383228360817181860F971F821706
:104DC000930769F4EC0128813981260F371F2E5F84
:104DD0003F4F318320838A819B8193838283452B3C
:104DE00029F4F093F909E093F80942C01396FC9373
:104DF000EE931297ED01499159919E01240F351FB1
:104E0000E217F30771F480819181840F951F029658
:104E100011969C938E938281938113969C938E938B
:104E20001297E0E0F0E0D80112968D919C911397D3
:104E3000009719F0F8018C01F6CF8D919C919801A3
:104E40002E5F3F4F820F931F2091F6093091F70993
:104E50002817390769F4309729F41092F90910924C
:104E6000F80902C0138212821093F7090093F60921
:104E7000DF91CF911F910F9108956F927F928F9242
:104E80009F92AF92BF92CF92DF92EF92FF920F93D9
:104E90001F93CF93DF93EC01009789F4CB01DF914F
:104EA000CF911F910F91FF90EF90DF90CF90BF9027
:104EB000AF909F908F907F906F900C941026FC0184
:104EC000E60FF71F9C0122503109E217F30708F49F
:104ED000ACC0D9010D911C91119706171707B0F0BE
:104EE0000530110508F49FC0C8010497861797077D
:104EF00008F499C002501109061B170B0193119376
:104F00006D937C93CF010E94A5268DC05B01A01AF2
:104F1000B10A4C01800E911EA091F809B091F909D7
:104F200040E050E0E12CF12C109709F44AC0A8159C
:104F3000B905D1F56D907C901197630182E0C80EA0
:104F4000D11CCA14DB0480F1A3014A195B096A0170
:104F500082E0C80ED11C1296BC9012971396AC91A9
:104F6000B5E0CB16D10440F0B282A38351834083D5
:104F7000D9016D937C930AC00E5F1F4FC301800F50
:104F8000911FF90191838083EB2DFA2FE114F10435
:104F900031F0D7011396FC93EE93129744C0F0932F
:104FA000F909E093F8093FC08D919C91119748173A
:104FB000590708F4AC017D0112960D90BC91A02D0B
:104FC000B3CF8091F6099091F70988159905E1F41E
:104FD00046175707C8F48091130290911402009766
:104FE00041F48DB79EB74091170250911802841B6F
:104FF000950BE817F907C8F4F093F709E093F60961
:10500000F901718360830FC0CB010E9410267C01DF
:10501000009759F0A801BE010E943828CE010E94D5
:10502000A526C70104C0CE0102C080E090E0DF9158
:10503000CF911F910F91FF90EF90DF90CF90BF9095
:10504000AF909F908F907F906F90089581E090E057
:10505000F8940C946228FB01DC0104C08D9101904E
:10506000801921F441505040C8F7881B990B0895CE
:10507000FB01DC0102C001900D9241505040D8F775
:105080000895FC018191861721F08823D9F799278B
:1050900008953197CF010895FB01DC0101900D9235
:1050A0000020E1F70895FB01DC014150504048F039
:1050B00001900D920020C9F701C01D92415050404F
:0850C000E0F70895F894FFCF1A
:1050C800FFFFFFFFFFFFFFFF010160FFFFFFFF0181
:1050D8000000000000FA098000FFFF27FFFFFF0122
:1050E8002303FFFF19251DFFFF1A241CFFFF1B22A6
:1050F8001EFFFFFF2AFFFFFFFF2CFFFFFF172B1FDD
:10510800FFFF162621FFFF182D20FFFF022904FFAD
:10511800FFFF28FFFF000040001400540000840037
:105128009400A4002401DF03DD03DB03D903880016
:105138009800A80028016F007100720073008100B8
:105148009100A100210180009000A00020018600AC
:105158009600A6002601000000005A192A19DE014F
:105168000419221913190519000000004312AE1979
:10517800DB118A120C12EA11FE1100000000BC17A4
:10518800AE19DE01DD0100000000C7013C03DE01AD
:10519800E101A6010803120300000000E512AE19A0
:1051A800DE01DD01E512E512E51200000000010B49
:1051B800AE19DE01DD0100000000E512AE19DE01C6
:1051C800DD015344206661696C000D0A002E747875
:1051D800740046696C6520002065786973747321D2
:1051E800204E6577207475726E210020646F657398
:1051F8006E27742065786973742120437265617421
:1052080065206E657721006F6C652E776176005298
:10521800656473206661696C210A477265656E73FF
:105228002077696E2100477265656E732066616933
:105238006C210A526564732077696E21007768696A
:1052480073746C652E77617600526564732073639E
:105258006F72652100477265656E732073636F72A4
:1052680065210043726F7373206661696C21002F9A
:02527800000034
:00000001FF
